:100000000C942A000C9447000C9447000C94C902ED
:100010000C9447000C9447000C9447000C94470044
:100020000C9447000C9447000C9447000C94470034
:100030000C9447000C9447000C9447000C94470024
:100040000C9447000C9447000C9447000C94470014
:100050000C94470011241FBECFE5D4E0DEBFCDBF16
:1000600010E0A0E6B0E0E4E2F9E002C005900D92F5
:10007000A237B107D9F720E0A2E7B0E001C01D9296
:10008000AA39B207E1F70E943F030C9490040C9444
:100090000000CF93DF93C82F8EEE0E948A028C2F30
:1000A0000E94AE028FEE0E948A020E94BB02C82FFD
:1000B0000E94C202D82F0E94A8022C2F30E0922F5B
:1000C00088278D0F911DDF91CF9108950F931F9376
:1000D000CF93DF93C82F8EEE0E948A028C2F0E944E
:1000E000AE028FEE0E948A020E94BB02082F0E947D
:1000F000C202C82F0E94C202D82F0E94A802802FDD
:1001000090E0A0E0B0E09C01112700274C2F50E0C8
:1001100060E070E0762F652F542F4427D901C80185
:10012000840F951FA61FB71F8D0F911DA11DB11D17
:10013000BC01CD01689414F89695879577956795DD
:100140001694D1F7DF91CF911F910F9108950F93DE
:100150001F93CF9308E810E0CEEB8C2F0E9449004C
:10016000F801929382938F01C250C83AB1F7CF91B0
:100170001F910F9108958EEE0E948A0280EE0E94D8
:10018000AE0286EB0E94AE020E94A80208950E9471
:10019000A7000E94BB0008958EEE0E948A0284EFA1
:1001A0000E94AE028EE20E94AE020E94A8028FE080
:1001B00097E20197F1F700C0000086EF0E94490026
:1001C000BC0180E090E008958EEE0E948A0284EFE8
:1001D0000E94AE0284EF0E94AE020E94A8028FE449
:1001E00093EC0197F1F700C0000086EF0E946600D3
:1001F00008952F923F924F925F926F927F928F92CB
:100200009F92AF92BF92CF92DF92EF92FF920F93A5
:100210001F93CF93DF93CDB7DEB728970FB6F8942F
:10022000DEBF0FBECDBF7C018B010E94CC004B0115
:100230005C010E94E40069837A838B839C830F2E88
:10024000F2E72F2EF0E03F2EF02DF101828593850D
:10025000092E000CAA0BBB0BA5019401281B390B1E
:100260004A0B5B0BA085B1850E9479044B015C01B0
:10027000072E7FE0B594A794979487947A95D1F749
:10028000702D62897389CB01770FAA0BBB0BBC0160
:10029000CD01052E5BE0660F771F881F991F5A95C9
:1002A000D1F7502D248935892901330F6608770845
:1002B000A3019201280D391D4A1D5B1D0E944F04A8
:1002C000820E931EA41EB51ED501C4010896A11D61
:1002D000B11D689413F8B595A795979587951694D1
:1002E000D1F7F70180839183A283B3837501640101
:1002F000F0EACF1AFFE0DF0AE108F108A701960152
:10030000C701B6010E941D044B015C01072E7CE071
:10031000B594A794979487947A95D1F7702DF101AD
:10032000A481B5810E9479042B013C01032E3DE09C
:1003300075946794579447943A95D1F7302DA485D6
:10034000B585A50194010E947904BB2797FDB0955E
:10035000AB2F840D951DA61DB71D0296A11DB11DC5
:10036000B595A79597958795B595A79597958795F1
:100370009C01AD0130584F4F5F4FA681B7810E945D
:100380006E049B01AC01012E1FE0569547953795F1
:1003900027951A95D1F7102D2D833E834F835887CB
:1003A00080819181092E000CAA0BBB0B2C013D0111
:1003B000440C551C661C771C440C551C661C771C91
:1003C000A685B785A50194010E9479044B015C01C3
:1003D000072E7BE0B594A794979487947A95D1F7EC
:1003E000702DA281B381A70196010E947904DC01DE
:1003F000CB01072E7BE0B595A795979587957A95C4
:10040000D1F7702D880E991EAA1EBB1E840C951C58
:10041000A61CB71C880C991CAA1CBB1C29813A81FC
:100420004B815C81281939094A095B09AAE6B8E1C0
:100430000E946E0499236CF0660F771F881F991F26
:100440002D813E814F8158850E942D0469017A01DA
:100450000CC02D813E814F8158850E942D04690179
:100460007A01CC0CDD1CEE1CFF1C9927F7FC9A9539
:100470008F2D7E2D6D2D9B01AC010E941D049B01D3
:10048000AC01AEEDBBE00E946E044C01BB2497FCB6
:10049000B094AB2CA3E4B3EEA70196010E947C04B8
:1004A000BB2797FDB095AB2F880D991DAA1DBB1DCD
:1004B0008153914FAF4FBF4F689413F8B595A795EF
:1004C000979587951694D1F78C0D9D1DAE1DBF1D78
:1004D000F80180839183A283B38328960FB6F894A2
:1004E000DEBF0FBECDBFDF91CF911F910F91FF9067
:1004F000EF90DF90CF90BF90AF909F908F907F90C4
:100500006F905F904F903F902F90089511B88CE0BE
:1005100080B9089594EA96BF06B607FEFDCF91B163
:10052000987F983011F0903179F483B984E886BFD0
:1005300006B607FEFDCF91B1987F983139F081E082
:10054000903429F480E0089581E0089580E00895D2
:1005500084E986BF06B604FCFDCF089583B984E81C
:1005600086BF06B607FEFDCF91B1987F81E0983235
:1005700009F480E0089584EC86BF06B607FEFDCF3F
:1005800083B1089584E886BF06B607FEFDCF83B128
:1005900008951F920F920FB60F9211242F933F933D
:1005A0008F939F93AF93BF932FB7809198009091B3
:1005B000990001969093990080939800883E93400B
:1005C000A9F58091910090919200A0919300B09133
:1005D00094000196A11DB11D80939100909392000B
:1005E000A0939300B09394001092990010929800F9
:1005F000809197008F5F8C3319F08093970016C01D
:1006000010929700809196008F5F8C3319F0809341
:1006100096000CC010929600809195008F5F8831F3
:1006200019F08093950002C0109295002FBFBF91E2
:10063000AF919F918F913F912F910F900FBE0F908F
:100640001F9018956AE670E08EE690E00E94F9002F
:100650008091910090919200A0919300B0919400AC
:100660000A96A11DB11D8093880090938900A093E4
:100670008A00B0938B0081E0809390000895F894F5
:100680008FEF8ABB1BBA8FE087BB88B3807F88BBA4
:100690000E9486020E94C70080E889BF8CE085BD69
:1006A0008DE783BD14BC2FEF89E698E1215080408F
:1006B0009040E1F700C000000E9422037894CCE84B
:1006C000D0E00F2EF8EE8F2EF3E09F2EA12CB12C50
:1006D000F02D0F2EFAE0CF2ED12CE12CF12CF02DA5
:1006E00011E002E06894332432F86894222423F85D
:1006F000409191005091920060919300709194000C
:100700008091880090918900A0918A00B0918B001F
:10071000481759076A077B0710F00E94220380914F
:100720009000882309F464C060916A0070916B00A6
:1007300080916C0090916D006F3FAFEF7A078A0750
:10074000AFE79A0709F44BC025E830E040E050E0FD
:100750000E942D0429013A01283EB3E03B074105E0
:10076000510594F0CA01B90120E137E240E050E0C0
:100770000E944F04A50194010E944F04F901E05A20
:10078000FF4F8081888301C01882C301B201A50197
:1007900094010E944F0424E630E040E050E00E94C3
:1007A0004F04F901E05AFF4F80818983C301B201F0
:1007B000A70196010E944F042B013C01CA01B90117
:1007C000A70196010E944F04FB01E05AFF4F808170
:1007D0008A83F201E05AFF4F80818B8307C080E457
:1007E00090E4DC0188839983AA83BB8310929000F4
:1007F00018BB88818BBBAFE3BFE11197F1F700C055
:10080000000008BB89818BBB8FE39FE10197F1F763
:1008100000C0000038BA8A818BBBAFE3BFE11197FB
:10082000F1F700C0000028BA8B818BBB8FE39FE1FA
:100830000197F1F700C000005BCFDB018F939F931E
:100840000E946E04BF91AF91A29F800D911DA39F46
:10085000900DB29F900D11240895A1E21A2EAA1BAB
:10086000BB1BFD010DC0AA1FBB1FEE1FFF1FA21760
:10087000B307E407F50720F0A21BB30BE40BF50B5D
:10088000661F771F881F991F1A9469F760957095E6
:10089000809590959B01AC01BD01CF010895052E77
:1008A00097FB1EF400940E94660457FD07D00E9437
:1008B0002D0407FC03D04EF40C946604509540952B
:1008C000309521953F4F4F4F5F4F089590958095FC
:1008D000709561957F4F8F4F9F4F08950E948104BF
:1008E000A59F900DB49F900DA49F800D911D112484
:1008F0000895B7FF0C946E040E946E04821B930B44
:100900000895A29FB001B39FC001A39F700D811DE8
:100910001124911DB29F700D811D1124911D089508
:04092000F894FFCF79
:100924003F065B4F666D7D077F6FFFFFFF7FFFFF15
:02093400FF7F43
:00000001FF
