S01000004E524632345F52582E73726563BF
S11300000C94BB000C94A40B0C94D8000C94D80052
S11300100C94D8000C94D8000C94D8000C94D800FC
S11300200C94D8000C94D8000C94D8000C94B70508
S11300300C94D8000C94D8000C94D8000C94D800DC
S11300400C94D8000C94D8000C94D8000C94D800CC
S11300500C94D8000C94D8000C94D8000C94D800BC
S11300600C94D8000C94D8006E616E00696E660022
S113007000407A10F35A00A0724E18090010A5D45B
S1130080E80000E87648170000E40B54020000CAB8
S11300909A3B000000E1F5050000809698000000FE
S11300A040420F000000A08601000000102700005D
S11300B00000E803000000006400000000000A00E3
S11300C0000000000100000000002C76D888DC67E6
S11300D04F0823DFC1DFAE59E1B1B796E5E3E4533E
S11300E0C63AE651997696E8E6C28426EB898C9B5B
S11300F062ED407C6FFCEFBC9C9F40F2BAA56FA5FB
S1130100F490055A2AF75C936B6CF9676DC11BFC7C
S1130110E0E40D47FEF520E6B500D0ED902E030097
S1130120943577050080841E080000204E0A0000E4
S113013000C80C333333330F986E12831141EF8DA3
S11301402114893BE65516CFFEE6DB18D1844B38E3
S11301501BF77C1D901DA4BBE424203284725E2214
S11301608100C9F124ECA1E53D276364696E6F70D9
S1130170737578585B0011241FBECFEFD8E0DEBF43
S1130180CDBF11E0A0E0B1E0E2EFFFE302C00590D3
S11301900D92AE36B107D9F726E0AEE6B1E001C064
S11301A01D92AE32B207E1F70E945B060C94F71F72
S11301B00C940000909100016917E0F49091010102
S11301C08917C0F4962F969596959695E82FF0E0AA
S11301D080E8989FE00DF11D1124677081E090E0A4
S11301E002C0880F991F6A95E2F7EA5EFD4F90817D
S11301F0892B8083089585E08A95F1F700008BB1FF
S113020080628BB985E08A95F1F700008BB18F7D10
S11302108BB985E08A95F1F7000008951F93CF9379
S1130220DF93182F8BB180688BB98BB180648BB945
S11302300E94FB000E94FB000E94FB000E94FB0046
S11302400E94FB008BB18F7B8BB90E94FB008BB1AA
S113025080648BB90E94FB008BB18F7B8BB90E94A9
S1130260FB00C0E0D0E01CC0CE010497049730F43A
S11302708BB18F7B8BB90E94FB0011C0812F8078DA
S113028041F0803859F48BB180648BB90E94FB0033
S113029005C08BB18F7B8BB90E94FB00110F219697
S11302A0CC30D1050CF38BB18F7B8BB90E94FB0052
S11302B00E94FB000E94FB000E94FB008BB18F7721
S11302C08BB9DF91CF911F9108950F931F93CF9313
S11302D0DF938C01C0E0D0E003C00E940E012196A0
S11302E0F801EC0FFD1F80818111F7CFDF91CF91D1
S11302F01F910F9108951F93CF93DF93182F8BB104
S113030080688BB98BB180648BB90E94FB000E941A
S1130310FB000E94FB000E94FB000E94FB008BB1CB
S11303208F7B8BB90E94FB008BB18F7B8BB90E94B2
S1130330FB008BB18F7B8BB90E94FB00C0E0D0E047
S11303401CC0CE010497049730F48BB18F7B8BB91A
S11303500E94FB0011C0812F807841F0803859F44D
S11303608BB180648BB90E94FB0005C08BB18F7B7D
S11303708BB90E94FB00110F2196CC30D1050CF3F0
S11303808BB18F7B8BB90E94FB000E94FB000E9403
S1130390FB000E94FB008BB18F778BB9DF91CF916B
S11303A01F910895882399F084E30E947B018FE9CB
S11303B09FE00197F1F700C0000086E30E947B01F3
S11303C08FE99FE00197F1F700C00000089580E3F2
S11303D00E947B018FE99FE00197F1F700C00000C4
S11303E008958F929F92AF92BF92DF92EF92FF9205
S11303F00F931F93CF93DF937C01D12C31C18FE1F5
S11304008D1548F08D2D80680E947B01802F8068B7
S11304100E947B0109C080EE8D0D80680E947B01E3
S1130420802F88680E947B01CD2DC695C695C69500
S1130430D0E0CC0FDD1FCC0FDD1FCC0FDD1FC00FB4
S1130440D11DC295D295D07FDC27C07FDC27CE0D8D
S1130450DF1D8880912C1D2D1770012E02C09594EC
S113046087940A94E2F79694982C88249794879416
S1130470A980B12C012E02C0B594A7940A94E2F786
S113048081E0A822BB240024B694A7940794B694D0
S1130490A7940794BA2CA02CAA81B0E0012E02C024
S11304A0B595A7950A94E2F7A170BB27AA0FBB1FC5
S11304B0A295B295B07FBA27A07FBA27EB81F0E06E
S11304C0012E02C0F595E7950A94E2F7E170FF2743
S11304D0E295F295F07FFE27E07FFE276C8170E0C5
S11304E0012E02C0759567950A94E2F7617077272B
S11304F0660F771F660F771F660F771F4D8150E0D9
S1130500012E02C0559547950A94E2F7417055278C
S1130510440F551F440F551F2E8130E0012E02C099
S1130520359527950A94E2F721703327220F331F5C
S11305308F8190E0012E02C0959587950A94E2F789
S1130540A828AA29EA2B6E2B462B242B8170822BF8
S11305500E940E018884912C012E02C095948794E8
S11305600A94E2F79694982C882497948794A98403
S1130570B12C012E02C0B594A7940A94E2F781E04D
S1130580A822BB240024B694A7940794B694A794F5
S11305900794BA2CA02CAA85B0E0012E02C0B59510
S11305A0A7950A94E2F7A170BB27AA0FBB1FA295D7
S11305B0B295B07FBA27A07FBA27EB85F0E0012E71
S11305C002C0F595E7950A94E2F7E170FF27E295FA
S11305D0F295F07FFE27E07FFE276C8570E0012E08
S11305E002C0759567950A94E2F761707727660FE4
S11305F0771F660F771F660F771F4D8550E0012E1A
S113060002C0559547950A94E2F741705527440F67
S1130610551F440F551F2E8530E0012E02C035951D
S113062027950A94E2F721703327220F331FCF85D1
S1130630D0E002C0D595C7951A95E2F7882D8A298E
S11306408A2B8E2B862B842B822BC1708C2B0E94A1
S11306500E010F5F01C000E0083008F4D0CED3943F
S11306608FE38D15C0F7DF91CF911F910F91FF900C
S1130670EF90DF90BF90AF909F908F90089581E0AE
S11306800E947B018FE39CE90197F1F700C0000011
S113069008952FEF83EF91E0215080409040E1F7DF
S11306A000C000008CE00E947B018FE891E001977C
S11306B0F1F700C000000E943F0386E00E947B0126
S11306C08FE39CE90197F1F700C0000008956130C1
S11306D0710541F068F06230710531F063307105E5
S11306E029F007C090E905C098E803C098E901C063
S11306F090E8892B0E947B010895BF92CF92DF92EC
S1130700EF92FF920F931F93CF93DF936C017B01C2
S1130710B42EC0E0D0E02DC0BB20B1F08E010C0D92
S11307201D1D01501109C701880F991F8E0D9F1DB2
S1130730880F991F8C0F9D1F0E94AE13F801EA5E6B
S1130740FD4F8095808314C086010C0F1D1F01503E
S11307501109C701880F991F8E0D9F1D880F991FBE
S11307608C0F9D1F0E94AE13F801EA5EFD4F80833B
S11307702196C730D10584F2DF91CF911F910F915B
S1130780FF90EF90DF90CF90BF9008959F92AF922B
S1130790BF92CF92DF92EF92FF920F931F93CF936A
S11307A0DF93CDB7DEB7AC970FB6F894DEBF0FBEBC
S11307B0CDBF6C01162F942E59010000CE01019675
S11307C00E94E00F85E091E00E94181180E8189FD4
S11307D0C00CD11C1124E12CF12C7EC0F501EE0DCE
S11307E0FF1D0081003CD8F4083AC9F0083BB9F079
S11307F0073BA9F0602F70E0992039F0605271092D
S113080041E0C6010E947D0306C06052710940E0C8
S1130810C6010E947D0386E0C80ED11C5AC010E0B8
S1130820C801805C910980349105A0F4992041F0BD
S113083041E0B80161567109C6010E947D0307C0F9
S113084040E0B80161567109C6010E947D0386E04B
S1130850C80ED11C083A110591F4992039F041E0F1
S11308606FE970E0C6010E947D0306C040E06FE9B5
S113087070E0C6010E947D0386E0C80ED11C083BCF
S1130880110591F4992039F041E060EA70E0C60165
S11308900E947D0306C040E060EA70E0C6010E9449
S11308A07D0386E0C80ED11C073B110591F4992005
S11308B039F041E061EA70E0C6010E947D0306C0A0
S11308C040E061EA70E0C6010E947D0386E0C80E44
S11308D0D11C8FEFE81AF80AF50101900020E9F71E
S11308E03197EA19FB09EE16FF0608F477CF80E08A
S11308F090E00E94E00FAC960FB6F894DEBF0FBEF6
S1130900CDBFDF91CF911F910F91FF90EF90DF90BA
S1130910CF90BF90AF909F90089580E094E0E6E17F
S1130920F2E0DF019C011D9221503040E1F708956F
S1130930CF93DF93D0E01EC0D03248F48D2F80686F
S11309400E947B0180E80E947B01C0E010C080EE21
S11309508D0F80680E947B0188E80E947B01F5CF9F
S113096080E00E940E0180E00E940E01CF5FC8303B
S1130970B8F3DF5FD03400F30E948D04DF91CF9190
S113098008958F929F92AF92BF92CF92DF92EF928F
S1130990FF920F931F93CF93DF93C82FD62FB42EBC
S11309A0822E481728F0C42ED12CC81AD10804C0AE
S11309B0C82ED12CC41AD1088D1628F0E82CF12C9D
S11309C0ED1AF10804C0ED2EF12CE818F108CB154E
S11309D018F4AA24A39402C0AA24AA94D81518F43B
S11309E09924939402C099249A9486010E191F099C
S11309F06D2F8C2F0E94DA00CB1102C0D815A1F004
S1130A00C801880F991F222733272E193F09281759
S1130A1039071CF40E191F09CA0D8C159D0544F7DE
S1130A200C0D1D1DD90DE4CFDF91CF911F910F91B6
S1130A30FF90EF90DF90CF90BF90AF909F908F90FA
S1130A400895EF92FF920F931F93CF93DF937C014E
S1130A508B01E9019C01240F351F8091010190E075
S1130A602817390718F0AC014E195F09809100016D
S1130A7090E098012C0F3D1F2817390718F0EC015E
S1130A80C01BD10BDE2DD40F202F4D2F602F8E2DA8
S1130A900E94C104C00F2C2F4D2F6C2F8E2D0E944D
S1130AA0C1042C2F4E2D602F8E2D0E94C1042C2F9B
S1130AB04D2F602F8D2F0E94C104DF91CF911F9184
S1130AC00F91FF90EF900895AF92BF92CF92DF9273
S1130AD0EF92FF920F931F93CF938C016B015A01F6
S1130AE079019C01240F351F8091010190E02817A2
S1130AF0390718F05C01A01AB10A8091000190E056
S1130B0096012E0D3F1D2817390718F07C01EC18AB
S1130B10FD08C0E009C06C2F6C0D262F402F4A0D34
S1130B20802F0E94C104CF5F8C2F90E0E816F90655
S1130B3090F7CF911F910F91FF90EF90DF90CF909E
S1130B40BF90AF900895E1E8F0E0808188608083F1
S1130B50AFE6B0E08C9182608C9384EF809389003F
S1130B6084E28093880080818560808308951F9249
S1130B700F920FB60F9211242F933F934F935F93CD
S1130B806F937F938F939F93AF93BF93EF93FF9351
S1130B908091F801882309F44CC08091EE018823E8
S1130BA009F447C08091DA01882309F442C0809196
S1130BB0A8018823F1F18091B2018823D1F18091B9
S1130BC0D0018823B1F188EF91E09F938F938FE058
S1130BD091E09F938F9386E791E09F938F930E9478
S1130BE0431C6AED71E086E791E00E94F11B68EA1C
S1130BF071E086E791E00E94F11B6EEE71E086E7FA
S1130C0091E00E94F11B62EB71E086E791E00E94A3
S1130C10F11B60ED71E086E791E00E94F11B86E72D
S1130C2091E00E9437140F900F900F900F900F9047
S1130C300F90FF91EF91BF91AF919F918F917F9111
S1130C406F915F914F913F912F910F900FBE0F9035
S1130C501F90189584B18E6284B985B1837D85B95E
S1130C608AB18B7F8AB98BB184608BB985B184607A
S1130C7085B980E58CBD08958AB180618AB98BB14C
S1130C808F7E8BB98AB180688AB98BB18F778BB923
S1130C908AB180628AB98BB18F7D8BB98AB1806445
S1130CA08AB98BB18F7B8BB908958EBD0DB407FEC5
S1130CB0FDCF8EB508950E943C068BB180618BB93F
S1130CC00E942A060E94A3050E94F3130E949D130A
S1130CD00E94490386E192E00E94521480E190E070
S1130CE00E9421140E94000C82E08093690081E03C
S1130CF08DBB789486E192E00E94B1148BB18F7E13
S1130D008BB90E943F030E94F71380ED0E940314E5
S1130D1080E00E9403140E94FF130E94F71381EDE8
S1130D200E9403140E940D140E94921380932806BB
S1130D300E940D140E949213809326060E940D14A3
S1130D400E949213809325060E940D140E94921310
S1130D50809329060E940D140E94921380932B06FF
S1130D600E940D140E949213809321060E9417146E
S1130D700E949213809327060E94FF1362E070E0A2
S1130D8081E00E946703809128061F928F938091CF
S1130D9026061F928F93809125061F928F9383E1DD
S1130DA091E09F938F9382E092E09F938F930E94B0
S1130DB0431C82E092E00E94650160E070E080E004
S1130DC00E9467030E94820988EF91E00E946501F6
S1130DD060E070E083E00E94670384EE91E00E948B
S1130DE072159F938F937F936F93CDE1D1E0DF933F
S1130DF0CF938AED91E09F938F930E94431C8AEDD9
S1130E0091E00E94650160E070E086E00E94670363
S1130E108CEB91E00E94F7149F938F937F936F93D1
S1130E20DF93CF9388EA91E09F938F930E94431CB2
S1130E3088EA91E00E94650161E070E080E00E9430
S1130E4067038EEE91E00E94650161E070E083E04B
S1130E500E94670380ED91E00E94650161E070E00B
S1130E6086E00E94670386EC91E00E9434159F930C
S1130E708F937F936F93DF93CF9382EB91E09F9354
S1130E808F930E94431C8DB79EB782960FB6F89439
S1130E909EBF0FBE8DBF82EB91E00E9465019FEF64
S1130EA021EE84E0915020408040E1F700C0000032
S1130EB02ACF20E012C0882324F098B19B7F98B9F0
S1130EC003C098B1946098B9880F98B1986098B9A4
S1130ED0000098B1977F98B92F5F283060F3089588
S1130EE088B1846088B980E020E00BC098B1986034
S1130EF098B9880F3199816098B1977F98B90000AB
S1130F002F5F283098F30895FF920F931F93CF9388
S1130F10DF93C82FD42F152F062FF72E88234CF4D8
S1130F20CF7740E050E0BA0187E70E94840782301F
S1130F3050F585B1816085B90E94700785B18E7FB7
S1130F4085B90E9470078C2F0E9459078F2D0E942B
S1130F505907802F0E945907812F0E9459078D2F0E
S1130F600E945907C03411F081E001C085E9C834FA
S1130F7009F487E80E945907CAE00E947007882391
S1130F8014F4C150D1F7DF91CF911F910F91FF90CD
S1130F9008950E9470070895CF92DF92EF92FF9216
S1130FA00F931F93CF93DF937C01690180911806FF
S1130FB083FD09C0032E39E0440F551F661F771FB8
S1130FC03A95D1F7302D81E50E948407811134C010
S1130FD0C0E3D5E70E9470078F3F11F42197D1F742
S1130FE08E3F61F5CC27DD27CC19DD09C01BD10B61
S1130FF0CE5FDD4FC114D10431F00E94700781E04F
S1131000C81AD108D1F7E114F10469F06701EFEFD0
S1131010CE1ADE0A0E947007F7018083015011097D
S11310207601A1F703C001501109E9F70E94700786
S11310302197E1F7C0E003C0C1E001C0C1E00E9414
S1131040C9078C2FDF91CF911F910F91FF90EF90E3
S1131050DF90CF9008950F931F93CF93DF93FC01FC
S1131060892BF1F0EA0111C08F010F5F1F4F8081BE
S11310700E94590780911606909117060197909344
S11310801706809316062197F801209709F454C097
S11310908091160690911706892B31F7C0E04FC056
S11310A0411551056105710501F18091180683FD13
S11310B009C0032E39E0440F551F661F771F3A9568
S11310C0D1F7302D88E50E948407811137C08FEF56
S11310D00E9459078EEF0E94590780E092E0909396
S11310E0170680931606C0E02AC0809116069091D8
S11310F01706029604C080E00E945907CE01EC0155
S11311002197892BC1F70E9470078F71853021F0D8
S1131110C1E00FC0219702C0C8EEDDEF0E94700746
S11311208F3F11F02097B1F7CD2B11F4C1E001C02E
S1131130C0E00E94C90703C0C0E001C0C1E08C2F19
S1131140DF91CF911F910F910895EF92FF920F932A
S11311501F93CF93DF9300D000D0CDB7DEB785B116
S1131160816085B988B1866088B984B1816084B9A9
S113117087B18C6087B9289907C040E050E0BA0174
S113118080E090E00E942B0814E603C00E947007E0
S113119011501111FBCF40E050E0BA0180E40E94ED
S11311A08407813009F08FC04AEA51E060E070E0C2
S11311B088E40E948407813009F053C00DC0E02EFA
S11311C0F12C0E947007E1E0F0E0EC0FFD1FEE0D42
S11311D0FF1D80830F5F01C0012F043080F38B81DA
S11311E0813009F072C08C818A3A31F0F12C78C0D8
S11311F081E0E81AF10806C00F2EF0EEEF2EFEE2B1
S1131200FF2EF02DE114F10449F040E050E060E0DD
S113121070E489EE0E9484078111EACFEF2809F473
S113122056C040E050E0BA018AE70E948407882350
S113123071F0F12C55C0E12EF12C0E947007E1E011
S1131240F0E0EC0FFD1FEE0DFF1D80831F5F1430D7
S113125090F3898186FF3DC00F2EFCE0FF2EF02D18
S11312603FC040E050E0BA0189EE0E94840782301A
S113127040F46894FF24F1F80F2EF9EEEF2EF02DD0
S113128006C0FF24F3940F2EF1E4EF2EF02D08EAAC
S113129011E602C0015011090115110541F040E0A9
S11312A050E0BA018E2D0E9484078111F3CF012BE7
S11312B0A1F040E052E060E070E080E50E94840725
S11312C081110DC00DC0F12C0BC0F12C09C0F12C03
S11312D007C06894FF24F2F803C0F12C01C0F12C7C
S11312E0F09218060E94C90781E0F11080E00F9087
S11312F00F900F900F90DF91CF911F910F91FF905E
S1131300EF900895CF93DF9380911906813009F00F
S11313106BC180911A06813009F059C0E8EFF1E001
S113132001900020E9F73197AF01485F5140440F25
S1131330551F60E070E088EF91E00E94EA1BEAE14B
S1131340F6E08181C281D0E0DC2FCC27C82BBE011E
S11313500D2E000C880B990B0E941E1620E030E025
S113136040E251E40E94AA156093720170937301E4
S11313708093740190937501DD235CF4DC01CB014F
S1131380B0588093720190937301A0937401B09349
S11313907501809175018F93809174018F93809171
S11313A073018F93809172018F9383E291E09F93F5
S11313B08F9388EF91E09F938F930E94431C8DB786
S11313C09EB708960FB6F8949EBF0FBE8DBF80914E
S11313D01A06853009F047C0CEEED1E0FE01019037
S11313E00020E9F73197AF014E5E5140440F551F7D
S11313F060E070E0CE010E94EA1BEAE1F6E0818140
S1131400628170E0762F6627682B072E000C880B0C
S1131410990B0E941E1620E030E040E251E40E9445
S1131420AA15262F372F462F572F682F792F409331
S11314306E0150936F0160937001709371019F93DB
S11314408F933F932F9388E291E09F938F93DF9341
S1131450CF930E94431C8DB79EB708960FB6F8949D
S11314609EBF0FBE8DBFC0911A06C23061F5E4EE77
S1131470F1E001900020E9F73197AF01445E51405B
S1131480440F551F60E070E084EE91E00E94EA1B77
S113149020E00BC0822F90E0FC01E55EF94F308123
S11314A0FC01EC51FE4F30832F5F822F90E0EAE184
S11314B0F6E001900020E9F73197EA51F6403197C0
S11314C08E179F0738F3C33089F5E0EDF1E0019002
S11314D00020E9F73197AF01405D5140440F551F9B
S11314E060E070E080ED91E00E94EA1B20E00BC018
S11314F0822F90E0FC01E55EF94F3081FC01E0535E
S1131500FE4F30832F5F822F90E0EAE1F6E00190F6
S11315100020E9F73197EA51F64031978E179F077B
S113152038F3FC01EF52FE4F80E28083C43061F552
S1131530E6ECF1E001900020E9F73197AF01465C59
S11315405140440F551F60E070E086EC91E00E942A
S1131550EA1B20E00BC0822F90E0FC01E55EF94F0E
S11315603081FC01EA53FE4F30832F5F822F90E0DD
S1131570EAE1F6E001900020E9F73197EA51F640FC
S113158031978E179F0738F3C63061F5ECEBF1E025
S113159001900020E9F73197AF014C5B5140440FB3
S11315A0551F60E070E08CEB91E00E94EA1B20E0A4
S11315B00BC0822F90E0FC01E55EF94F3081FC0105
S11315C0E454FE4F30832F5F822F90E0EAE1F6E08F
S11315D001900020E9F73197EA51F64031978E17D0
S11315E09F0738F310921906DF91CF91089585B1C2
S11315F08B7F85B982EE90E00E94550685E08A953E
S1131600F1F7000085B1846085B9089585B18B7FB9
S113161085B981EE90E00E94550685E08A95F1F740
S1131620000085B1846085B9089585B18B7F85B943
S113163080E590E00E94550685E08A95F1F7000068
S113164083E790E00E94550685B1846085B90895CA
S1131650EF92FF920F931F93CF93DF938B01C42FCD
S113166095B19B7F95B990E00E9455060CC0780116
S11316708FEFE81AF80A8FEF90E00E945506F80100
S11316808083CD2F8701DFEFDC0FC111F0CF85B14F
S1131690846085B9DF91CF911F910F91FF90EF90F6
S11316A00895EF92FF920F931F93CF93DF938B01D3
S11316B0C42F806295B19B7F95B990E00E94550636
S11316C085E08A95F1F700000BC07801EFEFEE1A80
S11316D0FE0AF801808190E00E945506CD2F870113
S11316E0DFEFDC0FC111F1CF85B1846085B9DF91E3
S11316F0CF911F910F91FF90EF900895CF93C62F34
S1131700806295B19B7F95B990E00E9455068C2F1D
S113171090E00E94550685B1846085B9CF91089503
S1131720CF93C82F85B18B7F85B98C2F90E00E9411
S11317305506C73021F08FEF90E00E94550695B111
S1131740946095B9CF9108951F920F920FB60F929E
S113175011242F933F934F935F936F937F938F93B2
S11317609F93AF93BF93EF93FF938FEA94E0019716
S1131770F1F700C000008BB180618BB98FEA94E06F
S11317800197F1F700C000008BB18F7E8BB987E021
S11317900E94900B86FF0AC045E06AE176E081E68C
S11317A00E94280B60E487E00E947E0B81E0809316
S11317B01906FF91EF91BF91AF919F918F917F9106
S11317C06F915F914F913F912F910F900FBE0F90AA
S11317D01F90189580E00E94900B682F636080E052
S11317E00E947E0B85B1826085B987E592E00197FE
S11317F0F1F700C000000E94F70A0E94060B08954A
S113180085B18D7F85B98FE19EE40197F1F700C022
S113181000006AE080E00E947E0B8FE19EE4019765
S1131820F1F700C0000062E081E00E947E0B62E0FC
S113183082E00E947E0B61E083E00E947E0B6FE5F4
S113184084E00E947E0B0E94150B60E08DE10E94F3
S11318507E0B60E08CE10E947E0B60E787E00E94D3
S11318607E0B6CE485E00E947E0B66E086E00E94BD
S11318707E0B43E062E071E080E10E94510B43E0A3
S113188062E071E08BE00E94510B65E082E10E940E
S11318907E0B0E94EA0B0895FC0103C06083AC0137
S11318A03196CA010197452BC9F70895CF93DF9369
S11318B0DC01FB0180E090E002C0FB01DE019A0143
S11318C021503109452B61F0ED0121968C9190E076
S11318D0BF016F5F7F4F4081841B9109A90169F3A8
S11318E0DF91CF9108950F931F93E0911F06F0911C
S11318F020069B01AC012250310941095109808520
S11319009185A285B3850297A109B10928173907E2
S11319104A075B0768F4A181B0E00E94B61A048903
S1131920158926893789600F711F821F931F03C091
S113193060E070E0CB011F910F9108950F931F9306
S1131940CF93DF93FC01A0911F06B0912006118272
S1131950108264817581868197816130710581056A
S1131960910591F118960D911D912D913C911B9724
S1131970601771078207930748F5611571058105A2
S1131980910549F42C91233031F450966D917D9159
S11319908D919C915397EF0160877187828793871C
S11319A0611571058105910519F00E94730C06C03B
S11319B050966D917D918D919C9153976C877D8705
S11319C08E879F8780E003C081E001C081E0DF91C2
S11319D0CF911F910F9108950F931F93CF93DF938E
S11319E0EB01FC01028113814BE050E060E270E006
S11319F0C8010E944C0C2881398190E080E058E0B5
S1131A0001C0842F41E0480FF901E80FF11D8081E6
S1131A108132C0F08F32B1F08E3211F0951738F068
S1131A20583081F48E3271F498E05BE0EACF6FE9CC
S1131A30680F6A3108F48052F801E90FF11D8083C0
S1131A409F5FDFCF240F311D3983288391E08132DA
S1131A5008F090E0F801938780E0DF91CF911F9127
S1131A600F910895CF92DF92EF92FF920F931F93FD
S1131A70CF93DF93EC016A017B0102E010E02EEFCB
S1131A8031E00E94CC07811125C088819981853578
S1131A909A4A11F526E330E0B701A601CE010E946F
S1131AA0CC07811105C08881998186349144B1F0B5
S1131AB002E010E022E530E0B701A601CE010E9469
S1131AC0CC0781110DC0888199818634914451F0ED
S1131AD081E009C083E007C082E005C080E003C064
S1131AE081E001C080E0DF91CF911F910F91FF90C1
S1131AF0EF90DF90CF9008954F925F926F927F9214
S1131B008F929F92AF92BF92CF92DF92EF92FF9209
S1131B100F931F93CF93DF9300D000D0CDB7DEB7E0
S1131B20E0901F06F0902006623071058105910552
S1131B3008F4BFC0F70180849184A284B38468153B
S1131B4079058A059B0508F0B9C04B015C018081C9
S1131B50823009F462C0833009F47FC0813009F017
S1131B60B2C0C40196958795880D991D9C0131706A
S1131B70892F992786952F3FF1E03F0791F0F701D0
S1131B804485558566857785480F591F611D711DEC
S1131B9002E010E0CE0101960E94CC07882361F197
S1131BA097C0F70144855585668577852C01612C9E
S1131BB0712C440D551D661D771D01E010E02FEFBB
S1131BC031E0CE0101960E94CC07811186C0F70155
S1131BD04485558566857785440D551D661D771D9D
S1131BE04F5F5F4F6F4F7F4F20E030E0CE01029692
S1131BF00E94CC07811176C069817A8180FE09C078
S1131C00729562956F7067277F70672780E090E018
S1131C1077C07F7080E090E073C094013327220F77
S1131C20331FF701C484D584E684F784BB27AB2D26
S1131C309A2D892DB701A601480F591F6A1F7B1FD2
S1131C4002E010E0CE0101960E94CC0781114FC042
S1131C5069817A8180E090E053C094012F77332723
S1131C60220F331F220F331FF701C484D584E68467
S1131C70F784D501C401689416F8B695A79597958D
S1131C8087951694D1F7B701A601480F591F6A1F0B
S1131C907B1F04E010E0CE0101960E94CC07811165
S1131CA02BC089819A81AB81BC81BC01CD019F701D
S1131CB027C061E070E080E090E022C061E070E065
S1131CC080E090E01DC061E070E080E090E018C02A
S1131CD061E070E080E090E013C061E070E080E0DB
S1131CE090E00EC061E070E080E090E009C061E047
S1131CF070E080E090E004C061E070E080E090E09B
S1131D000F900F900F900F90DF91CF911F910F9133
S1131D10FF90EF90DF90CF90BF90AF909F908F9007
S1131D207F906F905F904F900895CF92DF92EF92E3
S1131D30FF920F931F93CF93DF93E0901F06F090D1
S1131D402006FC01C081D181219609F45CC0448540
S1131D50558566857785411551056105710509F439
S1131D6054C08C01CE018F709927892B09F046C08D
S1131D704F5F5F4F6F4F7F4F4487558766877787E5
S1131D80408551856285738541155105610571054D
S1131D9039F4F70184819581C817D907C0F52EC09D
S1131DA0F701818190E001979E01329522952F7071
S1131DB023273F70232782239323892BF9F4CB0114
S1131DC0BA010E947C0D623071058105910508F10C
S1131DD0F701C084D184E284F3846C157D058E05FB
S1131DE09F05C8F4F80160877187828793870E94F2
S1131DF0730CF8016487758786879787F801D18308
S1131E00C08380E009C083E007C083E005C083E0AD
S1131E1003C081E001C083E0DF91CF911F910F9156
S1131E20FF90EF90DF90CF900895DF92EF92FF92B2
S1131E300F931F93CF93DF937C010E949E0C81111B
S1131E403EC0E0911F06F0912006C681D781F701BC
S1131E50208131812F703327220F331F2295329531
S1131E60307F3227207F32274485558566857785E4
S1131E7000E210E0CE010E94CC0791E0811101C084
S1131E8090E0D92E911116C088818823A9F08B8502
S1131E9083FD0AC0F701628173814BE050E0CE01FB
S1131EA00E94560C892B51F0C7010E94950E88237D
S1131EB071F205C0892F03C083E001C08D2DDF912D
S1131EC0CF911F910F91FF90EF90DF9008950F93A2
S1131ED01F93CF93DF9300D0CDB7DEB78C017A8305
S1131EE0698303C03196FA83E983E981FA818081A9
S1131EF08032C1F38F3219F43196FA83E983D80121
S1131F0014961D921D921D921C921797E981FA81D5
S1131F108081813260F4C8010E949E0CE0911F060A
S1131F20F09120060680F781E02D108242C0BE01A8
S1131F306F5F7F4FC8010E94EC0C81113AC0C80149
S1131F400E94150F882359F0833099F5D801129611
S1131F50ED91FC9113979385992341F12AC0D801FF
S1131F601296ED91FC9113979385911122C0E09103
S1131F701F06F09120060680F781E02D838584FFFB
S1131F8017C084899589A0E0B0E0BC015527442797
S1131F90828D938DA0E0B0E0842B952BA62BB72BDC
S1131FA0F80184839583A683B783C1CF84E001C0FD
S1131FB084E00F900F90DF91CF911F910F910895BE
S1131FC04F925F926F927F928F929F92AF92BF9245
S1131FD0DF92EF92FF920F931F93CF93DF93CDB7CE
S1131FE0DEB7A8970FB6F894DEBF0FBECDBF109230
S1131FF0200610921F06009709F4FBC07C010E9482
S1132000A50880FDF8C040E050E0BA01CE01019679
S11320100E94320DD82E41E084131CC000E110E070
S11320202EEB31E040E050E0BA01CE0101960E946F
S1132030CC07811113C08D818823C1F089849A84CF
S1132040AB84BC84B501A401CE0101960E94320D7B
S1132050D82E0FC0812C912C54010BC0812C912CB3
S113206054010F2EF3E0DF2EF02D03C0812C912CB0
S1132070540153E0D51609F4C0C0D110C0C004E225
S113208010E02DE030E0B501A401CE0101960E94DC
S1132090CC078111B6C02A853B8540E050E021156C
S11320A031054105510521F4288D398D4A8D5B8D0B
S11320B0AC81B0E00E94B61A6DA37EA38FA398A74B
S11320C08A819B81880E991EA11CB11CD7011C9684
S11320D08D929D92AD92BC921F97E9811196EC93DB
S11320E011978D819E8115969C938E9314970F81E1
S11320F0188520E030E0011511052105310521F492
S11321000C891D892E893F894A815B81041B150B2B
S1132110210931094DA15EA16FA178A5041B150BFE
S1132120260B370B929582958F7089279F7089278C
S11321302C01612C712CC901B80164197509860937
S113214097092E2F30E040E050E00E94941ABA0123
S1132150A9014E5F5F4F6F4F7F4FD70118964D9384
S11321605D936D937C931B97473FBFE05B076105CD
S1132170710510F481E001C082E0473F5F4F6105C3
S1132180710508F083E0D7018C93833051F488A162
S113219099A1AAA1BBA1F701808B918BA28BB38BD0
S11321A00DC08DA19EA1AFA1B8A5880D991DAA1D32
S11321B0BB1DF701808B918BA28BB38B4DA15EA1CC
S11321C06FA178A5840E951EA61EB71E840C951CBF
S11321D0A61CB71CD70154968D929D92AD92BC92C9
S11321E0579712961C92F0922006E0921F0680E008
S11321F009C080E007C082E005C081E003C087E039
S113220001C081E0A8960FB6F894DEBF0FBECDBF23
S1132210DF91CF911F910F91FF90EF90DF90BF90CE
S1132220AF909F908F907F906F905F904F900895A4
S11322300F931F93CF93DF93CDB7DEB7EC970FB611
S1132240F894DEBF0FBECDBF00911F06109120068B
S113225001151105C9F1BC01F8011282CE014D9698
S1132260978386830C979C838B8340970E94670F88
S113227081112FC08D8D882349F188A584FD28C044
S113228089A99AA9A0E0B0E0BC01552744278FA9E9
S113229098ADA0E0B0E0842B952BA62BB72BF801CA
S11322A080A391A3A2A3B3A389AD9AADABADBCADFA
S11322B0848F958FA68FB78F108E118E128E138EEA
S11322C081E0828380E005C086E003C083E001C032
S11322D083E0EC960FB6F894DEBF0FBECDBFDF915E
S11322E0CF911F910F9108952F923F924F925F9239
S11322F06F927F928F929F92AF92BF92CF92DF9212
S1132300EF92FF920F931F93CF93DF933C016B01E6
S11323104A01E0901F06F0902006FA011182108213
S1132320E114F10409F4BBC0F701828180FFB9C054
S1132330848D958DA68DB78D408D518D628D738D55
S1132340841B950BA60BB70BA60160E070E0841705
S11323509507A607B70708F46C01530196C0F70167
S1132360208C318C428C538CD201C1019170AA27EC
S1132370BB27892B8A2B8B2B09F04EC0218130E09F
S113238040E050E0C201B101052E59E096958795D1
S1132390779567955A95D1F7502D0E94941A672B1B
S11323A0682B692BE9F423282428252831F4F70124
S11323B060A171A182A193A107C0F70164A175A1D5
S11323C086A197A10E947C0D62307105810591055B
S11323D008F461C0F70164A375A386A397A31382CD
S11323E0F70164A175A186A197A10E94730C6115E0
S11323F071058105910509F44EC0F701238131E08F
S1132400320F3383DC01CB01820F911DA11DB11D5D
S113241080A791A7A2A7B3A7F701808D918DA28D64
S1132420B38D9C013170C0E0D2E0C21BD30BCC163B
S1132430DD0608F4E601F70140A551A562A573A5E0
S11324406114710419F480E090E002C08A2D9B2D80
S11324508E010E94CC0781111EC0F701808D918DE1
S1132460A28DB38D8C0F9D1FA11DB11D808F918FE7
S1132470A28FB38FAC0EBD1ECC1ADD0AF40180818D
S11324809181C80FD91FD183C083C114D10409F02D
S113249066CF80E007C0F701128281E003C086E0C6
S11324A001C085E0DF91CF911F910F91FF90EF90D4
S11324B0DF90CF90BF90AF909F908F907F906F9060
S11324C05F904F903F902F9008954F925F926F923C
S11324D07F928F929F92AF92BF92CF92DF92EF92B0
S11324E0FF92CF93DF9300D000D000D0CDB7DEB7FA
S11324F020911F06309120063E832D83211531053E
S113250009F4F4C0D90112962C91129720FFF0C05F
S11325105C96CD90DD90ED90FC905F97C616D70643
S1132520E806F90610F06B017C01ED81FE81408C18
S1132530518C628C738C108E118E128E138EC1147A
S1132540D104E104F10409F4D5C08180912CA12CBB
S1132550B12C072E79E0880C991CAA1CBB1C7A9517
S1132560D1F7702D411451046104710409F440C081
S1132570C701B6016150710981099109A50194014E
S11325800E94941A29833A834B835C83B1E04B1AEB
S1132590510861087108C301B201A50194010E94A8
S11325A0941A89819A81AB81BC8182179307A4070D
S11325B0B507F0F088279927DC0188199909AA0939
S11325C0BB09482259226A227B22AD81BE815896DA
S11325D04D925D926D927C925B97C418D508E60883
S11325E0F70894966D917D918D919C91979733C046
S11325F0ED81FE8160A171A182A193A164A375A361
S113260086A397A328C00E947C0D623071058105C2
S1132610910508F465C0ED81FE8140845184628493
S11326207384641575058605970508F059C064A37D
S113263075A386A397A3408C518C628C738C480C31
S1132640591C6A1C7B1C408E518E628E738EC81876
S1132650D908EA08FB088C149D04AE04BF0498F260
S1132660AD81BE8158968D909D90AD90BC905B9746
S11326708C0C9D1CAE1CBF1CFD01808E918EA28E05
S1132680B38E0E94730C611571058105910541F1AA
S113269046015701072E79E0B694A794979487943E
S11326A07A95D1F7702DAD81BE8113968C92B1E0ED
S11326B0DB22EE24FF24CD28CE28CF28E9F021E028
S11326C0280DED81FE812383DC01CB01880D911D52
S11326D0A11DB11D80A791A7A2A7B3A780E00DC03B
S11326E0AD81BE8112961C9281E007C086E005C0D0
S11326F085E003C080E001C080E026960FB6F89420
S1132700DEBF0FBECDBFDF91CF91FF90EF90DF9082
S1132710CF90BF90AF909F908F907F906F905F907D
S11327204F900895982F92959F70990F292F220FFB
S1132730220F920F8F70890F08950E94F71380ED76
S11327400E9403148EE00E94031480E20E9403148A
S113275088E00E9403140E94FF1308950F931F93AF
S1132760CF93DF93CDB7DEB72D970FB6F894DEBFC6
S11327700FBECDBF8E010C5F1F4F2AE0F8011192EE
S11327802A95E9F7BC01660F771F680F791F660F5A
S1132790771F80E090E00E946512AE014F5F5F4FAB
S11327A064E070E0C8010E947411CE0103969F9307
S11327B08F938EE291E09F938F931F930F930E94C8
S11327C0651C0F900F900F900F900F900F908B81BE
S11327D02D960FB6F894DEBF0FBECDBFDF91CF911B
S11327E01F910F91089588E48093B800089584EAB6
S11327F08093BC008091BC008823E4F7089584E9A9
S11328008093BC0008958093BB0084E88093BC004F
S11328108091BC008823E4F7089584EC8093BC0085
S11328208091BC008823E4F78091BB00089584E87C
S11328308093BC008091BC008823E4F78091BB00A6
S113284008959093C5008093C400E1ECF0E088E122
S11328508083808180688083E0ECF0E08081826006
S11328608083E2ECF0E080818E6080830895DC0157
S113287080E00BC09091C00095FFFCCFFD01E20FFA
S1132880F31F90819093C6008F5F282F30E0FD01E5
S113289001900020E9F73197EA1BFB0B2E173F0745
S11328A048F30895CF93DF93EC0181E00E94D201B5
S11328B02FE330E04FE750E060E070E080E090E02C
S11328C00E9421052DE330E04DE750E061E070E027
S11328D081E090E00E9421052BE330E04BE750E0DB
S11328E062E070E082E090E00E94210529E330E09C
S11328F049E750E063E070E083E090E00E94210546
S1132900CE010E94F10180E00E94D20161E070E0FA
S113291083E00E94670381E391E00E94650162E025
S113292070E081E00E94670386E391E00E94650104
S11329302FEF8BE792E9215080409040E1F700C0EF
S113294000000E943F0381E00E94D201CE010E9458
S1132950F1010E94980480E00E94D201DF91CF919E
S113296008950F931F93CF938C0181E00E94D201AD
S11329702FE030E040E750E063E270E086E090E072
S11329800E94210523E431E040E061E083E090E02F
S11329900E94C60329E531E040E063E080E190E075
S11329A00E94C603C8010E94F101C8E017C02BE0D1
S11329B030E049E050E065E270E08C2F90E00E9446
S11329C06405C8010E94F1012FEF89E698E12150C6
S11329D080409040E1F700C00000C55FC53738F380
S11329E080E00E94D201CF911F910F910895CF935F
S11329F0DF9300D0CDB7DEB7FC0120812223A1F004
S1132A009E012F5F3F4F3F932F932AE631E03F9380
S1132A102F939F938F930E94651C0F900F900F909C
S1132A200F900F900F9002C01A82198269817A81E7
S1132A30CB01880F991F680F791F072E000C880B94
S1132A40990B0E941E162DEC3CEC4CE150E40E94C4
S1132A50AA1620E030E040EA55E40E94AA150F903F
S1132A600F90DF91CF910895CF93DF9300D0CDB72E
S1132A70DEB7FC0120812223A1F09E012F5F3F4F8E
S1132A803F932F932AE631E03F932F939F938F93A5
S1132A900E94651C0F900F900F900F900F900F9055
S1132AA002C01A82198269817A81072E000C880B70
S1132AB0990B0E941E162DEC3CEC4CE150E40E9454
S1132AC0AA1620E030E040E450E40E94AA1620E078
S1132AD030E040E85AE30E94AA160F900F90DF916D
S1132AE0CF910895CF93DF9300D0CDB7DEB7FC012B
S1132AF020812223A1F09E012F5F3F4F3F932F930C
S1132B002AE631E03F932F939F938F930E94651C95
S1132B100F900F900F900F900F900F9002C01A8299
S1132B20198269817A81072E000C880B990B0E9407
S1132B301E1623EF30EB40E15FE30E94AA1620E06B
S1132B4030E040E85EE30E94AA160F900F90DF91F8
S1132B50CF9108950E94BE150C9470160E946916B8
S1132B6058F00E94621640F029F45F3F29F00C945B
S1132B70591651110C94A4160C945F160E948116D8
S1132B8068F39923B1F3552391F3951B550BBB2798
S1132B90AA2762177307840738F09F5F5F4F220FDD
S1132BA0331F441FAA1FA9F335D00E2E3AF0E0E8D4
S1132BB032D091505040E695001CCAF72BD0FE2F1E
S1132BC029D0660F771F881FBB1F261737074807B2
S1132BD0AB07B0E809F0BB0B802DBF01FF2793586A
S1132BE05F4F3AF09E3F510578F00C9459160C94BF
S1132BF0A4165F3FE4F3983ED4F3869577956795E2
S1132C00B795F7959F5FC9F7880F911D969587959E
S1132C1097F90895E1E0660F771F881FBB1F6217BD
S1132C2073078407BA0720F0621B730B840BBA0B7B
S1132C30EE1F88F7E0950895E89409C097FB3EF4E9
S1132C4090958095709561957F4F8F4F9F4F9923F5
S1132C50A9F0F92F96E9BB279395F6958795779573
S1132C606795B795F111F8CFFAF4BB0F11F460FF33
S1132C701BC06F5F7F4F8F4F9F4F16C0882311F08B
S1132C8096E911C0772321F09EE8872F762F05C09F
S1132C90662371F096E8862F70E060E02AF09A953A
S1132CA0660F771F881FDAF7880F9695879597F92F
S1132CB0089597F99F6780E870E060E008959FEFBA
S1132CC080EC089500240A941616170618060906BF
S1132CD0089500240A94121613061406050608958E
S1132CE0092E0394000C11F4882352F0BB0F40F416
S1132CF0BF2B11F460FF04C06F5F7F4F8F4F9F4F56
S1132D00089557FD9058440F551F59F05F3F71F0D7
S1132D104795880F97FB991F61F09F3F79F087953E
S1132D200895121613061406551FF2CF4695F1DFC7
S1132D3008C0161617061806991FF1CF8695710557
S1132D40610508940895E894BB2766277727CB018B
S1132D5097F908950E94BD160C9470160E9462168D
S1132D6038F00E94691620F0952311F00C9459163E
S1132D700C945F1611240C94A4160E94811670F30F
S1132D80959FC1F3950F50E0551F629FF001729F0C
S1132D90BB27F00DB11D639FAA27F00DB11DAA1F1B
S1132DA0649F6627B00DA11D661F829F2227B00D68
S1132DB0A11D621F739FB00DA11D621F839FA00DF3
S1132DC0611D221F749F3327A00D611D231F849F43
S1132DD0600D211D822F762F6A2F11249F5750409A
S1132DE09AF0F1F088234AF0EE0FFF1FBB1F661F15
S1132DF0771F881F91505040A9F79E3F510580F0DE
S1132E000C9459160C94A4165F3FE4F3983ED4F343
S1132E10869577956795B795F795E7959F5FC1F781
S1132E20FE2B880F911D9695879597F90895A0E13B
S1132E30B0E0EDE1F7E10C94C11A7C011B016A01D9
S1132E40FC0117821682838181FF44C39E012F5F98
S1132E503F4F3901F7019381F10193FD859193FF70
S1132E6081911F01882309F431C3853239F493FD1C
S1132E70859193FF81911F01853239F4B70190E068
S1132E800E94071C56016501E5CF10E0512C912CDE
S1132E90FFE1F915D8F08B3279F038F4803279F00B
S1132EA08332A1F4F92DF0612EC08D3261F08033AC
S1132EB069F4292D21602DC0392D3260932E892D7E
S1132EC08460982E2AC0E92DE86015C097FC2DC0B7
S1132ED020ED280F2A3088F496FE06C03AE0139FAE
S1132EE0200D1124122F19C08AE0589E200D1124A0
S1132EF0522EE92DE0629E2E10C08E3231F496FCE3
S1132F00E5C2F92DF0649F2E08C08C3621F4292DDA
S1132F102068922E02C0883641F4F10193FD859118
S1132F2093FF81911F018111B3CF9BEB980F9330D5
S1132F3020F4992D9061805E07C09BE9980F93302F
S1132F4008F066C1992D9F7E96FF16E09F73992E17
S1132F50853619F49064992E08C0863621F4392FE9
S1132F603068932E02C01111115097FE07C01C3314
S1132F7050F444244394410E27E00BC0183038F039
S1132F8027E017E005C027E09CE3492E02C0212F6B
S1132F90412C560184E0A80EB11CF60160817181B8
S1132FA082819381042DA3010E94071B6C01F98186
S1132FB0FC87F0FF02C0F3FF06C091FC06C092FE3E
S1132FC006C000E205C00DE203C00BE201C000E050
S1132FD08C858C7019F001115AC29BC297FE10C0E7
S1132FE04C0CFC85F4FF04C08A81813309F44A94B3
S1132FF0141474F528E0241578F588E0482E2CC0C4
S113300096FC2AC0812F90E08C159D059CF03CEF26
S1133010C3163FEFD30674F0892D8068982E0AC03A
S1133020E2E0F0E0EC0FFD1FE10FF11D8081803341
S113303019F411501111F4CF97FE0EC04424439497
S1133040410E812F90E0C816D9062CF41C1904C037
S11330504424439401C010E097FE06C01C141D04D0
S113306034F4C601019605C085E090E002C081E019
S113307090E001110196112331F0212F30E02F5FF0
S11330803F4F820F931F252D30E08217930714F4CE
S1133090581A01C0512C892D897049F4552039F0F2
S11330A0B70180E290E00E94071C5A94F7CF0023F6
S11330B029F0B701802F90E00E94071C93FC09C0FF
S11330C0552039F0B70180E390E00E94071C5A9420
S11330D0F7CF97FE4CC04601D7FE02C0812C912C3D
S11330E0C60188199909F301E80FF91FFE87ED87D6
S11330F0960124193109388B2F87012F10E011957F
S1133100019511093FEF8316930629F4B7018EE266
S113311090E00E94071CC814D9044CF08F8598894C
S11331208815990524F4ED85FE85818101C080E32D
S1133130F1E08F1A91082D853E852F5F3F4F3E8722
S11331402D87801691062CF0B70190E00E94071C91
S1133150D9CFC814D90441F49A81963320F4953315
S113316019F43C8534FF81E3B70190E04EC08A81B5
S1133170813319F09C859F7E9C87B70190E00E9463
S1133180071C111105C094FC18C085E690E017C017
S1133190B7018EE290E00E94071C1E5F82E001E00E
S11331A0080FF301E80FF11D8081B70190E00E9440
S11331B0071C802F0113F3CFE6CF85E490E0B7011D
S11331C00E94071CD7FC06C0C114D10441F4EC854D
S11331D0E4FF05C0D194C194D1088DE201C08BE213
S11331E0B70190E00E94071C80E32AE0C216D104D4
S11331F02CF08F5FFAE0CF1AD108F7CFB70190E037
S11332000E94071CB701C601C0960E94071C54C146
S1133210833631F0833779F0833509F056C020C006
S1133220560132E0A30EB11CF6018081898301E0CE
S113323010E0630112C05601F2E0AF0EB11CF601BA
S1133240C080D18096FE03C0612F70E002C06FEF92
S11332507FEFC6010E94FC1B8C01F92DFF7714C07F
S1133260560122E0A20EB11CF601C080D18096FE68
S113327003C0612F70E002C06FEF7FEFC6010E94B0
S1133280DF1B8C01F92DF0689F2EF3FD1AC0852DEC
S113329090E008171907A8F4B70180E290E00E94B3
S11332A0071C5A94F4CFF60197FC859197FE8191FF
S11332B06F01B70190E00E94071C51105A9401500D
S11332C011090115110579F7F7C0843611F0893613
S11332D061F5560197FE09C024E0A20EB11CF60167
S11332E060817181828193810AC0F2E0AF0EB11CCA
S11332F0F60160817181072E000C880B990BF92D62
S1133300FF769F2E97FF09C09095809570956195E3
S11333107F4F8F4F9F4FF0689F2E2AE030E0A3012C
S11333200E947E1CC82EC6183FC0092D853721F483
S11333300F7E2AE030E01DC0097F8F3691F018F42B
S1133340883559F0C3C0803719F0883711F0BEC0F2
S1133350006104FF09C0046007C094FE08C0066051
S113336006C028E030E005C020E130E002C020E1E2
S113337032E0560107FF09C084E0A80EB11CF60133
S1133380608171818281938108C0F2E0AF0EB11C2B
S1133390F6016081718180E090E0A3010E947E1CAF
S11333A0C82EC6180F77902E96FE0BC0092D0E7FDF
S11333B0C11650F494FE0AC092FC08C0092D0E7E7A
S11333C005C0DC2C092D03C0DC2C01C0D12E04FF68
S11333D00DC0FE01EC0DF11D8081803311F4097ED6
S11333E009C002FF06C0D394D39404C0802F86780A
S11333F009F0D39403FD11C000FF06C01C2DD514A1
S113340080F4150D1D190DC0D51458F4B70180E2D0
S113341090E00E94071CD394F7CFD51410F45D18E4
S113342001C0512C04FF10C0B70180E390E00E945A
S1133430071C02FF17C001FD03C088E790E002C02B
S113344088E590E0B7010CC0802F867859F001FF21
S113345002C08BE201C080E207FD8DE2B70190E07B
S11334600E94071CC11638F4B70180E390E00E9463
S1133470071C1150F7CFCA94F301EC0DF11D8081A4
S1133480B70190E00E94071CC110F5CF15C0F4E00D
S1133490F51560F584E0581A93FE1FC0011127C08A
S11334A02C8523FF2AC008E610E0392D3071932EB5
S11334B0F8018491811124C0552009F4E4CCB701AA
S11334C080E290E00E94071C5A94F6CFF7018681AF
S11334D0978126C08FEF9FEF23C0B70180E290E071
S11334E00E94071C5A945110F8CFD8CF512CB70121
S11334F0802F90E00E94071CD3CF0CE610E0D5CFBC
S113350091108052B70190E00E94071C0F5F1F4F7B
S1133510CFCF23E0251510F483E0BDCF512CC0CFCD
S11335206096E2E10C94DD1AA1E21A2EAA1BBB1BE1
S1133530FD010DC0AA1FBB1FEE1FFF1FA217B3077B
S1133540E407F50720F0A21BB30BE40BF50B661F91
S1133550771F881F991F1A9469F760957095809555
S113356090959B01AC01BD01CF0108950E94F81A0A
S1133570A59F900DB49F900DA49F800D911D1124C3
S113358008952F923F924F925F926F927F928F9203
S11335909F92AF92BF92CF92DF92EF92FF920F93DE
S11335A01F93CF93DF93CDB7DEB7CA1BDB0B0FB6E8
S11335B0F894DEBF0FBECDBF09942A8839884888A5
S11335C05F846E847D848C849B84AA84B984C8843B
S11335D0DF80EE80FD800C811B81AA81B981CE0F32
S11335E0D11D0FB6F894DEBF0FBECDBFED01089517
S11335F0A29FB001B39FC001A39F700D811D112430
S1133600911DB29F700D811D1124911D08952830C4
S113361008F027E03327DA01990F311D87FD916007
S113362000966105710539F432602E5F3D9330E3F5
S11336302A95E1F708959F3F30F0803871056105C0
S113364009F03C5F3C5F3D93913008F08068911D28
S1133650DF93CF931F930F93FF92EF92192F987FCD
S11336609695E92F96959695E90FFF27E653FF4F18
S113367099273327EE24FF24A701E7010590089436
S1133680079428F4360FE71EF81E491F511D660FD4
S1133690771F881F991F0694A1F70590079428F4B3
S11336A0E70EF81E491F561FC11D770F881F991F6B
S11336B0661F0694A1F70590079428F4F80E491F95
S11336C0561FC71FD11D880F991F661F771F0694A9
S11336D0A1F70590079420F4490F561FC71FD81F60
S11336E0990F661F771F881F0694A9F78491109578
S11336F0177041F0D695C79557954795F794E79479
S11337001A95C1F7E0E7F0E06894159015913591AA
S11337106591959105907FE27395E118F10A430B49
S1133720560BC90BD009C0F7E10CF11E431F561FFD
S1133730C91FD01D7EF4703311F48A95E6CFE89446
S1133740015030F0080F0AF40027021708F4202F64
S11337502395022F7A3328F079E37D932A95E9F7AC
S113376010C07D932A9589F60694979567953795A9
S113377017951794E118F10A430B560BC90BD0099E
S113378098F023957E9173957A3308F070E37C93D7
S11337902013B8F77E9170617D9330F0839571E3C7
S11337A07D9370E32A95E1F71124EF90FF900F9138
S11337B01F91CF91DF91992787FD90950895FC0182
S11337C00590615070400110D8F7809590958E0F48
S11337D09F1F0895DC0101C06D9341505040E0F7F4
S11337E00895FB01DC010D900020E9F71197019089
S11337F00D920020E1F70895FC01615070400190A2
S11338000110D8F7809590958E0F9F1F08950F9300
S11338101F93CF93DF93FB01238121FD03C08FEF1F
S11338209FEF2CC022FF16C0468157812481358129
S11338304217530744F4A081B1819D012F5F3F4F8C
S1133840318320838C93268137812F5F3F4F3783C9
S1133850268314C08B01EC01FB010084F185E02D6B
S11338600995892BE1F6D80116968D919C911797AD
S1133870019617969C938E931697CE01DF91CF9164
S11338801F910F910895AEE0B0E0E9E4FCE10C94DF
S1133890CF1A0D891E8986E08C831A8309838FEFE2
S11338A09FE79E838D83AE01475E5F4F6F89788D5E
S11338B0CE0101960E941717EF81F885E00FF11FE2
S11338C010822E96E4E00C94EB1AAEE0B0E0EBE646
S11338D0FCE10C94D11A85E08C838B899C899A83B2
S11338E08983AE01495E5F4F6D897E89CE01019661
S11338F00E94781E2E96E2E00C94ED1AFA01AA2793
S1133900283051F1203181F1E8946F936E7F6E5F1E
S11339107F4F8F4F9F4FAF4FB1E03ED0B4E03CD0CC
S1133920670F781F891F9A1FA11D680F791F8A1FAF
S1133930911DA11D6A0F711D811D911DA11D20D016
S113394009F468943F912AE0269F11243019305DD0
S11339503193DEF6CF010895462F4770405D4193C1
S1133960B3E00FD0C9F7F6CF462F4F70405D4A330E
S113397018F0495D31FD4052419302D0A9F7EACFD6
S1133980B4E0A6959795879577956795BA95C9F705
S113399000976105710508959B01AC010A2E0694F8
S11339A05795479537952795BA95C9F7620F731FB1
S11339B0841F951FA01D089520FD09C0FC0123FD4F
S11339C005C022FF02C0738362835183408308953C
S11339D044FD17C046FD17C0AB01BC01DA01FB0171
S11339E0AA0FBB1FEE1FFF1F1094D1F74A0F5B1FD6
S11339F06E1F7F1FCB01BA01660F771F881F991FA7
S1133A0009C033E001C034E0660F771F881F991F97
S1133A103150D1F7620F711D811D911D08950F93CF
S1133A201F93CF93DF938C01C8010E949D1FEC016B
S1133A3097FD08C00E94891F892BB1F7B801CE01F8
S1133A400E94DB1FCE01DF91CF911F910F9108954A
S1133A508F929F92AF92BF92EF92FF920F931F9318
S1133A60CF93DF938C01D62F7A01B22E0E949D1F33
S1133A709C0133272B32310531F02D32310561F4AD
S1133A808B2D8068B82ED15011F480E068C0C80135
S1133A900E949D1F97FDF9CFCB2DCD7F2B2D207339
S1133AA009F58033F9F4AA24AA94AD0E09F443C0AD
S1133AB0C8010E949D1F97FD3EC09C012F7D3327A6
S1133AC02835310549F4C264D250A9F1C8010E94D5
S1133AD09D1F97FF07C02FC0B6FE02C0C26001C081
S1133AE0C261DA2D812C912C540120ED280F28304D
S1133AF080F0C4FF04C0B8010E94DB1F19C02A3043
S1133B0040F0C6FFF8CF2F7D3FEE320F363098F7E6
S1133B1027504C2FC501B4010E94E81C4B015C01E5
S1133B20C260D15059F0C8010E949D1F97FFDDCF9C
S1133B30C1FD04C0AACF812C912C5401C7FF08C039
S1133B40B094A09490948094811C911CA11CB11CED
S1133B502C2FB501A401C7010E94DC1C81E0DF9178
S1133B60CF911F910F91FF90EF90BF90AF909F90D6
S1133B708F900895A0E2B0E0E0ECFDE10C94C41A4B
S1133B805C01962E7A01F9018E010F5F1F4F6801C7
S1133B9080E2D8011D928A95E9F7D50113968C909D
S1133BA080E090E0612C712C30E061E070E083FCF7
S1133BB0259183FE21918F01522E211103C080E0B3
S1133BC090E092C02E3511F4009751F1432F50E04C
S1133BD0481759073CF42D3559F12D3219F4772043
S1133BE009F103C0772009F46AC0452D469546952E
S1133BF04695D601A40FB11D452D47708B0102C017
S1133C00000F111F4A95E2F7A8015C91452B4C93D4
S1133C10651459F0561410F45394E7CF5A94E5CF31
S1133C2031E004C07724739401C0712C0196BFCF96
S1133C30772019F08E8180628E83311103C088242D
S1133C40839417C0F6019E012F5D3F4F80818095BC
S1133C5081932E173F07D1F7F2CFE114F10429F035
S1133C60D7018C93F70131967F019A94812C992086
S1133C70F9F0C5010E949D1F97FD18C0FC01FF27A4
S1133C8023E0F595E7952A95E1F7EC0DFD1D2081DC
S1133C9030E0AC014770552702C0359527954A9509
S1133CA0E2F720FDDACFB5010E94DB1F811087CF38
S1133CB0E114F10411F0D7011C92C80115C0422F80
S1133CC0469546954695D601A40FB11D422F4770DF
S1133CD08B0102C0000F111F4A95E2F7A8015C9105
S1133CE0452B4C93622EA2CFA096EFE00C94E01AE1
S1133CF0A0E0B0E0EEE7FEE10C94C41A6C01EB0125
S1133D005A01FC0117821682512CF601E380FE0150
S1133D10E3FC8591E3FE8191182FEF01882309F4D8
S1133D20EEC090E00E94891F892B21F0C6010E94F9
S1133D300F1DEBCF153241F4FE01E3FC1591E3FEB8
S1133D401191EF01153281F4C6010E949D1F97FD68
S1133D50D4C0412F50E09C01332724173507A9F222
S1133D60B6010E94DB1FCBC01A3239F4E3FC159173
S1133D70E3FE1191EF0101E001C000E0F12C20ED20
S1133D80210F2A3080F402606F2D70E080E090E013
S1133D9040E20E94E81CF62EFE01E3FC1591E3FECE
S1133DA01191EF01ECCF01FF03C0F11003C0A7C0D4
S1133DB0FF24FA94183619F01C3651F010C0FE0195
S1133DC0E3FC1591E3FE1191EF01183641F408600C
S1133DD00460FE01E3FC1591E3FE1191EF01112350
S1133DE009F48DC0612F70E08AE691E00E94921F71
S1133DF0892B09F484C000FD07C0F50180809180FF
S1133E00C50102965C0102C0812C912C1E3651F42E
S1133E10F6014681578160E070E0202FC4010E94C2
S1133E20DC1C73CF1336A9F401FD02C0FF24F39404
S1133E30C6010E949D1F97FD60C08114910429F062
S1133E40F4018083C40101964C01FA94F110F0CF7F
S1133E5050C01B3559F49E01A4016F2DC6010E9468
S1133E60BA1DEC01892B09F044C03EC0C6010E9472
S1133E700F1D97FD42C01F3661F128F4143639F145
S1133E80193651F128C0133771F0153701F123C0E9
S1133E908114910429F0F4016082C40101964C015B
S1133EA0FA94FF2071F0C6010E949D1F3C0197FD0A
S1133EB008C00E94891F892B59F3B601C3010E94CF
S1133EC0DB1F81149104A9F0F401108212C0006276
S1133ED003C0006101C00064202FA4016F2DC6013E
S1133EE00E94281D811105C0F6018381807329F485
S1133EF006C000FD0ACF539408CF552019F0852D34
S1133F0090E002C08FEF9FEFCDB7DEB7EFE00C94E7
S1133F10E01A91110C94F41F803219F089508550E5
S1133F20C8F70895FC010590061621F00020D9F782
S1133F30C00108953197CF010895CF93DF93EC0129
S1133F402B8120FF33C026FF0AC02F7B2B838E8159
S1133F509F8101969F838E838A8190E029C022FFEE
S1133F600FC0E881F9818081082E000C990B00971D
S1133F7019F420622B831AC03196F983E8830EC0AA
S1133F80EA85FB85099597FF09C02B81019611F0FD
S1133F9080E201C080E1822B8B8308C02E813F81A7
S1133FA02F5F3F4F3F832E83992702C08FEF9FEFF0
S1133FB0DF91CF910895FB01238120FF12C026FDDC
S1133FC010C08F3F3FEF930761F082832F7D206401
S1133FD0238326813781215031093783268399270A
S1133FE008958FEF9FEF0895992788270895F894EF
S1053FF0FFCFFD
S1133FF24080B3B4012F466F6E742E74787400251A
S113400273200025643A25643A25642000252E3263
S1134012662000252E316600252E31662000257883
S113402200484F4D45004D4554454F535441544962
S11340324F4E00CFEEE6E0EBF3E9F1F2E020EFEED3
S1134042E4EEE6E4E8F2E52E00C8E4B8F220E7E0A4
S1114052E3F0F3E7EAE02E2E2E0025640000D2
S9030000FC
