S01000004E524632345F52582E73726563BF
S11300000C949E030C94A7120C94DE0E0C94BB0368
S11300100C94BB030C94BB030C94BB030C94BB0364
S11300200C94BB030C94BB030C94BB030C94AA0D5B
S11300300C94BB030C94BB030C94180E0C94BB03DC
S11300400C94BB030C94BB030C94BB030C94BB0334
S11300500C94BB030C94BB030C94BB030C94BB0324
S11300600C94BB030C94BB03CB0FE30FFB0F1310D7
S11300702B1043105B10941E9C1EA41EAC1EB41EB9
S1130080BC1EC41ED91EE41EEF1EFA1E051F101F3F
S11300901B1F261F311F3C1F471F521F901FD11FBC
S11300A0122053209420D52016216E616E00696EB3
S11300B0660000407A10F35A00A0724E180900102E
S11300C0A5D4E80000E87648170000E40B540200C9
S11300D000CA9A3B000000E1F505000080969800F4
S11300E0000040420F000000A0860100000010271D
S11300F000000000E80300000000640000000000AD
S11301000A00000000000100000000002C76D888DE
S1130110DC674F0823DFC1DFAE59E1B1B796E5E3F1
S1130120E453C63AE651997696E8E6C28426EB890A
S11301308C9B62ED407C6FFCEFBC9C9F40F2BAA5A7
S11301406FA5F490055A2AF75C936B6CF9676DC13F
S11301501BFCE0E40D47FEF520E6B500D0ED902E43
S11301600300943577050080841E080000204E0AA1
S1130170000000C80C333333330F986E12831141DF
S1130180EF8D2114893BE65516CFFEE6DB18D184AA
S11301904B381BF77C1D901DA4BBE42420328472D1
S11301A05E228100C9F124ECA1E53D276364696EF8
S11301B06F70737578585B0000E0F8FC3E0703012C
S11301C0E1FEFC3F7F878080E07C3F1F070000004A
S11301D0000002E2FEFF1F03008080C0F8FFFF87DB
S11301E0800000000000000C06030387FF7E1C80D3
S11301F0C0E0F0E8E4E3E1F018000000008084824D
S1130200C3C37F3F1E60E0C0C08081437F3F1E00A8
S113021000000000804020F0F8FC1E101C1A191881
S1130220F8FEFF1F190800004078F6E7E7C78707C4
S11302300360E0C08080417F3F0F000000C0E0F811
S1130240785C4EC6C381013F7FFF8180C0F07F3F51
S11302500F00080E07070787671F0701008060105B
S11302600C0300000000000000003C7EFFE3C1C15D
S11302707F3E1C3C7EFF838081C37F7F1E0000F095
S1130280FCFE0F0301C1FFFEFC80C1C363723A1E72
S11302900F07030000000000003838380000000099
S11302A00000383838000000000080C0602060C0C2
S11302B0803F7FC080C07F3F002020E0E00000003E
S11302C08080FFFF808080C06060E0C00080C0E06C
S11302D0D8CFC3E080406060E0C000C0C084868F97
S11302E07D3800000080C0E00038343231FFFF3038
S11302F000C06060606020C2C3C383864E3C00803F
S1130300C0406020203E7FC382C67C38C0606060ED
S113031060E020000080700E0100C0E0202020E09A
S1130320C071FB87868EFF7980C0602060C08083A7
S113033087CC48783F0F000000000000000000C098
S1130340C0000000FC8484FC0008FC0088C4A49C59
S11303504484947C6050FC405894946478949464ED
S11303600004F40C6C94946C98A4A47800800000AD
S113037000000000000000004F000000000700071C
S1130380000000147F147F1400242A7F2A12002303
S1130390130864620036495522400000050300003A
S11303A0001C224100000041221C00000014083EF1
S11303B008140008083E080800A0600000000008B7
S11303C0080808080060600000000020100804020B
S11303D0003E5149453E0000427F400000426151C9
S11303E04946002141454B31001814127F10002763
S11303F045454539003C4A49493000017109050326
S113040000364949493600064949291E006C6C00EA
S113041000000000563600000008142241000024A9
S11304202424242400004122140800020151090656
S113043000324979413E007E1111117E007F494905
S11304404936003E41414122007F4141221C007F48
S113045049494941007F09090901003E4149493A96
S1130460007F0808087F0000417F410000204041D0
S11304703F01007F08142241007F40404040007F3C
S1130480020C027F007F0408107F003E4141413E80
S1130490007F09090906003E4151215E007F0919C8
S11304A029460046494949310001017F0101003FC5
S11304B04040403F001F2040201F003F4060403F1D
S11304C000631408146300070870080700615149A9
S11304D04543007F414100000015167C161500417C
S11304E0417F0000000402010204004040404040FB
S11304F0000102040000002054545478007F444456
S1130500443800384444440000384444487F0038A8
S11305105454541800107E110102000C5252523EE1
S1130520007F080404780000447D4000002040401F
S11305303D00007F102844000000417F4000007C03
S113054004180478007C08040478003844444438CF
S1130550007C1414140800081414187C007C08048B
S1130560040800485454542000043F444020003CF4
S11305704040207C001C2040201C001E2010201E17
S113058000221408142200064848483E00446454DB
S11305904C440008364100000000007F0000004188
S11305A0360800000008082A1C08007E1111117E7C
S11305B0007F49494933007F49494936007F010199
S11305C0010300E0514F41FF007F49494941007751
S11305D0087F0877004149494936007F1008047FA5
S11305E0007C2112097C007F081422410020413F35
S11305F0017F007F020C027F007F0808087F003E15
S11306004141413E007F0101017F007F0909090644
S1130610003E414141220001017F010100472810B1
S11306200807001C227F221C006314081463007F47
S1130630404040FF00070808087F007F407F407F5C
S1130640007F407F40FF00017F484830007F4830F2
S1130650007F00007F48483000224149493E007F26
S1130660083E413E00462919097F0020545454781D
S1130670003C4A4A4931007C54542800007C04045C
S1130680040C00E0544C44FC003854545418006CDE
S1130690107C106C004444545428007C2010087CC6
S11306A0007C4122117C007C102844000020443C42
S11306B0047C007C0810087C007C1010107C00383E
S11306C044444438007C0404047C007C141414085E
S11306D00038444444280004047C0404000C5050B2
S11306E0503C003048FC4830004428102844007C2A
S11306F0404040FC000C1010107C007C407C407C8E
S1130700007C407C40FC00047C505020007C505015
S1130710207C007C50502000002844545438007C35
S11307201038443800085434147C007E4B4A4B4241
S113073000385554551800000609090611241FBE37
S1130740CFEFD8E0DEBFCDBF13E0A0E0B1E0E8EC2E
S1130750F5E602C005900D92A232B107D9F728E060
S1130760A2E2B3E001C01D92AB31B207E1F70E94EF
S11307702A0F0C94E2320C9400000F931F93CF9332
S1130780DF93C82F0E948B148EEE0E9497148C2F37
S11307900E9497140E9493140E948B148FEE0E945F
S11307A097140E94A114C82FD0E00E94AB14082F04
S11307B010E00E9493149C2F8827800F911FDF91D3
S11307C0CF911F910F9108958AEA0E94BD039093DF
S11307D0CC078093CB078CEA0E94BD039093D40787
S11307E08093D3078EEA0E94BD039093E40780931D
S11307F0E30780EB0E94BD039093D8078093D7074B
S113080082EB0E94BD039093D2078093D10784EBBF
S11308100E94BD039093D0078093CF0786EB0E947C
S1130820BD039093CE078093CD0788EB0E94BD0350
S11308309093C8078093C7078AEB0E94BD039093E7
S1130840CA078093C9078CEB0E94BD039093DA0713
S11308508093D9078EEB0E94BD039093D6078093B3
S1130860D50708950E948B148EEE0E94971484EF8E
S11308700E9497148EE20E9497140E9493148FE0B2
S113088097E20197F1F700C0000086EF0E94BD03D4
S1130890BC0180E090E008950E948B148EEE0E94CB
S11308A0971484EF0E94971484EF0E9497140E9477
S11308B093148FE19BEC0197F1F700C000000E94B4
S11308C08B148EEE0E94971486EF0E9497140E9458
S11308D093140E948B148FEE0E9497140E94A1140B
S11308E090E0A0E0B0E08093DF079093E007A0934E
S11308F0E107B093E2070E94A11490E0A0E0B0E009
S11309008093DB079093DC07A093DD07B093DE07A9
S11309100E94AB1490E0A0E0B0E08093C3079093F2
S1130920C407A093C507B093C6070E9493144091CF
S1130930DF075091E0076091E1077091E207BA0187
S1130940552744278091DB079091DC07A091DD07B0
S1130950B091DE07BA2FA92F982F8827480F591F67
S11309606A1F7B1F8091C3079091C407A091C5079C
S1130970B091C607840F951FA61FB71FBC01CD01F8
S1130980689414F896958795779567951694D1F79A
S113099008954F925F926F927F928F929F92AF923F
S11309A0BF92CF92DF92EF92FF920F931F93CF9358
S11309B0DF9300D000D0CDB7DEB70E9432046B01C4
S11309C07C010E944C0469837A838B839C8380918D
S11309D0CF079091D007A7019601281B390B410935
S11309E05109A091D107B091D2070E949B2D2B01F0
S11309F03C01032E3FE075946794579447943A95CD
S1130A00D1F7302D6091D9077091DA07CB01770FB8
S1130A10AA0BBB0BBC01CD01052E5BE0660F771F53
S1130A20881F991F5A95D1F7502D2091D5073091E1
S1130A30D6078901330F220B330BA9019801240D2A
S1130A40351D461D571D0E94762D420E531E641EF1
S1130A50751E80EA481A8FE0580A61087108A301DC
S1130A609201C301B2010E94442D4B015C01072E87
S1130A707CE0B594A794979487947A95D1F7702DD8
S1130A80A091C707B091C807A50194010E94A62DA3
S1130A906B017C010B2EBBE0F594E794D794C794CB
S1130AA0BA95D1F7B02DA091D307B091D407A30183
S1130AB092010E94A62DDC01CB01072E7BE0B595A7
S1130AC0A795979587957A95D1F7702DC80ED91E5D
S1130AD0EA1EFB1E8091CB079091CC07092E000CD7
S1130AE0AA0BBB0B880F991FAA1FBB1F880F991F46
S1130AF0AA1FBB1FC80ED91EEA1EFB1ECC0CDD1C90
S1130B00EE1CFF1CA091E307B091E4070E94A62D00
S1130B102B013C01032E3DE0759467945794479450
S1130B203A95D1F7302DA091CD07B091CE07A5010C
S1130B3094010E94A62DBB2797FDB095AB2F840D81
S1130B40951DA61DB71D0296A11DB11DB595A795AE
S1130B5097958795B595A795979587959C01AD0130
S1130B6030584F4F5F4FA091D707B091D8070E94DC
S1130B709B2D2B013C01032E3FE076946794579400
S1130B8047943A95D1F7302D29813A814B815C8184
S1130B902C193D094E095F09AAE6B8E10E949B2D74
S1130BA099235CF0660F771F881F991FA301920198
S1130BB00E94542D29013A010AC0A30192010E9406
S1130BC0542D29013A01440C551C661C771CC301A1
S1130BD0B2010E94A5286B017C0120E030E040E8CE
S1130BE05BE30E945A299B01AC010E945A290E948E
S1130BF06D289B01AC01AEEDBBE00E949B2D0E94D1
S1130C00A52820E030E040E857E30E945A290E94DA
S1130C106D284B015C01A3E4B3EEA30192010E9491
S1130C20A92D0E94A52820E030E040E857E30E9467
S1130C305A290E946D28DC01CB01880D991DAA1D3B
S1130C40BB1DBC01CD016153714F8F4F9F4F0E945B
S1130C50A52820E030E040E85DE30E945A299B018A
S1130C60AC01C701B6010E948A270E946D286093D7
S1130C7022037093230380932403909325030F90FE
S1130C800F900F900F90DF91CF911F910F91FF90D4
S1130C90EF90DF90CF90BF90AF909F908F907F9018
S1130CA06F905F904F9008952FEF83ED90E3215064
S1130CB080409040E1F700C0000087B1816087B9AF
S1130CC088B1816088B980E00895BC0187B18160F2
S1130CD087B988B18E7F88B988B1816088B92FEFD0
S1130CE080E792E0215080409040E1F700C000008E
S1130CF088B18E7F88B98FE99CE80197F1F700C02D
S1130D00000088B1816088B987B18E7F87B990EA85
S1130D109A95F1F7309938C025ED2A95F1F700003E
S1130D2096B1892F817090FF30C085ED8A95F1F7D7
S1130D30000080E025C0E4E0F0E0E81BF109E60FE4
S1130D40F71F108290E019C0309BFECF2DE52A9545
S1130D50F1F70000309B0EC047E050E0491B5109F9
S1130D6021E030E002C0220F331F4A95E2F73081C0
S1130D70232B20833099FECF9F5F983028F38F5F19
S1130D808530C8F281E0089580E0089590910001D3
S1130D906917E0F4909101018917C0F4962F969594
S1130DA096959695E82FF0E080E8989FE00DF11D68
S1130DB01124677081E090E002C0880F991F6A9542
S1130DC0E2F7E455FC4F9081892B8083089590913C
S1130DD000016917E0F4909101018917C0F4962F7E
S1130DE0969596959695E82FF0E080E8989FE00D0B
S1130DF0F11D112467708EEF90E002C0880F991FD7
S1130E006A95E2F7E455FC4F908189238083089525
S1130E1082E08A95F1F700C08BB180628BB982E0E1
S1130E208A95F1F700C08BB18F7D8BB982E08A95EA
S1130E30F1F700C008951F93CF93DF93182F8BB160
S1130E4080688BB98BB180648BB90E9408070E94BB
S1130E5008070E9408070E9408070E9408078BB130
S1130E608F7B8BB90E9408078BB180648BB90E9479
S1130E7008078BB18F7B8BB90E940807C0E0D0E0D4
S1130E801CC0CE010497049730F48BB18F7B8BB9CF
S1130E900E94080711C0812F807841F0803859F4EE
S1130EA08BB180648BB90E94080705C08BB18F7B1E
S1130EB08BB90E940807110F2196CC30D1050CF391
S1130EC08BB18F7B8BB90E9408070E9408070E9490
S1130ED008070E9408078BB18F778BB9DF91CF91F8
S1130EE01F9108951F93CF93DF93182F8BB18068C0
S1130EF08BB98BB180648BB90E9408070E940807E4
S1130F000E9408070E9408070E9408078BB18F7B84
S1130F108BB90E9408078BB18F7B8BB90E9408079D
S1130F208BB18F7B8BB90E940807C0E0D0E01CC056
S1130F30CE010497049730F48BB18F7B8BB90E9458
S1130F40080711C0812F807841F0803859F48BB1A3
S1130F5080648BB90E94080705C08BB18F7B8BB965
S1130F600E940807110F2196CC30D1050CF38BB1E8
S1130F708F7B8BB90E9408070E9408070E9408070C
S1130F800E9408078BB18F778BB9DF91CF911F91A6
S1130F900895882399F084E30E9472078FEC97E008
S1130FA00197F1F700C0000086E30E9472078FECFE
S1130FB097E00197F1F700C00000089580E30E94D4
S1130FC072078FEC97E00197F1F700C000000895D5
S1130FD08F929F92AF92BF92DF92EF92FF920F9304
S1130FE01F93CF93DF937C01D12C31C18FE18D15F9
S1130FF048F08D2D80680E947207802F80680E94BF
S1131000720709C080EE8D0D80680E947207802FE0
S113101088680E947207CD2DC695C695C695D0E006
S1131020CC0FDD1FCC0FDD1FCC0FDD1FC00FD11D7A
S1131030C295D295D07FDC27C07FDC27CE0DDF1D83
S11310408880912C1D2D1770012E02C095948794D1
S11310500A94E2F79694982C882497948794A9800C
S1131060B12C012E02C0B594A7940A94E2F781E052
S1131070A822BB240024B694A7940794B694A794FA
S11310800794BA2CA02CAA81B0E0012E02C0B59519
S1131090A7950A94E2F7A170BB27AA0FBB1FA295DC
S11310A0B295B07FBA27A07FBA27EB81F0E0012E7A
S11310B002C0F595E7950A94E2F7E170FF27E295FF
S11310C0F295F07FFE27E07FFE276C8170E0012E11
S11310D002C0759567950A94E2F761707727660FE9
S11310E0771F660F771F660F771F4D8150E0012E23
S11310F002C0559547950A94E2F741705527440F6D
S1131100551F440F551F2E8130E0012E02C0359526
S113111027950A94E2F721703327220F331F8F811A
S113112090E0012E02C0959587950A94E2F7A828CD
S1131130AA29EA2B6E2B462B242B8170822B0E942A
S11311401B078884912C012E02C0959487940A94DD
S1131150E2F79694982C882497948794A984B12CC8
S1131160012E02C0B594A7940A94E2F781E0A82264
S1131170BB240024B694A7940794B694A794079428
S1131180BA2CA02CAA85B0E0012E02C0B595A79573
S11311900A94E2F7A170BB27AA0FBB1FA295B295D0
S11311A0B07FBA27A07FBA27EB85F0E0012E02C0FA
S11311B0F595E7950A94E2F7E170FF27E295F29539
S11311C0F07FFE27E07FFE276C8570E0012E02C0D1
S11311D0759567950A94E2F761707727660F771F14
S11311E0660F771F660F771F4D8550E0012E02C0F2
S11311F0559547950A94E2F741705527440F551FBA
S1131200440F551F2E8530E0012E02C035952795D9
S11312100A94E2F721703327220F331FCF85D0E0E1
S113122002C0D595C7951A95E2F7882D8A298A2B8D
S11312308E2B862B842B822BC1708C2B0E941B0738
S11312400F5F01C000E0083008F4D0CED3948FE3E0
S11312508D15C0F7DF91CF911F910F91FF90EF9003
S1131260DF90BF90AF909F908F90089581E00E948F
S113127072078FE19EE40197F1F700C00000089522
S11312802FEF89EF90E0215080409040E1F700C0BB
S113129000008CE00E94720787EC90E00197F1F760
S11312A000C000000E94360986E00E9472078FE1A8
S11312B09EE40197F1F700C00000089520E030E0BB
S11312C02AC04423A1F0FB01EE0FFF1FE60FF71F16
S11312D0EE0FFF1FE20FF31FE059FC4F5491F90189
S11312E0E80FF91FE555FC4F5095508312C0FB01E0
S11312F0EE0FFF1FE60FF71FEE0FFF1FE20FF31FA6
S1131300E059FC4F5491FC01E20FF31FE555FC4FEB
S113131050832F5F3F4F273031059CF2089520E022
S113132030E026C0442391F0FB01EE0FFF1FEE0FC7
S1131330FF1FE20FF31FEC5BFC4F5491F901E80F20
S1131340F91FE555FC4F5095508310C0FB01EE0F7B
S1131350FF1FEE0FFF1FE20FF31FEC5BFC4F5491D6
S1131360FC01E20FF31FE555FC4F50832F5F3F4F05
S113137024303105BCF2089520E030E028C0442335
S113138099F056E1569FF001579FF00D1124E20F9A
S1131390F31FE854FE4F5491F901E80FF91FE55586
S11313A0FC4F5095508311C056E1569FF001579F52
S11313B0F00D1124E20FF31FE854FE4F5491FC0189
S11313C0E20FF31FE555FC4F50832F5F3F4F2B3047
S11313D03105ACF28B589F4F2BE030E028C04423FA
S11313E099F056E1569FF001579FF00D1124E20F3A
S11313F0F31FE854FE4F5491FC01E20FF31FE5552F
S1131400FC4F5095508311C056E1569FF001579FF1
S1131410F00D1124E20FF31FE854FE4F5491FC0128
S1131420E20FF31FE555FC4F50832F5F3F4F2631EA
S11314303105ACF2089520E030E034C04423C9F013
S1131440DB01AA0FBB1FFD01EE0FFF1FEE0FFF1FF5
S1131450EE0FFF1FEA1BFB0BE20FF31FE655FD4FD8
S11314605491F901E80FF91FE555FC4F509550834D
S113147017C0DB01AA0FBB1FFD01EE0FFF1FEE0F0C
S1131480FF1FEE0FFF1FEA1BFB0BE20FF31FE655D6
S1131490FD4F5491FC01E20FF31FE555FC4F5083BF
S11314A02F5F3F4F273031054CF287589F4F27E07D
S11314B030E034C04423C9F0DB01AA0FBB1FFD0197
S11314C0EE0FFF1FEE0FFF1FEE0FFF1FEA1BFB0BBC
S11314D0E20FF31FE655FD4F5491FC01E20FF31F99
S11314E0E555FC4F5095508317C0DB01AA0FBB1F75
S11314F0FD01EE0FFF1FEE0FFF1FEE0FFF1FEA1B94
S1131500FB0BE20FF31FE655FD4F5491FC01E20F74
S1131510F31FE555FC4F50832F5F3F4F2E303105AD
S11315204CF20895DF92EF92FF920F931F93CF93A3
S1131530DF93D42E79018C0120E8629F000D111DE8
S11315401124C0E0D0E02BC0F701EC0FFD1F608137
S113155070E0DD2089F06E32710539F06053710955
S113156041E0C8010E941B0A17C041E06AE070E034
S1131570C8010E941B0A10C06E32710539F0605315
S1131580710940E0C8010E941B0A06C040E06AE0FD
S113159070E0C8010E941B0A085F1F4F2196F701E3
S11315A001900020E9F73197EE19FF09CE17DF0704
S11315B058F2DF91CF911F910F91FF90EF90DF9040
S11315C00895DF92EF92FF920F931F93CF93DF93CF
S11315D0D42E79018C0120E8629F000D111D112485
S11315E0C0E0D0E02BC0F701EC0FFD1F608170E07C
S11315F0DD2089F06E32710539F06053710941E0E4
S1131600C8010E948F0917C041E06AE070E0C80178
S11316100E948F0910C06E32710539F06053710950
S113162040E0C8010E948F0906C040E06AE070E013
S1131630C8010E948F090B5F1F4F2196F70101908B
S11316400020E9F73197EE19FF09CE17DF0758F2AA
S1131650DF91CF911F910F91FF90EF90DF9008954C
S1131660DF92EF92FF920F931F93CF93DF93D42EC9
S113167079018C0120E8629F000D111D1124C0E046
S1131680D0E017C0F701EC0FFD1F608170E0DD2092
S113169039F06053710941E0C8010E94BC0906C0D9
S11316A06053710940E0C8010E94BC09045F1F4FE8
S11316B02196F70101900020E9F73197EE19FF090F
S11316C0CE17DF07F8F2DF91CF911F910F91FF90B2
S11316D0EF90DF900895BF92CF92DF92EF92FF9246
S11316E00F931F93CF93DF93B42E79018C0120E8DD
S11316F0629F000D111D1124C12CD12C79C0F7015A
S1131700EC0DFD1DC081C03CD0F4C83AC1F0C83B0B
S1131710B1F0C03BA1F06C2F70E0BB2039F06052F7
S1131720710941E0C8010E945E0906C06052710956
S113173040E0C8010E945E090A5F1F4F56C0D0E016
S1131740CE01805C91098034910598F4BB2041F06E
S113175041E0BE0161567109C8010E945E0907C0DB
S113176040E0BE0161567109C8010E945E090A5F2A
S11317701F4FC83AD10589F4BB2039F041E06FE925
S113178070E0C8010E945E0906C040E06FE970E0A5
S1131790C8010E945E090A5F1F4FC83BD10589F446
S11317A0BB2039F041E060EA70E0C8010E945E09A4
S11317B006C040E060EA70E0C8010E945E090A5F6A
S11317C01F4FC03BD10589F4BB2039F041E061EAE9
S11317D070E0C8010E945E0906C040E061EA70E062
S11317E0C8010E945E090A5F1F4F8FEFC81AD80A0A
S11317F0F70101900020E9F73197EE19FF09CE16A1
S1131800DF0608F47CCFDF91CF911F910F91FF90F9
S1131810EF90DF90CF90BF90089580E094E0ECEAE1
S1131820F3E0DF019C011D9221503040E1F708955F
S11318308F929F92AF92BF92CF92DF92EF92FF92DC
S11318400F931F93CF93DF93C82FD62FB42E822EDE
S1131850481728F0C42ED12CC81AD10804C0C82EA9
S1131860D12CC41AD1088D1628F0E82CF12CED1ACD
S1131870F10804C0ED2EF12CE818F108CB1518F48A
S1131880AA24A39402C0AA24AA94D81518F49924CB
S1131890939402C099249A9486010E191F096D2FFE
S11318A08C2F0E94C606CB1102C0D815A1F0C80126
S11318B0880F991F222733272E193F092817390724
S11318C01CF40E191F09CA0D8C159D0544F70C0D47
S11318D01D1DD90DE4CFDF91CF911F910F91FF9082
S11318E0EF90DF90CF90BF90AF909F908F9008952E
S11318F05F926F927F928F929F92AF92BF92CF929C
S1131900DF92EF92FF920F931F93CF93DF93782E82
S1131910662EC42F042F10E081E090E06C01C01A01
S1131920D10AAA24BB24A01AB10AAA0CBB1C642F96
S1131930660D872D0E94C606662D6C1B872D0E949E
S1131940C606662D8C2F870D0E94C606662D872D30
S11319508C1B0E94C606C0E0D0E088248394912C9E
S11319603FC0DD203CF00150110982E0A80EB11CFB
S1131970CA0CDB1C219682E0880E911CC80CD91C71
S11319805C2E570CF62CF00E6F2D852D0E94C6068A
S1131990E72CEC1A6F2D8E2D0E94C606F62CF01A39
S11319A06F2D852D0E94C6066F2D8E2D0E94C606B2
S11319B0FC2EF60C6F2DE72CE00E8E2D0E94C60631
S11319C06F2DF72CF01A8F2D0E94C606562C5C1A28
S11319D0652D8E2D0E94C606652D8F2D0E94C6068C
S11319E0C017D1070CF4BDCFDF91CF911F910F9198
S11319F0FF90EF90DF90CF90BF90AF909F908F902B
S1131A007F906F905F9008956F927F928F929F92D4
S1131A10AF92BF92CF92DF92EF92FF920F931F93F8
S1131A20CF93DF93182F062FEA0181E090E06C0139
S1131A30C41AD50AAA24BB24A41AB50AAA0CBB1C2E
S1131A40662E712E642F600F812F0E94C606602FB0
S1131A506C1B812F0E94C606FC2EF10E602F8F2D69
S1131A600E94C6061C1B602F812F0E94C606202FD1
S1131A704F2D602F812F0E94180C00E010E0882465
S1131A808394912C33C0DD2034F0219782E0A80E9A
S1131A90B11CCA0CDB1C0F5F1F4F82E0880E911C27
S1131AA0C80CD91CF72CF00EE72CE01A6C2F660D2D
S1131AB0262F4F2D8E2D0E94180C662D6C1B262F61
S1131AC04E2D8F2D0E94180C662D600F262FE72CAB
S1131AD0EC1A4E2DFC2EF70C8F2D0E94180C662D3F
S1131AE0601B262F4E2D8F2D0E94180C0C171D07DE
S1131AF054F2DF91CF911F910F91FF90EF90DF90FF
S1131B00CF90BF90AF909F908F907F906F900895EB
S1131B10E1E8F0E0808188608083AFE6B0E08C91FA
S1131B2082608C938AE78093890082E180938800A5
S1131B30808185608083089585B5826085BD84E653
S1131B4087BD85B5826085BDEEE6F0E08081826068
S1131B50808308951F920F920FB60F9211242F9332
S1131B603F934F935F936F937F938F939F93AF9321
S1131B70BF93CF93DF93EF93FF9389E893E09F9311
S1131B808F938EE893E09F938F938AE793E09F93DC
S1131B908F9385E793E09F938F9383E393E09F93E1
S1131BA08F9388E993E09F938F9382EA93E09F93C6
S1131BB08F938DE993E09F938F9387EA93E09F93AC
S1131BC08F9389E191E09F938F93C9E3D3E0DF93EF
S1131BD0CF930E942E2FCE010E94CB140990002097
S1131BE0E9F72197C953D340AE01440F551F60E074
S1131BF070E089E393E00E94D72E8DB79EB7469696
S1131C000FB6F8949EBF0FBE8DBFFF91EF91DF9189
S1131C10CF91BF91AF919F918F917F916F915F9180
S1131C204F913F912F910F900FBE0F901F901895D9
S1131C301F920F920FB60F9211242F938F939F939D
S1131C4083B1829586958695837090912603982B0F
S1131C509430C1F018F4913029F023C09B3091F0F6
S1131C609E30F9F490912A03992331F0909129033D
S1131C709F5F9093290315C0909128039F5F9093D1
S1131C8028030FC090912A03992331F090912903DE
S1131C9091509093290305C09091280391509093FB
S1131CA02803880F880F80932603809128038837A0
S1131CB01CF01092280305C088231CF487E7809346
S1131CC028039091280383E99802812D1124890F18
S1131CD08595859597FD8395282F220F220F220F36
S1131CE0281B921B923041F12CF4992351F091302E
S1131CF0B1F055C09430D1F164F1953009F443C08A
S1131D004EC08091290389311CF01092290347C0E9
S1131D1088230CF044C087E18093290340C080915C
S1131D2029038C331CF01092290339C08823BCF595
S1131D308BE38093290333C08091290388301CF0FE
S1131D40109229032CC0882354F587E0809329033B
S1131D5026C08091290380321CF0109229031FC0F1
S1131D608823ECF48FE18093290319C0809129031F
S1131D708D301CF01092290312C0882384F48CE067
S1131D80809329030CC08091290384361CF010929F
S1131D90290305C088231CF483E6809329039F91BB
S1131DA08F912F910F900FBE0F901F90189585B7AC
S1131DB0886085BF8DB382608DBB08951F920F929A
S1131DC00FB60F9211248F9381E0809327038F9194
S1131DD00F900FBE0F901F90189584B18E6284B936
S1131DE085B1837D85B98AB18B7F8AB98BB18460D3
S1131DF08BB985B1846085B980E58CBD08958AB1BD
S1131E0080618AB98BB18F7E8BB98AB180688AB9B7
S1131E108BB18F778BB98AB180628AB98BB18F7D90
S1131E208BB98AB180648AB98BB18F7B8BB98AB143
S1131E30877F8AB984B18E7F84B98BB188608BB96E
S1131E4085B18F7385B908958EBD0DB407FEFDCF9E
S1131E508EB50895F8940E94FF0E8BB180618BB902
S1131E600E94ED0E0E94871488E090E00E94B51451
S1131E700E94400981E00E94C9070E940D0C8CEA6F
S1131E8093E00E94E80780E00E94C9070E943C1387
S1131E900E94A6130E9454060E94E4038BB18F7E15
S1131EA08BB90E94880D0E949C0DE9E6F0E08081C8
S1131EB0826080838DB381608DBB0E94D70E78943D
S1131EC0E7EAF3E080E3808381839EE29283838365
S1131ED0E2EAF3E0808381838DE280938903809139
S1131EE02703882309F4F6C080912B03823091F1F3
S1131EF028F4882351F0813061F0EAC0833009F47A
S1131F00E0C0843009F4E1C0E3C081E080932B0396
S1131F10DFC08091280383781CF481508C6F8F5F1D
S1131F20813061F01CF4882331F0D2C0823051F04A
S1131F30833061F0CDC010922B03CAC082E080933D
S1131F402B03C6C083E080932B03C2C084E080933C
S1131F502B03BEC09091280383E99802812D11249C
S1131F60890F85958595E82F97FDE3958E2F880F2A
S1131F70880F880F8E1BE92FE81B8E2FEE0F990B0D
S1131F80AA0BBB0B8730910508F0A2C0FC01EC5CE6
S1131F90FF4F0C94952D80912A03811108C08091E4
S1131FA0F7078093290381E080932A0391C08091ED
S1131FB029038093F70781E08093FE070E94B713FB
S1131FC010922A0385C080912A03811108C0809150
S1131FD003088093290381E080932A0379C08091C8
S1131FE029038093030882E08093FE070E94B713BD
S1131FF010922A036DC080912A03811108C0809138
S11320000E088093290381E080932A0361C08091A4
S1132010290380930E0886E08093FE070E94B7137D
S113202010922A0355C080912A03811108C080911F
S113203010088093290381E080932A0349C080918A
S113204029038093100883E08093FE070E94B7134E
S113205010922A033DC080912A03811108C0809107
S1132060F3078093290381E080932A0331C0809190
S113207029038093F30784E08093FE070E94B7133B
S113208010922A0325C080912A03811108C08091EF
S11320900C088093290381E080932A0319C080915E
S11320A0290380930C0885E08093FE070E94B713F0
S11320B010922A030DC01092FE0781E080932B0337
S11320C007C081E080932B0303C081E080932B033E
S11320D01092270380912B038230A9F028F48823DF
S11320E041F0813059F0FBCE833091F08430A9F077
S11320F0F6CE8CEA93E00E94A823F1CE8CEA93E01A
S11321000E94E614ECCE8CEA93E00E945D1FE7CEB9
S11321108CEA93E00E949615E2CE8CEA93E00E944A
S1132120E715DDCECF93DF938091AD07813009F0C1
S11321305EC18091B607813009F059C0E7EAF3E047
S113214001900020E9F73197AF01475A5340440FFB
S1132150551F60E070E087EA93E00E94D72EE6EB1B
S1132160F7E08181C281D0E0DC2FCC27C82BBE01EF
S11321700D2E000C880B990B0E94A52820E030E05E
S113218040E251E40E94FB276093B2077093B307C7
S11321908093B4079093B507DD235CF4DC01CB0195
S11321A0B0588093B2079093B307A093B407B09349
S11321B0B5078091B5078F938091B4078F93809171
S11321C0B3078F938091B2078F9385E391E09F9338
S11321D08F9387EA93E09F938F930E942E2F8DB75E
S11321E09EB708960FB6F8949EBF0FBE8DBF809120
S11321F0B607853009F03FC0C2EAD3E0FE01019082
S11322000020E9F73197AF01425A5340440F551F5C
S113221060E070E0CE010E94D72EE6EBF7E081810A
S1132220628170E0762F6627682B072E000C880BDE
S1132230990B0E94A52820E030E040E251E40E947E
S1132240FB276093AE077093AF078093B00790931A
S1132250B1070E946D287F936F9385EB92E09F9363
S11322608F93DF93CF930E942E2F0F900F900F9098
S11322700F900F900F90C091B607C23061F5E3E95B
S1132280F3E001900020E9F73197AF01435953403F
S1132290440F551F60E070E083E993E00E94D72E5D
S11322A020E00BC0822F90E0FC01E954F84F30810C
S11322B0FC01ED56FC4F30832F5F822F90E0E6EB5C
S11322C0F7E001900020E9F73197E65BF74031979A
S11322D08E179F0738F3C33061F5E9E8F3E0019006
S11322E00020E9F73197AF0149585340440F551F77
S11322F060E070E089E893E00E94D72E20E00BC0F4
S1132300822F90E0FC01E954F84F3081FC01E7573B
S1132310FC4F30832F5F822F90E0E6EBF7E00190D3
S11323200020E9F73197E65BF74031978E179F0756
S113233038F3C43061F5E4E8F3E001900020E9F7F4
S11323403197AF0144585340440F551F60E070E08B
S113235084E893E00E94D72E20E00BC0822F90E007
S1132360FC01E954F84F3081FC01EC57FC4F3083F9
S11323702F5F822F90E0E6EBF7E001900020E9F771
S11323803197E65BF74031978E179F0738F3C630D5
S113239061F5EFE7F3E001900020E9F73197AF0131
S11323A04F575340440F551F60E070E08FE793E0B0
S11323B00E94D72E20E00BC0822F90E0FC01E9544C
S11323C0F84F3081FC01E158FC4F30832F5F822F9E
S11323D090E0E6EBF7E001900020E9F73197E65B47
S11323E0F74031978E179F0738F31092AD07DF91AE
S11323F0CF91089585B18B7F85B982EE90E00E94DC
S1132400240F82E08A95F1F700C085B1846085B914
S1132410089585B18B7F85B981EE90E00E94240FE9
S113242082E08A95F1F700C085B1846085B908958A
S113243085B18B7F85B980E590E00E94240F82E00E
S11324408A95F1F700C083E790E00E94240F85B1DC
S1132450846085B90895EF92FF920F931F93CF93F1
S1132460DF938B01C42F95B19B7F95B990E00E94B7
S1132470240F0CC078018FEFE81AF80A8FEF90E070
S11324800E94240FF8018083CD2F8701DFEFDC0F3A
S1132490C111F0CF85B1846085B9DF91CF911F91CF
S11324A00F91FF90EF900895EF92FF920F931F9377
S11324B0CF93DF938B01C42F806295B19B7F95B935
S11324C090E00E94240F82E08A95F1F700C00BC0CF
S11324D07801EFEFEE1AFE0AF801808190E00E9485
S11324E0240FCD2F8701DFEFDC0FC111F1CF85B1B0
S11324F0846085B9DF91CF911F910F91FF90EF9088
S11325000895CF93C62F806295B19B7F95B990E0D3
S11325100E94240F8C2F90E00E94240F85B18460C8
S113252085B9CF910895CF93C82F85B18B7F85B995
S11325308C2F90E00E94240FC73021F08FEF90E0A1
S11325400E94240F95B1946095B9CF9108951F927C
S11325500F920FB60F9211242F933F934F935F93D3
S11325606F937F938F939F93AF93BF93EF93FF9357
S113257087E592E00197F1F700C000008BB180611C
S11325808BB987E592E00197F1F700C000008BB1A9
S11325908F7E8BB987E00E94931286FF0AC045E0C4
S11325A066EB77E081E60E942B1260E487E00E94EC
S11325B0811281E08093AD078091AC07863011F4DD
S11325C01092AC070E9492108091AC078F5F8093A9
S11325D0AC070E947F2184E098E09F938F9388EF5B
S11325E097E09F938F9388E098E09F938F938FEF6A
S11325F097E09F938F9382E198E09F938F9386E176
S113260098E09F938F938AE391E09F938F9382E066
S113261091E09F938F930E942E2F8DB79EB7409683
S11326200FB6F8949EBF0FBE8DBFFF91EF91BF917F
S1132630AF919F918F917F916F915F914F913F9156
S11326402F910F900FBE0F901F90189580E00E945D
S11326509312682F636080E00E94811285B18260CA
S113266085B98BE291E00197F1F700C000000E9468
S1132670FA110E940912089585B18D7F85B98FE002
S113268097E20197F1F700C000006AE080E00E9441
S113269081128FE097E20197F1F700C0000062E039
S11326A081E00E94811262E082E00E94811261E076
S11326B083E00E9481126FE584E00E9481120E94EF
S11326C0181260E08DE10E94811260E08CE10E94AA
S11326D0811260E787E00E9481126CE485E00E9429
S11326E0811266E086E00E94811243E066E171E0B7
S11326F080E10E94541243E066E171E08BE00E94A5
S1132700541265E082E10E9481120E94261308950A
S11327109DEC899F912D112496959695969520E18F
S1132720929FA0011124990F292F220F220F920F9B
S1132730891B842B0895982F92959F70990F292FA8
S1132740220F220F920F8F70890F08950E948B140D
S113275080ED0E9497148EE00E94971480E20E94FC
S1132760971488E00E9497140E94931408950E947D
S11327708B1480ED0E9497148091FE07833099F1A9
S113278028F4813061F08230E1F0BEC0853009F474
S113279098C008F484C0863009F4A5C0B5C082E0AE
S11327A00E9497148091F707873128F40E948813B8
S11327B00E949714A9C080E00E9488130E94971475
S11327C0A3C081E00E949714809103088B3328F4FE
S11327D00E9488130E94971497C080E00E94881377
S11327E00E94971491C084E00E9497148091F3078B
S11327F0823011F580910C08837079F4809110086F
S11328008D3128F40E9488130E9497147DC081E0C2
S11328100E9488130E94971477C0809110088C310D
S113282028F40E9488130E9497146EC081E00E94CD
S113283088130E94971468C021E0843009F020E0D6
S113284091E0863009F090E0292B91E0893009F07D
S113285090E031E08B3009F030E0922B11F4332317
S113286079F0809110088E3128F40E9488130E9418
S113287097144AC081E00E9488130E94971444C0B0
S1132880809110088F3128F40E9488130E949714B5
S11328903BC081E00E9488130E94971435C085E0F4
S11328A00E9497148091F3078C3028F40E948813B7
S11328B00E94971429C081E00E9488130E949714F3
S11328C023C086E00E94971480910C08833628F474
S11328D00E9488130E94971417C081E00E948813F5
S11328E00E94971411C083E00E94971480910E08EF
S11328F0873028F40E9488130E94971405C081E051
S11329000E9488130E9497140E949314089580E2F1
S11329108093B800089584EA8093BC008091BC0041
S11329208823E4F7089584E98093BC000895809394
S1132930BB0084E88093BC008091BC008823E4F74A
S1132940089584EC8093BC008091BC008823E4F754
S11329508091BB00089584E88093BC008091BC0002
S11329608823E4F78091BB0008959093C500809379
S1132970C400E1ECF0E088E180838081806880839A
S1132980E0ECF0E0808182608083E2ECF0E0808122
S11329908E6080830895DC0180E00BC09091C000BC
S11329A095FFFCCFFD01E20FF31F90819093C600C9
S11329B08F5F282F30E0FD0101900020E9F7319767
S11329C0EA1BFB0B2E173F0748F30895CF93DF93C1
S11329D0EC0181E00E94C9070E940D0C29E831E056
S11329E041E060E08EE190E00E946B0B809128034F
S11329F083781CF481508C6F8F5F813061F11CF4FB
S1132A00882341F08AC0823009F446C0833009F437
S1132A1064C083C026E931E041E062E08FE090E0E9
S1132A200E946B0B28EA31E040E063E08FE090E025
S1132A300E946B0B2AEB31E040E064E08FE090E011
S1132A400E946B0B22EC31E040E065E08FE090E007
S1132A500E946B0B62C026E931E040E062E08FE047
S1132A6090E00E946B0B28EA31E041E063E08FE0E4
S1132A7090E00E946B0B2AEB31E040E064E08FE0D1
S1132A8090E00E946B0B22EC31E040E065E08FE0C7
S1132A9090E00E946B0B41C026E931E040E062E027
S1132AA08FE090E00E946B0B28EA31E040E063E0A5
S1132AB08FE090E00E946B0B2AEB31E041E064E090
S1132AC08FE090E00E946B0B22EC31E040E065E087
S1132AD08FE090E00E946B0B20C026E931E040E0DB
S1132AE062E08FE090E00E946B0B28EA31E040E066
S1132AF063E08FE090E00E946B0B2AEB31E040E052
S1132B0064E08FE090E00E946B0B22EC31E041E046
S1132B1065E08FE090E00E946B0BCE010E94E80715
S1132B2080E00E94C907DF91CF910895CF93DF938E
S1132B30EC0181E00E94C9070E940D0C2BEC31E0EE
S1132B4041E060E089E190E00E946B0B29ED31E007
S1132B5040E061E082E090E00E946B0B2EEE31E0F9
S1132B6040E062E080E090E00E946B0B23E032E002
S1132B7040E063E080E090E00E946B0B28E132E0EB
S1132B8040E064E080E090E00E946B0B2EE232E0D3
S1132B9040E065E080E090E00E946B0B23E432E0CB
S1132BA040E066E080E090E00E946B0B28E532E0B4
S1132BB041E067E089E190E00E946B0BCE010E9446
S1132BC0E80780E00E94C907DF91CF910895CF9371
S1132BD0DF93EC0181E00E94C9070E940D0C25E6F9
S1132BE032E041E060E085E090E00E946B0B29E771
S1132BF032E040E061E080E090E00E946B0B2DE861
S1132C0032E040E062E080E090E00E946B0B22E062
S1132C1031E040E063E080E090E00E946B0B28E547
S1132C2032E041E067E089E190E00E946B0BCE0165
S1132C300E94E80780E00E94C907DF91CF910895C0
S1132C4045E050E065E370E08EE690E00E94040DFC
S1132C502BE24EE66DE28EE60E94180C25E348E76F
S1132C6065E386E70E94180C25E344E665E386E6FF
S1132C700E94180C2FE34EE66DE38EE60E94180CBA
S1132C802EE246E660E388E60E94180C2EE246E750
S1132C9060E384E70E94180C2CE346E76AE384E7C8
S1132CA00E94180C2CE346E66AE388E60E94180C9E
S1132CB0089545E065E38EE60E94780C2BE24EE62B
S1132CC06DE28EE60E94180C25E348E765E386E78B
S1132CD00E94180C2FE34EE66DE38EE60E94180C5A
S1132CE02EE246E760E384E70E94180C2CE346E7F3
S1132CF06AE384E70E94180C29E34AE669E38AE55B
S1132D000E94180C68E389E50E94C60667E388E51B
S1132D100E94C60666E387E50E94C60665E387E56A
S1132D200E94C60664E387E50E94C60663E388E55D
S1132D300E94C60662E389E50E94C60662E38AE54C
S1132D400E94C60662E38BE50E94C60662E38CE538
S1132D500E94C60663E38EE50E94C60662E38DE523
S1132D600E94C60661E38CE50E94C60660E38CE51A
S1132D700E94C6066FE28CE50E94C6066EE28CE5F0
S1132D800E94C6066DE28DE50E94C6066CE28EE5E1
S1132D900E94C6066CE28FE50E94C6066CE280E6DD
S1132DA00E94C6066CE281E60E94C6066CE282E6D8
S1132DB00E94C6066CE283E60E94C6066CE284E6C4
S1132DC00E94C6066DE285E60E94C6066EE286E6AD
S1132DD00E94C6066FE286E60E94C60660E386E6A7
S1132DE00E94C60661E385E60E94C60660E386E6A5
S1132DF00E94C60660E387E60E94C60660E388E692
S1132E000E94C60660E389E60E94C60668E38BE674
S1132E100E94C60667E38CE60E94C60666E38DE65A
S1132E200E94C60665E38DE60E94C60664E38DE64D
S1132E300E94C60663E38DE60E94C60662E38CE642
S1132E400E94C60661E38BE60E94C60660E38AE63A
S1132E500E94C60662E38AE60E94E70663E389E607
S1132E600E94E70664E389E60E94E70665E389E6D3
S1132E700E94E70666E389E60E94E70667E389E6BF
S1132E800E94E70668E38AE60E94E70660E38AE6B2
S1132E900E94C60660E389E60E94C60669E38CE6E2
S1132EA00E94C60669E38DE60E94C60669E38EE6C3
S1132EB00E94C60669E38FE60E94C60669E380E7BE
S1132EC00E94C60668E38DE60E94C60668E38EE6A5
S1132ED00E94C60668E38FE60E94C60668E380E7A0
S1132EE00E94C60668E381E70E94C60667E38EE691
S1132EF00E94C60667E38FE60E94C60667E380E782
S1132F000E94C60667E381E70E94C60667E382E77C
S1132F100E94C60666E38FE60E94C60666E380E763
S1132F200E94C60666E381E70E94C60666E382E75E
S1132F300E94C60665E38FE60E94C60665E380E745
S1132F400E94C60665E381E70E94C60665E382E740
S1132F500E94C60664E38FE60E94C60664E380E727
S1132F600E94C60664E381E70E94C60664E382E722
S1132F700E94C60663E38FE60E94C60663E380E709
S1132F800E94C60663E381E70E94C60663E382E704
S1132F900E94C60662E38EE60E94C60662E38FE6DE
S1132FA00E94C60662E380E70E94C60662E381E7E8
S1132FB00E94C60661E38DE60E94C60661E38EE6C2
S1132FC00E94C60661E38FE60E94C60661E380E7BD
S1132FD00E94C606089529E34AE669E38AE50E9449
S1132FE0180C68E389E50E94C60667E388E50E9439
S1132FF0C60666E387E50E94C60665E387E50E9488
S1133000C60664E387E50E94C60663E388E50E947A
S1133010C60662E389E50E94C60662E38AE50E9469
S1133020C60662E38BE50E94C60662E38CE50E9455
S1133030C60663E38EE50E94C60662E38DE50E9440
S1133040C60661E38CE50E94C60660E38CE50E9437
S1133050C6066FE28CE50E94C6066EE28CE50E940D
S1133060C6066DE28DE50E94C6066CE28EE50E94FE
S1133070C6066CE28FE50E94C6066CE280E60E94FA
S1133080C6066CE281E60E94C6066CE282E60E94F5
S1133090C6066CE283E60E94C6066CE284E60E94E1
S11330A0C6066DE285E60E94C6066EE286E60E94CA
S11330B0C6066FE286E60E94C60660E386E60E94C4
S11330C0C60661E385E60E94C60660E386E60E94C2
S11330D0C60660E387E60E94C60660E388E60E94AF
S11330E0C60660E389E60E94C60668E38BE60E9492
S11330F0C60667E38CE60E94C60666E38DE60E9478
S1133100C60665E38DE60E94C60664E38DE60E946A
S1133110C60663E38DE60E94C60662E38CE60E945F
S1133120C60661E38BE60E94C60660E38AE60E9457
S1133130C60627E349E767E38EE60E94180C66E3B8
S11331408AE70E94C60665E38AE70E94C60664E32E
S11331508AE70E94C60663E38AE70E94C60662E322
S113316089E70E94C60661E388E70E94C60661E318
S113317087E70E94C60661E386E70E94C60662E30B
S113318085E70E94C60660E386E70E94C6066FE2F2
S113319086E70E94C6066EE285E70E94C6066EE2D6
S11331A084E70E94C6066EE283E70E94C6066EE2CA
S11331B082E70E94C6066FE281E70E94C60660E3CA
S11331C081E70E94C60661E381E70E94C60662E3C6
S11331D082E70E94C60661E380E70E94C60661E3B7
S11331E08FE60E94C60662E38EE60E94C606089534
S11331F029E34AE669E38AE50E94180C68E389E555
S11332000E94C60667E388E50E94C60666E387E572
S11332100E94C60665E387E50E94C60664E387E567
S11332200E94C60663E388E50E94C60662E389E558
S11332300E94C60662E38AE50E94C60662E38BE545
S11332400E94C60662E38CE50E94C60663E38EE52F
S11332500E94C60662E38DE50E94C60661E38CE522
S11332600E94C60660E38CE50E94C6066FE28CE508
S11332700E94C6066EE28CE50E94C6066DE28DE5EC
S11332800E94C6066CE28EE50E94C6066CE28FE5DB
S11332900E94C6066CE280E60E94C6066CE281E6E5
S11332A00E94C6066CE282E60E94C6066CE283E6D1
S11332B00E94C6066CE284E60E94C6066DE285E6BC
S11332C00E94C6066EE286E60E94C6066FE286E6A5
S11332D00E94C60660E386E60E94C60661E385E6B0
S11332E00E94C60660E386E60E94C60660E387E69F
S11332F00E94C60660E388E60E94C60660E389E68B
S11333000E94C60668E38BE60E94C60667E38CE665
S11333100E94C60666E38DE60E94C60665E38DE656
S11333200E94C60664E38DE60E94C60663E38DE64A
S11333300E94C60662E38CE60E94C60661E38BE641
S11333400E94C60660E38AE60E94C60627E349E7B0
S113335067E38EE60E94180C66E38AE70E94C606BD
S113336065E38AE70E94C60664E38AE70E94C6060C
S113337063E38AE70E94C60662E389E70E94C60601
S113338061E388E70E94C60661E387E70E94C606F8
S113339061E386E70E94C60662E385E70E94C606EB
S11333A060E386E70E94C6066FE286E70E94C606CF
S11333B06EE285E70E94C6066EE284E70E94C606B6
S11333C06EE283E70E94C6066EE282E70E94C606AA
S11333D06FE281E70E94C60660E381E70E94C606A9
S11333E061E381E70E94C60662E382E70E94C606A3
S11333F061E380E70E94C60661E38FE60E94C60689
S113340062E38EE60E94C6062DE349E56BE38BE595
S11334100E94180C2DE34CE56BE38EE50E94180C1A
S11334202DE34FE56BE381E60E94180C2DE342E6A1
S11334306BE384E60E94180C2DE345E66BE387E614
S11334400E94180C2DE348E66BE38AE60E94180CF0
S11334502AE34EE669E38FE60E94180C2AE341E76B
S113346069E382E70E94180C2AE344E769E385E7ED
S11334700E94180C2AE347E769E388E70E94180CC6
S1133480089549E064E38BE00E94780C6CE28BE0E1
S11334900E94E7066CE28AE00E94E7066CE289E09B
S11334A00E94E7066CE288E00E94E7066CE28CE08A
S11334B00E94E7066CE28DE00E94E7066CE28EE073
S11334C00E94E7066BE289E00E94C6066CE289E08E
S11334D00E94C6066DE289E00E94C6066AE289E09F
S11334E00E94C60669E289E00E94C6066AE28AE092
S11334F00E94C6066BE28BE00E94C6066CE28CE07A
S11335000E94C6066BE28DE00E94C6066CE28DE066
S11335100E94C6066DE28DE00E94C6066AE28DE056
S11335200E94C60669E28DE00E94C6066DE38BE048
S11335300E94E7066DE38AE00E94E7066DE389E0F6
S11335400E94E7066DE388E00E94E7066DE38CE0E5
S11335500E94E7066DE38DE00E94E7066DE38EE0CE
S11335600E94E7066CE389E00E94C6066FE389E0E7
S11335700E94C6066DE38AE00E94C6066BE38AE0F9
S11335800E94C6066FE38AE00E94C6066DE38BE0E4
S11335900E94C6066BE38BE00E94C6066FE38BE0D5
S11335A00E94C6066DE38CE00E94C6066BE38CE0C5
S11335B00E94C6066FE38CE00E94C6066EE38DE0AF
S11335C00E94C6066BE38DE00E94C60664E384E1B4
S11335D00E94E70665E384E10E94E70666E384E16E
S11335E00E94E70667E383E10E94E70660E383E164
S11335F00E94C60663E384E10E94E70662E384E175
S11336000E94E70664E384E10E94C60662E384E163
S11336100E94C60666E384E10E94C60664E385E16F
S11336200E94C60662E385E10E94C60666E385E160
S11336300E94C60664E386E10E94C60662E386E150
S11336400E94C60666E386E10E94C60664E383E13F
S11336500E94C60662E383E10E94C60666E383E134
S11336600E94C60664E382E10E94C60665E382E125
S11336700E94C60666E382E10E94C60663E382E115
S11336800E94C60662E382E10E94C60664E382E009
S11336900E94E70665E382E00E94E70666E382E0B3
S11336A00E94E70667E383E00E94E70660E383E0A5
S11336B00E94C60663E382E00E94E70662E382E0BA
S11336C00E94E70664E382E00E94C60665E382E0A6
S11336D00E94C60666E383E00E94C60664E384E0B3
S11336E00E94C60665E384E00E94C60663E384E0A4
S11336F00E94C60662E384E00E94C60666E381E097
S11337000E94C60664E380E00E94C60665E380E08A
S11337100E94C60663E380E00E94C60662E380E07E
S11337200E94C60664E38BE00E94C60660EA72E06B
S113373089E893E00E94DE2E892B09F041C065E3FD
S11337408AE00E94C60666E38AE00E94C60665E334
S11337508CE00E94C60666E38CE00E94C60663E322
S11337608BE00E94C60662E38BE00E94C60661E31A
S11337708BE00E94C60660E38BE00E94C6066FE2FF
S11337808BE00E94C6066EE28BE00E94C6066FE2E2
S11337908AE00E94C6066FE28CE00E94C60660E3DF
S11337A08AE00E94C60660E389E00E94C60660E3E0
S11337B08CE00E94C60660E38DE00E94C606089570
S11337C062EA72E089E893E00E94DE2E892B09F018
S11337D041C062E38AE00E94C60663E38AE00E9475
S11337E0C60662E38CE00E94C60663E38CE00E9496
S11337F0C60665E38BE00E94C60666E38BE00E9482
S1133800C60667E38BE00E94C60668E38BE00E946D
S1133810C60669E38BE00E94C6066AE38BE00E9459
S1133820C60669E38AE00E94C60669E38CE00E944A
S1133830C60668E38AE00E94C60668E389E00E943F
S1133840C60668E38CE00E94C60668E38DE00E9429
S1133850C606089566EA72E089E893E00E94DE2EC7
S1133860892B09F041C063E389E00E94C60663E343
S11338708AE00E94C60665E389E00E94C60665E305
S11338808AE00E94C60664E38CE00E94C60664E3F4
S11338908DE00E94C60664E38EE00E94C60664E3DF
S11338A08FE00E94C60664E380E10E94C60664E3DA
S11338B081E10E94C60663E380E10E94C60665E3D7
S11338C080E10E94C60665E38FE00E94C60666E3B7
S11338D08FE00E94C60663E38FE00E94C60662E39F
S11338E08FE00E94C60608956AEA72E089E893E0D0
S11338F00E94DE2E892B09F041C063E38DE00E9413
S1133900C60663E38CE00E94C60665E38DE00E9470
S1133910C60665E38CE00E94C60664E38AE00E9462
S1133920C60664E389E00E94C60664E388E00E9458
S1133930C60664E387E00E94C60664E386E00E944C
S1133940C60664E385E00E94C60663E386E00E943F
S1133950C60665E386E00E94C60665E387E00E942A
S1133960C60666E387E00E94C60663E387E00E941A
S1133970C60662E387E00E94C606089564EA72E020
S113398089E893E00E94DE2E892BB9F563E38AE08F
S11339900E94C60664E389E00E94C60665E38CE0E3
S11339A00E94C60666E38BE00E94C6062FE240E151
S11339B064E38BE00E94180C6FE28FE00E94C6065D
S11339C06FE28EE00E94C6066FE28DE00E94C6069A
S11339D060E38EE00E94C60660E380E10E94C606B2
S11339E061E380E10E94C60661E38FE00E94C6069F
S11339F062E380E10E94C606089568EA72E089E8FD
S1133A0093E00E94DE2E892BB9F563E38CE00E94DB
S1133A10C60664E38DE00E94C60665E38AE00E9460
S1133A20C60666E38BE00E94C6062FE246E064E326
S1133A308BE00E94180C6FE287E00E94C6066FE2DA
S1133A4088E00E94C6066FE289E00E94C60660E331
S1133A5088E00E94C60660E386E00E94C60661E331
S1133A6086E00E94C60662E386E00E94C60661E321
S1133A7087E00E94C60608956CEA72E089E893E044
S1133A800E94DE2E892BB9F562E38BE00E94C60604
S1133A9063E38CE00E94C60665E38AE00E94C606E2
S1133AA064E389E00E94C60629E340E164E38BE015
S1133AB00E94180C68E380E10E94C60669E38FE067
S1133AC00E94C60667E38FE00E94C60667E380E1B2
S1133AD00E94C60666E380E10E94C60668E38EE0A3
S1133AE00E94C60669E38EE00E94C60669E38DE083
S1133AF00E94C606089560EB72E089E893E00E9494
S1133B00DE2E892BB1F562E38BE00E94C60663E3E7
S1133B108AE00E94C60664E38DE00E94C60665E35F
S1133B208CE00E94C60629E346E064E38BE00E9431
S1133B30180C68E386E00E94C60667E386E00E94EC
S1133B40C60667E387E00E94C60666E386E00E9435
S1133B50C60669E387E00E94C60669E388E00E941E
S1133B60C60668E388E00E94C60669E389E00E940D
S1133B70C606089580910D088A3098F41F928F9399
S1133B8084EB92E09F938F938FEF97E09F938F93B3
S1133B900E942E2F0F900F900F900F900F900F9068
S1133BA012C01F928F9385EB92E09F938F938FEFB8
S1133BB097E09F938F930E942E2F0F900F900F905A
S1133BC00F900F900F90809103088A3098F41F9201
S1133BD08F9384EB92E09F938F9382E198E09F937D
S1133BE08F930E942E2F0F900F900F900F900F9095
S1133BF00F9012C01F928F9385EB92E09F938F9347
S1133C0082E198E09F938F930E942E2F0F900F9044
S1133C100F900F900F900F908091F7078A3098F4CF
S1133C201F928F9384EB92E09F938F9386E198E0A9
S1133C309F938F930E942E2F0F900F900F900F90B1
S1133C400F900F9012C01F928F9385EB92E09F9379
S1133C508F9386E198E09F938F930E942E2F0F906D
S1133C600F900F900F900F900F90809110088A3052
S1133C7098F41F928F9384EB92E09F938F9388E044
S1133C8098E09F938F930E942E2F0F900F900F9088
S1133C900F900F900F9012C01F928F9385EB92E0BC
S1133CA09F938F9388E098E09F938F930E942E2F89
S1133CB00F900F900F900F900F900F9080910C0821
S1133CC08A3098F41F928F9384EB92E09F938F93A2
S1133CD084E098E09F938F930E942E2F0F900F9073
S1133CE00F900F900F900F9012C01F928F9385EB3F
S1133CF092E09F938F9384E098E09F938F930E9428
S1133D002E2F0F900F900F900F900F900F90E09127
S1133D100E088E2F90E0FC013197E730F105D8F5BD
S1133D20E55CFF4F0C94952DEFEEF7E08FEC9DEEE4
S1133D309183808312822FC0EFEEF7E082EC92EF42
S1133D4091838083128227C0EFEEF7E081ED90EF3C
S1133D509183808312821FC0EFEEF7E087ED92EF2C
S1133D6091838083128217C0EFEEF7E08FEC92EF1D
S1133D709183808312820FC0EFEEF7E081ED91EE24
S1133D8091838083128207C0EFEEF7E082EC91EF1B
S1133D90918380831282E091F3078E2F90E0FC01DF
S1133DA03197EC30F10508F087C0EE5BFF4F0C94BF
S1133DB0952DE8EFF7E08FED9DEE9183808382EE01
S1133DC090E0938382830895E8EFF7E084ED95EE25
S1133DD09183808382EE90E0938382830895E8EF59
S1133DE0F7E08CEC90EE9183808380EF90E09383F6
S1133DF082830895E8EFF7E080EC9FEE918380835F
S1133E0080EF90E0938382830895E8EFF7E08CECF1
S1133E1090EE9183808389EE90E09383828308956A
S1133E20E8EFF7E088EC9EEF918380838DEE90E0DD
S1133E30938382830895E8EFF7E088EC9EEF918303
S1133E4080838BEE90E0938382830895E8EFF7E01C
S1133E5080EC92EE9183808383EE90E0938382835F
S1133E600895E8EFF7E081ED95EE918380838DEE80
S1133E7090E0938382830895E8EFF7E08EEC9AEE66
S1133E809183808382EF90E0938382830895E8EFA7
S1133E90F7E08DEC9EEE918380838FEF90E0938327
S1133EA082830895E8EFF7E084EC95EE91838083B4
S1133EB08AEE90E0938382830895CF93DF93EC019D
S1133EC00E94BA1D81E00E94C9070E940D0C28EBD4
S1133ED032E041E060E08FE090E00E946B0B909153
S1133EE0280383E99802812D1124890F85958595EE
S1133EF0E82F97FDE3958E2F880F880F880F8E1B70
S1133F00E92FE81B8E2FEE0F990BAA0BBB0B873002
S1133F10910508F0C3C1FC01E25BFF4F0C94952DA1
S1133F2080912A03882321F0809129038093F70745
S1133F3026E138E041E062E080E290E00E94300B4C
S1133F4022E138E040E062E08EE390E00E94300B32
S1133F502FEE37E040E065E08CE190E00E946B0BCF
S1133F6028E038E040E065E081E390E00E946B0BDC
S1133F7028EF37E040E065E086E490E00E946B0BB8
S1133F8024E038E040E065E08FE590E00E946B0BB0
S1133F9028E532E040E067E089E190E00E946B0BA5
S1133FA07DC180912A03882321F080912903809385
S1133FB0030826E138E040E062E080E290E00E94FD
S1133FC0300B22E138E041E062E08EE390E00E94B1
S1133FD0300B2FEE37E040E065E08CE190E00E948A
S1133FE06B0B28E038E040E065E081E390E00E945C
S1133FF06B0B28EF37E040E065E086E490E00E9438
S11340006B0B24E038E040E065E08FE590E00E942F
S11340106B0B28E532E040E067E089E190E00E9424
S11340206B0B3CC180912A03882321F080912903E2
S113403080930E0826E138E040E062E080E290E000
S11340400E94300B22E138E040E062E08EE390E031
S11340500E94300B2FEE37E041E065E08CE190E008
S11340600E946B0B28E038E040E065E081E390E0DB
S11340700E946B0B28EF37E040E065E086E490E0B7
S11340800E946B0B24E038E040E065E08FE590E0AF
S11340900E946B0B28E532E040E067E089E190E0A4
S11340A00E946B0BFBC080912A03882321F080912E
S11340B029038093100826E138E040E062E080E2C2
S11340C090E00E94300B22E138E040E062E08EE3B1
S11340D090E00E94300B2FEE37E040E065E08CE189
S11340E090E00E946B0B28E038E041E065E081E35A
S11340F090E00E946B0B28EF37E040E065E086E437
S113410090E00E946B0B24E038E040E065E08FE52E
S113411090E00E946B0B28E532E040E067E089E123
S113412090E00E946B0BBAC080912A03882321F08F
S1134130809129038093F30726E138E040E062E0B0
S113414080E290E00E94300B22E138E040E062E03F
S11341508EE390E00E94300B2FEE37E040E065E004
S11341608CE190E00E946B0B28E038E040E065E0D1
S113417081E390E00E946B0B28EF37E041E065E0BB
S113418086E490E00E946B0B24E038E040E065E0B8
S11341908FE590E00E946B0B28E532E040E067E099
S11341A089E190E00E946B0B79C080912A038823F7
S11341B021F08091290380930C0826E138E040E047
S11341C062E080E290E00E94300B22E138E040E0BF
S11341D062E08EE390E00E94300B2FEE37E040E087
S11341E065E08CE190E00E946B0B28E038E040E051
S11341F065E081E390E00E946B0B28EF37E040E03C
S113420065E086E490E00E946B0B24E038E041E036
S113421065E08FE590E00E946B0B28E532E040E01A
S113422067E089E190E00E946B0B38C026E138E03A
S113423040E062E080E290E00E94300B22E138E04E
S113424040E062E08EE390E00E94300B2FEE37E016
S113425040E065E08CE190E00E946B0B28E038E0E0
S113426040E065E081E390E00E946B0B28EF37E0CB
S113427040E065E086E490E00E946B0B24E038E0C7
S113428040E065E08FE590E00E946B0B28E532E0AA
S113429041E067E089E190E00E946B0B2AEC32E098
S11342A040E063E087E390E00E946B0B2CEC32E08B
S11342B040E063E085E590E00E946B0B20ED32E086
S11342C040E065E08AE290E00E946B0B22ED32E070
S11342D040E065E08FE390E00E946B0B22ED32E05A
S11342E040E065E089E590E00E946B0BCE010E94FE
S11342F0E80780E00E94C907DF91CF9108950E94EA
S11343008B1480ED0E94971480E00E9497140E9401
S113431093140E948B1481ED0E9497140E94A1149F
S11343200E949B1380930D080E94A1140E949B136A
S1134330809303080E94A1140E949B138093F707A3
S11343400E94A1140E949B1380930E080E94A11442
S11343500E949B13809310080E94A1140E949B1337
S11343608093F3070E94AB140E949B1380930C0864
S11343700E9493140E94BA1D0895CF93DF9300D036
S1134380CDB7DEB7FC0120812223A1F09E012F5F6F
S11343903F4F3F932F9325EB32E03F932F939F930F
S11343A08F930E94502F0F900F900F900F900F90AB
S11343B00F9002C01A82198269817A81CB01880F19
S11343C0991F680F791F072E000C880B990B0E9408
S11343D0A5282DEC3CEC4CE150E40E945A2920E045
S11343E030E040EA55E40E94FB270F900F90DF91E4
S11343F0CF910895CF93DF9300D0CDB7DEB7FC0102
S113440020812223A1F09E012F5F3F4F3F932F93E2
S113441025EB32E03F932F939F938F930E94502F6D
S11344200F900F900F900F900F900F9002C01A8270
S1134430198269817A81072E000C880B990B0E94DE
S1134440A5282DEC3CEC4CE150E40E945A2920E0D4
S113445030E040E450E40E945A2920E030E040E893
S11344605AE30E945A290F900F90DF91CF9108953B
S11344702CE148E26CE182E20E94180C2BE142E25A
S113448063E182E20E94180C2BE148E263E188E2D6
S11344900E94180C23E144E263E182E20E94180CBA
S11344A023E148E263E186E20E94180C23E144E23E
S11344B062E184E20E94180C23E146E262E186E2B2
S11344C00E94180C22E146E262E184E20E94180C88
S11344D084E893E00E94FA2120E030E040E850E4D0
S11344E00E94552988232CF12AE146E26AE184E2FC
S11344F00E94180C29E146E269E184E20E94180C4A
S113450028E146E268E184E20E94180C27E146E2D1
S113451067E184E20E94180C26E146E266E184E247
S11345200E94180C25E146E265E184E20E94180C21
S1134530089584E893E00E94FA212AE939E949E7D9
S113454050E40E94552988235CF184E893E00E949A
S1134550FA2120E030E040E850E40E94F627882366
S1134560FCF42AE146E26AE184E20E94180C29E1A3
S113457046E269E184E20E94180C28E146E268E11F
S113458084E20E94180C27E146E267E184E20E947B
S1134590180C26E146E266E184E20E94180C0895B4
S11345A084E893E00E94FA2123E333E343E750E4F1
S11345B00E94552988232CF184E893E00E94FA2173
S11345C02AE939E949E750E40E94F6278823CCF424
S11345D02AE146E26AE184E20E94180C29E146E2FB
S11345E069E184E20E94180C28E146E268E184E271
S11345F00E94180C27E146E267E184E20E94180C4D
S1134600089584E893E00E94FA212DEC3CEC4CE6FA
S113461050E40E9455298823FCF084E893E00E942A
S1134620FA2123E333E343E750E40E94F627882387
S11346309CF42AE146E26AE184E20E94180C29E132
S113464046E269E184E20E94180C28E146E268E14E
S113465084E20E94180C089584E893E00E94FA21F1
S113466026E636E646E650E40E9455298823CCF037
S113467084E893E00E94FA212DEC3CEC4CE650E4F3
S11346800E94F62788236CF42AE146E26AE184E278
S11346900E94180C29E146E269E184E20E94180CA8
S11346A0089584E893E00E94FA2120E030E040E697
S11346B050E40E945529882394F084E893E00E94F2
S11346C0FA2126E636E646E650E40E94F6278823D9
S11346D034F42AE146E26AE184E20E94180C089567
S11346E0CF93DF9300D0CDB7DEB7FC012081222326
S11346F0A1F09E012F5F3F4F3F932F9325EB32E0B4
S11347003F932F939F938F930E94502F0F900F905E
S11347100F900F900F900F9002C01A821982698136
S11347207A81072E000C880B990B0E94A52823EF91
S113473030EB40E15FE30E945A2920E030E040E89A
S11347405EE30E945A290F900F90DF91CF91089554
S11347500F931F93CF93DF938C0181E00E94C907CD
S11347600E940D0C0E947F2182E198E09F938F9319
S113477086E198E09F938F9384ED92E09F938F93CB
S113478085EE97E09F938F930E942E2F25EE37E0BE
S113479040E060E082E090E00E94300B2FEF37E0D1
S11347A040E060E08FE390E00E946B0B2FEE37E077
S11347B040E061E08DE390E00E946B0B20ED32E07D
S11347C040E061E089E490E00E946B0B28E038E06F
S11347D040E061E08CE490E00E946B0B22ED32E05B
S11347E040E061E088E590E00E946B0B28EF37E041
S11347F040E061E08DE590E00E946B0B22ED32E039
S113480040E061E08FE690E00E946B0B24E038E02A
S113481040E061E084E790E00E946B0B66E082E593
S11348200E94C60665E082E50E94C60664E082E551
S11348300E94C60663E082E50E94C60662E082E545
S11348400E94C60661E082E50E94C60660E082E539
S11348500E94C60660E083E50E94C60660E084E527
S11348600E94C60660E085E50E94C60660E081E518
S11348700E94C60660E080E50E94C60660E08FE400
S11348800E94C60661E080E50E94C60662E081E5FA
S11348900E94C60663E082E50E94C60661E084E5E4
S11348A00E94C60662E083E50E94C6062DB73EB7A5
S11348B0285F3F4F0FB6F8943EBF0FBE2DBF8091C7
S11348C0AC07833011F128F4813059F0823081F043
S11348D08BC0853009F445C058F1863009F460C0B6
S11348E083C026E044E566E084E50E94180C7CC0A1
S11348F026E044E566E084E50E94180C25E046E5E0
S113490066E086E50E94180C6FC026E044E566E088
S113491084E50E94180C25E046E566E086E50E94E1
S1134920180C24E048E566E088E50E94180C5CC099
S113493026E044E566E084E50E94180C25E046E59F
S113494066E086E50E94180C24E048E566E088E508
S11349500E94180C23E04AE566E08AE50E94180CE0
S113496043C026E044E566E084E50E94180C25E097
S113497046E566E086E50E94180C24E048E566E01A
S113498088E50E94180C23E04AE566E08AE50E9467
S1134990180C22E04CE566E08CE50E94180C24C05B
S11349A026E044E566E084E50E94180C25E046E52F
S11349B066E086E50E94180C24E048E566E088E598
S11349C00E94180C23E04AE566E08AE50E94180C70
S11349D022E04CE566E08CE50E94180C21E04EE5EF
S11349E066E08EE50E94180C8FE793E00E94BD21DB
S11349F09F938F937F936F93CAEDD2E0DF93CF930E
S1134A0085E793E09F938F930E942E2F2FED32E042
S1134A1040E064E08EE190E00E946B0B22EE32E015
S1134A2040E064E08AE390E00E946B0B27EA33E005
S1134A3040E063E081E090E00E94920A22EA33E0E1
S1134A4040E063E08BE290E00E94920A84E893E005
S1134A500E94FA219F938F937F936F93DF93CF9359
S1134A608AE793E09F938F930E942E2F2AE733E0E7
S1134A7040E062E08CE290E00E94E10A83E993E086
S1134A800E9470239F938F937F936F93DF93CF93B1
S1134A908EE893E09F938F930E942E2F2EE833E0AD
S1134AA040E065E08AE190E00E94E10A24EE32E011
S1134AB040E065E08DE290E00E946B0B28EE32E06E
S1134AC040E066E08EE190E00E946B0B24E348E155
S1134AD064E38BE10E94180C2BE348E164E388E172
S1134AE00E94180C2BE34CE16BE388E10E94180C44
S1134AF06AE38BE10E94C6066CE38BE10E94C60662
S1134B0069E38AE10E94C6066DE38AE10E94C60653
S1134B108FE793E00E94BD212DB73EB7285E3F4F3B
S1134B200FB6F8943EBF0FBE2DBF26E636E646E626
S1134B305FE30E94552988234CF02FEE32E040E0D9
S1134B4067E08EE190E00E946B0B61C08FE793E019
S1134B500E94BD2126E636E646E65FE30E94F6277C
S1134B608823ACF48FE793E00E94BD2120E030E07D
S1134B7040E05FE30E94552988234CF029EF32E09E
S1134B8040E067E08EE190E00E946B0B40C08FE74D
S1134B9093E00E94BD2120E030E040E05FE30E940A
S1134BA0F6278823ACF48FE793E00E94BD2120E030
S1134BB030E040E85EE30E94552988234CF020E071
S1134BC033E040E067E08EE190E00E946B0B1FC091
S1134BD08FE793E00E94BD2120E030E040E85EE3EF
S1134BE00E94F62788239CF48FE793E00E94BD215E
S1134BF020E030E0A9010E945529181644F42AE067
S1134C0033E040E067E08EE190E00E946B0B8CE2C1
S1134C1093E00E946506882309F446C0ECE2F3E0C1
S1134C20C281D0E0DC2FCC278181C82BBE010D2EA0
S1134C30000C880B990B0E94A52820E030E040E28C
S1134C4051E40E94FB276093BF077093C0078093D1
S1134C50C1079093C207DD235CF4DC01CB01B0589B
S1134C608093BF079093C007A093C107B093C20776
S1134C70ECE2F3E0648170E0762F66278381682B91
S1134C80072E000C880B990B0E94A52820E030E029
S1134C9040E251E40E94FB276093BB077093BC077A
S1134CA08093BD079093BE078091C2078F93809134
S1134CB0C1078F938091C0078F938091BF078F9313
S1134CC085E391E09F938F938DE993E09F938F9376
S1134CD00E942E2F6091BB077091BC078091BD0785
S1134CE09091BE070E946D287F936F93C5EBD2E02D
S1134CF0DF93CF9388E993E09F938F930E942E2FA5
S1134D000E94C9040E94A5282FE832EC45EF5BE31A
S1134D100E945A290E946D286093310370933203D4
S1134D207F936F93DF93CF9383E393E09F938F936A
S1134D300E942E2F2FED32E040E064E08FE590E0FA
S1134D400E946B0B2DE933E040E063E082E490E0E5
S1134D500E94920A22EE32E040E064E08BE790E0A9
S1134D600E946B0B28E933E040E063E08CE690E0BE
S1134D700E94920A23E333E040E062E086E590E09B
S1134D800E94E10A22E133E040E062E085E690E03F
S1134D900E946B0B25E133E040E062E082E790E0A3
S1134DA00E946B0B28E133E040E062E082E090E097
S1134DB00E946B0B2EE133E040E062E081E490E07E
S1134DC00E946B0B20E140E860E180E00E94180C37
S1134DD028E140E268E180E00E94180C28E140E20A
S1134DE061E180E20E94180C28E140E061E180E08A
S1134DF00E94180C28E143E568E180E40E94180C45
S1134E0028E143E561E183E50E94180C29E24FE3C0
S1134E1061E18FE30E94180C29E240E869E28FE324
S1134E200E94180C0E9438220E94411A83E993E0E0
S1134E300E9470232DB73EB72C5E3F4F0FB6F894F7
S1134E403EBF0FBE2DBF20E030E0A9010E94F6272F
S1134E5081110FC08FE793E00E94BD2126E636E65C
S1134E6046E65FE30E94552988231CF00E94201621
S1134E7045C083E993E00E94702320E030E040E2E3
S1134E8051E40E94552918161CF40E94EB1736C0F1
S1134E9083E993E00E94702320E030E0A9010E949E
S1134EA0552918167CF48FE793E00E94BD2126E66D
S1134EB036E646E65FE30E94552988231CF00E94EB
S1134EC059161CC08FE793E00E94BD212AE939E9F5
S1134ED049E55FE30E94F627882374F48FE793E0A3
S1134EE00E94BD2120E030E0A9010E945529181636
S1134EF01CF40E94F81802C00E942016C8010E94E7
S1134F00E80780E00E94C907DF91CF911F910F91BC
S1134F1008955058BB27AA270E94A1270C941B2947
S1134F200E940D2938F00E94142920F039F49F3F83
S1134F3019F426F40C940A290EF4E095E7FB0C947A
S1134F400429E92F0E942C2958F3BA176207730722
S1134F508407950720F079F4A6F50C944E290EF4F5
S1134F60E0950B2EBA2FA02D0B01B90190010C0175
S1134F70CA01A0011124FF27591B99F0593F50F48D
S1134F80503E68F11A16F040A22F232F342F4427E5
S1134F90585FF3CF469537952795A795F0405395DD
S1134FA0C9F77EF41F16BA0B620B730B840BBAF0AD
S1134FB09150A1F0FF0FBB1F661F771F881FC2F718
S1134FC00EC0BA0F621F731F841F48F4879577952C
S1134FD06795B795F7959E3F08F0B0CF9395880FE6
S1134FE008F09927EE0F9795879508950E94E02879
S1134FF008F481E008950E940F280C941B290E9454
S1135000142958F00E940D2940F029F45F3F29F03B
S11350100C94042951110C944F290C940A290E94D0
S11350202C2968F39923B1F3552391F3951B550B60
S1135030BB27AA2762177307840738F09F5F5F4F67
S1135040220F331F441FAA1FA9F335D00E2E3AF0A6
S1135050E0E832D091505040E695001CCAF72BD0BE
S1135060FE2F29D0660F771F881FBB1F261737070F
S11350704807AB07B0E809F0BB0B802DBF01FF2741
S113508093585F4F3AF09E3F510578F00C940429F1
S11350900C944F295F3FE4F3983ED4F386957795BB
S11350A06795B795F7959F5FC9F7880F911D9695FA
S11350B0879597F90895E1E0660F771F881FBB1F56
S11350C0621773078407BA0720F0621B730B840B03
S11350D0BA0BEE1F88F7E09508950E94742868942F
S11350E0B1110C944F2908950E94342988F09F57D8
S11350F098F0B92F9927B751B0F0E1F0660F771FF8
S1135100881F991F1AF0BA95C9F714C0B13091F0ED
S11351100E944E29B1E008950C944E29672F782FF0
S11351208827B85F39F0B93FCCF3869577956795B2
S1135130B395D9F73EF490958095709561957F4F1E
S11351408F4F9F4F0895E89409C097FB3EF49095C4
S11351508095709561957F4F8F4F9F4F9923A9F04C
S1135160F92F96E9BB279395F695879577956795DB
S1135170B795F111F8CFFAF4BB0F11F460FF1BC01F
S11351806F5F7F4F8F4F9F4F16C0882311F096E9B2
S113519011C0772321F09EE8872F762F05C0662360
S11351A071F096E8862F70E060E02AF09A95660F19
S11351B0771F881FDAF7880F9695879597F90895D2
S11351C0990F0008550FAA0BE0E8FEEF1616170614
S11351D0E807F907C0F012161306E407F50798F07C
S11351E0621B730B840B950B39F40A2661F0232B95
S11351F0242B252B21F408950A2609F4A140A69511
S11352008FEF811D811D089597F99F6780E870E0F5
S113521060E008959FEF80EC089500240A94161628
S1135220170618060906089500240A941216130690
S1135230140605060895092E0394000C11F488231E
S113524052F0BB0F40F4BF2B11F460FF04C06F5F3A
S11352507F4F8F4F9F4F089557FD9058440F551F10
S113526059F05F3F71F04795880F97FB991F61F0E4
S11352709F3F79F087950895121613061406551F5B
S1135280F2CF4695F1DF08C0161617061806991FC7
S1135290F1CF86957105610508940895E894BB27BC
S11352A066277727CB0197F908950E94E02808F430
S11352B08FEF08950E946D290C941B290E940D29DB
S11352C038F00E94142920F0952311F00C9404293D
S11352D00C940A2911240C944F290E942C2970F350
S11352E0959FC1F3950F50E0551F629FF001729F87
S11352F0BB27F00DB11D639FAA27F00DB11DAA1F96
S1135300649F6627B00DA11D661F829F2227B00DE2
S1135310A11D621F739FB00DA11D621F839FA00D6D
S1135320611D221F749F3327A00D611D231F849FBD
S1135330600D211D822F762F6A2F11249F57504014
S11353409AF0F1F088234AF0EE0FFF1FBB1F661F8F
S1135350771F881F91505040A9F79E3F510580F058
S11353600C9404290C944F295F3FE4F3983ED4F342
S1135370869577956795B795F795E7959F5FC1F7FC
S1135380FE2B880F911D9695879597F90895A0E1B6
S1135390B0E0EDECF9E20C94AE2D7C011B016A0146
S11353A0FC0117821682838181FF44C39E012F5F13
S11353B03F4F3901F7019381F10193FD859193FFEB
S11353C081911F01882309F431C3853239F493FD97
S11353D0859193FF81911F01853239F4B70190E0E3
S11353E00E94F22E56016501E5CF10E0512C912C5C
S11353F0FFE1F915D8F08B3279F038F4803279F086
S11354008332A1F4F92DF0612EC08D3261F0803326
S113541069F4292D21602DC0392D3260932E892DF8
S11354208460982E2AC0E92DE86015C097FC2DC031
S113543020ED280F2A3088F496FE06C03AE0139F28
S1135440200D1124122F19C08AE0589E200D11241A
S1135450522EE92DE0629E2E10C08E3231F496FC5D
S1135460E5C2F92DF0649F2E08C08C3621F4292D55
S11354702068922E02C0883641F4F10193FD859193
S113548093FF81911F018111B3CF9BEB980F933050
S113549020F4992D9061805E07C09BE9980F9330AA
S11354A008F066C1992D9F7E96FF16E09F73992E92
S11354B0853619F49064992E08C0863621F4392F64
S11354C03068932E02C01111115097FE07C01C338F
S11354D050F444244394410E27E00BC0183038F0B4
S11354E027E017E005C027E09CE3492E02C0212FE6
S11354F0412C560184E0A80EB11CF6016081718133
S113550082819381042DA3010E94F42D6C01F98101
S1135510FC87F0FF02C0F3FF06C091FC06C092FEB8
S113552006C000E205C00DE203C00BE201C000E0CA
S11355308C858C7019F001115AC29BC297FE10C061
S11355404C0CFC85F4FF04C08A81813309F44A942D
S1135550141474F528E0241578F588E0482E2CC03E
S113556096FC2AC0812F90E08C159D059CF03CEFA1
S1135570C3163FEFD30674F0892D8068982E0AC0B5
S1135580E2E0F0E0EC0FFD1FE10FF11D80818033BC
S113559019F411501111F4CF97FE0EC04424439412
S11355A0410E812F90E0C816D9062CF41C1904C0B2
S11355B04424439401C010E097FE06C01C141D044B
S11355C034F4C601019605C085E090E002C081E094
S11355D090E001110196112331F0212F30E02F5F6B
S11355E03F4F820F931F252D30E08217930714F449
S11355F0581A01C0512C892D897049F4552039F06D
S1135600B70180E290E00E94F22E5A94F7CF002373
S113561029F0B701802F90E00E94F22E93FC09C07C
S1135620552039F0B70180E390E00E94F22E5A949D
S1135630F7CF97FE4CC04601D7FE02C0812C912CB7
S1135640C60188199909F301E80FF91FFE87ED8750
S1135650960124193109388B2F87012F10E01195F9
S1135660019511093FEF8316930629F4B7018EE2E1
S113567090E00E94F22EC814D9044CF08F859889CA
S11356808815990524F4ED85FE85818101C080E3A8
S1135690F1E08F1A91082D853E852F5F3F4F3E879D
S11356A02D87801691062CF0B70190E00E94F22E0F
S11356B0D9CFC814D90441F49A81963320F4953390
S11356C019F43C8534FF81E3B70190E04EC08A8130
S11356D0813319F09C859F7E9C87B70190E00E94DE
S11356E0F22E111105C094FC18C085E690E017C095
S11356F0B7018EE290E00E94F22E1E5F82E001E08C
S1135700080FF301E80FF11D8081B70190E00E94BA
S1135710F22E802F0113F3CFE6CF85E490E0B7019A
S11357200E94F22ED7FC06C0C114D10441F4EC85CA
S1135730E4FF05C0D194C194D1088DE201C08BE28D
S1135740B70190E00E94F22E80E32AE0C216D10451
S11357502CF08F5FFAE0CF1AD108F7CFB70190E0B1
S11357600E94F22EB701C601C0960E94F22E54C1C7
S1135770833631F0833779F0833509F056C020C081
S1135780560132E0A30EB11CF6018081898301E049
S113579010E0630112C05601F2E0AF0EB11CF60135
S11357A0C080D18096FE03C0612F70E002C06FEF0D
S11357B07FEFC6010E94E72E8C01F92DFF7714C0FC
S11357C0560122E0A20EB11CF601C080D18096FEE3
S11357D003C0612F70E002C06FEF7FEFC6010E942B
S11357E0CC2E8C01F92DF0689F2EF3FD1AC0852D67
S11357F090E008171907A8F4B70180E290E00E942E
S1135800F22E5A94F4CFF60197FC859197FE81917C
S11358106F01B70190E00E94F22E51105A9401508A
S113582011090115110579F7F7C0843611F089368D
S113583061F5560197FE09C024E0A20EB11CF601E1
S113584060817181828193810AC0F2E0AF0EB11C44
S1135850F60160817181072E000C880B990BF92DDC
S1135860FF769F2E97FF09C090958095709561955E
S11358707F4F8F4F9F4FF0689F2E2AE030E0A301A7
S11358800E94692FC82EC6183FC0092D853721F400
S11358900F7E2AE030E01DC0097F8F3691F018F4A6
S11358A0883559F0C3C0803719F0883711F0BEC06D
S11358B0006104FF09C0046007C094FE08C00660CC
S11358C006C028E030E005C020E130E002C020E15D
S11358D032E0560107FF09C084E0A80EB11CF601AE
S11358E0608171818281938108C0F2E0AF0EB11CA6
S11358F0F6016081718180E090E0A3010E94692F2C
S1135900C82EC6180F77902E96FE0BC0092D0E7F59
S1135910C11650F494FE0AC092FC08C0092D0E7EF4
S113592005C0DC2C092D03C0DC2C01C0D12E04FFE2
S11359300DC0FE01EC0DF11D8081803311F4097E50
S113594009C002FF06C0D394D39404C0802F867884
S113595009F0D39403FD11C000FF06C01C2DD5141B
S113596080F4150D1D190DC0D51458F4B70180E24B
S113597090E00E94F22ED394F7CFD51410F45D1862
S113598001C0512C04FF10C0B70180E390E00E94D5
S1135990F22E02FF17C001FD03C088E790E002C0A9
S11359A088E590E0B7010CC0802F867859F001FF9C
S11359B002C08BE201C080E207FD8DE2B70190E0F6
S11359C00E94F22EC11638F4B70180E390E00E94E1
S11359D0F22E1150F7CFCA94F301EC0DF11D808122
S11359E0B70190E00E94F22EC110F5CF15C0F4E08B
S11359F0F51560F584E0581A93FE1FC0011127C005
S1135A002C8523FF2AC00AEA10E0392D3071932E29
S1135A10F8018491811124C0552009F4E4CCB70124
S1135A2080E290E00E94F22E5A94F6CFF70186812C
S1135A30978126C08FEF9FEF23C0B70180E290E0EB
S1135A400E94F22E5A945110F8CFD8CF512CB7019E
S1135A50802F90E00E94F22ED3CF0EEA10E0D5CF33
S1135A6091108052B70190E00E94F22E0F5F1F4FF9
S1135A70CFCF23E0251510F483E0BDCF512CC0CF48
S1135A806096E2E10C94CA2DDB018F939F930E94F0
S1135A909B2DBF91AF91A29F800D911DA39F900D4F
S1135AA0B29F900D11240895A1E21A2EAA1BBB1BCC
S1135AB0FD010DC0AA1FBB1FEE1FFF1FA217B307D6
S1135AC0E407F50720F0A21BB30BE40BF50B661FEC
S1135AD0771F881F991F1A9469F7609570958095B0
S1135AE090959B01AC01BD01CF010895052E97FB54
S1135AF01EF400940E948D2D57FD07D00E94542D52
S1135B0007FC03D04EF40C948D2D509540953095A0
S1135B1021953F4F4F4F5F4F089590958095709515
S1135B2061957F4F8F4F9F4F0895EE0FFF1F059094
S1135B30F491E02D09940E94E52DA59F900DB49F4A
S1135B40900DA49F800D911D11240895B7FF0C940E
S1135B509B2D0E949B2D821B930B08952F923F92A5
S1135B604F925F926F927F928F929F92AF92BF9269
S1135B70CF92DF92EF92FF920F931F93CF93DF9315
S1135B80CDB7DEB7CA1BDB0B0FB6F894DEBF0FBE72
S1135B90CDBF09942A88398848885F846E847D84BF
S1135BA08C849B84AA84B984C884DF80EE80FD80C1
S1135BB00C811B81AA81B981CE0FD11D0FB6F89437
S1135BC0DEBF0FBECDBFED010895A29FB001B39F0C
S1135BD0C001A39F700D811D1124911DB29F700DF2
S1135BE0811D1124911D0895283008F027E03327E2
S1135BF0DA01990F311D87FD9160009661057105E9
S1135C0039F432602E5F3D9330E32A95E1F708952D
S1135C109F3F30F080387105610509F03C5F3C5FBF
S1135C203D93913008F08068911DDF93CF931F93CB
S1135C300F93FF92EF92192F987F9695E92F9695DF
S1135C409695E90FFF27E45FFE4F99273327EE244B
S1135C50FF24A701E70105900894079428F4360F60
S1135C60E71EF81E491F511D660F771F881F991FD5
S1135C700694A1F70590079428F4E70EF81E491F2F
S1135C80561FC11D770F881F991F661F0694A1F721
S1135C900590079428F4F80E491F561FC71FD11DFD
S1135CA0880F991F661F771F0694A1F70590079424
S1135CB020F4490F561FC71FD81F990F661F771F5F
S1135CC0881F0694A9F784911095177041F0D69512
S1135CD0C79557954795F794E7941A95C1F7E2EB62
S1135CE0F0E0689415901591359165919591059022
