:100000000C94BB000C94270B0C94D8000C94D800D3
:100010000C94D8000C94D8000C94D8000C94D80000
:100020000C94D8000C94D8000C94D8000C9478054B
:100030000C94D8000C94D8000C94D8000C94D800E0
:100040000C94D8000C94D8000C94D8000C94D800D0
:100050000C94D8000C94D8000C94D8000C94D800C0
:100060000C94D8000C94D8006E616E00696E660026
:1000700000407A10F35A00A0724E18090010A5D45F
:10008000E80000E87648170000E40B54020000CABC
:100090009A3B000000E1F505000080969800000002
:1000A00040420F000000A086010000001027000061
:1000B0000000E803000000006400000000000A00E7
:1000C000000000000100000000002C76D888DC67EA
:1000D0004F0823DFC1DFAE59E1B1B796E5E3E45342
:1000E000C63AE651997696E8E6C28426EB898C9B5F
:1000F00062ED407C6FFCEFBC9C9F40F2BAA56FA5FF
:10010000F490055A2AF75C936B6CF9676DC11BFC80
:10011000E0E40D47FEF520E6B500D0ED902E03009B
:10012000943577050080841E080000204E0A0000E8
:1001300000C80C333333330F986E12831141EF8DA7
:100140002114893BE65516CFFEE6DB18D1844B38E7
:100150001BF77C1D901DA4BBE424203284725E2218
:100160008100C9F124ECA1E53D276364696E6F70DD
:10017000737578585B0011241FBECFEFD8E0DEBF47
:10018000CDBF11E0A0E0B1E0E0EEFDE302C00590DC
:100190000D92A436B107D9F726E0A4E6B1E001C07C
:1001A0001D92A330B207E1F70E941C060C94EE1ECC
:1001B0000C940000909100016917E0F49091010106
:1001C0008917C0F4962F969596959695E82FF0E0AE
:1001D00080E8989FE00DF11D1124677081E090E0A8
:1001E00002C0880F991F6A95E2F7E850FE4F908190
:1001F000892B8083089585E08A95F1F700008BB103
:1002000080628BB985E08A95F1F700008BB18F7D14
:100210008BB985E08A95F1F7000008951F93CF937D
:10022000DF93182F8BB180688BB98BB180648BB949
:100230000E94FB000E94FB000E94FB000E94FB004A
:100240000E94FB008BB18F7B8BB90E94FB008BB1AE
:1002500080648BB90E94FB008BB18F7B8BB90E94AD
:10026000FB00C0E0D0E01CC0CE010497049730F43E
:100270008BB18F7B8BB90E94FB0011C0812F8078DE
:1002800041F0803859F48BB180648BB90E94FB0037
:1002900005C08BB18F7B8BB90E94FB00110F21969B
:1002A000CC30D1050CF38BB18F7B8BB90E94FB0056
:1002B0000E94FB000E94FB000E94FB008BB18F7725
:1002C0008BB9DF91CF911F9108950F931F93CF9317
:1002D000DF938C01C0E0D0E003C00E940E012196A4
:1002E000F801EC0FFD1F80818111F7CFDF91CF91D5
:1002F0001F910F9108951F93CF93DF93182F8BB108
:1003000080688BB98BB180648BB90E94FB000E941E
:10031000FB000E94FB000E94FB000E94FB008BB1CF
:100320008F7B8BB90E94FB008BB18F7B8BB90E94B6
:10033000FB008BB18F7B8BB90E94FB00C0E0D0E04B
:100340001CC0CE010497049730F48BB18F7B8BB91E
:100350000E94FB0011C0812F807841F0803859F451
:100360008BB180648BB90E94FB0005C08BB18F7B81
:100370008BB90E94FB00110F2196CC30D1050CF3F4
:100380008BB18F7B8BB90E94FB000E94FB000E9407
:10039000FB000E94FB008BB18F778BB9DF91CF916F
:1003A0001F910895882399F084E30E947B018FE9CF
:1003B0009FE00197F1F700C0000086E30E947B01F7
:1003C0008FE99FE00197F1F700C00000089580E3F6
:1003D0000E947B018FE99FE00197F1F700C00000C8
:1003E00008958F929F92AF92BF92DF92EF92FF9209
:1003F0000F931F93CF93DF937C01D12C31C18FE1F9
:100400008D1548F08D2D80680E947B01802F8068BB
:100410000E947B0109C080EE8D0D80680E947B01E7
:10042000802F88680E947B01CD2DC695C695C69504
:10043000D0E0CC0FDD1FCC0FDD1FCC0FDD1FC00FB8
:10044000D11DC295D295D07FDC27C07FDC27CE0D91
:10045000DF1D8880912C1D2D1770012E02C09594F0
:1004600087940A94E2F79694982C8824979487941A
:10047000A980B12C012E02C0B594A7940A94E2F78A
:1004800081E0A822BB240024B694A7940794B694D4
:10049000A7940794BA2CA02CAA81B0E0012E02C028
:1004A000B595A7950A94E2F7A170BB27AA0FBB1FC9
:1004B000A295B295B07FBA27A07FBA27EB81F0E072
:1004C000012E02C0F595E7950A94E2F7E170FF2747
:1004D000E295F295F07FFE27E07FFE276C8170E0C9
:1004E000012E02C0759567950A94E2F7617077272F
:1004F000660F771F660F771F660F771F4D8150E0DD
:10050000012E02C0559547950A94E2F74170552790
:10051000440F551F440F551F2E8130E0012E02C09D
:10052000359527950A94E2F721703327220F331F60
:100530008F8190E0012E02C0959587950A94E2F78D
:10054000A828AA29EA2B6E2B462B242B8170822BFC
:100550000E940E018884912C012E02C095948794EC
:100560000A94E2F79694982C882497948794A98407
:10057000B12C012E02C0B594A7940A94E2F781E051
:10058000A822BB240024B694A7940794B694A794F9
:100590000794BA2CA02CAA85B0E0012E02C0B59514
:1005A000A7950A94E2F7A170BB27AA0FBB1FA295DB
:1005B000B295B07FBA27A07FBA27EB85F0E0012E75
:1005C00002C0F595E7950A94E2F7E170FF27E295FE
:1005D000F295F07FFE27E07FFE276C8570E0012E0C
:1005E00002C0759567950A94E2F761707727660FE8
:1005F000771F660F771F660F771F4D8550E0012E1E
:1006000002C0559547950A94E2F741705527440F6B
:10061000551F440F551F2E8530E0012E02C0359521
:1006200027950A94E2F721703327220F331FCF85D5
:10063000D0E002C0D595C7951A95E2F7882D8A2992
:100640008A2B8E2B862B842B822BC1708C2B0E94A5
:100650000E010F5F01C000E0083008F4D0CED39443
:100660008FE38D15C0F7DF91CF911F910F91FF9010
:10067000EF90DF90BF90AF909F908F90089581E0B2
:100680000E947B018FE39CE90197F1F700C0000015
:1006900008952FEF83EF91E0215080409040E1F7E3
:1006A00000C000008CE00E947B018FE891E0019780
:1006B000F1F700C000000E943F0386E00E947B012A
:1006C0008FE39CE90197F1F700C0000008956130C5
:1006D000710541F068F06230710531F063307105E9
:1006E00029F007C090E905C098E803C098E901C067
:1006F00090E8892B0E947B010895BF92CF92DF92F0
:10070000EF92FF920F931F93CF93DF936C017B01C6
:10071000B42EC0E0D0E02DC0BB20B1F08E010C0D96
:100720001D1D01501109C701880F991F8E0D9F1DB6
:10073000880F991F8C0F9D1F0E941513F801E85018
:10074000FE4F8095808314C086010C0F1D1F015041
:100750001109C701880F991F8E0D9F1D880F991FC2
:100760008C0F9D1F0E941513F801E850FE4F8083E7
:100770002196C730D10584F2DF91CF911F910F915F
:10078000FF90EF90DF90CF90BF9008959F92AF922F
:10079000BF92CF92DF92EF92FF920F931F93CF936E
:1007A000DF93CDB7DEB7AC970FB6F894DEBF0FBEC0
:1007B000CDBF6C01162F942E59010000CE01019679
:1007C0000E94630F85E091E00E949B1080E8189FD3
:1007D000C00CD11C1124E12CF12C7EC0F501EE0DD2
:1007E000FF1D0081003CD8F4083AC9F0083BB9F07D
:1007F000073BA9F0602F70E0992039F06052710931
:1008000041E0C6010E947D0306C06052710940E0CC
:10081000C6010E947D0386E0C80ED11C5AC010E0BC
:10082000C801805C910980349105A0F4992041F0C1
:1008300041E0B80161567109C6010E947D0307C0FD
:1008400040E0B80161567109C6010E947D0386E04F
:10085000C80ED11C083A110591F4992039F041E0F5
:100860006FE970E0C6010E947D0306C040E06FE9B9
:1008700070E0C6010E947D0386E0C80ED11C083BD3
:10088000110591F4992039F041E060EA70E0C60169
:100890000E947D0306C040E060EA70E0C6010E944D
:1008A0007D0386E0C80ED11C073B110591F4992009
:1008B00039F041E061EA70E0C6010E947D0306C0A4
:1008C00040E061EA70E0C6010E947D0386E0C80E48
:1008D000D11C8FEFE81AF80AF50101900020E9F722
:1008E0003197EA19FB09EE16FF0608F477CF80E08E
:1008F00090E00E94630FAC960FB6F894DEBF0FBE77
:10090000CDBFDF91CF911F910F91FF90EF90DF90BE
:10091000CF90BF90AF909F90089580E094E0E8EF73
:10092000F1E0DF019C011D9221503040E1F7089574
:10093000CF93DF93D0E01EC0D03248F48D2F806873
:100940000E947B0180E80E947B01C0E010C080EE25
:100950008D0F80680E947B0188E80E947B01F5CFA3
:1009600080E00E940E0180E00E940E01CF5FC8303F
:10097000B8F3DF5FD03400F30E948D04DF91CF9194
:1009800008958F929F92AF92BF92CF92DF92EF9293
:10099000FF920F931F93CF93DF93C82FD62FB42EC0
:1009A000822E481728F0C42ED12CC81AD10804C0B2
:1009B000C82ED12CC41AD1088D1628F0E82CF12CA1
:1009C000ED1AF10804C0ED2EF12CE818F108CB1552
:1009D00018F4AA24A39402C0AA24AA94D81518F43F
:1009E0009924939402C099249A9486010E191F09A0
:1009F0006D2F8C2F0E94DA00CB1102C0D815A1F008
:100A0000C801880F991F222733272E193F0928175D
:100A100039071CF40E191F09CA0D8C159D0544F7E2
:100A20000C0D1D1DD90DE4CFDF91CF911F910F91BA
:100A3000FF90EF90DF90CF90BF90AF909F908F90FE
:100A40000895EF92FF920F931F93CF93DF937C0152
:100A50008B01E9019C01240F351F8091010190E079
:100A60002817390718F0AC014E195F098091000171
:100A700090E098012C0F3D1F2817390718F0EC0162
:100A8000C01BD10BDE2DD40F202F4D2F602F8E2DAC
:100A90000E94C104C00F2C2F4D2F6C2F8E2D0E9451
:100AA000C1042C2F4E2D602F8E2D0E94C1042C2F9F
:100AB0004D2F602F8D2F0E94C104DF91CF911F9188
:100AC0000F91FF90EF900895E1E8F0E08081886059
:100AD0008083AFE6B0E08C9182608C9384EF80934A
:100AE000890084E2809388008081856080830895F6
:100AF0001F920F920FB60F9211242F933F934F9393
:100B00005F936F937F938F939F93AF93BF93EF9375
:100B1000FF938091EE01882309F44CC08091E40199
:100B2000882309F447C08091D001882309F442C08A
:100B300080919E018823F1F18091A8018823D1F151
:100B40008091C6018823B1F18EEE91E09F938F933F
:100B50008FE091E09F938F938CE691E09F938F932A
:100B60000E943A1B60ED71E08CE691E00E94E81A69
:100B70006EE971E08CE691E00E94E81A64EE71E0A3
:100B80008CE691E00E94E81A68EA71E08CE691E058
:100B90000E94E81A66EC71E08CE691E00E94E81A87
:100BA0008CE691E00E9474130F900F900F900F90BD
:100BB0000F900F90FF91EF91BF91AF919F918F9107
:100BC0007F916F915F914F913F912F910F900FBE49
:100BD0000F901F90189584B18E6284B985B1837D82
:100BE00085B98AB18B7F8AB98BB184608BB985B1A5
:100BF000846085B980E58CBD08958AB180618AB929
:100C00008BB18F7E8BB98AB180688AB98BB18F77AF
:100C10008BB98AB180628AB98BB18F7D8BB98AB169
:100C200080648AB98BB18F7B8BB908958EBD0DB46A
:100C300007FEFDCF8EB508950E94FD058BB1806142
:100C40008BB90E94EB050E9464050E945A130E9412
:100C5000490388EF91E00E948F1380E190E00E94A9
:100C60005E130E94830B82E08093690081E08DBB5C
:100C700078940E94D20123E131E040E063E083E018
:100C800090E00E94C60329E231E040E064E089E0A0
:100C900090E00E94C60388EF91E00E94F10180E09D
:100CA0000E94D2012FEF83E294EF215080409040C8
:100CB000E1F700C000008BB18F7E8BB90E943F032B
:100CC00060E070E080E00E9467030E9405098EEEFC
:100CD00091E00E94650160E070E083E00E9467039C
:100CE0008AED91E00E9469149F938F937F936F9395
:100CF000CAE3D1E0DF93CF9380ED91E09F938F9390
:100D00000E943A1B80ED91E00E94650160E070E076
:100D100086E00E94670382EB91E00E94EE139F93AE
:100D20008F937F936F93DF93CF938EE991E09F939F
:100D30008F930E943A1B8EE991E00E94650161E069
:100D400070E080E00E94670384EE91E00E946501FC
:100D500061E070E083E00E94670386EC91E00E940E
:100D6000650161E070E086E00E9467038CEB91E032
:100D70000E942B149F938F937F936F93DF93CF9356
:100D800088EA91E09F938F930E943A1B88EA91E052
:100D90000E9465012FEF81EE94E021508040904049
:100DA000E1F700C000008DB79EB748960FB6F894E3
:100DB0009EBF0FBE8DBF84CF20E012C0882324F0D9
:100DC00098B19B7F98B903C098B1946098B9880F87
:100DD00098B1986098B9000098B1977F98B92F5F43
:100DE000283060F3089588B1846088B980E020E0FD
:100DF0000BC098B1986098B9880F3199816098B10B
:100E0000977F98B900002F5F283098F30895FF92DC
:100E10000F931F93CF93DF93C82FD42F152F062F37
:100E2000F72E88234CF4CF7740E050E0BA0187E7F3
:100E30000E940707823050F585B1816085B90E9414
:100E4000F30685B18E7F85B90E94F3068C2F0E9430
:100E5000DC068F2D0E94DC06802F0E94DC06812F8D
:100E60000E94DC068D2F0E94DC06C03411F081E068
:100E700001C085E9C83409F487E80E94DC06CAE0AD
:100E80000E94F306882314F4C150D1F7DF91CF916B
:100E90001F910F91FF9008950E94F3060895CF923D
:100EA000DF92EF92FF920F931F93CF93DF937C011A
:100EB00069018091FA0583FD09C0032E39E0440FD2
:100EC000551F661F771F3A95D1F7302D81E50E9497
:100ED0000707811134C0C0E3D5E70E94F3068F3FB6
:100EE00011F42197D1F78E3F61F5CC27DD27CC197E
:100EF000DD09C01BD10BCE5FDD4FC114D10431F031
:100F00000E94F30681E0C81AD108D1F7E114F10478
:100F100069F06701EFEFCE1ADE0A0E94F306F701CF
:100F20008083015011097601A1F703C00150110916
:100F3000E9F70E94F3062197E1F7C0E003C0C1E0A2
:100F400001C0C1E00E944C078C2FDF91CF911F910F
:100F50000F91FF90EF90DF90CF9008950F931F9324
:100F6000CF93DF93FC01892BF1F0EA0111C08F01CF
:100F70000F5F1F4F80810E94DC068091F8059091E1
:100F8000F90501979093F9058093F8052197F801E9
:100F9000209709F454C08091F8059091F905892BA8
:100FA00031F7C0E04FC0411551056105710501F1F0
:100FB0008091FA0583FD09C0032E39E0440F551FC7
:100FC000661F771F3A95D1F7302D88E50E940707F5
:100FD000811137C08FEF0E94DC068EEF0E94DC0685
:100FE00080E092E09093F9058093F805C0E02AC074
:100FF0008091F8059091F905029604C080E00E9466
:10100000DC06CE01EC012197892BC1F70E94F30683
:101010008F71853021F0C1E00FC0219702C0C8EE6A
:10102000DDEF0E94F3068F3F11F02097B1F7CD2B33
:1010300011F4C1E001C0C0E00E944C0703C0C0E051
:1010400001C0C1E08C2FDF91CF911F910F910895C6
:10105000EF92FF920F931F93CF93DF9300D000D0B6
:10106000CDB7DEB785B1816085B988B1866088B9B2
:1010700084B1816084B987B18C6087B9289907C031
:1010800040E050E0BA0180E090E00E94AE0714E634
:1010900003C00E94F30611501111FBCF40E050E055
:1010A000BA0180E40E940707813009F08FC04AEA44
:1010B00051E060E070E088E40E940707813009F0A9
:1010C00053C00DC0E02EF12C0E94F306E1E0F0E0E9
:1010D000EC0FFD1FEE0DFF1D80830F5F01C0012F80
:1010E000043080F38B81813009F072C08C818A3AA0
:1010F00031F0F12C78C081E0E81AF10806C00F2E1B
:10110000F0EEEF2EFEE2FF2EF02DE114F10449F097
:1011100040E050E060E070E489EE0E940707811132
:10112000EACFEF2809F456C040E050E0BA018AE760
:101130000E940707882371F0F12C55C0E12EF12C95
:101140000E94F306E1E0F0E0EC0FFD1FEE0DFF1D45
:1011500080831F5F143090F3898186FF3DC00F2E7E
:10116000FCE0FF2EF02D3FC040E050E0BA0189EED8
:101170000E940707823040F46894FF24F1F80F2E94
:10118000F9EEEF2EF02D06C0FF24F3940F2EF1E4BC
:10119000EF2EF02D08EA11E602C0015011090115E9
:1011A000110541F040E050E0BA018E2D0E94070782
:1011B0008111F3CF012BA1F040E052E060E070E03C
:1011C00080E50E94070781110DC00DC0F12C0BC0F6
:1011D000F12C09C0F12C07C06894FF24F2F803C079
:1011E000F12C01C0F12CF092FA050E944C0781E02D
:1011F000F11080E00F900F900F900F90DF91CF9142
:101200001F910F91FF90EF900895CF93DF938091FE
:10121000FB05813009F06BC18091FC05813009F03C
:1012200059C0EEEEF1E001900020E9F73197AF01EF
:101230004E5E5140440F551F60E070E08EEE91E02D
:101240000E94E11AECEFF5E08181C281D0E0DC2F51
:10125000CC27C82BBE010D2E000C880B990B0E94C9
:10126000151520E030E040E251E40E94A1146093A3
:1012700068017093690180936A0190936B01DD238B
:101280005CF4DC01CB01B058809368019093690154
:10129000A0936A01B0936B0180916B018F93809151
:1012A0006A018F93809169018F93809168018F9378
:1012B00080E491E09F938F938EEE91E09F938F93C4
:1012C0000E943A1B8DB79EB708960FB6F8949EBF42
:1012D0000FBE8DBF8091FC05853009F047C0C4EE7C
:1012E000D1E0FE0101900020E9F73197AF01445EA3
:1012F0005140440F551F60E070E0CE010E94E11A9A
:10130000ECEFF5E08181628170E0762F6627682B33
:10131000072E000C880B990B0E94151520E030E079
:1013200040E251E40E94A114262F372F462F572F59
:10133000682F792F40936401509365016093660193
:10134000709367019F938F933F932F9385E491E070
:101350009F938F93DF93CF930E943A1B8DB79EB7D5
:1013600008960FB6F8949EBF0FBE8DBFC091FC05C6
:10137000C23061F5EAEDF1E001900020E9F7319724
:10138000AF014A5D5140440F551F60E070E08AEDA7
:1013900091E00E94E11A20E00BC0822F90E0FC0156
:1013A000E350FA4F3081FC01E652FE4F30832F5F4D
:1013B000822F90E0ECEFF5E001900020E9F7319703
:1013C000EC5FF54031978E179F0738F3C33089F5EE
:1013D000E6ECF1E001900020E9F73197AF01465CBF
:1013E0005140440F551F60E070E086EC91E00E9490
:1013F000E11A20E00BC0822F90E0FC01E350FA4F8D
:101400003081FC01EA53FE4F30832F5F822F90E042
:10141000ECEFF5E001900020E9F73197EC5FF54043
:1014200031978E179F0738F3FC01E953FE4F80E296
:101430008083C43061F5ECEBF1E001900020E9F726
:101440003197AF014C5B5140440F551F60E070E095
:101450008CEB91E00E94E11A20E00BC0822F90E01B
:10146000FC01E350FA4F3081FC01E454FE4F30831D
:101470002F5F822F90E0ECEFF5E001900020E9F77C
:101480003197EC5FF54031978E179F0738F3C630E0
:1014900061F5E2EBF1E001900020E9F73197AF014F
:1014A000425B5140440F551F60E070E082EB91E0D9
:1014B0000E94E11A20E00BC0822F90E0FC01E35073
:1014C000FA4F3081FC01EE54FE4F30832F5F822FA4
:1014D00090E0ECEFF5E001900020E9F73197EC5F48
:1014E000F54031978E179F0738F31092FB05DF9177
:1014F000CF91089585B18B7F85B982EE90E00E94EF
:10150000160685E08A95F1F7000085B1846085B9FB
:10151000089585B18B7F85B981EE90E00E94160613
:1015200085E08A95F1F7000085B1846085B908955A
:1015300085B18B7F85B980E590E00E94160685E035
:101540008A95F1F7000083E790E00E94160685B1C6
:10155000846085B90895EF92FF920F931F93CF9304
:10156000DF938B01C42F95B19B7F95B990E00E94CA
:1015700016060CC078018FEFE81AF80A8FEF90E09A
:101580000E941606F8018083CD2F8701DFEFDC0F64
:10159000C111F0CF85B1846085B9DF91CF911F91E2
:1015A0000F91FF90EF900895EF92FF920F931F938A
:1015B000CF93DF938B01C42F806295B19B7F95B948
:1015C00090E00E94160685E08A95F1F700000BC0B6
:1015D0007801EFEFEE1AFE0AF801808190E00E9498
:1015E0001606CD2F8701DFEFDC0FC111F1CF85B1DA
:1015F000846085B9DF91CF911F910F91FF90EF909B
:101600000895CF93C62F806295B19B7F95B990E0E6
:101610000E9416068C2F90E00E94160685B1846009
:1016200085B9CF910895CF93C82F85B18B7F85B9A8
:101630008C2F90E00E941606C73021F08FEF90E0CB
:101640000E94160695B1946095B9CF9108951F92A6
:101650000F920FB60F9211242F933F934F935F93E6
:101660006F937F938F939F93AF93BF93EF93FF936A
:101670008FEA94E00197F1F700C000008BB1806120
:101680008BB98FEA94E00197F1F700C000008BB1AD
:101690008F7E8BB987E00E94130B86FF0AC045E05E
:1016A0006CEF75E081E60E94AB0A60E487E00E947F
:1016B000010B81E08093FB05FF91EF91BF91AF910A
:1016C0009F918F917F916F915F914F913F912F915A
:1016D0000F900FBE0F901F90189580E00E94130B83
:1016E000682F636080E00E94010B85B1826085B93C
:1016F00087E592E00197F1F700C000000E947A0AA6
:101700000E94890A089585B18D7F85B98FE19EE495
:101710000197F1F700C000006AE080E00E94010B31
:101720008FE19EE40197F1F700C0000062E081E0E4
:101730000E94010B62E082E00E94010B61E083E005
:101740000E94010B6FE584E00E94010B0E94980A41
:1017500060E08DE10E94010B60E08CE10E94010BD2
:1017600060E787E00E94010B6CE485E00E94010BBA
:1017700066E086E00E94010B43E062E071E080E1F8
:101780000E94D40A43E062E071E08BE00E94D40A38
:1017900065E082E10E94010B0E946D0B0895FC013F
:1017A00003C06083AC013196CA010197452BC9F78C
:1017B0000895CF93DF93DC01FB0180E090E002C04D
:1017C000FB01DE019A0121503109452B61F0ED0149
:1017D00021968C9190E0BF016F5F7F4F4081841B09
:1017E0009109A90169F3DF91CF9108950F931F9398
:1017F000E0910106F09102069B01AC0122503109F3
:101800004109510980859185A285B3850297A10977
:10181000B109281739074A075B0768F4A181B0E0CE
:101820000E94AD190489158926893789600F711FB7
:10183000821F931F03C060E070E0CB011F910F91E6
:1018400008950F931F93CF93DF93FC01A09101069E
:10185000B091020611821082648175818681978120
:10186000613071058105910591F118960D911D91D9
:101870002D913C911B97601771078207930748F5DC
:10188000611571058105910549F42C91233031F4DE
:1018900050966D917D918D919C915397EF0160874A
:1018A000718782879387611571058105910519F00C
:1018B0000E94F60B06C050966D917D918D919C9182
:1018C00053976C877D878E879F8780E003C081E078
:1018D00001C081E0DF91CF911F910F9108950F9387
:1018E0001F93CF93DF93EB01FC01028113814BE047
:1018F00050E060E270E0C8010E94CF0B288139817E
:1019000090E080E058E001C0842F41E0480FF901E9
:10191000E80FF11D80818132C0F08F32B1F08E323C
:1019200011F0951738F0583081F48E3271F498E048
:101930005BE0EACF6FE9680F6A3108F48052F80182
:10194000E90FF11D80839F5FDFCF240F311D3983A5
:10195000288391E0813208F090E0F801938780E0DD
:10196000DF91CF911F910F910895CF92DF92EF9267
:10197000FF920F931F93CF93DF93EC016A017B01DA
:1019800002E010E02EEF31E00E944F07811125C0E8
:101990008881998185359A4A11F526E330E0B701AF
:1019A000A601CE010E944F07811105C0888199814F
:1019B00086349144B1F002E010E022E530E0B70156
:1019C000A601CE010E944F0781110DC08881998127
:1019D0008634914451F081E009C083E007C082E081
:1019E00005C080E003C081E001C080E0DF91CF91BD
:1019F0001F910F91FF90EF90DF90CF9008954F923D
:101A00005F926F927F928F929F92AF92BF92CF928E
:101A1000DF92EF92FF920F931F93CF93DF9300D04B
:101A200000D0CDB7DEB7E0900106F090020662303C
:101A300071058105910508F4BFC0F7018084918488
:101A4000A284B384681579058A059B0508F0B9C09E
:101A50004B015C018081823009F462C0833009F45B
:101A60007FC0813009F0B2C0C40196958795880D7A
:101A7000991D9C013170892F992786952F3FF1E0A0
:101A80003F0791F0F7014485558566857785480FB6
:101A9000591F611D711D02E010E0CE0101960E94E8
:101AA0004F07882361F197C0F70144855585668506
:101AB00077852C01612C712C440D551D661D771DF9
:101AC00001E010E02FEF31E0CE0101960E944F07B8
:101AD000811186C0F7014485558566857785440D5B
:101AE000551D661D771D4F5F5F4F6F4F7F4F20E085
:101AF00030E0CE0102960E944F07811176C06981C5
:101B00007A8180FE09C0729562956F7067277F7039
:101B1000672780E090E077C07F7080E090E073C03E
:101B200094013327220F331FF701C484D584E68440
:101B3000F784BB27AB2D9A2D892DB701A601480F3D
:101B4000591F6A1F7B1F02E010E0CE0101960E9420
:101B50004F0781114FC069817A8180E090E053C0C6
:101B600094012F773327220F331F220F331FF701E2
:101B7000C484D584E684F784D501C401689416F83A
:101B8000B695A795979587951694D1F7B701A601B5
:101B9000480F591F6A1F7B1F04E010E0CE01019619
:101BA0000E944F0781112BC089819A81AB81BC8132
:101BB000BC01CD019F7027C061E070E080E090E043
:101BC00022C061E070E080E090E01DC061E070E064
:101BD00080E090E018C061E070E080E090E013C029
:101BE00061E070E080E090E00EC061E070E080E0D5
:101BF00090E009C061E070E080E090E004C061E046
:101C000070E080E090E00F900F900F900F90DF91C8
:101C1000CF911F910F91FF90EF90DF90CF90BF90E9
:101C2000AF909F908F907F906F905F904F900895AE
:101C3000CF92DF92EF92FF920F931F93CF93DF9398
:101C4000E0900106F0900206FC01C081D18121964E
:101C500009F45CC044855585668577854115510535
:101C60006105710509F454C08C01CE018F7099276C
:101C7000892B09F046C04F5F5F4F6F4F7F4F4487FE
:101C800055876687778740855185628573854115BD
:101C900051056105710539F4F70184819581C817F3
:101CA000D907C0F52EC0F701818190E001979E0110
:101CB000329522952F7023273F7023278223932369
:101CC000892BF9F4CB01BA010E94FF0C6230710537
:101CD0008105910508F1F701C084D184E284F38481
:101CE0006C157D058E059F05C8F4F8016087718726
:101CF000828793870E94F60BF80164877587868731
:101D00009787F801D183C08380E009C083E007C0D2
:101D100083E005C083E003C081E001C083E0DF9180
:101D2000CF911F910F91FF90EF90DF90CF9008958A
:101D3000DF92EF92FF920F931F93CF93DF937C017B
:101D40000E94210C81113EC0E0910106F091020633
:101D5000C681D781F701208131812F703327220F6F
:101D6000331F22953295307F3227207F32274485DA
:101D700055856685778500E210E0CE010E944F0709
:101D800091E0811101C090E0D92E911116C0888197
:101D90008823A9F08B8583FD0AC0F70162817381D6
:101DA0004BE050E0CE010E94D90B892B51F0C701C6
:101DB0000E94180E882371F205C0892F03C083E0AA
:101DC00001C08D2DDF91CF911F910F91FF90EF906A
:101DD000DF9008950F931F93CF93DF9300D0CDB77B
:101DE000DEB78C017A83698303C03196FA83E98375
:101DF000E981FA8180818032C1F38F3219F4319602
:101E0000FA83E983D80114961D921D921D921C92AB
:101E10001797E981FA818081813260F4C8010E94BC
:101E2000210CE0910106F09102060680F781E02D79
:101E3000108242C0BE016F5F7F4FC8010E946F0CCD
:101E400081113AC0C8010E94980E882359F083304E
:101E500099F5D8011296ED91FC91139793859923EA
:101E600041F12AC0D8011296ED91FC911397938508
:101E7000911122C0E0910106F09102060680F781DF
:101E8000E02D838584FF17C084899589A0E0B0E0A8
:101E9000BC0155274427828D938DA0E0B0E0842BB0
:101EA000952BA62BB72BF80184839583A683B78344
:101EB000C1CF84E001C084E00F900F90DF91CF91FB
:101EC0001F910F9108954F925F926F927F928F9220
:101ED0009F92AF92BF92DF92EF92FF920F931F9368
:101EE000CF93DF93CDB7DEB7A8970FB6F894DEBFD8
:101EF0000FBECDBF1092020610920106009709F4A2
:101F0000FBC07C010E94280880FDF8C040E050E042
:101F1000BA01CE0101960E94B50CD82E41E084137F
:101F20001CC000E110E02EEB31E040E050E0BA01CF
:101F3000CE0101960E944F07811113C08D81882325
:101F4000C1F089849A84AB84BC84B501A401CE011C
:101F500001960E94B50CD82E0FC0812C912C5401F3
:101F60000BC0812C912C54010F2EF3E0DF2EF02DAD
:101F700003C0812C912C540153E0D51609F4C0C044
:101F8000D110C0C004E210E02DE030E0B501A401A2
:101F9000CE0101960E944F078111B6C02A853B856C
:101FA00040E050E0211531054105510521F4288D0F
:101FB000398D4A8D5B8DAC81B0E00E94AD196DA367
:101FC0007EA38FA398A78A819B81880E991EA11C4E
:101FD000B11CD7011C968D929D92AD92BC921F9719
:101FE000E9811196EC9311978D819E8115969C93B2
:101FF0008E9314970F81188520E030E001151105AC
:102000002105310521F40C891D892E893F894A81DA
:102010005B81041B150B210931094DA15EA16FA144
:1020200078A5041B150B260B370B929582958F70A4
:1020300089279F7089272C01612C712CC901B80157
:1020400064197509860997092E2F30E040E050E0A9
:102050000E948B19BA01A9014E5F5F4F6F4F7F4FEE
:10206000D70118964D935D936D937C931B97473FD3
:10207000BFE05B076105710510F481E001C082E0FB
:10208000473F5F4F6105710508F083E0D7018C93EE
:10209000833051F488A199A1AAA1BBA1F701808B3B
:1020A000918BA28BB38B0DC08DA19EA1AFA1B8A5C2
:1020B000880D991DAA1DBB1DF701808B918BA28BEA
:1020C000B38B4DA15EA16FA178A5840E951EA61EAF
:1020D000B71E840C951CA61CB71CD70154968D9274
:1020E0009D92AD92BC92579712961C92F092020666
:1020F000E092010680E009C080E007C082E005C0F0
:1021000081E003C087E001C081E0A8960FB6F89493
:10211000DEBF0FBECDBFDF91CF911F910F91FF901A
:10212000EF90DF90BF90AF909F908F907F906F90D7
:102130005F904F9008950F931F93CF93DF93CDB788
:10214000DEB7EC970FB6F894DEBF0FBECDBF00919F
:1021500001061091020601151105C9F1BC01F80133
:102160001282CE014D96978386830C979C838B8336
:1021700040970E94EA0E81112FC08D8D882349F16E
:1021800088A584FD28C089A99AA9A0E0B0E0BC0177
:10219000552744278FA998ADA0E0B0E0842B952B5C
:1021A000A62BB72BF80180A391A3A2A3B3A389AD5B
:1021B0009AADABADBCAD848F958FA68FB78F108EC7
:1021C000118E128E138E81E0828380E005C086E03E
:1021D00003C083E001C083E0EC960FB6F894DEBF45
:1021E0000FBECDBFDF91CF911F910F9108952F9218
:1021F0003F924F925F926F927F928F929F92AF9297
:10220000BF92CF92DF92EF92FF920F931F93CF93E3
:10221000DF933C016B014A01E0900106F090020659
:10222000FA0111821082E114F10409F4BBC0F70134
:10223000828180FFB9C0848D958DA68DB78D408D2C
:10224000518D628D738D841B950BA60BB70BA60168
:1022500060E070E084179507A607B70708F46C01E3
:10226000530196C0F701208C318C428C538CD201E3
:10227000C1019170AA27BB27892B8A2B8B2B09F0D0
:102280004EC0218130E040E050E0C201B101052E96
:1022900059E096958795779567955A95D1F7502D82
:1022A0000E948B19672B682B692BE9F423282428BB
:1022B000252831F4F70160A171A182A193A107C083
:1022C000F70164A175A186A197A10E94FF0C62305D
:1022D00071058105910508F461C0F70164A375A338
:1022E00086A397A31382F70164A175A186A197A184
:1022F0000E94F60B611571058105910509F44EC028
:10230000F701238131E0320F3383DC01CB01820FEF
:10231000911DA11DB11D80A791A7A2A7B3A7F70189
:10232000808D918DA28DB38D9C013170C0E0D2E083
:10233000C21BD30BCC16DD0608F4E601F70140A55D
:1023400051A562A573A56114710419F480E090E0B1
:1023500002C08A2D9B2D8E010E944F0781111EC045
:10236000F701808D918DA28DB38D8C0F9D1FA11DC6
:10237000B11D808F918FA28FB38FAC0EBD1ECC1A72
:10238000DD0AF40180819181C80FD91FD183C083F8
:10239000C114D10409F066CF80E007C0F7011282B2
:1023A00081E003C086E001C085E0DF91CF911F91FD
:1023B0000F91FF90EF90DF90CF90BF90AF909F90E4
:1023C0008F907F906F905F904F903F902F900895E7
:1023D0004F925F926F927F928F929F92AF92BF9235
:1023E000CF92DF92EF92FF92CF93DF9300D000D095
:1023F00000D0CDB7DEB720910106309102063E83B2
:102400002D832115310509F4F4C0D90112962C91C0
:10241000129720FFF0C05C96CD90DD90ED90FC907F
:102420005F97C616D706E806F90610F06B017C0127
:10243000ED81FE81408C518C628C738C108E118EDC
:10244000128E138EC114D104E104F10409F4D5C035
:102450008180912CA12CB12C072E79E0880C991C3D
:10246000AA1CBB1C7A95D1F7702D4114510461044C
:10247000710409F440C0C701B601615071098109B6
:102480009109A50194010E948B1929833A834B83FA
:102490005C83B1E04B1A510861087108C301B201B5
:1024A000A50194010E948B1989819A81AB81BC811D
:1024B00082179307A407B507F0F088279927DC0156
:1024C00088199909AA09BB09482259226A227B2244
:1024D000AD81BE8158964D925D926D927C925B97D4
:1024E000C418D508E608F70894966D917D918D91F2
:1024F0009C91979733C0ED81FE8160A171A182A16B
:1025000093A164A375A386A397A328C00E94FF0C80
:10251000623071058105910508F465C0ED81FE8189
:10252000408451846284738464157505860597051B
:1025300008F059C064A375A386A397A3408C518C5F
:10254000628C738C480C591C6A1C7B1C408E518E0B
:10255000628E738EC818D908EA08FB088C149D0493
:10256000AE04BF0498F2AD81BE8158968D909D90C7
:10257000AD90BC905B978C0C9D1CAE1CBF1CFD01EC
:10258000808E918EA28EB38E0E94F60B611571051E
:102590008105910541F146015701072E79E0B69476
:1025A000A794979487947A95D1F7702DAD81BE81C9
:1025B00013968C92B1E0DB22EE24FF24CD28CE28A6
:1025C000CF28E9F021E0280DED81FE812383DC0195
:1025D000CB01880D911DA11DB11D80A791A7A2A7B8
:1025E000B3A780E00DC0AD81BE8112961C9281E040
:1025F00007C086E005C085E003C080E001C080E040
:1026000026960FB6F894DEBF0FBECDBFDF91CF91F7
:10261000FF90EF90DF90CF90BF90AF909F908F9002
:102620007F906F905F904F9008950F931F93CF937B
:10263000DF93CDB7DEB72D970FB6F894DEBF0FBE90
:10264000CDBF8E010C5F1F4F2AE0F80111922A9531
:10265000E9F7BC01660F771F680F791F660F771FB8
:1026600080E090E00E94E811AE014F5F5F4F64E0B0
:1026700070E0C8010E94F710CE0103969F938F93DC
:102680008BE491E09F938F931F930F930E945C1BA9
:102690000F900F900F900F900F900F908B812D96B1
:1026A0000FB6F894DEBF0FBECDBFDF91CF911F9163
:1026B0000F91089588E48093B80008959093C50021
:1026C0008093C400E1ECF0E088E180838081806841
:1026D0008083E0ECF0E0808182608083E2ECF0E0D7
:1026E00080818E6080830895DC0180E00BC0909132
:1026F000C00095FFFCCFFD01E20FF31F9081909386
:10270000C6008F5F282F30E0FD0101900020E9F71F
:102710003197EA1BFB0B2E173F0748F30895CF9321
:10272000DF93EC0181E00E94D2012FE330E04FE71C
:1027300050E060E070E080E090E00E9421052DE331
:1027400030E04DE750E061E070E081E090E00E9411
:1027500021052BE330E04BE750E062E070E082E0DF
:1027600090E00E94210529E330E049E750E063E072
:1027700070E083E090E00E942105CE010E94F1010B
:1027800080E00E94D20161E070E083E00E94670374
:102790008EE491E00E94650162E070E081E00E94B9
:1027A000670383E591E00E9465012FEF8BE792E9D3
:1027B000215080409040E1F700C000000E943F039C
:1027C00081E00E94D201CE010E94F1010E94980492
:1027D00080E00E94D201DF91CF910895CF93DF93E3
:1027E00000D0CDB7DEB7FC0120812223A1F09E01ED
:1027F0002F5F3F4F3F932F9320E631E03F932F937E
:102800009F938F930E945C1B0F900F900F900F90DF
:102810000F900F9002C01A82198269817A81CB01D0
:10282000880F991F680F791F072E000C880B990BD2
:102830000E9415152DEC3CEC4CE150E40E94A115D2
:1028400020E030E040EA55E40E94A1140F900F9080
:10285000DF91CF910895CF93DF9300D0CDB7DEB74E
:10286000FC0120812223A1F09E012F5F3F4F3F9367
:102870002F9320E631E03F932F939F938F930E94F5
:102880005C1B0F900F900F900F900F900F9002C055
:102890001A82198269817A81072E000C880B990BA4
:1028A0000E9415152DEC3CEC4CE150E40E94A11562
:1028B00020E030E040E450E40E94A11520E030E048
:1028C00040E85AE30E94A1150F900F90DF91CF913D
:1028D0000895CF93DF9300D0CDB7DEB7FC01208100
:1028E0002223A1F09E012F5F3F4F3F932F9320E6BD
:1028F00031E03F932F939F938F930E945C1B0F9027
:102900000F900F900F900F900F9002C01A821982B3
:1029100069817A81072E000C880B990B0E9415158E
:1029200023EF30EB40E15FE30E94A11520E030E0AF
:1029300040E85EE30E94A1150F900F90DF91CF91C8
:1029400008950E94B5140C9467150E94601558F004
:102950000E94591540F029F45F3F29F00C9450155E
:1029600051110C949B150C9456150E94781568F320
:102970009923B1F3552391F3951B550BBB27AA2738
:1029800062177307840738F09F5F5F4F220F331F72
:10299000441FAA1FA9F335D00E2E3AF0E0E832D03A
:1029A00091505040E695001CCAF72BD0FE2F29D03D
:1029B000660F771F881FBB1F261737074807AB070F
:1029C000B0E809F0BB0B802DBF01FF2793585F4F84
:1029D0003AF09E3F510578F00C9450150C949B15DD
:1029E0005F3FE4F3983ED4F3869577956795B79566
:1029F000F7959F5FC9F7880F911D9695879597F971
:102A00000895E1E0660F771F881FBB1F62177307E9
:102A10008407BA0720F0621B730B840BBA0BEE1FFE
:102A200088F7E0950895E89409C097FB3EF49095E7
:102A30008095709561957F4F8F4F9F4F9923A9F097
:102A4000F92F96E9BB279395F69587957795679526
:102A5000B795F111F8CFFAF4BB0F11F460FF1BC06A
:102A60006F5F7F4F8F4F9F4F16C0882311F096E9FD
:102A700011C0772321F09EE8872F762F05C06623AB
:102A800071F096E8862F70E060E02AF09A95660F64
:102A9000771F881FDAF7880F9695879597F908951D
:102AA00097F99F6780E870E060E008959FEF80EC01
:102AB000089500240A9416161706180609060895A4
:102AC00000240A9412161306140605060895092E0A
:102AD0000394000C11F4882352F0BB0F40F4BF2B79
:102AE00011F460FF04C06F5F7F4F8F4F9F4F0895B9
:102AF00057FD9058440F551F59F05F3F71F04795AF
:102B0000880F97FB991F61F09F3F79F08795089593
:102B1000121613061406551FF2CF4695F1DF08C0B2
:102B2000161617061806991FF1CF869571056105CF
:102B300008940895E894BB2766277727CB0197F977
:102B400008950E94B4150C9467150E94591538F029
:102B50000E94601520F0952311F00C9450150C94F0
:102B6000561511240C949B150E94781570F3959FAF
:102B7000C1F3950F50E0551F629FF001729FBB2774
:102B8000F00DB11D639FAA27F00DB11DAA1F649F10
:102B90006627B00DA11D661F829F2227B00DA11DC3
:102BA000621F739FB00DA11D621F839FA00D611D49
:102BB000221F749F3327A00D611D231F849F600D6A
:102BC000211D822F762F6A2F11249F5750409AF093
:102BD000F1F088234AF0EE0FFF1FBB1F661F771F1F
:102BE000881F91505040A9F79E3F510580F00C94EA
:102BF00050150C949B155F3FE4F3983ED4F38695F3
:102C000077956795B795F795E7959F5FC1F7FE2B89
:102C1000880F911D9695879597F90895A0E1B0E0EA
:102C2000E4E1F6E10C94B8197C011B016A01FC0196
:102C300017821682838181FF44C39E012F5F3F4F1D
:102C40003901F7019381F10193FD859193FF819102
:102C50001F01882309F431C3853239F493FD85912E
:102C600093FF81911F01853239F4B70190E00E94F2
:102C7000FE1A56016501E5CF10E0512C912CFFE1C1
:102C8000F915D8F08B3279F038F4803279F083324C
:102C9000A1F4F92DF0612EC08D3261F0803369F41A
:102CA000292D21602DC0392D3260932E892D84600D
:102CB000982E2AC0E92DE86015C097FC2DC020EDA4
:102CC000280F2A3088F496FE06C03AE0139F200DA4
:102CD0001124122F19C08AE0589E200D1124522E63
:102CE000E92DE0629E2E10C08E3231F496FCE5C2D2
:102CF000F92DF0649F2E08C08C3621F4292D206810
:102D0000922E02C0883641F4F10193FD859193FF24
:102D100081911F018111B3CF9BEB980F933020F469
:102D2000992D9061805E07C09BE9980F933008F061
:102D300066C1992D9F7E96FF16E09F73992E85366A
:102D400019F49064992E08C0863621F4392F306822
:102D5000932E02C01111115097FE07C01C3350F47E
:102D600044244394410E27E00BC0183038F027E08C
:102D700017E005C027E09CE3492E02C0212F412C1B
:102D8000560184E0A80EB11CF60160817181828138
:102D90009381042DA3010E94FE196C01F981FC8727
:102DA000F0FF02C0F3FF06C091FC06C092FE06C011
:102DB00000E205C00DE203C00BE201C000E08C851B
:102DC0008C7019F001115AC29BC297FE10C04C0CB6
:102DD000FC85F4FF04C08A81813309F44A941414F9
:102DE00074F528E0241578F588E0482E2CC096FC70
:102DF0002AC0812F90E08C159D059CF03CEFC316F6
:102E00003FEFD30674F0892D8068982E0AC0E2E067
:102E1000F0E0EC0FFD1FE10FF11D8081803319F40C
:102E200011501111F4CF97FE0EC044244394410E6B
:102E3000812F90E0C816D9062CF41C1904C0442434
:102E4000439401C010E097FE06C01C141D0434F426
:102E5000C601019605C085E090E002C081E090E0E7
:102E600001110196112331F0212F30E02F5F3F4FE8
:102E7000820F931F252D30E08217930714F4581A00
:102E800001C0512C892D897049F4552039F0B701C2
:102E900080E290E00E94FE1A5A94F7CF002329F0B6
:102EA000B701802F90E00E94FE1A93FC09C05520C4
:102EB00039F0B70180E390E00E94FE1A5A94F7CFF0
:102EC00097FE4CC04601D7FE02C0812C912CC60152
:102ED00088199909F301E80FF91FFE87ED8796011C
:102EE00024193109388B2F87012F10E01195019596
:102EF00011093FEF8316930629F4B7018EE290E0A3
:102F00000E94FE1AC814D9044CF08F859889881540
:102F1000990524F4ED85FE85818101C080E3F1E00F
:102F20008F1A91082D853E852F5F3F4F3E872D8755
:102F3000801691062CF0B70190E00E94FE1AD9CFBE
:102F4000C814D90441F49A81963320F4953319F4C6
:102F50003C8534FF81E3B70190E04EC08A81813324
:102F600019F09C859F7E9C87B70190E00E94FE1A15
:102F7000111105C094FC18C085E690E017C0B70198
:102F80008EE290E00E94FE1A1E5F82E001E0080FD0
:102F9000F301E80FF11D8081B70190E00E94FE1A55
:102FA000802F0113F3CFE6CF85E490E0B7010E94B4
:102FB000FE1AD7FC06C0C114D10441F4EC85E4FF2D
:102FC00005C0D194C194D1088DE201C08BE2B70154
:102FD00090E00E94FE1A80E32AE0C216D1042CF091
:102FE0008F5FFAE0CF1AD108F7CFB70190E00E94C7
:102FF000FE1AB701C601C0960E94FE1A54C183365C
:1030000031F0833779F0833509F056C020C056017E
:1030100032E0A30EB11CF6018081898301E010E04B
:10302000630112C05601F2E0AF0EB11CF601C08080
:10303000D18096FE03C0612F70E002C06FEF7FEF7A
:10304000C6010E94F31A8C01F92DFF7714C05601B6
:1030500022E0A20EB11CF601C080D18096FE03C012
:10306000612F70E002C06FEF7FEFC6010E94D61A99
:103070008C01F92DF0689F2EF3FD1AC0852D90E08C
:1030800008171907A8F4B70180E290E00E94FE1A21
:103090005A94F4CFF60197FC859197FE81916F01C8
:1030A000B70190E00E94FE1A51105A940150110984
:1030B0000115110579F7F7C0843611F0893661F5ED
:1030C000560197FE09C024E0A20EB11CF6016081F2
:1030D0007181828193810AC0F2E0AF0EB11CF601CA
:1030E00060817181072E000C880B990BF92DFF76FA
:1030F0009F2E97FF09C090958095709561957F4FA1
:103100008F4F9F4FF0689F2E2AE030E0A3010E946E
:10311000751BC82EC6183FC0092D853721F40F7EB8
:103120002AE030E01DC0097F8F3691F018F4883511
:1031300059F0C3C0803719F0883711F0BEC0006164
:1031400004FF09C0046007C094FE08C0066006C002
:1031500028E030E005C020E130E002C020E132E0AC
:10316000560107FF09C084E0A80EB11CF60160817A
:1031700071818281938108C0F2E0AF0EB11CF6012B
:103180006081718180E090E0A3010E94751BC82ED0
:10319000C6180F77902E96FE0BC0092D0E7FC11614
:1031A00050F494FE0AC092FC08C0092D0E7E05C0A2
:1031B000DC2C092D03C0DC2C01C0D12E04FF0DC076
:1031C000FE01EC0DF11D8081803311F4097E09C0F0
:1031D00002FF06C0D394D39404C0802F867809F0F0
:1031E000D39403FD11C000FF06C01C2DD51480F43C
:1031F000150D1D190DC0D51458F4B70180E290E0EB
:103200000E94FE1AD394F7CFD51410F45D1801C0B4
:10321000512C04FF10C0B70180E390E00E94FE1A19
:1032200002FF17C001FD03C088E790E002C088E5F7
:1032300090E0B7010CC0802F867859F001FF02C0E2
:103240008BE201C080E207FD8DE2B70190E00E94B1
:10325000FE1AC11638F4B70180E390E00E94FE1A0E
:103260001150F7CFCA94F301EC0DF11D8081B70125
:1032700090E00E94FE1AC110F5CF15C0F4E0F515DC
:1032800060F584E0581A93FE1FC0011127C02C85F9
:1032900023FF2AC008E610E0392D3071932EF80183
:1032A0008491811124C0552009F4E4CCB70180E257
:1032B00090E00E94FE1A5A94F6CFF701868197811A
:1032C00026C08FEF9FEF23C0B70180E290E00E94FD
:1032D000FE1A5A945110F8CFD8CF512CB701802F35
:1032E00090E00E94FE1AD3CF0CE610E0D5CF9110EB
:1032F0008052B70190E00E94FE1A0F5F1F4FCFCFA0
:1033000023E0251510F483E0BDCF512CC0CF60968B
:10331000E2E10C94D419A1E21A2EAA1BBB1BFD01F9
:103320000DC0AA1FBB1FEE1FFF1FA217B307E407A4
:10333000F50720F0A21BB30BE40BF50B661F771FFC
:10334000881F991F1A9469F76095709580959095DC
:103350009B01AC01BD01CF0108950E94EF19A59F0B
:10336000900DB49F900DA49F800D911D1124089580
:103370002F923F924F925F926F927F928F929F9285
:10338000AF92BF92CF92DF92EF92FF920F931F9373
:10339000CF93DF93CDB7DEB7CA1BDB0B0FB6F89424
:1033A000DEBF0FBECDBF09942A88398848885F8464
:1033B0006E847D848C849B84AA84B984C884DF80D5
:1033C000EE80FD800C811B81AA81B981CE0FD11DB9
:1033D0000FB6F894DEBF0FBECDBFED010895A29FDA
:1033E000B001B39FC001A39F700D811D1124911DD9
:1033F000B29F700D811D1124911D0895283008F091
:1034000027E03327DA01990F311D87FD916000967F
:103410006105710539F432602E5F3D9330E32A95E2
:10342000E1F708959F3F30F080387105610509F09C
:103430003C5F3C5F3D93913008F08068911DDF93C5
:10344000CF931F930F93FF92EF92192F987F96952A
:10345000E92F96959695E90FFF27E653FF4F992799
:103460003327EE24FF24A701E70105900894079471
:1034700028F4360FE71EF81E491F511D660F771FEF
:10348000881F991F0694A1F70590079428F4E70E6A
:10349000F81E491F561FC11D770F881F991F661FF1
:1034A0000694A1F70590079428F4F80E491F561FBB
:1034B000C71FD11D880F991F661F771F0694A1F79C
:1034C0000590079420F4490F561FC71FD81F990F66
:1034D000661F771F881F0694A9F7849110951770AF
:1034E00041F0D695C79557954795F794E7941A9567
:1034F000C1F7E0E7F0E0689415901591359165917A
:10350000959105907FE27395E118F10A430B560BF4
:10351000C90BD009C0F7E10CF11E431F561FC91F8C
:10352000D01D7EF4703311F48A95E6CFE8940150F3
:1035300030F0080F0AF40027021708F4202F239513
:10354000022F7A3328F079E37D932A95E9F710C0AA
:103550007D932A9589F606949795679537951795E3
:103560001794E118F10A430B560BC90BD00998F0D8
:1035700023957E9173957A3308F070E37C93201342
:10358000B8F77E9170617D9330F0839571E37D9300
:1035900070E32A95E1F71124EF90FF900F911F91AE
:1035A000CF91DF91992787FD90950895FC010590B3
:1035B000615070400110D8F7809590958E0F9F1F35
:1035C0000895DC0101C06D9341505040E0F708952B
:1035D000FB01DC010D900020E9F7119701900D929D
:1035E0000020E1F70895FC01615070400190011046
:1035F000D8F7809590958E0F9F1F08950F931F9376
:10360000CF93DF93FB01238121FD03C08FEF9FEF59
:103610002CC022FF16C04681578124813581421774
:10362000530744F4A081B1819D012F5F3F4F318347
:1036300020838C93268137812F5F3F4F37832683EA
:1036400014C08B01EC01FB010084F185E02D09958C
:10365000892BE1F6D80116968D919C9117970196CA
:1036600017969C938E931697CE01DF91CF911F9161
:103670000F910895AEE0B0E0E0E4FBE10C94C619D0
:103680000D891E8986E08C831A8309838FEF9FE75B
:103690009E838D83AE01475E5F4F6F89788DCE012B
:1036A00001960E940E16EF81F885E00FF11F10823F
:1036B0002E96E4E00C94E219AEE0B0E0E2E6FBE125
:1036C0000C94C81985E08C838B899C899A838983A3
:1036D000AE01495E5F4F6D897E89CE0101960E94E1
:1036E0006F1D2E96E2E00C94E419FA01AA27283007
:1036F00051F1203181F1E8946F936E7F6E5F7F4FBF
:103700008F4F9F4FAF4FB1E03ED0B4E03CD0670F3A
:10371000781F891F9A1FA11D680F791F8A1F911D8D
:10372000A11D6A0F711D811D911DA11D20D009F4DD
:1037300068943F912AE0269F11243019305D31931F
:10374000DEF6CF010895462F4770405D4193B3E008
:103750000FD0C9F7F6CF462F4F70405D4A3318F0AF
:10376000495D31FD4052419302D0A9F7EACFB4E060
:10377000A6959795879577956795BA95C9F7009718
:103780006105710508959B01AC010A2E06945795B9
:10379000479537952795BA95C9F7620F731F841F10
:1037A000951FA01D089520FD09C0FC0123FD05C043
:1037B00022FF02C07383628351834083089544FDD6
:1037C00017C046FD17C0AB01BC01DA01FB01AA0F0F
:1037D000BB1FEE1FFF1F1094D1F74A0F5B1F6E1F18
:1037E0007F1FCB01BA01660F771F881F991F09C081
:1037F00033E001C034E0660F771F881F991F3150F6
:10380000D1F7620F711D811D911D08950F931F93B4
:10381000CF93DF938C01C8010E94941EEC0197FDA9
:1038200008C00E94801E892BB1F7B801CE010E940A
:10383000D21ECE01DF91CF911F910F9108958F92EB
:103840009F92AF92BF92EF92FF920F931F93CF93ED
:10385000DF938C01D62F7A01B22E0E94941E9C0118
:1038600033272B32310531F02D32310561F48B2DA8
:103870008068B82ED15011F480E068C0C8010E9461
:10388000941E97FDF9CFCB2DCD7F2B2D207309F5FD
:103890008033F9F4AA24AA94AD0E09F443C0C801F8
:1038A0000E94941E97FD3EC09C012F7D3327283532
:1038B000310549F4C264D250A9F1C8010E94941E96
:1038C00097FF07C02FC0B6FE02C0C26001C0C26130
:1038D000DA2D812C912C540120ED280F283080F016
:1038E000C4FF04C0B8010E94D21E19C02A3040F0A3
:1038F000C6FFF8CF2F7D3FEE320F363098F72750B6
:103900004C2FC501B4010E94DF1B4B015C01C2605A
:10391000D15059F0C8010E94941E97FFDDCFC1FD20
:1039200004C0AACF812C912C5401C7FF08C0B094C9
:10393000A09490948094811C911CA11CB11C2C2FEC
:10394000B501A401C7010E94D31B81E0DF91CF9193
:103950001F910F91FF90EF90BF90AF909F908F902D
:103960000895A0E2B0E0E7EBFCE10C94BB195C0128
:10397000962E7A01F9018E010F5F1F4F680180E2D8
:10398000D8011D928A95E9F7D50113968C9080E0B5
:1039900090E0612C712C30E061E070E083FC2591B7
:1039A00083FE21918F01522E211103C080E090E00F
:1039B00092C02E3511F4009751F1432F50E0481773
:1039C00059073CF42D3559F12D3219F4772009F1BE
:1039D00003C0772009F46AC0452D46954695469563
:1039E000D601A40FB11D452D47708B0102C0000FF9
:1039F000111F4A95E2F7A8015C91452B4C93651481
:103A000059F0561410F45394E7CF5A94E5CF31E0AF
:103A100004C07724739401C0712C0196BFCF772026
:103A200019F08E8180628E83311103C088248394C3
:103A300017C0F6019E012F5D3F4F808180958193D5
:103A40002E173F07D1F7F2CFE114F10429F0D70187
:103A50008C93F70131967F019A94812C9920F9F08B
:103A6000C5010E94941E97FD18C0FC01FF2723E0AA
:103A7000F595E7952A95E1F7EC0DFD1D208130E0E5
:103A8000AC014770552702C0359527954A95E2F756
:103A900020FDDACFB5010E94D21E811087CFE1143C
:103AA000F10411F0D7011C92C80115C0422F4695B0
:103AB00046954695D601A40FB11D422F47708B0144
:103AC00002C0000F111F4A95E2F7A8015C91452B37
:103AD0004C93622EA2CFA096EFE00C94D719A0E0F1
:103AE000B0E0E5E7FDE10C94BB196C01EB015A0174
:103AF000FC0117821682512CF601E380FE01E3FCE3
:103B00008591E3FE8191182FEF01882309F4EEC01F
:103B100090E00E94801E892B21F0C6010E94061CA5
:103B2000EBCF153241F4FE01E3FC1591E3FE119158
:103B3000EF01153281F4C6010E94941E97FDD4C096
:103B4000412F50E09C01332724173507A9F2B60115
:103B50000E94D21ECBC01A3239F4E3FC1591E3FE69
:103B60001191EF0101E001C000E0F12C20ED210FE7
:103B70002A3080F402606F2D70E080E090E040E237
:103B80000E94DF1BF62EFE01E3FC1591E3FE11916E
:103B9000EF01ECCF01FF03C0F11003C0A7C0FF2469
:103BA000FA94183619F01C3651F010C0FE01E3FCEF
:103BB0001591E3FE1191EF01183641F4086004609D
:103BC000FE01E3FC1591E3FE1191EF01112309F4CD
:103BD0008DC0612F70E08AE691E00E94891E892BDA
:103BE00009F484C000FD07C0F50180809180C50103
:103BF00002965C0102C0812C912C1E3651F4F60114
:103C00004681578160E070E0202FC4010E94D31BE1
:103C100073CF1336A9F401FD02C0FF24F394C6014B
:103C20000E94941E97FD60C08114910429F0F40154
:103C30008083C40101964C01FA94F110F0CF50C07A
:103C40001B3559F49E01A4016F2DC6010E94B11CC1
:103C5000EC01892B09F044C03EC0C6010E94061C3D
:103C600097FD42C01F3661F128F4143639F1193638
:103C700051F128C0133771F0153701F123C08114B9
:103C8000910429F0F4016082C40101964C01FA9478
:103C9000FF2071F0C6010E94941E3C0197FD08C0F0
:103CA0000E94801E892B59F3B601C3010E94D21EC7
:103CB00081149104A9F0F401108212C0006203C0C3
:103CC000006101C00064202FA4016F2DC6010E9475
:103CD0001F1C811105C0F6018381807329F406C081
:103CE00000FD0ACF539408CF552019F0852D90E0A0
:103CF00002C08FEF9FEFCDB7DEB7EFE00C94D7197E
:103D000091110C94EB1E803219F089508550C8F740
:103D10000895FC010590061621F00020D9F7C00196
:103D200008953197CF010895CF93DF93EC012B8154
:103D300020FF33C026FF0AC02F7B2B838E819F81FB
:103D400001969F838E838A8190E029C022FF0FC055
:103D5000E881F9818081082E000C990B009719F4F5
:103D600020622B831AC03196F983E8830EC0EA855E
:103D7000FB85099597FF09C02B81019611F080E220
:103D800001C080E1822B8B8308C02E813F812F5F91
:103D90003F4F3F832E83992702C08FEF9FEFDF9124
:103DA000CF910895FB01238120FF12C026FD10C092
:103DB0008F3F3FEF930761F082832F7D2064238341
:103DC0002681378121503109378326839927089529
:103DD0008FEF9FEF0895992788270895F894FFCFD4
:103DE0004080B3B4012F466F6E742E747874002532
:103DF000732000CFEEE6E0EBF3E9F1F2E020EFEE26
:103E0000E4EEE6E4E8F2E52E00C8E4B8F220E7E0EC
:103E1000E3F0F3E7EAE02E2E2E00252E3266200096
:103E2000252E316600252E31662000257800484F6A
:103E30004D45004D4554454F53544154494F4E0054
:043E400025640000F5
:00000001FF
