:100000000C94BB000C94A9090C94D8000C94D80053
:100010000C94D8000C94D8000C94D8000C94D80000
:100020000C94D8000C94D8000C94D8000C94D005F3
:100030000C94D8000C94D8000C94D8000C94D800E0
:100040000C94D8000C94D8000C94D8000C94D800D0
:100050000C94D8000C94D8000C94D8000C94D800C0
:100060000C94D8000C94D8006E616E00696E660026
:1000700000407A10F35A00A0724E18090010A5D45F
:10008000E80000E87648170000E40B54020000CABC
:100090009A3B000000E1F505000080969800000002
:1000A00040420F000000A086010000001027000061
:1000B0000000E803000000006400000000000A00E7
:1000C000000000000100000000002C76D888DC67EA
:1000D0004F0823DFC1DFAE59E1B1B796E5E3E45342
:1000E000C63AE651997696E8E6C28426EB898C9B5F
:1000F00062ED407C6FFCEFBC9C9F40F2BAA56FA5FF
:10010000F490055A2AF75C936B6CF9676DC11BFC80
:10011000E0E40D47FEF520E6B500D0ED902E03009B
:10012000943577050080841E080000204E0A0000E8
:1001300000C80C333333330F986E12831141EF8DA7
:100140002114893BE65516CFFEE6DB18D1844B38E7
:100150001BF77C1D901DA4BBE424203284725E2218
:100160008100C9F124ECA1E53D276364696E6F70DD
:10017000737578585B0011241FBECFEFD8E0DEBF47
:10018000CDBF11E0A0E0B1E0E0E8F9E202C00590E7
:100190000D92A832B107D9F726E0A8E2B1E001C07C
:1001A0001D92A93FB207E1F70E9474060C94BE1499
:1001B0000C940000CF93C82FC295C07F8091280176
:1001C0008460809328016EE40E946B0A87EC90E0C3
:1001D0000197F1F700C00000809128016EE48C2B9C
:1001E0000E946B0A809128018B7F809328016EE426
:1001F0000E946B0A87EC90E00197F1F700C00000C5
:10020000CF910895CF93C82F611109C08091280123
:100210008E7F809328016EE40E946B0A08C0809153
:1002200028018160809328016EE40E946B0A8C2F64
:1002300082958F700E94DA008C2F0E94DA00CF9195
:10024000089561E00E940201089590E4699F800D85
:10025000112460E080680E94020108952FEF83EF6F
:1002600091E0215080409040E1F700C0000083E021
:100270000E94DA0020ED2A95F1F782E00E94DA0070
:100280008FE99FE00197F1F700C0000060E088E28D
:100290000E94020190ED9A95F1F760E088E20E94D9
:1002A000020125EC2A95F1F7000060E088E00E9449
:1002B000020185EC8A95F1F7000060E081E00E9480
:1002C00002018FE99FE00197F1F700C0000060E0B4
:1002D00086E00E9402018FE99FE00197F1F700C0DC
:1002E000000060E08CE00E9402018FE99FE001972E
:1002F000F1F700C0000080912801886080932801F8
:100300006EE40E946B0A809128018D7F8093280102
:100310006EE40E946B0A08950F931F93CF93DF93AF
:100320008C01C0E0D0E003C00E9421012196F801B9
:10033000EC0FFD1F80818111F7CFDF91CF911F91CD
:100340000F91089560E081E00E9402018FE39FE138
:100350000197F1F700C0000008959091040169171A
:10036000E0F4909105018917C0F4962F9695969523
:100370009695E82FF0E080E8989FE00DF11D11249C
:10038000677081E090E002C0880F991F6A95E2F7DC
:10039000ED50FD4F9081892B8083089585E08A95EB
:1003A000F1F700008BB180628BB985E08A95F1F797
:1003B00000008BB18F7D8BB985E08A95F1F7000045
:1003C00008951F93CF93DF93182F8BB180688BB95B
:1003D0008BB180648BB90E94CE010E94CE010E9435
:1003E000CE010E94CE010E94CE018BB18F7B8BB9D2
:1003F0000E94CE018BB180648BB90E94CE018BB17B
:100400008F7B8BB90E94CE01C0E0D0E01CC0CE0132
:100410000497049730F48BB18F7B8BB90E94CE0187
:1004200011C0812F807841F0803859F48BB18064FD
:100430008BB90E94CE0105C08BB18F7B8BB90E9416
:10044000CE01110F2196CC30D1050CF38BB18F7BEF
:100450008BB90E94CE010E94CE010E94CE010E9463
:10046000CE018BB18F778BB9DF91CF911F9108951A
:100470000F931F93CF93DF938C01C0E0D0E003C0B4
:100480000E94E1012196F801EC0FFD1F808181118E
:10049000F7CFDF91CF911F910F9108951F93CF93C5
:1004A000DF93182F8BB180688BB98BB180648BB9C7
:1004B0000E94CE010E94CE010E94CE010E94CE0178
:1004C0000E94CE018BB18F7B8BB90E94CE018BB184
:1004D0008F7B8BB90E94CE018BB18F7B8BB90E9431
:1004E000CE01C0E0D0E01CC0CE010497049730F4E8
:1004F0008BB18F7B8BB90E94CE0111C0812F807888
:1005000041F0803859F48BB180648BB90E94CE01E0
:1005100005C08BB18F7B8BB90E94CE01110F219644
:10052000CC30D1050CF38BB18F7B8BB90E94CE01FF
:100530000E94CE010E94CE010E94CE018BB18F7726
:100540008BB9DF91CF911F910895882399F084E3AF
:100550000E944E028FE99FE00197F1F700C0000072
:1005600086E30E944E028FE99FE00197F1F700C0F9
:100570000000089580E30E944E028FE99FE00197FA
:10058000F1F700C0000008958F929F92AF92BF9242
:10059000DF92EF92FF920F931F93CF93DF937C0133
:1005A000D12C31C18FE18D1548F08D2D80680E94CE
:1005B0004E02802F80680E944E0209C080EE8D0D91
:1005C00080680E944E02802F88680E944E02CD2DC6
:1005D000C695C695C695D0E0CC0FDD1FCC0FDD1FAC
:1005E000CC0FDD1FC00FD11DC295D295D07FDC2767
:1005F000C07FDC27CE0DDF1D8880912C1D2D17704C
:10060000012E02C0959487940A94E2F79694982C50
:10061000882497948794A980B12C012E02C0B594A8
:10062000A7940A94E2F781E0A822BB240024B694A0
:10063000A7940794B694A7940794BA2CA02CAA81E7
:10064000B0E0012E02C0B595A7950A94E2F7A1701B
:10065000BB27AA0FBB1FA295B295B07FBA27A07F78
:10066000BA27EB81F0E0012E02C0F595E7950A94D8
:10067000E2F7E170FF27E295F295F07FFE27E07F39
:10068000FE276C8170E0012E02C0759567950A9473
:10069000E2F761707727660F771F660F771F660F87
:1006A000771F4D8150E0012E02C0559547950A9461
:1006B000E2F741705527440F551F440F551F2E81F7
:1006C00030E0012E02C0359527950A94E2F721709B
:1006D0003327220F331F8F8190E0012E02C09595A2
:1006E00087950A94E2F7A828AA29EA2B6E2B462BB5
:1006F000242B8170822B0E94E1018884912C012E91
:1007000002C0959487940A94E2F79694982C8824D2
:1007100097948794A984B12C012E02C0B594A79414
:100720000A94E2F781E0A822BB240024B694A7949F
:100730000794B694A7940794BA2CA02CAA85B0E08D
:10074000012E02C0B595A7950A94E2F7A170BB27C8
:10075000AA0FBB1FA295B295B07FBA27A07FBA2778
:10076000EB85F0E0012E02C0F595E7950A94E2F7DB
:10077000E170FF27E295F295F07FFE27E07FFE27EC
:100780006C8570E0012E02C0759567950A94E2F7BA
:1007900061707727660F771F660F771F660F771FC9
:1007A0004D8550E0012E02C0559547950A94E2F719
:1007B00041705527440F551F440F551F2E8530E0BB
:1007C000012E02C0359527950A94E2F72170332750
:1007D000220F331FCF85D0E002C0D595C7951A955B
:1007E000E2F7882D8A298A2B8E2B862B842B822B4D
:1007F000C1708C2B0E94E1010F5F01C000E0083046
:1008000008F4D0CED3948FE38D15C0F7DF91CF914C
:100810001F910F91FF90EF90DF90BF90AF909F904E
:100820008F90089581E00E944E028FE39CE901972A
:10083000F1F700C0000008952FEF83EF91E0215001
:1008400080409040E1F700C000008CE00E944E0222
:100850008FE891E00197F1F700C000000E941204B8
:1008600086E00E944E028FE39CE90197F1F700C0F9
:10087000000008956130710541F068F06230710543
:1008800031F06330710529F007C090E905C098E8A0
:1008900003C098E901C090E8892B0E944E02089598
:1008A0008F929F92AF92BF92CF92DF92EF92FF9280
:1008B0000F931F93CF93DF93C82FD62FB42E822E82
:1008C000481728F0C42ED12CC81AD10804C0C82E4D
:1008D000D12CC41AD1088D1628F0E82CF12CED1A71
:1008E000F10804C0ED2EF12CE818F108CB1518F42E
:1008F000AA24A39402C0AA24AA94D81518F499246F
:10090000939402C099249A9486010E191F096D2FA1
:100910008C2F0E94AD01CB1102C0D815A1F0C801E7
:10092000880F991F222733272E193F0928173907C7
:100930001CF40E191F09CA0D8C159D0544F70C0DEA
:100940001D1DD90DE4CFDF91CF911F910F91FF9025
:10095000EF90DF90CF90BF90AF909F908F900895D1
:10096000EF92FF920F931F93CF93DF937C018B0144
:10097000E9019C01240F351F8091050190E02817A3
:10098000390718F0AC014E195F098091040190E01D
:1009900098012C0F3D1F2817390718F0EC01C01BD8
:1009A000D10BDE2DD40F202F4D2F602F8E2D0E94C6
:1009B0005004C00F2C2F4D2F6C2F8E2D0E945004F1
:1009C0002C2F4E2D602F8E2D0E9450042C2F4D2F3A
:1009D000602F8D2F0E945004DF91CF911F910F91B6
:1009E000FF90EF900895CF92DF92EF92FF92CF9316
:1009F000DF9300D0CDB7DEB7FC0120812223A1F028
:100A00009E012F5F3F4F3F932F9329E031E03F93AB
:100A10002F939F938F930E942C110F900F900F9004
:100A20000F900F900F9002C01A82198223EC35EFBD
:100A300048EC50E460910001709101018091020145
:100A4000909103010E94AD0B6B017C0169817A8159
:100A5000072E000C880B990B0E94210BA701960111
:100A60000E94AD0B20E030E040E85EE30E94AD0B59
:100A70000F900F90DF91CF91FF90EF90DF90CF908C
:100A80000895CF93DF9300D0CDB7DEB7FC0120816E
:100A90002223A1F09E012F5F3F4F3F932F9329E028
:100AA00031E03F932F939F938F930E942C110F90CF
:100AB0000F900F900F900F900F9002C01A82198222
:100AC00069817A81072E000C880B990B0E94210BFB
:100AD0002DEC3CEC4CE150E40E94AD0B20E030E00A
:100AE00040E450E40E94AD0B20E030E040E85AE3DF
:100AF0000E94AD0B0F900F90DF91CF910895CF938F
:100B0000DF9300D0CDB7DEB7FC0120812223A1F016
:100B10009E012F5F3F4F3F932F9329E031E03F939A
:100B20002F939F938F930E942C110F900F900F90F3
:100B30000F900F900F9002C01A82198269817A81FA
:100B4000CB01880F991F680F791F072E000C880BA7
:100B5000990B0E94210B2DEC3CEC4CE150E40E94DF
:100B6000AD0B20E030E040EA55E40E94AD0A0F9062
:100B70000F90DF91CF910895E1E8F0E080818860E7
:100B80008083AFE6B0E08C9182608C9384EF809399
:100B9000890084E280938800808185608083089545
:100BA0001F920F920FB60F9211242F933F934F93E2
:100BB0005F936F937F938F939F93AF93BF93EF93C5
:100BC000FF9380918F02882309F44CC080912B02FF
:100BD000882309F447C080919501882309F442C015
:100BE000809163018823F1F180916D018823D1F117
:100BF00080918B018823B1F18FE892E09F938F93CE
:100C00008CE091E09F938F9381E391E09F938F938A
:100C10000E940A1165E971E081E391E00E94B81039
:100C200063E671E081E391E00E94B8106BE272E04C
:100C300081E391E00E94B8106DE671E081E391E0FC
:100C40000E94B8106BE871E081E391E00E94B81057
:100C500081E391E00E94920A0F900F900F900F9005
:100C60000F900F90FF91EF91BF91AF919F918F9156
:100C70007F916F915F914F913F912F910F900FBE98
:100C80000F901F90189584B18E6284B985B1837DD1
:100C900085B98AB18B7F8AB98BB184608BB985B1F4
:100CA000846085B980E58CBD08958AB180618AB978
:100CB0008BB18F7E8BB98AB180688AB98BB18F77FF
:100CC0008BB98AB180628AB98BB18F7D8BB98AB1B9
:100CD00080648AB98BB18F7B8BB908958EBD0DB4BA
:100CE00007FEFDCF8EB508950E9455068BB1806139
:100CF0008BB90E9443060E94BC050E94510A0E94C3
:100D00002E010E941C0481E00E94A5022FE330E026
:100D10004FE750E060E070E080E090E00E94B004B7
:100D200083EF92E00E94C40280E00E94A50280E16D
:100D300090E00E947C0A2FEF83ED90E321508040E9
:100D40009040E1F700C000000E94050A0E94A20145
:100D500060E070E080E00E94250180E191E00E9467
:100D60008C012FEF83ED90E3215080409040E1F71C
:100D700000C000000E94A20160E070E080E00E94DC
:100D8000250182E08093690081E08DBB78942FEF8C
:100D900083ED90E3215080409040E1F700C00000D7
:100DA0008BB18F7E8BB90E94A20160E070E080E081
:100DB0000E94250160E070E080E00E943A040E94F9
:100DC00087078FE892E00E948C018FE892E00E94F2
:100DD000380260E070E086E00E94250160E070E08B
:100DE00083E00E943A0487EC91E00E94F3049F9311
:100DF0008F937F936F93C6E1D1E0DF93CF9385E923
:100E000091E09F938F930E940A1185E991E00E94DF
:100E10008C0185E991E00E94380260E070E08CE08E
:100E20000E94250160E070E086E00E943A0487E7B6
:100E300091E00E947F059F938F937F936F93DF9341
:100E4000CF9383E691E09F938F930E940A1183E6EC
:100E500091E00E948C0183E691E00E94380261E0FB
:100E600070E080E00E94250161E070E080E00E9477
:100E70003A048BE292E00E948C018BE292E00E94A5
:100E8000380261E070E086E00E94250161E070E0D8
:100E900083E00E943A048BE891E00E948C018BE889
:100EA00091E00E94380261E070E08AE00E94250132
:100EB00061E070E086E00E943A0481E891E00E94DF
:100EC00041059F938F937F936F93DF93CF938DE62D
:100ED00091E09F938F930E940A118DE691E00E940A
:100EE0008C018DE691E00E9438022FEF81EE94E0B4
:100EF000215080409040E1F700C000008DB79EB7C0
:100F000048960FB6F8949EBF0FBE8DBF4CCFCF93BF
:100F1000DF938091F306813009F06BC18091F40674
:100F2000813009F059C0EFE8F2E001900020E9F7C4
:100F30003197AF014F585240440F551F60E070E0A9
:100F40008FE892E00E94B110E4EFF6E08181C28167
:100F5000D0E0DC2FCC27C82BBE010D2E000C880B57
:100F6000990B0E94210B20E030E040E251E40E9406
:100F7000AD0A60932D0170932E0180932F01909301
:100F80003001DD235CF4DC01CB01B05880932D01EE
:100F900090932E01A0932F01B093300180913001E6
:100FA0008F9380912F018F9380912E018F93809149
:100FB0002D018F938CE191E09F938F938FE892E0C6
:100FC0009F938F930E940A118DB79EB708960FB614
:100FD000F8949EBF0FBE8DBF8091F406853009F056
:100FE00047C0CBE2D2E0FE0101900020E9F7319743
:100FF000AF014B525240440F551F60E070E0CE01EC
:101000000E94B110E4EFF6E08181628170E0762FFA
:101010006627682B072E000C880B990B0E94210B6A
:1010200020E030E040E251E40E94AD0A262F372F45
:10103000462F572F682F792F4093290150932A016B
:1010400060932B0170932C019F938F933F932F9369
:1010500081E291E09F938F93DF93CF930E940A11D7
:101060008DB79EB708960FB6F8949EBF0FBE8DBF82
:10107000C091F406C23061F5E7ECF1E00190002088
:10108000E9F73197AF01475C5140440F551F60E0CD
:1010900070E087EC91E00E94B11020E00BC0822F3D
:1010A00090E0FC01EB50F94F3081FC01E953FE4F19
:1010B00030832F5F822F90E0E4EFF6E00190002074
:1010C000E9F73197E45FF64031978E179F0738F3C1
:1010D000C33089F5EBE8F1E001900020E9F73197A2
:1010E000AF014B585140440F551F60E070E08BE852
:1010F00091E00E94B11020E00BC0822F90E0FC0133
:10110000EB50F94F3081FC01E557FE4F30832F5FE4
:10111000822F90E0E4EFF6E001900020E9F73197AC
:10112000E45FF64031978E179F0738F3FC01E457D0
:10113000FE4F80E28083C43061F5E1E8F1E0019088
:101140000020E9F73197AF0141585140440F551F36
:1011500060E070E081E891E00E94B11020E00BC0F7
:10116000822F90E0FC01EB50F94F3081FC01EF57EA
:10117000FE4F30832F5F822F90E0E4EFF6E0019086
:101180000020E9F73197E45FF64031978E179F070B
:1011900038F3C63061F5E7E7F1E001900020E9F7A8
:1011A0003197AF0147575140440F551F60E070E041
:1011B00087E791E00E94B11020E00BC0822F90E001
:1011C000FC01EB50F94F3081FC01E958FE4F3083B0
:1011D0002F5F822F90E0E4EFF6E001900020E9F726
:1011E0003197E45FF64031978E179F0738F31092DE
:1011F000F306DF91CF91089585B18B7F85B982EE9B
:1012000090E00E946E0685E08A95F1F7000085B1B6
:10121000846085B9089585B18B7F85B981EE90E0B2
:101220000E946E0685E08A95F1F7000085B1846022
:1012300085B9089585B18B7F85B980E590E00E94DE
:101240006E0685E08A95F1F7000083E790E00E9442
:101250006E0685B1846085B90895EF92FF920F9371
:101260001F93CF93DF938B01C42F95B19B7F95B9CB
:1012700090E00E946E060CC078018FEFE81AF80A21
:101280008FEF90E00E946E06F8018083CD2F8701DA
:10129000DFEFDC0FC111F0CF85B1846085B9DF913C
:1012A000CF911F910F91FF90EF900895EF92FF92D1
:1012B0000F931F93CF93DF938B01C42F806295B15F
:1012C0009B7F95B990E00E946E0685E08A95F1F7C4
:1012D00000000BC07801EFEFEE1AFE0AF8018081E2
:1012E00090E00E946E06CD2F8701DFEFDC0FC11169
:1012F000F1CF85B1846085B9DF91CF911F910F91B6
:10130000FF90EF900895CF93C62F806295B19B7F99
:1013100095B990E00E946E068C2F90E00E946E06B8
:1013200085B1846085B9CF910895CF93C82F85B1D9
:101330008B7F85B98C2F90E00E946E06C73021F01C
:101340008FEF90E00E946E0695B1946095B9CF91B1
:1013500008951F920F920FB60F9211242F933F936F
:101360004F935F936F937F938F939F93AF93BF93AD
:10137000EF93FF938FEA94E00197F1F700C000002C
:101380008BB180618BB98FEA94E00197F1F700C0CF
:1013900000008BB18F7E8BB987E00E94950986FF94
:1013A0000AC045E064EF76E081E60E942D0960E422
:1013B00087E00E94830981E08093F306FF91EF911B
:1013C000BF91AF919F918F917F916F915F914F915D
:1013D0003F912F910F900FBE0F901F90189580E0B6
:1013E0000E949509682F636080E00E94830985B19F
:1013F000826085B987E592E00197F1F700C00000AF
:101400000E94FC080E940B09089585B18D7F85B963
:101410008FE19EE40197F1F700C000006AE080E0F0
:101420000E9483098FE19EE40197F1F700C000005C
:1014300062E081E00E94830962E082E00E94830909
:1014400061E083E00E9483096FE584E00E948309E4
:101450000E941A0960E08DE10E94830960E08CE13E
:101460000E94830960E787E00E9483096CE485E0BD
:101470000E94830966E086E00E94830943E066E0FB
:1014800071E080E10E94560943E066E071E08BE084
:101490000E94560965E082E10E9483090E94EF09DB
:1014A000089588E48093B800089584EA8093BC008E
:1014B0008091BC008823E4F7089584E98093BC0000
:1014C00008958093BB0084E88093BC008091BC00A9
:1014D0008823E4F70895CF93DF93C82FD62F0E9477
:1014E000550A8D2F0E94610A8C2F0E94610A0E946A
:1014F0005D0ADF91CF9108959093C5008093C40059
:10150000E1ECF0E088E18083808180688083E0EC1A
:10151000F0E0808182608083E2ECF0E080818E6088
:1015200080830895DC0180E00BC09091C00095FF9E
:10153000FCCFFD01E20FF31F90819093C6008F5FF7
:10154000282F30E0FD0101900020E9F73197EA1BD8
:10155000FB0B2E173F0748F308950E94C10A0C9415
:10156000730B0E946C0B58F00E94650B40F029F43D
:101570005F3F29F00C945C0B51110C94A70B0C9459
:10158000620B0E94840B68F39923B1F3552391F306
:10159000951B550BBB27AA2762177307840738F0E2
:1015A0009F5F5F4F220F331F441FAA1FA9F335D03F
:1015B0000E2E3AF0E0E832D091505040E695001CF3
:1015C000CAF72BD0FE2F29D0660F771F881FBB1FAD
:1015D000261737074807AB07B0E809F0BB0B802D8B
:1015E000BF01FF2793585F4F3AF09E3F510578F0B7
:1015F0000C945C0B0C94A70B5F3FE4F3983ED4F380
:10160000869577956795B795F7959F5FC9F7880F8A
:10161000911D9695879597F90895E1E0660F771FDC
:10162000881FBB1F621773078407BA0720F0621B6D
:10163000730B840BBA0BEE1F88F7E0950895E894BE
:1016400009C097FB3EF490958095709561957F4F0A
:101650008F4F9F4F9923A9F0F92F96E9BB279395B8
:10166000F695879577956795B795F111F8CFFAF4C8
:10167000BB0F11F460FF1BC06F5F7F4F8F4F9F4FF9
:1016800016C0882311F096E911C0772321F09EE857
:10169000872F762F05C0662371F096E8862F70E0BD
:1016A00060E02AF09A95660F771F881FDAF7880F97
:1016B0009695879597F9089597F99F6780E870E068
:1016C00060E008959FEF80EC089500240A941616B8
:1016D000170618060906089500240A941216130620
:1016E000140605060895092E0394000C11F48823AE
:1016F00052F0BB0F40F4BF2B11F460FF04C06F5FCA
:101700007F4F8F4F9F4F089557FD9058440F551F9F
:1017100059F05F3F71F04795880F97FB991F61F073
:101720009F3F79F087950895121613061406551FEA
:10173000F2CF4695F1DF08C0161617061806991F56
:10174000F1CF86957105610508940895E894BB274B
:1017500066277727CB0197F908950E94C00B0C9458
:10176000730B0E94650B38F00E946C0B20F09523E0
:1017700011F00C945C0B0C94620B11240C94A70BCD
:101780000E94840B70F3959FC1F3950F50E0551F95
:10179000629FF001729FBB27F00DB11D639FAA27C6
:1017A000F00DB11DAA1F649F6627B00DA11D661F15
:1017B000829F2227B00DA11D621F739FB00DA11D36
:1017C000621F839FA00D611D221F749F3327A00DF0
:1017D000611D231F849F600D211D822F762F6A2F8C
:1017E00011249F5750409AF0F1F088234AF0EE0FF1
:1017F000FF1FBB1F661F771F881F91505040A9F71E
:101800009E3F510580F00C945C0B0C94A70B5F3F3E
:10181000E4F3983ED4F3869577956795B795F79559
:10182000E7959F5FC1F7FE2B880F911D96958795D1
:1018300097F90895A0E1B0E0E0E2FCE00C94970F86
:101840007C011B016A01FC0117821682838181FFE2
:1018500044C39E012F5F3F4F3901F7019381F1018E
:1018600093FD859193FF81911F01882309F431C372
:10187000853239F493FD859193FF81911F01853263
:1018800039F4B70190E00E94CE1056016501E5CF12
:1018900010E0512C912CFFE1F915D8F08B3279F042
:1018A00038F4803279F08332A1F4F92DF0612EC042
:1018B0008D3261F0803369F4292D21602DC0392DDE
:1018C0003260932E892D8460982E2AC0E92DE8601D
:1018D00015C097FC2DC020ED280F2A3088F496FE05
:1018E00006C03AE0139F200D1124122F19C08AE080
:1018F000589E200D1124522EE92DE0629E2E10C01C
:101900008E3231F496FCE5C2F92DF0649F2E08C0AA
:101910008C3621F4292D2068922E02C0883641F49D
:10192000F10193FD859193FF81911F018111B3CF47
:101930009BEB980F933020F4992D9061805E07C047
:101940009BE9980F933008F066C1992D9F7E96FF12
:1019500016E09F73992E853619F49064992E08C06D
:10196000863621F4392F3068932E02C011111150A0
:1019700097FE07C01C3350F444244394410E27E0E3
:101980000BC0183038F027E017E005C027E09CE3D3
:10199000492E02C0212F412C560184E0A80EB11C13
:1019A000F6016081718182819381042DA3010E94DF
:1019B000CE0F6C01F981FC87F0FF02C0F3FF06C077
:1019C00091FC06C092FE06C000E205C00DE203C015
:1019D0000BE201C000E08C858C7019F001115AC235
:1019E0009BC297FE10C04C0CFC85F4FF04C08A819A
:1019F000813309F44A94141474F528E0241578F519
:101A000088E0482E2CC096FC2AC0812F90E08C15CF
:101A10009D059CF03CEFC3163FEFD30674F0892D73
:101A20008068982E0AC0E2E0F0E0EC0FFD1FE10FA5
:101A3000F11D8081803319F411501111F4CF97FEFC
:101A40000EC044244394410E812F90E0C816D9065D
:101A50002CF41C1904C04424439401C010E097FEE8
:101A600006C01C141D0434F4C601019605C085E0AF
:101A700090E002C081E090E001110196112331F065
:101A8000212F30E02F5F3F4F820F931F252D30E035
:101A90008217930714F4581A01C0512C892D8970AC
:101AA00049F4552039F0B70180E290E00E94CE1051
:101AB0005A94F7CF002329F0B701802F90E00E94BD
:101AC000CE1093FC09C0552039F0B70180E390E0B7
:101AD0000E94CE105A94F7CF97FE4CC04601D7FE15
:101AE00002C0812C912CC60188199909F301E80FD5
:101AF000F91FFE87ED87960124193109388B2F874E
:101B0000012F10E01195019511093FEF83169306FF
:101B100029F4B7018EE290E00E94CE10C814D904D7
:101B20004CF08F8598898815990524F4ED85FE85FC
:101B3000818101C080E3F1E08F1A91082D853E85F7
:101B40002F5F3F4F3E872D87801691062CF0B701FF
:101B500090E00E94CE10D9CFC814D90441F49A81E4
:101B6000963320F4953319F43C8534FF81E3B701B3
:101B700090E04EC08A81813319F09C859F7E9C87BE
:101B8000B70190E00E94CE10111105C094FC18C05E
:101B900085E690E017C0B7018EE290E00E94CE107B
:101BA0001E5F82E001E0080FF301E80FF11D808164
:101BB000B70190E00E94CE10802F0113F3CFE6CF43
:101BC00085E490E0B7010E94CE10D7FC06C0C11496
:101BD000D10441F4EC85E4FF05C0D194C194D1084F
:101BE0008DE201C08BE2B70190E00E94CE1080E34D
:101BF0002AE0C216D1042CF08F5FFAE0CF1AD10888
:101C0000F7CFB70190E00E94CE10B701C601C09691
:101C10000E94CE1054C1833631F0833779F083357A
:101C200009F056C020C0560132E0A30EB11CF601E7
:101C30008081898301E010E0630112C05601F2E067
:101C4000AF0EB11CF601C080D18096FE03C0612F9B
:101C500070E002C06FEF7FEFC6010E94C3108C01DD
:101C6000F92DFF7714C0560122E0A20EB11CF60137
:101C7000C080D18096FE03C0612F70E002C06FEF7C
:101C80007FEFC6010E94A6108C01F92DF0689F2EEF
:101C9000F3FD1AC0852D90E008171907A8F4B701C5
:101CA00080E290E00E94CE105A94F4CFF60197FCA7
:101CB000859197FE81916F01B70190E00E94CE104F
:101CC00051105A94015011090115110579F7F7C007
:101CD000843611F0893661F5560197FE09C024E07B
:101CE000A20EB11CF60160817181828193810AC0CC
:101CF000F2E0AF0EB11CF60160817181072E000C7D
:101D0000880B990BF92DFF769F2E97FF09C09095B0
:101D10008095709561957F4F8F4F9F4FF0689F2EF4
:101D20002AE030E0A3010E944511C82EC6183FC02A
:101D3000092D853721F40F7E2AE030E01DC0097F90
:101D40008F3691F018F4883559F0C3C0803719F0F8
:101D5000883711F0BEC0006104FF09C0046007C0ED
:101D600094FE08C0066006C028E030E005C020E10F
:101D700030E002C020E132E0560107FF09C084E0F4
:101D8000A80EB11CF601608171818281938108C027
:101D9000F2E0AF0EB11CF6016081718180E090E04D
:101DA000A3010E944511C82EC6180F77902E96FEEB
:101DB0000BC0092D0E7FC11650F494FE0AC092FC90
:101DC00008C0092D0E7E05C0DC2C092D03C0DC2CBB
:101DD00001C0D12E04FF0DC0FE01EC0DF11D80816C
:101DE000803311F4097E09C002FF06C0D394D39456
:101DF00004C0802F867809F0D39403FD11C000FF42
:101E000006C01C2DD51480F4150D1D190DC0D51458
:101E100058F4B70180E290E00E94CE10D394F7CF3F
:101E2000D51410F45D1801C0512C04FF10C0B70187
:101E300080E390E00E94CE1002FF17C001FD03C0B6
:101E400088E790E002C088E590E0B7010CC0802FE1
:101E5000867859F001FF02C08BE201C080E207FDE5
:101E60008DE2B70190E00E94CE10C11638F4B701A0
:101E700080E390E00E94CE101150F7CFCA94F30196
:101E8000EC0DF11D8081B70190E00E94CE10C110D1
:101E9000F5CF15C0F4E0F51560F584E0581A93FE0F
:101EA0001FC0011127C02C8523FF2AC008E610E0BF
:101EB000392D3071932EF8018491811124C0552061
:101EC00009F4E4CCB70180E290E00E94CE105A946D
:101ED000F6CFF7018681978126C08FEF9FEF23C051
:101EE000B70180E290E00E94CE105A945110F8CFD2
:101EF000D8CF512CB701802F90E00E94CE10D3CFC5
:101F00000CE610E0D5CF91108052B70190E00E940E
:101F1000CE100F5F1F4FCFCF23E0251510F483E0C5
:101F2000BDCF512CC0CF6096E2E10C94B30F2F923D
:101F30003F924F925F926F927F928F929F92AF9259
:101F4000BF92CF92DF92EF92FF920F931F93CF93A6
:101F5000DF93CDB7DEB7CA1BDB0B0FB6F894DEBF3D
:101F60000FBECDBF09942A88398848885F846E8463
:101F70007D848C849B84AA84B984C884DF80EE80AD
:101F8000FD800C811B81AA81B981CE0FD11D0FB6B6
:101F9000F894DEBF0FBECDBFED010895283008F0E4
:101FA00027E03327DA01990F311D87FD91600096F4
:101FB0006105710539F432602E5F3D9330E32A9557
:101FC000E1F708959F3F30F080387105610509F011
:101FD0003C5F3C5F3D93913008F08068911DDF933A
:101FE000CF931F930F93FF92EF92192F987F96959F
:101FF000E92F96959695E90FFF27E653FF4F99270E
:102000003327EE24FF24A701E701059008940794E5
:1020100028F4360FE71EF81E491F511D660F771F63
:10202000881F991F0694A1F70590079428F4E70EDE
:10203000F81E491F561FC11D770F881F991F661F65
:102040000694A1F70590079428F4F80E491F561F2F
:10205000C71FD11D880F991F661F771F0694A1F710
:102060000590079420F4490F561FC71FD81F990FDA
:10207000661F771F881F0694A9F784911095177023
:1020800041F0D695C79557954795F794E7941A95DB
:10209000C1F7E0E7F0E068941590159135916591EE
:1020A000959105907FE27395E118F10A430B560B69
:1020B000C90BD009C0F7E10CF11E431F561FC91F01
:1020C000D01D7EF4703311F48A95E6CFE894015068
:1020D00030F0080F0AF40027021708F4202F239588
:1020E000022F7A3328F079E37D932A95E9F710C01F
:1020F0007D932A9589F60694979567953795179558
:102100001794E118F10A430B560BC90BD00998F04C
:1021100023957E9173957A3308F070E37C932013B6
:10212000B8F77E9170617D9330F0839571E37D9374
:1021300070E32A95E1F71124EF90FF900F911F9122
:10214000CF91DF91992787FD90950895FC01059027
:10215000615070400110D8F7809590958E0F9F1FA9
:102160000895DC0101C06D9341505040E0F708959F
:10217000FB01DC010D900020E9F7119701900D9211
:102180000020E1F70895FC016150704001900110BA
:10219000D8F7809590958E0F9F1F08950F931F93EA
:1021A000CF93DF93FB01238121FD03C08FEF9FEFCE
:1021B0002CC022FF16C046815781248135814217E9
:1021C000530744F4A081B1819D012F5F3F4F3183BC
:1021D00020838C93268137812F5F3F4F378326835F
:1021E00014C08B01EC01FB010084F185E02D099501
:1021F000892BE1F6D80116968D919C91179701963F
:1022000017969C938E931697CE01DF91CF911F91D5
:102210000F910895AEE0B0E0E0E1F1E10C94A50F7C
:102220000D891E8986E08C831A8309838FEF9FE7CF
:102230009E838D83AE01475E5F4F6F89788DCE019F
:1022400001960E941A0CEF81F885E00FF11F1082B1
:102250002E96E4E00C94C10FAEE0B0E0E2E3F1E1D1
:102260000C94A70F85E08C838B899C899A83898342
:10227000AE01495E5F4F6D897E89CE0101960E9455
:102280003F132E96E2E00C94C30FFA01AA272830E0
:1022900051F1203181F1E8946F936E7F6E5F7F4F33
:1022A0008F4F9F4FAF4FB1E03ED0B4E03CD0670FAF
:1022B000781F891F9A1FA11D680F791F8A1F911D02
:1022C000A11D6A0F711D811D911DA11D20D009F452
:1022D00068943F912AE0269F11243019305D319394
:1022E000DEF6CF010895462F4770405D4193B3E07D
:1022F0000FD0C9F7F6CF462F4F70405D4A3318F024
:10230000495D31FD4052419302D0A9F7EACFB4E0D4
:10231000A6959795879577956795BA95C9F700978C
:102320006105710508959B01AC010A2E069457952D
:10233000479537952795BA95C9F7620F731F841F84
:10234000951FA01D089520FD09C0FC0123FD05C0B7
:1023500022FF02C07383628351834083089544FD4A
:1023600017C046FD17C0AB01BC01DA01FB01AA0F83
:10237000BB1FEE1FFF1F1094D1F74A0F5B1F6E1F8C
:102380007F1FCB01BA01660F771F881F991F09C0F5
:1023900033E001C034E0660F771F881F991F31506A
:1023A000D1F7620F711D811D911D08950F931F9329
:1023B000CF93DF938C01C8010E946414EC0197FD58
:1023C00008C00E945014892BB1F7B801CE010E94B9
:1023D000A214CE01DF91CF911F910F9108958F929A
:1023E0009F92AF92BF92EF92FF920F931F93CF9362
:1023F000DF938C01D62F7A01B22E0E9464149C01C7
:1024000033272B32310531F02D32310561F48B2D1C
:102410008068B82ED15011F480E068C0C8010E94D5
:10242000641497FDF9CFCB2DCD7F2B2D207309F5AB
:102430008033F9F4AA24AA94AD0E09F443C0C8016C
:102440000E94641497FD3EC09C012F7D33272835E0
:10245000310549F4C264D250A9F1C8010E94641444
:1024600097FF07C02FC0B6FE02C0C26001C0C261A4
:10247000DA2D812C912C540120ED280F283080F08A
:10248000C4FF04C0B8010E94A21419C02A3040F051
:10249000C6FFF8CF2F7D3FEE320F363098F727502A
:1024A0004C2FC501B4010E94AF114B015C01C26009
:1024B000D15059F0C8010E94641497FFDDCFC1FDCF
:1024C00004C0AACF812C912C5401C7FF08C0B0943E
:1024D000A09490948094811C911CA11CB11C2C2F61
:1024E000B501A401C7010E94A31181E0DF91CF9142
:1024F0001F910F91FF90EF90BF90AF909F908F90A2
:102500000895A0E2B0E0E7E8F2E10C949A0F5C01D4
:10251000962E7A01F9018E010F5F1F4F680180E24C
:10252000D8011D928A95E9F7D50113968C9080E029
:1025300090E0612C712C30E061E070E083FC25912B
:1025400083FE21918F01522E211103C080E090E083
:1025500092C02E3511F4009751F1432F50E04817E7
:1025600059073CF42D3559F12D3219F4772009F132
:1025700003C0772009F46AC0452D469546954695D7
:10258000D601A40FB11D452D47708B0102C0000F6D
:10259000111F4A95E2F7A8015C91452B4C936514F5
:1025A00059F0561410F45394E7CF5A94E5CF31E024
:1025B00004C07724739401C0712C0196BFCF77209B
:1025C00019F08E8180628E83311103C08824839438
:1025D00017C0F6019E012F5D3F4F8081809581934A
:1025E0002E173F07D1F7F2CFE114F10429F0D701FC
:1025F0008C93F70131967F019A94812C9920F9F000
:10260000C5010E94641497FD18C0FC01FF2723E058
:10261000F595E7952A95E1F7EC0DFD1D208130E059
:10262000AC014770552702C0359527954A95E2F7CA
:1026300020FDDACFB5010E94A214811087CFE114EA
:10264000F10411F0D7011C92C80115C0422F469524
:1026500046954695D601A40FB11D422F47708B01B8
:1026600002C0000F111F4A95E2F7A8015C91452BAB
:102670004C93622EA2CFA096EFE00C94B60FA0E090
:10268000B0E0E5E4F3E10C949A0F6C01EB015A0120
:10269000FC0117821682512CF601E380FE01E3FC57
:1026A0008591E3FE8191182FEF01882309F4EEC094
:1026B00090E00E945014892B21F0C6010E94D6118F
:1026C000EBCF153241F4FE01E3FC1591E3FE1191CD
:1026D000EF01153281F4C6010E94641497FDD4C045
:1026E000412F50E09C01332724173507A9F2B6018A
:1026F0000E94A214CBC01A3239F4E3FC1591E3FE18
:102700001191EF0101E001C000E0F12C20ED210F5B
:102710002A3080F402606F2D70E080E090E040E2AB
:102720000E94AF11F62EFE01E3FC1591E3FE11911C
:10273000EF01ECCF01FF03C0F11003C0A7C0FF24DD
:10274000FA94183619F01C3651F010C0FE01E3FC63
:102750001591E3FE1191EF01183641F40860046011
:10276000FE01E3FC1591E3FE1191EF01112309F441
:102770008DC0612F70E08AE691E00E945914892B88
:1027800009F484C000FD07C0F50180809180C50177
:1027900002965C0102C0812C912C1E3651F4F60188
:1027A0004681578160E070E0202FC4010E94A31190
:1027B00073CF1336A9F401FD02C0FF24F394C601C0
:1027C0000E94641497FD60C08114910429F0F40103
:1027D0008083C40101964C01FA94F110F0CF50C0EF
:1027E0001B3559F49E01A4016F2DC6010E94811270
:1027F000EC01892B09F044C03EC0C6010E94D611ED
:1028000097FD42C01F3661F128F4143639F11936AC
:1028100051F128C0133771F0153701F123C081142D
:10282000910429F0F4016082C40101964C01FA94EC
:10283000FF2071F0C6010E9464143C0197FD08C09E
:102840000E945014892B59F3B601C3010E94A214AF
:1028500081149104A9F0F401108212C0006203C037
:10286000006101C00064202FA4016F2DC6010E94E9
:10287000EF11811105C0F6018381807329F406C030
:1028800000FD0ACF539408CF552019F0852D90E014
:1028900002C08FEF9FEFCDB7DEB7EFE00C94B60F1D
:1028A00091110C94BB14803219F089508550C8F7EF
:1028B0000895FC010590061621F00020D9F7C0010B
:1028C00008953197CF010895CF93DF93EC012B81C9
:1028D00020FF33C026FF0AC02F7B2B838E819F8170
:1028E00001969F838E838A8190E029C022FF0FC0CA
:1028F000E881F9818081082E000C990B009719F46A
:1029000020622B831AC03196F983E8830EC0EA85D2
:10291000FB85099597FF09C02B81019611F080E294
:1029200001C080E1822B8B8308C02E813F812F5F05
:102930003F4F3F832E83992702C08FEF9FEFDF9198
:10294000CF910895FB01238120FF12C026FD10C006
:102950008F3F3FEF930761F082832F7D20642383B5
:10296000268137812150310937832683992708959D
:102970008FEF9FEF0895992788270895F894FFCF48
:10298000EC51B83D4080B3B40125640025732000AC
:1029900068656C6C6F00252E32662000252E31662E
:0829A00000252E316620000025
:00000001FF
