S01000004E524632345F52582E73726563BF
S11300000C94BB000C94F40A0C94D8000C94D80003
S11300100C94D8000C94D8000C94D8000C94D800FC
S11300200C94D8000C94D8000C94D8000C94490576
S11300300C94D8000C94D8000C94D8000C94D800DC
S11300400C94D8000C94D8000C94D8000C94D800CC
S11300500C94D8000C94D8000C94D8000C94D800BC
S11300600C94D8000C94D8006E616E00696E660022
S113007000407A10F35A00A0724E18090010A5D45B
S1130080E80000E87648170000E40B54020000CAB8
S11300909A3B000000E1F5050000809698000000FE
S11300A040420F000000A08601000000102700005D
S11300B00000E803000000006400000000000A00E3
S11300C0000000000100000000002C76D888DC67E6
S11300D04F0823DFC1DFAE59E1B1B796E5E3E4533E
S11300E0C63AE651997696E8E6C28426EB898C9B5B
S11300F062ED407C6FFCEFBC9C9F40F2BAA56FA5FB
S1130100F490055A2AF75C936B6CF9676DC11BFC7C
S1130110E0E40D47FEF520E6B500D0ED902E030097
S1130120943577050080841E080000204E0A0000E4
S113013000C80C333333330F986E12831141EF8DA3
S11301402114893BE65516CFFEE6DB18D1844B38E3
S11301501BF77C1D901DA4BBE424203284725E2214
S11301608100C9F124ECA1E53D276364696E6F70D9
S1130170737578585B0011241FBECFEFD8E0DEBF43
S1130180CDBF11E0A0E0B1E0E6E5FBE302C00590DD
S11301900D92A435B107D9F725E0A4E5B1E001C07B
S11301A01D92A33FB207E1F70E94ED050C94A91D2F
S11301B00C94000085E08A95F1F700008BB1806211
S11301C08BB985E08A95F1F700008BB18F7D8BB9EF
S11301D085E08A95F1F7000008951F93CF93DF938C
S11301E0182F8BB180688BB98BB180648BB90E9456
S11301F0DA000E94DA000E94DA000E94DA000E940B
S1130200DA008BB18F7B8BB90E94DA008BB18064EA
S11302108BB90E94DA008BB18F7B8BB90E94DA0014
S1130220C0E0D0E01CC0CE010497049730F48BB139
S11302308F7B8BB90E94DA0011C0812F807841F046
S1130240803859F48BB180648BB90E94DA0005C000
S11302508BB18F7B8BB90E94DA00110F2196CC30C1
S1130260D1050CF38BB18F7B8BB90E94DA000E940D
S1130270DA000E94DA000E94DA008BB18F778BB922
S1130280DF91CF911F9108950F931F93CF93DF9325
S11302908C01C0E0D0E003C00E94ED002196F8017B
S11302A0EC0FFD1F80818111F7CFDF91CF911F915A
S11302B00F9108951F93CF93DF93182F8BB180680C
S11302C08BB98BB180648BB90E94DA000E94DA008A
S11302D00E94DA000E94DA000E94DA008BB18F7B60
S11302E08BB90E94DA008BB18F7B8BB90E94DA0044
S11302F08BB18F7B8BB90E94DA00C0E0D0E01CC0C8
S1130300CE010497049730F48BB18F7B8BB90E9494
S1130310DA0011C0812F807841F0803859F48BB114
S113032080648BB90E94DA0005C08BB18F7B8BB9D6
S11303300E94DA00110F2196CC30D1050CF38BB159
S11303408F7B8BB90E94DA000E94DA000E94DA00E7
S11303500E94DA008BB18F778BB9DF91CF911F9117
S11303600895882399F084E30E945A018FE99FE05D
S11303700197F1F700C0000086E30E945A018FE95B
S11303809FE00197F1F700C00000089580E30E9408
S11303905A018FE99FE00197F1F700C0000008952A
S11303A08F929F92AF92BF92DF92EF92FF920F9340
S11303B01F93CF93DF937C01D12C31C18FE18D1535
S11303C048F08D2D80680E945A01802F80680E9419
S11303D05A0109C080EE8D0D80680E945A01802F59
S11303E088680E945A01CD2DC695C695C695D0E061
S11303F0CC0FDD1FCC0FDD1FCC0FDD1FC00FD11DB7
S1130400C295D295D07FDC27C07FDC27CE0DDF1DBF
S11304108880912C1D2D1770012E02C0959487940D
S11304200A94E2F79694982C882497948794A98048
S1130430B12C012E02C0B594A7940A94E2F781E08E
S1130440A822BB240024B694A7940794B694A79436
S11304500794BA2CA02CAA81B0E0012E02C0B59555
S1130460A7950A94E2F7A170BB27AA0FBB1FA29518
S1130470B295B07FBA27A07FBA27EB81F0E0012EB6
S113048002C0F595E7950A94E2F7E170FF27E2953B
S1130490F295F07FFE27E07FFE276C8170E0012E4D
S11304A002C0759567950A94E2F761707727660F25
S11304B0771F660F771F660F771F4D8150E0012E5F
S11304C002C0559547950A94E2F741705527440FA9
S11304D0551F440F551F2E8130E0012E02C0359563
S11304E027950A94E2F721703327220F331F8F8157
S11304F090E0012E02C0959587950A94E2F7A8280A
S1130500AA29EA2B6E2B462B242B8170822B0E9466
S1130510ED008884912C012E02C0959487940A944E
S1130520E2F79694982C882497948794A984B12C04
S1130530012E02C0B594A7940A94E2F781E0A822A0
S1130540BB240024B694A7940794B694A794079464
S1130550BA2CA02CAA85B0E0012E02C0B595A795AF
S11305600A94E2F7A170BB27AA0FBB1FA295B2950C
S1130570B07FBA27A07FBA27EB85F0E0012E02C036
S1130580F595E7950A94E2F7E170FF27E295F29575
S1130590F07FFE27E07FFE276C8570E0012E02C00D
S11305A0759567950A94E2F761707727660F771F50
S11305B0660F771F660F771F4D8550E0012E02C02E
S11305C0559547950A94E2F741705527440F551FF6
S11305D0440F551F2E8530E0012E02C03595279516
S11305E00A94E2F721703327220F331FCF85D0E01E
S11305F002C0D595C7951A95E2F7882D8A298A2BCA
S11306008E2B862B842B822BC1708C2B0E94ED00A9
S11306100F5F01C000E0083008F4D0CED3948FE31C
S11306208D15C0F7DF91CF911F910F91FF90EF903F
S1130630DF90BF90AF909F908F90089581E00E94CB
S11306405A018FE39CE90197F1F700C00000089577
S11306502FEF83EF91E0215080409040E1F700C0FC
S113066000008CE00E945A018FE891E00197F1F7B5
S113067000C000000E941E0386E00E945A018FE31E
S11306809CE90197F1F700C00000089561307105FD
S113069041F068F06230710531F06330710529F082
S11306A007C090E905C098E803C098E901C090E844
S11306B0892B0E945A010895BF92CF92DF92EF9244
S11306C0FF920F931F93CF93DF936C017B01B42EA2
S11306D0C0E0D0E02DC0BB20B1F08E010C0D1D1D7B
S11306E001501109C701880F991F8E0D9F1D880F96
S11306F0991F8C0F9D1F0E94E212F801E851FE4FD2
S11307008095808314C086010C0F1D1F01501109B0
S1130710C701880F991F8E0D9F1D880F991F8C0F7D
S11307209D1F0E94E212F801E851FE4F808321963A
S1130730C730D10584F2DF91CF911F910F91FF90C3
S1130740EF90DF90CF90BF9008959F92AF92BF92A9
S1130750CF92DF92EF92FF920F931F93CF93DF9389
S1130760CDB7DEB7AC970FB6F894DEBF0FBECDBFE2
S11307706C01162F942E59010000CE0101960E949F
S1130780300F87E091E00E94681080E8189FC00C49
S1130790D11C1124E12CF12C7EC0F501EE0DFF1DBE
S11307A00081003CD8F4083AC9F0083BB9F0073B93
S11307B0A9F0602F70E0992039F06052710941E08E
S11307C0C6010E945C0306C06052710940E0C60184
S11307D00E945C0386E0C80ED11C5AC010E0C80118
S11307E0805C910980349105A0F4992041F041E0A6
S11307F0B80161567109C6010E945C0307C040E05C
S1130800B80161567109C6010E945C0386E0C80EF6
S1130810D11C083A110591F4992039F041E06FE9AF
S113082070E0C6010E945C0306C040E06FE970E01E
S1130830C6010E945C0386E0C80ED11C083B11056A
S113084091F4992039F041E060EA70E0C6010E9419
S11308505C0306C040E060EA70E0C6010E945C03ED
S113086086E0C80ED11C073B110591F4992039F09C
S113087041E061EA70E0C6010E945C0306C040E00A
S113088061EA70E0C6010E945C0386E0C80ED11CD8
S11308908FEFE81AF80AF50101900020E9F7319783
S11308A0EA19FB09EE16FF0608F477CF80E090E022
S11308B00E94300FAC960FB6F894DEBF0FBECDBFCA
S11308C0DF91CF911F910F91FF90EF90DF90CF9028
S11308D0BF90AF909F900895CF92DF92EF92FF92D6
S11308E0CF93DF9300D0CDB7DEB7FC012081222364
S11308F0A1F09E012F5F3F4F3F932F9321E131E001
S11309003F932F939F938F930E94171A0F900F90EA
S11309100F900F900F900F9002C01A82198223EC4F
S113092035EF48EC50E46091000170910101809131
S11309300201909103010E945C146B017C016981A6
S11309407A81072E000C880B990B0E94D013A70103
S113095096010E945C1420E030E040E85EE30E94CF
S11309605C140F900F90DF91CF91FF90EF90DF9088
S1130970CF900895CF93DF9300D0CDB7DEB7FC01BD
S113098020812223A1F09E012F5F3F4F3F932F939D
S113099021E131E03F932F939F938F930E94171A85
S11309A00F900F900F900F900F900F9002C01A822B
S11309B0198269817A81072E000C880B990B0E9499
S11309C0D0132DEC3CEC4CE150E40E945C1420E08C
S11309D030E040E450E40E945C1420E030E040E861
S11309E05AE30E945C140F900F90DF91CF91089509
S11309F0CF93DF9300D0CDB7DEB7FC012081222353
S1130A00A1F09E012F5F3F4F3F932F9321E131E0EF
S1130A103F932F939F938F930E94171A0F900F90D9
S1130A200F900F900F900F9002C01A821982698163
S1130A307A81CB01880F991F680F791F072E000C4C
S1130A40880B990B0E94D0132DEC3CEC4CE150E444
S1130A500E945C1420E030E040EA55E40E945C13FC
S1130A600F900F90DF91CF910895E1E8F0E080813D
S1130A7088608083AFE6B0E08C9182608C9384EFD1
S1130A808093890084E280938800808185608083DC
S1130A9008951F920F920FB60F9211242F933F9334
S1130AA04F935F936F937F938F939F93AF93BF9372
S1130AB0EF93FF938091DE01882309F44CC0809169
S1130AC0D401882309F447C08091C001882309F424
S1130AD042C080918E018823F1F18091980188238E
S1130AE0D1F18091B6018823B1F18EED91E09F930D
S1130AF08F9384E191E09F938F938CE591E09F9392
S1130B008F930E94F51960EC71E08CE591E00E94EE
S1130B10A3196EE871E08CE591E00E94A31964EDDD
S1130B2071E08CE591E00E94A31968E971E08CE51D
S1130B3091E00E94A31966EB71E08CE591E00E94BC
S1130B40A3198CE591E00E9441130F900F900F9030
S1130B500F900F900F90FF91EF91BF91AF919F91E4
S1130B608F917F916F915F914F913F912F910F9052
S1130B700FBE0F901F90189584B18E6284B985B111
S1130B80837D85B98AB18B7F8AB98BB184608BB937
S1130B9085B1846085B980E58CBD08958AB1806192
S1130BA08AB98BB18F7E8BB98AB180688AB98BB1CF
S1130BB08F778BB98AB180628AB98BB18F7D8BB9FB
S1130BC08AB180648AB98BB18F7B8BB908958EBD4D
S1130BD00DB407FEFDCF8EB508950E94CE058BB1EE
S1130BE080618BB90E94BC050E9435050E942713C1
S1130BF00E94280380E190E00E942B130E94500B76
S1130C0082E08093690081E08DBB78940E94B101F9
S1130C1028E131E040E063E083E090E00E94A50336
S1130C202EE231E040E064E089E090E00E94A50318
S1130C3088EE91E00E94D00180E00E94B1012FEF84
S1130C4083E294EF215080409040E1F700C000001F
S1130C508BB18F7E8BB90E941E0360E070E080E050
S1130C600E9446030E94D2088EED91E00E94440146
S1130C7060E070E083E00E9446038AEC91E00E9409
S1130C806C049F938F937F936F93CFE3D1E0DF93B3
S1130C90CF9380EC91E09F938F930E94F51980ECA1
S1130CA091E00E94440160E070E086E00E94460307
S1130CB082EA91E00E94F8049F938F937F936F934D
S1130CC0DF93CF938EE891E09F938F930E94F51961
S1130CD08EE891E00E94440161E070E080E00E94AF
S1130CE0460384ED91E00E94440161E070E083E0FA
S1130CF00E94460386EB91E00E94440161E070E0AB
S1130D0086E00E9446038CEA91E00E94BA049F9315
S1130D108F937F936F93DF93CF9388E991E09F93B1
S1130D208F930E94F51988E991E00E9444012FEF06
S1130D3081EE94E0215080409040E1F700C0000033
S1130D408DB79EB748960FB6F8949EBF0FBE8DBF61
S1130D5084CF20E012C0882324F098B19B7F98B9F7
S1130D6003C098B1946098B9880F98B1986098B905
S1130D70000098B1977F98B92F5F283060F30895E9
S1130D8088B1846088B980E020E00BC098B1986095
S1130D9098B9880F3199816098B1977F98B900000C
S1130DA02F5F283098F30895FF920F931F93CF93EA
S1130DB0DF93C82FD42F152F062FF72E88234CF43A
S1130DC0CF7740E050E0BA0187E70E94D406823032
S1130DD050F585B1816085B90E94C00685B18E7FCA
S1130DE085B90E94C0068C2F0E94A9068F2D0E94EF
S1130DF0A906802F0E94A906812F0E94A9068D2F83
S1130E000E94A906C03411F081E001C085E9C8340C
S1130E1009F487E80E94A906CAE00E94C006882354
S1130E2014F4C150D1F7DF91CF911F910F91FF902E
S1130E3008950E94C0060895CF92DF92EF92FF9228
S1130E400F931F93CF93DF937C0169018091EA058F
S1130E5083FD09C0032E39E0440F551F661F771F19
S1130E603A95D1F7302D81E50E94D406811134C022
S1130E70C0E3D5E70E94C0068F3F11F42197D1F754
S1130E808E3F61F5CC27DD27CC19DD09C01BD10BC2
S1130E90CE5FDD4FC114D10431F00E94C00681E061
S1130EA0C81AD108D1F7E114F10469F06701EFEF32
S1130EB0CE1ADE0A0E94C006F70180830150110990
S1130EC07601A1F703C001501109E9F70E94C00699
S1130ED02197E1F7C0E003C0C1E001C0C1E00E9476
S1130EE019078C2FDF91CF911F910F91FF90EF90F5
S1130EF0DF90CF9008950F931F93CF93DF93FC015E
S1130F00892BF1F0EA0111C08F010F5F1F4F80811F
S1130F100E94A9068091E8059091E90501979093B4
S1130F20E9058093E8052197F801209709F454C056
S1130F308091E8059091E905892B31F7C0E04FC015
S1130F40411551056105710501F18091EA0583FDA3
S1130F5009C0032E39E0440F551F661F771F3A95C9
S1130F60D1F7302D88E50E94D406811137C08FEF68
S1130F700E94A9068EEF0E94A90680E092E0909359
S1130F80E9058093E805C0E02AC08091E8059091C6
S1130F90E905029604C080E00E94A906CE01EC0196
S1130FA02197892BC1F70E94C0068F71853021F0EB
S1130FB0C1E00FC0219702C0C8EEDDEF0E94C00659
S1130FC08F3F11F02097B1F7CD2B11F4C1E001C090
S1130FD0C0E00E94190703C0C0E001C0C1E08C2F2B
S1130FE0DF91CF911F910F910895EF92FF920F938C
S1130FF01F93CF93DF9300D000D0CDB7DEB785B178
S1131000816085B988B1866088B984B1816084B90A
S113101087B18C6087B9289907C040E050E0BA01D5
S113102080E090E00E947B0714E603C00E94C006A3
S113103011501111FBCF40E050E0BA0180E40E944E
S1131040D406813009F08FC04AEA51E060E070E0D4
S113105088E40E94D406813009F053C00DC0E02E0C
S1131060F12C0E94C006E1E0F0E0EC0FFD1FEE0D54
S1131070FF1D80830F5F01C0012F043080F38B813B
S1131080813009F072C08C818A3A31F0F12C78C039
S113109081E0E81AF10806C00F2EF0EEEF2EFEE212
S11310A0FF2EF02DE114F10449F040E050E060E03F
S11310B070E489EE0E94D4068111EACFEF2809F486
S11310C056C040E050E0BA018AE70E94D406882363
S11310D071F0F12C55C0E12EF12C0E94C006E1E024
S11310E0F0E0EC0FFD1FEE0DFF1D80831F5F143039
S11310F090F3898186FF3DC00F2EFCE0FF2EF02D7A
S11311003FC040E050E0BA0189EE0E94D40682302C
S113111040F46894FF24F1F80F2EF9EEEF2EF02D31
S113112006C0FF24F3940F2EF1E4EF2EF02D08EA0D
S113113011E602C0015011090115110541F040E00A
S113114050E0BA018E2D0E94D4068111F3CF012BF9
S1131150A1F040E052E060E070E080E50E94D40637
S113116081110DC00DC0F12C0BC0F12C09C0F12C64
S113117007C06894FF24F2F803C0F12C01C0F12CDD
S1131180F092EA050E94190781E0F11080E00F90C7
S11311900F900F900F90DF91CF911F910F91FF90BF
S11311A0EF900895CF93DF938091EB05813009F0A0
S11311B06BC18091EC05813009F059C0EEEDF1E08E
S11311C001900020E9F73197AF014E5D5140440F83
S11311D0551F60E070E08EED91E00E949C19ECEEEA
S11311E0F5E08181C281D0E0DC2FCC27C82BBE0181
S11311F00D2E000C880B990B0E94D01320E030E0D8
S113120040E251E40E945C136093580170935901C9
S113121080935A0190935B01DD235CF4DC01CB01E4
S1131220B0588093580190935901A0935A01B093F8
S11312305B0180915B018F9380915A018F93809120
S113124059018F93809158018F9385E491E09F9386
S11312508F938EED91E09F938F930E94F5198DB734
S11312609EB708960FB6F8949EBF0FBE8DBF8091AF
S1131270EC05853009F047C0C4EDD1E0FE010190D2
S11312800020E9F73197AF01445D5140440F551FE9
S113129060E070E0CE010E949C19ECEEF5E08181E3
S11312A0628170E0762F6627682B072E000C880B6E
S11312B0990B0E94D01320E030E040E251E40E94F8
S11312C05C13262F372F462F572F682F792F4093E3
S11312D054015093550160935601709357019F93A5
S11312E08F933F932F938AE491E09F938F93DF939F
S11312F0CF930E94F5198DB79EB708960FB6F89450
S11313009EBF0FBE8DBFC091EC05C23061F5EAEC03
S1131310F1E001900020E9F73197AF014A5C5140B8
S1131320440F551F60E070E08AEC91E00E949C1924
S113133020E00BC0822F90E0FC01E351FA4F308192
S1131340FC01E653FE4F30832F5F822F90E0ECEEDA
S1131350F5E001900020E9F73197EC5EF540319714
S11313608E179F0738F3C33089F5E6EBF1E001905F
S11313700020E9F73197AF01465B5140440F551FF8
S113138060E070E086EB91E00E949C1920E00BC0C5
S1131390822F90E0FC01E351FA4F3081FC01EA54C2
S11313A0FE4F30832F5F822F90E0ECEEF5E001904A
S11313B00020E9F73197EC5EF54031978E179F07CF
S11313C038F3FC01E954FE4F80E28083C43061F5B8
S11313D0ECEAF1E001900020E9F73197AF014C5AB3
S11313E05140440F551F60E070E08CEA91E00E9488
S11313F09C1920E00BC0822F90E0FC01E351FA4FCE
S11314003081FC01E455FE4F30832F5F822F90E042
S1131410ECEEF5E001900020E9F73197EC5EF54041
S113142031978E179F0738F3C63061F5E2EAF1E091
S113143001900020E9F73197AF01425A5140440F1F
S1131440551F60E070E082EA91E00E949C1920E060
S11314500BC0822F90E0FC01E351FA4F3081FC0174
S1131460EE55FE4F30832F5F822F90E0ECEEF5E0D7
S113147001900020E9F73197EC5EF54031978E1723
S11314809F0738F31092EB05DF91CF91089585B152
S11314908B7F85B982EE90E00E94E70585E08A950E
S11314A0F1F7000085B1846085B9089585B18B7F1B
S11314B085B981EE90E00E94E70585E08A95F1F711
S11314C0000085B1846085B9089585B18B7F85B9A5
S11314D080E590E00E94E70585E08A95F1F7000039
S11314E083E790E00E94E70585B1846085B908959B
S11314F0EF92FF920F931F93CF93DF938B01C42F2F
S113150095B19B7F95B990E00E94E7050CC07801E6
S11315108FEFE81AF80A8FEF90E00E94E705F801D0
S11315208083CD2F8701DFEFDC0FC111F0CF85B1B0
S1131530846085B9DF91CF911F910F91FF90EF9057
S11315400895EF92FF920F931F93CF93DF938B0134
S1131550C42F806295B19B7F95B990E00E94E70506
S113156085E08A95F1F700000BC07801EFEFEE1AE1
S1131570FE0AF801808190E00E94E705CD2F8701E3
S1131580DFEFDC0FC111F1CF85B1846085B9DF9144
S1131590CF911F910F91FF90EF900895CF93C62F95
S11315A0806295B19B7F95B990E00E94E7058C2FEE
S11315B090E00E94E70585B1846085B9CF910895D4
S11315C0CF93C82F85B18B7F85B98C2F90E00E9473
S11315D0E705C73021F08FEF90E00E94E70595B151
S11315E0946095B9CF9108951F920F920FB60F9200
S11315F011242F933F934F935F936F937F938F9314
S11316009F93AF93BF93EF93FF938FEA94E0019777
S1131610F1F700C000008BB180618BB98FEA94E0D0
S11316200197F1F700C000008BB18F7E8BB987E082
S11316300E94E00A86FF0AC045E06CEE75E081E690
S11316400E94780A60E487E00E94CE0A81E08093D9
S1131650EB05FF91EF91BF91AF919F918F917F9196
S11316606F915F914F913F912F910F900FBE0F900B
S11316701F90189580E00E94E00A682F636080E064
S11316800E94CE0A85B1826085B987E592E0019710
S1131690F1F700C000000E94470A0E94560A08950C
S11316A085B18D7F85B98FE19EE40197F1F700C084
S11316B000006AE080E00E94CE0A8FE19EE4019778
S11316C0F1F700C0000062E081E00E94CE0A62E00F
S11316D082E00E94CE0A61E083E00E94CE0A6FE5B8
S11316E084E00E94CE0A0E94650A60E08DE10E94B7
S11316F0CE0A60E08CE10E94CE0A60E787E00E9497
S1131700CE0A6CE485E00E94CE0A66E086E00E9480
S1131710CE0A43E064E071E080E10E94A10A43E064
S113172064E071E08BE00E94A10A65E082E10E941E
S1131730CE0A0E943A0B0895FC0103C06083AC01F9
S11317403196CA010197452BC9F70895CF93DF93CA
S1131750DC01FB0180E090E002C0FB01DE019A01A4
S113176021503109452B61F0ED0121968C9190E0D7
S1131770BF016F5F7F4F4081841B9109A90169F309
S1131780DF91CF9108950F931F93E091F105F091AC
S1131790F2059B01AC0122503109410951098085B0
S11317A09185A285B3850297A109B1092817390744
S11317B04A075B0768F4A181B0E00E9468180489B5
S11317C0158926893789600F711F821F931F03C0F3
S11317D060E070E0CB011F910F9108950F931F9368
S11317E0CF93DF93FC01A091F105B091F205118232
S11317F010826481758186819781613071058105CC
S1131800910591F118960D911D912D913C911B9785
S1131810601771078207930748F561157105810503
S1131820910549F42C91233031F450966D917D91BA
S11318308D919C915397EF0160877187828793877D
S1131840611571058105910519F00E94C30B06C04D
S113185050966D917D918D919C9153976C877D8766
S11318608E879F8780E003C081E001C081E0DF9123
S1131870CF911F910F9108950F931F93CF93DF93EF
S1131880EB01FC01028113814BE050E060E270E067
S1131890C8010E949C0B2881398190E080E058E0C7
S11318A001C0842F41E0480FF901E80FF11D808148
S11318B08132C0F08F32B1F08E3211F0951738F0CA
S11318C0583081F48E3271F498E05BE0EACF6FE92E
S11318D0680F6A3108F48052F801E90FF11D808322
S11318E09F5FDFCF240F311D3983288391E081323C
S11318F008F090E0F801938780E0DF91CF911F9189
S11319000F910895CF92DF92EF92FF920F931F935E
S1131910CF93DF93EC016A017B0102E010E02EEF2C
S113192031E00E941C07811125C088819981853589
S11319309A4A11F526E330E0B701A601CE010E94D0
S11319401C07811105C08881998186349144B1F0C6
S113195002E010E022E530E0B701A601CE010E94CA
S11319601C0781110DC0888199818634914451F0FE
S113197081E009C083E007C082E005C080E003C0C5
S113198081E001C080E0DF91CF911F910F91FF9022
S1131990EF90DF90CF9008954F925F926F927F9275
S11319A08F929F92AF92BF92CF92DF92EF92FF926B
S11319B00F931F93CF93DF9300D000D0CDB7DEB742
S11319C0E090F105F090F205623071058105910512
S11319D008F4BFC0F70180849184A284B38468159D
S11319E079058A059B0508F0B9C04B015C0180812B
S11319F0823009F462C0833009F47FC0813009F079
S1131A00B2C0C40196958795880D991D9C013170CB
S1131A10892F992786952F3FF1E03F0791F0F70131
S1131A204485558566857785480F591F611D711D4D
S1131A3002E010E0CE0101960E941C07882361F1A8
S1131A4097C0F70144855585668577852C01612CFF
S1131A50712C440D551D661D771D01E010E02FEF1C
S1131A6031E0CE0101960E941C07811186C0F70166
S1131A704485558566857785440D551D661D771DFE
S1131A804F5F5F4F6F4F7F4F20E030E0CE010296F3
S1131A900E941C07811176C069817A8180FE09C089
S1131AA0729562956F7067277F70672780E090E07A
S1131AB077C07F7080E090E073C094013327220FD9
S1131AC0331FF701C484D584E684F784BB27AB2D88
S1131AD09A2D892DB701A601480F591F6A1F7B1F34
S1131AE002E010E0CE0101960E941C0781114FC054
S1131AF069817A8180E090E053C094012F77332785
S1131B00220F331F220F331FF701C484D584E684C8
S1131B10F784D501C401689416F8B695A7959795EE
S1131B2087951694D1F7B701A601480F591F6A1F6C
S1131B307B1F04E010E0CE0101960E941C07811176
S1131B402BC089819A81AB81BC81BC01CD019F707E
S1131B5027C061E070E080E090E022C061E070E0C6
S1131B6080E090E01DC061E070E080E090E018C08B
S1131B7061E070E080E090E013C061E070E080E03C
S1131B8090E00EC061E070E080E090E009C061E0A8
S1131B9070E080E090E004C061E070E080E090E0FC
S1131BA00F900F900F900F90DF91CF911F910F9195
S1131BB0FF90EF90DF90CF90BF90AF909F908F9069
S1131BC07F906F905F904F900895CF92DF92EF9245
S1131BD0FF920F931F93CF93DF93E090F105F09062
S1131BE0F205FC01C081D181219609F45CC04485D1
S1131BF0558566857785411551056105710509F49B
S1131C0054C08C01CE018F709927892B09F046C0EE
S1131C104F5F5F4F6F4F7F4F448755876687778746
S1131C2040855185628573854115510561057105AE
S1131C3039F4F70184819581C817D907C0F52EC0FE
S1131C40F701818190E001979E01329522952F70D2
S1131C5023273F70232782239323892BF9F4CB0175
S1131C60BA010E94CC0C623071058105910508F11E
S1131C70F701C084D184E284F3846C157D058E055C
S1131C809F05C8F4F80160877187828793870E9453
S1131C90C30BF8016487758786879787F801D1831A
S1131CA0C08380E009C083E007C083E005C083E00F
S1131CB003C081E001C083E0DF91CF911F910F91B8
S1131CC0FF90EF90DF90CF900895DF92EF92FF9214
S1131CD00F931F93CF93DF937C010E94EE0B81112E
S1131CE03EC0E091F105F091F205C681D781F7017C
S1131CF0208131812F703327220F331F2295329593
S1131D00307F3227207F3227448555856685778545
S1131D1000E210E0CE010E941C0791E0811101C095
S1131D2090E0D92E911116C088818823A9F08B8563
S1131D3083FD0AC0F701628173814BE050E0CE015C
S1131D400E94A60B892B51F0C7010E94E50D882340
S1131D5071F205C0892F03C083E001C08D2DDF918E
S1131D60CF911F910F91FF90EF90DF9008950F9303
S1131D701F93CF93DF9300D0CDB7DEB78C017A8366
S1131D80698303C03196FA83E983E981FA8180810A
S1131D908032C1F38F3219F43196FA83E983D80182
S1131DA014961D921D921D921C921797E981FA8137
S1131DB08081813260F4C8010E94EE0BE091F1054C
S1131DC0F091F2050680F781E02D108242C0BE0139
S1131DD06F5F7F4FC8010E943C0C81113AC0C8015B
S1131DE00E94650E882359F0833099F5D801129624
S1131DF0ED91FC9113979385992341F12AC0D80161
S1131E001296ED91FC9113979385911122C0E09164
S1131E10F105F091F2050680F781E02D838584FFBA
S1131E2017C084899589A0E0B0E0BC0155274427F8
S1131E30828D938DA0E0B0E0842B952BA62BB72B3D
S1131E40F80184839583A683B783C1CF84E001C05E
S1131E5084E00F900F90DF91CF911F910F9108951F
S1131E604F925F926F927F928F929F92AF92BF92A6
S1131E70DF92EF92FF920F931F93CF93DF93CDB72F
S1131E80DEB7A8970FB6F894DEBF0FBECDBF109291
S1131E90F2051092F105009709F4FBC07C010E9441
S1131EA0F50780FDF8C040E050E0BA01CE0101968C
S1131EB00E94820CD82E41E084131CC000E110E083
S1131EC02EEB31E040E050E0BA01CE0101960E94D1
S1131ED01C07811113C08D818823C1F089849A84E1
S1131EE0AB84BC84B501A401CE0101960E94820C8E
S1131EF0D82E0FC0812C912C54010BC0812C912C15
S1131F0054010F2EF3E0DF2EF02D03C0812C912C11
S1131F10540153E0D51609F4C0C0D110C0C004E286
S1131F2010E02DE030E0B501A401CE0101960E943D
S1131F301C078111B6C02A853B8540E050E021157D
S1131F4031054105510521F4288D398D4A8D5B8D6C
S1131F50AC81B0E00E9468186DA37EA38FA398A7FC
S1131F608A819B81880E991EA11CB11CD7011C96E5
S1131F708D929D92AD92BC921F97E9811196EC933C
S1131F8011978D819E8115969C938E9314970F8142
S1131F90188520E030E0011511052105310521F4F3
S1131FA00C891D892E893F894A815B81041B150B8D
S1131FB0210931094DA15EA16FA178A5041B150B60
S1131FC0260B370B929582958F7089279F708927EE
S1131FD02C01612C712CC901B80164197509860999
S1131FE097092E2F30E040E050E00E944618BA01D5
S1131FF0A9014E5F5F4F6F4F7F4FD70118964D93E6
S11320005D936D937C931B97473FBFE05B0761052E
S1132010710510F481E001C082E0473F5F4F610524
S1132020710508F083E0D7018C93833051F488A1C3
S113203099A1AAA1BBA1F701808B918BA28BB38B31
S11320400DC08DA19EA1AFA1B8A5880D991DAA1D93
S1132050BB1DF701808B918BA28BB38B4DA15EA12D
S11320606FA178A5840E951EA61EB71E840C951C20
S1132070A61CB71CD70154968D929D92AD92BC922A
S1132080579712961C92F092F205E092F10580E0C7
S113209009C080E007C082E005C081E003C087E09A
S11320A001C081E0A8960FB6F894DEBF0FBECDBF85
S11320B0DF91CF911F910F91FF90EF90DF90BF9030
S11320C0AF909F908F907F906F905F904F90089506
S11320D00F931F93CF93DF93CDB7DEB7EC970FB673
S11320E0F894DEBF0FBECDBF0091F1051091F2054B
S11320F001151105C9F1BC01F8011282CE014D96FA
S1132100978386830C979C838B8340970E94B70E9A
S113211081112FC08D8D882349F188A584FD28C0A5
S113212089A99AA9A0E0B0E0BC01552744278FA94A
S113213098ADA0E0B0E0842B952BA62BB72BF8012B
S113214080A391A3A2A3B3A389AD9AADABADBCAD5B
S1132150848F958FA68FB78F108E118E128E138E4B
S113216081E0828380E005C086E003C083E001C093
S113217083E0EC960FB6F894DEBF0FBECDBFDF91BF
S1132180CF911F910F9108952F923F924F925F929A
S11321906F927F928F929F92AF92BF92CF92DF9273
S11321A0EF92FF920F931F93CF93DF933C016B0148
S11321B04A01E090F105F090F205FA0111821082D3
S11321C0E114F10409F4BBC0F701828180FFB9C0B6
S11321D0848D958DA68DB78D408D518D628D738DB7
S11321E0841B950BA60BB70BA60160E070E0841767
S11321F09507A607B70708F46C01530196C0F701C9
S1132200208C318C428C538CD201C1019170AA274D
S1132210BB27892B8A2B8B2B09F04EC0218130E000
S113222040E050E0C201B101052E59E09695879532
S1132230779567955A95D1F7502D0E944618672BCC
S1132240682B692BE9F423282428252831F4F70185
S113225060A171A182A193A107C0F70164A175A136
S113226086A197A10E94CC0C62307105810591056D
S113227008F461C0F70164A375A386A397A313822E
S1132280F70164A175A186A197A10E94C30B6115F2
S113229071058105910509F44EC0F701238131E0F0
S11322A0320F3383DC01CB01820F911DA11DB11DBF
S11322B080A791A7A2A7B3A7F701808D918DA28DC6
S11322C0B38D9C013170C0E0D2E0C21BD30BCC169D
S11322D0DD0608F4E601F70140A551A562A573A542
S11322E06114710419F480E090E002C08A2D9B2DE2
S11322F08E010E941C0781111EC0F701808D918DF3
S1132300A28DB38D8C0F9D1FA11DB11D808F918F48
S1132310A28FB38FAC0EBD1ECC1ADD0AF4018081EE
S11323209181C80FD91FD183C083C114D10409F08E
S113233066CF80E007C0F701128281E003C086E027
S113234001C085E0DF91CF911F910F91FF90EF9035
S1132350DF90CF90BF90AF909F908F907F906F90C1
S11323605F904F903F902F9008954F925F926F929D
S11323707F928F929F92AF92BF92CF92DF92EF9211
S1132380FF92CF93DF9300D000D000D0CDB7DEB75B
S11323902091F1053091F2053E832D8321153105FD
S11323A009F4F4C0D90112962C91129720FFF0C0C1
S11323B05C96CD90DD90ED90FC905F97C616D706A5
S11323C0E806F90610F06B017C01ED81FE81408C7A
S11323D0518C628C738C108E118E128E138EC114DC
S11323E0D104E104F10409F4D5C08180912CA12C1D
S11323F0B12C072E79E0880C991CAA1CBB1C7A9579
S1132400D1F7702D411451046104710409F440C0E2
S1132410C701B6016150710981099109A5019401AF
S11324200E94461829833A834B835C83B1E04B1A9C
S1132430510861087108C301B201A50194010E9409
S1132440461889819A81AB81BC8182179307A407BE
S1132450B507F0F088279927DC0188199909AA099A
S1132460BB09482259226A227B22AD81BE8158963B
S11324704D925D926D927C925B97C418D508E608E4
S1132480F70894966D917D918D919C91979733C0A7
S1132490ED81FE8160A171A182A193A164A375A3C2
S11324A086A397A328C00E94CC0C623071058105D5
S11324B0910508F465C0ED81FE81408451846284F5
S11324C07384641575058605970508F059C064A3DF
S11324D075A386A397A3408C518C628C738C480C93
S11324E0591C6A1C7B1C408E518E628E738EC818D8
S11324F0D908EA08FB088C149D04AE04BF0498F2C2
S1132500AD81BE8158968D909D90AD90BC905B97A7
S11325108C0C9D1CAE1CBF1CFD01808E918EA28E66
S1132520B38E0E94C30B611571058105910541F1BC
S113253046015701072E79E0B694A794979487949F
S11325407A95D1F7702DAD81BE8113968C92B1E04E
S1132550DB22EE24FF24CD28CE28CF28E9F021E089
S1132560280DED81FE812383DC01CB01880D911DB3
S1132570A11DB11D80A791A7A2A7B3A780E00DC09C
S1132580AD81BE8112961C9281E007C086E005C031
S113259085E003C080E001C080E026960FB6F89481
S11325A0DEBF0FBECDBFDF91CF91FF90EF90DF90E4
S11325B0CF90BF90AF909F908F907F906F905F90DF
S11325C04F9008950F931F93CF93DF93CDB7DEB74A
S11325D02D970FB6F894DEBF0FBECDBF8E010C5FF2
S11325E01F4F2AE0F80111922A95E9F7BC01660F02
S11325F0771F680F791F660F771F80E090E00E94B5
S1132600B511AE014F5F5F4F64E070E0C8010E94F6
S1132610C410CE0103969F938F9380E591E09F931E
S11326208F931F930F930E94171A0F900F900F9080
S11326300F900F900F908B812D960FB6F894DEBFFC
S11326400FBECDBFDF91CF911F910F91089588E404
S11326508093B80008959093C5008093C400E1EC82
S1132660F0E088E18083808180688083E0ECF0E0A2
S1132670808182608083E2ECF0E080818E608083E0
S11326800895DC0180E00BC09091C00095FFFCCF61
S1132690FD01E20FF31F90819093C6008F5F282FF6
S11326A030E0FD0101900020E9F73197EA1BFB0BB4
S11326B02E173F0748F308950E9470130C942214B8
S11326C00E941B1458F00E94141440F029F45F3F38
S11326D029F00C940B1451110C9456140C941114ED
S11326E00E94331468F39923B1F3552391F3951B96
S11326F0550BBB27AA2762177307840738F09F5F1F
S11327005F4F220F331F441FAA1FA9F335D00E2E8B
S11327103AF0E0E832D091505040E695001CCAF7F8
S11327202BD0FE2F29D0660F771F881FBB1F2617BB
S113273037074807AB07B0E809F0BB0B802DBF0192
S1132740FF2793585F4F3AF09E3F510578F00C9461
S11327500B140C9456145F3FE4F3983ED4F386951F
S113276077956795B795F7959F5FC9F7880F911D82
S11327709695879597F90895E1E0660F771F881F6E
S1132780BB1F621773078407BA0720F0621B730B21
S1132790840BBA0BEE1F88F7E0950895E89409C0FE
S11327A097FB3EF490958095709561957F4F8F4F80
S11327B09F4F9923A9F0F92F96E9BB279395F69596
S11327C0879577956795B795F111F8CFFAF4BB0F14
S11327D011F460FF1BC06F5F7F4F8F4F9F4F16C078
S11327E0882311F096E911C0772321F09EE8872F02
S11327F0762F05C0662371F096E8862F70E060E0BE
S11328002AF09A95660F771F881FDAF7880F969536
S1132810879597F9089597F99F6780E870E060E0DD
S113282008959FEF80EC089500240A941616170665
S113283018060906089500240A94121613061406AD
S113284005060895092E0394000C11F4882352F010
S1132850BB0F40F4BF2B11F460FF04C06F5F7F4FC8
S11328608F4F9F4F089557FD9058440F551F59F0AF
S11328705F3F71F04795880F97FB991F61F09F3F69
S113288079F087950895121613061406551FF2CF92
S11328904695F1DF08C0161617061806991FF1CFE2
S11328A086957105610508940895E894BB27662709
S11328B07727CB0197F908950E946F140C94221482
S11328C00E94141438F00E941B1420F0952311F078
S11328D00C940B140C94111411240C9456140E948F
S11328E0331470F3959FC1F3950F50E0551F629F09
S11328F0F001729FBB27F00DB11D639FAA27F00D55
S1132900B11DAA1F649F6627B00DA11D661F829F7B
S11329102227B00DA11D621F739FB00DA11D621F60
S1132920839FA00D611D221F749F3327A00D611D7D
S1132930231F849F600D211D822F762F6A2F11245F
S11329409F5750409AF0F1F088234AF0EE0FFF1F92
S1132950BB1F661F771F881F91505040A9F79E3FE9
S1132960510580F00C940B140C9456145F3FE4F35F
S1132970983ED4F3869577956795B795F795E7953F
S11329809F5FC1F7FE2B880F911D9695879597F948
S11329900895A0E1B0E0EFECF4E10C9473187C012D
S11329A01B016A01FC0117821682838181FF44C3E3
S11329B09E012F5F3F4F3901F7019381F10193FD90
S11329C0859193FF81911F01882309F431C38532D6
S11329D039F493FD859193FF81911F01853239F478
S11329E0B70190E00E94B91956016501E5CF10E0E6
S11329F0512C912CFFE1F915D8F08B3279F038F491
S1132A00803279F08332A1F4F92DF0612EC08D3239
S1132A1061F0803369F4292D21602DC0392D326095
S1132A20932E892D8460982E2AC0E92DE86015C064
S1132A3097FC2DC020ED280F2A3088F496FE06C09E
S1132A403AE0139F200D1124122F19C08AE0589EDA
S1132A50200D1124522EE92DE0629E2E10C08E32DC
S1132A6031F496FCE5C2F92DF0649F2E08C08C3633
S1132A7021F4292D2068922E02C0883641F4F101F8
S1132A8093FD859193FF81911F018111B3CF9BEB3E
S1132A90980F933020F4992D9061805E07C09BE9D4
S1132AA0980F933008F066C1992D9F7E96FF16E02B
S1132AB09F73992E853619F49064992E08C0863632
S1132AC021F4392F3068932E02C01111115097FE52
S1132AD007C01C3350F444244394410E27E00BC038
S1132AE0183038F027E017E005C027E09CE3492EB2
S1132AF002C0212F412C560184E0A80EB11CF6011E
S1132B006081718182819381042DA3010E94B9188F
S1132B106C01F981FC87F0FF02C0F3FF06C091FC51
S1132B2006C092FE06C000E205C00DE203C00BE23F
S1132B3001C000E08C858C7019F001115AC29BC24F
S1132B4097FE10C04C0CFC85F4FF04C08A818133CD
S1132B5009F44A94141474F528E0241578F588E0EF
S1132B60482E2CC096FC2AC0812F90E08C159D0520
S1132B709CF03CEFC3163FEFD30674F0892D8068B8
S1132B80982E0AC0E2E0F0E0EC0FFD1FE10FF11D0A
S1132B908081803319F411501111F4CF97FE0EC0C7
S1132BA044244394410E812F90E0C816D9062CF496
S1132BB01C1904C04424439401C010E097FE06C0CD
S1132BC01C141D0434F4C601019605C085E090E090
S1132BD002C081E090E001110196112331F0212F10
S1132BE030E02F5F3F4F820F931F252D30E0821777
S1132BF0930714F4581A01C0512C892D897049F493
S1132C00552039F0B70180E290E00E94B9195A9436
S1132C10F7CF002329F0B701802F90E00E94B91963
S1132C2093FC09C0552039F0B70180E390E00E947D
S1132C30B9195A94F7CF97FE4CC04601D7FE02C08B
S1132C40812C912CC60188199909F301E80FF91F09
S1132C50FE87ED87960124193109388B2F87012FC0
S1132C6010E01195019511093FEF8316930629F49D
S1132C70B7018EE290E00E94B919C814D9044CF04F
S1132C808F8598898815990524F4ED85FE858181C1
S1132C9001C080E3F1E08F1A91082D853E852F5FF6
S1132CA03F4F3E872D87801691062CF0B70190E0A8
S1132CB00E94B919D9CFC814D90441F49A81963322
S1132CC020F4953319F43C8534FF81E3B70190E097
S1132CD04EC08A81813319F09C859F7E9C87B70101
S1132CE090E00E94B919111105C094FC18C085E642
S1132CF090E017C0B7018EE290E00E94B9191E5F00
S1132D0082E001E0080FF301E80FF11D8081B701B3
S1132D1090E00E94B919802F0113F3CFE6CF85E428
S1132D2090E0B7010E94B919D7FC06C0C114D104C0
S1132D3041F4EC85E4FF05C0D194C194D1088DE23F
S1132D4001C08BE2B70190E00E94B91980E32AE048
S1132D50C216D1042CF08F5FFAE0CF1AD108F7CF56
S1132D60B70190E00E94B919B701C601C0960E944C
S1132D70B91954C1833631F0833779F0833509F0BA
S1132D8056C020C0560132E0A30EB11CF60180816A
S1132D90898301E010E0630112C05601F2E0AF0E36
S1132DA0B11CF601C080D18096FE03C0612F70E093
S1132DB002C06FEF7FEFC6010E94AE198C01F92D9E
S1132DC0FF7714C0560122E0A20EB11CF601C080A8
S1132DD0D18096FE03C0612F70E002C06FEF7FEFD9
S1132DE0C6010E9491198C01F92DF0689F2EF3FD04
S1132DF01AC0852D90E008171907A8F4B70180E2DE
S1132E0090E00E94B9195A94F4CFF60197FC859189
S1132E1097FE81916F01B70190E00E94B91951109A
S1132E205A94015011090115110579F7F7C0843638
S1132E3011F0893661F5560197FE09C024E0A20E0F
S1132E40B11CF60160817181828193810AC0F2E034
S1132E50AF0EB11CF60160817181072E000C880B46
S1132E60990BF92DFF769F2E97FF09C090958095B9
S1132E70709561957F4F8F4F9F4FF0689F2E2AE08A
S1132E8030E0A3010E94301AC82EC6183FC0092D95
S1132E90853721F40F7E2AE030E01DC0097F8F368C
S1132EA091F018F4883559F0C3C0803719F0883789
S1132EB011F0BEC0006104FF09C0046007C094FEA5
S1132EC008C0066006C028E030E005C020E130E01C
S1132ED002C020E132E0560107FF09C084E0A80ED9
S1132EE0B11CF601608171818281938108C0F2E096
S1132EF0AF0EB11CF6016081718180E090E0A30106
S1132F000E94301AC82EC6180F77902E96FE0BC05A
S1132F10092D0E7FC11650F494FE0AC092FC08C01D
S1132F20092D0E7E05C0DC2C092D03C0DC2C01C04C
S1132F30D12E04FF0DC0FE01EC0DF11D8081803304
S1132F4011F4097E09C002FF06C0D394D39404C0CF
S1132F50802F867809F0D39403FD11C000FF06C0CA
S1132F601C2DD51480F4150D1D190DC0D51458F45D
S1132F70B70180E290E00E94B919D394F7CFD51439
S1132F8010F45D1801C0512C04FF10C0B70180E398
S1132F9090E00E94B91902FF17C001FD03C088E741
S1132FA090E002C088E590E0B7010CC0802F8678DD
S1132FB059F001FF02C08BE201C080E207FD8DE2FF
S1132FC0B70190E00E94B919C11638F4B70180E343
S1132FD090E00E94B9191150F7CFCA94F301EC0D97
S1132FE0F11D8081B70190E00E94B919C110F5CF9D
S1132FF015C0F4E0F51560F584E0581A93FE1FC07F
S1133000011127C02C8523FF2AC008E610E0392DC2
S11330103071932EF8018491811124C0552009F454
S1133020E4CCB70180E290E00E94B9195A94F6CF3B
S1133030F7018681978126C08FEF9FEF23C0B701E8
S113304080E290E00E94B9195A945110F8CFD8CF79
S1133050512CB701802F90E00E94B919D3CF0CE610
S113306010E0D5CF91108052B70190E00E94B919B9
S11330700F5F1F4FCFCF23E0251510F483E0BDCFA2
S1133080512CC0CF6096E2E10C948F18A1E21A2E65
S1133090AA1BBB1BFD010DC0AA1FBB1FEE1FFF1FF8
S11330A0A217B307E407F50720F0A21BB30BE40B48
S11330B0F50B661F771F881F991F1A9469F760958F
S11330C07095809590959B01AC01BD01CF01089549
S11330D00E94AA18A59F900DB49F900DA49F800DE7
S11330E0911D112408952F923F924F925F926F92F7
S11330F07F928F929F92AF92BF92CF92DF92EF9284
S1133100FF920F931F93CF93DF93CDB7DEB7CA1B04
S1133110DB0B0FB6F894DEBF0FBECDBF09942A882F
S1133120398848885F846E847D848C849B84AA84D7
S1133130B984C884DF80EE80FD800C811B81AA8164
S1133140B981CE0FD11D0FB6F894DEBF0FBECDBF2F
S1133150ED010895A29FB001B39FC001A39F700D1C
S1133160811D1124911DB29F700D811D1124911D8B
S11331700895283008F027E03327DA01990F311D2C
S113318087FD916000966105710539F432602E5F08
S11331903D9330E32A95E1F708959F3F30F080385E
S11331A07105610509F03C5F3C5F3D93913008F087
S11331B08068911DDF93CF931F930F93FF92EF923B
S11331C0192F987F9695E92F96959695E90FFF27E5
S11331D0E653FF4F99273327EE24FF24A701E70185
S11331E005900894079428F4360FE71EF81E491F2B
S11331F0511D660F771F881F991F0694A1F705902C
S1133200079428F4E70EF81E491F561FC11D770FB7
S1133210881F991F661F0694A1F70590079428F448
S1133220F80E491F561FC71FD11D880F991F661F0F
S1133230771F0694A1F70590079420F4490F561FB1
S1133240C71FD81F990F661F771F881F0694A9F7F9
S113325084911095177041F0D695C7955795479569
S1133260F794E7941A95C1F7E0E7F0E068941590B5
S1133270159135916591959105907FE27395E118CB
S1133280F10A430B560BC90BD009C0F7E10CF11E30
S1133290431F561FC91FD01D7EF4703311F48A9545
S11332A0E6CFE894015030F0080F0AF40027021723
S11332B008F4202F2395022F7A3328F079E37D93A5
S11332C02A95E9F710C07D932A9589F60694979577
S11332D06795379517951794E118F10A430B560B28
S11332E0C90BD00998F023957E9173957A3308F031
S11332F070E37C932013B8F77E9170617D9330F076
S1133300839571E37D9370E32A95E1F71124EF909F
S1133310FF900F911F91CF91DF91992787FD909591
S11333200895FC010590615070400110D8F7809514
S113333090958E0F9F1F0895DC0101C06D9341503D
S11333405040E0F70895FB01DC010D900020E9F7FF
S1133350119701900D920020E1F70895FC0161504E
S1133360704001900110D8F7809590958E0F9F1FA3
S113337008950F931F93CF93DF93FB01238121FDC6
S113338003C08FEF9FEF2CC022FF16C046815781E8
S1133390248135814217530744F4A081B1819D01F2
S11333A02F5F3F4F318320838C93268137812F5F9A
S11333B03F4F3783268314C08B01EC01FB0100844B
S11333C0F185E02D0995892BE1F6D80116968D91AA
S11333D09C911797019617969C938E931697CE01FE
S11333E0DF91CF911F910F910895AEE0B0E0EBEF24
S11333F0F9E10C9481180D891E8986E08C831A8367
S113340009838FEF9FE79E838D83AE01475E5F4FF5
S11334106F89788DCE0101960E94C914EF81F885D9
S1133420E00FF11F10822E96E4E00C949D18AEE09C
S1133430B0E0EDE1FAE10C94831885E08C838B898C
S11334409C899A838983AE01495E5F4F6D897E8929
S1133450CE0101960E942A1C2E96E2E00C949F183D
S1133460FA01AA27283051F1203181F1E8946F93B1
S11334706E7F6E5F7F4F8F4F9F4FAF4FB1E03ED057
S1133480B4E03CD0670F781F891F9A1FA11D680FF5
S1133490791F8A1F911DA11D6A0F711D811D911D28
S11334A0A11D20D009F468943F912AE0269F11249D
S11334B03019305D3193DEF6CF010895462F477001
S11334C0405D4193B3E00FD0C9F7F6CF462F4F705C
S11334D0405D4A3318F0495D31FD4052419302D0BA
S11334E0A9F7EACFB4E0A695979587957795679560
S11334F0BA95C9F700976105710508959B01AC0160
S11335000A2E06945795479537952795BA95C9F786
S1133510620F731F841F951FA01D089520FD09C00D
S1133520FC0123FD05C022FF02C073836283518323
S11335304083089544FD17C046FD17C0AB01BC018C
S1133540DA01FB01AA0FBB1FEE1FFF1F1094D1F776
S11335504A0F5B1F6E1F7F1FCB01BA01660F771FD7
S1133560881F991F09C033E001C034E0660F771F3C
S1133570881F991F3150D1F7620F711D811D911D54
S113358008950F931F93CF93DF938C01C8010E947A
S11335904F1DEC0197FD08C00E943B1D892BB1F71C
S11335A0B801CE010E948D1DCE01DF91CF911F91F4
S11335B00F9108958F929F92AF92BF92EF92FF92D4
S11335C00F931F93CF93DF938C01D62F7A01B22EE2
S11335D00E944F1D9C0133272B32310531F02D32CF
S11335E0310561F48B2D8068B82ED15011F480E040
S11335F068C0C8010E944F1D97FDF9CFCB2DCD7F28
S11336002B2D207309F58033F9F4AA24AA94AD0E66
S113361009F443C0C8010E944F1D97FD3EC09C01A0
S11336202F7D33272835310549F4C264D250A9F1DE
S1133630C8010E944F1D97FF07C02FC0B6FE02C0ED
S1133640C26001C0C261DA2D812C912C540120ED9D
S1133650280F283080F0C4FF04C0B8010E948D1DDB
S113366019C02A3040F0C6FFF8CF2F7D3FEE320F4D
S1133670363098F727504C2FC501B4010E949A1A8E
S11336804B015C01C260D15059F0C8010E944F1D2A
S113369097FFDDCFC1FD04C0AACF812C912C54012A
S11336A0C7FF08C0B094A09490948094811C911C8E
S11336B0A11CB11C2C2FB501A401C7010E948E1AB4
S11336C081E0DF91CF911F910F91FF90EF90BF9018
S11336D0AF909F908F900895A0E2B0E0E2E7FBE105
S11336E00C9476185C01962E7A01F9018E010F5F15
S11336F01F4F680180E2D8011D928A95E9F7D50130
S113370013968C9080E090E0612C712C30E061E0A5
S113371070E083FC259183FE21918F01522E2111AB
S113372003C080E090E092C02E3511F4009751F16F
S1133730432F50E0481759073CF42D3559F12D32E9
S113374019F4772009F103C0772009F46AC0452DE4
S1133750469546954695D601A40FB11D452D477053
S11337608B0102C0000F111F4A95E2F7A8015C917A
S1133770452B4C93651459F0561410F45394E7CF29
S11337805A94E5CF31E004C07724739401C0712CBE
S11337900196BFCF772019F08E8180628E8331111C
S11337A003C08824839417C0F6019E012F5D3F4F08
S11337B08081809581932E173F07D1F7F2CFE114D2
S11337C0F10429F0D7018C93F70131967F019A9483
S11337D0812C9920F9F0C5010E944F1D97FD18C056
S11337E0FC01FF2723E0F595E7952A95E1F7EC0D19
S11337F0FD1D208130E0AC014770552702C035958E
S113380027954A95E2F720FDDACFB5010E948D1D78
S1133810811087CFE114F10411F0D7011C92C80183
S113382015C0422F469546954695D601A40FB11D65
S1133830422F47708B0102C0000F111F4A95E2F717
S1133840A8015C91452B4C93622EA2CFA096EFE089
S11338500C949218A0E0B0E0E0E3FCE10C9476183C
S11338606C01EB015A01FC0117821682512CF601FE
S1133870E380FE01E3FC8591E3FE8191182FEF01C3
S1133880882309F4EEC090E00E943B1D892B21F0AF
S1133890C6010E94C11AEBCF153241F4FE01E3FCCC
S11338A01591E3FE1191EF01153281F4C6010E94D6
S11338B04F1D97FDD4C0412F50E09C01332724179E
S11338C03507A9F2B6010E948D1DCBC01A3239F416
S11338D0E3FC1591E3FE1191EF0101E001C000E06A
S11338E0F12C20ED210F2A3080F402606F2D70E05E
S11338F080E090E040E20E949A1AF62EFE01E3FC7A
S11339001591E3FE1191EF01ECCF01FF03C0F1101B
S113391003C0A7C0FF24FA94183619F01C3651F0DE
S113392010C0FE01E3FC1591E3FE1191EF0118367E
S113393041F408600460FE01E3FC1591E3FE11917B
S1133940EF01112309F48DC0612F70E08AE691E044
S11339500E94441D892B09F484C000FD07C0F501B1
S113396080809180C50102965C0102C0812C912C5B
S11339701E3651F4F6014681578160E070E0202F35
S1133980C4010E948E1A73CF1336A9F401FD02C03C
S1133990FF24F394C6010E944F1D97FD60C081145B
S11339A0910429F0F4018083C40101964C01FA9436
S11339B0F110F0CF50C01B3559F49E01A4016F2DB6
S11339C0C6010E946C1BEC01892B09F044C03EC067
S11339D0C6010E94C11A97FD42C01F3661F128F446
S11339E0143639F1193651F128C0133771F01537EF
S11339F001F123C08114910429F0F4016082C4010F
S1133A0001964C01FA94FF2071F0C6010E944F1DEB
S1133A103C0197FD08C00E943B1D892B59F3B60158
S1133A20C3010E948D1D81149104A9F0F401108238
S1133A3012C0006203C0006101C00064202FA40111
S1133A406F2DC6010E94DA1A811105C0F601838127
S1133A50807329F406C000FD0ACF539408CF552083
S1133A6019F0852D90E002C08FEF9FEFCDB7DEB740
S1133A70EFE00C94921891110C94A61D803219F069
S1133A8089508550C8F70895FC010590061621F069
S1133A900020D9F7C00108953197CF010895CF933D
S1133AA0DF93EC012B8120FF33C026FF0AC02F7B5C
S1133AB02B838E819F8101969F838E838A8190E0E0
S1133AC029C022FF0FC0E881F9818081082E000CF3
S1133AD0990B009719F420622B831AC03196F9834D
S1133AE0E8830EC0EA85FB85099597FF09C02B8101
S1133AF0019611F080E201C080E1822B8B8308C023
S1133B002E813F812F5F3F4F3F832E83992702C031
S1133B108FEF9FEFDF91CF910895FB01238120FF69
S1133B2012C026FD10C08F3F3FEF930761F08283E0
S1133B302F7D2064238326813781215031093783E7
S1133B402683992708958FEF9FEF08959927882753
S1093B500895F894FFCF74
S1133B56EC51B83DB3B4012F466F6E742E7478746D
S1133B660025640025732000CFEEE6E0EBF3E9F1CF
S1133B76F2E020EFEEE4EEE6E4E8F2E52E00C8E437
S1133B86B8F220E7E0E3F0F3E7EAE02E2E2E002574
S1133B962E32662000252E316600252E3166200041
S1073BA6257800007A
S9030000FC
