S01000004E524632345F52582E73726563BF
S11300000C949E030C9416120C94BB030C94BB0327
S11300100C94BB030C94BB030C94BB030C94BB0364
S11300200C94BB030C94BB030C94BB030C94260DDF
S11300300C94BB030C94BB030C94990D0C94BB035C
S11300400C94BB030C94BB030C94BB030C94BB0334
S11300500C94BB030C94BB030C94BB030C94BB0324
S11300600C94BB030C94BB030A0E220E3A0E520EE0
S11300706A0E820E9A0E291B311B391B411B491B28
S1130080511B591B6E1B791B841B8F1B9A1BA51BB1
S1130090B01BBB1BC61BD11BDC1BE71B251C661C32
S11300A0A71CE81C291D6A1DAB1D6E616E00696EDC
S11300B0660000407A10F35A00A0724E180900102E
S11300C0A5D4E80000E87648170000E40B540200C9
S11300D000CA9A3B000000E1F505000080969800F4
S11300E0000040420F000000A0860100000010271D
S11300F000000000E80300000000640000000000AD
S11301000A00000000000100000000002C76D888DE
S1130110DC674F0823DFC1DFAE59E1B1B796E5E3F1
S1130120E453C63AE651997696E8E6C28426EB890A
S11301308C9B62ED407C6FFCEFBC9C9F40F2BAA5A7
S11301406FA5F490055A2AF75C936B6CF9676DC13F
S11301501BFCE0E40D47FEF520E6B500D0ED902E43
S11301600300943577050080841E080000204E0AA1
S1130170000000C80C333333330F986E12831141DF
S1130180EF8D2114893BE65516CFFEE6DB18D184AA
S11301904B381BF77C1D901DA4BBE42420328472D1
S11301A05E228100C9F124ECA1E53D276364696EF8
S11301B06F70737578585B0000E0F8FC3E0703012C
S11301C0E1FEFC3F7F878080E07C3F1F070000004A
S11301D0000002E2FEFF1F03008080C0F8FFFF87DB
S11301E0800000000000000C06030387FF7E1C80D3
S11301F0C0E0F0E8E4E3E1F018000000008084824D
S1130200C3C37F3F1E60E0C0C08081437F3F1E00A8
S113021000000000804020F0F8FC1E101C1A191881
S1130220F8FEFF1F190800004078F6E7E7C78707C4
S11302300360E0C08080417F3F0F000000C0E0F811
S1130240785C4EC6C381013F7FFF8180C0F07F3F51
S11302500F00080E07070787671F0701008060105B
S11302600C0300000000000000003C7EFFE3C1C15D
S11302707F3E1C3C7EFF838081C37F7F1E0000F095
S1130280FCFE0F0301C1FFFEFC80C1C363723A1E72
S11302900F07030000000000003838380000000099
S11302A00000383838000000000080C0602060C0C2
S11302B0803F7FC080C07F3F002020E0E00000003E
S11302C08080FFFF808080C06060E0C00080C0E06C
S11302D0D8CFC3E080406060E0C000C0C084868F97
S11302E07D3800000080C0E00038343231FFFF3038
S11302F000C06060606020C2C3C383864E3C00803F
S1130300C0406020203E7FC382C67C38C0606060ED
S113031060E020000080700E0100C0E0202020E09A
S1130320C071FB87868EFF7980C0602060C08083A7
S113033087CC48783F0F000000000000000000C098
S1130340C0000000FC8484FC0008FC0088C4A49C59
S11303504484947C6050FC405894946478949464ED
S11303600004F40C6C94946C98A4A47800800000AD
S113037000000000000000004F000000000700071C
S1130380000000147F147F1400242A7F2A12002303
S1130390130864620036495522400000050300003A
S11303A0001C224100000041221C00000014083EF1
S11303B008140008083E080800A0600000000008B7
S11303C0080808080060600000000020100804020B
S11303D0003E5149453E0000427F400000426151C9
S11303E04946002141454B31001814127F10002763
S11303F045454539003C4A49493000017109050326
S113040000364949493600064949291E006C6C00EA
S113041000000000563600000008142241000024A9
S11304202424242400004122140800020151090656
S113043000324979413E007E1111117E007F494905
S11304404936003E41414122007F4141221C007F48
S113045049494941007F09090901003E4149493A96
S1130460007F0808087F0000417F410000204041D0
S11304703F01007F08142241007F40404040007F3C
S1130480020C027F007F0408107F003E4141413E80
S1130490007F09090906003E4151215E007F0919C8
S11304A029460046494949310001017F0101003FC5
S11304B04040403F001F2040201F003F4060403F1D
S11304C000631408146300070870080700615149A9
S11304D04543007F414100000015167C161500417C
S11304E0417F0000000402010204004040404040FB
S11304F0000102040000002054545478007F444456
S1130500443800384444440000384444487F0038A8
S11305105454541800107E110102000C5252523EE1
S1130520007F080404780000447D4000002040401F
S11305303D00007F102844000000417F4000007C03
S113054004180478007C08040478003844444438CF
S1130550007C1414140800081414187C007C08048B
S1130560040800485454542000043F444020003CF4
S11305704040207C001C2040201C001E2010201E17
S113058000221408142200064848483E00446454DB
S11305904C440008364100000000007F0000004188
S11305A0360800000008082A1C08007E1111117E7C
S11305B0007F49494933007F49494936007F010199
S11305C0010300E0514F41FF007F49494941007751
S11305D0087F0877004149494936007F1008047FA5
S11305E0007C2112097C007F081422410020413F35
S11305F0017F007F020C027F007F0808087F003E15
S11306004141413E007F0101017F007F0909090644
S1130610003E414141220001017F010100472810B1
S11306200807001C227F221C006314081463007F47
S1130630404040FF00070808087F007F407F407F5C
S1130640007F407F40FF00017F484830007F4830F2
S1130650007F00007F48483000224149493E007F26
S1130660083E413E00462919097F0020545454781D
S1130670003C4A4A4931007C54542800007C04045C
S1130680040C00E0544C44FC003854545418006CDE
S1130690107C106C004444545428007C2010087CC6
S11306A0007C4122117C007C102844000020443C42
S11306B0047C007C0810087C007C1010107C00383E
S11306C044444438007C0404047C007C141414085E
S11306D00038444444280004047C0404000C5050B2
S11306E0503C003048FC4830004428102844007C2A
S11306F0404040FC000C1010107C007C407C407C8E
S1130700007C407C40FC00047C505020007C505015
S1130710207C007C50502000002844545438007C35
S11307201038443800085434147C007E4B4A4B4241
S113073000385554551800000609090611241FBE37
S1130740CFEFD8E0DEBFCDBF12E0A0E0B1E0E8E635
S1130750FDE502C005900D92A43FB107D9F728E04A
S1130760A4EFB2E001C01D92A631B207E1F70E94E6
S1130770A30F0C94B22E0C9400000F931F93CF93ED
S1130780DF93C82F0E94F8138EEE0E9404148C2F5E
S11307900E9404140E9400140E94F8138FEE0E9419
S11307A004140E940E14C82FD0E00E941814082FBD
S11307B010E00E9400149C2F8827800F911FDF9166
S11307C0CF911F910F9108958AEA0E94BD039093DF
S11307D0C7078093C6078CEA0E94BD039093CF0796
S11307E08093CE078EEA0E94BD039093DF07809327
S11307F0DE0780EB0E94BD039093D3078093D2075A
S113080082EB0E94BD039093CD078093CC0784EBC9
S11308100E94BD039093CB078093CA0786EB0E9486
S1130820BD039093C9078093C80788EB0E94BD035A
S11308309093C3078093C2078AEB0E94BD039093F1
S1130840C5078093C4078CEB0E94BD039093D50722
S11308508093D4078EEB0E94BD039093D1078093BD
S1130860D00708950E94F8138EEE0E94041484EFBA
S11308700E9404148EE20E9404140E9400148FE06B
S113088097E20197F1F700C0000086EF0E94BD03D4
S1130890BC0180E090E008950E94F8138EEE0E945F
S11308A0041484EF0E94041484EF0E9404140E9430
S11308B000148FE19BEC0197F1F700C000000E9447
S11308C0F8138EEE0E94041486EF0E9404140E9412
S11308D000140E94F8138FEE0E9404140E940E1458
S11308E090E0A0E0B0E08093DA079093DB07A09358
S11308F0DC07B093DD070E940E1490E0A0E0B0E0A6
S11309008093D6079093D707A093D807B093D907BD
S11309100E94181490E0A0E0B0E08093BE0790938A
S1130920BF07A093C007B093C1070E940014409171
S1130930DA075091DB076091DC077091DD07BA019B
S1130940552744278091D6079091D707A091D807BF
S1130950B091D907BA2FA92F982F8827480F591F6C
S11309606A1F7B1F8091BE079091BF07A091C007AB
S1130970B091C107840F951FA61FB71FBC01CD01FD
S1130980689414F896958795779567951694D1F79A
S113099008954F925F926F927F928F929F92AF923F
S11309A0BF92CF92DF92EF92FF920F931F93CF9358
S11309B0DF9300D000D0CDB7DEB70E9432046B01C4
S11309C07C010E944C0469837A838B839C8380918D
S11309D0CA079091CB07A7019601281B390B41093F
S11309E05109A091CC07B091CD070E9460292B0139
S11309F03C01032E3FE075946794579447943A95CD
S1130A00D1F7302D6091D4077091D507CB01770FC2
S1130A10AA0BBB0BBC01CD01052E5BE0660F771F53
S1130A20881F991F5A95D1F7502D2091D0073091E6
S1130A30D1078901330F220B330BA9019801240D2F
S1130A40351D461D571D0E943B29420E531E641E30
S1130A50751E80EA481A8FE0580A61087108A301DC
S1130A609201C301B2010E9409294B015C01072EC6
S1130A707CE0B594A794979487947A95D1F7702DD8
S1130A80A091C207B091C307A50194010E946B29EC
S1130A906B017C010B2EBBE0F594E794D794C794CB
S1130AA0BA95D1F7B02DA091CE07B091CF07A3018D
S1130AB092010E946B29DC01CB01072E7BE0B595E6
S1130AC0A795979587957A95D1F7702DC80ED91E5D
S1130AD0EA1EFB1E8091C6079091C707092E000CE1
S1130AE0AA0BBB0B880F991FAA1FBB1F880F991F46
S1130AF0AA1FBB1FC80ED91EEA1EFB1ECC0CDD1C90
S1130B00EE1CFF1CA091DE07B091DF070E946B2949
S1130B102B013C01032E3DE0759467945794479450
S1130B203A95D1F7302DA091C807B091C907A50116
S1130B3094010E946B29BB2797FDB095AB2F840DC0
S1130B40951DA61DB71D0296A11DB11DB595A795AE
S1130B5097958795B595A795979587959C01AD0130
S1130B6030584F4F5F4FA091D207B091D3070E94E6
S1130B7060292B013C01032E3FE07694679457943F
S1130B8047943A95D1F7302D29813A814B815C8184
S1130B902C193D094E095F09AAE6B8E10E946029B3
S1130BA099235CF0660F771F881F991FA301920198
S1130BB00E94192929013A010AC0A30192010E9445
S1130BC0192929013A01440C551C661C771CC301E0
S1130BD0B2010E946A246B017C0120E030E040E80D
S1130BE05BE30E941F259B01AC010E941F250E940C
S1130BF032249B01AC01AEEDBBE00E9460290E944F
S1130C006A2420E030E040E857E30E941F250E9458
S1130C1032244B015C01A3E4B3EEA30192010E94D0
S1130C206E290E946A2420E030E040E857E30E94E5
S1130C301F250E943224DC01CB01880D991DAA1DB9
S1130C40BB1DBC01CD016153714F8F4F9F4F0E945B
S1130C506A2420E030E040E85DE30E941F259B0108
S1130C60AC01C701B6010E944F230E943224609355
S1130C70F4027093F5028093F6029093F7020F90BA
S1130C800F900F900F90DF91CF911F910F91FF90D4
S1130C90EF90DF90CF90BF90AF909F908F907F9018
S1130CA06F905F904F9008952FEF83ED90E3215064
S1130CB080409040E1F700C0000087B1816087B9AF
S1130CC088B1816088B980E00895BC0187B18160F2
S1130CD087B988B18E7F88B988B1816088B92FEFD0
S1130CE080E792E0215080409040E1F700C000008E
S1130CF088B18E7F88B98FE99CE80197F1F700C02D
S1130D00000088B1816088B987B18E7F87B990EA85
S1130D109A95F1F7309938C025ED2A95F1F700003E
S1130D2096B1892F817090FF30C085ED8A95F1F7D7
S1130D30000080E025C0E4E0F0E0E81BF109E60FE4
S1130D40F71F108290E019C0309BFECF2DE52A9545
S1130D50F1F70000309B0EC047E050E0491B5109F9
S1130D6021E030E002C0220F331F4A95E2F73081C0
S1130D70232B20833099FECF9F5F983028F38F5F19
S1130D808530C8F281E0089580E0089590910001D3
S1130D906917E0F4909101018917C0F4962F969594
S1130DA096959695E82FF0E080E8989FE00DF11D68
S1130DB01124677081E090E002C0880F991F6A9542
S1130DC0E2F7E954FC4F9081892B80830895909138
S1130DD000016917E0F4909101018917C0F4962F7E
S1130DE0969596959695E82FF0E080E8989FE00D0B
S1130DF0F11D112467708EEF90E002C0880F991FD7
S1130E006A95E2F7E954FC4F908189238083089521
S1130E1082E08A95F1F700C08BB180628BB982E0E1
S1130E208A95F1F700C08BB18F7D8BB982E08A95EA
S1130E30F1F700C008951F93CF93DF93182F8BB160
S1130E4080688BB98BB180648BB90E9408070E94BB
S1130E5008070E9408070E9408070E9408078BB130
S1130E608F7B8BB90E9408078BB180648BB90E9479
S1130E7008078BB18F7B8BB90E940807C0E0D0E0D4
S1130E801CC0CE010497049730F48BB18F7B8BB9CF
S1130E900E94080711C0812F807841F0803859F4EE
S1130EA08BB180648BB90E94080705C08BB18F7B1E
S1130EB08BB90E940807110F2196CC30D1050CF391
S1130EC08BB18F7B8BB90E9408070E9408070E9490
S1130ED008070E9408078BB18F778BB9DF91CF91F8
S1130EE01F9108951F93CF93DF93182F8BB18068C0
S1130EF08BB98BB180648BB90E9408070E940807E4
S1130F000E9408070E9408070E9408078BB18F7B84
S1130F108BB90E9408078BB18F7B8BB90E9408079D
S1130F208BB18F7B8BB90E940807C0E0D0E01CC056
S1130F30CE010497049730F48BB18F7B8BB90E9458
S1130F40080711C0812F807841F0803859F48BB1A3
S1130F5080648BB90E94080705C08BB18F7B8BB965
S1130F600E940807110F2196CC30D1050CF38BB1E8
S1130F708F7B8BB90E9408070E9408070E9408070C
S1130F800E9408078BB18F778BB9DF91CF911F91A6
S1130F900895882399F084E30E9472078FEC97E008
S1130FA00197F1F700C0000086E30E9472078FECFE
S1130FB097E00197F1F700C00000089580E30E94D4
S1130FC072078FEC97E00197F1F700C000000895D5
S1130FD08F929F92AF92BF92DF92EF92FF920F9304
S1130FE01F93CF93DF937C01D12C31C18FE18D15F9
S1130FF048F08D2D80680E947207802F80680E94BF
S1131000720709C080EE8D0D80680E947207802FE0
S113101088680E947207CD2DC695C695C695D0E006
S1131020CC0FDD1FCC0FDD1FCC0FDD1FC00FD11D7A
S1131030C295D295D07FDC27C07FDC27CE0DDF1D83
S11310408880912C1D2D1770012E02C095948794D1
S11310500A94E2F79694982C882497948794A9800C
S1131060B12C012E02C0B594A7940A94E2F781E052
S1131070A822BB240024B694A7940794B694A794FA
S11310800794BA2CA02CAA81B0E0012E02C0B59519
S1131090A7950A94E2F7A170BB27AA0FBB1FA295DC
S11310A0B295B07FBA27A07FBA27EB81F0E0012E7A
S11310B002C0F595E7950A94E2F7E170FF27E295FF
S11310C0F295F07FFE27E07FFE276C8170E0012E11
S11310D002C0759567950A94E2F761707727660FE9
S11310E0771F660F771F660F771F4D8150E0012E23
S11310F002C0559547950A94E2F741705527440F6D
S1131100551F440F551F2E8130E0012E02C0359526
S113111027950A94E2F721703327220F331F8F811A
S113112090E0012E02C0959587950A94E2F7A828CD
S1131130AA29EA2B6E2B462B242B8170822B0E942A
S11311401B078884912C012E02C0959487940A94DD
S1131150E2F79694982C882497948794A984B12CC8
S1131160012E02C0B594A7940A94E2F781E0A82264
S1131170BB240024B694A7940794B694A794079428
S1131180BA2CA02CAA85B0E0012E02C0B595A79573
S11311900A94E2F7A170BB27AA0FBB1FA295B295D0
S11311A0B07FBA27A07FBA27EB85F0E0012E02C0FA
S11311B0F595E7950A94E2F7E170FF27E295F29539
S11311C0F07FFE27E07FFE276C8570E0012E02C0D1
S11311D0759567950A94E2F761707727660F771F14
S11311E0660F771F660F771F4D8550E0012E02C0F2
S11311F0559547950A94E2F741705527440F551FBA
S1131200440F551F2E8530E0012E02C035952795D9
S11312100A94E2F721703327220F331FCF85D0E0E1
S113122002C0D595C7951A95E2F7882D8A298A2B8D
S11312308E2B862B842B822BC1708C2B0E941B0738
S11312400F5F01C000E0083008F4D0CED3948FE3E0
S11312508D15C0F7DF91CF911F910F91FF90EF9003
S1131260DF90BF90AF909F908F90089581E00E948F
S113127072078FE19EE40197F1F700C00000089522
S11312802FEF89EF90E0215080409040E1F700C0BB
S113129000008CE00E94720787EC90E00197F1F760
S11312A000C000000E94360986E00E9472078FE1A8
S11312B09EE40197F1F700C00000089520E030E0BB
S11312C02AC04423A1F0FB01EE0FFF1FE60FF71F16
S11312D0EE0FFF1FE20FF31FE059FC4F5491F90189
S11312E0E80FF91FEA54FC4F5095508312C0FB01DC
S11312F0EE0FFF1FE60FF71FEE0FFF1FE20FF31FA6
S1131300E059FC4F5491FC01E20FF31FEA54FC4FE7
S113131050832F5F3F4F273031059CF2089520E022
S113132030E026C0442391F0FB01EE0FFF1FEE0FC7
S1131330FF1FE20FF31FEC5BFC4F5491F901E80F20
S1131340F91FEA54FC4F5095508310C0FB01EE0F77
S1131350FF1FEE0FFF1FE20FF31FEC5BFC4F5491D6
S1131360FC01E20FF31FEA54FC4F50832F5F3F4F01
S113137024303105BCF2089520E030E028C0442335
S113138099F056E1569FF001579FF00D1124E20F9A
S1131390F31FE854FE4F5491F901E80FF91FEA5482
S11313A0FC4F5095508311C056E1569FF001579F52
S11313B0F00D1124E20FF31FE854FE4F5491FC0189
S11313C0E20FF31FEA54FC4F50832F5F3F4F2B3043
S11313D03105ACF28B589F4F2BE030E028C04423FA
S11313E099F056E1569FF001579FF00D1124E20F3A
S11313F0F31FE854FE4F5491FC01E20FF31FEA542B
S1131400FC4F5095508311C056E1569FF001579FF1
S1131410F00D1124E20FF31FE854FE4F5491FC0128
S1131420E20FF31FEA54FC4F50832F5F3F4F2631E6
S11314303105ACF2089520E030E034C04423C9F013
S1131440DB01AA0FBB1FFD01EE0FFF1FEE0FFF1FF5
S1131450EE0FFF1FEA1BFB0BE20FF31FE655FD4FD8
S11314605491F901E80FF91FEA54FC4F5095508349
S113147017C0DB01AA0FBB1FFD01EE0FFF1FEE0F0C
S1131480FF1FEE0FFF1FEA1BFB0BE20FF31FE655D6
S1131490FD4F5491FC01E20FF31FEA54FC4F5083BB
S11314A02F5F3F4F273031054CF287589F4F27E07D
S11314B030E034C04423C9F0DB01AA0FBB1FFD0197
S11314C0EE0FFF1FEE0FFF1FEE0FFF1FEA1BFB0BBC
S11314D0E20FF31FE655FD4F5491FC01E20FF31F99
S11314E0EA54FC4F5095508317C0DB01AA0FBB1F71
S11314F0FD01EE0FFF1FEE0FFF1FEE0FFF1FEA1B94
S1131500FB0BE20FF31FE655FD4F5491FC01E20F74
S1131510F31FEA54FC4F50832F5F3F4F2E303105A9
S11315204CF20895DF92EF92FF920F931F93CF93A3
S1131530DF93D42E79018C0120E8629F000D111DE8
S11315401124C0E0D0E02BC0F701EC0FFD1F608137
S113155070E0DD2089F06E32710539F06053710955
S113156041E0C8010E941B0A17C041E06AE070E034
S1131570C8010E941B0A10C06E32710539F0605315
S1131580710940E0C8010E941B0A06C040E06AE0FD
S113159070E0C8010E941B0A085F1F4F2196F701E3
S11315A001900020E9F73197EE19FF09CE17DF0704
S11315B058F2DF91CF911F910F91FF90EF90DF9040
S11315C00895DF92EF92FF920F931F93CF93DF93CF
S11315D0D42E79018C0120E8629F000D111D112485
S11315E0C0E0D0E02BC0F701EC0FFD1F608170E07C
S11315F0DD2089F06E32710539F06053710941E0E4
S1131600C8010E948F0917C041E06AE070E0C80178
S11316100E948F0910C06E32710539F06053710950
S113162040E0C8010E948F0906C040E06AE070E013
S1131630C8010E948F090B5F1F4F2196F70101908B
S11316400020E9F73197EE19FF09CE17DF0758F2AA
S1131650DF91CF911F910F91FF90EF90DF9008954C
S1131660DF92EF92FF920F931F93CF93DF93D42EC9
S113167079018C0120E8629F000D111D1124C0E046
S1131680D0E017C0F701EC0FFD1F608170E0DD2092
S113169039F06053710941E0C8010E94BC0906C0D9
S11316A06053710940E0C8010E94BC09045F1F4FE8
S11316B02196F70101900020E9F73197EE19FF090F
S11316C0CE17DF07F8F2DF91CF911F910F91FF90B2
S11316D0EF90DF900895BF92CF92DF92EF92FF9246
S11316E00F931F93CF93DF93B42E79018C0120E8DD
S11316F0629F000D111D1124C12CD12C79C0F7015A
S1131700EC0DFD1DC081C03CD0F4C83AC1F0C83B0B
S1131710B1F0C03BA1F06C2F70E0BB2039F06052F7
S1131720710941E0C8010E945E0906C06052710956
S113173040E0C8010E945E090A5F1F4F56C0D0E016
S1131740CE01805C91098034910598F4BB2041F06E
S113175041E0BE0161567109C8010E945E0907C0DB
S113176040E0BE0161567109C8010E945E090A5F2A
S11317701F4FC83AD10589F4BB2039F041E06FE925
S113178070E0C8010E945E0906C040E06FE970E0A5
S1131790C8010E945E090A5F1F4FC83BD10589F446
S11317A0BB2039F041E060EA70E0C8010E945E09A4
S11317B006C040E060EA70E0C8010E945E090A5F6A
S11317C01F4FC03BD10589F4BB2039F041E061EAE9
S11317D070E0C8010E945E0906C040E061EA70E062
S11317E0C8010E945E090A5F1F4F8FEFC81AD80A0A
S11317F0F70101900020E9F73197EE19FF09CE16A1
S1131800DF0608F47CCFDF91CF911F910F91FF90F9
S1131810EF90DF90CF90BF90089580E094E0E7EBE5
S1131820F3E0DF019C011D9221503040E1F708955F
S11318308F929F92AF92BF92CF92DF92EF92FF92DC
S11318400F931F93CF93DF93C82FD62FB42E822EDE
S1131850481728F0C42ED12CC81AD10804C0C82EA9
S1131860D12CC41AD1088D1628F0E82CF12CED1ACD
S1131870F10804C0ED2EF12CE818F108CB1518F48A
S1131880AA24A39402C0AA24AA94D81518F49924CB
S1131890939402C099249A9486010E191F096D2FFE
S11318A08C2F0E94C606CB1102C0D815A1F0C80126
S11318B0880F991F222733272E193F092817390724
S11318C01CF40E191F09CA0D8C159D0544F70C0D47
S11318D01D1DD90DE4CFDF91CF911F910F91FF9082
S11318E0EF90DF90CF90BF90AF909F908F9008952E
S11318F05F926F927F928F929F92AF92BF92CF929C
S1131900DF92EF92FF920F931F93CF93DF93782E82
S1131910662EC42F042F10E081E090E06C01C01A01
S1131920D10AAA24BB24A01AB10AAA0CBB1C642F96
S1131930660D872D0E94C606662D6C1B872D0E949E
S1131940C606662D8C2F870D0E94C606662D872D30
S11319508C1B0E94C606C0E0D0E088248394912C9E
S11319603FC0DD203CF00150110982E0A80EB11CFB
S1131970CA0CDB1C219682E0880E911CC80CD91C71
S11319805C2E570CF62CF00E6F2D852D0E94C6068A
S1131990E72CEC1A6F2D8E2D0E94C606F62CF01A39
S11319A06F2D852D0E94C6066F2D8E2D0E94C606B2
S11319B0FC2EF60C6F2DE72CE00E8E2D0E94C60631
S11319C06F2DF72CF01A8F2D0E94C606562C5C1A28
S11319D0652D8E2D0E94C606652D8F2D0E94C6068C
S11319E0C017D1070CF4BDCFDF91CF911F910F9198
S11319F0FF90EF90DF90CF90BF90AF909F908F902B
S1131A007F906F905F900895E1E8F0E080818860B6
S1131A108083AFE6B0E08C9182608C938AE78093F8
S1131A20890082E1809388008081856080830895A5
S1131A3085B5826085BD84E687BD85B5826085BD38
S1131A40EEE6F0E080818260808308951F920F9219
S1131A500FB60F9211242F933F934F935F936F937D
S1131A607F938F939F93AF93BF93EF93FF93809153
S1131A70AD03882309F44CC08091A303882309F49F
S1131A8047C080917B03882309F442C080914903B5
S1131A908823F1F1809153038823D1F1809171035C
S1131AA08823B1F18DEA93E09F938F9389E191E0CC
S1131AB09F938F9387E193E09F938F930E94FE2AD5
S1131AC06BE773E087E193E00E94A32A69E473E083
S1131AD087E193E00E94A32A63EA73E087E193E03D
S1131AE00E94A32A63E573E087E193E00E94A32A9E
S1131AF061E773E087E193E00E94A32A87E193E022
S1131B000E9438140F900F900F900F900F900F9029
S1131B10FF91EF91BF91AF919F918F917F916F91C1
S1131B205F914F913F912F910F900FBE0F901F9097
S1131B3018951F920F920FB60F9211242F933F9373
S1131B404F935F936F937F938F939F93AF93BF93C1
S1131B50EF93FF9383B182958695869583708093E6
S1131B60F9024B99F6C08091FD02823091F128F47C
S1131B70882351F0813061F0ECC0833009F4E2C075
S1131B80843009F4E3C0E5C081E08093FD02E1C044
S1131B908091FA0283781CF481508C6F8F5F8130BE
S1131BA061F01CF4882331F0D4C0823051F08330CA
S1131BB061F0CFC01092FD02CCC082E08093FD02A0
S1131BC0C8C083E08093FD02C4C084E08093FD021A
S1131BD0C0C09091FA0283E99802812D1124890FE3
S1131BE085958595E82F97FDE3958E2F880F880FAF
S1131BF0880F8E1BE92FE81B8E2FEE0F990BAA0B73
S1131C00BB0B8730910508F0A4C0FC01EC5CFF4FCE
S1131C100C945A298091FC02811108C08091F2072A
S1131C208093FB0281E08093FC0293C08091FB02CD
S1131C308093F20781E08093F9070E9424131092A5
S1131C40FC0287C08091FC02811108C08091FE07CC
S1131C508093FB0281E08093FC027BC08091FB02B5
S1131C608093FE0782E08093F9070E942413109268
S1131C70FC026FC08091FC02811108C080910908A8
S1131C808093FB0281E08093FC0263C08091FB029D
S1131C908093090886E08093F9070E942413109228
S1131CA0FC0257C08091FC02811108C080910B088E
S1131CB08093FB0281E08093FC024BC08091FB0285
S1131CC080930B0883E08093F9070E9424131092F9
S1131CD0FC023FC08091FC02811108C08091EE0794
S1131CE08093FB0281E08093FC0233C08091FB026D
S1131CF08093EE0784E08093F9070E9424131092E6
S1131D00FC0227C08091FC02811108C08091070861
S1131D108093FB0281E08093FC021BC08091FB0254
S1131D208093070885E08093F9070E94241310929A
S1131D30FC020FC01092F90781E08093FD028093AA
S1131D40FA0207C081E08093FD0203C081E0809322
S1131D50FD029091F9028091F802892B8430C1F040
S1131D6018F4813029F023C08B3091F08E30F9F4CF
S1131D708091FC02882331F08091FB028F5F809375
S1131D80FB0215C08091FA028F5F8093FA020FC0A4
S1131D908091FC02882331F08091FB028150809372
S1131DA0FB0205C08091FA0281508093FA02990FD8
S1131DB0990F9093F8028091FA0288371CF01092E0
S1131DC0FA0205C088231CF487E78093FA029091F5
S1131DD0FA0283E99802812D1124890F859585954E
S1131DE097FD8395282F220F220F220F281B921B69
S1131DF0923041F12CF4992351F09130B1F055C057
S1131E009430D1F164F1953009F443C04EC080910F
S1131E10FB0289311CF01092FB0247C088230CF0AE
S1131E2044C087E18093FB0240C08091FB028C3365
S1131E301CF01092FB0239C08823BCF58BE380931D
S1131E40FB0233C08091FB0288301CF01092FB022D
S1131E502CC0882354F587E08093FB0226C0809130
S1131E60FB0280321CF01092FB021FC08823ECF4AA
S1131E708FE18093FB0219C08091FB028D301CF02E
S1131E801092FB0212C0882384F48CE08093FB023E
S1131E900CC08091FB0284361CF01092FB0205C03A
S1131EA088231CF483E68093FB02FF91EF91BF919A
S1131EB0AF919F918F917F916F915F914F913F91DE
S1131EC02F910F900FBE0F901F90189584B18E62C2
S1131ED084B985B1837D85B98AB18B7F8AB98BB189
S1131EE084608BB985B1846085B980E58CBD089523
S1131EF08AB180618AB98BB18F7E8BB98AB18068CF
S1131F008AB98BB18F778BB98AB180628AB98BB168
S1131F108F7D8BB98AB180648AB98BB18F7B8BB981
S1131F208AB1877F8AB984B18E7F84B98BB1886086
S1131F308BB985B18F7385B908958EBD0DB407FE35
S1131F40FDCF8EB508950E94780F8BB180618BB957
S1131F500E94660F0E94F41388E090E00E9422140D
S1131F600E94400981E00E94C9070E940D0C87EB82
S1131F7093E00E94E80780E00E94C9070E94A9122A
S1131F800E9413130E9454060E94E4038BB18F7EB7
S1131F908BB9F8940E94040D0E94180D82E080937E
S1131FA0690081E08DBB78948091FD028230A9F0B4
S1131FB028F4882341F0813059F0F6CF833091F032
S1131FC08430A9F0F1CF87EB93E00E943D20ECCF61
S1131FD087EB93E00E945314E7CF87EB93E00E94D2
S1131FE0F21BE2CF87EB93E00E940315DDCF87EB72
S1131FF093E00E945415D8CFCF93DF938091B80714
S1132000813009F063C18091B907813009F059C06A
S1132010EDEAF3E001900020E9F73197AF014D5A62
S11320205340440F551F60E070E08DEA93E00E9436
S11320309C2AE9EBF7E08181C281D0E0DC2FCC2738
S1132040C82BBE010D2E000C880B990B0E946A242C
S113205020E030E040E251E40E94C0236093090391
S113206070930A0380930B0390930C03DD235CF4B9
S1132070DC01CB01B0588093090390930A03A09329
S11320800B03B0930C0380910C038F9380910B038B
S11320908F9380910A038F93809109038F938DE12D
S11320A091E09F938F938DEA93E09F938F930E9487
S11320B0FE2A8DB79EB708960FB6F8949EBF0FBE42
S11320C08DBF8091B907853009F03FC0C3EAD3E0E2
S11320D0FE0101900020E9F73197AF01435A5340C4
S11320E0440F551F60E070E0CE010E949C2AE9EB8A
S11320F0F7E08181628170E0762F6627682B072ED6
S1132100000C880B990B0E946A2420E030E040E226
S113211051E40E94C02360930503709306038093E7
S11321200703909308030E9432247F936F938DE9F1
S113213092E09F938F93DF93CF930E94FE2A0F9098
S11321400F900F900F900F900F90C091B907C2306D
S113215061F5E5E8F3E001900020E9F73197AF017C
S113216045585340440F551F60E070E085E893E004
S11321700E949C2A20E00BC0822F90E0FC01E654D0
S1132180F84F3081FC01EB57FC4F30832F5F822FD7
S113219090E0E9EBF7E001900020E9F73197E95B83
S11321A0F74031978E179F0738F3C33089F5E1E77D
S11321B0F3E001900020E9F73197AF014157534014
S11321C0440F551F60E070E081E793E00E949C2A71
S11321D020E00BC0822F90E0FC01E654F84F3081E0
S11321E0FC01EF58FC4F30832F5F822F90E0E9EB26
S11321F0F7E001900020E9F73197E95BF740319768
S11322008E179F0738F3FC01EE58FC4F80E2808361
S1132210C43061F5E7E6F3E001900020E9F7319777
S1132220AF0147565340440F551F60E070E087E606
S113223093E00E949C2A20E00BC0822F90E0FC01D6
S1132240E654F84F3081FC01E959FC4F30832F5F8D
S1132250822F90E0E9EBF7E001900020E9F7319755
S1132260E95BF74031978E179F0738F3C63061F565
S1132270EDE5F3E001900020E9F73197AF014D550A
S11322805340440F551F60E070E08DE593E00E94D9
S11322909C2A20E00BC0822F90E0FC01E654F84F0A
S11322A03081FC01E35AFC4F30832F5F822F90E092
S11322B0E9EBF7E001900020E9F73197E95BF7409B
S11322C031978E179F0738F31092B807DF91CF919B
S11322D0089585B18B7F85B982EE90E00E949D0FB1
S11322E082E08A95F1F700C085B1846085B90895CC
S11322F085B18B7F85B981EE90E00E949D0F82E0CD
S11323008A95F1F700C085B1846085B9089585B1D7
S11323108B7F85B980E590E00E949D0F82E08A95CD
S1132320F1F700C083E790E00E949D0F85B18460BF
S113233085B90895EF92FF920F931F93CF93DF9384
S11323408B01C42F95B19B7F95B990E00E949D0F9E
S11323500CC078018FEFE81AF80A8FEF90E00E9422
S11323609D0FF8018083CD2F8701DFEFDC0FC111B2
S1132370F0CF85B1846085B9DF91CF911F910F9122
S1132380FF90EF900895EF92FF920F931F93CF93D6
S1132390DF938B01C42F806295B19B7F95B990E048
S11323A00E949D0F82E08A95F1F700C00BC078016E
S11323B0EFEFEE1AFE0AF801808190E00E949D0F73
S11323C0CD2F8701DFEFDC0FC111F1CF85B1846020
S11323D085B9DF91CF911F910F91FF90EF900895F0
S11323E0CF93C62F806295B19B7F95B990E00E94F0
S11323F09D0F8C2F90E00E949D0F85B1846085B95C
S1132400CF910895CF93C82F85B18B7F85B98C2F39
S113241090E00E949D0FC73021F08FEF90E00E9462
S11324209D0F95B1946095B9CF9108951F920F9225
S11324300FB60F9211242F933F934F935F936F9393
S11324407F938F939F93AF93BF93EF93FF9387E50E
S113245092E00197F1F700C000008BB180618BB965
S113246087E592E00197F1F700C000008BB18F7E01
S11324708BB987E00E94021286FF0AC045E069EB2F
S113248077E081E60E949A1160E487E00E94F011EF
S113249081E08093B8070E94FC0F8091B7078630D3
S11324A011F41092B7078091B7078F5F8093B70735
S11324B08FEF97E09F938F9383EF97E09F938F9392
S11324C083E098E09F938F938AEF97E09F938F9395
S11324D08DE098E09F938F9381E198E09F938F9391
S11324E082E291E09F938F9382E091E09F938F9398
S11324F00E94FE2A8DB79EB740960FB6F8949EBFF1
S11325000FBE8DBFFF91EF91BF91AF919F918F91BE
S11325107F916F915F914F913F912F910F900FBEDB
S11325200F901F90189580E00E940212682F63603C
S113253080E00E94F01185B1826085B98BE291E060
S11325400197F1F700C000000E9469110E94781100
S1132550089585B18D7F85B98FE097E20197F1F7F2
S113256000C000006AE080E00E94F0118FE097E272
S11325700197F1F700C0000062E081E00E94F011D1
S113258062E082E00E94F01161E083E00E94F011B9
S11325906FE584E00E94F0110E94871160E08DE1F4
S11325A00E94F01160E08CE10E94F01160E787E086
S11325B00E94F0116CE485E00E94F01166E086E070
S11325C00E94F01143E066E171E080E10E94C311D2
S11325D043E066E171E08BE00E94C31165E082E1B3
S11325E00E94F0110E94931208959DEC899F912DF1
S11325F0112496959695969520E1929FA001112419
S1132600990F292F220F220F920F891B842B0895D3
S1132610982F92959F70990F292F220F220F920FB6
S11326208F70890F08950E94F81380ED0E9404149E
S11326308EE00E94041480E20E94041488E00E9448
S113264004140E94001408950E94F81380ED0E945F
S113265004148091F907833099F128F4813061F0F2
S11326608230E1F0BEC0853009F498C008F484C01B
S1132670863009F4A5C0B5C082E00E94041480919C
S1132680F207873128F40E94F5120E940414A9C0AD
S113269080E00E94F5120E940414A3C081E00E940D
S11326A004148091FE078B3328F40E94F5120E94D3
S11326B0041497C080E00E94F5120E94041491C093
S11326C084E00E9404148091EE07823011F5809119
S11326D00708837079F480910B088D3128F40E94E7
S11326E0F5120E9404147DC081E00E94F5120E943C
S11326F0041477C080910B088C3128F40E94F512E1
S11327000E9404146EC081E00E94F5120E94041419
S113271068C021E0843009F020E091E0863009F0BF
S113272090E0292B91E0893009F090E031E08B3082
S113273009F030E0922B11F4332379F080910B08E7
S11327408E3128F40E94F5120E9404144AC081E0DC
S11327500E94F5120E94041444C080910B088F312A
S113276028F40E94F5120E9404143BC081E00E94E8
S1132770F5120E94041435C085E00E94041480916F
S1132780EE078C3028F40E94F5120E94041429C02C
S113279081E00E94F5120E94041423C086E00E9486
S11327A0041480910708833628F40E94F5120E94CD
S11327B0041417C081E00E94F5120E94041411C091
S11327C083E00E94041480910908873028F40E9451
S11327D0F5120E94041405C081E00E94F5120E94C3
S11327E004140E940014089580E28093B8000895B0
S11327F084EA8093BC008091BC008823E4F70895A8
S113280084E98093BC0008958093BB0084E880939E
S1132810BC008091BC008823E4F7089584EC809385
S1132820BC008091BC008823E4F78091BB0008952C
S113283084E88093BC008091BC008823E4F78091F5
S1132840BB0008959093C5008093C400E1ECF0E0D0
S113285088E18083808180688083E0ECF0E080817F
S113286082608083E2ECF0E080818E608083089552
S1132870DC0180E00BC09091C00095FFFCCFFD010E
S1132880E20FF31F90819093C6008F5F282F30E0F2
S1132890FD0101900020E9F73197EA1BFB0B2E178D
S11328A03F0748F30895CF93DF93EC0181E00E9442
S11328B0C9070E940D0C21E731E041E060E08EE1A0
S11328C090E00E946B0B8091FA0283781CF4815093
S11328D08C6F8F5F813061F11CF4882341F08AC0D2
S11328E0823009F446C0833009F464C083C02EE703
S11328F031E041E062E08FE090E00E946B0B20E960
S113290031E040E063E08FE090E00E946B0B22EA4C
S113291031E040E064E08FE090E00E946B0B2AEA33
S113292031E040E065E08FE090E00E946B0B62C014
S11329302EE731E040E062E08FE090E00E946B0B14
S113294020E931E041E063E08FE090E00E946B0B0E
S113295022EA31E040E064E08FE090E00E946B0BFB
S11329602AEA31E040E065E08FE090E00E946B0BE2
S113297041C02EE731E040E062E08FE090E00E9449
S11329806B0B20E931E040E063E08FE090E00E94CF
S11329906B0B22EA31E041E064E08FE090E00E94BA
S11329A06B0B2AEA31E040E065E08FE090E00E94A2
S11329B06B0B20C02EE731E040E062E08FE090E056
S11329C00E946B0B20E931E040E063E08FE090E08F
S11329D00E946B0B22EA31E040E064E08FE090E07B
S11329E00E946B0B2AEA31E041E065E08FE090E061
S11329F00E946B0BCE010E94E80780E00E94C90789
S1132A00DF91CF910895CF93DF93EC0181E00E9491
S1132A10C9070E940D0C23EB31E041E060E089E13D
S1132A2090E00E946B0B21EC31E040E061E082E039
S1132A3090E00E946B0B26ED31E040E062E080E024
S1132A4090E00E946B0B2BEE31E040E063E080E00D
S1132A5090E00E946B0B20E032E040E064E080E014
S1132A6090E00E946B0B26E132E040E065E080E0FC
S1132A7090E00E946B0B2BE232E040E066E080E0E5
S1132A8090E00E946B0B20E432E041E067E089E1D2
S1132A9090E00E946B0BCE010E94E80780E00E9448
S1132AA0C907DF91CF910895CF93DF93EC0181E0C3
S1132AB00E94C9070E940D0C2DE432E041E060E061
S1132AC085E090E00E946B0B21E632E040E061E09B
S1132AD080E090E00E946B0B25E732E040E062E08A
S1132AE080E090E00E946B0B22E031E040E063E084
S1132AF080E090E00E946B0B20E432E041E067E06C
S1132B0089E190E00E946B0BCE010E94E80780E00F
S1132B100E94C907DF91CF91089529E34AE669E34A
S1132B208AE50E94180C68E389E50E94C60667E3FB
S1132B3088E50E94C60666E387E50E94C60665E34B
S1132B4087E50E94C60664E387E50E94C60663E340
S1132B5088E50E94C60662E389E50E94C60662E330
S1132B608AE50E94C60662E38BE50E94C60662E31C
S1132B708CE50E94C60663E38EE50E94C60662E306
S1132B808DE50E94C60661E38CE50E94C60660E3FB
S1132B908CE50E94C6066FE28CE50E94C6066EE2D2
S1132BA08CE50E94C6066DE28DE50E94C6066CE2C5
S1132BB08EE50E94C6066CE28FE50E94C6066CE2B2
S1132BC080E60E94C6066CE281E60E94C6066CE2BC
S1132BD082E60E94C6066CE283E60E94C6066CE2A8
S1132BE084E60E94C6066DE285E60E94C6066EE291
S1132BF086E60E94C6066FE286E60E94C60660E389
S1132C0086E60E94C60661E385E60E94C60660E386
S1132C1086E60E94C60660E387E60E94C60660E375
S1132C2088E60E94C60660E389E60E94C60668E359
S1132C308BE60E94C60667E38CE60E94C60666E33E
S1132C408DE60E94C60665E38DE60E94C60664E32F
S1132C508DE60E94C60663E38DE60E94C60662E323
S1132C608CE60E94C60661E38BE60E94C60660E31A
S1132C708AE60E94C60627E349E767E38EE60E94D8
S1132C80180C66E38AE70E94C60665E38AE70E9499
S1132C90C60664E38AE70E94C60663E38AE70E94E5
S1132CA0C60662E389E70E94C60661E388E70E94DC
S1132CB0C60661E387E70E94C60661E386E70E94D1
S1132CC0C60662E385E70E94C60660E386E70E94C3
S1132CD0C6066FE286E70E94C6066EE285E70E949A
S1132CE0C6066EE284E70E94C6066EE283E70E948F
S1132CF0C6066EE282E70E94C6066FE281E70E9482
S1132D00C60660E381E70E94C60661E381E70E948C
S1132D10C60662E382E70E94C60661E380E70E947A
S1132D20C60661E38FE60E94C60662E38EE60E9451
S1132D30C6062DE349E56BE38BE50E94180C2DE3F1
S1132D404CE56BE38EE50E94180C2DE34FE56BE335
S1132D5081E60E94180C2DE342E66BE384E60E94B0
S1132D60180C2DE345E66BE387E60E94180C2DE36F
S1132D7048E66BE38AE60E94180C2AE34EE669E310
S1132D808FE60E94180C2AE341E769E382E70E9478
S1132D90180C2AE344E769E385E70E94180C2AE348
S1132DA047E769E388E70E94180C089549E064E363
S1132DB08BE00E94780C6CE28BE00E94E7066CE2E8
S1132DC08AE00E94E7066CE289E00E94E7066CE272
S1132DD088E00E94E7066CE28CE00E94E7066CE261
S1132DE08DE00E94E7066CE28EE00E94E7066BE24B
S1132DF089E00E94C6066CE289E00E94C6066DE284
S1132E0089E00E94C6066AE289E00E94C60669E279
S1132E1089E00E94C6066AE28AE00E94C6066BE266
S1132E208BE00E94C6066CE28CE00E94C6066BE250
S1132E308DE00E94C6066CE28DE00E94C6066DE23B
S1132E408DE00E94C6066AE28DE00E94C60669E231
S1132E508DE00E94C6066DE38BE00E94E7066DE3F9
S1132E608AE00E94E7066DE389E00E94E7066DE3CD
S1132E7088E00E94E7066DE38CE00E94E7066DE3BC
S1132E808DE00E94E7066DE38EE00E94E7066CE3A6
S1132E9089E00E94C6066FE389E00E94C6066DE3DE
S1132EA08AE00E94C6066BE38AE00E94C6066FE3CE
S1132EB08AE00E94C6066DE38BE00E94C6066BE3BF
S1132EC08BE00E94C6066FE38BE00E94C6066DE3AA
S1132ED08CE00E94C6066BE38CE00E94C6066FE39A
S1132EE08CE00E94C6066EE38DE00E94C6066BE38A
S1132EF08DE00E94C60664E384E10E94E70665E370
S1132F0084E10E94E70666E384E10E94E70667E342
S1132F1083E10E94E70660E383E10E94C60663E35F
S1132F2084E10E94E70662E384E10E94E70664E329
S1132F3084E10E94C60662E384E10E94C60666E359
S1132F4084E10E94C60664E385E10E94C60662E34A
S1132F5085E10E94C60666E385E10E94C60664E335
S1132F6086E10E94C60662E386E10E94C60666E325
S1132F7086E10E94C60664E383E10E94C60662E31A
S1132F8083E10E94C60666E383E10E94C60664E309
S1132F9082E10E94C60665E382E10E94C60666E3FA
S1132FA082E10E94C60663E382E10E94C60662E3F0
S1132FB082E10E94C60664E382E00E94E70665E3BC
S1132FC082E00E94E70666E382E00E94E70667E388
S1132FD083E00E94E70660E383E00E94C60663E3A1
S1132FE082E00E94E70662E382E00E94E70664E36F
S1132FF082E00E94C60665E382E00E94C60666E39C
S113300083E00E94C60664E384E00E94C60665E38A
S113301084E00E94C60663E384E00E94C60662E37D
S113302084E00E94C60666E381E00E94C60664E36B
S113303080E00E94C60665E380E00E94C60663E362
S113304080E00E94C60662E380E00E94C60664E354
S11330508BE00E94C60668E872E081E793E00E9474
S1133060AE2A892B09F041C065E38AE00E94C606B6
S113307066E38AE00E94C60665E38CE00E94C60609
S113308066E38CE00E94C60663E38BE00E94C606FA
S113309062E38BE00E94C60661E38BE00E94C606F1
S11330A060E38BE00E94C6066FE28BE00E94C606D6
S11330B06EE28BE00E94C6066FE28AE00E94C606BA
S11330C06FE28CE00E94C60660E38AE00E94C606B6
S11330D060E389E00E94C60660E38CE00E94C606B5
S11330E060E38DE00E94C60608956AE872E081E715
S11330F093E00E94AE2A892B09F041C062E38AE082
S11331000E94C60663E38AE00E94C60662E38CE07E
S11331100E94C60663E38CE00E94C60665E38BE06A
S11331200E94C60666E38BE00E94C60667E38BE056
S11331300E94C60668E38BE00E94C60669E38BE042
S11331400E94C6066AE38BE00E94C60669E38AE031
S11331500E94C60669E38CE00E94C60668E38AE022
S11331600E94C60668E389E00E94C60668E38CE014
S11331700E94C60668E38DE00E94C60608956EE8C4
S113318072E081E793E00E94AE2A892B09F041C0E6
S113319063E389E00E94C60663E38AE00E94C606F0
S11331A065E389E00E94C60665E38AE00E94C606DC
S11331B064E38CE00E94C60664E38DE00E94C606C8
S11331C064E38EE00E94C60664E38FE00E94C606B4
S11331D064E380E10E94C60664E381E10E94C606BE
S11331E063E380E10E94C60665E380E10E94C606AF
S11331F065E38FE00E94C60666E38FE00E94C60680
S113320063E38FE00E94C60662E38FE00E94C60675
S1133210089562E972E081E793E00E94AE2A892B67
S113322009F041C063E38DE00E94C60663E38CE0CD
S11332300E94C60665E38DE00E94C60665E38CE045
S11332400E94C60664E38AE00E94C60664E389E03D
S11332500E94C60664E388E00E94C60664E387E031
S11332600E94C60664E386E00E94C60664E385E025
S11332700E94C60663E386E00E94C60665E386E014
S11332800E94C60665E387E00E94C60666E387E0FF
S11332900E94C60663E387E00E94C60662E387E0F5
S11332A00E94C60608956CE872E081E793E00E94EC
S11332B0AE2A892BB9F563E38AE00E94C60664E36B
S11332C089E00E94C60665E38CE00E94C60666E3B8
S11332D08BE00E94C6062FE240E164E38BE00E948B
S11332E0180C6FE28FE00E94C6066FE28EE00E9427
S11332F0C6066FE28DE00E94C60660E38EE00E947F
S1133300C60660E380E10E94C60661E380E10E9494
S1133310C60661E38FE00E94C60662E380E10E9474
S1133320C606089560E972E081E793E00E94AE2A40
S1133330892BB9F563E38CE00E94C60664E38DE053
S11333400E94C60665E38AE00E94C60666E38BE037
S11333500E94C6062FE246E064E38BE00E94180C4C
S11333606FE287E00E94C6066FE288E00E94C6060C
S11333706FE289E00E94C60660E388E00E94C60608
S113338060E386E00E94C60661E386E00E94C6060A
S113339062E386E00E94C60661E387E00E94C606F7
S11333A0089564E972E081E793E00E94AE2A892BD4
S11333B0B9F562E38BE00E94C60663E38CE00E94E9
S11333C0C60665E38AE00E94C60664E389E00E94BB
S11333D0C60629E340E164E38BE00E94180C68E32D
S11333E080E10E94C60669E38FE00E94C60667E397
S11333F08FE00E94C60667E380E10E94C60666E38A
S113340080E10E94C60668E38EE00E94C60669E376
S11334108EE00E94C60669E38DE00E94C606089508
S113342068E972E081E793E00E94AE2A892BB1F546
S113343062E38BE00E94C60663E38AE00E94C6064C
S113344064E38DE00E94C60665E38CE00E94C60634
S113345029E346E064E38BE00E94180C68E386E00D
S11334600E94C60667E386E00E94C60667E387E01B
S11334700E94C60666E386E00E94C60669E387E00A
S11334800E94C60669E388E00E94C60668E388E0F5
S11334900E94C60669E389E00E94C60608958091E9
S11334A008088A3098F41F928F938CE992E09F93D6
S11334B08F938AEF97E09F938F930E94FE2A0F9039
S11334C00F900F900F900F900F9012C01F928F9338
S11334D08DE992E09F938F938AEF97E09F938F9368
S11334E00E94FE2A0F900F900F900F900F900F9054
S11334F08091FE078A3098F41F928F938CE992E0B2
S11335009F938F938DE098E09F938F930E94FE2A60
S11335100F900F900F900F900F900F9012C01F926A
S11335208F938DE992E09F938F938DE098E09F9322
S11335308F930E94FE2A0F900F900F900F900F9080
S11335400F908091F2078A3098F41F928F938CE940
S113355092E09F938F9381E198E09F938F930E94D1
S1133560FE2A0F900F900F900F900F900F9012C0A3
S11335701F928F938DE992E09F938F9381E198E05E
S11335809F938F930E94FE2A0F900F900F900F909D
S11335900F900F9080910B088A3098F41F928F93AC
S11335A08CE992E09F938F9383E098E09F938F93AD
S11335B00E94FE2A0F900F900F900F900F900F9083
S11335C012C01F928F938DE992E09F938F9383E0B3
S11335D098E09F938F930E94FE2A0F900F900F9074
S11335E00F900F900F90809107088A3098F41F92E3
S11335F08F938CE992E09F938F938FEF97E09F9343
S11336008F930E94FE2A0F900F900F900F900F90AF
S11336100F9012C01F928F938DE992E09F938F9326
S11336208FEF97E09F938F930E94FE2A0F900F9045
S11336300F900F900F900F90E09109088E2F90E05B
S1133640FC013197E730F105D8F5E55CFF4F0C94A8
S11336505A29EAEEF7E08FEC9DEE91838083128283
S11336602FC0EAEEF7E082EC92EF9183808312821E
S113367027C0EAEEF7E081ED90EF91838083128218
S11336801FC0EAEEF7E087ED92EF91838083128208
S113369017C0EAEEF7E08FEC92EF918380831282F9
S11336A00FC0EAEEF7E081ED91EE91838083128200
S11336B007C0EAEEF7E082EC91EF918380831282F7
S11336C0E091EE078E2F90E0FC013197EC30F1058C
S11336D008F087C0EE5BFF4F0C945A29E3EFF7E044
S11336E08FED9DEE9183808382EE90E093838283BD
S11336F00895E3EFF7E084ED95EE9183808382EE05
S113370090E0938382830895E3EFF7E08CEC90EEEE
S11337109183808380EF90E0938382830895E3EF25
S1133720F7E080EC9FEE9183808380EF90E09383B9
S113373082830895E3EFF7E08CEC90EE918380832D
S113374089EE90E0938382830895E3EFF7E088ECB9
S11337509EEF918380838DEE90E09383828308951E
S1133760E3EFF7E088EC9EEF918380838BEE90E0AB
S1133770938382830895E3EFF7E080EC92EE9183E4
S1133780808383EE90E0938382830895E3EFF7E0F0
S113379081ED95EE918380838DEE90E09383828317
S11337A00895E3EFF7E08EEC9AEE9183808382EF45
S11337B090E0938382830895E3EFF7E08DEC9EEE2F
S11337C0918380838FEF90E0938382830895E3EF66
S11337D0F7E084EC95EE918380838AEE90E0938306
S11337E082830895CF93DF93EC010E944F1A81E006
S11337F00E94C9070E940D0C20EA32E041E060E01B
S11338008FE090E00E946B0B9091FA0283E998029A
S1133810812D1124890F85958595E82F97FDE395D2
S11338208E2F880F880F880F8E1BE92FE81B8E2F91
S1133830EE0F990BAA0BBB0B8730910508F0C3C19F
S1133840FC01E25BFF4F0C945A298091FC0288230F
S113385021F08091FB028093F20721E138E041E0FE
S113386062E080E290E00E94300B2DE038E040E01E
S113387062E08EE390E00E94300B2AEE37E040E0F5
S113388065E08CE190E00E946B0B23E038E040E0BF
S113389065E081E390E00E946B0B23EF37E040E0AA
S11338A065E086E490E00E946B0B2FEF37E040E088
S11338B065E08FE590E00E946B0B20E432E040E08D
S11338C067E089E190E00E946B0B7DC18091FC026E
S11338D0882321F08091FB028093FE0721E138E0E8
S11338E040E062E080E290E00E94300B2DE038E09E
S11338F041E062E08EE390E00E94300B2AEE37E074
S113390040E065E08CE190E00E946B0B23E038E03E
S113391040E065E081E390E00E946B0B23EF37E029
S113392040E065E086E490E00E946B0B2FEF37E007
S113393040E065E08FE590E00E946B0B20E432E00C
S113394040E067E089E190E00E946B0B3CC180910C
S1133950FC02882321F08091FB028093090821E175
S113396038E040E062E080E290E00E94300B2DE01D
S113397038E040E062E08EE390E00E94300B2AEEF3
S113398037E041E065E08CE190E00E946B0B23E0BE
S113399038E040E065E081E390E00E946B0B23EFA8
S11339A037E040E065E086E490E00E946B0B2FEF87
S11339B037E040E065E08FE590E00E946B0B20E487
S11339C032E040E067E089E190E00E946B0BFBC0CD
S11339D08091FC02882321F08091FB0280930B08E4
S11339E021E138E040E062E080E290E00E94300BA8
S11339F02DE038E040E062E08EE390E00E94300B7E
S1133A002AEE37E040E065E08CE190E00E946B0B29
S1133A1023E038E041E065E081E390E00E946B0B35
S1133A2023EF37E040E065E086E490E00E946B0B12
S1133A302FEF37E040E065E08FE590E00E946B0BEC
S1133A4020E432E040E067E089E190E00E946B0B03
S1133A50BAC08091FC02882321F08091FB028093FC
S1133A60EE0721E138E040E062E080E290E00E946D
S1133A70300B2DE038E040E062E08EE390E00E94FD
S1133A80300B2AEE37E040E065E08CE190E00E94E4
S1133A906B0B23E038E040E065E081E390E00E94B6
S1133AA06B0B23EF37E041E065E086E490E00E9491
S1133AB06B0B2FEF37E040E065E08FE590E00E946C
S1133AC06B0B20E432E040E067E089E190E00E9483
S1133AD06B0B79C08091FC02882321F08091FB025A
S1133AE08093070821E138E040E062E080E290E062
S1133AF00E94300B2DE038E040E062E08EE390E07D
S1133B000E94300B2AEE37E040E065E08CE190E063
S1133B100E946B0B23E038E040E065E081E390E035
S1133B200E946B0B23EF37E040E065E086E490E011
S1133B300E946B0B2FEF37E041E065E08FE590E0EA
S1133B400E946B0B20E432E040E067E089E190E002
S1133B500E946B0B38C021E138E040E062E080E273
S1133B6090E00E94300B2DE038E040E062E08EE30C
S1133B7090E00E94300B2AEE37E040E065E08CE1F3
S1133B8090E00E946B0B23E038E040E065E081E3C5
S1133B9090E00E946B0B23EF37E040E065E086E4A1
S1133BA090E00E946B0B2FEF37E040E065E08FE57B
S1133BB090E00E946B0B20E432E041E067E089E191
S1133BC090E00E946B0B22EB32E040E063E087E37D
S1133BD090E00E946B0B24EB32E040E063E085E56B
S1133BE090E00E946B0B28EB32E040E065E08AE253
S1133BF090E00E946B0B2AEB32E040E065E08FE33B
S1133C0090E00E946B0B2AEB32E040E065E089E52E
S1133C1090E00E946B0BCE010E94E80780E00E94B6
S1133C20C907DF91CF9108950E94F81380ED0E9497
S1133C30041480E00E9404140E9400140E94F813EB
S1133C4081ED0E9404140E940E140E9408138093B4
S1133C5008080E940E140E9408138093FE070E9415
S1133C600E140E9408138093F2070E940E140E94FF
S1133C700813809309080E940E140E94081380936D
S1133C800B080E940E140E9408138093EE070E94F2
S1133C9018140E940813809307080E9400140E94BD
S1133CA04F1A0895CF93DF9300D0CDB7DEB7FC0150
S1133CB020812223A1F09E012F5F3F4F3F932F933A
S1133CC02DE932E03F932F939F938F930E94202BF3
S1133CD00F900F900F900F900F900F9002C01A82C8
S1133CE0198269817A81CB01880F991F680F791F26
S1133CF0072E000C880B990B0E946A242DEC3CECD7
S1133D004CE150E40E941F2520E030E040EA55E4F5
S1133D100E94C0230F900F90DF91CF910895CF930D
S1133D20DF9300D0CDB7DEB7FC0120812223A1F0C0
S1133D309E012F5F3F4F3F932F932DE932E03F9336
S1133D402F939F938F930E94202B0F900F900F908F
S1133D500F900F900F9002C01A82198269817A81A4
S1133D60072E000C880B990B0E946A242DEC3CEC66
S1133D704CE150E40E941F2520E030E040E450E490
S1133D800E941F2520E030E040E85AE30E941F25EE
S1133D900F900F90DF91CF9108952CE148E26CE1F0
S1133DA082E20E94180C2BE142E263E182E20E946B
S1133DB0180C2BE148E263E188E20E94180C23E12D
S1133DC044E263E182E20E94180C23E148E263E1E9
S1133DD086E20E94180C23E144E262E184E20E943C
S1133DE0180C23E146E262E186E20E94180C22E10B
S1133DF046E262E184E20E94180C87E693E00E94A6
S1133E008F1E20E030E040E850E40E941A25882309
S1133E102CF12AE146E26AE184E20E94180C29E1CD
S1133E2046E269E184E20E94180C28E146E268E176
S1133E3084E20E94180C27E146E267E184E20E94D2
S1133E40180C26E146E266E184E20E94180C25E1A2
S1133E5046E265E184E20E94180C089587E693E047
S1133E600E948F1E2AE939E949E750E40E941A2585
S1133E7088235CF187E693E00E948F1E20E030E007
S1133E8040E850E40E94BB238823FCF42AE146E284
S1133E906AE184E20E94180C29E146E269E184E2C5
S1133EA00E94180C28E146E268E184E20E94180CA2
S1133EB027E146E267E184E20E94180C26E146E22B
S1133EC066E184E20E94180C089587E693E00E945C
S1133ED08F1E23E333E343E750E40E941A2588232B
S1133EE02CF187E693E00E948F1E2AE939E949E71D
S1133EF050E40E94BB238823CCF42AE146E26AE121
S1133F0084E20E94180C29E146E269E184E20E94FD
S1133F10180C28E146E268E184E20E94180C27E1CB
S1133F2046E267E184E20E94180C089587E693E074
S1133F300E948F1E2DEC3CEC4CE650E40E941A25A6
S1133F408823FCF087E693E00E948F1E23E333E38B
S1133F5043E750E40E94BB2388239CF42AE146E211
S1133F606AE184E20E94180C29E146E269E184E2F4
S1133F700E94180C28E146E268E184E20E94180CD1
S1133F80089587E693E00E948F1E26E636E646E60D
S1133F9050E40E941A258823CCF087E693E00E941F
S1133FA08F1E2DEC3CEC4CE650E40E94BB2388238E
S1133FB06CF42AE146E26AE184E20E94180C29E1E9
S1133FC046E269E184E20E94180C089587E693E0D2
S1133FD00E948F1E20E030E040E650E40E941A2543
S1133FE0882394F087E693E00E948F1E26E636E647
S1133FF046E650E40E94BB23882334F42AE146E2D7
S11340006AE184E20E94180C0895CF93DF9300D0F4
S1134010CDB7DEB7FC0120812223A1F09E012F5FE2
S11340203F4F3F932F932DE932E03F932F939F937C
S11340308F930E94202B0F900F900F900F900F9052
S11340400F9002C01A82198269817A81072E000CAE
S1134050880B990B0E946A2423EF30EB40E15FE365
S11340600E941F2520E030E040E85EE30E941F2507
S11340700F900F90DF91CF9108950F931F93CF93DB
S1134080DF93EC0181E00E94C9070E940D0C0E949D
S1134090141E8DE098E09F938F9381E198E09F93A5
S11340A08F938CEB92E09F938F9380EE97E09F9396
S11340B08F930E94FE2A20EE37E040E060E082E029
S11340C090E00E94300B2AEF37E040E060E08FE39D
S11340D090E00E946B0B2AEE37E040E061E08DE354
S11340E090E00E946B0B28EB32E040E061E089E451
S11340F090E00E946B0B23E038E040E061E08CE448
S113410090E00E946B0B2AEB32E040E061E088E52E
S113411090E00E946B0B23EF37E040E061E08DE517
S113412090E00E946B0B2AEB32E040E061E08FE606
S113413090E00E946B0B22EC32E040E061E084E707
S113414090E00E946B0B66E082E50E94C60665E083
S113415082E50E94C60664E082E50E94C60663E02A
S113416082E50E94C60662E082E50E94C60661E01E
S113417082E50E94C60660E082E50E94C60660E011
S113418083E50E94C60660E084E50E94C60660E0FE
S113419085E50E94C60660E081E50E94C60660E0EF
S11341A080E50E94C60660E08FE40E94C60661E0D6
S11341B080E50E94C60662E081E50E94C60663E0CF
S11341C082E50E94C60661E084E50E94C60662E0BC
S11341D083E50E94C6062DB73EB7285F3F4F0FB652
S11341E0F8943EBF0FBE2DBF8091B707833011F105
S11341F028F4813059F0823081F08BC0853009F485
S113420045C058F1863009F460C083C026E044E517
S113421066E084E50E94180C7CC026E044E566E074
S113422084E50E94180C25E046E566E086E50E94D8
S1134230180C6FC026E044E566E084E50E94180C83
S113424025E046E566E086E50E94180C24E048E592
S113425066E088E50E94180C5CC026E044E566E050
S113426084E50E94180C25E046E566E086E50E9498
S1134270180C24E048E566E088E50E94180C23E069
S11342804AE566E08AE50E94180C43C026E044E54E
S113429066E084E50E94180C25E046E566E086E5C4
S11342A00E94180C24E048E566E088E50E94180C9A
S11342B023E04AE566E08AE50E94180C22E04CE51A
S11342C066E08CE50E94180C24C026E044E566E014
S11342D084E50E94180C25E046E566E086E50E9428
S11342E0180C24E048E566E088E50E94180C23E0F9
S11342F04AE566E08AE50E94180C22E04CE566E097
S11343008CE50E94180C21E04EE566E08EE50E94E3
S1134310180C25EC32E040E064E08EE190E00E946D
S11343206B0B28EC32E040E064E08AE390E00E940A
S11343306B0B2DEA33E040E063E081E090E00E9403
S1134340920A23EA33E040E063E08BE290E00E94CB
S1134350920A87E693E00E948F1E9F938F937F9328
S11343606F930AEC12E01F930F9383E593E09F93FE
S11343708F930E94FE2A23E533E040E062E08CE262
S113438090E00E94E10A85E893E00E9405209F9353
S11343908F937F936F931F930F938BE793E09F9378
S11343A08F930E94FE2A2BE733E040E065E08AE128
S11343B090E00E94E10A2FEC32E040E065E08DE2FB
S11343C090E00E946B0B23ED32E040E066E08EE16A
S11343D090E00E946B0B24E348E164E38BE10E94CC
S11343E0180C2BE348E164E388E10E94180C2BE3EA
S11343F04CE16BE388E10E94180C6AE38BE10E94B4
S1134400C6066CE38BE10E94C60669E38AE10E945A
S1134410C6066DE38AE10E94C6068DE593E00E941C
S1134420521E2DB73EB7205F3F4F0FB6F8943EBFE4
S11344300FBE2DBF26E636E646E65FE30E941A2548
S1134440882344F02AED32E040E067E08EE190E01A
S11344500E946B0B8EEF92E00E946506882309F49C
S113446072C0EEEFF2E0028110E0102F002781818C
S1134470082BB801012E000C880B990B0E946A24AA
S113448020E030E040E251E40E94C023609309033D
S113449070930A0380930B0390930C0311235CF431
S11344A0DC01CB01B0588093090390930A03A093D5
S11344B00B03B0930C0380910C038F9380910B0337
S11344C08F9380910A038F93809109038F938DE1D9
S11344D091E09F938F9389E993E09F938F930E9438
S11344E0FE2AEEEFF2E0648170E0762F6627838186
S11344F0682B072E000C880B990B0E946A2420E07D
S113450030E040E251E40E94C023609305037093BD
S1134510060380930703909308030E9432247F9339
S11345206F938DE992E09F938F938FE893E09F932D
S11345308F930E94FE2A8DB79EB70E960FB6F894FD
S11345409EBF0FBE8DBF0E94C9040E946A242FE83B
S113455032EC45EF5BE30E941F250E9432246093F6
S11345600303709304037F936F938DE992E09F9309
S11345708F938DE093E09F938F930E94FE2A25EC06
S113458032E040E064E08FE590E00E946B0B29E9A3
S113459033E040E063E082E490E00E94920A28EC79
S11345A032E040E064E08BE790E00E946B0B2FE880
S11345B033E040E063E08CE690E00E94920A2DE054
S11345C033E040E062E086E590E00E94E10A24EEF8
S11345D032E040E062E085E690E00E946B0B27EE5B
S11345E032E040E062E082E790E00E946B0B2AEE4A
S11345F032E040E062E082E090E00E946B0B20EF4A
S113460032E040E062E081E490E00E946B0B20E144
S113461040E860E180E00E94180C28E140E268E193
S113462080E00E94180C28E140E261E180E20E94EF
S1134630180C28E140E061E180E00E94180C28E1B8
S113464043E568E180E40E94180C28E143E561E158
S113465083E50E94180C29E24FE361E18FE30E9495
S1134660180C29E240E869E28FE30E94180C0E94CA
S1134670CD1E0E94D6160E948D15CE010E94E80719
S113468080E00E94C9070F900F900F900F900F9039
S11346900F90DF91CF911F910F9108955058BB2730
S11346A0AA270E9466230C94E0240E94D22438F0A6
S11346B00E94D92420F039F49F3F19F426F40C9475
S11346C0CF240EF4E095E7FB0C94C924E92F0E9453
S11346D0F12458F3BA17620773078407950720F08B
S11346E079F4A6F50C9413250EF4E0950B2EBA2F4D
S11346F0A02D0B01B90190010C01CA01A0011124E4
S1134700FF27591B99F0593F50F4503E68F11A168F
S1134710F040A22F232F342F4427585FF3CF469520
S113472037952795A795F0405395C9F77EF41F1642
S1134730BA0B620B730B840BBAF09150A1F0FF0F0C
S1134740BB1F661F771F881FC2F70EC0BA0F621FF8
S1134750731F841F48F4879577956795B795F795E8
S11347609E3F08F0B0CF9395880F08F09927EE0F7D
S11347709795879508950E94A52408F481E00895EB
S11347800E94D4230C94E0240E94D92458F00E945F
S1134790D22440F029F45F3F29F00C94C92451112C
S11347A00C9414250C94CF240E94F12468F39923CB
S11347B0B1F3552391F3951B550BBB27AA27621719
S11347C07307840738F09F5F5F4F220F331F441F26
S11347D0AA1FA9F335D00E2E3AF0E0E832D091505A
S11347E05040E695001CCAF72BD0FE2F29D0660F47
S11347F0771F881FBB1F261737074807AB07B0E88A
S113480009F0BB0B802DBF01FF2793585F4F3AF08F
S11348109E3F510578F00C94C9240C9414255F3FF5
S1134820E4F3983ED4F3869577956795B795F79515
S11348309F5FC9F7880F911D9695879597F90895FD
S1134840E1E0660F771F881FBB1F62177307840799
S1134850BA0720F0621B730B840BBA0BEE1F88F7A8
S1134860E09508950E9439246894B1110C9414259C
S113487008950E94F92488F09F5798F0B92F99273A
S1134880B751B0F0E1F0660F771F881F991F1AF037
S1134890BA95C9F714C0B13091F00E941325B1E064
S11348A008950C941325672F782F8827B85F39F063
S11348B0B93FCCF3869577956795B395D9F73EF4D0
S11348C090958095709561957F4F8F4F9F4F089578
S11348D0E89409C097FB3EF4909580957095619596
S11348E07F4F8F4F9F4F9923A9F0F92F96E9BB274C
S11348F09395F695879577956795B795F111F8CFC8
S1134900FAF4BB0F11F460FF1BC06F5F7F4F8F4F32
S11349109F4F16C0882311F096E911C0772321F028
S11349209EE8872F762F05C0662371F096E8862FC0
S113493070E060E02AF09A95660F771F881FDAF717
S1134940880F9695879597F90895990F0008550F44
S1134950AA0BE0E8FEEF16161706E807F907C0F001
S113496012161306E407F50798F0621B730B840B09
S1134970950B39F40A2661F0232B242B252B21F4E3
S113498008950A2609F4A140A6958FEF811D811D83
S1134990089597F99F6780E870E060E008959FEFBD
S11349A080EC089500240A941616170618060906C2
S11349B0089500240A941216130614060506089591
S11349C0092E0394000C11F4882352F0BB0F40F419
S11349D0BF2B11F460FF04C06F5F7F4F8F4F9F4F59
S11349E0089557FD9058440F551F59F05F3F71F0DB
S11349F04795880F97FB991F61F09F3F79F0879542
S1134A000895121613061406551FF2CF4695F1DFCA
S1134A1008C0161617061806991FF1CF869571055A
S1134A20610508940895E894BB2766277727CB018E
S1134A3097F908950E94A52408F48FEF08950E9421
S1134A4032250C94E0240E94D22438F00E94D92408
S1134A5020F0952311F00C94C9240C94CF24112434
S1134A600C9414250E94F12470F3959FC1F3950FC3
S1134A7050E0551F629FF001729FBB27F00DB11DDE
S1134A80639FAA27F00DB11DAA1F649F6627B00D6E
S1134A90A11D661F829F2227B00DA11D621F739F57
S1134AA0B00DA11D621F839FA00D611D221F749F65
S1134AB03327A00D611D231F849F600D211D822FAC
S1134AC0762F6A2F11249F5750409AF0F1F08823D3
S1134AD04AF0EE0FFF1FBB1F661F771F881F915000
S1134AE05040A9F79E3F510580F00C94C9240C94C2
S1134AF014255F3FE4F3983ED4F386957795679544
S1134B00B795F795E7959F5FC1F7FE2B880F911D29
S1134B109695879597F90895A0E1B0E0E2E9F5E26A
S1134B200C9473297C011B016A01FC011782168213
S1134B30838181FF44C39E012F5F3F4F3901F701F9
S1134B409381F10193FD859193FF81911F01882346
S1134B5009F431C3853239F493FD859193FF819132
S1134B601F01853239F4B70190E00E94C22A560130
S1134B706501E5CF10E0512C912CFFE1F915D8F037
S1134B808B3279F038F4803279F08332A1F4F92D44
S1134B90F0612EC08D3261F0803369F4292D2160DB
S1134BA02DC0392D3260932E892D8460982E2AC011
S1134BB0E92DE86015C097FC2DC020ED280F2A30A0
S1134BC088F496FE06C03AE0139F200D1124122F9C
S1134BD019C08AE0589E200D1124522EE92DE0625E
S1134BE09E2E10C08E3231F496FCE5C2F92DF0648D
S1134BF09F2E08C08C3621F4292D2068922E02C0E5
S1134C00883641F4F10193FD859193FF81911F0151
S1134C108111B3CF9BEB980F933020F4992D9061C1
S1134C20805E07C09BE9980F933008F066C1992D08
S1134C309F7E96FF16E09F73992E853619F4906433
S1134C40992E08C0863621F4392F3068932E02C07D
S1134C501111115097FE07C01C3350F4442443949F
S1134C60410E27E00BC0183038F027E017E005C0EC
S1134C7027E09CE3492E02C0212F412C560184E0F9
S1134C80A80EB11CF6016081718182819381042D8B
S1134C90A3010E94B9296C01F981FC87F0FF02C0CD
S1134CA0F3FF06C091FC06C092FE06C000E205C0F8
S1134CB00DE203C00BE201C000E08C858C7019F09A
S1134CC001115AC29BC297FE10C04C0CFC85F4FF24
S1134CD004C08A81813309F44A94141474F528E0D9
S1134CE0241578F588E0482E2CC096FC2AC0812F24
S1134CF090E08C159D059CF03CEFC3163FEFD30666
S1134D0074F0892D8068982E0AC0E2E0F0E0EC0F80
S1134D10FD1FE10FF11D8081803319F41150111131
S1134D20F4CF97FE0EC044244394410E812F90E0AB
S1134D30C816D9062CF41C1904C04424439401C099
S1134D4010E097FE06C01C141D0434F4C60101963D
S1134D5005C085E090E002C081E090E00111019679
S1134D60112331F0212F30E02F5F3F4F820F931F2B
S1134D70252D30E08217930714F4581A01C0512CE2
S1134D80892D897049F4552039F0B70180E290E00B
S1134D900E94C22A5A94F7CF002329F0B701802F2A
S1134DA090E00E94C22A93FC09C0552039F0B70153
S1134DB080E390E00E94C22A5A94F7CF97FE4CC039
S1134DC04601D7FE02C0812C912CC601881999098D
S1134DD0F301E80FF91FFE87ED87960124193109C5
S1134DE0388B2F87012F10E01195019511093FEFA2
S1134DF08316930629F4B7018EE290E00E94C22A3A
S1134E00C814D9044CF08F8598898815990524F421
S1134E10ED85FE85818101C080E3F1E08F1A910860
S1134E202D853E852F5F3F4F3E872D878016910647
S1134E302CF0B70190E00E94C22AD9CFC814D9043B
S1134E4041F49A81963320F4953319F43C8534FF68
S1134E5081E3B70190E04EC08A81813319F09C85CB
S1134E609F7E9C87B70190E00E94C22A111105C061
S1134E7094FC18C085E690E017C0B7018EE290E07C
S1134E800E94C22A1E5F82E001E0080FF301E80FCE
S1134E90F11D8081B70190E00E94C22A802F011386
S1134EA0F3CFE6CF85E490E0B7010E94C22AD7FC95
S1134EB006C0C114D10441F4EC85E4FF05C0D194CB
S1134EC0C194D1088DE201C08BE2B70190E00E9449
S1134ED0C22A80E32AE0C216D1042CF08F5FFAE0E4
S1134EE0CF1AD108F7CFB70190E00E94C22AB701C8
S1134EF0C601C0960E94C22A54C1833631F083375A
S1134F0079F0833509F056C020C0560132E0A30E73
S1134F10B11CF6018081898301E010E0630112C0B5
S1134F205601F2E0AF0EB11CF601C080D18096FEAE
S1134F3003C0612F70E002C06FEF7FEFC6010E94D3
S1134F40B72A8C01F92DFF7714C0560122E0A20E76
S1134F50B11CF601C080D18096FE03C0612F70E0C1
S1134F6002C06FEF7FEFC6010E94912A8C01F92DD8
S1134F70F0689F2EF3FD1AC0852D90E008171907DD
S1134F80A8F4B70180E290E00E94C22A5A94F4CFB8
S1134F90F60197FC859197FE81916F01B70190E02E
S1134FA00E94C22A51105A94015011090115110589
S1134FB079F7F7C0843611F0893661F5560197FE0A
S1134FC009C024E0A20EB11CF601608171818281C6
S1134FD093810AC0F2E0AF0EB11CF60160817181C9
S1134FE0072E000C880B990BF92DFF769F2E97FF47
S1134FF009C090958095709561957F4F8F4F9F4F15
S1135000F0689F2E2AE030E0A3010E94392BC82EBD
S1135010C6183FC0092D853721F40F7E2AE030E001
S11350201DC0097F8F3691F018F4883559F0C3C03C
S1135030803719F0883711F0BEC0006104FF09C041
S1135040046007C094FE08C0066006C028E030E093
S113505005C020E130E002C020E132E0560107FF44
S113506009C084E0A80EB11CF601608171818281BF
S1135070938108C0F2E0AF0EB11CF601608171812A
S113508080E090E0A3010E94392BC82EC6180F7748
S1135090902E96FE0BC0092D0E7FC11650F494FE7F
S11350A00AC092FC08C0092D0E7E05C0DC2C092D17
S11350B003C0DC2C01C0D12E04FF0DC0FE01EC0D99
S11350C0F11D8081803311F4097E09C002FF06C0FE
S11350D0D394D39404C0802F867809F0D39403FD2D
S11350E011C000FF06C01C2DD51480F4150D1D1928
S11350F00DC0D51458F4B70180E290E00E94C22A92
S1135100D394F7CFD51410F45D1801C0512C04FFCB
S113511010C0B70180E390E00E94C22A02FF17C0CA
S113512001FD03C088E790E002C088E590E0B70184
S11351300CC0802F867859F001FF02C08BE201C0B9
S113514080E207FD8DE2B70190E00E94C22AC116F9
S113515038F4B70180E390E00E94C22A1150F7CFDF
S1135160CA94F301EC0DF11D8081B70190E00E9417
S1135170C22AC110F5CF15C0F4E0F51560F584E03E
S1135180581A93FE1FC0011127C02C8523FF2AC083
S11351900AEA10E0392D3071932EF80184918111BF
S11351A024C0552009F4E4CCB70180E290E00E94C9
S11351B0C22A5A94F6CFF7018681978126C08FEFD1
S11351C09FEF23C0B70180E290E00E94C22A5A9464
S11351D05110F8CFD8CF512CB701802F90E00E9406
S11351E0C22AD3CF0EEA10E0D5CF91108052B70176
S11351F090E00E94C22A0F5F1F4FCFCF23E02515F6
S113520010F483E0BDCF512CC0CF6096E2E10C9442
S11352108F29DB018F939F930E946029BF91AF91E7
S1135220A29F800D911DA39F900DB29F900D1124FC
S11352300895A1E21A2EAA1BBB1BFD010DC0AA1FD3
S1135240BB1FEE1FFF1FA217B307E407F50720F0EB
S1135250A21BB30BE40BF50B661F771F881F991F66
S11352601A9469F760957095809590959B01AC01AF
S1135270BD01CF010895052E97FB1EF400940E94F2
S1135280522957FD07D00E94192907FC03D04EF478
S11352900C94522950954095309521953F4F4F4F8E
S11352A05F4F089590958095709561957F4F8F4FCE
S11352B09F4F0895EE0FFF1F0590F491E02D099480
S11352C00E94AA29A59F900DB49F900DA49F800DC4
S11352D0911D11240895B7FF0C9460290E94602940
S11352E0821B930B08952F923F924F925F926F927D
S11352F07F928F929F92AF92BF92CF92DF92EF9262
S1135300FF920F931F93CF93DF93CDB7DEB7CA1BE2
S1135310DB0B0FB6F894DEBF0FBECDBF09942A880D
S1135320398848885F846E847D848C849B84AA84B5
S1135330B984C884DF80EE80FD800C811B81AA8142
S1135340B981CE0FD11D0FB6F894DEBF0FBECDBF0D
S1135350ED010895A29FB001B39FC001A39F700DFA
S1135360811D1124911DB29F700D811D1124911D69
S11353700895283008F027E03327DA01990F311D0A
S113538087FD916000966105710539F432602E5FE6
S11353903D9330E32A95E1F708959F3F30F080383C
S11353A07105610509F03C5F3C5F3D93913008F065
S11353B08068911DDF93CF931F930F93FF92EF9219
S11353C0192F987F9695E92F96959695E90FFF27C3
S11353D0E45FFE4F99273327EE24FF24A701E7015A
S11353E005900894079428F4360FE71EF81E491F09
S11353F0511D660F771F881F991F0694A1F705900A
S1135400079428F4E70EF81E491F561FC11D770F95
S1135410881F991F661F0694A1F70590079428F426
S1135420F80E491F561FC71FD11D880F991F661FED
S1135430771F0694A1F70590079420F4490F561F8F
S1135440C71FD81F990F661F771F881F0694A9F7D7
S113545084911095177041F0D695C7955795479547
S1135460F794E7941A95C1F7E2EBF0E0689415908D
S1135470159135916591959105907FE27395E118A9
S1135480F10A430B560BC90BD009C0F7E10CF11E0E
S1135490431F561FC91FD01D7EF4703311F48A9523
S11354A0E6CFE894015030F0080F0AF40027021701
S11354B008F4202F2395022F7A3328F079E37D9383
S11354C02A95E9F710C07D932A9589F60694979555
S11354D06795379517951794E118F10A430B560B06
S11354E0C90BD00998F023957E9173957A3308F00F
S11354F070E37C932013B8F77E9170617D9330F054
S1135500839571E37D9370E32A95E1F71124EF907D
S1135510FF900F911F91CF91DF91992787FD90956F
S11355200895FC010590615070400110D8F78095F2
S113553090958E0F9F1F0895DC0101C06D9341501B
S11355405040E0F70895FB01DC010D900020E9F7DD
S1135550119701900D920020E1F70895FB01DC0101
S11355608D91019080190110D9F3990B0895FC01D4
S11355706150704001900110D8F7809590958E0F7E
S11355809F1F08950F931F93CF93DF93FB012381F4
S113559021FD03C08FEF9FEF2CC022FF16C0468170
S11355A05781248135814217530744F4A081B18186
S11355B09D012F5F3F4F318320838C932681378158
S11355C02F5F3F4F3783268314C08B01EC01FB010F
S11355D00084F185E02D0995892BE1F6D801169612
S11355E08D919C911797019617969C938E9316977D
S11355F0CE01DF91CF911F910F910895AEE0B0E0FD
S1135600E4E0FBE20C9481290D891E8986E08C83F9
S11356101A8309838FEF9FE79E838D83AE01475ED4
S11356205F4F6F89788DCE0101960E948C25EF81A2
S1135630F885E00FF11F10822E96E4E00C949D296A
S1135640AEE0B0E0E6E2FBE20C94832985E08C83D3
S11356508B899C899A838983AE01495E5F4F6D89EA
S11356607E89CE0101960E94332D2E96E2E00C94A1
S11356709F29FA01AA27283051F1203181F1E894B9
S11356806F936E7F6E5F7F4F8F4F9F4FAF4FB1E031
S11356903ED0B4E03CD0670F781F891F9A1FA11D2C
S11356A0680F791F8A1F911DA11D6A0F711D811D2D
S11356B0911DA11D20D009F468943F912AE0269FF2
S11356C011243019305D3193DEF6CF010895462F51
S11356D04770405D4193B3E00FD0C9F7F6CF462F32
S11356E04F70405D4A3318F0495D31FD405241939B
S11356F002D0A9F7EACFB4E0A69597958795779558
S11357006795BA95C9F700976105710508959B01DE
S1135710AC010A2E06945795479537952795BA9567
S1135720C9F7620F731F841F951FA01D089520FDE4
S113573009C0FC0123FD05C022FF02C073836283FC
S113574051834083089544FD17C046FD17C0AB0143
S1135750BC01DA01FB01AA0FBB1FEE1FFF1F10944F
S1135760D1F74A0F5B1F6E1F7F1FCB01BA01660F73
S1135770771F881F991F09C033E001C034E0660F0A
S1135780771F881F991F3150D1F7620F711D811D3A
S1135790911D08950F931F93CF93DF938C01C8013C
S11357A00E94582EEC0197FD08C00E94442E892BBC
S11357B0B1F7B801CE010E94962ECE01DF91CF91B0
S11357C01F910F9108958F929F92AF92BF92EF9283
S11357D0FF920F931F93CF93DF938C01D62F7A01FF
S11357E0B22E0E94582E9C0133272B32310531F002
S11357F02D32310561F48B2D8068B82ED15011F40F
S113580080E068C0C8010E94582E97FDF9CFCB2DC7
S1135810CD7F2B2D207309F58033F9F4AA24AA94A3
S1135820AD0E09F443C0C8010E94582E97FD3EC036
S11358309C012F7D33272835310549F4C264D250A9
S1135840A9F1C8010E94582E97FF07C02FC0B6FEC9
S113585002C0C26001C0C261DA2D812C912C5401B6
S113586020ED280F283080F0C4FF04C0B8010E9446
S1135870962E19C02A3040F0C6FFF8CF2F7D3FEE98
S1135880320F363098F727504C2FC501B4010E94CF
S1135890A32B4B015C01C260D15059F0C8010E9496
S11358A0582E97FFDDCFC1FD04C0AACF812C912CC7
S11358B05401C7FF08C0B094A09490948094811CB4
S11358C0911CA11CB11C2C2FB501A401C7010E947D
S11358D0972B81E0DF91CF911F910F91FF90EF9073
S11358E0BF90AF909F908F900895A0E2B0E0EBE757
S11358F0FCE20C9476295C01962E7A01F9018E0162
S11359000F5F1F4F680180E2D8011D928A95E9F765
S1135910D50113968C9080E090E0612C712C30E0DE
S113592061E070E083FC259183FE21918F01522E6A
S1135930211103C080E090E092C02E3511F400974D
S113594051F1432F50E0481759073CF42D3559F1D4
S11359502D3219F4772009F103C0772009F46AC0C5
S1135960452D469546954695D601A40FB11D452D66
S113597047708B0102C0000F111F4A95E2F7A8017E
S11359805C91452B4C93651459F0561410F45394C0
S1135990E7CF5A94E5CF31E004C07724739401C073
S11359A0712C0196BFCF772019F08E8180628E838F
S11359B0311103C08824839417C0F6019E012F5D22
S11359C03F4F8081809581932E173F07D1F7F2CF07
S11359D0E114F10429F0D7018C93F70131967F018A
S11359E09A94812C9920F9F0C5010E94582E97FDB4
S11359F018C0FC01FF2723E0F595E7952A95E1F708
S1135A00EC0DFD1D208130E0AC014770552702C02C
S1135A10359527954A95E2F720FDDACFB5010E9426
S1135A20962E811087CFE114F10411F0D7011C9256
S1135A30C80115C0422F469546954695D601A40F38
S1135A40B11D422F47708B0102C0000F111F4A95F0
S1135A50E2F7A8015C91452B4C93622EA2CFA0964D
S1135A60EFE00C949229A0E0B0E0E9E3FDE20C94AD
S1135A7076296C01EB015A01FC0117821682512C24
S1135A80F601E380FE01E3FC8591E3FE8191182F8A
S1135A90EF01882309F4EEC090E00E94442E892B84
S1135AA021F0C6010E94CA2BEBCF153241F4FE014E
S1135AB0E3FC1591E3FE1191EF01153281F4C60167
S1135AC00E94582E97FDD4C0412F50E09C013327EB
S1135AD024173507A9F2B6010E94962ECBC01A32BC
S1135AE039F4E3FC1591E3FE1191EF0101E001C0EB
S1135AF000E0F12C20ED210F2A3080F402606F2D9C
S1135B0070E080E090E040E20E94A32BF62EFE01BC
S1135B10E3FC1591E3FE1191EF01ECCF01FF03C00B
S1135B20F11003C0A7C0FF24FA94183619F01C36EC
S1135B3051F010C0FE01E3FC1591E3FE1191EF0159
S1135B40183641F408600460FE01E3FC1591E3FE9D
S1135B501191EF01112309F48DC0612F70E08CEADB
S1135B6091E00E944D2E892B09F484C000FD07C0EA
S1135B70F50180809180C50102965C0102C0812CF0
S1135B80912C1E3651F4F6014681578160E070E095
S1135B90202FC4010E94972B73CF1336A9F401FD63
S1135BA002C0FF24F394C6010E94582E97FD60C0E2
S1135BB08114910429F0F4018083C40101964C01FD
S1135BC0FA94F110F0CF50C01B3559F49E01A40192
S1135BD06F2DC6010E94752CEC01892B09F044C07D
S1135BE03EC0C6010E94CA2B97FD42C01F3661F118
S1135BF028F4143639F1193651F128C0133771F0ED
S1135C00153701F123C08114910429F0F401608255
S1135C10C40101964C01FA94FF2071F0C6010E9460
S1135C20582E3C0197FD08C00E94442E892B59F33D
S1135C30B601C3010E94962E81149104A9F0F401C7
S1135C40108212C0006203C0006101C00064202FF2
S1135C50A4016F2DC6010E94E32B811105C0F6013A
S1135C608381807329F406C000FD0ACF539408CFC2
S1135C70552019F0852D90E002C08FEF9FEFCDB72E
S1135C80DEB7EFE00C94922991110C94AF2E803280
S1135C9019F089508550C8F70895FC01059006163F
S1135CA021F00020D9F7C00108953197CF0108955C
S1135CB0CF93DF93EC012B8120FF33C026FF0AC072
S1135CC02F7B2B838E819F8101969F838E838A8174
S1135CD090E029C022FF0FC0E881F9818081082E5D
S1135CE0000C990B009719F420622B831AC031968B
