:100000000C94EE030C94CA160C94BB0F0C940B04C6
:100010000C940B040C940B040C940B040C940B0424
:100020000C940B040C940B040C940B040C94C10E54
:100030000C940B040C940B040C94E60E0C940B041F
:100040000C940B040C940B040C940B040C940B04F4
:100050000C940B040C940B040C940B040C940B04E4
:100060000C940B040C940B0423103B1053106B10D6
:1000700083109B10B3102F2137213F2147214F219F
:1000800057215F2174217F218A219521A021AB2155
:10009000B621C121CC21D721E221ED2140228422A9
:1000A000C8220C2350239423D8236364696E6F7095
:1000B000737578585B00000000000000000000002D
:1000C0000000000000000000000000000000000030
:1000D0000000000000000000000000000000000020
:1000E0000000000000000000000000000000000010
:1000F0000000000000000000000000000000000000
:1001000000000000000000000000000000000000EF
:1001100000000000000000000000000000000000DF
:1001200080808080C0C0C0C0E0E0E0E0E0E000008F
:1001300000000000000000000000000000000002BD
:10014000060707070707060202020202020202026E
:10015000020202FFFFFF0202020E1E3E7EFFFFFFB1
:10016000FFFFFFFFFFFFFFFFFFFFFFFFFFFFFEC0DF
:10017000000000000000000000000000000000007F
:10018000000000000000000000000000000000F877
:10019000FCFCFFFFFFFFFFFCFCF80000000001017A
:1001A0000101010101010101010101010101010040
:1001B000000000000000000000000000000080C0FF
:1001C000E0E0E0E0E0E0C0C0800000000000001FD0
:1001D00017B7F7F7F7F7F7B7171F00000000000091
:1001E00080C0C0E0E0E0E0E0E0C08000000000008F
:1001F000000000000000000000000000187FFFFF6A
:10020000FFFFFFFFFFFFFFFFFF3E18181818181829
:10021000183FBFBFBFBFBF3F181818181818183EA7
:10022000FFFFFFFFFFFFFFFFFFFFFF7F1C0000003E
:1002300000000000000000000000000000000101BC
:100240000303030703030301000000000000000094
:10025000000001030703010000000000000000008F
:100260000001030303070303030101000000000072
:10027000000000000000000000000000000000007E
:10028000000000000000000000000000000000006E
:10029000000000000000000000000000000000005E
:1002A000000000000000000000000000000000004E
:1002B00000000000000000E0F8FC3E070301E1FE42
:1002C000FC3F7F878080E07C3F1F0700000000002C
:1002D00002E2FEFF1F03008080C0F8FFFF8780005E
:1002E00000000000000C06030387FF7E1C80C0E0B6
:1002F000F0E8E4E3E1F01800000000808482C3C36A
:100300007F3F1E60E0C0C08081437F3F1E00000031
:100310000000804020F0F8FC1E101C1A1918F8FE8E
:10032000FF1F190800004078F6E7E7C7870703605A
:10033000E0C08080417F3F0F000000C0E0F8785CA3
:100340004EC6C381013F7FFF8180C0F07F3F0F0019
:10035000080E07070787671F0701008060100C035E
:1003600000000000000000003C7EFFE3C1C17F3EB2
:100370001C3C7EFF838081C37F7F1E0000F0FCFE5B
:100380000F0301C1FFFEFC80C1C363723A1E0F0759
:1003900003000000000000383838000000000000B2
:1003A0003838380000000000788681611E0004E2C1
:1003B0001F00C0A291890640828989763028E43ED8
:1003C000234C8B8545397C9289493200C1310D031C
:1003D00060968989764C9291493E00C0C000000029
:1003E00010101000FC8484FC0008FC0088C4A49C4D
:1003F0004484947C6050FC40589494647894946451
:100400000004F40C6C94946C98A4A4780080000010
:1004100000000000000000004F000000000700077F
:10042000000000147F147F1400242A7F2A12002366
:10043000130864620036495522400000050300009D
:10044000001C224100000041221C00000014083E54
:1004500008140008083E080800A06000000000081A
:10046000080808080060600000000020100804026E
:10047000003E5149453E0000427F4000004261512C
:100480004946002141454B31001814127F100027C6
:1004900045454539003C4A49493000017109050389
:1004A00000364949493600064949291E006C6C004E
:1004B000000000005636000000081422410000240D
:1004C00024242424000041221408000201510906BA
:1004D00000324979413E007E1111117E007F494969
:1004E0004936003E41414122007F4141221C007FAC
:1004F00049494941007F09090901003E4149493AFA
:10050000007F0808087F0000417F41000020404133
:100510003F01007F08142241007F40404040007F9F
:10052000020C027F007F0408107F003E4141413EE3
:10053000007F09090906003E4151215E007F09192B
:1005400029460046494949310001017F0101003F28
:100550004040403F001F2040201F003F4060403F80
:10056000006314081463000708700807006151490C
:100570004543007F414100000015167C16150041DF
:10058000417F00000004020102040040404040405E
:10059000000102040000002054545478007F4444B9
:1005A000443800384444440000384444487F00380C
:1005B0005454541800107E110102000C5252523E45
:1005C000007F080404780000447D40000020404083
:1005D0003D00007F102844000000417F4000007C67
:1005E00004180478007C0804047800384444443833
:1005F000007C1414140800081414187C007C0804EF
:10060000040800485454542000043F444020003C57
:100610004040207C001C2040201C001E2010201E7A
:1006200000221408142200064848483E004464543E
:100630004C440008364100000000007F00000041EB
:10064000360800000008082A1C08007E1111117EDF
:10065000007F49494933007F49494936007F0101FC
:10066000010300E0514F41FF007F494949410077B4
:10067000087F0877004149494936007F1008047F08
:10068000007C2112097C007F081422410020413F98
:10069000017F007F020C027F007F0808087F003E78
:1006A0004141413E007F0101017F007F09090906A8
:1006B000003E414141220001017F01010047281015
:1006C0000807001C227F221C006314081463007FAB
:1006D000404040FF00070808087F007F407F407FC0
:1006E000007F407F40FF00017F484830007F483056
:1006F000007F00007F48483000224149493E007F8A
:10070000083E413E00462919097F00205454547880
:10071000003C4A4A4931007C54542800007C0404BF
:10072000040C00E0544C44FC003854545418006C41
:10073000107C106C004444545428007C2010087C29
:10074000007C4122117C007C102844000020443CA5
:10075000047C007C0810087C007C1010107C0038A1
:1007600044444438007C0404047C007C14141408C1
:100770000038444444280004047C0404000C505015
:10078000503C003048FC4830004428102844007C8D
:10079000404040FC000C1010107C007C407C407CF1
:1007A000007C407C40FC00047C505020007C505079
:1007B000207C007C50502000002844545438007C99
:1007C0001038443800085434147C007E4B4A4B42A5
:1007D00000385554551800000609090611241FBE9B
:1007E000CFEFD8E0DEBFCDBF13E0A0E0B1E0E8E599
:1007F000F2E602C005900D92A437B107D9F724E0C4
:10080000A4E7B3E001C01D92A938B207E1F70E9446
:100810000E110C942A310C9400000F931F93CF9368
:10082000DF93C82F0E9469188EEE0E9475188C2FD6
:100830000E9475180E9471180E9469188FEE0E941C
:1008400075180E947F18C82FD0E00E948918082FC1
:1008500010E00E9471189C2F8827800F911FDF9154
:10086000CF911F910F9108958AEA0E940D049093F1
:100870003D0480933C048CEA0E940D04909345044F
:10088000809344048EEA0E940D0490934D0480935B
:100890004C0480EB0E940D0490934904809348041B
:1008A00082EB0E940D04909343048093420484EBF6
:1008B0000E940D04909341048093400486EB0E94B3
:1008C0000D0490933F0480933E0488EB0E940D0436
:1008D00090933904809338048AEB0E940D0490931E
:1008E0003B0480933A048CEB0E940D0490934B04DC
:1008F00080934A048EEB0E940D04909347048093EA
:10090000460408950E9469188EEE0E94751884EFBF
:100910000E9475188EE20E9475180E9471188FE06F
:1009200097E20197F1F700C0000086EF0E940D04E6
:10093000BC0180E090E008954F925F926F927F92A9
:100940008F929F92AF92BF92CF92DF92EF92FF92DF
:100950000E9469188EEE0E94751884EF0E94751827
:1009600084EF0E9475180E9471188FE19BEC01972B
:10097000F1F700C000000E9469188EEE0E94751801
:1009800086EF0E9475180E9471180E9469188FEEF8
:100990000E9475180E947F18482E512C612C712CD2
:1009A0000E947F18C82ED12CE12CF12C0E948918AE
:1009B000882E912CA12CB12C0E947118D20199275C
:1009C0008827FE2CED2CDC2CCC248C0D9D1DAE1D1F
:1009D000BF1D880D991DAA1DBB1DBC01CD016894CA
:1009E00014F896958795779567951694D1F7FF90AB
:1009F000EF90DF90CF90BF90AF909F908F907F90BF
:100A00006F905F904F9008954F925F926F927F9298
:100A10008F929F92AF92BF92CF92DF92EF92FF920E
:100A20000F931F93CF93DF9300D000D0CDB7DEB7E5
:100A30000E9482046B017C010E949C0469837A837A
:100A40008B839C838091400490914104A70196017F
:100A5000281B390B41095109A0914204B09143046C
:100A60000E94BB2A2B013C01032E3FE07594679442
:100A7000579447943A95D1F7302D60914A0470917C
:100A80004B04CB01770FAA0BBB0BBC01CD01052E8C
:100A90005BE0660F771F881F991F5A95D1F7502D7D
:100AA00020914604309147048901330F220B330B08
:100AB000A9019801240D351D461D571D0E94962A37
:100AC000420E531E641E751E80EA481A8FE0580AB3
:100AD00061087108A3019201C301B2010E94502A6A
:100AE0004B015C01072E7CE0B594A7949794879402
:100AF0007A95D1F7702DA0913804B0913904A501F1
:100B000094010E94C62A6B017C010B2EBBE0F59478
:100B1000E794D794C794BA95D1F7B02DA091440427
:100B2000B0914504A30192010E94C62ADC01CB01C9
:100B3000072E7BE0B595A795979587957A95D1F780
:100B4000702DC80ED91EEA1EFB1E80913C049091A8
:100B50003D04092E000CAA0BBB0B880F991FAA1F7E
:100B6000BB1F880F991FAA1FBB1FC80ED91EEA1EE4
:100B7000FB1ECC0CDD1CEE1CFF1CA0914C04B091A4
:100B80004D040E94C62A2B013C01032E3DE07594C2
:100B90006794579447943A95D1F7302DA0913E042D
:100BA000B0913F04A50194010E94C62ABB2797FD7E
:100BB000B095AB2F840D951DA61DB71D0296A11DE6
:100BC000B11DB595A79597958795B595A7959795D7
:100BD00087959C01AD0130584F4F5F4FA09148045D
:100BE000B09149040E94BB2A2B013C01032E3FE037
:100BF00076946794579447943A95D1F7302D29818C
:100C00003A814B815C812C193D094E095F09AAE6A6
:100C1000B8E10E94BB2A99235CF0660F771F881FFA
:100C2000991FA30192010E94742A69017A010AC0E6
:100C3000A30192010E94742A69017A01CC0CDD1C87
:100C4000EE1CFF1C9927F7FC9A958F2D7E2D6D2D9C
:100C50009B01AC010E94502A9B01AC01AEEDBBE0B0
:100C60000E94BB2A4C01BB2497FCB094AB2CA3E49C
:100C7000B3EEA70196010E94C92ABB2797FDB09544
:100C8000AB2F880D991DAA1DBB1D8153914FAF4FEE
:100C9000BF4F689413F8B595A795979587951694C7
:100CA000D1F7BC01CD016C0D7D1D8E1D9F1D0F90D8
:100CB0000F900F900F90DF91CF911F910F91FF90A8
:100CC000EF90DF90CF90BF90AF909F908F907F90EC
:100CD0006F905F904F9008952FEF83ED90E3215038
:100CE00080409040E1F700C0000087B1816087B983
:100CF00088B1816088B980E00895BC0187B18160C6
:100D000087B988B18E7F88B988B1816088B92FEFA3
:100D100080E792E0215080409040E1F700C0000061
:100D200088B18E7F88B98FE99CE80197F1F700C000
:100D3000000088B1816088B987B18E7F87B990EA59
:100D40009A95F1F7309938C025ED2A95F1F7000012
:100D500096B1892F817090FF30C085ED8A95F1F7AB
:100D6000000080E025C0E4E0F0E0E81BF109E60FB8
:100D7000F71F108290E019C0309BFECF2DE52A9519
:100D8000F1F70000309B0EC047E050E0491B5109CD
:100D900021E030E002C0220F331F4A95E2F7308194
:100DA000232B20833099FECF9F5F983028F38F5FED
:100DB0008530C8F281E0089580E0089590910101A6
:100DC0006917E0F4909102018917C0F4262F269547
:100DD0002695269590E030E8239F800D911D1124E3
:100DE000FA01E80FF91F677081E090E002C0880FF8
:100DF000991F6A95E2F79081892B808308959091DD
:100E000001016917E0F4909102018917C0F4262FBF
:100E100026952695269590E030E8239F800D911D1C
:100E20001124FA01E80FF91F67708EEF90E002C0FD
:100E3000880F991F6A95E2F790818923808308952E
:100E400082E08A95F1F700C08BB180628BB982E0B5
:100E50008A95F1F700C08BB18F7D8BB982E08A95BE
:100E6000F1F700C008951F93CF93DF93182F8BB134
:100E700080688BB98BB180648BB90E9420070E9477
:100E800020070E9420070E9420070E9420078BB1A4
:100E90008F7B8BB90E9420078BB180648BB90E9435
:100EA00020078BB18F7B8BB90E942007C0E0D0E078
:100EB0001CC0CE010497049730F48BB18F7B8BB9A3
:100EC0000E94200711C0812F807841F0803859F4AA
:100ED0008BB180648BB90E94200705C08BB18F7BDA
:100EE0008BB90E942007110F2196CC30D1050CF34D
:100EF0008BB18F7B8BB90E9420070E9420070E9434
:100F000020070E9420078BB18F778BB9DF91CF919B
:100F10001F9108951F93CF93DF93182F8BB1806893
:100F20008BB98BB180648BB90E9420070E94200787
:100F30000E9420070E9420070E9420078BB18F7B10
:100F40008BB90E9420078BB18F7B8BB90E94200741
:100F50008BB18F7B8BB90E942007C0E0D0E01CC012
:100F6000CE010497049730F48BB18F7B8BB90E942C
:100F7000200711C0812F807841F0803859F48BB15F
:100F800080648BB90E94200705C08BB18F7B8BB921
:100F90000E942007110F2196CC30D1050CF38BB1A4
:100FA0008F7B8BB90E9420070E9420070E94200798
:100FB0000E9420078BB18F778BB9DF91CF911F9162
:100FC0000895882399F084E30E948A078FEC97E0C4
:100FD0000197F1F700C0000086E30E948A078FECBA
:100FE00097E00197F1F700C00000089580E30E94A8
:100FF0008A078FEC97E00197F1F700C00000089591
:101000008F929F92AF92BF92DF92EF92FF920F93D7
:101010001F93CF93DF937C01D12C31C18FE18D15CC
:1010200048F08D2D80680E948A07802F80680E947A
:101030008A0709C080EE8D0D80680E948A07802F84
:1010400088680E948A07CD2DC695C695C695D0E0C2
:10105000CC0FDD1FCC0FDD1FCC0FDD1FC00FD11D4E
:10106000C295D295D07FDC27C07FDC27CE0DDF1D57
:101070008880912C1D2D1770012E02C095948794A5
:101080000A94E2F79694982C882497948794A980E0
:10109000B12C012E02C0B594A7940A94E2F781E026
:1010A000A822BB240024B694A7940794B694A794CE
:1010B0000794BA2CA02CAA81B0E0012E02C0B595ED
:1010C000A7950A94E2F7A170BB27AA0FBB1FA295B0
:1010D000B295B07FBA27A07FBA27EB81F0E0012E4E
:1010E00002C0F595E7950A94E2F7E170FF27E295D3
:1010F000F295F07FFE27E07FFE276C8170E0012EE5
:1011000002C0759567950A94E2F761707727660FBC
:10111000771F660F771F660F771F4D8150E0012EF6
:1011200002C0559547950A94E2F741705527440F40
:10113000551F440F551F2E8130E0012E02C03595FA
:1011400027950A94E2F721703327220F331F8F81EE
:1011500090E0012E02C0959587950A94E2F7A828A1
:10116000AA29EA2B6E2B462B242B8170822B0E94FE
:1011700033078884912C012E02C0959487940A9499
:10118000E2F79694982C882497948794A984B12C9C
:10119000012E02C0B594A7940A94E2F781E0A82238
:1011A000BB240024B694A7940794B694A7940794FC
:1011B000BA2CA02CAA85B0E0012E02C0B595A79547
:1011C0000A94E2F7A170BB27AA0FBB1FA295B295A4
:1011D000B07FBA27A07FBA27EB85F0E0012E02C0CE
:1011E000F595E7950A94E2F7E170FF27E295F2950D
:1011F000F07FFE27E07FFE276C8570E0012E02C0A5
:10120000759567950A94E2F761707727660F771FE7
:10121000660F771F660F771F4D8550E0012E02C0C5
:10122000559547950A94E2F741705527440F551F8D
:10123000440F551F2E8530E0012E02C035952795AD
:101240000A94E2F721703327220F331FCF85D0E0B5
:1012500002C0D595C7951A95E2F7882D8A298A2B61
:101260008E2B862B842B822BC1708C2B0E943307F4
:101270000F5F01C000E0083008F4D0CED3948FE3B4
:101280008D15C0F7DF91CF911F910F91FF90EF90D7
:10129000DF90BF90AF909F908F90089581E00E9463
:1012A0008A078FE19EE40197F1F700C000000895DE
:1012B0002FEF89EF90E0215080409040E1F700C08F
:1012C00000008CE00E948A0787EC90E00197F1F71C
:1012D00000C000000E944E0986E00E948A078FE14C
:1012E0009EE40197F1F700C000000895CF93DF93CB
:1012F000A0E0B0E02BC04423A9F0ED01C80FD91F36
:101300002197C20FD31FFB01EE0FFF1FE60FF71F40
:10131000EE0FFF1FEA0FFB1FE05FFB4F549150954C
:10132000588313C0EC01CA0FDB1F2197C20FD31FD4
:10133000FB01EE0FFF1FE60FF71FEE0FFF1FEA0F77
:10134000FB1FE05FFB4F549158831196A730B10506
:1013500094F2DF91CF910895CF93DF93A0E0B0E0B6
:1013600027C0442399F0ED01C80FD91F2197C20F60
:10137000D31FFB01EE0FFF1FEE0FFF1FEA0FFB1F36
:10138000EC51FC4F54915095588311C0EC01CA0F99
:10139000DB1F2197C20FD31FFB01EE0FFF1FEE0FC4
:1013A000FF1FEA0FFB1FEC51FC4F5491588311961D
:1013B000A430B105B4F2DF91CF910895CF93DF93BC
:1013C000A0E0B0E02BC04423A9F0ED01C80FD91F65
:1013D0002197C20FD31FFB01EE0FFF1FEE0FFF1F60
:1013E000E60FF71FEA0FFB1FE855FC4F549150958D
:1013F000588313C0EC01CA0FDB1F2197C20FD31F04
:10140000FB01EE0FFF1FEE0FFF1FE60FF71FEA0FA6
:10141000FB1FE855FC4F549158831196A530B10538
:1014200094F2DF91CF910895CF93DF93A0E0B0E0E5
:1014300029C04423A1F0ED01C80FD91F2197C20F85
:10144000D31F56E1569FF001579FF00D1124EA0F6C
:10145000FB1FEA54FD4F54915095588312C0EC0184
:10146000CA0FDB1F2197C20FD31F56E1569FF00111
:10147000579FF00D1124EA0FFB1FEA54FD4F5491C2
:1014800058831196AB30B105A4F28B589F4FABE057
:10149000B0E029C04423A1F0EC01CA0FDB1F219763
:1014A000C20FD31F56E1569FF001579FF00D112434
:1014B000EA0FFB1FEA54FD4F54915095588312C018
:1014C000EC01CA0FDB1F2197C20FD31F56E1569FB5
:1014D000F001579FF00D1124EA0FFB1FEA54FD4F56
:1014E000549158831196A631B105A4F2DF91CF91A2
:1014F0000895BF92CF92DF92EF92FF920F931F93C6
:10150000CF93DF93B42E79016C0120E8629FC00C69
:10151000D11C1124C0E0D0E030C0F701EC0FFD1F5A
:10152000608170E0BB2099F06E32710541F060532C
:101530007109980141E0C6010E94AC091AC09801E6
:1015400041E06AE070E0C6010E94AC0912C06E3250
:10155000710541F060537109980140E0C6010E9495
:10156000AC0907C0980140E06AE070E0C6010E9443
:10157000AC0985E0C80ED11C2196F701019000202E
:10158000E9F73197EE19FF09CE17DF0730F2DF9147
:10159000CF911F910F91FF90EF90DF90CF90BF9070
:1015A0000895BF92CF92DF92EF92FF920F931F9315
:1015B000CF93DF93B42E79016C0120E8629FC00CB9
:1015C000D11C1124C0E0D0E046C0F701EC0FFD1F94
:1015D000608170E0BB20F1F06E32710541F498013A
:1015E00041E06AE070E0C6010E94DE0930C06D3261
:1015F000710541F4980141E06BE070E0C6010E9482
:10160000DE0925C060537109980141E0C6010E94BE
:10161000DE091DC06E32710541F4980140E06AE0B8
:1016200070E0C6010E94DE0912C06D32710541F4FE
:10163000980140E06BE070E0C6010E94DE0907C03F
:1016400060537109980140E0C6010E94DE0986E0FE
:10165000C80ED11C2196F70101900020E9F73197BF
:10166000EE19FF09CE17DF0708F4AFCFDF91CF9156
:101670001F910F91FF90EF90DF90CF90BF90089552
:10168000BF92CF92DF92EF92FF920F931F93CF936F
:10169000DF93B42E79016C0120E8629FC00CD11C4D
:1016A0001124C0E0D0E01AC0F701EC0FFD1F6081EB
:1016B00070E0BB2041F060537109980141E0C60120
:1016C0000E94140A07C060537109980140E0C601E6
:1016D0000E94140A8CE0C80ED11C2196F7010190DB
:1016E0000020E9F73197EE19FF09CE17DF07E0F286
:1016F000DF91CF911F910F91FF90EF90DF90CF90EE
:10170000BF9008959F92AF92BF92CF92DF92EF92D7
:10171000FF920F931F93CF93DF93942E59016C0187
:1017200020E8629FC00CD11C1124E12CF12C88C050
:10173000F501EE0DFF1DC081C03CE8F4C83AD9F0B8
:10174000C83BC9F0C03BB9F06C2F70E0992041F064
:1017500060527109980141E0C6010E94760907C0F4
:1017600060527109980140E0C6010E94760986E046
:10177000C80ED11C62C0D0E0CE01805C91098034DB
:101780009105B0F4992049F0980141E0BE016156FD
:101790007109C6010E94760908C0980140E0BE01A7
:1017A00061567109C6010E94760926E0C20ED11C5D
:1017B000C83AD105A1F4992041F0980141E06FE9C0
:1017C00070E0C6010E94760907C0980140E06FE909
:1017D00070E0C6010E94760986E0C80ED11CC83BA5
:1017E000D105A1F4992041F0980141E060EA70E050
:1017F000C6010E94760907C0980140E060EA70E0E7
:10180000C6010E94760926E0C20ED11CC03BD1055C
:10181000A1F4992041F0980141E061EA70E0C6012D
:101820000E94760907C0980140E061EA70E0C601B5
:101830000E94760986E0C80ED11C2FEFE21AF20A48
:10184000F50101900020E9F73197EA19FB09EE163E
:10185000FF0608F46DCFDF91CF911F910F91FF909C
:10186000EF90DF90CF90BF90AF909F900895EF9250
:10187000FF920F931F93CF93DF93EC0100E010E0F2
:1018800040E050E020C0D801B695BA2FAA27B795FE
:10189000A7959D01215E3F4F0EC07E01E20EF31E13
:1018A000BA016A547F4FFB019491F70190834F5F17
:1018B0005F4F2F5F3F4FBD01615A7F4F261737079C
:1018C00064F30F5F1F4F08301105ECF2DF91CF91E9
:1018D0001F910F91FF90EF900895FC0111821082EB
:1018E00008956F927F928F929F92AF92BF92CF9204
:1018F000DF92EF92FF920F931F93CF93DF93C82F46
:10190000D62F942E822E481728F0A42EB12CA81A78
:10191000B10804C0A82EB12CA41AB1088D1628F065
:10192000C82CD12CCD1AD10804C0CD2ED12CC8186A
:10193000D108C91518F47724739402C077247A94D7
:10194000D81518F46624639402C066246A9475015D
:10195000EC18FD08A8016D2F8C2F0E94DE06C9111E
:1019600002C0D815A1F0C701880F991F222733277D
:101970002C193D09281739071CF4EC18FD08C70D70
:101980008A159B053CF7EA0CFB1CD60DE3CFDF91D3
:10199000CF911F910F91FF90EF90DF90CF90BF906C
:1019A000AF909F908F907F906F900895AF92BF926D
:1019B000CF92DF92EF92FF920F931F93CF93DF931B
:1019C0005C017B01E90168019C01240F351F8091B6
:1019D000020190E02817390718F0AC014A195B0999
:1019E0008091010190E097012C0F3D1F28173907C6
:1019F00018F0EC01CE19DF09DA2DD40F86012E2D57
:101A00004D2F6E2D8A2D0E94710CCE0D2C2F4D2F37
:101A10006C2F8A2D0E94710C2C2F4A2D6E2D8A2D31
:101A20000E94710C2C2F4D2F6E2D8D2F0E94710C4A
:101A3000DF91CF911F910F91FF90EF90DF90CF90AA
:101A4000BF90AF9008957F928F929F92AF92BF9276
:101A5000CF92DF92EF92FF920F931F93CF93DF937A
:101A6000EC016B015A01790148019C01240F351FDB
:101A70008091020190E02817390718F05C01AC1A38
:101A8000BD0A8091010190E096012E0D3F1D28179F
:101A9000390718F07C01EC18FD08712C0AC0672D7D
:101AA0006C0D8401262F4C2F4A0D8C2F0E94710C37
:101AB0007394872D90E0E816F90688F7DF91CF91AF
:101AC0001F910F91FF90EF90DF90CF90BF90AF905C
:101AD0009F908F907F9008953F924F925F926F9268
:101AE0007F928F929F92AF92BF92CF92DF92EF92AE
:101AF000FF920F931F93CF93DF93582E462E142FF0
:101B0000E901E42EF12C81E090E06C01CE18DF08B1
:101B1000AA24BB24AE18BF08AA0CBB1C642F640DFA
:101B2000A901852D0E94DE06642D611BAE01852D65
:101B30000E94DE06AE01642D812F850D0E94DE0617
:101B4000AE01642D852D811B0E94DE0600E010E0B1
:101B500088248394912C49C0DD2044F081E0E81A68
:101B6000F10882E0A80EB11CCA0CDB1C0F5F1F4FEE
:101B700082E0880E911CC80CD91C352C300EAE01A9
:101B8000742C7E0C672D832D0E94DE06652C601A56
:101B9000AE01672D862D0E94DE06AE01742C7E18E4
:101BA000672D832D0E94DE06AE01672D862D0E94D3
:101BB000DE06742C700EAE01672D652C6E0C862D22
:101BC0000E94DE06AE01672D752C7E18872D0E94BF
:101BD000DE06342C301AAE01632D862D0E94DE06FF
:101BE000AE01632D872D0E94DE060E151F050CF435
:101BF000B3CFDF91CF911F910F91FF90EF90DF90C6
:101C0000CF90BF90AF909F908F907F906F905F909C
:101C10004F903F9008952F923F924F925F926F9214
:101C20007F928F929F92AF92BF92CF92DF92EF926C
:101C3000FF920F931F93CF93DF93F82EE62EEA01C6
:101C4000390181E090E06C01C41AD50A88249924F6
:101C5000841A950A880C991C262E3F2C642F6E0D31
:101C6000A9018F2D0E94DE066E2D6C1BA3018F2D06
:101C70000E94DE06BC2EBF0CA3016E2D8B2D0E9490
:101C8000DE06FC1AA3016E2D8F2D0E94DE06830155
:101C90002E2D4B2D6E2D8F2D0E94710CE12CF12CD1
:101CA000AA24A394B12C35C0DD2034F0219782E022
:101CB000880E911CC80CD91C8FEFE81AF80A82E034
:101CC000A80EB11CCA0CDB1C532C5E0C432C4E1806
:101CD00083016C2F620D262F452D842D0E94710CDF
:101CE000622D6C1B262F442D852D0E94710C622DB8
:101CF0006E0D262F432C4C1A442D5C2E530C852D33
:101D00000E94710C622D6E19262F442D852D0E9484
:101D1000710CEC16FD0644F2DF91CF911F910F91EB
:101D2000FF90EF90DF90CF90BF90AF909F908F90FB
:101D30007F906F905F904F903F902F900895E1E8D3
:101D4000F0E0808188608083AFE6B0E08C918260B3
:101D50008C9383E08093890088EE80938800808153
:101D600082608083089585B5826085BD84E687BDE5
:101D700085B5826085BDEEE6F0E08081826080837B
:101D800008951F920F920FB60F9211248F939F9375
:101D9000AF93BF938091760390917703A0917803DE
:101DA000B09179030196A11DB11D809376039093A4
:101DB0007703A0937803B0937903BF91AF919F917C
:101DC0008F910F900FBE0F901F9018951F920F923A
:101DD0000FB60F9211242F938F939F9383B1829507
:101DE0008695869583708093750390917403892BF3
:101DF0008430D9F018F4813029F029C08B30A9F053
:101E00008E3029F580917A03882331F080914E0439
:101E10008F5F80934E041BC080914F048F5F80932F
:101E20004F048BB180618BB912C080917A038823F3
:101E300031F080914E04815080934E0408C080910F
:101E40004F04815080934F048BB180618BB9809196
:101E50007503880F880F8093740380914F0488372F
:101E60001CF010924F0405C088231CF487E7809370
:101E70004F0490914F0483E99802812D1124890F1A
:101E80008595859597FD8395282F220F220F220F88
:101E9000281B921B923041F12CF4992351F0913080
:101EA000B1F055C09430D1F164F1953009F443C0DC
:101EB0004EC080914E0488311CF010924E0447C0F1
:101EC00088230CF044C087E180934E0440C0809189
:101ED0004E048C331CF010924E0439C08823BCF59C
:101EE0008BE380934E0433C080914E0488301CF005
:101EF00010924E042CC0882354F587E080934E0442
:101F000026C080914E0480321CF010924E041FC0F7
:101F10008823ECF48FE180934E0419C080914E0425
:101F20008D301CF010924E0412C0882384F48CE093
:101F300080934E040CC080914E0484361CF01092A5
:101F40004E0405C088231CF483E680934E048BB1B5
:101F50008F7E8BB99F918F912F910F900FBE0F9015
:101F60001F901895E9E6F0E08081886080838DB34A
:101F700082608DBB08951F920F920FB60F921124AD
:101F80002F933F934F935F936F937F938F939F9381
:101F9000AF93BF93EF93FF9380917B03823091F1D6
:101FA00028F4882351F0813061F0EAC0833009F4CD
:101FB000E0C0843009F4E1C0E3C081E080937B039A
:101FC000DFC080914F0483781CF481508C6F8F5F49
:101FD000813061F01CF4882331F0D2C0823051F09E
:101FE000833061F0CDC010927B03CAC082E0809341
:101FF0007B03C6C083E080937B03C2C084E08093F0
:102000007B03BEC090914F0483E99802812D112477
:10201000890F85958595E82F97FDE3958E2F880F7D
:10202000880F880F8E1BE92FE81B8E2FEE0F990B60
:10203000AA0BBB0B8730910508F0A2C0FC01EC5C39
:10204000FF4F0C94B52A80917A03811108C08091CA
:10205000510480934E0481E080937A0391C0809173
:102060004E048093510481E0809352040E9495179E
:1020700010927A0385C080917A03811108C0809103
:10208000530480934E0481E080937A0379C0809159
:102090004E048093530482E0809352040E9495176B
:1020A00010927A036DC080917A03811108C08091EB
:1020B000560480934E0481E080937A0361C080913E
:1020C0004E048093560486E0809352040E94951734
:1020D00010927A0355C080917A03811108C08091D3
:1020E000580480934E0481E080937A0349C0809124
:1020F0004E048093580483E0809352040E94951705
:1021000010927A033DC080917A03811108C08091BA
:10211000500480934E0481E080937A0331C0809113
:102120004E048093500484E0809352040E949517DB
:1021300010927A0325C080917A03811108C08091A2
:10214000540480934E0481E080937A0319C08091F7
:102150004E048093540485E0809352040E949517A6
:1021600010927A030DC01092520481E080937B0399
:1021700007C081E080937B0303C081E080937B03F1
:10218000FF91EF91BF91AF919F918F917F916F914F
:102190005F914F913F912F910F900FBE0F901F9025
:1021A000189584B18E6284B985B1837D85B985B176
:1021B000846085B980E58CBD08958AB18B7F8AB92A
:1021C0008BB184608BB98AB180618AB98BB18F7E03
:1021D0008BB98AB180688AB98BB18F778BB98AB194
:1021E00080628AB98BB18F7D8BB98AB180648AB9DC
:1021F0008BB18F7B8BB98AB1877F8AB984B18E7F8F
:1022000084B98BB188608BB985B18F7385B9089516
:102210008EBD0DB407FEFDCF8EB50895E0E6F0E06B
:102220008081877F808399E288E10FB6F894A89532
:10223000809360000FBE909360000E94DD108BB110
:1022400080618BB90E94D1100E94651888E090E0EF
:102250000E9493180E9458090E94CB18A8950E94CA
:102260001A170E9484170E946C060E943404A895D5
:102270000E940F19A8958BB18F7E8BB90E949F0E7B
:102280000E94B30EE9E6F0E08081826080838DB326
:1022900081608DBB0E94B20F789485E0EEE2F1E0A0
:1022A000A6E0B4E001900D928A95E1F785E0EEE2B8
:1022B000F1E0A1E0B4E001900D928A95E1F785E0AC
:1022C000EEE2F1E0ACEFB3E001900D928A95E1F718
:1022D00085E0EEE2F1E0A6EFB3E001900D928A9581
:1022E000E1F785E0EEE2F1E0A1EFB3E001900D92BD
:1022F0008A95E1F785E0EEE2F1E0ABEEB3E0019024
:102300000D928A95E1F7E2E3F4E080E38083818334
:102310009EE292838383EDE2F4E080838183E8E1AF
:10232000F4E08083918382838383E7E2F4E0808317
:10233000818392838383E2E2F4E08083818395E06A
:10234000E6E7F1E0ADE1B4E001900D929A95E1F796
:1023500080930C048DE280936704809312040E94A2
:102360004F2485E894E09F938F9381E894E09F93B6
:102370008F938DE794E09F938F9385E794E09F93ED
:102380008F9381E794E09F938F938DE694E09F93E2
:102390008F9383E391E09F938F938CEC93E09F93D3
:1023A0008F930E940C2B0E944F240E94A1288DB76E
:1023B0009EB740960FB6F8949EBF0FBE8DBF80911A
:1023C000E003813009F091C0C0907603D09077038C
:1023D000E0907803F0907903C0E07AC080917603B2
:1023E00090917703A0917803B09179038C199D099E
:1023F000AE09BF0989399A43A105B1052CF01092A5
:10240000E00310925A0467C08091E003813009F024
:1024100041C087E592E00197F1F700C000008BB161
:1024200080618BB987E592E00197F1F700C0000069
:102430008BB18F7E8BB90E9437130E944F2485E8A1
:1024400094E09F938F9381E894E09F938F938DE71F
:1024500094E09F938F9385E794E09F938F9381E718
:1024600094E09F938F938DE694E09F938F9383E303
:1024700091E09F938F9387E191E09F938F930E94C8
:102480000C2BCF5F8DB79EB740960FB6F8949EBFCA
:102490000FBE8DBF80917B03823089F028F48823A2
:1024A00041F0813049F013C0833061F0843069F02D
:1024B0000EC00E94E3250BC00E947F1908C00E9435
:1024C000F82105C00E94591A02C00E94CD1AA89591
:1024D000C63008F483CF9FEF29E688E19150204071
:1024E0008040E1F700C00000C0C0C0907603D090EB
:1024F0007703E0907803F090790390EEC91693E9A2
:10250000D90694E0E906F1040CF477C00E944F2448
:10251000809154041F928F93809150041F928F9347
:10252000809158041F928F93809155041F928F932E
:10253000809153041F928F93809151041F928F9327
:1025400085E491E09F938F93C3E0D1E0DF93CF9335
:102550000E940C2B0E94A128DF93CF9386EF93E07B
:102560009F938F938CEF93E09F938F9381EF93E0F2
:102570009F938F938BEE93E09F938F938CE094E0E7
:102580009F938F9382E294E09F938F9381E094E0F6
:102590009F938F9387E294E09F938F9386E094E0DC
:1025A0009F938F9387E591E09F938F93CCE7D3E040
:1025B000DF93CF930E940C2B8DB79EB788960FB6F2
:1025C000F8949EBF0FBE8DBFCE010E94A718099040
:1025D0000020E9F72197AE014C57534060E070E0CE
:1025E0008CE793E00E94F12A109276031092770311
:1025F000109278031092790338C0C701B60128EB16
:102600003BE040E050E00E94962A672B682B692B44
:1026100019F40E94A12829C0C701B60125E330E0C2
:1026200040E050E00E94962A672B682B692BE9F462
:1026300080917B03823089F028F4882341F0813037
:1026400049F013C0833061F0843069F00EC00E94FD
:10265000E3250BC00E947F1908C00E94F82105C025
:102660000E94591A02C00E94CD1AA895A8CECF92F6
:10267000DF92EF92FF920F931F93CF93DF9380919E
:10268000E003813009F0DCC28091E603833009F475
:1026900089C130F4813069F0823009F4D3C0CEC2F0
:1026A000853009F483C008F4C0C1863009F453C2F0
:1026B000C5C280915A048F5F80935A04E2E3F4E02C
:1026C00001900020E9F73197AF014253544060E098
:1026D00070E082E394E00E94F12AE6E0F4E00190E9
:1026E0000020E9F73197AF014650544060E070E0B8
:1026F00086E094E00E94F12A8091E703882359F153
:1027000006EE13E0F801938182811F929F931F923E
:102710008F93CBE7D1E0DF93CF9382E394E09F9355
:102720008F930E940C2BF801938182811F929F93BB
:102730001F928F93DF93CF9386E094E09F938F93C4
:102740000E940C2BEDB7FEB770960FB6F894FEBF43
:102750000FBEEDBF73C206EE13E0F80193818281D4
:102760001F929F931F928F93CCE7D1E0DF93CF937B
:1027700082E394E09F938F930E940C2BF801938146
:1027800082811F929F931F928F93DF93CF9386E056
:1027900094E09F938F930E940C2BEDB7FEB7709639
:1027A0000FB6F894FEBF0FBEEDBF48C280915A0429
:1027B0008F5F80935A040DE214E0F801019000202D
:1027C000E9F73197AF014D52544060E070E0C80125
:1027D0000E94F12A0F2EF1E0EF2EF4E0FF2EF02DF3
:1027E000F70101900020E9F73197AF0141505440C3
:1027F00060E070E0C7010E94F12A0F2EF6EECF2EA6
:10280000F3E0DF2EF02DF60181811F928F93CFE749
:10281000D1E0DF93CF931F930F930E940C2BF6010F
:1028200081811F928F93DF93CF93FF92EF920E944B
:102830000C2BEDB7FEB73C960FB6F894FEBF0FBE5B
:10284000EDBFFCC180915A048F5F80935A04E1EE82
:10285000F3E001900020E9F73197AF01415E53406A
:1028600060E070E081EE93E00E94F12AEDE1F4E097
:1028700001900020E9F73197AF014D51544060E0DD
:1028800070E08DE194E00E94F12AECEFF3E001901A
:102890000020E9F73197AF014C5F534060E070E0F2
:1028A0008CEF93E00E94F12A20E00BC0822F90E091
:1028B000FC01E951FC4F3081FC01EF51FC4F3083AA
:1028C0002F5F822F90E0E6EEF3E001900020E9F721
:1028D0003197E65EF34031978E179F0738F381EE0C
:1028E00093E00E94A825892B09F449C081EE93E06A
:1028F0000E94A825EC0181EE93E00E94A8259C018E
:1029000004E610E0CE01B8010E94602A9F938F93E5
:10291000C901B8010E94602A7F936F93CCE7D1E090
:10292000DF93CF938DE194E09F938F930E940C2BC4
:1029300081EE93E00E94A8257C0181EE93E00E9445
:10294000A8259C01C701B8010E94602A9F938F931C
:10295000C901B8010E94602A7F936F93DF93CF93E0
:102960008CEF93E09F938F930E940C2B8DB79EB7B3
:1029700040960FB6F8949EBF0FBE8DBF5FC185E035
:10298000E6E7F1E0ADE1B4E001900D928A95E1F760
:1029900085E0E6E7F1E0ACEFB3E001900D928A95B7
:1029A000E1F74CC180915A048F5F80935A04E7E6A7
:1029B000F4E001900020E9F73197AF014756544009
:1029C00060E070E087E694E00E94F12AE6EFF3E031
:1029D00001900020E9F73197AF01465F534060E076
:1029E00070E086EF93E00E94F12A20E00FC0822F72
:1029F00090E0FC01E951FC4F3081FC01E959FB4FAB
:102A00003083FC01EA50FC4F30832F5F822F90E02F
:102A1000E6EEF3E001900020E9F73197E65EF3403F
:102A200031978E179F0718F309C180915A048F5F61
:102A300080935A04EBE5F4E001900020E9F7319728
:102A4000AF014B55544060E070E08BE594E00E948C
:102A5000F12AE8E1F4E001900020E9F73197AF01B5
:102A60004851544060E070E088E194E00E94F12A0F
:102A7000E1EFF3E001900020E9F73197AF01415F0A
:102A8000534060E070E081EF93E00E94F12A20E083
:102A90000BC0822F90E0FC01E951FC4F3081FC011A
:102AA000E55AFB4F30832F5F822F90E0E6EEF3E094
:102AB00001900020E9F73197E65EF34031978E17D9
:102AC0009F0738F38BE594E00E94CA24EC018BE564
:102AD00094E00E94CA249C0104E610E0CE01B801F3
:102AE0000E94602A9F938F93C901B8010E94602AB7
:102AF0007F936F93CCE7D1E0DF93CF9388E194E0AD
:102B00009F938F930E940C2B8BE594E00E94CA2424
:102B10007C018BE594E00E94CA249C01C701B801A6
:102B20000E94602A9F938F93C901B8010E94602A76
:102B30007F936F93DF93CF9381EF93E09F938F9376
:102B40000E940C2BEDB7FEB770960FB6F894FEBF3F
:102B50000FBEEDBF73C080915A048F5F80935A04FB
:102B6000E1E6F4E001900020E9F73197AF0141562A
:102B7000544060E070E081E694E00E94F12AE2E1D6
:102B8000F4E001900020E9F73197AF014251544041
:102B900060E070E082E194E00E94F12AEBEEF3E065
:102BA00001900020E9F73197AF014B5E534060E0A0
:102BB00070E08BEE93E00E94F12A20E00BC0822FA0
:102BC00090E0FC01E951FC4F3081FC01EF59FB4FD3
:102BD00030832F5F822F90E0E6EEF3E0019000203B
:102BE000E9F73197E65EF34031978E179F0738F388
:102BF00081E694E00E948D249F938F93CFE7D1E0EC
:102C0000DF93CF9382E194E09F938F930E940C2BEC
:102C100081E694E00E948D249F938F93DF93CF935E
:102C20008BEE93E09F938F930E940C2B8DB79EB7F2
:102C30000C960FB6F8949EBF0FBE8DBF1092E003A6
:102C4000DF91CF911F910F91FF90EF90DF90CF9088
:102C5000089585B18B7F85B982EE0E94081182E0CC
:102C60008A95F1F700C085B1846085B9089585B172
:102C70008B7F85B981EE0E94081182E08A95F1F779
:102C800000C085B1846085B9089585B18B7F85B911
:102C900080E50E94081182E08A95F1F700C083E781
:102CA0000E94081185B1846085B90895EF92FF9262
:102CB0000F931F93CF93DF938B01C42F95B19B7F0D
:102CC00095B90E9408110BC078018FEFE81AF80A35
:102CD0008FEF0E940811F8018083CD2F8701DFEF6D
:102CE000DC0FC111F1CF85B1846085B9DF91CF913F
:102CF0001F910F91FF90EF900895EF92FF920F9325
:102D00001F93CF93DF938B01C42F95B19B7F95B910
:102D100080620E94081182E08A95F1F700C00AC023
:102D20007801EFEFEE1AFE0AF80180810E94081187
:102D3000CD2F8701DFEFDC0FC111F2CF85B18460A9
:102D400085B9DF91CF911F910F91FF90EF9008957A
:102D5000CF93C62F95B19B7F95B980620E940811D1
:102D60008C2F0E94081185B1846085B9CF91089598
:102D7000CF93C82F85B18B7F85B98C2F0E94081106
:102D8000C73019F08FEF0E94081195B1946095B982
:102D9000CF9108951F920F920FB60F9211242F9387
:102DA0003F934F935F936F937F938F939F93AF93D3
:102DB000BF93EF93FF9387E00E94B81686FF0AC087
:102DC00045E066EE73E081E60E94561660E487E017
:102DD0000E94A81680915A04863011F410925A0469
:102DE00081E08093E003FF91EF91BF91AF919F91BC
:102DF0008F917F916F915F914F913F912F910F90A4
:102E00000FBE0F901F90189580E00E94B816682F93
:102E1000636080E00E94A81685B1826085B98BE26C
:102E200091E00197F1F700C000000E9429160E946E
:102E30003716089585B18D7F85B98FE097E20197A8
:102E4000F1F700C000006AE080E00E94A8168FE061
:102E500097E20197F1F700C0000062E081E00E9474
:102E6000A81662E082E00E94A81661E083E00E945A
:102E7000A8166FE584E00E94A8160E94451660E03F
:102E80008DE10E94A81660E08CE10E94A81660E720
:102E900087E00E94A8166CE485E00E94A81666E010
:102EA00086E00E94A81643E06BE271E080E10E9498
:102EB0007D1643E06BE271E08BE00E947D1665E0D9
:102EC00082E10E94A8160E94041708959DEC899F34
:102ED000912D112496959695969520E1929FA001AB
:102EE0001124990F292F220F220F920F891B842B57
:102EF0000895982F92959F70990F292F220F220FD6
:102F0000920F8F70890F08950E94691880ED0E94BA
:102F100075188EE00E94751880E20E94751888E08E
:102F20000E9475180E94711808950E94691880ED1A
:102F30000E94751880915204833099F128F48130F1
:102F400061F08230E1F0BEC0853009F498C008F429
:102F500084C0863009F4A5C0B5C082E00E9475180F
:102F600080915104883128F40E9466170E947518D8
:102F7000A9C080E00E9466170E947518A3C081E076
:102F80000E947518809153048B3328F40E946617B1
:102F90000E94751897C080E00E9466170E947518FD
:102FA00091C084E00E94751880915004823011F520
:102FB00080915404837079F4809158048D3128F401
:102FC0000E9466170E9475187DC081E00E946617F6
:102FD0000E94751877C0809158048C3128F40E94A3
:102FE00066170E9475186EC081E00E9466170E94E5
:102FF000751868C021E0843009F020E091E0863047
:1030000009F090E0292B91E0893009F090E031E05F
:103010008B3009F030E0922B11F4332379F080915A
:1030200058048E3128F40E9466170E9475184AC011
:1030300081E00E9466170E94751844C08091580470
:103040008F3128F40E9466170E9475183BC081E0FA
:103050000E9466170E94751835C085E00E94751899
:10306000809150048C3028F40E9466170E947518D5
:1030700029C081E00E9466170E94751823C086E06F
:103080000E94751880915404833628F40E946617B4
:103090000E94751817C081E00E9466170E9475187B
:1030A00011C083E00E94751880915604873028F47F
:1030B0000E9466170E94751805C081E00E9466177D
:1030C0000E9475180E947118089580E28093B800DC
:1030D000089584EA8093BC008091BC008823E4F7C3
:1030E000089584E98093BC0008958093BB0084E830
:1030F0008093BC008091BC008823E4F7089584ECA1
:103100008093BC008091BC008823E4F78091BB00D1
:10311000089584E88093BC008091BC008823E4F784
:103120008091BB0008959093C5008093C400E1ECAA
:10313000F0E0808188618083E0ECF0E08081826053
:103140008083E2ECF0E080818E6080830895DC0172
:1031500040E080E013C09091E003913029F090911D
:10316000C00095FFF8CF01C041E0413099F0FD016A
:10317000E20FF31F90819093C6008F5F282F30E0FD
:10318000FD0101900020E9F73197EA1BFB0B2E1798
:103190003F0728F30895EF92FF920F931F93CF9369
:1031A000DF93CDB7DEB7D4500FB6F894DEBF0FBEB5
:1031B000CDBF9E012F5F3F4F790180E094E0F90180
:1031C0009C01119221503040E1F781E00E94E1071B
:1031D000C7010E94370C870122E831E040E060E03F
:1031E00088E290E00E94820B2BE831E040E067E04B
:1031F0008EE190E00E94820BC7010E94000880E0EF
:103200000E94E107DC5F0FB6F894DEBF0FBECDBFB2
:10321000DF91CF911F910F91FF90EF900895EF9262
:10322000FF920F931F93CF93DF93CDB7DEB7D450A8
:103230000FB6F894DEBF0FBECDBF9E012F5F3F4F8C
:10324000790180E094E0F9019C0111922150304015
:10325000E1F781E00E94E107C7010E946D0C870140
:103260002FE030E040E750E063E270E086E090E07D
:103270000E94D60C28E931E040E061E083E090E074
:103280000E94820B2EEA31E040E063E080E190E0B2
:103290000E94820BC7010E9400086894FF24F3F883
:1032A0001BC08E010F5F1F4F2BE030E049E050E064
:1032B00065E270E08F2D90E00E94230DC8010E940E
:1032C00000083FEF82E597E0315080409040E1F701
:1032D00000C00000EBE0FE0EF4E7FF1510F780E001
:1032E0000E94E107DC5F0FB6F894DEBF0FBECDBFD2
:1032F000DF91CF911F910F91FF90EF9008950F9361
:103300001F93CF93DF93CDB7DEB7D4500FB6F894A9
:10331000DEBF0FBECDBF8E010F5F1F4F80E094E078
:10332000F8019C01119221503040E1F781E00E94A8
:10333000E107C8010E946D0C2FEB31E041E060E035
:103340008EE190E00E94820B80914F0483781CF400
:1033500081508C6F8F5F813079F11CF4882341F0AC
:1033600096C0823009F44CC0833009F46DC08FC020
:103370008E010F5F1F4F2CEC31E041E062E08FE0E7
:1033800090E00E94820B2EED31E040E063E08FE0A0
:1033900090E00E94820B20EF31E040E064E08FE09B
:1033A00090E00E94820B28EF31E040E065E08FE082
:1033B00090E00E94820B6BC08E010F5F1F4F2CECC0
:1033C00031E040E062E08FE090E00E94820B2EED61
:1033D00031E041E063E08FE090E00E94820B20EF5B
:1033E00031E040E064E08FE090E00E94820B28EF43
:1033F00031E040E065E08FE090E00E94820B47C042
:103400008E010F5F1F4F2CEC31E040E062E08FE057
:1034100090E00E94820B2EED31E040E063E08FE00F
:1034200090E00E94820B20EF31E041E064E08FE009
:1034300090E00E94820B28EF31E040E065E08FE0F1
:1034400090E00E94820B23C08E010F5F1F4F2CEC77
:1034500031E040E062E08FE090E00E94820B2EEDD0
:1034600031E040E063E08FE090E00E94820B20EFCB
:1034700031E040E064E08FE090E00E94820B28EFB2
:1034800031E041E065E08FE090E00E94820BCE01E8
:1034900001960E94000880E00E94E107DC5F0FB601
:1034A000F894DEBF0FBECDBFDF91CF911F910F917A
:1034B0000895EF92FF920F931F93CF93DF93CDB7B1
:1034C000DEB7D4500FB6F894DEBF0FBECDBF9E015D
:1034D0002F5F3F4F790180E094E0F9019C01119248
:1034E00021503040E1F781E00E94E107C7010E94CE
:1034F0006D0C870121E032E041E060E089E190E07D
:103500000E94820B2FE032E040E061E082E090E038
:103510000E94820B24E232E040E062E080E090E032
:103520000E94820B29E332E040E063E080E090E01B
:103530000E94820B2EE432E040E064E080E090E004
:103540000E94820B24E632E040E065E080E090E0FB
:103550000E94820B29E732E040E066E080E090E0E4
:103560000E94820B2EE832E041E067E089E190E0C2
:103570000E94820BC7010E94000880E00E94E107C0
:10358000DC5F0FB6F894DEBF0FBECDBFDF91CF91E9
:103590001F910F91FF90EF900895EF92FF920F937C
:1035A0001F93CF93DF93CDB7DEB7D4500FB6F89407
:1035B000DEBF0FBECDBF9E012F5F3F4F790180E080
:1035C00094E0F9019C01119221503040E1F781E033
:1035D0000E94E107C7010E946D0C87012BE932E0D0
:1035E00041E060E087E090E00E94820B2FEA32E049
:1035F00040E061E080E090E00E94820B2CEC33E040
:1036000040E062E080E090E00E94820B2EEB32E02E
:1036100040E063E080E090E00E94820B27E131E02F
:1036200040E064E080E090E00E94820B21ED32E017
:1036300040E065E080E090E00E94820B23E031E012
:1036400040E066E080E090E00E94820B2EE832E0ED
:1036500041E067E089E190E00E94820BC7010E948F
:10366000000880E00E94E107DC5F0FB6F894DEBF3F
:103670000FBECDBFDF91CF911F910F91FF90EF90C3
:1036800008950F931F93CF93DF93EC019C0145E0C6
:1036900050E065E370E08EE690E00E940B0E8E0134
:1036A0002BE24EE66DE28EE60E94710C25E348E7C0
:1036B00065E386E70E94710C25E344E665E386E650
:1036C0000E94710C2FE34EE66DE38EE60E94710CB2
:1036D0002EE246E660E388E60E94710C2EE246E7A1
:1036E00060E384E70E94710C2CE346E76AE384E719
:1036F0000E94710C2CE346E66AE388E60E94710C96
:10370000DF91CF911F910F9108950F931F93CF9346
:10371000DF93EC019C0145E065E38EE60E946C0DB1
:103720008E012BE24EE66DE28EE60E94710C25E3DF
:1037300048E765E386E70E94710C2FE34EE66DE3F0
:103740008EE60E94710C2EE246E760E384E70E9459
:10375000710C2CE346E76AE384E70E94710C29E3CD
:103760004AE669E38AE50E94710CAE0168E389E5E7
:103770000E94DE06AE0167E388E50E94DE0626E3CE
:1037800047E564E387E50E94710CAE0163E388E5D9
:103790000E94DE0622E34DE562E389E50E94710C9A
:1037A000AE0163E38EE50E94DE0621E34CE56EE2A6
:1037B0008CE50E94710CAE016DE28DE50E94DE0683
:1037C0002CE244E66CE28EE50E94710CAE016DE2E3
:1037D00085E60E94DE0620E346E66EE286E60E946B
:1037E000710CAE0161E385E60E94DE0620E34AE645
:1037F00060E386E60E94710CAE0168E38BE60E94EE
:10380000DE06AE0167E38CE60E94DE0626E34DE6A7
:1038100063E38DE60E94710CAE0162E38CE60E94C8
:10382000DE06AE0161E38BE60E94DE06AE0162E3D6
:103830008AE60E94FF0613E306C0AE01612F89E607
:103840000E94FF061F5F1833C0F3AE0168E38AE6EB
:103850000E94FF06AE0160E38AE60E94DE06AE012A
:1038600060E389E60E94DE068E0121E341E761E321
:103870008CE60E94710C22E342E762E38DE60E942F
:10388000710C23E343E763E38EE60E94710C24E3AB
:1038900043E764E38EE60E94710C25E343E765E3AA
:1038A0008EE60E94710C26E343E766E38EE60E94F3
:1038B000710C27E342E767E38DE60E94710C28E371
:1038C00041E768E38CE60E94710C29E340E769E375
:1038D0008BE60E94710CDF91CF911F910F9108959B
:1038E0000F931F93CF93DF93EC018C0129E34AE6FA
:1038F00069E38AE50E94710CAE0168E389E50E94E4
:10390000DE06AE0167E388E50E94DE0626E347E5B2
:1039100064E387E50E94710CAE0163E388E50E94D1
:10392000DE0622E34DE562E389E50E94710CAE01FB
:1039300063E38EE50E94DE0621E34CE56EE28CE552
:103940000E94710CAE016DE28DE50E94DE062CE254
:1039500044E66CE28EE50E94710CAE016DE285E6F4
:103960000E94DE0620E346E66EE286E60E94710CC7
:10397000AE0161E385E60E94DE0620E34AE660E3ED
:1039800086E60E94710CAE0168E38BE60E94DE06BB
:10399000AE0167E38CE60E94DE0626E34DE663E3B4
:1039A0008DE60E94710CAE0162E38CE60E94DE0699
:1039B000AE0161E38BE60E94DE0627E349E767E399
:1039C0008EE60E94710C26E34AE763E38AE70E94D1
:1039D000710CAE0162E389E70E94DE0621E348E74D
:1039E00061E386E70E94710CAE0162E385E70E9405
:1039F000DE0620E346E76FE286E70E94710C2EE2C6
:103A000045E76EE282E70E94710C21E341E76FE235
:103A100081E70E94710CAE0162E382E70E94DE063C
:103A200021E340E761E38FE60E94710CAE0162E39F
:103A30008EE60E94DE06DF91CF911F910F910895CF
:103A40000F931F93CF93DF93EC010E94701C8E01A4
:103A50002DE349E56BE38BE50E94710C2DE34CE50A
:103A60006BE38EE50E94710C2DE34FE56BE381E67D
:103A70000E94710C2DE342E66BE384E60E94710C18
:103A80002DE345E66BE387E60E94710C2DE348E6E3
:103A90006BE38AE60E94710C2AE34EE669E38FE647
:103AA0000E94710C2AE341E769E382E70E94710CEE
:103AB0002AE344E769E385E70E94710C2AE347E7BC
:103AC00069E388E70E94710CDF91CF911F910F91FC
:103AD00008950F931F93CF93DF93EC019C0149E06E
:103AE00064E38BE00E946C0D18E00BC0AE016CE249
:103AF000812F0E94FF06AE016DE3812F0E94FF0619
:103B00001F5F1F3098F319E20BC0AE01612F89E0EF
:103B10000E94DE06AE01612F8DE00E94DE061F5F6F
:103B20001E3298F3AE016AE28AE00E94DE06AE0120
:103B30006BE28BE00E94DE06AE016CE28CE00E943C
:103B4000DE06AE016CE389E00E94DE06AE016FE3A3
:103B500089E00E94DE060AE00BC0AE01612F802FD3
:103B60000E94DE061E5F01C01BE31034B0F30F5F3E
:103B70000D30D0F3AE016EE38DE00E94DE06AE01A3
:103B80006BE38DE00E94DE0612E310C0AE01612FF0
:103B900084E10E94FF06AE01612F82E10E94DE06F1
:103BA000AE01612F82E00E94FF061F5F173370F3A2
:103BB000AE0167E383E10E94FF06AE0160E383E1AB
:103BC0000E94DE0603E10BC0AE01612F802F0E9430
:103BD000DE061E5F01C012E31733B0F30F5F07313B
:103BE000D0F3AE0167E383E00E94FF06AE0160E31D
:103BF00083E00E94DE068E0125E342E064E382E07A
:103C00000E94710CAE0166E383E00E94DE0612E3BF
:103C10000BC0AE01612F84E00E94DE06AE01612F71
:103C200080E00E94DE061F5F163398F3AE0166E364
:103C300081E00E94DE06AE0164E38BE00E94DE06B6
:103C400066EE72E087E694E00E94032B892B41F038
:103C50002EC0AE01612F8BE00E94DE061F5F01C007
:103C60001EE21433B0F38E0126E34AE065E38AE0F6
:103C70000E94710C26E34CE065E38CE00E94710C1D
:103C8000AE016FE28AE00E94DE06AE016FE28CE0D8
:103C90000E94DE0620E34AE060E389E00E94710CA6
:103CA00020E34DE060E38CE00E94710C96C168EE69
:103CB00072E087E694E00E94032B892B79F58E0150
:103CC00023E34AE062E38AE00E94710C23E34CE0C4
:103CD00062E38CE00E94710C15E306C0AE01612F17
:103CE0008BE00E94DE061F5F1B33C0F38E0129E3C9
:103CF0004AE068E38AE00E94710CAE0169E38CE05F
:103D00000E94DE06AE0168E389E00E94DE0628E339
:103D10004DE068E38CE00E94710C5FC16CEE72E0D4
:103D200087E694E00E94032B892B79F58E0123E32B
:103D30004AE063E389E00E94710C25E34AE065E311
:103D400089E00E94710C1CE006C0AE0164E3812F83
:103D50000E94DE061F5F1231C0F3AE0163E380E113
:103D60000E94DE068E0125E340E165E38FE00E94BC
:103D7000710CAE0166E38FE00E94DE0623E34FE0A4
:103D800062E38FE00E94710C28C160EF72E087E669
:103D900094E00E94032B892B79F58E0123E34DE0FB
:103DA00063E38CE00E94710C25E34DE065E38CE059
:103DB0000E94710C15E006C0AE0164E3812F0E94E1
:103DC000DE061F5F1B30C0F3AE0163E386E00E9496
:103DD000DE068E0125E347E065E386E00E94710C74
:103DE000AE0166E387E00E94DE0623E347E062E37C
:103DF00087E00E94710CF1C06AEE72E087E694E001
:103E00000E94032B892BB9F5AE0163E38AE00E947F
:103E1000DE06AE0164E389E00E94DE06AE0165E3E2
:103E20008CE00E94DE06AE0166E38BE00E94DE06B7
:103E30008E012FE240E164E38BE00E94710C2FE2DF
:103E40004FE06FE28DE00E94710CAE0160E38EE006
:103E50000E94DE06AE0160E380E10E94DE0621E3FF
:103E600040E161E38FE00E94710CAE0162E380E10A
:103E70000E94DE06B2C06EEE72E087E694E00E9419
:103E8000032B892B91F5AE0163E38CE00E94DE06E3
:103E9000AE0164E38DE00E94DE06AE0165E38AE0D8
:103EA0000E94DE06AE0166E38BE00E94DE068E0114
:103EB0002FE246E064E38BE00E94710C2FE249E0C0
:103EC0006FE287E00E94710CAE0160E388E00E941F
:103ED000DE0622E346E060E386E00E94710CAE015C
:103EE00061E387E00E94DE0678C062EF72E087E659
:103EF00094E00E94032B892BB9F5AE0162E38BE0BD
:103F00000E94DE06AE0163E38CE00E94DE06AE0195
:103F100065E38AE00E94DE06AE0164E389E00E9468
:103F2000DE068E0129E340E164E38BE00E94710C20
:103F3000AE0169E38FE00E94DE06AE0167E38FE029
:103F40000E94DE0628E340E166E380E10E94710CF6
:103F500029E34EE068E38EE00E94710CAE0169E354
:103F60008DE00E94DE0639C066EF72E087E694E0DD
:103F70000E94032B892B89F5AE0162E38BE00E943E
:103F8000DE06AE0163E38AE00E94DE06AE0164E372
:103F90008DE00E94DE06AE0165E38CE00E94DE0645
:103FA0008E0129E346E064E38BE00E94710C28E374
:103FB00046E066E386E00E94710CAE0167E387E0AD
:103FC0000E94DE0629E349E069E387E00E94710C64
:103FD000AE0168E388E00E94DE06DF91CF911F9179
:103FE0000F910895E5E7F4E001900020E9F7AF01B3
:103FF0004657544060E070E085E794E00E94F12A63
:10400000E1E7F4E001900020E9F7AF0142575440A6
:1040100060E070E081E794E00E94F12AEDE6F4E0D0
:1040200001900020E9F73197AF014D56544060E010
:1040300070E08DE694E00E94F12AEDE7F4E0019053
:104040000020E9F7AF014E57544060E070E08DE783
:1040500094E00E94F12AE5E8F4E001900020E9F7FD
:10406000AF014658544060E070E085E894E00E945B
:10407000F12AE9E7F4E001900020E9F7AF014A579F
:10408000544060E070E089E794E00E94F12AE1E8A2
:10409000F4E001900020E9F7AF014258544060E09D
:1040A00070E081E894E00E94F12A809155048A3002
:1040B00098F41F928F938AEF92E09F938F9385E7F6
:1040C00094E09F938F930E940C2B0F900F900F9072
:1040D0000F900F900F9012C01F928F938FE791E077
:1040E0009F938F9385E794E09F938F930E940C2B6F
:1040F0000F900F900F900F900F900F90809153049E
:104100008A3098F41F928F938AEF92E09F938F9357
:1041100081E794E09F938F930E940C2B0F900F9058
:104120000F900F900F900F9012C01F928F938FE7F8
:1041300091E09F938F9381E794E09F938F930E94E8
:104140000C2B0F900F900F900F900F900F9080916D
:1041500051048A3098F41F928F938AEF92E09F93D4
:104160008F938DE694E09F938F930E940C2B0F907A
:104170000F900F900F900F900F9012C01F928F937F
:104180008FE791E09F938F938DE694E09F938F93B9
:104190000E940C2B0F900F900F900F900F900F908C
:1041A000809158048A3098F41F928F938AEF92E09E
:1041B0009F938F938DE794E09F938F930E940C2B96
:1041C0000F900F900F900F900F900F9012C01F92B2
:1041D0008F938FE791E09F938F938DE794E09F9368
:1041E0008F930E940C2B0F900F900F900F900F90B9
:1041F0000F90809154048A3098F41F928F938AEF25
:1042000092E09F938F9385E894E09F938F930E9411
:104210000C2B0F900F900F900F900F900F9012C0DB
:104220001F928F938FE791E09F938F9385E894E09F
:104230009F938F930E940C2B0F900F900F900F90D5
:104240000F900F90E09156048E2F90E0FC01319773
:10425000E730F105D8F5E55CFF4F0C94B52AE9E7A6
:10426000F4E08FEC9DEE9183808312822FC0E9E70A
:10427000F4E082EC92EF91838083128227C0E9E719
:10428000F4E081ED90EF9183808312821FC0E9E713
:10429000F4E087ED92EF91838083128217C0E9E703
:1042A000F4E08FEC92EF9183808312820FC0E9E7F4
:1042B000F4E081ED91EE91838083128207C0E9E7FB
:1042C000F4E082EC91EF918380831282E0915004BC
:1042D0008E2F90E0FC013197EC30F10508F087C09B
:1042E000EE5BFF4F0C94B52AEDE6F4E08FED9DEE0A
:1042F000958B848B82EE90E0978B868B0895EDE60C
:10430000F4E084ED95EE958B848B82EE90E0978BB4
:10431000868B0895EDE6F4E08CEC90EE958B848B23
:1043200080EF90E0978B868B0895EDE6F4E080ECCB
:104330009FEE958B848B80EF90E0978B868B089512
:10434000EDE6F4E08CEC90EE958B848B89EE90E0BA
:10435000978B868B0895EDE6F4E088EC9EEF958BC5
:10436000848B8DEE90E0978B868B0895EDE6F4E0DC
:1043700088EC9EEF958B848B8BEE90E0978B868BF1
:104380000895EDE6F4E080EC92EE958B848B83EE5D
:1043900090E0978B868B0895EDE6F4E081ED95EE45
:1043A000958B848B8DEE90E0978B868B0895EDE650
:1043B000F4E08EEC9AEE958B848B82EF90E0978BF5
:1043C000868B0895EDE6F4E08DEC9EEE958B848B64
:1043D0008FEF90E0978B868B0895EDE6F4E084EC08
:1043E00095EE958B848B8AEE90E0978B868B089563
:1043F0000F931F93CF93DF93CDB7DEB7D4500FB693
:10440000F894DEBF0FBECDBF8E010F5F1F4F80E05F
:1044100094E0F8019C01119221503040E1F70E9494
:10442000F21F81E00E94E107C8010E946D0C2EEF8F
:1044300032E041E060E08FE090E00E94820B9091DA
:104440004F0483E99802812D1124890F8595859564
:10445000E82F97FDE3958E2F880F880F880F8E1B0E
:10446000E92FE81B8E2FEE0F990BAA0BBB0B8730A1
:10447000910508F0D8C1FC01E25BFF4F0C94B52A0E
:1044800080917A03882321F080914E048093510417
:104490008E010F5F1F4F2DE634E041E062E080E2C5
:1044A00090E00E94400B21E734E040E062E08EE3C0
:1044B00090E00E94400B29E734E040E065E08CE1A9
:1044C00090E00E94820B2DE734E040E065E081E35C
:1044D00090E00E94820B21E834E040E065E086E451
:1044E00090E00E94820B25E834E040E065E08FE533
:1044F00090E00E94820B2EE832E040E067E089E124
:1045000090E00E94820B8FC180917A03882321F072
:1045100080914E04809353048E010F5F1F4F2DE650
:1045200034E040E062E080E290E00E94400B21E74E
:1045300034E041E062E08EE390E00E94400B29E726
:1045400034E040E065E08CE190E00E94820B2DE7D2
:1045500034E040E065E081E390E00E94820B21E8D6
:1045600034E040E065E086E490E00E94820B25E8BC
:1045700034E040E065E08FE590E00E94820B2EE899
:1045800032E040E067E089E190E00E94820B4BC19D
:1045900080917A03882321F080914E048093560401
:1045A0008E010F5F1F4F2DE634E040E062E080E2B5
:1045B00090E00E94400B21E734E040E062E08EE3AF
:1045C00090E00E94400B29E734E041E065E08CE197
:1045D00090E00E94820B2DE734E040E065E081E34B
:1045E00090E00E94820B21E834E040E065E086E440
:1045F00090E00E94820B25E834E040E065E08FE522
:1046000090E00E94820B2EE832E040E067E089E112
:1046100090E00E94820B07C180917A03882321F0E9
:1046200080914E04809358048E010F5F1F4F2DE63A
:1046300034E040E062E080E290E00E94400B21E73D
:1046400034E040E062E08EE390E00E94400B29E716
:1046500034E040E065E08CE190E00E94820B2DE7C1
:1046600034E041E065E081E390E00E94820B21E8C4
:1046700034E040E065E086E490E00E94820B25E8AB
:1046800034E040E065E08FE590E00E94820B2EE888
:1046900032E040E067E089E190E00E94820BC3C015
:1046A00080917A03882321F080914E0480935004F6
:1046B0008E010F5F1F4F2DE634E040E062E080E2A4
:1046C00090E00E94400B21E734E040E062E08EE39E
:1046D00090E00E94400B29E734E040E065E08CE187
:1046E00090E00E94820B2DE734E040E065E081E33A
:1046F00090E00E94820B21E834E041E065E086E42E
:1047000090E00E94820B25E834E040E065E08FE510
:1047100090E00E94820B2EE832E040E067E089E101
:1047200090E00E94820B7FC080917A03882321F061
:1047300080914E04809354048E010F5F1F4F2DE62D
:1047400034E040E062E080E290E00E94400B21E72C
:1047500034E040E062E08EE390E00E94400B29E705
:1047600034E040E065E08CE190E00E94820B2DE7B0
:1047700034E040E065E081E390E00E94820B21E8B4
:1047800034E040E065E086E490E00E94820B25E89A
:1047900034E041E065E08FE590E00E94820B2EE876
:1047A00032E040E067E089E190E00E94820B3BC08C
:1047B0008E010F5F1F4F2DE634E040E062E080E2A3
:1047C00090E00E94400B21E734E040E062E08EE39D
:1047D00090E00E94400B29E734E040E065E08CE186
:1047E00090E00E94820B2DE734E040E065E081E339
:1047F00090E00E94820B21E834E040E065E086E42E
:1048000090E00E94820B25E834E040E065E08FE50F
:1048100090E00E94820B2EE832E041E067E089E1FF
:1048200090E00E94820B8E010F5F1F4F20E133E06A
:1048300040E063E087E390E00E94820B22E133E0F6
:1048400040E063E085E590E00E94820B26E133E0E2
:1048500040E065E08AE290E00E94820B28E133E0CC
:1048600040E065E08FE390E00E94820B28E133E0B6
:1048700040E065E089E590E00E94820BC8010E945B
:10488000000880E00E94E107DC5F0FB6F894DEBF0D
:104890000FBECDBFDF91CF911F910F9108950E9460
:1048A000691880ED0E94751880E00E9475180E94BA
:1048B00071180E94691881ED0E9475180E947F1876
:1048C0000E947917809355040E947F180E947917DF
:1048D000809353040E947F180E947917809351049B
:1048E0000E947F180E947917809356040E947F18B7
:1048F0000E947917809358040E947F180E947917AC
:10490000809350040E9489180E9479178093540460
:104910000E9471180E94F21F0895CF93DF9300D078
:10492000CDB7DEB7FC012081222369F19E012F5F04
:104930003F4F3F932F932FE731E03F932F939F9368
:104940008F930E942E2B69817A81072E000C880B91
:10495000990B0E9457292CEB34E743E15EE30E9458
:10496000BB290E941F290F900F900F900F900F905E
:104970000F906536710514F064E670E084E690E00F
:10498000861B970B02C080E090E00F900F90DF91A4
:10499000CF910895CF93DF9300D0CDB7DEB7FC0160
:1049A00020812223A1F09E012F5F3F4F3F932F9341
:1049B0002FE731E03F932F939F938F930E942E2BED
:1049C0000F900F900F900F900F900F9002C01A82CF
:1049D000198269817A81072E000C880B990B0E943D
:1049E00057292BE734E14EE25FE30E94BB290E9486
:1049F0001F29CB010F900F90DF91CF910895EF9277
:104A0000FF920F931F93CF93DF937C018C012CE1D6
:104A100048E26CE182E20E94710C2BE142E263E128
:104A200082E20E94710C2BE148E263E188E20E947D
:104A3000710C23E144E263E182E20E94710C23E104
:104A400048E263E186E20E94710C23E144E262E104
:104A500084E20E94710C23E146E262E186E20E9458
:104A6000710C22E146E262E184E20E94710C8BE566
:104A700094E00E94CA24803991400CF048C08BE534
:104A800094E00E94CA24863891403CF08BE594E083
:104A90000E94CA2480399140E4F18BE594E00E94A1
:104AA000CA248C3791403CF08BE594E00E94CA24E4
:104AB0008638914084F18BE594E00E94CA248237C5
:104AC00091403CF08BE594E00E94CA248C379140E1
:104AD00024F18BE594E00E94CA24883691403CF092
:104AE0008BE594E00E94CA2482379140C4F08BE5A4
:104AF00094E00E94CA248E3591409CF08BE594E0AE
:104B00000E94CA248836914074F4D1E00DC0D6E0EA
:104B10000BC0D5E009C0D4E007C0D3E005C0D2E0A7
:104B200003C0D0E001C0D0E0C0E009C06AE16C1B66
:104B30008701262F46E284E20E94710CCF5FCD17D9
:104B4000A8F3DF91CF911F910F91FF90EF900895FF
:104B5000CF93DF9300D0CDB7DEB7FC0120812223B5
:104B6000A1F09E012F5F3F4F3F932F932FE731E03E
:104B70003F932F939F938F930E942E2B0F900F9014
:104B80000F900F900F900F9002C01A8219826981C6
:104B90007A81072E000C880B990B0E94572921E877
:104BA00035E94EEA52E40E94BB2920E030E040E8BB
:104BB0005EE30E94BB290E941F29CB010F900F903A
:104BC000DF91CF910895CF92DF92EF92FF920F93F2
:104BD0001F93CF93DF93CDB7DEB7CA50D4400FB643
:104BE000F894DEBF0FBECDBF9E012F5F3F4F79010E
:104BF00080E094E0F9019C01119221503040E1F7EE
:104C00006E013FEFC31A3BEFD30A8AE0F60111921F
:104C10008A95E9F781E00E94E107C7010E946D0CC7
:104C20000E944F2481E794E09F938F938DE694E058
:104C30009F938F938AE193E09F938F93DF92CF921C
:104C40000E940C2B8701960140E060E082E090E03A
:104C50000E94400B25E734E040E060E08FE390E005
:104C60000E94820B29E734E040E061E08DE390E0B0
:104C70000E94820B26E133E040E061E089E490E0AD
:104C80000E94820B2DE734E040E061E08CE490E08C
:104C90000E94820B28E133E040E061E088E590E08B
:104CA0000E94820B21E834E040E061E08DE590E075
:104CB0000E94820B28E133E040E061E08FE690E063
:104CC0000E94820B25E834E040E061E084E790E058
:104CD0000E94820B809100010FB6F894DEBF0FBED8
:104CE000CDBF813049F4870120E233E040E060E04D
:104CF00084E690E00E94820B8E010F5F1F4F20E040
:104D000042E566E082E50E94710C20E045E560E046
:104D10008FE40E94710CA80161E080E50E94DE062C
:104D2000A80162E081E50E94DE06A80163E082E559
:104D30000E94DE06A80161E084E50E94DE06A8016B
:104D400062E083E50E94DE06FF24F3940CC089969E
:104D5000880F27E02F198E010F5F1F4F482F66E045
:104D60000E94710CF3948F2D90E020915A0430E052
:104D70002F5F3F4F8217930754F38E010F5F1F4F32
:104D800026E233E040E064E08EE190E00E94820B96
:104D900029E233E040E064E089E390E00E94820B86
:104DA0002DE234E040E050E064E070E08EE290E01C
:104DB0000E94D10A6DE270E082E394E00E94F82A3A
:104DC000892B59F022E334E040E050E064E070E0E9
:104DD00080E090E00E94D10A0DC08E010F5F1F4F4E
:104DE00022E334E040E050E064E070E087E090E0EF
:104DF0000E94D10A8E010F5F1F4F28E134E040E08E
:104E000062E08CE290E00E94790A2DE134E040E01B
:104E100065E08AE190E00E94790A2BE233E040E00D
:104E200065E08DE290E00E94820B2FE233E040E0EB
:104E300066E08EE190E00E94820B24E348E164E3A7
:104E40008BE10E94710C2BE348E164E388E10E944E
:104E5000710C2BE34CE16BE388E10E94710CA8011B
:104E60006AE38BE10E94DE06A8016CE38BE10E94FD
:104E7000DE06A80169E38AE10E94DE06A8016DE36F
:104E80008AE10E94DE0681E694E00E948D240B9761
:104E90004CF426E333E040E067E08EE190E00E94CE
:104EA000820B56C081E694E00E948D240B9794F00B
:104EB00081E694E00E948D24C39764F48E010F5F15
:104EC0001F4F20E433E040E067E08EE190E00E9475
:104ED000820B3EC081E694E00E948D24C3979CF033
:104EE00081E694E00E948D248C34910564F48E0157
:104EF0000F5F1F4F27E433E040E067E08EE190E072
:104F00000E94820B25C081E694E00E948D248C349F
:104F100091059CF081E694E00E948D2485369105F0
:104F200064F48E010F5F1F4F21E533E040E067E03E
:104F30008EE190E00E94820B0BC08E010F5F1F4F2D
:104F400029E533E040E067E08EE190E00E94820BCB
:104F50008E010F5F1F4F26E233E040E064E08FE5F3
:104F600090E00E94820B6DE270E087E294E00E9484
:104F7000F82A892B59F027E234E040E050E064E061
:104F800070E081E490E00E94D10A0DC08E010F5FB5
:104F90001F4F27E234E040E050E064E070E088E436
:104FA00090E00E94D10A8E010F5F1F4F29E233E08B
:104FB00040E064E08AE790E00E94820B22E234E065
:104FC00040E050E064E070E08FE690E00E94D10A9B
:104FD0002CE034E040E062E086E590E00E94790A4F
:104FE00024E633E040E062E085E690E00E94820B38
:104FF00027E633E040E062E082E790E00E94820B27
:105000002AE633E040E062E082E090E00E94820B1A
:1050100020E733E040E062E081E490E00E94820B10
:1050200020E140E860E180E00E94710C28E140E26C
:1050300068E180E00E94710C28E140E261E180E2D9
:105040000E94710C28E140E061E180E00E94710C57
:1050500028E143E568E180E40E94710C28E143E522
:1050600061E183E50E94710C29E24FE361E18FE386
:105070000E94710C29E240E869E28FE30E94710C02
:10508000C8010E94FF24C8010E94691D81EE93E0BF
:105090000E94A825892B51F481E694E00E948D247A
:1050A0000B9724F4C8010E94411B34C081EE93E0A9
:1050B0000E94A825893E93402CF0CE0101960E94C3
:1050C000701C28C081EE93E00E94A82518161906CE
:1050D0005CF481E694E00E948D240B972CF4CE01C1
:1050E00001960E94851B16C081E694E00E948D24E3
:1050F000409764F081E694E00E948D248536910506
:105100002CF4CE0101960E94201D04C0CE01019610
:105110000E94411BCE0101960E94000880E00E947F
:10512000E107C65FDB4F0FB6F894DEBF0FBECDBF01
:10513000DF91CF911F910F91FF90EF90DF90CF9073
:105140000895EF92FF920F931F93CF93DF9300D0B8
:1051500000D01F92CDB7DEB7CE01019625E0FC014D
:1051600011922A95E9F70E947D068823B9F00B81F8
:1051700010E0102F00278A81082B11231CF41F77C1
:10518000009510958D8190E0982F88272C81822B97
:105190006AE070E00E94602AF62EE72EC801112313
:1051A00024F488279927801B910B2AE030E0B9016D
:1051B0000E94602A9F938F93C801B9010E94602AC0
:1051C0007F936F938CE791E09F938F9387E294E0B6
:1051D0009F938F930E940C2BEF92FF920FE711E0A9
:1051E0001F930F9382E294E09F938F930E940C2B66
:1051F0000E9404050E9457292FE832EC45EF5BE33B
:105200000E94BB290E941F297F936F931F930F93C6
:105210008CE094E09F938F930E940C2B0FB6F89430
:10522000DEBF0FBECDBF0F900F900F900F900F906D
:10523000DF91CF911F910F91FF90EF9008950E9401
:1052400026296894B1110C94B52908950E949A29D1
:1052500088F09F5798F0B92F9927B751B0F0E1F037
:10526000660F771F881F991F1AF0BA95C9F714C0E7
:10527000B13091F00E94B429B1E008950C94B429A2
:10528000672F782F8827B85F39F0B93FCCF3869520
:1052900077956795B395D9F73EF49095809570957D
:1052A00061957F4F8F4F9F4F0895E89409C097FBFA
:1052B0003EF490958095709561957F4F8F4F9F4FED
:1052C0009923A9F0F92F96E9BB279395F695879531
:1052D00077956795B795F111F8CFFAF4BB0F11F4F4
:1052E00060FF1BC06F5F7F4F8F4F9F4F16C088239B
:1052F00011F096E911C0772321F09EE8872F762FD1
:1053000005C0662371F096E8862F70E060E02AF011
:105310009A95660F771F881FDAF7880F96958795FD
:1053200097F9089557FD9058440F551F59F05F3F66
:1053300071F04795880F97FB991F61F09F3F79F0B7
:1053400087950895121613061406551FF2CF469539
:10535000F1DF08C0161617061806991FF1CF8695BB
:105360007105610508940895E894BB27662777279F
:10537000CB0197F908950E94CE290C943F2A0E94F0
:10538000312A38F00E94382A20F0952311F00C942D
:10539000282A0C942E2A11240C94B5290E949229B3
:1053A00070F3959FC1F3950F50E0551F629FF00178
:1053B000729FBB27F00DB11D639FAA27F00DB11D91
:1053C000AA1F649F6627B00DA11D661F829F22271A
:1053D000B00DA11D621F739FB00DA11D621F839FA1
:1053E000A00D611D221F749F3327A00D611D231F77
:1053F000849F600D211D822F762F6A2F11249F57C5
:1054000050409AF0F1F088234AF0EE0FFF1FBB1FC7
:10541000661F771F881F91505040A9F79E3F510586
:1054200080F00C94282A0C94B5295F3FE4F3983E51
:10543000D4F3869577956795B795F795E7959F5F30
:10544000C1F7FE2B880F911D9695879597F90895C2
:1054500097F99F6780E870E060E008959FEF80EC27
:10546000089500240A9416161706180609060895CA
:1054700000240A9412161306140605060895092E30
:105480000394000C11F4882352F0BB0F40F4BF2B9F
:1054900011F460FF04C06F5F7F4F8F4F9F4F0895DF
:1054A000DB018F939F930E94BB2ABF91AF91A29F74
:1054B000800D911DA39F900DB29F900D1124089512
:1054C00097FB072E16F4009407D077FD09D00E94B1
:1054D000CE2A07FC05D03EF4909581959F4F089504
:1054E000709561957F4F0895A1E21A2EAA1BBB1BF0
:1054F000FD010DC0AA1FBB1FEE1FFF1FA217B307A0
:10550000E407F50720F0A21BB30BE40BF50B661FB5
:10551000771F881F991F1A9469F760957095809579
:1055200090959B01AC01BD01CF010895052E97FB1D
:105530001EF400940E94AD2A57FD07D00E94742AE1
:1055400007FC03D04EF40C94AD2A5095409530954D
:1055500021953F4F4F4F5F4F0895909580957095DF
:1055600061957F4F8F4F9F4F0895EE0FFF1F05905E
:10557000F491E02D09940E94E22AA59F900DB49F1A
:10558000900DA49F800D911D11240895B7FF0C94D8
:10559000BB2A0E94BB2A821B930B0895AA1BBB1B2C
:1055A00051E107C0AA1FBB1FA617B70710F0A61B23
:1055B000B70B881F991F5A95A9F780959095BC0144
:1055C000CD010895A29FB001B39FC001A39F700DAC
:1055D000811D1124911DB29F700D811D1124911DFB
:1055E0000895DC0101C06D9341505040E0F70895EB
:1055F000FC018191861721F08823D9F79927089516
:105600003197CF010895FB01DC018D910190801944
:105610000110D9F3990B0895AEE0B0E0E2E1FBE2AE
:105620000C9401310D891E8986E08C831A830983CD
:105630008FEF9FE79E838D83AE01475E5F4F6F893B
:10564000788DCE0101960E94472BEF81F885E00FFF
:10565000F11F10822E96E4E00C941D31AEE0B0E014
:10566000E4E3FBE20C94033185E08C838B899C8915
:105670009A838983AE01495E5F4F6D897E89CE0131
:1056800001960E94C42E2E96E2E00C941F31ABE0EE
:10569000B0E0EDE4FBE20C94F3306C017B018A0195
:1056A000FC0117821682838181FFCCC1CE01019655
:1056B0003C01F6019381F70193FD859193FF819160
:1056C0007F01882309F4BAC1853239F493FD8591AD
:1056D00093FF81917F01853229F4B60190E00E9409
:1056E0003D30E7CF912C212C312CFFE1F315D8F080
:1056F0008B3279F038F4803279F08332A1F4232DA3
:1057000020611DC08D3261F0803369F4232D21604A
:1057100016C0832D8260382EE32DE4603E2E2AC011
:10572000F32DF8601DC037FC2DC020ED280F2A3066
:1057300040F08E32B9F436FC81C1232D2064322E24
:1057400019C036FE06C08AE0989E200D1124922EC4
:1057500011C0EAE02E9E200D1124222EF32DF062BE
:105760003F2E08C08C3621F4832D8068382E02C06D
:10577000883641F4F70193FD859193FF81917F0174
:105780008111B3CF982F9F7D9554933028F40C5FEF
:105790001F4F9FE399830DC0833631F0833771F03B
:1057A000833509F059C021C0F801808189830E5FDB
:1057B0001F4F88248394912C530113C02801F2E0D9
:1057C0004F0E511CF801A080B18036FE03C0692D38
:1057D00070E002C06FEF7FEFC5010E94F42F4C0113
:1057E0008201F32DFF773F2E16C0280122E0420EE2
:1057F000511CF801A080B18036FE03C0692D70E015
:1058000002C06FEF7FEFC5010E94E92F4C01F32D1D
:10581000F0683F2E820133FC1BC0822D90E0881679
:105820009906B0F4B60180E290E00E943D302A94DF
:10583000F4CFF50137FC859137FE81915F01B60108
:1058400090E00E943D3021102A9421E0821A9108B4
:105850008114910471F7E8C0843611F0893641F55E
:10586000F80137FE07C060817181828193810C5FEE
:105870001F4F08C060817181072E000C880B990BA7
:105880000E5F1F4FF32DFF763F2E97FF09C09095B7
:105890008095709561957F4F8F4F9F4FF0683F2E99
:1058A0002AE030E0A3010E949230882E861845C07D
:1058B000853731F4232D2F7EB22E2AE030E025C02B
:1058C000932D997FB92E8F36C1F018F4883579F071
:1058D000B5C0803719F0883721F0B0C0E92FE061FA
:1058E000BE2EB4FE0DC0FB2DF460BF2E09C034FEE9
:1058F0000AC0292F2660B22E06C028E030E005C07D
:1059000020E130E002C020E132E0F801B7FE07C03C
:1059100060817181828193810C5F1F4F06C060811D
:10592000718180E090E00E5F1F4FA3010E949230D2
:10593000882E8618FB2DFF773F2E36FE0DC0232DB7
:105940002E7FA22E891458F434FE0BC032FC09C0FD
:10595000832D8E7EA82E05C0B82CA32C03C0B82C96
:1059600001C0B92CA4FE0FC0FE01E80DF11D80811D
:10597000803321F49A2D997EA92E09C0A2FE06C07B
:10598000B394B39404C08A2D867809F0B394A3FC31
:1059900011C0A0FE06C0B21488F4280C922C9B18EB
:1059A0000EC0B21460F4B60180E290E00E943D3077
:1059B000B394F7CFB21418F42B1802C0982C212CF2
:1059C000A4FE10C0B60180E390E00E943D30A2FE2C
:1059D00017C0A1FC03C088E790E002C088E590E012
:1059E000B6010CC08A2D867859F0A1FE02C08BE268
:1059F00001C080E2A7FC8DE2B60190E00E943D303C
:105A0000891438F4B60180E390E00E943D309A9406
:105A1000F7CF8A94F301E80DF11D8081B60190E083
:105A20000E943D308110F5CF222009F442CEB6010C
:105A300080E290E00E943D302A94F6CFF601868104
:105A4000978102C08FEF9FEF2B96E2E10C940F310C
:105A500020FD09C0FC0123FD05C022FF02C07383A5
:105A6000628351834083089544FD17C046FD17C0EB
:105A7000AB01BC01DA01FB01AA0FBB1FEE1FFF1F28
:105A80001094D1F74A0F5B1F6E1F7F1FCB01BA0125
:105A9000660F771F881F991F09C033E001C034E0EB
:105AA000660F771F881F991F3150D1F7620F711D44
:105AB000811D911D08950F931F93CF93DF938C0148
:105AC000C8010E94FF2FEC0197FD08C00E94D52F4E
:105AD000892BB1F7B801CE010E947930CE01DF9158
