S01000004E524632345F52582E73726563BF
S11300000C9490040C9436120C94730F0C94AD045D
S11300100C94AD040C94AD040C94AD040C94AD0498
S11300200C94AD040C94AD040C94AD040C94BE0E6D
S11300300C94AD040C94AD040C94310F0C94AD04E9
S11300400C94AD040C94AD040C94AD040C94AD0468
S11300500C94AD040C94AD040C94AD040C94AD0458
S11300600C94AD040C94AD04DE19E619EE19F619DE
S1130070FE19061A0E1A231A2E1A391A441A4F1A7E
S11300805A1A651A701A7B1A861A911A9C1A6E618A
S11300906E00696E660000407A10F35A00A0724E3A
S11300A018090010A5D4E80000E87648170000E419
S11300B00B54020000CA9A3B000000E1F505000061
S11300C080969800000040420F000000A0860100C6
S11300D00000102700000000E80300000000640096
S11300E0000000000A000000000001000000000001
S11300F02C76D888DC674F0823DFC1DFAE59E1B125
S1130100B796E5E3E453C63AE651997696E8E6C233
S11301108426EB898C9B62ED407C6FFCEFBC9C9F3A
S113012040F2BAA56FA5F490055A2AF75C936B6C5C
S1130130F9676DC11BFCE0E40D47FEF520E6B50050
S1130140D0ED902E0300943577050080841E0800BE
S113015000204E0A000000C80C333333330F986E6E
S113016012831141EF8D2114893BE65516CFFEE62B
S1130170DB18D1844B381BF77C1D901DA4BBE424F1
S1130180203284725E228100C9F124ECA1E53D276E
S11301906364696E6F70737578585B0000000000CB
S11301A0000000000000000000000000000000004B
S11301B0000000000000000000000000000000003B
S11301C0000000000000000000000000000000002B
S11301D0000000000000000000000000000000001B
S11301E0000000000000000000000000000000000B
S11301F000000000000000000000000000000000FB
S113020000000000000080808080C0C0C0C0E0E02A
S1130210E0E0E0E00000000000000000000000005A
S11302200000000000020607070707070602020293
S1130230020202020202020202FFFFFF0202020E97
S11302401E3E7EFFFFFFFFFFFFFFFFFFFFFFFFFFDD
S1130250FFFFFFFFFEC000000000000000000000E0
S1130260000000000000000000000000000000008A
S11302700000000000F8FCFCFFFFFFFFFFFCFCF89F
S1130280000000000101010101010101010101015E
S11302900101010101000000000000000000000055
S11302A00000000080C0E0E0E0E0E0E0C0C08000CA
S11302B000000000001F17B7F7F7F7F7F7B7171F8D
S11302C000000000000080C0C0E0E0E0E0E0E0C02A
S11302D0800000000000000000000000000000009A
S11302E00000187FFFFFFFFFFFFFFFFFFFFFFF3E40
S11302F0181818181818183FBFBFBFBFBF3F1818E9
S113030018181818183EFFFFFFFFFFFFFFFFFFFF3D
S1130310FF7F1C000000000000000000000000003F
S113032000000000010103030307030303010000AD
S113033000000000000000000103070301000000AA
S1130340000000000000000103030307030303018E
S11303500100000000000000000000000000000098
S11303600000000000000000000000000000000089
S11303700000000000000000000000000000000079
S11303800000000000000000000000000000000069
S113039000000000000000000000000000E0F8FC85
S11303A03E070301E1FEFC3F7F878080E07C3F1F26
S11303B007000000000002E2FEFF1F03008080C06F
S11303C0F8FFFF87800000000000000C060303878D
S11303D0FF7E1C80C0E0F0E8E4E3E1F018000000D8
S11303E000808482C3C37F3F1E60E0C0C08081431D
S11303F07F3F1E0000000000804020F0F8FC1E102B
S11304001C1A1918F8FEFF1F190800004078F6E7B7
S1130410E7C787070360E0C08080417F3F0F00008B
S113042000C0E0F8785C4EC6C381013F7FFF818045
S1130430C0F07F3F0F00080E07070787671F0701FB
S1130440008060100C0300000000000000003C7EEF
S1130450FFE3C1C17F3E1C3C7EFF838081C37F7F5D
S11304601E0000F0FCFE0F0301C1FFFEFC80C1C3AF
S113047063723A1E0F07030000000000003838388A
S1130480000000000000383838000000000080C080
S1130490602060C0803F7FC080C07F3F002020E09C
S11304A0E00000008080FFFF808080C06060E0C0CA
S11304B00080C0E0D8CFC3E080406060E0C000C0EE
S11304C0C084868F7D3800000080C0E0003834325C
S11304D031FFFF3000C06060606020C2C3C3838608
S11304E04E3C0080C0406020203E7FC382C67C38E2
S11304F0C060606060E020000080700E0100C0E019
S1130500202020E0C071FB87868EFF7980C06020A8
S113051060C0808387CC48783F0F00000000000053
S1130520000000C0C0000000FC8484FC0008FC0043
S113053088C4A49C4484947C6050FC405894946483
S1130540789494640004F40C6C94946C98A4A47847
S11305500080000000000000000000004F000000C8
S113056000070007000000147F147F1400242A7F72
S11305702A12002313086462003649552240000001
S113058005030000001C224100000041221C000061
S11305900014083E08140008083E080800A0600083
S11305A0000000080808080800606000000000203F
S11305B010080402003E5149453E0000427F4000BD
S11305C0004261514946002141454B310018141243
S11305D07F10002745454539003C4A494930000110
S11305E07109050300364949493600064949291E5F
S11305F0006C6C0000000000563600000008142255
S11306004100002424242424000041221408000270
S11306100151090600324979413E007E1111117ED3
S1130620007F49494936003E41414122007F414112
S1130630221C007F49494941007F09090901003E04
S11306404149493A007F0808087F0000417F410082
S1130650002040413F01007F08142241007F4040B8
S11306604040007F020C027F007F0408107F003EA0
S11306704141413E007F09090906003E4151215E86
S1130680007F091929460046494949310001017F83
S11306900101003F4040403F001F2040201F003F19
S11306A04060403F006314081463000708700807A3
S11306B0006151494543007F414100000015167C0B
S11306C016150041417F00000004020102040040AD
S11306D0404040400001020400000020545454787B
S11306E0007F4444443800384444440000384444BF
S11306F0487F00385454541800107E110102000C35
S11307005252523E007F080404780000447D4000A9
S1130710002040403D00007F102844000000417F3D
S11307204000007C04180478007C08040478003835
S113073044444438007C1414140800081414187C2D
S1130740007C0804040800485454542000043F4426
S11307504020003C4040207C001C2040201C001E07
S11307602010201E00221408142200064848483E87
S1130770004464544C440008364100000000007FEB
S113078000000041360800000008082A1C08007E0A
S11307901111117E007F49494933007F4949493687
S11307A0007F0101010300E0514F41FF007F4949EF
S11307B049410077087F0877004149494936007F5D
S11307C01008047F007C2112097C007F0814224158
S11307D00020413F017F007F020C027F007F080858
S11307E0087F003E4141413E007F0101017F007FBF
S11307F009090906003E414141220001017F01012E
S1130800004728100807001C227F221C00631408DC
S11308101463007F404040FF00070808087F007F02
S1130820407F407F007F407F40FF00017F48483089
S1130830007F4830007F00007F4848300022414953
S1130840493E007F083E413E00462919097F0020A9
S113085054545478003C4A4A4931007C545428008A
S1130860007C0404040C00E0544C44FC0038545450
S11308705418006C107C106C004444545428007CC0
S11308802010087C007C4122117C007C102844004C
S11308900020443C047C007C0810087C007C101080
S11308A0107C003844444438007C0404047C007CFC
S11308B0141414080038444444280004047C040438
S11308C0000C5050503C003048FC48300044281084
S11308D02844007C404040FC000C1010107C007C3C
S11308E0407C407C007C407C40FC00047C505020D8
S11308F0007C5050207C007C505020000028445440
S11309005438007C1038443800085434147C007E79
S11309104B4A4B4200385554551800000609090645
S113092011241FBECFEFD8E0DEBFCDBF11E0A0E0A1
S1130930B1E0EAE6F4E502C005900D92AC3CB107E3
S1130940D9F726E0ACECB1E001C01D92A83EB20795
S1130950E1F70E94CA0F0C94332A0C9400000F9301
S11309601F93CF93DF93C82F0E9400138EEE0E9433
S11309700C138C2F0E940C130E9408130E94001366
S11309808FEE0E940C130E941613C82FD0E00E9411
S11309902013082F10E00E9408139C2F8827800F33
S11309A0911FDF91CF911F910F9108958AEA0E94C0
S11309B0AF0490939B0680939A068CEA0E94AF043E
S11309C09093A3068093A2068EEA0E94AF049093AC
S11309D0B3068093B20680EB0E94AF049093A706FF
S11309E08093A60682EB0E94AF049093A1068093A5
S11309F0A00684EB0E94AF0490939F0680939E060A
S1130A0086EB0E94AF0490939D0680939C0688EB2E
S1130A100E94AF0490939706809396068AEB0E94F7
S1130A20AF0490939906809398068CEB0E94AF04D0
S1130A309093A9068093A8068EEB0E94AF0490932E
S1130A40A5068093A40608950E9400138EEE0E94CA
S1130A500C1384EF0E940C138EE20E940C130E946C
S1130A6008138FE097E20197F1F700C0000086EFCA
S1130A700E94AF04BC0180E090E008950E9400133E
S1130A808EEE0E940C1384EF0E940C1384EF0E94DC
S1130A900C130E9408138FE19BEC0197F1F700C03F
S1130AA000000E9400138EEE0E940C1386EF0E9439
S1130AB00C130E9408130E9400138FEE0E940C1363
S1130AC00E94161390E0A0E0B0E08093AE069093ED
S1130AD0AF06A093B006B093B1060E94161390E03F
S1130AE0A0E0B0E08093AA069093AB06A093AC0676
S1130AF0B093AD060E94201390E0A0E0B0E0809394
S1130B00920690939306A0939406B09395060E9440
S1130B1008134091AE065091AF066091B0067091F3
S1130B20B106BA01552744278091AA069091AB06D5
S1130B30A091AC06B091AD06BA2FA92F982F8827A3
S1130B40480F591F6A1F7B1F80919206909193064C
S1130B50A0919406B0919506840F951FA61FB71F08
S1130B60BC01CD01689414F896958795779567959F
S1130B701694D1F708954F925F926F927F928F925D
S1130B809F92AF92BF92CF92DF92EF92FF920F9318
S1130B901F93CF93DF9300D000D0CDB7DEB70E9470
S1130BA024056B017C010E943E0569837A838B8353
S1130BB09C8380919E0690919F06A7019601281B15
S1130BC0390B41095109A091A006B091A1060E94D8
S1130BD0E1242B013C01032E3FE075946794579464
S1130BE047943A95D1F7302D6091A8067091A906E3
S1130BF0CB01770FAA0BBB0BBC01CD01052E5BE02B
S1130C00660F771F881F991F5A95D1F7502D209191
S1130C10A4063091A5068901330F220B330BA901D9
S1130C209801240D351D461D571D0E94BC24420EFB
S1130C30531E641E751E80EA481A8FE0580A610824
S1130C407108A3019201C301B2010E948A244B01DD
S1130C505C01072E7CE0B594A794979487947A95C9
S1130C60D1F7702DA0919606B0919706A501940135
S1130C700E94EC246B017C010B2EBBE0F594E794FD
S1130C80D794C794BA95D1F7B02DA091A206B0918C
S1130C90A306A30192010E94EC24DC01CB01072EE0
S1130CA07BE0B595A795979587957A95D1F7702DA3
S1130CB0C80ED91EEA1EFB1E80919A0690919B06CF
S1130CC0092E000CAA0BBB0B880F991FAA1FBB1F70
S1130CD0880F991FAA1FBB1FC80ED91EEA1EFB1E30
S1130CE0CC0CDD1CEE1CFF1CA091B206B091B30627
S1130CF00E94EC242B013C01032E3DE07594679483
S1130D00579447943A95D1F7302DA0919C06B09111
S1130D109D06A50194010E94EC24BB2797FDB09584
S1130D20AB2F840D951DA61DB71D0296A11DB11DE7
S1130D30B595A79597958795B595A7959795879513
S1130D409C01AD0130584F4F5F4FA091A606B09162
S1130D50A7060E94E1242B013C01032E3FE0769478
S1130D606794579447943A95D1F7302D29813A8165
S1130D704B815C812C193D094E095F09AAE6B8E153
S1130D800E94E12499235CF0660F771F881F991F46
S1130D90A30192010E949A2429013A010AC0A301E5
S1130DA092010E949A2429013A01440C551C661CA4
S1130DB0771CC301B2010E94EB1F6B017C0120E090
S1130DC030E040E85BE30E94A0209B01AC010E945C
S1130DD0A0200E94B31F9B01AC01AEEDBBE00E94BA
S1130DE0E1240E94EB1F20E030E040E857E30E943A
S1130DF0A0200E94B31F4B015C01A3E4B3EEA30146
S1130E0092010E94EF240E94EB1F20E030E040E8B2
S1130E1057E30E94A0200E94B31FDC01CB01880D80
S1130E20991DAA1DBB1DBC01CD016153714F8F4F8C
S1130E309F4F0E94EB1F20E030E040E85DE30E94FA
S1130E40A0209B01AC01C701B6010E94D01E0E94E4
S1130E50B31F6093CC017093CD018093CE01909326
S1130E60CF010F900F900F900F90DF91CF911F91B2
S1130E700F91FF90EF90DF90CF90BF90AF909F9035
S1130E808F907F906F905F904F9008952FEF83ED38
S1130E9090E3215080409040E1F700C0000087B10A
S1130EA0816087B988B1816088B980E00895BC0108
S1130EB087B1816087B988B18E7F88B988B1816034
S1130EC088B92FEF80E792E0215080409040E1F70D
S1130ED000C0000088B18E7F88B98FE99CE8019733
S1130EE0F1F700C0000088B1816088B987B18E7FB6
S1130EF087B990EA9A95F1F7309938C025ED2A958B
S1130F00F1F7000096B1892F817090FF30C085ED14
S1130F108A95F1F7000080E025C0E4E0F0E0E81BEA
S1130F20F109E60FF71F108290E019C0309BFECF45
S1130F302DE52A95F1F70000309B0EC047E050E004
S1130F40491B510921E030E002C0220F331F4A95AA
S1130F50E2F73081232B20833099FECF9F5F9830B6
S1130F6028F38F5F8530C8F281E0089580E008950A
S1130F70909100016917E0F4909101018917C0F480
S1130F80962F969596959695E82FF0E080E8989F91
S1130F90E00DF11D1124677081E090E002C0880F1C
S1130FA0991F6A95E2F7E457FD4F9081892B80835E
S1130FB00895909100016917E0F490910101891757
S1130FC0C0F4962F969596959695E82FF0E080E8D4
S1130FD0989FE00DF11D112467708EEF90E002C020
S1130FE0880F991F6A95E2F7E457FD4F9081892392
S1130FF08083089582E08A95F1F700C08BB1806206
S11310008BB982E08A95F1F700C08BB18F7D8BB9E3
S113101082E08A95F1F700C008951F93CF93DF9380
S1131020182F8BB180688BB98BB180648BB90E9407
S1131030FA070E94FA070E94FA070E94FA070E9420
S1131040FA078BB18F7B8BB90E94FA078BB180644E
S11310508BB90E94FA078BB18F7B8BB90E94FA0778
S1131060C0E0D0E01CC0CE010497049730F48BB1EB
S11310708F7B8BB90E94FA0711C0812F807841F0D1
S1131080803859F48BB180648BB90E94FA0705C08B
S11310908BB18F7B8BB90E94FA07110F2196CC304C
S11310A0D1050CF38BB18F7B8BB90E94FA070E9498
S11310B0FA070E94FA070E94FA078BB18F778BB95F
S11310C0DF91CF911F9108951F93CF93DF93182F32
S11310D08BB180688BB98BB180648BB90E94FA079D
S11310E00E94FA070E94FA070E94FA070E94FA0770
S11310F08BB18F7B8BB90E94FA078BB18F7B8BB935
S11311000E94FA078BB18F7B8BB90E94FA07C0E06B
S1131110D0E01CC0CE010497049730F48BB18F7BD0
S11311208BB90E94FA0711C0812F807841F0803872
S113113059F48BB180648BB90E94FA0705C08BB156
S11311408F7B8BB90E94FA07110F2196CC30D10501
S11311500CF38BB18F7B8BB90E94FA070E94FA07BC
S11311600E94FA070E94FA078BB18F778BB9DF913F
S1131170CF911F910895882399F084E30E94640815
S11311808FEC97E00197F1F700C0000086E30E941E
S113119064088FEC97E00197F1F700C00000089510
S11311A080E30E9464088FEC97E00197F1F700C098
S11311B0000008958F929F92AF92BF92DF92EF92B8
S11311C0FF920F931F93CF93DF937C01D12C31C1F6
S11311D08FE18D1548F08D2D80680E946408802F62
S11311E080680E94640809C080EE8D0D80680E94AA
S11311F06408802F88680E946408CD2DC695C69522
S1131200C695D0E0CC0FDD1FCC0FDD1FCC0FDD1F4A
S1131210C00FD11DC295D295D07FDC27C07FDC27BB
S1131220CE0DDF1D8880912C1D2D1770012E02C05C
S1131230959487940A94E2F79694982C882497942A
S11312408794A980B12C012E02C0B594A7940A9466
S1131250E2F781E0A822BB240024B694A794079463
S1131260B694A7940794BA2CA02CAA81B0E0012EBE
S113127002C0B595A7950A94E2F7A170BB27AA0FFF
S1131280BB1FA295B295B07FBA27A07FBA27EB8186
S1131290F0E0012E02C0F595E7950A94E2F7E170BB
S11312A0FF27E295F295F07FFE27E07FFE276C8111
S11312B070E0012E02C0759567950A94E2F761709B
S11312C07727660F771F660F771F660F771F4D818D
S11312D050E0012E02C0559547950A94E2F74170FB
S11312E05527440F551F440F551F2E8130E0012E02
S11312F002C0359527950A94E2F721703327220F0F
S1131300331F8F8190E0012E02C0959587950A9432
S1131310E2F7A828AA29EA2B6E2B462B242B8170EE
S1131320822B0E940D088884912C012E02C0959472
S113133087940A94E2F79694982C88249794879437
S1131340A984B12C012E02C0B594A7940A94E2F7A3
S113135081E0A822BB240024B694A7940794B694F1
S1131360A7940794BA2CA02CAA85B0E0012E02C041
S1131370B595A7950A94E2F7A170BB27AA0FBB1FE6
S1131380A295B295B07FBA27A07FBA27EB85F0E08B
S1131390012E02C0F595E7950A94E2F7E170FF2764
S11313A0E295F295F07FFE27E07FFE276C8570E0E2
S11313B0012E02C0759567950A94E2F7617077274C
S11313C0660F771F660F771F660F771F4D8550E0F6
S11313D0012E02C0559547950A94E2F741705527AE
S11313E0440F551F440F551F2E8530E0012E02C0B7
S11313F0359527950A94E2F721703327220F331F7E
S1131400CF85D0E002C0D595C7951A95E2F7882D0F
S11314108A298A2B8E2B862B842B822BC1708C2BB2
S11314200E940D080F5F01C000E0083008F4D0CE20
S1131430D3948FE38D15C0F7DF91CF911F910F9156
S1131440FF90EF90DF90BF90AF909F908F900895A2
S113145081E00E9464088FE19EE40197F1F700C0E7
S1131460000008952FEF89EF90E0215080409040D4
S1131470E1F700C000008CE00E94640887EC90E073
S11314800197F1F700C000000E94280A86E00E943C
S113149064088FE19EE40197F1F700C0000008950D
S11314A020E030E02AC04423A1F0FB01EE0FFF1F2F
S11314B0E60FF71FEE0FFF1FE20FF31FEC5AFA4F70
S11314C05491F901E80FF91FE557FD4F50955083EA
S11314D012C0FB01EE0FFF1FE60FF71FEE0FFF1FF9
S11314E0E20FF31FEC5AFA4F5491FC01E20FF31F81
S11314F0E557FD4F50832F5F3F4F273031059CF256
S1131500089520E030E026C0442391F0FB01EE0F63
S1131510FF1FEE0FFF1FE20FF31FE85DFA4F549118
S1131520F901E80FF91FE557FD4F5095508310C09E
S1131530FB01EE0FFF1FEE0FFF1FE20FF31FE85D2D
S1131540FA4F5491FC01E20FF31FE557FD4F50830E
S11315502F5F3F4F24303105BCF2089520E030E086
S113156028C0442399F056E1569FF001579FF00D8F
S11315701124E20FF31FE456FC4F5491F901E80FD4
S1131580F91FE557FD4F5095508311C056E1569F02
S1131590F001579FF00D1124E20FF31FE456FC4FA6
S11315A05491FC01E20FF31FE557FD4F50832F5F69
S11315B03F4F2B303105ACF28B589F4F2BE030E07E
S11315C028C0442399F056E1569FF001579FF00D2F
S11315D01124E20FF31FE456FC4F5491FC01E20F77
S11315E0F31FE557FD4F5095508311C056E1569FA8
S11315F0F001579FF00D1124E20FF31FE456FC4F46
S11316005491FC01E20FF31FE557FD4F50832F5F08
S11316103F4F26313105ACF2089520E030E034C06C
S11316204423C9F0DB01AA0FBB1FFD01EE0FFF1F0E
S1131630EE0FFF1FEE0FFF1FEA1BFB0BE20FF31F62
S1131640E257FB4F5491F901E80FF91FE557FD4F9D
S11316505095508317C0DB01AA0FBB1FFD01EE0F8D
S1131660FF1FEE0FFF1FEE0FFF1FEA1BFB0BE20F26
S1131670F31FE257FB4F5491FC01E20FF31FE557B0
S1131680FD4F50832F5F3F4F273031054CF2875871
S11316909F4F27E030E034C04423C9F0DB01AA0F98
S11316A0BB1FFD01EE0FFF1FEE0FFF1FEE0FFF1F0D
S11316B0EA1BFB0BE20FF31FE257FB4F5491FC01B3
S11316C0E20FF31FE557FD4F5095508317C0DB0120
S11316D0AA0FBB1FFD01EE0FFF1FEE0FFF1FEE0F42
S11316E0FF1FEA1BFB0BE20FF31FE257FB4F549162
S11316F0FC01E20FF31FE557FD4F50832F5F3F4F6F
S11317002E3031054CF20895DF92EF92FF920F9341
S11317101F93CF93DF93D42E79018C0120E8629F2D
S1131720000D111D1124C0E0D0E02BC0F701EC0F17
S1131730FD1F608170E0DD2089F06E32710539F0A3
S11317406053710941E0C8010E940D0B17C041E0CC
S11317506AE070E0C8010E940D0B10C06E32710582
S113176039F06053710940E0C8010E940D0B06C0B6
S113177040E06AE070E0C8010E940D0B085F1F4F53
S11317802196F70101900020E9F73197EE19FF093E
S1131790CE17DF0758F2DF91CF911F910F91FF9081
S11317A0EF90DF900895DF92EF92FF920F931F93D3
S11317B0CF93DF93D42E79018C0120E8629F000D32
S11317C0111D1124C0E0D0E02BC0F701EC0FFD1F68
S11317D0608170E0DD2089F06E32710539F060536C
S11317E0710941E0C8010E94810A17C041E06AE022
S11317F070E0C8010E94810A10C06E32710539F090
S11318006053710940E0C8010E94810A06C040E0AB
S11318106AE070E0C8010E94810A0B5F1F4F2196A5
S1131820F70101900020E9F73197EE19FF09CE176F
S1131830DF0758F2DF91CF911F910F91FF90EF9046
S1131840DF900895DF92EF92FF920F931F93CF934F
S1131850DF93D42E79018C0120E8629F000D111DC5
S11318601124C0E0D0E017C0F701EC0FFD1F608128
S113187070E0DD2039F06053710941E0C8010E9435
S1131880AE0A06C06053710940E0C8010E94AE0A66
S1131890045F1F4F2196F70101900020E9F731976B
S11318A0EE19FF09CE17DF07F8F2DF91CF911F91F0
S11318B00F91FF90EF90DF900895BF92CF92DF9247
S11318C0EF92FF920F931F93CF93DF93B42E79017E
S11318D08C0120E8629F000D111D1124C12CD12C14
S11318E079C0F701EC0DFD1DC081C03CD0F4C83AAD
S11318F0C1F0C83BB1F0C03BA1F06C2F70E0BB203D
S113190039F06052710941E0C8010E94500A06C0D2
S11319106052710940E0C8010E94500A0A5F1F4FDB
S113192056C0D0E0CE01805C91098034910598F4D2
S1131930BB2041F041E0BE0161567109C8010E941B
S1131940500A07C040E0BE0161567109C8010E94F7
S1131950500A0A5F1F4FC83AD10589F4BB2039F0F9
S113196041E06FE970E0C8010E94500A06C040E0FF
S11319706FE970E0C8010E94500A0A5F1F4FC83B1C
S1131980D10589F4BB2039F041E060EA70E0C80178
S11319900E94500A06C040E060EA70E0C8010E945C
S11319A0500A0A5F1F4FC03BD10589F4BB2039F0B0
S11319B041E061EA70E0C8010E94500A06C040E0BC
S11319C061EA70E0C8010E94500A0A5F1F4F8FEF5E
S11319D0C81AD80AF70101900020E9F73197EE19E7
S11319E0FF09CE16DF0608F47CCFDF91CF911F915B
S11319F00F91FF90EF90DF90CF90BF900895A0E0FB
S1131A00B0E020E030E01BC0BD017695762F66275C
S1131A1077956795CB014F960BC0F901E456FE4FBD
S1131A204491FC01E457FD4F40832F5F3F4F0196E3
S1131A30AB01415A5F4F841795077CF31196A83088
S1131A40B10514F3089580E094E0ECE8F2E0DF01DE
S1131A509C011D9221503040E1F708958F929F928E
S1131A60AF92BF92CF92DF92EF92FF920F931F93A8
S1131A70CF93DF93C82FD62FB42E822E481728F089
S1131A80C42ED12CC81AD10804C0C82ED12CC41A13
S1131A90D1088D1628F0E82CF12CED1AF10804C0B9
S1131AA0ED2EF12CE818F108CB1518F4AA24A39410
S1131AB002C0AA24AA94D81518F49924939402C0B5
S1131AC099249A9486010E191F096D2F8C2F0E9458
S1131AD0B807CB1102C0D815A1F0C801880F991F0F
S1131AE0222733272E193F09281739071CF40E190A
S1131AF01F09CA0D8C159D0544F70C0D1D1DD90D2C
S1131B00E4CFDF91CF911F910F91FF90EF90DF9081
S1131B10CF90BF90AF909F908F900895EF92FF92D7
S1131B200F931F93CF93DF937C018B01E9019C01F9
S1131B30240F351F8091010190E02817390718F010
S1131B40AC014E195F098091000190E098012C0FBF
S1131B503D1F2817390718F0EC01C01BD10BDE2DEF
S1131B60D40F202F4D2F602F8E2D0E942E0DC00FCD
S1131B702C2F4D2F6C2F8E2D0E942E0D2C2F4E2D81
S1131B80602F8E2D0E942E0D2C2F4D2F602F8D2F08
S1131B900E942E0DDF91CF911F910F91FF90EF9036
S1131BA00895AF92BF92CF92DF92EF92FF920F937C
S1131BB01F93CF938C016B015A0179019C01240F6F
S1131BC0351F8091010190E02817390718F05C0156
S1131BD0A01AB10A8091000190E096012E0D3F1DDC
S1131BE02817390718F07C01EC18FD08C0E009C07B
S1131BF06C2F6C0D262F402F4A0D802F0E942E0D26
S1131C00CF5F8C2F90E0E816F90690F7CF911F91E3
S1131C100F91FF90EF90DF90CF90BF90AF90089519
S1131C205F926F927F928F929F92AF92BF92CF9268
S1131C30DF92EF92FF920F931F93CF93DF93782E4F
S1131C40662EC42F042F10E081E090E06C01C01ACE
S1131C50D10AAA24BB24A01AB10AAA0CBB1C642F63
S1131C60660D872D0E94B807662D6C1B872D0E9478
S1131C70B807662D8C2F870D0E94B807662D872D17
S1131C808C1B0E94B807C0E0D0E088248394912C78
S1131C903FC0DD203CF00150110982E0A80EB11CC8
S1131CA0CA0CDB1C219682E0880E911CC80CD91C3E
S1131CB05C2E570CF62CF00E6F2D852D0E94B80764
S1131CC0E72CEC1A6F2D8E2D0E94B807F62CF01A13
S1131CD06F2D852D0E94B8076F2D8E2D0E94B80799
S1131CE0FC2EF60C6F2DE72CE00E8E2D0E94B8070B
S1131CF06F2DF72CF01A8F2D0E94B807562C5C1A02
S1131D00652D8E2D0E94B807652D8F2D0E94B80772
S1131D10C017D1070CF4BDCFDF91CF911F910F9164
S1131D20FF90EF90DF90CF90BF90AF909F908F90F7
S1131D307F906F905F900895E1E8F0E08081886083
S1131D408083AFE6B0E08C9182608C938AE78093C5
S1131D50890082E180938800808185608083089572
S1131D6085B5826085BD84E687BD85B5826085BD05
S1131D70EEE6F0E080818260808308951F920F92E6
S1131D800FB60F9211242F933F934F935F936F934A
S1131D907F938F939F93AF93BF93EF93FF93809120
S1131DA08202882309F44CC080917802882309F4C4
S1131DB047C080915002882309F442C080911E02DA
S1131DC08823F1F1809128028823D1F18091460281
S1131DD08823B1F182E892E09F938F9385E091E0AC
S1131DE09F938F938CEE91E09F938F930E947F2615
S1131DF060E572E08CEE91E00E9424266EE172E0D0
S1131E008CEE91E00E94242668E772E08CEE91E06B
S1131E100E94242668E272E08CEE91E00E9424265F
S1131E2066E472E08CEE91E00E9424268CEE91E050
S1131E300E9440130F900F900F900F900F900F90EF
S1131E40FF91EF91BF91AF919F918F917F916F918E
S1131E505F914F913F912F910F900FBE0F901F9064
S1131E6018951F920F920FB60F9211248F939F9380
S1131E7083B182958695869583709091D001982B35
S1131E80943071F018F4913029F00FC09B3041F078
S1131E909E3059F49091D1019F5F9093D10105C078
S1131EA09091D10191509093D101880F880F809324
S1131EB0D0018091D10186301CF01092D10105C06F
S1131EC08F3F1CF484E08093D1019F918F910F90F8
S1131ED00FBE0F901F90189585B7886085BF8DB38E
S1131EE082608DBB08951F920F920FB60F9211243A
S1131EF08F938091D201813039F48091D101843063
S1131F0019F41092D20103C081E08093D2018F9121
S1131F100F900FBE0F901F90189584B18E6284B9F4
S1131F2085B1837D85B98AB18B7F8AB98BB1846091
S1131F308BB985B1846085B980E58CBD08958AB17B
S1131F4080618AB98BB18F7E8BB98AB180688AB976
S1131F508BB18F778BB98AB180628AB98BB18F7D4F
S1131F608BB98AB180648AB98BB18F7B8BB98AB102
S1131F70877F8AB984B18E7F84B98BB188608BB92D
S1131F8085B18F7385B908958EBD0DB407FEFDCF5D
S1131F908EB508950E949F0F8BB180618BB90E940A
S1131FA08D0F0E94FC1288E090E00E942A130E9488
S1131FB0320A81E00E94BB080E94230D8CE892E063
S1131FC00E94DA0880E00E94BB088CE892E00E943C
S1131FD05B130E9494120E94EB120E9446070E9417
S1131FE0D6048CE892E00E9485138BB18F7E8BB966
S1131FF0F8940E949C0E0E94B00E82E080936900C7
S113200081E08DBB0E946C0F78948091D201811184
S113201005C08CE892E00E94921CF7CF8CE892E015
S11320200E94CD132FEF84E39CE021508040904028
S1132030E1F700C00000E9CFCF93DF9380918C06D5
S1132040813009F063C180918D06813009F059C057
S1132050E2E8F2E001900020E9F73197AF0142583D
S11320605240440F551F60E070E082E892E00E9405
S11320701D26EDE8F6E08181C281D0E0DC2FCC277B
S1132080C82BBE010D2E000C880B990B0E94EB1F70
S113209020E030E040E251E40E94411F6093DE0101
S11320A07093DF018093E0019093E101DD235CF400
S11320B0DC01CB01B0588093DE019093DF01A09343
S11320C0E001B093E1018091E1018F938091E001FF
S11320D08F938091DF018F938091DE018F9389E04C
S11320E091E09F938F9382E892E09F938F930E9455
S11320F07F268DB79EB708960FB6F8949EBF0FBE85
S11321008DBF80918D06853009F03FC0C8E7D2E0CD
S1132110FE0101900020E9F73197AF014857524082
S1132120440F551F60E070E0CE010E941D26EDE8CB
S1132130F6E08181628170E0762F6627682B072E96
S1132140000C880B990B0E94EB1F20E030E040E26A
S113215051E40E94411F6093DA017093DB01809384
S1132160DC019093DD010E94B31F7F936F938CEA8F
S113217091E09F938F93DF93CF930E947F260F90DC
S11321800F900F900F900F900F90C0918D06C2305A
S113219061F5EAE5F2E001900020E9F73197AF013B
S11321A04A555240440F551F60E070E08AE592E0C2
S11321B00E941D2620E00BC0822F90E0FC01E25714
S11321C0F94F3081FC01E65AFD4F30832F5F822F97
S11321D090E0EDE8F6E001900020E9F73197ED5842
S11321E0F64031978E179F0738F3C33089F5E6E43C
S11321F0F2E001900020E9F73197AF0146545240D4
S1132200440F551F60E070E086E492E00E941D26B2
S113221020E00BC0822F90E0FC01E257F94F30819F
S1132220FC01EA5BFD4F30832F5F822F90E0EDE8E5
S1132230F6E001900020E9F73197ED58F640319728
S11322408E179F0738F3FC01E95BFD4F80E2808322
S1132250C43061F5ECE3F2E001900020E9F7319736
S1132260AF014C535240440F551F60E070E08CE3C3
S113227092E00E941D2620E00BC0822F90E0FC011A
S1132280E257F94F3081FC01E45CFD4F30832F5F4E
S1132290822F90E0EDE8F6E001900020E9F7319715
S11322A0ED58F64031978E179F0738F3C63061F525
S11322B0E2E3F2E001900020E9F73197AF014253E5
S11322C05240440F551F60E070E082E392E00E94A8
S11322D01D2620E00BC0822F90E0FC01E257F94F4D
S11322E03081FC01EE5CFD4F30832F5F822F90E044
S11322F0EDE8F6E001900020E9F73197ED58F6405B
S113230031978E179F0738F310928C06DF91CF9187
S1132310089585B18B7F85B982EE90E00E94C40F49
S113232082E08A95F1F700C085B1846085B908958B
S113233085B18B7F85B981EE90E00E94C40F82E065
S11323408A95F1F700C085B1846085B9089585B197
S11323508B7F85B980E590E00E94C40F82E08A9566
S1132360F1F700C083E790E00E94C40F85B1846058
S113237085B90895EF92FF920F931F93CF93DF9344
S11323808B01C42F95B19B7F95B990E00E94C40F37
S11323900CC078018FEFE81AF80A8FEF90E00E94E2
S11323A0C40FF8018083CD2F8701DFEFDC0FC1114B
S11323B0F0CF85B1846085B9DF91CF911F910F91E2
S11323C0FF90EF900895EF92FF920F931F93CF9396
S11323D0DF938B01C42F806295B19B7F95B990E008
S11323E00E94C40F82E08A95F1F700C00BC0780107
S11323F0EFEFEE1AFE0AF801808190E00E94C40F0C
S1132400CD2F8701DFEFDC0FC111F1CF85B18460DF
S113241085B9DF91CF911F910F91FF90EF900895AF
S1132420CF93C62F806295B19B7F95B990E00E94AF
S1132430C40F8C2F90E00E94C40F85B1846085B9CD
S1132440CF910895CF93C82F85B18B7F85B98C2FF9
S113245090E00E94C40FC73021F08FEF90E00E94FB
S1132460C40F95B1946095B9CF9108951F920F92BE
S11324700FB60F9211242F933F934F935F936F9353
S11324807F938F939F93AF93BF93EF93FF9387E5CE
S113249092E00197F1F700C000008BB180618BB925
S11324A087E592E00197F1F700C000008BB18F7EC1
S11324B08BB987E00E94221286FF0AC045E06DE8CE
S11324C076E081E60E94BA1160E487E00E9410126F
S11324D081E080938C060E941C10FF91EF91BF91C4
S11324E0AF919F918F917F916F915F914F913F91A8
S11324F02F910F900FBE0F901F90189580E00E94AF
S11325002212682F636080E00E94101285B18260FD
S113251085B98BE291E00197F1F700C000000E94B9
S113252089110E949811089585B18D7F85B98FE036
S113253097E20197F1F700C000006AE080E00E9492
S113254010128FE097E20197F1F700C0000062E0FB
S113255081E00E94101262E082E00E94101261E0A9
S113256083E00E9410126FE584E00E9410120E9422
S1132570A71160E08DE10E94101260E08CE10E94DE
S1132580101260E787E00E9410126CE485E00E945C
S1132590101266E086E00E94101243E062E071E0EF
S11325A080E10E94E31143E062E071E08BE00E946D
S11325B0E31165E082E10E9410120E947E120895E8
S11325C0982F92959F70990F292F220F220F920F07
S11325D08F70890F08950E94001380ED0E940C13E0
S11325E08EE00E940C1380E20E940C1388E00E948B
S11325F00C130E940813089580E28093B800089594
S113260084EA8093BC008091BC008823E4F7089599
S113261084E98093BC0008958093BB0084E8809390
S1132620BC008091BC008823E4F7089584EC809377
S1132630BC008091BC008823E4F78091BB0008951E
S113264084E88093BC008091BC008823E4F78091E7
S1132650BB0008959093C5008093C400E1ECF0E0C2
S113266088E18083808180688083E0ECF0E0808171
S113267082608083E2ECF0E080818E608083089544
S1132680DC0180E00BC09091C00095FFFCCFFD0100
S1132690E20FF31F90819093C6008F5F282F30E0E4
S11326A0FD0101900020E9F73197EA1BFB0B2E177F
S11326B03F0748F30895CF93DF93EC0181E00E9434
S11326C0BB080E94FF0C2EE031E040E060E088E2AD
S11326D090E00E945D0C27E131E040E067E08EE18C
S11326E090E00E945D0CCE010E94DA0880E00E9416
S11326F0BB082FEF8DE399E4215080409040E1F72F
S113270000C00000DF91CF9108950F931F93CF93E2
S11327108C0181E00E94BB080E94230D2FE030E071
S113272040E750E063E270E086E090E00E948E0DA6
S113273024E231E040E061E083E090E00E945D0C3F
S11327402AE331E040E063E080E190E00E945D0C28
S1132750C8010E94DA08C8E017C02BE030E049E065
S113276050E065E270E08C2F90E00E94D10DC8012A
S11327700E94DA082FEF84E39CE0215080409040CF
S1132780E1F700C00000C55FC53738F380E00E9460
S1132790BB08CF911F910F910895CF93DF93EC0164
S11327A081E00E94BB080E94230D8091D1018230F8
S11327B0E9F08430A1F181114AC02BE631E041E017
S11327C060E08FE090E00E945D0C23E731E040E0A0
S11327D061E08FE090E00E945D0C25E831E040E08C
S11327E062E08FE090E00E945D0C31C02BE631E0A6
S11327F040E060E08FE090E00E945D0C23E731E070
S113280041E061E08FE090E00E945D0C25E831E05A
S113281040E062E08FE090E00E945D0C18C02BE67F
S113282031E040E060E08FE090E00E945D0C23E73F
S113283031E040E061E08FE090E00E945D0C25E82B
S113284031E041E062E08FE090E00E945D0CCE0157
S11328500E94DA0880E00E94BB08DF91CF910895BE
S113286029E34AE669E38AE50E942E0D68E389E5D7
S11328700E94B80767E388E50E94B80766E387E526
S11328800E94B80765E387E50E94B80764E387E51B
S11328900E94B80763E388E50E94B80762E389E50C
S11328A00E94B80762E38AE50E94B80762E38BE5F9
S11328B00E94B80762E38CE50E94B80763E38EE5E3
S11328C00E94B80762E38DE50E94B80761E38CE5D6
S11328D00E94B80760E38CE50E94B8076FE28CE5BC
S11328E00E94B8076EE28CE50E94B8076DE28DE5A0
S11328F00E94B8076CE28EE50E94B8076CE28FE58F
S11329000E94B8076CE280E60E94B8076CE281E698
S11329100E94B8076CE282E60E94B8076CE283E684
S11329200E94B8076CE284E60E94B8076DE285E66F
S11329300E94B8076EE286E60E94B8076FE286E658
S11329400E94B80760E386E60E94B80761E385E663
S11329500E94B80760E386E60E94B80760E387E652
S11329600E94B80760E388E60E94B80760E389E63E
S11329700E94B80768E38BE60E94B80767E38CE619
S11329800E94B80766E38DE60E94B80765E38DE60A
S11329900E94B80764E38DE60E94B80763E38DE6FE
S11329A00E94B80762E38CE60E94B80761E38BE6F5
S11329B00E94B80760E38AE60E94B80727E349E764
S11329C067E38EE60E942E0D66E38AE70E94B8074D
S11329D065E38AE70E94B80764E38AE70E94B807C0
S11329E063E38AE70E94B80762E389E70E94B807B5
S11329F061E388E70E94B80761E387E70E94B807AC
S1132A0061E386E70E94B80762E385E70E94B8079E
S1132A1060E386E70E94B8076FE286E70E94B80782
S1132A206EE285E70E94B8076EE284E70E94B80769
S1132A306EE283E70E94B8076EE282E70E94B8075D
S1132A406FE281E70E94B80760E381E70E94B8075C
S1132A5061E381E70E94B80762E382E70E94B80756
S1132A6061E380E70E94B80761E38FE60E94B8073C
S1132A7062E38EE60E94B8072DE349E56BE38BE53C
S1132A800E942E0D2DE34CE56BE38EE50E942E0D86
S1132A902DE34FE56BE381E60E942E0D2DE342E624
S1132AA06BE384E60E942E0D2DE345E66BE387E697
S1132AB00E942E0D2DE348E66BE38AE60E942E0D5C
S1132AC02AE34EE669E38FE60E942E0D2AE341E7EE
S1132AD069E382E70E942E0D2AE344E769E385E770
S1132AE00E942E0D2AE347E769E388E70E942E0D32
S1132AF0089549E064E38BE00E94100E6CE28BE0E1
S1132B000E94D9076CE28AE00E94D9076CE289E04E
S1132B100E94D9076CE288E00E94D9076CE28CE03D
S1132B200E94D9076CE28DE00E94D9076CE28EE026
S1132B300E94D9076BE289E00E94B8076CE289E041
S1132B400E94B8076DE289E00E94B8076AE289E052
S1132B500E94B80769E289E00E94B8076AE28AE045
S1132B600E94B8076BE28BE00E94B8076CE28CE02D
S1132B700E94B8076BE28DE00E94B8076CE28DE01A
S1132B800E94B8076DE28DE00E94B8076AE28DE00A
S1132B900E94B80769E28DE00E94B8076DE38BE0FC
S1132BA00E94D9076DE38AE00E94D9076DE389E0AA
S1132BB00E94D9076DE388E00E94D9076DE38CE099
S1132BC00E94D9076DE38DE00E94D9076DE38EE082
S1132BD00E94D9076CE389E00E94B8076FE389E09B
S1132BE00E94B8076DE38AE00E94B8076BE38AE0AD
S1132BF00E94B8076FE38AE00E94B8076DE38BE098
S1132C000E94B8076BE38BE00E94B8076FE38BE088
S1132C100E94B8076DE38CE00E94B8076BE38CE078
S1132C200E94B8076FE38CE00E94B8076EE38DE062
S1132C300E94B8076BE38DE00E94B80764E384E167
S1132C400E94D90765E384E10E94D90766E384E121
S1132C500E94D90767E383E10E94D90760E383E117
S1132C600E94B80763E384E10E94D90762E384E128
S1132C700E94D90764E384E10E94B80762E384E117
S1132C800E94B80766E384E10E94B80764E385E123
S1132C900E94B80762E385E10E94B80766E385E114
S1132CA00E94B80764E386E10E94B80762E386E104
S1132CB00E94B80766E386E10E94B80764E383E1F3
S1132CC00E94B80762E383E10E94B80766E383E1E8
S1132CD00E94B80764E382E10E94B80765E382E1D9
S1132CE00E94B80766E382E10E94B80763E382E1C9
S1132CF00E94B80762E382E10E94B80764E382E0BD
S1132D000E94D90765E382E00E94D90766E382E066
S1132D100E94D90767E383E00E94D90760E383E058
S1132D200E94B80763E382E00E94D90762E382E06D
S1132D300E94D90764E382E00E94B80765E382E059
S1132D400E94B80766E383E00E94B80764E384E066
S1132D500E94B80765E384E00E94B80763E384E057
S1132D600E94B80762E384E00E94B80766E381E04A
S1132D700E94B80764E380E00E94B80765E380E03E
S1132D800E94B80763E380E00E94B80762E380E032
S1132D900E94B80764E38BE00E94B80767E971E01A
S1132DA086E492E00E942F26892B09F041C065E356
S1132DB08AE00E94B80766E38AE00E94B80765E3E8
S1132DC08CE00E94B80766E38CE00E94B80763E3D6
S1132DD08BE00E94B80762E38BE00E94B80761E3CE
S1132DE08BE00E94B80760E38BE00E94B8076FE2B3
S1132DF08BE00E94B8076EE28BE00E94B8076FE296
S1132E008AE00E94B8076FE28CE00E94B80760E392
S1132E108AE00E94B80760E389E00E94B80760E393
S1132E208CE00E94B80760E38DE00E94B807089523
S1132E3069E971E086E492E00E942F26892B09F06B
S1132E4041C062E38AE00E94B80763E38AE00E941B
S1132E50B80762E38CE00E94B80763E38CE00E9449
S1132E60B80765E38BE00E94B80766E38BE00E9435
S1132E70B80767E38BE00E94B80768E38BE00E9421
S1132E80B80769E38BE00E94B8076AE38BE00E940D
S1132E90B80769E38AE00E94B80769E38CE00E94FE
S1132EA0B80768E38AE00E94B80768E389E00E94F3
S1132EB0B80768E38CE00E94B80768E38DE00E94DD
S1132EC0B80708956DE971E086E492E00E942F2628
S1132ED0892B09F041C063E389E00E94B80763E3EA
S1132EE08AE00E94B80765E389E00E94B80765E3B9
S1132EF08AE00E94B80764E38CE00E94B80764E3A8
S1132F008DE00E94B80764E38EE00E94B80764E392
S1132F108FE00E94B80764E380E10E94B80764E38D
S1132F2081E10E94B80763E380E10E94B80765E38A
S1132F3080E10E94B80765E38FE00E94B80766E36A
S1132F408FE00E94B80763E38FE00E94B80762E352
S1132F508FE00E94B807089561EA71E086E492E088
S1132F600E942F26892B09F041C063E38DE00E9463
S1132F70B80763E38CE00E94B80765E38DE00E9424
S1132F80B80765E38CE00E94B80764E38AE00E9416
S1132F90B80764E389E00E94B80764E388E00E940C
S1132FA0B80764E387E00E94B80764E386E00E9400
S1132FB0B80764E385E00E94B80763E386E00E94F3
S1132FC0B80765E386E00E94B80765E387E00E94DE
S1132FD0B80766E387E00E94B80763E387E00E94CE
S1132FE0B80762E387E00E94B80708956BE971E0CF
S1132FF086E492E00E942F26892BB9F563E38AE0E8
S11330000E94B80764E389E00E94B80765E38CE096
S11330100E94B80766E38BE00E94B8072FE240E104
S113302064E38BE00E942E0D6FE28FE00E94B807EC
S11330306FE28EE00E94B8076FE28DE00E94B8074D
S113304060E38EE00E94B80760E380E10E94B80765
S113305061E380E10E94B80761E38FE00E94B80752
S113306062E380E10E94B80708956FE971E086E4A5
S113307092E00E942F26892BB9F563E38CE00E942D
S1133080B80764E38DE00E94B80765E38AE00E9414
S1133090B80766E38BE00E94B8072FE246E064E3DA
S11330A08BE00E942E0D6FE287E00E94B8076FE26A
S11330B088E00E94B8076FE289E00E94B80760E3E5
S11330C088E00E94B80760E386E00E94B80761E3E5
S11330D086E00E94B80762E386E00E94B80761E3D5
S11330E087E00E94B807089563EA71E086E492E0FD
S11330F00E942F26892BB9F562E38BE00E94B80762
S113310063E38CE00E94B80765E38AE00E94B80795
S113311064E389E00E94B80729E340E164E38BE0BB
S11331200E942E0D68E380E10E94B80769E38FE0F6
S11331300E94B80767E38FE00E94B80767E380E165
S11331400E94B80766E380E10E94B80768E38EE056
S11331500E94B80769E38EE00E94B80769E38DE036
S11331600E94B807089567EA71E086E492E00E943D
S11331702F26892BB1F562E38BE00E94B80763E345
S11331808AE00E94B80764E38DE00E94B80765E313
S11331908CE00E94B80729E346E064E38BE00E94D8
S11331A02E0D68E386E00E94B80767E386E00E947C
S11331B0B80767E387E00E94B80766E386E00E94E9
S11331C0B80769E387E00E94B80769E388E00E94D2
S11331D0B80768E388E00E94B80769E389E00E94C1
S11331E0B80708950E94001380ED0E940C1380E03C
S11331F00E940C130E9408130E94001381ED0E9488
S11332000C130E9416130E94E0128093E0060E94A1
S113321016130E94E0128093DA060E9416130E948D
S1133220E0128093D3060E9416130E94E01280934A
S1133230E4060E9416130E94E0128093E6060E94A0
S113324016130E94E0128093D2060E9420130E945B
S1133250E0128093DF060E9408138091E0068A3012
S113326098F41F928F938BEA91E09F938F9381EC54
S113327096E09F938F930E947F260F900F900F905C
S11332800F900F900F9012C01F928F938CEA91E0D1
S11332909F938F9381EC96E09F938F930E947F2658
S11332A00F900F900F900F900F900F908091DA066F
S11332B08A3098F41F928F938BEA91E09F938F93B7
S11332C086EC96E09F938F930E947F260F900F9039
S11332D00F900F900F900F9012C01F928F938CEA53
S11332E091E09F938F9386EC96E09F938F930E9437
S11332F07F260F900F900F900F900F900F9080915A
S1133300D3068A3098F41F928F938BEA91E09F93AF
S11333108F938AEC96E09F938F930E947F260F9061
S11333200F900F900F900F900F9012C01F928F93D9
S11333308CEA91E09F938F938AEC96E09F938F930E
S11333400E947F260F900F900F900F900F900F9078
S11333508091E6068A3098F41F928F938BEA91E06D
S11333609F938F938BED96E09F938F930E947F267C
S11333700F900F900F900F900F900F9012C01F920C
S11333808F938CEA91E09F938F938BED96E09F93BC
S11333908F930E947F260F900F900F900F900F90A5
S11333A00F90E091E4068E2F90E0FC013197E73016
S11333B0F105D8F5EC5CFF4F0C94DB24EEECF6E061
S11333C08FEC9DEE9183808312822FC0EEECF6E0A9
S11333D082EC92EF91838083128227C0EEECF6E0B8
S11333E081ED90EF9183808312821FC0EEECF6E0B2
S11333F087ED92EF91838083128217C0EEECF6E0A2
S11334008FEC92EF9183808312820FC0EEECF6E092
S113341081ED91EE91838083128207C0EEECF6E099
S113342082EC91EF918380831282E091D2068E2FF9
S113343090E0FC013197EC30F10508F087C0E55CC1
S1133440FF4F0C94DB24E4EDF6E08FED9DEE9183C9
S1133450808382EE90E0938382830895E4EDF6E026
S113346084ED95EE9183808382EE90E09383828352
S11334700895E4EDF6E08CEC90EE9183808380EF88
S113348090E0938382830895E4EDF6E080EC9FEE70
S11334909183808380EF90E0938382830895E4EDA9
S11334A0F6E08CEC90EE9183808389EE90E0938338
S11334B082830895E4EDF6E088EC9EEF91838083A7
S11334C08DEE90E0938382830895E4EDF6E088EC3A
S11334D09EEF918380838BEE90E0938382830895A3
S11334E0E4EDF6E080EC92EE9183808383EE90E04D
S11334F0938382830895E4EDF6E081ED95EE918364
S113350080838DEE90E0938382830895E4EDF6E06A
S11335108EEC9AEE9183808382EF90E09383828392
S11335200895E4EDF6E08DEC9EEE918380838FEFB9
S113353090E0938382830895E4EDF6E084EC95EEC5
S1133540918380838AEE90E0938382830895CF935E
S1133550DF9300D0CDB7DEB7FC0120812223A1F098
S11335609E012F5F3F4F3F932F932CEA31E03F930F
S11335702F939F938F930E94A1260F900F900F90EB
S11335800F900F900F9002C01A82198269817A817C
S1133590CB01880F991F680F791F072E000C880B29
S11335A0990B0E94EB1F2DEC3CEC4CE150E40E9483
S11335B0A02020E030E040EA55E40E94411F0F9033
S11335C00F90DF91CF910895CF93DF9300D0CDB7C3
S11335D0DEB7FC0120812223A1F09E012F5F3F4F23
S11335E03F932F932CEA31E03F932F939F938F9334
S11335F00E94A1260F900F900F900F900F900F90A4
S113360002C01A82198269817A81072E000C880B04
S1133610990B0E94EB1F2DEC3CEC4CE150E40E9412
S1133620A02020E030E040E450E40E94A02020E00C
S113363030E040E85AE30E94A0200F900F90DF9101
S1133640CF9108952CE148E26CE182E20E942E0DB4
S11336502BE142E263E182E20E942E0D2BE148E27B
S113366063E188E20E942E0D23E144E263E182E2F9
S11336700E942E0D23E148E263E186E20E942E0DB2
S113368023E144E262E184E20E942E0D23E146E25A
S113369062E186E20E942E0D22E146E262E184E2CA
S11336A00E942E0D8CE392E00E94E41A20E030E0A8
S11336B040E850E40E949B2088232CF12AE146E252
S11336C06AE184E20E942E0D29E146E269E184E286
S11336D00E942E0D28E146E268E184E20E942E0D4C
S11336E027E146E267E184E20E942E0D26E146E2EC
S11336F066E184E20E942E0D25E146E265E184E262
S11337000E942E0D08958CE392E00E94E41A2AE9A7
S113371039E949E750E40E949B2088235CF18CE35B
S113372092E00E94E41A20E030E040E850E40E9475
S11337303C1F8823FCF42AE146E26AE184E20E9409
S11337402E0D29E146E269E184E20E942E0D28E172
S113375046E268E184E20E942E0D27E146E267E139
S113376084E20E942E0D26E146E266E184E20E9494
S11337702E0D08958CE392E00E94E41A23E333E3D0
S113378043E750E40E949B2088232CF18CE392E0D1
S11337900E94E41A2AE939E949E750E40E943C1FEF
S11337A08823CCF42AE146E26AE184E20E942E0DE9
S11337B029E146E269E184E20E942E0D28E146E215
S11337C068E184E20E942E0D27E146E267E184E28B
S11337D00E942E0D08958CE392E00E94E41A2DECD1
S11337E03CEC4CE650E40E949B208823FCF08CE3E4
S11337F092E00E94E41A23E333E343E750E40E9497
S11338003C1F88239CF42AE146E26AE184E20E9498
S11338102E0D29E146E269E184E20E942E0D28E1A1
S113382046E268E184E20E942E0D08958CE392E062
S11338300E94E41A26E636E646E650E40E949B20FF
S11338408823CCF08CE392E00E94E41A2DEC3CEC4B
S11338504CE650E40E943C1F88236CF42AE146E2C3
S11338606AE184E20E942E0D29E146E269E184E2E4
S11338700E942E0D08958CE392E00E94E41A20E049
S113388030E040E650E40E949B20882394F08CE3CF
S113389092E00E94E41A26E636E646E650E40E94E8
S11338A03C1F882334F42AE146E26AE184E20E9460
S11338B02E0D0895CF93DF9300D0CDB7DEB7FC0172
S11338C020812223A1F09E012F5F3F4F3F932F932E
S11338D02CEA31E03F932F939F938F930E94A1266C
S11338E00F900F900F900F900F900F9002C01A82BC
S11338F0198269817A81072E000C880B990B0E942A
S1133900EB1F23EF30EB40E15FE30E94A02020E0B7
S113391030E040E85EE30E94A0200F900F90DF911A
S1133920CF9108950F931F93CF93DF93EC0181E020
S11339300E94BB080E94230D0E94F21886EC96E0B8
S11339409F938F938AEC96E09F938F938FEA91E0F5
S11339509F938F9384EB96E09F938F930E947F268F
S113396024EB36E040E060E082E090E00E94220C2C
S11339702EEC36E040E061E08DE390E00E945D0CC7
S113398025EB31E040E061E089E490E00E945D0CC9
S11339902BED36E040E061E08CE490E00E945D0CA9
S11339A027EB31E040E061E088E590E00E945D0CA7
S11339B024ED36E040E061E08DE590E00E945D0C8E
S11339C027EB31E040E061E08FE690E00E945D0C7F
S11339D029EB31E040E061E084E790E00E945D0C77
S11339E08091D101282F082E000C330B3F938F9325
S11339F08CEA91E09F938F9381EE96E09F938F934F
S1133A000E947F2621EE36E040E060E084E790E00B
S1133A100E945D0C2BE431E040E064E08EE190E034
S1133A200E945D0C2EE431E040E064E08AE390E023
S1133A300E945D0C22E832E040E063E081E090E027
S1133A400E94840B28E732E040E063E08BE290E0E0
S1133A500E94840B8CE392E00E94E41A9F938F935C
S1133A607F936F930CEB11E01F930F9388E292E026
S1133A709F938F930E947F2628E232E040E062E029
S1133A808CE290E00E94D30B8AE592E00E945A1CDB
S1133A909F938F937F936F931F930F9380E592E08F
S1133AA09F938F930E947F2620E532E040E065E0FB
S1133AB08AE190E00E94D30B20E531E040E065E02C
S1133AC08DE290E00E945D0C24E531E040E066E088
S1133AD08EE190E00E945D0C24E348E164E38BE115
S1133AE00E942E0D2BE348E164E388E10E942E0D31
S1133AF02BE34CE16BE388E10E942E0D6AE38BE13A
S1133B000E94B8076CE38BE10E94B80769E38AE17D
S1133B100E94B8076DE38AE10E94B80782E392E04D
S1133B200E94A71A2DB73EB7225E3F4F0FB6F894F6
S1133B303EBF0FBE2DBF26E636E646E65FE30E9493
S1133B409B20882344F021EC31E040E067E08EE1E3
S1133B5090E00E945D0C83ED91E00E94570788235A
S1133B6009F472C0E3EDF1E0028110E0102F0027A8
S1133B708181082BB801012E000C880B990B0E943F
S1133B80EB1F20E030E040E251E40E94411F6093CB
S1133B90DE017093DF018093E0019093E101112332
S1133BA05CF4DC01CB01B0588093DE019093DF011B
S1133BB0A093E001B093E1018091E1018F938091A2
S1133BC0E0018F938091DF018F938091DE018F93C9
S1133BD089E091E09F938F938EE692E09F938F9379
S1133BE00E947F26E3EDF1E0648170E0762F662782
S1133BF08381682B072E000C880B990B0E94EB1F06
S1133C0020E030E040E251E40E94411F6093DA0179
S1133C107093DB018093DC019093DD010E94B31F5C
S1133C207F936F938CEA91E09F938F9384E692E065
S1133C309F938F930E947F268DB79EB70E960FB6E3
S1133C40F8949EBF0FBE8DBF0E94BB050E94EB1F60
S1133C502FE832EC45EF5BE30E94A0200E94B31FE3
S1133C606093D8017093D9017F936F938CEA91E0AC
S1133C709F938F9382EE91E09F938F930E947F2670
S1133C802BE431E040E064E08FE590E00E945D0CBD
S1133C902EE632E040E063E082E490E00E94840B90
S1133CA02EE431E040E064E08BE790E00E945D0C9C
S1133CB024E632E040E063E08CE690E00E94840B6E
S1133CC022EE31E040E062E086E590E00E94D30B12
S1133CD02BE531E040E062E085E690E00E945D0C77
S1133CE02EE531E040E062E082E790E00E945D0C66
S1133CF021E631E040E062E082E090E00E945D0C69
S1133D0027E631E040E062E081E490E00E945D0C4F
S1133D1020E140E860E180E00E942E0D28E140E2CD
S1133D2068E180E00E942E0D28E140E261E180E23A
S1133D300E942E0D28E140E061E180E00E942E0DFA
S1133D4028E143E568E180E40E942E0D28E143E583
S1133D5061E183E50E942E0D29E24FE361E18FE3E7
S1133D600E942E0D29E240E869E28FE30E942E0DA5
S1133D700E94221B0E9479150E943014CE010E94D9
S1133D80DA0880E00E94BB080F900F900F900F900C
S1133D900F900F90DF91CF911F910F91089550587C
S1133DA0BB27AA270E94E71E0C9461200E9453207F
S1133DB038F00E945A2020F039F49F3F19F426F479
S1133DC00C9450200EF4E095E7FB0C944A20E92F64
S1133DD00E94722058F3BA17620773078407950785
S1133DE020F079F4A6F50C9494200EF4E0950B2EB3
S1133DF0BA2FA02D0B01B90190010C01CA01A00139
S1133E001124FF27591B99F0593F50F4503E68F193
S1133E101A16F040A22F232F342F4427585FF3CFD4
S1133E20469537952795A795F0405395C9F77EF4A5
S1133E301F16BA0B620B730B840BBAF09150A1F0EE
S1133E40FF0FBB1F661F771F881FC2F70EC0BA0F74
S1133E50621F731F841F48F4879577956795B795FC
S1133E60F7959E3F08F0B0CF9395880F08F09927F7
S1133E70EE0F9795879508950E94262008F481E017
S1133E8008950E94551F0C9461200E945A2058F0F6
S1133E900E94532040F029F45F3F29F00C944A20FB
S1133EA051110C9495200C9450200E94722068F3B8
S1133EB09923B1F3552391F3951B550BBB27AA27DF
S1133EC062177307840738F09F5F5F4F220F331F19
S1133ED0441FAA1FA9F335D00E2E3AF0E0E832D0E1
S1133EE091505040E695001CCAF72BD0FE2F29D0E4
S1133EF0660F771F881FBB1F261737074807AB07B6
S1133F00B0E809F0BB0B802DBF01FF2793585F4F2A
S1133F103AF09E3F510578F00C944A200C94952079
S1133F205F3FE4F3983ED4F3869577956795B7950C
S1133F30F7959F5FC9F7880F911D9695879597F917
S1133F400895E1E0660F771F881FBB1F6217730790
S1133F508407BA0720F0621B730B840BBA0BEE1FA5
S1133F6088F7E09508950E94BA1F6894B1110C94E3
S1133F70952008950E947A2088F09F5798F0B92FD1
S1133F809927B751B0F0E1F0660F771F881F991F8A
S1133F901AF0BA95C9F714C0B13091F00E94942078
S1133FA0B1E008950C949420672F782F8827B85F88
S1133FB039F0B93FCCF3869577956795B395D9F7E2
S1133FC03EF490958095709561957F4F8F4F9F4FEC
S1133FD00895E89409C097FB3EF4909580957095F8
S1133FE061957F4F8F4F9F4F9923A9F0F92F96E941
S1133FF0BB279395F695879577956795B795F111B6
S1134000F8CFFAF4BB0F11F460FF1BC06F5F7F4F52
S11340108F4F9F4F16C0882311F096E911C0772364
S113402021F09EE8872F762F05C0662371F096E86D
S1134030862F70E060E02AF09A95660F771F881F3C
S1134040DAF7880F9695879597F90895990F0008E0
S1134050550FAA0BE0E8FEEF16161706E807F90756
S1134060C0F012161306E407F50798F0621B730BF1
S1134070840B950B39F40A2661F0232B242B252B72
S113408021F408950A2609F4A140A6958FEF811D15
S1134090811D089597F99F6780E870E060E00895B6
S11340A09FEF80EC089500240A941616170618064C
S11340B00906089500240A94121613061406050628
S11340C00895092E0394000C11F4882352F0BB0FB9
S11340D040F4BF2B11F460FF04C06F5F7F4F8F4F1C
S11340E09F4F089557FD9058440F551F59F05F3F57
S11340F071F04795880F97FB991F61F09F3F79F006
S113410087950895121613061406551FF2CF469587
S1134110F1DF08C0161617061806991FF1CF869509
S11341207105610508940895E894BB2766277727ED
S1134130CB0197F908950E94262008F48FEF089583
S11341400E94B3200C9461200E94532038F00E94F6
S11341505A2020F0952311F00C944A200C945020FE
S113416011240C9495200E94722070F3959FC1F342
S1134170950F50E0551F629FF001729FBB27F00D11
S1134180B11D639FAA27F00DB11DAA1F649F662766
S1134190B00DA11D661F829F2227B00DA11D621FB5
S11341A0739FB00DA11D621F839FA00D611D221F6F
S11341B0749F3327A00D611D231F849F600D211D53
S11341C0822F762F6A2F11249F5750409AF0F1F0D6
S11341D088234AF0EE0FFF1FBB1F661F771F881F3F
S11341E091505040A9F79E3F510580F00C944A200D
S11341F00C9495205F3FE4F3983ED4F3869577952D
S11342006795B795F795E7959F5FC1F7FE2B880FE4
S1134210911D9695879597F90895A0E1B0E0E3E1A3
S1134220F1E20C94F4247C011B016A01FC01178265
S11342301682838181FF44C39E012F5F3F4F390162
S1134240F7019381F10193FD859193FF81911F0102
S1134250882309F431C3853239F493FD859193FFA2
S113426081911F01853239F4B70190E00E94432601
S113427056016501E5CF10E0512C912CFFE1F915B1
S1134280D8F08B3279F038F4803279F08332A1F4AB
S1134290F92DF0612EC08D3261F0803369F4292D3F
S11342A021602DC0392D3260932E892D8460982E83
S11342B02AC0E92DE86015C097FC2DC020ED280F19
S11342C02A3088F496FE06C03AE0139F200D11248C
S11342D0122F19C08AE0589E200D1124522EE92D68
S11342E0E0629E2E10C08E3231F496FCE5C2F92DA8
S11342F0F0649F2E08C08C3621F4292D2068922E5C
S113430002C0883641F4F10193FD859193FF8191B8
S11343101F018111B3CF9BEB980F933020F4992D9B
S11343209061805E07C09BE9980F933008F066C1E6
S1134330992D9F7E96FF16E09F73992E853619F46A
S11343409064992E08C0863621F4392F3068932E54
S113435002C01111115097FE07C01C3350F44424BD
S11343604394410E27E00BC0183038F027E017E0E3
S113437005C027E09CE3492E02C0212F412C5601A1
S113438084E0A80EB11CF601608171818281938161
S1134390042DA3010E943A256C01F981FC87F0FFEA
S11343A002C0F3FF06C091FC06C092FE06C000E204
S11343B005C00DE203C00BE201C000E08C858C70E7
S11343C019F001115AC29BC297FE10C04C0CFC8517
S11343D0F4FF04C08A81813309F44A94141474F5F7
S11343E028E0241578F588E0482E2CC096FC2AC0D5
S11343F0812F90E08C159D059CF03CEFC3163FEF98
S1134400D30674F0892D8068982E0AC0E2E0F0E0AB
S1134410EC0FFD1FE10FF11D8081803319F4115061
S11344201111F4CF97FE0EC044244394410E812F02
S113443090E0C816D9062CF41C1904C044244394F3
S113444001C010E097FE06C01C141D0434F4C6011C
S1134450019605C085E090E002C081E090E0011182
S11344600196112331F0212F30E02F5F3F4F820F4F
S1134470931F252D30E08217930714F4581A01C0B6
S1134480512C892D897049F4552039F0B70180E207
S113449090E00E9443265A94F7CF002329F0B701F5
S11344A0802F90E00E94432693FC09C0552039F0E8
S11344B0B70180E390E00E9443265A94F7CF97FE19
S11344C04CC04601D7FE02C0812C912CC60188192C
S11344D09909F301E80FF91FFE87ED879601241966
S11344E03109388B2F87012F10E01195019511099F
S11344F03FEF8316930629F4B7018EE290E00E9401
S11345004326C814D9044CF08F85988988159905D9
S113451024F4ED85FE85818101C080E3F1E08F1AEA
S113452091082D853E852F5F3F4F3E872D8780164E
S113453091062CF0B70190E00E944326D9CFC8140D
S1134540D90441F49A81963320F4953319F43C85C7
S113455034FF81E3B70190E04EC08A81813319F0C2
S11345609C859F7E9C87B70190E00E944326111191
S113457005C094FC18C085E690E017C0B7018EE230
S113458090E00E9443261E5F82E001E0080FF301E1
S1134590E80FF11D8081B70190E00E944326802F2F
S11345A00113F3CFE6CF85E490E0B7010E944326E0
S11345B0D7FC06C0C114D10441F4EC85E4FF05C066
S11345C0D194C194D1088DE201C08BE2B70190E08F
S11345D00E94432680E32AE0C216D1042CF08F5FA8
S11345E0FAE0CF1AD108F7CFB70190E00E94432632
S11345F0B701C601C0960E94432654C1833631F0E8
S1134600833779F0833509F056C020C0560132E073
S1134610A30EB11CF6018081898301E010E06301DF
S113462012C05601F2E0AF0EB11CF601C080D18079
S113463096FE03C0612F70E002C06FEF7FEFC601EA
S11346400E9438268C01F92DFF7714C0560122E010
S1134650A20EB11CF601C080D18096FE03C0612F6A
S113466070E002C06FEF7FEFC6010E9412268C013A
S1134670F92DF0689F2EF3FD1AC0852D90E00817E0
S11346801907A8F4B70180E290E00E9443265A94E7
S1134690F4CFF60197FC859197FE81916F01B701E4
S11346A090E00E94432651105A94015011090115BB
S11346B0110579F7F7C0843611F0893661F5560192
S11346C097FE09C024E0A20EB11CF601608171813D
S11346D0828193810AC0F2E0AF0EB11CF6016081C1
S11346E07181072E000C880B990BF92DFF769F2EF4
S11346F097FF09C090958095709561957F4F8F4F76
S11347009F4FF0689F2E2AE030E0A3010E94BA2652
S1134710C82EC6183FC0092D853721F40F7E2AE024
S113472030E01DC0097F8F3691F018F4883559F0B8
S1134730C3C0803719F0883711F0BEC0006104FF90
S113474009C0046007C094FE08C0066006C028E0E3
S113475030E005C020E130E002C020E132E0560143
S113476007FF09C084E0A80EB11CF60160817181C5
S11347708281938108C0F2E0AF0EB11CF601608122
S1134780718180E090E0A3010E94BA26C82EC61869
S11347900F77902E96FE0BC0092D0E7FC11650F494
S11347A094FE0AC092FC08C0092D0E7E05C0DC2CC4
S11347B0092D03C0DC2C01C0D12E04FF0DC0FE0165
S11347C0EC0DF11D8081803311F4097E09C002FFD4
S11347D006C0D394D39404C0802F867809F0D39470
S11347E003FD11C000FF06C01C2DD51480F4150D67
S11347F01D190DC0D51458F4B70180E290E00E9451
S11348004326D394F7CFD51410F45D1801C0512C6E
S113481004FF10C0B70180E390E00E94432602FF2A
S113482017C001FD03C088E790E002C088E590E06E
S1134830B7010CC0802F867859F001FF02C08BE2CB
S113484001C080E207FD8DE2B70190E00E9443269B
S1134850C11638F4B70180E390E00E94432611505A
S1134860F7CFCA94F301EC0DF11D8081B70190E0FC
S11348700E944326C110F5CF15C0F4E0F51560F58C
S113488084E0581A93FE1FC0011127C02C8523FF12
S11348902AC00EE810E0392D3071932EF80184916E
S11348A0811124C0552009F4E4CCB70180E290E0E2
S11348B00E9443265A94F6CFF7018681978126C039
S11348C08FEF9FEF23C0B70180E290E00E94432660
S11348D05A945110F8CFD8CF512CB701802F90E0C3
S11348E00E944326D3CF02E910E0D5CF9110805225
S11348F0B70190E00E9443260F5F1F4FCFCF23E004
S1134900251510F483E0BDCF512CC0CF6096E2E1B1
S11349100C941025DB018F939F930E94E124BF9197
S1134920AF91A29F800D911DA39F900DB29F900DFA
S113493011240895A1E21A2EAA1BBB1BFD010DC070
S1134940AA1FBB1FEE1FFF1FA217B307E407F5073B
S113495020F0A21BB30BE40BF50B661F771F881F17
S1134960991F1A9469F760957095809590959B01AD
S1134970AC01BD01CF010895052E97FB1EF40094F0
S11349800E94D32457FD07D00E949A2407FC03D029
S11349904EF40C94D32450954095309521953F4F77
S11349A04F4F5F4F089590958095709561957F4F17
S11349B08F4F9F4F0895EE0FFF1F0590F491E02D48
S11349C009940E942B25A59F900DB49F900DA49F40
S11349D0800D911D11240895B7FF0C94E1240E94C9
S11349E0E124821B930B08952F923F924F925F9282
S11349F06F927F928F929F92AF92BF92CF92DF92EB
S1134A00EF92FF920F931F93CF93DF93CDB7DEB74F
S1134A10CA1BDB0B0FB6F894DEBF0FBECDBF0994E3
S1134A202A88398848885F846E847D848C849B843A
S1134A30AA84B984C884DF80EE80FD800C811B8148
S1134A40AA81B981CE0FD11D0FB6F894DEBF0FBE77
S1134A50CDBFED010895A29FB001B39FC001A39FF4
S1134A60700D811D1124911DB29F700D811D1124A3
S1134A70911D0895283008F027E03327DA01990FB3
S1134A80311D87FD916000966105710539F432602E
S1134A902E5F3D9330E32A95E1F708959F3F30F070
S1134AA080387105610509F03C5F3C5F3D939130AE
S1134AB008F08068911DDF93CF931F930F93FF92AB
S1134AC0EF92192F987F9695E92F96959695E90F71
S1134AD0FF27E051FF4F99273327EE24FF24A70136
S1134AE0E70105900894079428F4360FE71EF81E92
S1134AF0491F511D660F771F881F991F0694A1F740
S1134B000590079428F4E70EF81E491F561FC11D8F
S1134B10770F881F991F661F0694A1F705900794C5
S1134B2028F4F80E491F561FC71FD11D880F991F5F
S1134B30661F771F0694A1F70590079420F4490F88
S1134B40561FC71FD81F990F661F771F881F06940B
S1134B50A9F784911095177041F0D695C79557958C
S1134B604795F794E7941A95C1F7E6E9F0E068945D
S1134B701590159135916591959105907FE2739506
S1134B80E118F10A430B560BC90BD009C0F7E10C2D
S1134B90F11E431F561FC91FD01D7EF4703311F43C
S1134BA08A95E6CFE894015030F0080F0AF4002704
S1134BB0021708F4202F2395022F7A3328F079E383
S1134BC07D932A95E9F710C07D932A9589F606947A
S1134BD097956795379517951794E118F10A430B44
S1134BE0560BC90BD00998F023957E9173957A33AF
S1134BF008F070E37C932013B8F77E9170617D9385
S1134C0030F0839571E37D9370E32A95E1F71124E5
S1134C10EF90FF900F911F91CF91DF91992787FD1E
S1134C2090950895FC010590615070400110D8F7EB
S1134C30809590958E0F9F1F0895DC0101C06D93A0
S1134C4041505040E0F70895FB01DC010D90002035
S1134C50E9F7119701900D920020E1F70895FB0107
S1134C60DC018D91019080190110D9F3990B0895FD
S1134C70FC016150704001900110D8F78095909527
S1134C808E0F9F1F08950F931F93CF93DF93FB0104
S1134C90238121FD03C08FEF9FEF2CC022FF16C09C
S1134CA046815781248135814217530744F4A081FA
S1134CB0B1819D012F5F3F4F318320838C932681E7
S1134CC037812F5F3F4F3783268314C08B01EC015C
S1134CD0FB010084F185E02D0995892BE1F6D801CB
S1134CE016968D919C911797019617969C938E9387
S1134CF01697CE01DF91CF911F910F910895AEE0E9
S1134D00B0E0E5E8F6E20C9402250D891E8986E000
S1134D108C831A8309838FEF9FE79E838D83AE0173
S1134D20475E5F4F6F89788DCE0101960E940D21F9
S1134D30EF81F885E00FF11F10822E96E4E00C94C9
S1134D401E25AEE0B0E0E7EAF6E20C94042585E027
S1134D508C838B899C899A838983AE01495E5F4FDA
S1134D606D897E89CE0101960E94B4282E96E2E0D8
S1134D700C942025FA01AA27283051F1203181F121
S1134D80E8946F936E7F6E5F7F4F8F4F9F4FAF4F4F
S1134D90B1E03ED0B4E03CD0670F781F891F9A1F62
S1134DA0A11D680F791F8A1F911DA11D6A0F711D16
S1134DB0811D911DA11D20D009F468943F912AE022
S1134DC0269F11243019305D3193DEF6CF0108950A
S1134DD0462F4770405D4193B3E00FD0C9F7F6CF3B
S1134DE0462F4F70405D4A3318F0495D31FD405203
S1134DF0419302D0A9F7EACFB4E0A6959795879599
S1134E0077956795BA95C9F7009761057105089577
S1134E109B01AC010A2E0694579547953795279523
S1134E20BA95C9F7620F731F841F951FA01D0895BB
S1134E3020FD09C0FC0123FD05C022FF02C07383CD
S1134E40628351834083089544FD17C046FD17C013
S1134E50AB01BC01DA01FB01AA0FBB1FEE1FFF1F50
S1134E601094D1F74A0F5B1F6E1F7F1FCB01BA014D
S1134E70660F771F881F991F09C033E001C034E013
S1134E80660F771F881F991F3150D1F7620F711D6C
S1134E90811D911D08950F931F93CF93DF938C0170
S1134EA0C8010E94D929EC0197FD08C00E94C529B8
S1134EB0892BB1F7B801CE010E94172ACE01DF91E8
S1134EC0CF911F910F9108958F929F92AF92BF92AD
S1134ED0EF92FF920F931F93CF93DF938C01D62F02
S1134EE07A01B22E0E94D9299C0133272B32310535
S1134EF031F02D32310561F48B2D8068B82ED150FC
S1134F0011F480E068C0C8010E94D92997FDF9CF47
S1134F10CB2DCD7F2B2D207309F58033F9F4AA24F2
S1134F20AA94AD0E09F443C0C8010E94D92997FD83
S1134F303EC09C012F7D33272835310549F4C264D6
S1134F40D250A9F1C8010E94D92997FF07C02FC0E8
S1134F50B6FE02C0C26001C0C261DA2D812C912C60
S1134F60540120ED280F283080F0C4FF04C0B8019C
S1134F700E94172A19C02A3040F0C6FFF8CF2F7DAF
S1134F803FEE320F363098F727504C2FC501B4014D
S1134F900E9424274B015C01C260D15059F0C80122
S1134FA00E94D92997FFDDCFC1FD04C0AACF812C6F
S1134FB0912C5401C7FF08C0B094A094909480949D
S1134FC0811C911CA11CB11C2C2FB501A401C7018B
S1134FD00E94182781E0DF91CF911F910F91FF90DC
S1134FE0EF90BF90AF909F908F900895A0E2B0E0B3
S1134FF0ECEFF7E20C94F7245C01962E7A01F901A8
S11350008E010F5F1F4F680180E2D8011D928A95BF
S1135010E9F7D50113968C9080E090E0612C712C17
S113502030E061E070E083FC259183FE21918F01E3
S1135030522E211103C080E090E092C02E3511F46D
S1135040009751F1432F50E0481759073CF42D3590
S113505059F12D3219F4772009F103C0772009F4AE
S11350606AC0452D469546954695D601A40FB11DB7
S1135070452D47708B0102C0000F111F4A95E2F7BE
S1135080A8015C91452B4C93651459F0561410F407
S11350905394E7CF5A94E5CF31E004C07724739456
S11350A001C0712C0196BFCF772019F08E818062E8
S11350B08E83311103C08824839417C0F6019E01A6
S11350C02F5D3F4F8081809581932E173F07D1F745
S11350D0F2CFE114F10429F0D7018C93F701319652
S11350E07F019A94812C9920F9F0C5010E94D92955
S11350F097FD18C0FC01FF2723E0F595E7952A9555
S1135100E1F7EC0DFD1D208130E0AC01477055271F
S113511002C0359527954A95E2F720FDDACFB5010F
S11351200E94172A811087CFE114F10411F0D701EE
S11351301C92C80115C0422F469546954695D60146
S1135140A40FB11D422F47708B0102C0000F111F25
S11351504A95E2F7A8015C91452B4C93622EA2CFAD
S1135160A096EFE00C941325A0E0B0E0EAEBF8E29F
S11351700C94F7246C01EB015A01FC01178216828E
S1135180512CF601E380FE01E3FC8591E3FE81915D
S1135190182FEF01882309F4EEC090E00E94C5297E
S11351A0892B21F0C6010E944B27EBCF153241F425
S11351B0FE01E3FC1591E3FE1191EF01153281F438
S11351C0C6010E94D92997FDD4C0412F50E09C010B
S11351D0332724173507A9F2B6010E94172ACBC03A
S11351E01A3239F4E3FC1591E3FE1191EF0101E069
S11351F001C000E0F12C20ED210F2A3080F4026080
S11352006F2D70E080E090E040E20E942427F62EAB
S1135210FE01E3FC1591E3FE1191EF01ECCF01FFD8
S113522003C0F11003C0A7C0FF24FA94183619F084
S11352301C3651F010C0FE01E3FC1591E3FE119100
S1135240EF01183641F408600460FE01E3FC159197
S1135250E3FE1191EF01112309F48DC0612F70E079
S113526080E991E00E94CE29892B09F484C000FDD5
S113527007C0F50180809180C50102965C0102C0DF
S1135280812C912C1E3651F4F6014681578160E041
S113529070E0202FC4010E94182773CF1336A9F49D
S11352A001FD02C0FF24F394C6010E94D92997FD91
S11352B060C08114910429F0F4018083C401019633
S11352C04C01FA94F110F0CF50C01B3559F49E01F3
S11352D0A4016F2DC6010E94F627EC01892B09F069
S11352E044C03EC0C6010E944B2797FD42C01F36F2
S11352F061F128F4143639F1193651F128C0133705
S113530071F0153701F123C08114910429F0F401DF
S11353106082C40101964C01FA94FF2071F0C60129
S11353200E94D9293C0197FD08C00E94C529892BF8
S113533059F3B601C3010E94172A81149104A9F0FC
S1135340F401108212C0006203C0006101C0006455
S1135350202FA4016F2DC6010E946427811105C06E
S1135360F6018381807329F406C000FD0ACF5394AB
S113537008CF552019F0852D90E002C08FEF9FEFE4
S1135380CDB7DEB7EFE00C94132591110C94302ABD
S1135390803219F089508550C8F70895FC010590B2
S11353A0061621F00020D9F7C00108953197CF01E6
S11353B00895CF93DF93EC012B8120FF33C026FFA8
S11353C00AC02F7B2B838E819F8101969F838E83BE
S11353D08A8190E029C022FF0FC0E881F981808191
S11353E0082E000C990B009719F420622B831AC025
S11353F03196F983E8830EC0EA85FB85099597FF0A
S113540009C02B81019611F080E201C080E1822B5A
S11354108B8308C02E813F812F5F3F4F3F832E83B4
S1135420992702C08FEF9FEFDF91CF910895FB0181
S1135430238120FF12C026FD10C08F3F3FEF93074A
S113544061F082832F7D206423832681378121505C
S1135450310937832683992708958FEF9FEF0895A5
S10D5460992788270895F894FFCFD8
S113546A4080B3B40125732000252E316600C4CED2
S113547ACCC0D8CDDFDF00CCC5D2C5CED1D2C0CD09
S113548AD6C8DF00CFEEE6E0EBF3E9F1F2E020EF75
S113549AEEE4EEE6E4E8F2E52E00C8E4B8F220E72A
S11354AAE0E3F0F3E7EAE02E2E2E00B043002500F5
S11354BAEC2FF100EEF1E0E4EAE800ECEC004867D6
S11354CA00F3EBE8F6E000E4EEEC00D1EFF0E0E202
S11354DAEAE000CDE0F1F2F0EEE9EAE020E2F0E5FC
S11354EAECE5EDE800C3EBE0E2EDEEE520E8EDF4EF
S11354FAEE2DEEEAEDEE004E0053004E2D45004E21
S113550A2D5700532D4500532D570030256400258F
S113551A733A2573002C002F00323200252E32668E
S10F552A00EEF2F1F3F2F1F2E22E0000C8
S9030000FC
