S01000004E524632345F52582E73726563BF
S11300000C941D040C9422160C943B100C943A048A
S11300100C943A040C943A040C943A040C943A0464
S11300200C943A040C943A040C943A040C94410F42
S11300300C943A040C943A040C94660F0C943A040D
S11300400C943A040C943A040C943A040C943A0434
S11300500C943A040C943A040C943A040C943A0424
S11300600C943A040C943A04A310BB10D310EB1074
S113007003111B1133111C2024202C2034203C207C
S113008044204C2061206C20772082208D209820F1
S1130090A320AE20B920C420CF20DA202D21712145
S11300A0B521F9213D228122C5226364696E6F70F6
S11300B0737578585B000000000000000000000029
S11300C0000000000000000000000000000000002C
S11300D0000000000000000000000000000000001C
S11300E0000000000000000000000000000000000C
S11300F000000000000000000000000000000000FC
S113010000000000000000000000000000000000EB
S113011000000000000000000000000000000000DB
S113012080808080C0C0C0C0E0E0E0E0E0E000008B
S113013000000000000000000000000000000002B9
S1130140060707070707060202020202020202026A
S1130150020202FFFFFF0202020E1E3E7EFFFFFFAD
S1130160FFFFFFFFFFFFFFFFFFFFFFFFFFFFFEC0DB
S1130170000000000000000000000000000000007B
S1130180000000000000000000000000000000F873
S1130190FCFCFFFFFFFFFFFCFCF800000000010176
S11301A0010101010101010101010101010101003C
S11301B0000000000000000000000000000080C0FB
S11301C0E0E0E0E0E0E0C0C0800000000000001FCC
S11301D017B7F7F7F7F7F7B7171F0000000000008D
S11301E080C0C0E0E0E0E0E0E0C08000000000008B
S11301F0000000000000000000000000187FFFFF66
S1130200FFFFFFFFFFFFFFFFFF3E18181818181825
S1130210183FBFBFBFBFBF3F181818181818183EA3
S1130220FFFFFFFFFFFFFFFFFFFFFF7F1C0000003A
S113023000000000000000000000000000000101B8
S11302400303030703030301000000000000000090
S1130250000001030703010000000000000000008B
S1130260000103030307030303010100000000006E
S1130270000000000000000000000000000000007A
S1130280000000000000000000000000000000006A
S1130290000000000000000000000000000000005A
S11302A0000000000000000000000000000000004A
S11302B000000000000000E0F8FC3E070301E1FE3E
S11302C0FC3F7F878080E07C3F1F07000000000028
S11302D002E2FEFF1F03008080C0F8FFFF8780005A
S11302E000000000000C06030387FF7E1C80C0E0B2
S11302F0F0E8E4E3E1F01800000000808482C3C366
S11303007F3F1E60E0C0C08081437F3F1E0000002D
S11303100000804020F0F8FC1E101C1A1918F8FE8A
S1130320FF1F190800004078F6E7E7C78707036056
S1130330E0C08080417F3F0F000000C0E0F8785C9F
S11303404EC6C381013F7FFF8180C0F07F3F0F0015
S1130350080E07070787671F0701008060100C035A
S113036000000000000000003C7EFFE3C1C17F3EAE
S11303701C3C7EFF838081C37F7F1E0000F0FCFE57
S11303800F0301C1FFFEFC80C1C363723A1E0F0755
S113039003000000000000383838000000000000AE
S11303A0383838000000000080C0602060C0803F02
S11303B07FC080C07F3F002020E0E00000008080FC
S11303C0FFFF808080C06060E0C00080C0E0D8CFC4
S11303D0C3E080406060E0C000C0C084868F7D3888
S11303E000000080C0E00038343231FFFF3000C02C
S11303F06060606020C2C3C383864E3C0080C040FE
S11304006020203E7FC382C67C38C060606060E0AC
S113041020000080700E0100C0E0202020E0C071A8
S1130420FB87868EFF7980C0602060C0808387CC84
S113043048783F0F000000000000000000C0C0002A
S11304400000FC8484FC0008FC0088C4A49C448450
S1130450947C6050FC4058949464789494640004B0
S1130460F40C6C94946C98A4A478008000000000B0
S11304700000000000004F0000000007000700001B
S113048000147F147F1400242A7F2A1200231308E7
S11304906462003649552240000005030000001C38
S11304A0224100000041221C00000014083E0814F0
S11304B00008083E080800A06000000000080808C2
S11304C00808006060000000002010080402003EDC
S11304D05149453E0000427F400000426151494677
S11304E0002141454B31001814127F100027454567
S11304F04539003C4A494930000171090503003679
S11305004949493600064949291E006C6C0000001F
S11305100000563600000008142241000024242460
S1130520242400004122140800020151090600326B
S11305304979413E007E1111117E007F49494936B7
S1130540003E41414122007F4141221C007F494934
S11305504941007F09090901003E4149493A007FA8
S11305600808087F0000417F4100002040413F010E
S1130570007F08142241007F40404040007F020C6D
S1130580027F007F0408107F003E4141413E007F0E
S113059009090906003E4151215E007F09192946D7
S11305A00046494949310001017F0101003F4040B3
S11305B0403F001F2040201F003F4060403F006339
S11305C01408146300070870080700615149454383
S11305D0007F414100000015167C16150041417F43
S11305E000000004020102040040404040400001B9
S11305F002040000002054545478007F44444438DA
S113060000384444440000384444487F003854547B
S1130610541800107E110102000C5252523E007F09
S1130620080404780000447D4000002040403D0060
S1130630007F102844000000417F4000007C041823
S11306400478007C08040478003844444438007C6E
S11306501414140800081414187C007C08040408FA
S113066000485454542000043F444020003C40407F
S1130670207C001C2040201C001E2010201E002274
S11306801408142200064848483E004464544C446C
S11306900008364100000000007F000000413608D9
S11306A000000008082A1C08007E1111117E007F3A
S11306B049494933007F49494936007F0101010313
S11306C000E0514F41FF007F494949410077087FCD
S11306D00877004149494936007F1008047F007CAF
S11306E02112097C007F081422410020413F017F30
S11306F0007F020C027F007F0808087F003E414112
S1130700413E007F0101017F007F09090906003E87
S1130710414141220001017F0101004728100807DF
S1130720001C227F221C006314081463007F4040D5
S113073040FF00070808087F007F407F407F007F5C
S1130740407F40FF00017F484830007F4830007FF1
S113075000007F48483000224149493E007F083E5E
S1130760413E00462919097F002054545478003C26
S11307704A4A4931007C54542800007C0404040C87
S113078000E0544C44FC003854545418006C107C61
S1130790106C004444545428007C2010087C007CD5
S11307A04122117C007C102844000020443C047C3D
S11307B0007C0810087C007C1010107C0038444435
S11307C04438007C0404047C007C141414080038AD
S11307D0444444280004047C0404000C5050503C5D
S11307E0003048FC4830004428102844007C404035
S11307F040FC000C1010107C007C407C407C007C91
S1130800407C40FC00047C505020007C5050207CF4
S1130810007C50502000002844545438007C103888
S1130820443800085434147C007E4B4A4B42003850
S11308305554551800000609090611241FBECFEFB0
S1130840D8E0DEBFCDBF13E0A0E0B1E0E8E7FFE50C
S113085002C005900D92A234B107D9F724E0A2E4B6
S1130860B3E001C01D92AF35B207E1F70E948E11CB
S11308700C94BA2F0C9400000F931F93CF93DF9323
S1130880C82F0E94C1178EEE0E94CD178C2F0E9494
S1130890CD170E94C9170E94C1178FEE0E94CD1771
S11308A00E94D717C82FD0E00E94E117082F10E04C
S11308B00E94C9179C2F8827800F911FDF91CF9129
S11308C01F910F9108958AEA0E943C049093E103DA
S11308D08093E0038CEA0E943C049093E9038093A4
S11308E0E8038EEA0E943C049093F9038093F80392
S11308F080EB0E943C049093ED038093EC0382EB25
S11309000E943C049093E7038093E60384EB0E94E7
S11309103C049093E5038093E40386EB0E943C043B
S11309209093E3038093E20388EB0E943C0490934A
S1130930DD038093DC038AEB0E943C049093DF0385
S11309408093DE038CEB0E943C049093EF0380932E
S1130950EE038EEB0E943C049093EB038093EA0336
S113096008950E94C1178EEE0E94CD1784EF0E9455
S1130970CD178EE20E94CD170E94C9178FE097E22F
S11309800197F1F700C0000086EF0E943C04BC010F
S113099080E090E008950E94C1178EEE0E94CD176A
S11309A084EF0E94CD1784EF0E94CD170E94C917CF
S11309B08FE19BEC0197F1F700C000000E94C11782
S11309C08EEE0E94CD1786EF0E94CD170E94C917A4
S11309D00E94C1178FEE0E94CD170E94D71790E096
S11309E0A0E0B0E08093F4039093F503A093F603A2
S11309F0B093F7030E94D71790E0A0E0B0E0809393
S1130A00F0039093F103A093F203B093F3030E94D5
S1130A10E11790E0A0E0B0E08093D8039093D9036D
S1130A20A093DA03B093DB030E94C9174091F40347
S1130A305091F5036091F6037091F703BA015527BD
S1130A4044278091F0039091F103A091F203B091B7
S1130A50F303BA2FA92F982F8827480F591F6A1F0D
S1130A607B1F8091D8039091D903A091DA03B091B0
S1130A70DB03840F951FA61FB71FBC01CD0168942B
S1130A8014F896958795779567951694D1F70895F8
S1130A904F925F926F927F928F929F92AF92BF928A
S1130AA0CF92DF92EF92FF920F931F93CF93DF9336
S1130AB000D000D0CDB7DEB70E94B1046B017C0139
S1130AC00E94CB0469837A838B839C838091E403A3
S1130AD09091E503A7019601281B390B410951099F
S1130AE0A091E603B091E7030E9456292B013C0133
S1130AF0032E3FE075946794579447943A95D1F741
S1130B00302D6091EE037091EF03CB01770FAA0BA8
S1130B10BB0BBC01CD01052E5BE0660F771F881F60
S1130B20991F5A95D1F7502D2091EA033091EB0388
S1130B308901330F220B330BA9019801240D351DB4
S1130B40461D571D0E943129420E531E641E751EF8
S1130B5080EA481A8FE0580A61087108A3019201DB
S1130B60C301B2010E94EB284B015C01072E7CE01B
S1130B70B594A794979487947A95D1F7702DA09102
S1130B80DC03B091DD03A50194010E9461296B018E
S1130B907C010B2EBBE0F594E794D794C794BA95E7
S1130BA0D1F7B02DA091E803B091E903A30192011C
S1130BB00E946129DC01CB01072E7BE0B595A79546
S1130BC0979587957A95D1F7702DC80ED91EEA1E90
S1130BD0FB1E8091E0039091E103092E000CAA0B07
S1130BE0BB0B880F991FAA1FBB1F880F991FAA1F31
S1130BF0BB1FC80ED91EEA1EFB1ECC0CDD1CEE1C4E
S1130C00FF1CA091F803B091F9030E9461292B0104
S1130C103C01032E3DE075946794579447943A95AC
S1130C20D1F7302DA091E203B091E303A501940123
S1130C300E946129BB2797FDB095AB2F840D951DAC
S1130C40A61DB71D0296A11DB11DB595A795979533
S1130C508795B595A795979587959C01AD013058D3
S1130C604F4F5F4FA091EC03B091ED030E945629C2
S1130C702B013C01032E3FE07694679457944794EC
S1130C803A95D1F7302D29813A814B815C812C1919
S1130C903D094E095F09AAE6B8E10E945629992345
S1130CA05CF0660F771F881F991FA30192010E94B1
S1130CB00F2969017A010AC0A30192010E940F2938
S1130CC069017A01CC0CDD1CEE1CFF1C9927F7FC92
S1130CD09A958F2D7E2D6D2D9B01AC010E94EB28E2
S1130CE09B01AC01AEEDBBE00E9456294C01BB2434
S1130CF097FCB094AB2CA3E4B3EEA70196010E9439
S1130D006429BB2797FDB095AB2F880D991DAA1DAB
S1130D10BB1D8153914FAF4FBF4F689413F8B595E6
S1130D20A795979587951694D1F7BC01CD016C0DC5
S1130D307D1D8E1D9F1D609342037093430380931A
S1130D404403909345030F900F900F900F90DF9101
S1130D50CF911F910F91FF90EF90DF90CF90BF90B4
S1130D60AF909F908F907F906F905F904F90089579
S1130D702FEF83ED90E3215080409040E1F700C0D5
S1130D80000087B1816087B988B1816088B980E04B
S1130D900895BC0187B1816087B988B18E7F88B915
S1130DA088B1816088B92FEF80E792E021508040BC
S1130DB09040E1F700C0000088B18E7F88B98FE9C8
S1130DC09CE80197F1F700C0000088B1816088B900
S1130DD087B18E7F87B990EA9A95F1F7309938C038
S1130DE025ED2A95F1F7000096B1892F817090FFC7
S1130DF030C085ED8A95F1F7000080E025C0E4E07D
S1130E00F0E0E81BF109E60FF71F108290E019C02B
S1130E10309BFECF2DE52A95F1F70000309B0EC0E4
S1130E2047E050E0491B510921E030E002C0220FA5
S1130E30331F4A95E2F73081232B20833099FECF6C
S1130E409F5F983028F38F5F8530C8F281E0089562
S1130E5080E00895909101016917E0F490910201F6
S1130E608917C0F4262F26952695269590E030E81C
S1130E70239F800D911D1124FA01E80FF91F67705B
S1130E8081E090E002C0880F991F6A95E2F7908193
S1130E90892B80830895909101016917E0F4909162
S1130EA002018917C0F4262F26952695269590E0F1
S1130EB030E8239F800D911D1124FA01E80FF91FDA
S1130EC067708EEF90E002C0880F991F6A95E2F771
S1130ED0908189238083089582E08A95F1F700C088
S1130EE08BB180628BB982E08A95F1F700C08BB137
S1130EF08F7D8BB982E08A95F1F700C008951F9326
S1130F00CF93DF93182F8BB180688BB98BB180643A
S1130F108BB90E946C070E946C070E946C070E94A8
S1130F206C070E946C078BB18F7B8BB90E946C0796
S1130F308BB180648BB90E946C078BB18F7B8BB9AA
S1130F400E946C07C0E0D0E01CC0CE010497049757
S1130F5030F48BB18F7B8BB90E946C0711C0812F49
S1130F60807841F0803859F48BB180648BB90E9449
S1130F706C0705C08BB18F7B8BB90E946C07110F76
S1130F802196CC30D1050CF38BB18F7B8BB90E94A9
S1130F906C070E946C070E946C070E946C078BB15F
S1130FA08F778BB9DF91CF911F9108951F93CF93C2
S1130FB0DF93182F8BB180688BB98BB180648BB9A8
S1130FC00E946C070E946C070E946C070E946C07C9
S1130FD00E946C078BB18F7B8BB90E946C078BB11D
S1130FE08F7B8BB90E946C078BB18F7B8BB90E946E
S1130FF06C07C0E0D0E01CC0CE010497049730F425
S11310008BB18F7B8BB90E946C0711C0812F8078C4
S113101041F0803859F48BB180648BB90E946C071D
S113102005C08BB18F7B8BB90E946C07110F219681
S1131030CC30D1050CF38BB18F7B8BB90E946C073C
S11310400E946C070E946C070E946C078BB18F771B
S11310508BB9DF91CF911F910895882399F084E390
S11310600E94D6078FEC97E00197F1F700C00000CB
S113107086E30E94D6078FEC97E00197F1F700C052
S11310800000089580E30E94D6078FEC97E0019753
S1131090F1F700C0000008958F929F92AF92BF9223
S11310A0DF92EF92FF920F931F93CF93DF937C0114
S11310B0D12C31C18FE18D1548F08D2D80680E94AF
S11310C0D607802F80680E94D60709C080EE8D0D58
S11310D080680E94D607802F88680E94D607CD2D8D
S11310E0C695C695C695D0E0CC0FDD1FCC0FDD1F8D
S11310F0CC0FDD1FC00FD11DC295D295D07FDC2748
S1131100C07FDC27CE0DDF1D8880912C1D2D17702C
S1131110012E02C0959487940A94E2F79694982C31
S1131120882497948794A980B12C012E02C0B59489
S1131130A7940A94E2F781E0A822BB240024B69481
S1131140A7940794B694A7940794BA2CA02CAA81C8
S1131150B0E0012E02C0B595A7950A94E2F7A170FC
S1131160BB27AA0FBB1FA295B295B07FBA27A07F59
S1131170BA27EB81F0E0012E02C0F595E7950A94B9
S1131180E2F7E170FF27E295F295F07FFE27E07F1A
S1131190FE276C8170E0012E02C0759567950A9454
S11311A0E2F761707727660F771F660F771F660F68
S11311B0771F4D8150E0012E02C0559547950A9442
S11311C0E2F741705527440F551F440F551F2E81D8
S11311D030E0012E02C0359527950A94E2F721707C
S11311E03327220F331F8F8190E0012E02C0959583
S11311F087950A94E2F7A828AA29EA2B6E2B462B96
S1131200242B8170822B0E947F078884912C012ECD
S113121002C0959487940A94E2F79694982C8824B3
S113122097948794A984B12C012E02C0B594A794F5
S11312300A94E2F781E0A822BB240024B694A79480
S11312400794B694A7940794BA2CA02CAA85B0E06E
S1131250012E02C0B595A7950A94E2F7A170BB27A9
S1131260AA0FBB1FA295B295B07FBA27A07FBA2759
S1131270EB85F0E0012E02C0F595E7950A94E2F7BC
S1131280E170FF27E295F295F07FFE27E07FFE27CD
S11312906C8570E0012E02C0759567950A94E2F79B
S11312A061707727660F771F660F771F660F771FAA
S11312B04D8550E0012E02C0559547950A94E2F7FA
S11312C041705527440F551F440F551F2E8530E09C
S11312D0012E02C0359527950A94E2F72170332731
S11312E0220F331FCF85D0E002C0D595C7951A953C
S11312F0E2F7882D8A298A2B8E2B862B842B822B2E
S1131300C1708C2B0E947F070F5F01C000E0083082
S113131008F4D0CED3948FE38D15C0F7DF91CF912D
S11313201F910F91FF90EF90DF90BF90AF909F902F
S11313308F90089581E00E94D6078FE19EE4019783
S1131340F1F700C0000008952FEF89EF90E02150DD
S113135080409040E1F700C000008CE00E94D60776
S113136087EC90E00197F1F700C000000E949A0911
S113137086E00E94D6078FE19EE40197F1F700C052
S113138000000895CF93DF93A0E0B0E02BC0442386
S1131390A9F0ED01C80FD91F2197C20FD31FFB017C
S11313A0EE0FFF1FE60FF71FEE0FFF1FEA0FFB1FE5
S11313B0E259FB4F54915095588313C0EC01CA0F66
S11313C0DB1F2197C20FD31FFB01EE0FFF1FE60F98
S11313D0F71FEE0FFF1FEA0FFB1FE259FB4F54915B
S11313E058831196A730B10594F2DF91CF910895F7
S11313F0CF93DF93A0E0B0E027C0442399F0ED0140
S1131400C80FD91F2197C20FD31FFB01EE0FFF1F77
S1131410EE0FFF1FEA0FFB1FEE5BFB4F549150953D
S1131420588311C0EC01CA0FDB1F2197C20FD31FD1
S1131430FB01EE0FFF1FEE0FFF1FEA0FFB1FEE5B1A
S1131440FB4F549158831196A430B105B4F2DF9147
S1131450CF910895CF93DF93A0E0B0E029C0442357
S1131460A1F0ED01C80FD91F2197C20FD31F56E178
S1131470569FF001579FF00D1124EA0FFB1FEA5409
S1131480FD4F54915095588312C0EC01CA0FDB1FD5
S11314902197C20FD31F56E1569FF001579FF00DBD
S11314A01124EA0FFB1FEA54FD4F549158831196FF
S11314B0AB30B105A4F28B589F4FABE0B0E029C02C
S11314C04423A1F0EC01CA0FDB1F2197C20FD31FE5
S11314D056E1569FF001579FF00D1124EA0FFB1FB0
S11314E0EA54FD4F54915095588312C0EC01CA0F31
S11314F0DB1F2197C20FD31F56E1569FF001579F60
S1131500F00D1124EA0FFB1FEA54FD4F5491588348
S11315101196A631B105A4F2DF91CF9108950F93EE
S11315201F93CF93DF93A0E0B0E035C04423D1F004
S1131530ED01C80FD91F2197C20FD31F8B01000FD4
S1131540111FF801EE0FFF1FEE0FFF1FEE0FFF1F1D
S1131550E01BF10BEA0FFB1FE855FC4F549150952B
S1131560588318C0EC01CA0FDB1F2197C20FD31F89
S11315708B01000F111FF801EE0FFF1FEE0FFF1F6D
S1131580EE0FFF1FE01BF10BEA0FFB1FE855FC4FAA
S1131590549158831196A730B10544F287589F4F50
S11315A0A7E0B0E035C04423D1F0EC01CA0FDB1F43
S11315B02197C20FD31F8B01000F111FF801EE0FEB
S11315C0FF1FEE0FFF1FEE0FFF1FE01BF10BEA0FD3
S11315D0FB1FE855FC4F54915095588318C0EC01FB
S11315E0CA0FDB1F2197C20FD31F8B01000F111FDE
S11315F0F801EE0FFF1FEE0FFF1FEE0FFF1FE01BA2
S1131600F10BEA0FFB1FE855FC4F549158831196D8
S1131610AE30B10544F2DF91CF911F910F9108953F
S1131620BF92CF92DF92EF92FF920F931F93CF93CB
S1131630DF93B42E79016C0120E8629FC00CD11CA9
S11316401124C0E0D0E030C0F701EC0FFD1F608131
S113165070E0BB2099F06E32710541F0605371095E
S1131660980141E0C6010E948F0A1AC0980141E026
S11316706AE070E0C6010E948F0A12C06E327105E2
S113168041F060537109980140E0C6010E948F0A3D
S113169007C0980140E06AE070E0C6010E948F0A2A
S11316A088E0C80ED11C2196F70101900020E9F7CB
S11316B03197EE19FF09CE17DF0730F2DF91CF9192
S11316C01F910F91FF90EF90DF90CF90BF900895FE
S11316D0BF92CF92DF92EF92FF920F931F93CF931B
S11316E0DF93B42E79016C0120E8629FC00CD11CF9
S11316F01124C0E0D0E030C0F701EC0FFD1F608181
S113170070E0BB2099F06E32710541F060537109AD
S1131710980141E0C6010E94F8091AC0980141E00D
S11317206AE070E0C6010E94F80912C06E327105C9
S113173041F060537109980140E0C6010E94F80924
S113174007C0980140E06AE070E0C6010E94F80911
S113175085E0C80ED11C2196F70101900020E9F71D
S11317603197EE19FF09CE17DF0730F2DF91CF91E1
S11317701F910F91FF90EF90DF90CF90BF9008954D
S1131780BF92CF92DF92EF92FF920F931F93CF936A
S1131790DF93B42E79016C0120E8629FC00CD11C48
S11317A01124C0E0D0E01AC0F701EC0FFD1F6081E6
S11317B070E0BB2041F060537109980141E0C6011B
S11317C00E942A0A07C060537109980140E0C601CB
S11317D00E942A0A8CE0C80ED11C2196F7010190C0
S11317E00020E9F73197EE19FF09CE17DF07E0F281
S11317F0DF91CF911F910F91FF90EF90DF90CF90E9
S1131800BF9008959F92AF92BF92CF92DF92EF92D2
S1131810FF920F931F93CF93DF93942E59016C0182
S113182020E8629FC00CD11C1124E12CF12C88C04B
S1131830F501EE0DFF1DC081C03CE8F4C83AD9F0B3
S1131840C83BC9F0C03BB9F06C2F70E0992041F05F
S113185060527109980141E0C6010E94C20907C0A3
S113186060527109980140E0C6010E94C20986E0F5
S1131870C80ED11C62C0D0E0CE01805C91098034D6
S11318809105B0F4992049F0980141E0BE016156F8
S11318907109C6010E94C20908C0980140E0BE0156
S11318A061567109C6010E94C20926E0C20ED11C0C
S11318B0C83AD105A1F4992041F0980141E06FE9BB
S11318C070E0C6010E94C20907C0980140E06FE9B8
S11318D070E0C6010E94C20986E0C80ED11CC83B54
S11318E0D105A1F4992041F0980141E060EA70E04B
S11318F0C6010E94C20907C0980140E060EA70E096
S1131900C6010E94C20926E0C20ED11CC03BD1050B
S1131910A1F4992041F0980141E061EA70E0C60128
S11319200E94C20907C0980140E061EA70E0C60164
S11319300E94C20986E0C80ED11C2FEFE21AF20AF7
S1131940F50101900020E9F73197EA19FB09EE1639
S1131950FF0608F46DCFDF91CF911F910F91FF9097
S1131960EF90DF90CF90BF90AF909F900895EF924B
S1131970FF920F931F93CF93DF93EC0100E010E0ED
S113198040E050E020C0D801B695BA2FAA27B795F9
S1131990A7959D01215E3F4F0EC07E01E20EF31E0E
S11319A0BA016A547F4FFB019491F70190834F5F12
S11319B05F4F2F5F3F4FBD01615A7F4F2617370797
S11319C064F30F5F1F4F08301105ECF2DF91CF91E4
S11319D01F910F91FF90EF900895FC0111821082E6
S11319E008956F927F928F929F92AF92BF92CF92FF
S11319F0DF92EF92FF920F931F93CF93DF93C82F41
S1131A00D62F942E822E481728F0A42EB12CA81A73
S1131A10B10804C0A82EB12CA41AB1088D1628F060
S1131A20C82CD12CCD1AD10804C0CD2ED12CC81865
S1131A30D108C91518F47724739402C077247A94D2
S1131A40D81518F46624639402C066246A94750158
S1131A50EC18FD08A8016D2F8C2F0E942A07C911CC
S1131A6002C0D815A1F0C701880F991F2227332778
S1131A702C193D09281739071CF4EC18FD08C70D6B
S1131A808A159B053CF7EA0CFB1CD60DE3CFDF91CE
S1131A90CF911F910F91FF90EF90DF90CF90BF9067
S1131AA0AF909F908F907F906F900895AF92BF9268
S1131AB0CF92DF92EF92FF920F931F93CF93DF9316
S1131AC05C017B01E90168019C01240F351F8091B1
S1131AD0020190E02817390718F0AC014A195B0994
S1131AE08091010190E097012C0F3D1F28173907C1
S1131AF018F0EC01CE19DF09DA2DD40F86012E2D52
S1131B004D2F6E2D8A2D0E94F10CCE0D2C2F4D2FB2
S1131B106C2F8A2D0E94F10C2C2F4A2D6E2D8A2DAC
S1131B200E94F10C2C2F4D2F6E2D8D2F0E94F10C45
S1131B30DF91CF911F910F91FF90EF90DF90CF90A5
S1131B40BF90AF9008957F928F929F92AF92BF9271
S1131B50CF92DF92EF92FF920F931F93CF93DF9375
S1131B60EC016B015A01790148019C01240F351FD6
S1131B708091020190E02817390718F05C01AC1A33
S1131B80BD0A8091010190E096012E0D3F1D28179A
S1131B90390718F07C01EC18FD08712C0AC0672D78
S1131BA06C0D8401262F4C2F4A0D8C2F0E94F10CB2
S1131BB07394872D90E0E816F90688F7DF91CF91AA
S1131BC01F910F91FF90EF90DF90CF90BF90AF9057
S1131BD09F908F907F9008953F924F925F926F9263
S1131BE07F928F929F92AF92BF92CF92DF92EF92A9
S1131BF0FF920F931F93CF93DF93582E462E142FEB
S1131C00E901E42EF12C81E090E06C01CE18DF08AC
S1131C10AA24BB24AE18BF08AA0CBB1C642F640DF5
S1131C20A901852D0E942A07642D611BAE01852D13
S1131C300E942A07AE01642D812F850D0E942A0778
S1131C40AE01642D852D811B0E942A0700E010E05F
S1131C5088248394912C49C0DD2044F081E0E81A63
S1131C60F10882E0A80EB11CCA0CDB1C0F5F1F4FE9
S1131C7082E0880E911CC80CD91C352C300EAE01A4
S1131C80742C7E0C672D832D0E942A07652C601A04
S1131C90AE01672D862D0E942A07AE01742C7E1892
S1131CA0672D832D0E942A07AE01672D862D0E9481
S1131CB02A07742C700EAE01672D652C6E0C862DD0
S1131CC00E942A07AE01672D752C7E18872D0E946D
S1131CD02A07342C301AAE01632D862D0E942A0760
S1131CE0AE01632D872D0E942A070E151F050CF4E3
S1131CF0B3CFDF91CF911F910F91FF90EF90DF90C1
S1131D00CF90BF90AF909F908F907F906F905F9097
S1131D104F903F9008952F923F924F925F926F920F
S1131D207F928F929F92AF92BF92CF92DF92EF9267
S1131D30FF920F931F93CF93DF93F82EE62EEA01C1
S1131D40390181E090E06C01C41AD50A88249924F1
S1131D50841A950A880C991C262E3F2C642F6E0D2C
S1131D60A9018F2D0E942A076E2D6C1BA3018F2DB4
S1131D700E942A07BC2EBF0CA3016E2D8B2D0E943E
S1131D802A07FC1AA3016E2D8F2D0E942A078301B6
S1131D902E2D4B2D6E2D8F2D0E94F10CE12CF12C4C
S1131DA0AA24A394B12C35C0DD2034F0219782E01D
S1131DB0880E911CC80CD91C8FEFE81AF80A82E02F
S1131DC0A80EB11CCA0CDB1C532C5E0C432C4E1801
S1131DD083016C2F620D262F452D842D0E94F10C5A
S1131DE0622D6C1B262F442D852D0E94F10C622D33
S1131DF06E0D262F432C4C1A442D5C2E530C852D2E
S1131E000E94F10C622D6E19262F442D852D0E94FF
S1131E10F10CEC16FD0644F2DF91CF911F910F9166
S1131E20FF90EF90DF90CF90BF90AF909F908F90F6
S1131E307F906F905F904F903F902F900895E1E8CE
S1131E40F0E0808188608083AFE6B0E08C918260AE
S1131E508C9383E08093890088EE8093880080814E
S1131E6082608083089585B5826085BD84E687BDE0
S1131E7085B5826085BDEEE6F0E080818260808376
S1131E8008951F920F920FB60F9211248F939F9370
S1131E90AF93BF938091480390914903A0914A0363
S1131EA0B0914B030196A11DB11D809348039093FB
S1131EB04903A0934A03B0934B03BF91AF919F9101
S1131EC08F910F900FBE0F901F9018951F920F9235
S1131ED00FB60F9211242F938F939F9383B1829502
S1131EE08695869583708093470390914603892B4A
S1131EF08430D9F018F4813029F029C08B30A9F04E
S1131F008E3029F580914C03882331F08091FA03B7
S1131F108F5F8093FA031BC08091FB038F5F8093D4
S1131F20FB038BB180618BB912C080914C03882371
S1131F3031F08091FA0381508093FA0308C08091B4
S1131F40FB0381508093FB038BB180618BB980913B
S1131F504703880F880F809346038091FB038837DB
S1131F601CF01092FB0305C088231CF487E78093C0
S1131F70FB039091FB0383E99802812D1124890FBF
S1131F808595859597FD8395282F220F220F220F83
S1131F90281B921B923041F12CF4992351F091307B
S1131FA0B1F055C09430D1F164F1953009F443C0D7
S1131FB04EC08091FA0388311CF01092FA0347C096
S1131FC088230CF044C087E18093FA0340C08091D9
S1131FD0FA038C331CF01092FA0339C08823BCF541
S1131FE08BE38093FA0333C08091FA0388301CF0AA
S1131FF01092FA032CC0882354F587E08093FA03E7
S113200026C08091FA0380321CF01092FA031FC09C
S11320108823ECF48FE18093FA0319C08091FA03CA
S11320208D301CF01092FA0312C0882384F48CE0E3
S11320308093FA030CC08091FA0384361CF010924A
S1132040FA0305C088231CF483E68093FA038BB15A
S11320508F7E8BB99F918F912F910F900FBE0F9010
S11320601F901895E9E6F0E08081886080838DB345
S113207082608DBB08951F920F920FB60F921124A8
S11320802F933F934F935F936F937F938F939F937C
S1132090AF93BF93EF93FF9380914D03823091F1FF
S11320A028F4882351F0813061F0EAC0833009F4C8
S11320B0E0C0843009F4E1C0E3C081E080934D03C3
S11320C0DFC08091FB0383781CF481508C6F8F5F99
S11320D0813061F01CF4882331F0D2C0823051F099
S11320E0833061F0CDC010924D03CAC082E080936A
S11320F04D03C6C083E080934D03C2C084E0809347
S11321004D03BEC09091FB0383E99802812D1124F5
S1132110890F85958595E82F97FDE3958E2F880F78
S1132120880F880F8E1BE92FE81B8E2FEE0F990B5B
S1132130AA0BBB0B8730910508F0A2C0FC01EC5C34
S1132140FF4F0C94502980914C03811108C0809159
S1132150FD038093FA0381E080934C0391C0809146
S1132160FA038093FD0381E08093FE030E94ED1641
S113217010924C0385C080914C03811108C080915A
S1132180FF038093FA0381E080934C0379C080912C
S1132190FA038093FF0382E08093FE030E94ED160E
S11321A010924C036DC080914C03811108C0809142
S11321B002048093FA0381E080934C0361C0809110
S11321C0FA038093020486E08093FE030E94ED16D6
S11321D010924C0355C080914C03811108C080912A
S11321E004048093FA0381E080934C0349C08091F6
S11321F0FA038093040483E08093FE030E94ED16A7
S113220010924C033DC080914C03811108C0809111
S1132210FC038093FA0381E080934C0331C08091E6
S1132220FA038093FC0384E08093FE030E94ED167E
S113223010924C0325C080914C03811108C08091F9
S113224000048093FA0381E080934C0319C08091C9
S1132250FA038093000485E08093FE030E94ED1648
S113226010924C030DC01092FE0381E080934D0345
S113227007C081E080934D0303C081E080934D0348
S1132280FF91EF91BF91AF919F918F917F916F914A
S11322905F914F913F912F910F900FBE0F901F9020
S11322A0189584B18E6284B985B1837D85B98AB16C
S11322B08B7F8AB98BB184608BB985B1846085B911
S11322C080E58CBD08958AB180618AB98BB18F7E17
S11322D08BB98AB180688AB98BB18F778BB98AB18F
S11322E080628AB98BB18F7D8BB98AB180648AB9D7
S11322F08BB18F7B8BB98AB1877F8AB984B18E7F8A
S113230084B98BB188608BB985B18F7385B9089511
S11323108EBD0DB407FEFDCF8EB50895E0E6F0E066
S11323208081877F808399E288E10FB6F894A8952D
S1132330809360000FBE909360000E9463118BB184
S113234080618BB90E9451110E94BD1788E090E012
S11323500E94EB170E94A4090E942318A8950E94CA
S113236072160E94DC160E94B8060E946304A895A7
S11323700E946718A8958BB18F7E8BB90E941F0F9E
S11323800E94330FE9E6F0E08081826080838DB3A0
S113239081608DBB0E943210789405E514E080E3DF
S11323A0F801808381839EE292838383EAE4F4E0EC
S11323B0808380934B040F2EF0E42F2EF4E03F2E05
S11323C0F02DF10180839183828383830F2EF3E1C7
S11323D0EF2EF4E0FF2EF02DF701808381839283AA
S11323E08383E5E4F4E08083809346040F2EFAE5CA
S11323F04F2EF4E05F2EF02DF201808391838283CF
S11324008383EFE4F4E080838DE2E8E1F4E0808309
S1132410EEE1F4E080830E943C230F2EFCE3AF2E18
S1132420F4E0BF2EF02DBF92AF920F2EF8E3CF2E23
S1132430F4E0DF2EF02DDF92CF9284E394E09F93BB
S11324408F938CE294E09F938F93C8E2D4E0DF9360
S1132450CF930F2EF4E28F2EF4E09F2EF02D9F9257
S11324608F920F2EFAE16F2EF1E07F2EF02D7F92E6
S11324706F9282EB93E09F938F930E949C290E941A
S11324803C23BF92AF92DF92CF9284E394E09F9378
S11324908F938CE294E09F938F93DF93CF939F92DB
S11324A08F927F926F92CEE9D3E0DF93CF930E9415
S11324B09C29EDB7FEB7B0960FB6F894FEBF0FBED9
S11324C0EDBF0E944F27DF93CF9388E194E09F9361
S11324D08F935F924F923F922F928EE194E09F935D
S11324E08F938FE494E09F938F9385E494E09F937C
S11324F08F938AE494E09F938F93FF92EF921F93BC
S11325000F938CE291E09F938F93CEE4D3E0DF931B
S1132510CF930E949C29CE010E94FF1709900020AE
S1132520E9F72197AE014E54534060E070E08EE429
S113253093E00E948C298DB79EB748960FB6F89405
S11325409EBF0FBE8DBF8091C603813009F040C08D
S1132550E7E5F2E03197F1F700C000008BB180614C
S11325608BB987E592E00197F1F700C000008BB1C9
S11325708F7E8BB90E94AA130E943C238CE394E0C3
S11325809F938F9388E394E09F938F9384E394E0E5
S11325909F938F938CE294E09F938F9388E294E0CF
S11325A09F938F9384E294E09F938F938AE191E0C9
S11325B09F938F9383E091E09F938F930E949C2934
S11325C0EDB7FEB770960FB6F894FEBF0FBEEDBF21
S11325D0C0904803D0904903E0904A03F0904B0325
S11325E0F0EECF16F3E9DF06F4E0EF06F10409F0AC
S11325F077C00E943C238CE394E09F938F9388E3FD
S113260094E09F938F9384E394E09F938F938CE261
S113261094E09F938F9388E294E09F938F9384E256
S113262094E09F938F938AE191E09F938F93CEE9F7
S1132630D3E0DF93CF930E949C290E944F27DF931E
S1132640CF9388E194E09F938F938AE594E09F93DE
S11326508F9380E494E09F938F938EE194E09F9313
S11326608F938FE494E09F938F9385E494E09F93FA
S11326708F938AE494E09F938F9383E194E09F93F4
S11326808F9385E594E09F938F938CE291E09F93E1
S11326908F93CEE4D3E0DF93CF930E949C298DB730
S11326A09EB788960FB6F8949EBF0FBE8DBFCE011D
S11326B00E94FF1709900020E9F72197AE014E54BC
S11326C0534060E070E08EE493E00E948C29109205
S11326D048031092490310924A0310924B0338C0E6
S11326E0C701B60128EB3BE040E050E00E943129ED
S11326F0672B682B692B19F40E944F2729C0C70147
S1132700B60122E330E040E050E00E943129672B1B
S1132710682B692BE9F480914D03823089F028F409
S1132720882341F0813049F013C0833061F0843054
S113273069F00EC00E94C8240BC00E94D71808C0BC
S11327400E94E52005C00E94B11902C00E94251A0A
S1132750A895F9CECF93DF938091C603813009F019
S1132760CDC18091CC03833009F4DDC030F48130D5
S113277069F0823009F47BC0BFC1853009F444C0DC
S113278008F403C1863009F45CC1B6C18091060423
S11327908F5F80930604E5E5F4E001900020E9F7FB
S11327A03197AF0145555440440F551F60E070E028
S11327B085E594E00E948C29ECECF3E02181828190
S11327C090E0982F8827822B99231CF4919581956A
S11327D091096AE070E00E94FB289F938F937F9396
S11327E06F938BE491E09F938F9385E594E09F939F
S11327F08F930E949C298DB79EB708960FB6F894C4
S11328009EBF0FBE8DBF78C1809106048F5F8093F9
S11328100604CAE4D4E0FE0101900020E9F73197F0
S1132820AF014A545440440F551F60E070E0CE019C
S11328300E948C29ECECF3E02181828190E0982FB6
S11328408827822B6AE070E00E94FB287F936F93B5
S11328508EE491E09F938F93DF93CF930E949C2902
S11328600F900F900F900F900F900F9045C1809193
S113287006048F5F80930604E7ECF3E001900020E8
S1132880E9F73197AF01475C5340440F551F60E0AF
S113289070E087EC93E00E948C2920E00BC0822F2B
S11328A090E0FC01E353FC4F3081FC01E953FC4F01
S11328B030832F5F822F90E0ECECF3E00190002056
S11328C0E9F73197EC5CF34031978E179F0738F3A3
S11328D087EC93E00E948D24EC0187EC93E00E9446
S11328E08D24FC0124E630E0CE01B9010E94FB28CE
S11328F09F938F93CF01B9010E94FB287F936F931D
S11329008BE491E09F938F938AE594E09F938F9358
S11329100E949C298DB79EB708960FB6F8949EBF67
S11329200FBE8DBFE9C0809106048F5F80930604BB
S1132930E8E1F4E001900020E9F73197AF01485154
S11329405440440F551F60E070E088E194E00E9419
S11329508C2920E00BC0822F90E0FC01E353FC4F54
S11329603081FC01E85EFB4F30832F5F822F90E0C3
S1132970ECECF3E001900020E9F73197EC5CF340D4
S113298031978E179F0738F3B7C0809106048F5F85
S113299080930604E7E0F4E001900020E9F7319722
S11329A0AF0147505440440F551F60E070E087E08A
S11329B094E00E948C2920E00BC0822F90E0FC015F
S11329C0E353FC4F3081FC01E95FFB4F30832F5F01
S11329D0822F90E0ECECF3E001900020E9F73197CE
S11329E0EC5CF34031978E179F0738F387E094E04F
S11329F00E94AF23EC0187E094E00E94AF23FC0126
S1132A0024E630E0CE01B9010E94FB289F938F9306
S1132A10CF01B9010E94FB287F936F938BE491E06F
S1132A209F938F9380E494E09F938F930E949C29BB
S1132A308DB79EB708960FB6F8949EBF0FBE8DBF94
S1132A405BC0809106048F5F80930604EDE0F4E0A0
S1132A5001900020E9F73197AF014D505440440FE5
S1132A60551F60E070E08DE094E00E948C2920E026
S1132A700BC0822F90E0FC01E353FC4F3081FC013A
S1132A80E35FFB4F30832F5F822F90E0ECECF3E0A9
S1132A9001900020E9F73197EC5CF34031978E17F1
S1132AA09F0738F38DE094E00E947A23EC018DE0D7
S1132AB094E00E947A23FC0124E630E0CE01B901BF
S1132AC00E94FB289F938F93CF01B9010E94FB289A
S1132AD07F936F938BE491E09F938F938EE194E0C7
S1132AE09F938F930E949C298DB79EB708960FB62B
S1132AF0F8949EBF0FBE8DBF1092C603DF91CF9195
S1132B00089585B18B7F85B982EE0E94881182E099
S1132B108A95F1F700C085B1846085B9089585B1BF
S1132B208B7F85B981EE0E94881182E08A95F1F746
S1132B3000C085B1846085B9089585B18B7F85B95E
S1132B4080E50E94881182E08A95F1F700C083E74E
S1132B500E94881185B1846085B90895EF92FF922F
S1132B600F931F93CF93DF938B01C42F95B19B7F5A
S1132B7095B90E9488110BC078018FEFE81AF80A02
S1132B808FEF0E948811F8018083CD2F8701DFEF3A
S1132B90DC0FC111F1CF85B1846085B9DF91CF918C
S1132BA01F910F91FF90EF900895EF92FF920F9372
S1132BB01F93CF93DF938B01C42F95B19B7F95B95E
S1132BC080620E94881182E08A95F1F700C00AC0F1
S1132BD07801EFEFEE1AFE0AF80180810E94881155
S1132BE0CD2F8701DFEFDC0FC111F2CF85B18460F7
S1132BF085B9DF91CF911F910F91FF90EF900895C8
S1132C00CF93C62F95B19B7F95B980620E9488119E
S1132C108C2F0E94881185B1846085B9CF91089565
S1132C20CF93C82F85B18B7F85B98C2F0E948811D3
S1132C30C73019F08FEF0E94881195B1946095B94F
S1132C40CF9108951F920F920FB60F9211242F93D4
S1132C503F934F935F936F937F938F939F93AF9320
S1132C60BF93EF93FF9387E00E94101686FF0AC07C
S1132C7045E06CEC73E081E60E94AE1560E487E009
S1132C800E94001680910604863011F41092060406
S1132C9081E08093C603FF91EF91BF91AF919F9123
S1132CA08F917F916F915F914F913F912F910F90F1
S1132CB00FBE0F901F90189580E00E941016682F89
S1132CC0636080E00E94001685B1826085B98BE262
S1132CD091E00197F1F700C000000E9481150E9465
S1132CE08F15089585B18D7F85B98FE097E201979F
S1132CF0F1F700C000006AE080E00E9400168FE057
S1132D0097E20197F1F700C0000062E081E00E94C1
S1132D10001662E082E00E94001661E083E00E94F7
S1132D2000166FE584E00E9400160E949D1560E085
S1132D308DE10E94001660E08CE10E94001660E7BD
S1132D4087E00E9400166CE485E00E94001666E0AD
S1132D5086E00E94001643E067E171E080E10E9492
S1132D60D51543E067E171E08BE00E94D51565E07D
S1132D7082E10E9400160E945C1608959DEC899FD2
S1132D80912D112496959695969520E1929FA001F8
S1132D901124990F292F220F220F920F891B842BA4
S1132DA00895982F92959F70990F292F220F220F23
S1132DB0920F8F70890F08950E94C11780ED0E94B1
S1132DC0CD178EE00E94CD1780E20E94CD1788E0D7
S1132DD00E94CD170E94C91708950E94C11780ED63
S1132DE00E94CD178091FE03833099F128F481303D
S1132DF061F08230E1F0BEC0853009F498C008F477
S1132E0084C0863009F4A5C0B5C082E00E94CD1705
S1132E108091FD03883128F40E94BE160E94CD17CC
S1132E20A9C080E00E94BE160E94CD17A3C081E015
S1132E300E94CD178091FF038B3328F40E94BE16A5
S1132E400E94CD1797C080E00E94BE160E94CD1745
S1132E5091C084E00E94CD178091FC03823011F56B
S1132E6080910004837079F4809104048D3128F4F6
S1132E700E94BE160E94CD177DC081E00E94BE163E
S1132E800E94CD1777C0809104048C3128F40E94ED
S1132E90BE160E94CD176EC081E00E94BE160E942D
S1132EA0CD1768C021E0843009F020E091E086303D
S1132EB009F090E0292B91E0893009F090E031E0AD
S1132EC08B3009F030E0922B11F4332379F08091A8
S1132ED004048E3128F40E94BE160E94CD174AC005
S1132EE081E00E94BE160E94CD1744C08091040464
S1132EF08F3128F40E94BE160E94CD173BC081E09A
S1132F000E94BE160E94CD1735C085E00E94CD17E1
S1132F108091FC038C3028F40E94BE160E94CD17C9
S1132F2029C081E00E94BE160E94CD1723C086E00E
S1132F300E94CD1780910004833628F40E94BE16A7
S1132F400E94CD1717C081E00E94BE160E94CD17C3
S1132F5011C083E00E94CD1780910204873028F4C9
S1132F600E94BE160E94CD1705C081E00E94BE16C5
S1132F700E94CD170E94C917089580E28093B8007B
S1132F80089584EA8093BC008091BC008823E4F710
S1132F90089584E98093BC0008958093BB0084E87D
S1132FA08093BC008091BC008823E4F7089584ECEE
S1132FB08093BC008091BC008823E4F78091BB001F
S1132FC0089584E88093BC008091BC008823E4F7D2
S1132FD08091BB0008959093C5008093C400E1ECF8
S1132FE0F0E0808188618083E0ECF0E080818260A1
S1132FF08083E2ECF0E080818E6080830895DC01C0
S113300040E080E013C09091C603913029F0909184
S1133010C00095FFF8CF01C041E0413099F0FD01B7
S1133020E20FF31F90819093C6008F5F282F30E04A
S1133030FD0101900020E9F73197EA1BFB0B2E17E5
S11330403F0728F30895EF92FF920F931F93CF93B6
S1133050DF93CDB7DEB7D4500FB6F894DEBF0FBE02
S1133060CDBF9E012F5F3F4F790180E094E0F901CD
S11330709C01119221503040E1F781E00E942D081B
S1133080C7010E94B70C870121E531E040E060E010
S113309088E290E00E94020C2AE531E040E067E01B
S11330A08EE190E00E94020CC7010E944C0880E06F
S11330B00E942D08DC5F0FB6F894DEBF0FBECDBFB3
S11330C0DF91CF911F910F91FF90EF900895EF92B0
S11330D0FF920F931F93CF93DF93CDB7DEB7D450F6
S11330E00FB6F894DEBF0FBECDBF9E012F5F3F4FDA
S11330F0790180E094E0F9019C0111922150304063
S1133100E1F781E00E942D08C7010E94ED0C8701C0
S11331102FE030E040E750E063E270E086E090E0CA
S11331200E94560D27E631E040E061E083E090E044
S11331300E94020C2DE731E040E063E080E190E082
S11331400E94020CC7010E944C086894FF24F3F803
S11331501BC08E010F5F1F4F2BE030E049E050E0B1
S113316065E270E08F2D90E00E94A30DC8010E94DB
S11331704C083FEF82E597E0315080409040E1F702
S113318000C00000EBE0FE0EF4E7FF1510F780E04E
S11331900E942D08DC5F0FB6F894DEBF0FBECDBFD2
S11331A0DF91CF911F910F91FF90EF9008950F93AE
S11331B01F93CF93DF93CDB7DEB7D4500FB6F894F7
S11331C0DEBF0FBECDBF8E010F5F1F4F80E094E0C6
S11331D0F8019C01119221503040E1F781E00E94F6
S11331E02D08C8010E94ED0C2EE831E041E060E0BA
S11331F08EE190E00E94020C8091FB0383781CF422
S113320081508C6F8F5F813079F11CF4882341F0F9
S113321096C0823009F44CC0833009F46DC08FC06D
S11332208E010F5F1F4F2BE931E041E062E08FE038
S113323090E00E94020C2DEA31E040E063E08FE070
S113324090E00E94020C2FEB31E040E064E08FE05C
S113325090E00E94020C27EC31E040E065E08FE052
S113326090E00E94020C6BC08E010F5F1F4F2BE990
S113327031E040E062E08FE090E00E94020C2DEA31
S113328031E041E063E08FE090E00E94020C2FEB1C
S113329031E040E064E08FE090E00E94020C27EC13
S11332A031E040E065E08FE090E00E94020C47C00E
S11332B08E010F5F1F4F2BE931E040E062E08FE0A9
S11332C090E00E94020C2DEA31E040E063E08FE0E0
S11332D090E00E94020C2FEB31E041E064E08FE0CB
S11332E090E00E94020C27EC31E040E065E08FE0C2
S11332F090E00E94020C23C08E010F5F1F4F2BE948
S113330031E040E062E08FE090E00E94020C2DEAA0
S113331031E040E063E08FE090E00E94020C2FEB8C
S113332031E040E064E08FE090E00E94020C27EC82
S113333031E041E065E08FE090E00E94020CCE01B4
S113334001960E944C0880E00E942D08DC5F0FB6B5
S1133350F894DEBF0FBECDBFDF91CF911F910F91C7
S11333600895EF92FF920F931F93CF93DF93CDB7FE
S1133370DEB7D4500FB6F894DEBF0FBECDBF9E01AA
S11333802F5F3F4F790180E094E0F9019C01119295
S113339021503040E1F781E00E942D08C7010E94CE
S11333A0ED0C870120ED31E041E060E089E190E03F
S11333B00E94020C2EED31E040E061E082E090E0FA
S11333C00E94020C23EF31E040E062E080E090E0F4
S11333D00E94020C28E032E040E063E080E090E0EC
S11333E00E94020C2DE132E040E064E080E090E0D5
S11333F00E94020C23E332E040E065E080E090E0CC
S11334000E94020C28E432E040E066E080E090E0B4
S11334100E94020C2DE532E041E067E089E190E092
S11334200E94020CC7010E944C0880E00E942D08F3
S1133430DC5F0FB6F894DEBF0FBECDBFDF91CF9136
S11334401F910F91FF90EF900895EF92FF920F93C9
S11334501F93CF93DF93CDB7DEB7D4500FB6F89454
S1133460DEBF0FBECDBF9E012F5F3F4F790180E0CD
S113347094E0F9019C01119221503040E1F781E080
S11334800E942D08C7010E94ED0C87012AE632E054
S113349041E060E087E090E00E94020C2EE732E019
S11334A040E061E080E090E00E94020C22EB33E017
S11334B040E062E080E090E00E94020C2DE832E0FF
S11334C040E063E080E090E00E94020C21EA32E0F8
S11334D040E064E080E090E00E94020C23E031E0F0
S11334E040E065E080E090E00E94020C2DE532E0CF
S11334F041E067E089E190E00E94020CC7010E946C
S11335004C0880E00E942D08DC5F0FB6F894DEBF03
S11335100FBECDBFDF91CF911F910F91FF90EF9020
S113352008950F931F93CF93DF93EC019C0145E023
S113353050E065E370E08EE690E00E948B0E8E0111
S11335402BE24EE66DE28EE60E94F10C25E348E79D
S113355065E386E70E94F10C25E344E665E386E62D
S11335600E94F10C2FE34EE66DE38EE60E94F10C0F
S11335702EE246E660E388E60E94F10C2EE246E77E
S113358060E384E70E94F10C2CE346E76AE384E7F6
S11335900E94F10C2CE346E66AE388E60E94F10CF3
S11335A0DF91CF911F910F9108950F931F93CF93A4
S11335B0DF93EC019C0145E065E38EE60E94EC0D8F
S11335C08E012BE24EE66DE28EE60E94F10C25E3BD
S11335D048E765E386E70E94F10C2FE34EE66DE3CE
S11335E08EE60E94F10C2EE246E760E384E70E9437
S11335F0F10C2CE346E76AE384E70E94F10C29E32B
S11336004AE669E38AE50E94F10CAE0168E389E5C4
S11336100E942A07AE0167E388E50E942A0726E391
S113362047E564E387E50E94F10CAE0163E388E5B6
S11336300E942A0722E34DE562E389E50E94F10C2A
S1133640AE0163E38EE50E942A0721E34CE56EE2B6
S11336508CE50E94F10CAE016DE28DE50E942A0713
S11336602CE244E66CE28EE50E94F10CAE016DE2C0
S113367085E60E942A0720E346E66EE286E60E947B
S1133680F10CAE0161E385E60E942A0720E34AE6D5
S113369060E386E60E94F10CAE0168E38BE60E94CB
S11336A02A07AE0167E38CE60E942A0726E34DE66B
S11336B063E38DE60E94F10CAE0162E38CE60E94A6
S11336C02A07AE0161E38BE60E942A07AE0162E39A
S11336D08AE60E944B0713E306C0AE01612F89E618
S11336E00E944B071F5F1833C0F3AE0168E38AE6FC
S11336F00E944B07AE0160E38AE60E942A07AE01EE
S113370060E389E60E942A078E0121E341E761E331
S11337108CE60E94F10C22E342E762E38DE60E940C
S1133720F10C23E343E763E38EE60E94F10C24E308
S113373043E764E38EE60E94F10C25E343E765E387
S11337408EE60E94F10C26E343E766E38EE60E94D0
S1133750F10C27E342E767E38DE60E94F10C28E3CE
S113376041E768E38CE60E94F10C29E340E769E352
S11337708BE60E94F10CDF91CF911F910F91089578
S11337800F931F93CF93DF93EC018C0129E34AE657
S113379069E38AE50E94F10CAE0168E389E50E94C1
S11337A02A07AE0167E388E50E942A0726E347E576
S11337B064E387E50E94F10CAE0163E388E50E94AF
S11337C02A0722E34DE562E389E50E94F10CAE018C
S11337D063E38EE50E942A0721E34CE56EE28CE563
S11337E00E94F10CAE016DE28DE50E942A072CE2E5
S11337F044E66CE28EE50E94F10CAE016DE285E6D2
S11338000E942A0720E346E66EE286E60E94F10C57
S1133810AE0161E385E60E942A0720E34AE660E3FD
S113382086E60E94F10CAE0168E38BE60E942A074B
S1133830AE0167E38CE60E942A0726E34DE663E3C4
S11338408DE60E94F10CAE0162E38CE60E942A0729
S1133850AE0161E38BE60E942A0727E349E767E3A9
S11338608EE60E94F10C26E34AE763E38AE70E94AE
S1133870F10CAE0162E389E70E942A0721E348E7DD
S113388061E386E70E94F10CAE0162E385E70E94E2
S11338902A0720E346E76FE286E70E94F10C2EE256
S11338A045E76EE282E70E94F10C21E341E76FE213
S11338B081E70E94F10CAE0162E382E70E942A07CD
S11338C021E340E761E38FE60E94F10CAE0162E37D
S11338D08EE60E942A07DF91CF911F910F910895E0
S11338E00F931F93CF93DF93EC010E94C01B8E01B3
S11338F02DE349E56BE38BE50E94F10C2DE34CE5E8
S11339006BE38EE50E94F10C2DE34FE56BE381E65A
S11339100E94F10C2DE342E66BE384E60E94F10C75
S11339202DE345E66BE387E60E94F10C2DE348E6C0
S11339306BE38AE60E94F10C2AE34EE669E38FE624
S11339400E94F10C2AE341E769E382E70E94F10C4B
S11339502AE344E769E385E70E94F10C2AE347E799
S113396069E388E70E94F10CDF91CF911F910F91D9
S113397008950F931F93CF93DF93EC019C0149E0CB
S113398064E38BE00E94EC0D18E00BC0AE016CE226
S1133990812F0E944B07AE016DE3812F0E944B07DC
S11339A01F5F1F3098F319E20BC0AE01612F89E04D
S11339B00E942A07AE01612F8DE00E942A071F5F33
S11339C01E3298F3AE016AE28AE00E942A07AE0131
S11339D06BE28BE00E942A07AE016CE28CE00E944D
S11339E02A07AE016CE389E00E942A07AE016FE367
S11339F089E00E942A070AE00BC0AE01612F802FE4
S1133A000E942A071E5F01C01BE31034B0F30F5F4E
S1133A100D30D0F3AE016EE38DE00E942A07AE01B3
S1133A206BE38DE00E942A0712E310C0AE01612F00
S1133A3084E10E944B07AE01612F82E10E942A07B4
S1133A40AE01612F82E00E944B071F5F173370F3B2
S1133A50AE0167E383E10E944B07AE0160E383E1BB
S1133A600E942A0703E10BC0AE01612F802F0E9440
S1133A702A071E5F01C012E31733B0F30F5F07314B
S1133A80D0F3AE0167E383E00E944B07AE0160E32D
S1133A9083E00E942A078E0125E342E064E382E08A
S1133AA00E94F10CAE0166E383E00E942A0712E350
S1133AB00BC0AE01612F84E00E942A07AE01612F82
S1133AC080E00E942A071F5F163398F3AE0166E375
S1133AD081E00E942A07AE0164E38BE00E942A077A
S1133AE064EB72E088E194E00E949329892B41F011
S1133AF02EC0AE01612F8BE00E942A071F5F01C018
S1133B001EE21433B0F38E0126E34AE065E38AE053
S1133B100E94F10C26E34CE065E38CE00E94F10C7A
S1133B20AE016FE28AE00E942A07AE016FE28CE0E8
S1133B300E942A0720E34AE060E389E00E94F10C36
S1133B4020E34DE060E38CE00E94F10C96C166EB4B
S1133B5072E088E194E00E949329892B79F58E0123
S1133B6023E34AE062E38AE00E94F10C23E34CE0A1
S1133B7062E38CE00E94F10C15E306C0AE01612FF4
S1133B808BE00E942A071F5F1B33C0F38E0129E3D9
S1133B904AE068E38AE00E94F10CAE0169E38CE03C
S1133BA00E942A07AE0168E389E00E942A0728E3FD
S1133BB04DE068E38CE00E94F10C5FC16AEB72E0B7
S1133BC088E194E00E949329892B79F58E0123E3FF
S1133BD04AE063E389E00E94F10C25E34AE065E3EF
S1133BE089E00E94F10C1CE006C0AE0164E3812F61
S1133BF00E942A071F5F1231C0F3AE0163E380E124
S1133C000E942A078E0125E340E165E38FE00E94CC
S1133C10F10CAE0166E38FE00E942A0723E34FE034
S1133C2062E38FE00E94F10C28C16EEB72E088E140
S1133C3094E00E949329892B79F58E0123E34DE0CA
S1133C4063E38CE00E94F10C25E34DE065E38CE036
S1133C500E94F10C15E006C0AE0164E3812F0E94BE
S1133C602A071F5F1B30C0F3AE0163E386E00E94A6
S1133C702A078E0125E347E065E386E00E94F10C04
S1133C80AE0166E387E00E942A0723E347E062E38C
S1133C9087E00E94F10CF1C068EB72E088E194E0E7
S1133CA00E949329892BB9F5AE0163E38AE00E944F
S1133CB02A07AE0164E389E00E942A07AE0165E3A6
S1133CC08CE00E942A07AE0166E38BE00E942A077B
S1133CD08E012FE240E164E38BE00E94F10C2FE2BD
S1133CE04FE06FE28DE00E94F10CAE0160E38EE0E4
S1133CF00E942A07AE0160E380E10E942A0721E3C3
S1133D0040E161E38FE00E94F10CAE0162E380E1E7
S1133D100E942A07B2C06CEB72E088E194E00E9432
S1133D209329892B91F5AE0163E38CE00E942A0765
S1133D30AE0164E38DE00E942A07AE0165E38AE0E8
S1133D400E942A07AE0166E38BE00E942A078E01D7
S1133D502FE246E064E38BE00E94F10C2FE249E09D
S1133D606FE287E00E94F10CAE0160E388E00E94FC
S1133D702A0722E346E060E386E00E94F10CAE01EC
S1133D8061E387E00E942A0778C060EC72E088E172
S1133D9094E00E949329892BB9F5AE0162E38BE08C
S1133DA00E942A07AE0163E38CE00E942A07AE0159
S1133DB065E38AE00E942A07AE0164E389E00E9479
S1133DC02A078E0129E340E164E38BE00E94F10CB1
S1133DD0AE0169E38FE00E942A07AE0167E38FE03A
S1133DE00E942A0728E340E166E380E10E94F10C87
S1133DF029E34EE068E38EE00E94F10CAE0169E332
S1133E008DE00E942A0739C064EC72E088E194E0F6
S1133E100E949329892B89F5AE0162E38BE00E940D
S1133E202A07AE0163E38AE00E942A07AE0164E335
S1133E308DE00E942A07AE0165E38CE00E942A0708
S1133E408E0129E346E064E38BE00E94F10C28E351
S1133E5046E066E386E00E94F10CAE0167E387E08A
S1133E600E942A0729E349E069E387E00E94F10CF4
S1133E70AE0168E388E00E942A07DF91CF911F9189
S1133E800F910895809101048A3098F41F928F93C2
S1133E9088EC92E09F938F938CE294E09F938F93AE
S1133EA00E949C290F900F900F900F900F900F90ED
S1133EB012C01F928F938EE491E09F938F938CE2B4
S1133EC094E09F938F930E949C290F900F900F90E2
S1133ED00F900F900F908091FF038A3098F41F92F7
S1133EE08F9388EC92E09F938F9388E294E09F9362
S1133EF08F930E949C290F900F900F900F900F901A
S1133F000F9012C01F928F938EE491E09F938F9332
S1133F1088E294E09F938F930E949C290F900F90C6
S1133F200F900F900F900F908091FD038A3098F4BA
S1133F301F928F9388EC92E09F938F9384E294E096
S1133F409F938F930E949C290F900F900F900F9036
S1133F500F900F9012C01F928F938EE491E09F9365
S1133F608F9384E294E09F938F930E949C290F90F7
S1133F700F900F900F900F900F90809104048A304F
S1133F8098F41F928F9388EC92E09F938F9384E32D
S1133F9094E09F938F930E949C290F900F900F9011
S1133FA00F900F900F9012C01F928F938EE491E0A8
S1133FB09F938F9384E394E09F938F930E949C2913
S1133FC00F900F900F900F900F900F90809100041E
S1133FD08A3098F41F928F9388EC92E09F938F938A
S1133FE08CE394E09F938F930E949C290F900F90F1
S1133FF00F900F900F900F9012C01F928F938EE42A
S113400091E09F938F938CE394E09F938F930E940E
S11340109C290F900F900F900F900F900F90E091AC
S113402002048E2F90E0FC013197E730F105D8F5BA
S1134030E55CFF4F0C945029E0E3F4E08FEC9DEE37
S11340409183808312822FC0E0E3F4E082EC92EF4C
S113405091838083128227C0E0E3F4E081ED90EF46
S11340609183808312821FC0E0E3F4E087ED92EF36
S113407091838083128217C0E0E3F4E08FEC92EF27
S11340809183808312820FC0E0E3F4E081ED91EE2E
S113409091838083128207C0E0E3F4E082EC91EF25
S11340A0918380831282E091FC038E2F90E0FC01C7
S11340B03197EC30F10508F087C0EE5BFF4F0C94AC
S11340C05029E4E2F4E08FED9DEE958B848B82EE33
S11340D090E0978B868B0895E4E2F4E084ED95EE0E
S11340E0958B848B82EE90E0978B868B0895E4E227
S11340F0F4E08CEC90EE958B848B80EF90E0978BC2
S1134100868B0895E4E2F4E080EC9FEE958B848B3B
S113411080EF90E0978B868B0895E4E2F4E08CECDA
S113412090EE958B848B89EE90E0978B868B089527
S1134130E4E2F4E088EC9EEF958B848B8DEE90E0C6
S1134140978B868B0895E4E2F4E088EC9EEF958BE0
S1134150848B8BEE90E0978B868B0895E4E2F4E0F9
S113416080EC92EE958B848B83EE90E0978B868B1C
S11341700895E4E2F4E081ED95EE958B848B8DEE69
S113418090E0978B868B0895E4E2F4E08EEC9AEE4F
S1134190958B848B82EF90E0978B868B0895E4E275
S11341A0F4E08DEC9EEE958B848B8FEF90E0978BF3
S11341B0868B0895E4E2F4E084EC95EE958B848B91
S11341C08AEE90E0978B868B08950F931F93CF937D
S11341D0DF93CDB7DEB7D4500FB6F894DEBF0FBE71
S11341E0CDBF8E010F5F1F4F80E094E0F8019C016A
S11341F0119221503040E1F70E94421F81E00E9459
S11342002D08C8010E94ED0C2CEC32E041E060E086
S11342108FE090E00E94020C9091FB0383E99802E6
S1134220812D1124890F85958595E82F97FDE395B8
S11342308E2F880F880F880F8E1BE92FE81B8E2F77
S1134240EE0F990BAA0BBB0B8730910508F0D8C170
S1134250FC01E25BFF4F0C94502980914C038823AE
S113426021F08091FA038093FD038E010F5F1F4FAD
S113427024E234E041E062E080E290E00E94C00B7E
S113428028E234E040E062E08EE390E00E94C00B5C
S113429020E334E040E065E08CE190E00E94020C11
S11342A024E334E040E065E081E390E00E94020C06
S11342B028E334E040E065E086E490E00E94020CEC
S11342C02CE334E040E065E08FE590E00E94020CCE
S11342D02DE532E040E067E089E190E00E94020CC5
S11342E08FC180914C03882321F08091FA0380933D
S11342F0FF038E010F5F1F4F24E234E040E062E0D1
S113430080E290E00E94C00B28E234E041E062E0E9
S11343108EE390E00E94C00B20E334E040E065E0CF
S11343208CE190E00E94020C24E334E040E065E07C
S113433081E390E00E94020C28E334E040E065E071
S113434086E490E00E94020C2CE334E040E065E057
S11343508FE590E00E94020C2DE532E040E067E03A
S113436089E190E00E94020C4BC180914C038823A8
S113437021F08091FA03809302048E010F5F1F4F96
S113438024E234E040E062E080E290E00E94C00B6E
S113439028E234E040E062E08EE390E00E94C00B4B
S11343A020E334E041E065E08CE190E00E94020CFF
S11343B024E334E040E065E081E390E00E94020CF5
S11343C028E334E040E065E086E490E00E94020CDB
S11343D02CE334E040E065E08FE590E00E94020CBD
S11343E02DE532E040E067E089E190E00E94020CB4
S11343F007C180914C03882321F08091FA038093B4
S113440004048E010F5F1F4F24E234E040E062E0B9
S113441080E290E00E94C00B28E234E040E062E0D9
S11344208EE390E00E94C00B20E334E040E065E0BE
S11344308CE190E00E94020C24E334E041E065E06A
S113444081E390E00E94020C28E334E040E065E060
S113445086E490E00E94020C2CE334E040E065E046
S11344608FE590E00E94020C2DE532E040E067E029
S113447089E190E00E94020CC3C080914C03882320
S113448021F08091FA038093FC038E010F5F1F4F8C
S113449024E234E040E062E080E290E00E94C00B5D
S11344A028E234E040E062E08EE390E00E94C00B3A
S11344B020E334E040E065E08CE190E00E94020CEF
S11344C024E334E040E065E081E390E00E94020CE4
S11344D028E334E041E065E086E490E00E94020CC9
S11344E02CE334E040E065E08FE590E00E94020CAC
S11344F02DE532E040E067E089E190E00E94020CA3
S11345007FC080914C03882321F08091FA0380932B
S113451000048E010F5F1F4F24E234E040E062E0AC
S113452080E290E00E94C00B28E234E040E062E0C8
S11345308EE390E00E94C00B20E334E040E065E0AD
S11345408CE190E00E94020C24E334E040E065E05A
S113455081E390E00E94020C28E334E040E065E04F
S113456086E490E00E94020C2CE334E041E065E034
S11345708FE590E00E94020C2DE532E040E067E018
S113458089E190E00E94020C3BC08E010F5F1F4F37
S113459024E234E040E062E080E290E00E94C00B5C
S11345A028E234E040E062E08EE390E00E94C00B39
S11345B020E334E040E065E08CE190E00E94020CEE
S11345C024E334E040E065E081E390E00E94020CE3
S11345D028E334E040E065E086E490E00E94020CC9
S11345E02CE334E040E065E08FE590E00E94020CAB
S11345F02DE532E041E067E089E190E00E94020CA1
S11346008E010F5F1F4F2EED32E040E063E087E341
S113461090E00E94020C20EE32E040E063E085E589
S113462090E00E94020C24EE32E040E065E08AE271
S113463090E00E94020C26EE32E040E065E08FE359
S113464090E00E94020C26EE32E040E065E089E54D
S113465090E00E94020CC8010E944C0880E00E9475
S11346602D08DC5F0FB6F894DEBF0FBECDBFDF911F
S1134670CF911F910F9108950E94C11780ED0E9460
S1134680CD1780E00E94CD170E94C9170E94C11760
S113469081ED0E94CD170E94D7170E94D1168093F6
S11346A001040E94D7170E94D1168093FF030E9431
S11346B0D7170E94D1168093FD030E94D7170E943A
S11346C0D116809302040E94D7170E94D1168093BA
S11346D004040E94D7170E94D1168093FC030E9401
S11346E0E1170E94D116809300040E94C9170E940A
S11346F0421F0895CF93DF9300D0CDB7DEB7FC01FE
S113470020812223A1F09E012F5F3F4F3F932F93DF
S11347102EE431E03F932F939F938F930E94BE2901
S11347200F900F900F900F900F900F9002C01A826D
S1134730198269817A81072E000C880B990B0E94DB
S1134740F2272CEB34E743E15EE30E9456280E94F3
S1134750BA27CB010F900F90DF91CF910895CF939B
S1134760DF9300D0CDB7DEB7FC0120812223A1F076
S11347709E012F5F3F4F3F932F932EE431E03F93F1
S11347802F939F938F930E94BE290F900F900F90A9
S11347900F900F900F9002C01A82198269817A815A
S11347A0072E000C880B990B0E94F2272CEE31E5A2
S11347B048E35FE30E9456280E94BA27CB010F907A
S11347C00F90DF91CF910895EF92FF920F931F9373
S11347D0CF93DF937C018C012CE148E26CE182E20F
S11347E00E94F10C2BE142E263E182E20E94F10CAF
S11347F02BE148E263E188E20E94F10C23E144E208
S113480063E182E20E94F10C23E148E263E186E283
S11348100E94F10C23E144E262E184E20E94F10C83
S113482023E146E262E186E20E94F10C22E146E2E3
S113483062E184E20E94F10C87E094E00E94AF23DD
S1134840803991400CF048C087E094E00E94AF2387
S1134850863891403CF087E094E00E94AF23803991
S11348609140E4F187E094E00E94AF238C379140BB
S11348703CF087E094E00E94AF238638914084F1B5
S113488087E094E00E94AF23823791403CF087E0B8
S113489094E00E94AF238C37914024F187E094E0A8
S11348A00E94AF23883691403CF087E094E00E9458
S11348B0AF2382379140C4F087E094E00E94AF2395
S11348C08E3591409CF087E094E00E94AF238836B7
S11348D0914074F4D1E00DC0D6E00BC0D5E009C01E
S11348E0D4E007C0D3E005C0D2E003C0D0E001C0EB
S11348F0D0E0C0E009C06AE16C1B8701262F46E2C4
S113490084E20E94F10CCF5FCD17A8F3DF91CF9121
S11349101F910F91FF90EF900895CF93DF9300D0F4
S1134920CDB7DEB7FC0120812223A1F09E012F5FC9
S11349303F4F3F932F932EE431E03F932F939F9368
S11349408F930E94BE290F900F900F900F900F909D
S11349500F9002C01A82198269817A81072E000C95
S1134960880B990B0E94F2272BE734E142E652E4CC
S11349700E94562820E030E040E85EE30E9456287A
S11349800E94BA27CB010F900F90DF91CF91089529
S1134990CF92DF92EF92FF920F931F93CF93DF9307
S11349A0CDB7DEB7CA50D4400FB6F894DEBF0FBE01
S11349B0CDBF9E012F5F3F4F790180E094E0F90164
S11349C09C01119221503040E1F76E013FEFC31A70
S11349D03BEFD30A8AE0F60111928A95E9F781E068
S11349E00E942D08C7010E94ED0C0E943C2388E21E
S11349F094E09F938F9384E294E09F938F9388EE47
S1134A0092E09F938F93DF92CF920E949C2987011B
S1134A10960140E060E082E090E00E94C00B2CE24E
S1134A2034E040E060E08FE390E00E94020C20E379
S1134A3034E040E061E08DE390E00E94020C24EE5B
S1134A4032E040E061E089E490E00E94020C24E35B
S1134A5034E040E061E08CE490E00E94020C26EE39
S1134A6032E040E061E088E590E00E94020C28E337
S1134A7034E040E061E08DE590E00E94020C26EE17
S1134A8032E040E061E08FE690E00E94020C2CE30B
S1134A9034E040E061E084E790E00E94020C809101
S1134AA000010FB6F894DEBF0FBECDBF813049F4CC
S1134AB087012EEE32E040E060E084E690E00E9460
S1134AC0020C8E010F5F1F4F20E042E566E082E595
S1134AD00E94F10C20E045E560E08FE40E94F10CB7
S1134AE0A80161E080E50E942A07A80162E081E54F
S1134AF00E942A07A80163E082E50E942A07A80110
S1134B0061E084E50E942A07A80162E083E50E942F
S1134B102A07FF24F3940CC08996880F27E02F19E5
S1134B208E010F5F1F4F482F66E00E94F10CF39433
S1134B308F2D90E02091060430E02F5F3F4F8217C5
S1134B40930754F38E010F5F1F4F24EF32E040E0D0
S1134B5064E08EE190E00E94020C27EF32E040E036
S1134B6064E08AE390E00E94020C2AE434E040E02E
S1134B7063E08BE290E00E94100B25E534E040E016
S1134B8063E081E090E00E94100B20E434E040E018
S1134B9062E08CE290E00E94680B2AE534E040E099
S1134BA065E08AE190E00E94680B29EF32E040E082
S1134BB065E08DE290E00E94020C2DEF32E040E0CF
S1134BC066E08EE190E00E94020C24E348E164E395
S1134BD08BE10E94F10C2BE348E164E388E10E943D
S1134BE0F10C2BE34CE16BE388E10E94F10CA8018A
S1134BF06AE38BE10E942A07A8016CE38BE10E941F
S1134C002A07A80169E38AE10E942A07A8016DE343
S1134C108AE10E942A078DE094E00E947A238A3573
S1134C2091054CF024E033E040E067E08EE190E051
S1134C300E94020C55C08DE094E00E947A238A35CC
S1134C40910594F48DE094E00E947A23C29764F075
S1134C508E010F5F1F4F2EE033E040E067E08EE1EE
S1134C6090E00E94020C3CC08DE094E00E947A2304
S1134C70C29794F48DE094E00E947A23499764F0FB
S1134C808E010F5F1F4F25E133E040E067E08EE1C6
S1134C9090E00E94020C24C08DE094E00E947A23EC
S1134CA049979CF48DE094E00E947A231816190623
S1134CB064F48E010F5F1F4F2FE133E040E067E0A3
S1134CC08EE190E00E94020C0BC08E010F5F1F4F1B
S1134CD027E233E040E067E08EE190E00E94020CBE
S1134CE08E010F5F1F4F24EF32E040E064E08FE558
S1134CF090E00E94020C23E134E040E063E082E4AF
S1134D0090E00E94100B27EF32E040E064E08BE774
S1134D1090E00E94020C25E434E040E063E08CE67D
S1134D2090E00E94100B2FE434E040E062E086E55E
S1134D3090E00E94680B22E333E040E062E085E605
S1134D4090E00E94020C25E333E040E062E082E759
S1134D5090E00E94020C28E333E040E062E082E04D
S1134D6090E00E94020C2EE333E040E062E081E434
S1134D7090E00E94020C20E140E860E180E00E94A3
S1134D80F10C28E140E268E180E00E94F10C28E1A6
S1134D9040E261E180E20E94F10C28E140E061E13F
S1134DA080E00E94F10C28E143E568E180E40E9480
S1134DB0F10C28E143E561E183E50E94F10C29E26D
S1134DC04FE361E18FE30E94F10C29E240E869E2DC
S1134DD08FE30E94F10CC8010E94E423C8010E94E1
S1134DE0B91C87EC93E00E948D24892B59F48DE043
S1134DF094E00E947A238A35910524F0C8010E9428
S1134E00911A36C087EC93E00E948D24893E93402A
S1134E102CF0CE0101960E94C01B2AC087EC93E0BF
S1134E200E948D241816190664F48DE094E00E9403
S1134E307A238A3591052CF0CE0101960E94D51A69
S1134E4017C08DE094E00E947A238535910564F4BF
S1134E508DE094E00E947A23181619062CF4CE01F2
S1134E6001960E94701C04C0CE0101960E94911A02
S1134E70CE0101960E944C0880E00E942D08C65F76
S1134E80DB4F0FB6F894DEBF0FBECDBFDF91CF91DD
S1134E901F910F91FF90EF90DF90CF9008950F93A3
S1134EA01F93CF93DF9383ED93E00E94C906882379
S1134EB0D9F0E3EDF3E0C281D0E0DC2FCC2781818F
S1134EC0C82BDD231CF4D195C195D109E3EDF3E0A2
S1134ED0848190E0982F88272381822B6AE070E0F8
S1134EE00E94FB28162F072FCE016AE070E00E9473
S1134EF0FB289F938F937F936F938BE491E09F9311
S1134F008F9383E194E09F938F930E949C290F9346
S1134F101F93CEE4D1E0DF93CF9385E494E09F9395
S1134F208F930E949C290E9448050E94F2272FE833
S1134F3032EC45EF5BE30E9456280E94BA27609347
S1134F40D1037093D2037F936F93DF93CF938FE456
S1134F5094E09F938F930E949C298DB79EB74496AB
S1134F600FB6F8949EBF0FBE8DBFDF91CF911F91F6
S1134F700F9108950E94C1276894B1110C94502890
S1134F8008950E94352888F09F5798F0B92F9927E3
S1134F90B751B0F0E1F0660F771F881F991F1AF020
S1134FA0BA95C9F714C0B13091F00E944F28B1E00E
S1134FB008950C944F28672F782F8827B85F39F00D
S1134FC0B93FCCF3869577956795B395D9F73EF4B9
S1134FD090958095709561957F4F8F4F9F4F089561
S1134FE0E89409C097FB3EF490958095709561957F
S1134FF07F4F8F4F9F4F9923A9F0F92F96E9BB2735
S11350009395F695879577956795B795F111F8CFB0
S1135010FAF4BB0F11F460FF1BC06F5F7F4F8F4F1B
S11350209F4F16C0882311F096E911C0772321F011
S11350309EE8872F762F05C0662371F096E8862FA9
S113504070E060E02AF09A95660F771F881FDAF700
S1135050880F9695879597F9089557FD9058440FB2
S1135060551F59F05F3F71F04795880F97FB991FC3
S113507061F09F3F79F08795089512161306140680
S1135080551FF2CF4695F1DF08C01616170618060D
S1135090991FF1CF86957105610508940895E894E8
S11350A0BB2766277727CB0197F908950E946928C3
S11350B00C94DA280E94CC2838F00E94D32820F0DF
S11350C0952311F00C94C3280C94C92811240C9432
S11350D050280E942D2870F3959FC1F3950F50E03E
S11350E0551F629FF001729FBB27F00DB11D639F96
S11350F0AA27F00DB11DAA1F649F6627B00DA11D3C
S1135100661F829F2227B00DA11D621F739FB00DE1
S1135110A11D621F839FA00D611D221F749F332751
S1135120A00D611D231F849F600D211D822F762FEA
S11351306A2F11249F5750409AF0F1F088234AF0C7
S1135140EE0FFF1FBB1F661F771F881F9150504033
S1135150A9F79E3F510580F00C94C3280C94502865
S11351605F3FE4F3983ED4F3869577956795B795BA
S1135170F795E7959F5FC1F7FE2B880F911D9695D4
S1135180879597F9089597F99F6780E870E060E044
S113519008959FEF80EC089500240A9416161706CC
S11351A018060906089500240A9412161306140614
S11351B005060895092E0394000C11F4882352F077
S11351C0BB0F40F4BF2B11F460FF04C06F5F7F4F2F
S11351D08F4F9F4F0895DB018F939F930E94562911
S11351E0BF91AF91A29F800D911DA39F900DB29F7F
S11351F0900D1124089597FB072E16F4009407D000
S113520077FD09D00E94692907FC05D03EF49095EA
S113521081959F4F0895709561957F4F0895A1E200
S11352201A2EAA1BBB1BFD010DC0AA1FBB1FEE1F1C
S1135230FF1FA217B307E407F50720F0A21BB30B67
S1135240E40BF50B661F771F881F991F1A9469F7E3
S113525060957095809590959B01AC01BD01CF013F
S11352600895052E97FB1EF400940E94482957FDCB
S113527007D00E940F2907FC03D04EF40C94482950
S113528050954095309521953F4F4F4F5F4F08956E
S113529090958095709561957F4F8F4F9F4F08959E
S11352A0EE0FFF1F0590F491E02D09940E947D29D3
S11352B0A59F900DB49F900DA49F800D911D112466
S11352C00895B7FF0C9456290E945629821B930B0C
S11352D00895AA1BBB1B51E107C0AA1FBB1FA61739
S11352E0B70710F0A61BB70B881F991F5A95A9F78B
S11352F080959095BC01CD010895A29FB001B39F04
S1135300C001A39F700D811D1124911DB29F700DCA
S1135310811D1124911D0895DC0101C06D9341503C
S11353205040E0F70895FB01DC018D910190801954
S11353300110D9F3990B0895AEE0B0E0E2EAF9E286
S11353400C94912F0D891E8986E08C831A8309831E
S11353508FEF9FE79E838D83AE01475E5F4F6F891A
S1135360788DCE0101960E94D729EF81F885E00F50
S1135370F11F10822E96E4E00C94AD2FAEE0B0E065
S1135380E4ECF9E20C94932F85E08C838B899C895F
S11353909A838983AE01495E5F4F6D897E89CE0110
S11353A001960E94542D2E96E2E00C94AF2FABE0B0
S11353B0B0E0EDEDF9E20C94832F6C017B018A01DE
S11353C0FC0117821682838181FFCCC1CE01019634
S11353D03C01F6019381F70193FD859193FF81913F
S11353E07F01882309F4BAC1853239F493FD85918C
S11353F093FF81917F01853229F4B60190E00E94E8
S1135400CD2EE7CF912C212C312CFFE1F315D8F0D0
S11354108B3279F038F4803279F08332A1F4232D81
S113542020611DC08D3261F0803369F4232D216029
S113543016C0832D8260382EE32DE4603E2E2AC0F0
S1135440F32DF8601DC037FC2DC020ED280F2A3045
S113545040F08E32B9F436FC81C1232D2064322E03
S113546019C036FE06C08AE0989E200D1124922EA3
S113547011C0EAE02E9E200D1124222EF32DF0629D
S11354803F2E08C08C3621F4832D8068382E02C04C
S1135490883641F4F70193FD859193FF81917F0153
S11354A08111B3CF982F9F7D9554933028F40C5FCE
S11354B01F4F9FE399830DC0833631F0833771F01A
S11354C0833509F059C021C0F801808189830E5FBA
S11354D01F4F88248394912C530113C02801F2E0B8
S11354E04F0E511CF801A080B18036FE03C0692D17
S11354F070E002C06FEF7FEFC5010E94842E4C0163
S11355008201F32DFF773F2E16C0280122E0420EC0
S1135510511CF801A080B18036FE03C0692D70E0F3
S113552002C06FEF7FEFC5010E94792E4C01F32D6D
S1135530F0683F2E820133FC1BC0822D90E0881658
S11355409906B0F4B60180E290E00E94CD2E2A9430
S1135550F4CFF50137FC859137FE81915F01B601E7
S113556090E00E94CD2E21102A9421E0821A910805
S11355708114910471F7E8C0843611F0893641F53D
S1135580F80137FE07C060817181828193810C5FCD
S11355901F4F08C060817181072E000C880B990B86
S11355A00E5F1F4FF32DFF763F2E97FF09C0909596
S11355B08095709561957F4F8F4F9F4FF0683F2E78
S11355C02AE030E0A3010E94222F882E861845C0CD
S11355D0853731F4232D2F7EB22E2AE030E025C00A
S11355E0932D997FB92E8F36C1F018F4883579F050
S11355F0B5C0803719F0883721F0B0C0E92FE061D9
S1135600BE2EB4FE0DC0FB2DF460BF2E09C034FEC7
S11356100AC0292F2660B22E06C028E030E005C05B
S113562020E130E002C020E132E0F801B7FE07C01B
S113563060817181828193810C5F1F4F06C06081FC
S1135640718180E090E00E5F1F4FA3010E94222F22
S1135650882E8618FB2DFF773F2E36FE0DC0232D96
S11356602E7FA22E891458F434FE0BC032FC09C0DC
S1135670832D8E7EA82E05C0B82CA32C03C0B82C75
S113568001C0B92CA4FE0FC0FE01E80DF11D8081FC
S1135690803321F49A2D997EA92E09C0A2FE06C05A
S11356A0B394B39404C08A2D867809F0B394A3FC10
S11356B011C0A0FE06C0B21488F4280C922C9B18CA
S11356C00EC0B21460F4B60180E290E00E94CD2EC8
S11356D0B394F7CFB21418F42B1802C0982C212CD1
S11356E0A4FE10C0B60180E390E00E94CD2EA2FE7D
S11356F017C0A1FC03C088E790E002C088E590E0F1
S1135700B6010CC08A2D867859F0A1FE02C08BE246
S113571001C080E2A7FC8DE2B60190E00E94CD2E8C
S1135720891438F4B60180E390E00E94CD2E9A9457
S1135730F7CF8A94F301E80DF11D8081B60190E062
S11357400E94CD2E8110F5CF222009F442CEB6015D
S113575080E290E00E94CD2E2A94F6CFF601868155
S1135760978102C08FEF9FEF2B96E2E10C949F2F5D
S113577020FD09C0FC0123FD05C022FF02C0738384
S1135780628351834083089544FD17C046FD17C0CA
S1135790AB01BC01DA01FB01AA0FBB1FEE1FFF1F07
S11357A01094D1F74A0F5B1F6E1F7F1FCB01BA0104
S11357B0660F771F881F991F09C033E001C034E0CA
S11357C0660F771F881F991F3150D1F7620F711D23
S11357D0811D911D08950F931F93CF93DF938C0127
S11357E0C8010E948F2EEC0197FD08C00E94652E0F
S11357F0892BB1F7B801CE010E94092FCE01DF91A8
S1135800CF911F910F9108958F929F92AF92BF9263
S1135810EF92FF920F931F93CF93DF938C01D62FB8
S11358207A01B22E0E948F2E9C0133272B32310530
S113583031F02D32310561F48B2D8068B82ED150B2
S113584011F480E068C0C8010E948F2E97FDF9CF43
S1135850CB2DCD7F2B2D207309F58033F9F4AA24A9
S1135860AA94AD0E09F443C0C8010E948F2E97FD7F
S11358703EC09C012F7D33272835310549F4C2648D
S1135880D250A9F1C8010E948F2E97FF07C02FC0E4
S1135890B6FE02C0C26001C0C261DA2D812C912C17
S11358A0540120ED280F283080F0C4FF04C0B80153
S11358B00E94092F19C02A3040F0C6FFF8CF2F7D6F
S11358C03FEE320F363098F727504C2FC501B40104
S11358D00E94C42B4B015C01C260D15059F0C80135
S11358E00E948F2E97FFDDCFC1FD04C0AACF812C6B
S11358F0912C5401C7FF08C0B094A0949094809454
S1135900811C911CA11CB11C2C2FB501A401C70141
S11359100E94B82B81E0DF91CF911F910F91FF90EE
S1135920EF90BF90AF909F908F900895A0E2B0E069
S1135930ECE9FCE20C94862F5C01962E7A01F901C5
S11359408E010F5F1F4F680180E2D8011D928A9576
S1135950E9F7D50113968C9080E090E0612C712CCE
S113596030E061E070E083FC259183FE21918F019A
S1135970522E211103C080E090E092C02E3511F424
S1135980009751F1432F50E0481759073CF42D3547
S113599059F12D3219F4772009F103C0772009F465
S11359A06AC0452D469546954695D601A40FB11D6E
S11359B0452D47708B0102C0000F111F4A95E2F775
S11359C0A8015C91452B4C93651459F0561410F4BE
S11359D05394E7CF5A94E5CF31E004C0772473940D
S11359E001C0712C0196BFCF772019F08E8180629F
S11359F08E83311103C08824839417C0F6019E015D
S1135A002F5D3F4F8081809581932E173F07D1F7FB
S1135A10F2CFE114F10429F0D7018C93F701319608
S1135A207F019A94812C9920F9F0C5010E948F2E50
S1135A3097FD18C0FC01FF2723E0F595E7952A950B
S1135A40E1F7EC0DFD1D208130E0AC0147705527D6
S1135A5002C0359527954A95E2F720FDDACFB501C6
S1135A600E94092F811087CFE114F10411F0D701AE
S1135A701C92C80115C0422F469546954695D601FD
S1135A80A40FB11D422F47708B0102C0000F111FDC
S1135A904A95E2F7A8015C91452B4C93622EA2CF64
S1135AA0A096EFE00C94A22FA0E0B0E0EAE5FDE2BE
S1135AB00C94862F6C01EB015A01FC0117821682AB
S1135AC0512CF601E380FE01E3FC8591E3FE819114
S1135AD0182FEF01882309F4EEC090E00E94652E90
S1135AE0892B21F0C6010E94EB2BEBCF153241F438
S1135AF0FE01E3FC1591E3FE1191EF01153281F4EF
S1135B00C6010E948F2E97FDD4C0412F50E09C0106
S1135B10332724173507A9F2B6010E94092FCBC0F9
S1135B201A3239F4E3FC1591E3FE1191EF0101E01F
S1135B3001C000E0F12C20ED210F2A3080F4026036
S1135B406F2D70E080E090E040E20E94C42BF62EBE
S1135B50FE01E3FC1591E3FE1191EF01ECCF01FF8F
S1135B6003C0F11003C0A7C0FF24FA94183619F03B
S1135B701C3651F010C0FE01E3FC1591E3FE1191B7
S1135B80EF01183641F408600460FE01E3FC15914E
S1135B90E3FE1191EF01112309F48DC0612F70E030
S1135BA08AEA90E00E946E2E892B09F484C000FDDD
S1135BB007C0F50180809180C50102965C0102C096
S1135BC0812C912C1E3651F4F6014681578160E0F8
S1135BD070E0202FC4010E94B82B73CF1336A9F4B0
S1135BE001FD02C0FF24F394C6010E948F2E97FD8D
S1135BF060C08114910429F0F4018083C4010196EA
S1135C004C01FA94F110F0CF50C01B3559F49E01A9
S1135C10A4016F2DC6010E94962CEC01892B09F07A
S1135C2044C03EC0C6010E94EB2B97FD42C01F3604
S1135C3061F128F4143639F1193651F128C01337BB
S1135C4071F0153701F123C08114910429F0F40196
S1135C506082C40101964C01FA94FF2071F0C601E0
S1135C600E948F2E3C0197FD08C00E94652E892B4F
S1135C7059F3B601C3010E94092F81149104A9F0BC
S1135C80F401108212C0006203C0006101C000640C
S1135C90202FA4016F2DC6010E94042C811105C080
S1135CA0F6018381807329F406C000FD0ACF539462
S1135CB008CF552019F0852D90E002C08FEF9FEF9B
S1135CC0CDB7DEB7EFE00C94A22F91110C94802F86
S1135CD0803219F089508550C8F70895FC01059069
S1135CE0061621F00020D9F7C00108953197CF019D
