:100000000C941D030C9454130C946E0E0C943A0330
:100010000C943A030C943A030C943A030C943A036C
:100020000C943A030C943A030C943A030C94750D17
:100030000C943A030C943A030C94990D0C943A03E3
:100040000C943A030C943A030C943A030C943A033C
:100050000C943A030C943A030C943A030C943A032C
:100060000C943A030C943A03D60EEE0E060F1E0FB4
:10007000360F4E0F660F601C681C701C781C801CAD
:10008000881C901CA51CB01CBB1CC61CD11CDC1CF5
:10009000E71CF21CFD1C081D131D1E1D711DB51D46
:1000A000F91D3D1E811EC51E091F6364696E6F70B8
:1000B000737578585B0000E0F8FC3E070301E1FE31
:1000C000FC3F7F878080E07C3F1F0700000000002E
:1000D00002E2FEFF1F03008080C0F8FFFF87800060
:1000E00000000000000C06030387FF7E1C80C0E0B8
:1000F000F0E8E4E3E1F01800000000808482C3C36C
:100100007F3F1E60E0C0C08081437F3F1E00000033
:100110000000804020F0F8FC1E101C1A1918F8FE90
:10012000FF1F190800004078F6E7E7C7870703605C
:10013000E0C08080417F3F0F000000C0E0F8785CA5
:100140004EC6C381013F7FFF8180C0F07F3F0F001B
:10015000080E07070787671F0701008060100C0360
:1001600000000000000000003C7EFFE3C1C17F3EB4
:100170001C3C7EFF838081C37F7F1E0000F0FCFE5D
:100180000F0301C1FFFEFC80C1C363723A1E0F075B
:1001900003000000000000383838000000000000B4
:1001A000383838000000000080C0602060C0803F08
:1001B0007FC080C07F3F002020E0E0000000808002
:1001C000FFFF808080C06060E0C00080C0E0D8CFCA
:1001D000C3E080406060E0C000C0C084868F7D388E
:1001E00000000080C0E00038343231FFFF3000C032
:1001F0006060606020C2C3C383864E3C0080C04004
:100200006020203E7FC382C67C38C060606060E0B2
:1002100020000080700E0100C0E0202020E0C071AE
:10022000FB87868EFF7980C0602060C0808387CC8A
:1002300048783F0F000000000000000000C0C00030
:100240000000FC8484FC0008FC0088C4A49C448456
:10025000947C6050FC4058949464789494640004B6
:10026000F40C6C94946C98A4A478008000000000B6
:100270000000000000004F00000000070007000021
:1002800000147F147F1400242A7F2A1200231308ED
:100290006462003649552240000005030000001C3E
:1002A000224100000041221C00000014083E0814F6
:1002B0000008083E080800A06000000000080808C8
:1002C0000808006060000000002010080402003EE2
:1002D0005149453E0000427F40000042615149467D
:1002E000002141454B31001814127F10002745456D
:1002F0004539003C4A49493000017109050300367F
:100300004949493600064949291E006C6C00000025
:100310000000563600000008142241000024242466
:100320002424000041221408000201510906003271
:100330004979413E007E1111117E007F49494936BD
:10034000003E41414122007F4141221C007F49493A
:100350004941007F09090901003E4149493A007FAE
:100360000808087F0000417F4100002040413F0114
:10037000007F08142241007F40404040007F020C73
:10038000027F007F0408107F003E4141413E007F14
:1003900009090906003E4151215E007F09192946DD
:1003A0000046494949310001017F0101003F4040B9
:1003B000403F001F2040201F003F4060403F00633F
:1003C0001408146300070870080700615149454389
:1003D000007F414100000015167C16150041417F49
:1003E00000000004020102040040404040400001BF
:1003F00002040000002054545478007F44444438E0
:1004000000384444440000384444487F0038545481
:10041000541800107E110102000C5252523E007F0F
:10042000080404780000447D4000002040403D0066
:10043000007F102844000000417F4000007C041829
:100440000478007C08040478003844444438007C74
:100450001414140800081414187C007C0804040800
:1004600000485454542000043F444020003C404085
:10047000207C001C2040201C001E2010201E00227A
:100480001408142200064848483E004464544C4472
:100490000008364100000000007F000000413608DF
:1004A00000000008082A1C08007E1111117E007F40
:1004B00049494933007F49494936007F0101010319
:1004C00000E0514F41FF007F494949410077087FD3
:1004D0000877004149494936007F1008047F007CB5
:1004E0002112097C007F081422410020413F017F36
:1004F000007F020C027F007F0808087F003E414118
:10050000413E007F0101017F007F09090906003E8D
:10051000414141220001017F0101004728100807E5
:10052000001C227F221C006314081463007F4040DB
:1005300040FF00070808087F007F407F407F007F62
:10054000407F40FF00017F484830007F4830007FF7
:1005500000007F48483000224149493E007F083E64
:10056000413E00462919097F002054545478003C2C
:100570004A4A4931007C54542800007C0404040C8D
:1005800000E0544C44FC003854545418006C107C67
:10059000106C004444545428007C2010087C007CDB
:1005A0004122117C007C102844000020443C047C43
:1005B000007C0810087C007C1010107C003844443B
:1005C0004438007C0404047C007C141414080038B3
:1005D000444444280004047C0404000C5050503C63
:1005E000003048FC4830004428102844007C40403B
:1005F00040FC000C1010107C007C407C407C007C97
:10060000407C40FC00047C505020007C5050207CFA
:10061000007C50502000002844545438007C10388E
:10062000443800085434147C007E4B4A4B42003856
:100630005554551800000609090611241FBECFEFB6
:10064000D8E0DEBFCDBF13E0A0E0B1E0E8ECF7E515
:1006500002C005900D92AE31B107D9F723E0AEE1AB
:10066000B3E001C01D92AA3FB207E1F70E94C10F9B
:100670000C94E22B0C9400000F931F93CF93DF9305
:10068000C82F0E94F3148EEE0E94FF148C2F0E943C
:10069000FF140E94FB140E94F3148FEE0E94FF14BB
:1006A0000E940915C82FD0E00E941315082F10E0F2
:1006B0000E94FB149C2F8827800F911FDF91CF9100
:1006C0001F910F9108958AEA0E943C0390937C0346
:1006D00080937B038CEA0E943C0390938403809375
:1006E00083038EEA0E943C039093940380939303C8
:1006F00080EB0E943C03909388038093870382EBF6
:100700000E943C03909382038093810384EB0E94B8
:100710003C039093800380937F0386EB0E943C030D
:1007200090937E0380937D0388EB0E943C0390931B
:100730007803809377038AEB0E943C0390937A03BB
:10074000809379038CEB0E943C0390938A038093FF
:1007500089038EEB0E943C0390938603809385036C
:1007600008950E94F3148EEE0E94FF1484EF0E94FD
:10077000FF148EE20E94FF140E94FB148FE097E2A8
:100780000197F1F700C0000086EF0E943C03BC0116
:1007900080E090E008950E94F3148EEE0E94FF1412
:1007A00084EF0E94FF1484EF0E94FF140E94FB1448
:1007B0008FE19BEC0197F1F700C000000E94F31459
:1007C0008EEE0E94FF1486EF0E94FF140E94FB141D
:1007D0000E94F3148FEE0E94FF140E94091590E00E
:1007E000A0E0B0E080938F0390939003A0939103D7
:1007F000B09392030E94091590E0A0E0B0E08093CE
:100800008B0390938C03A0938D03B0938E030E946F
:10081000131590E0A0E0B0E080937303909374030D
:10082000A0937503B09376030E94FB1440918F034D
:10083000509190036091910370919203BA015527F2
:10084000442780918B0390918C03A0918D03B091EC
:100850008E03BA2FA92F982F8827480F591F6A1F78
:100860007B1F8091730390917403A0917503B091E5
:100870007603840F951FA61FB71FBC01CD01689496
:1008800014F896958795779567951694D1F70895FE
:100890004F925F926F927F928F929F92AF92BF9290
:1008A000CF92DF92EF92FF920F931F93CF93DF933C
:1008B00000D000D0CDB7DEB70E94B1036B017C0140
:1008C0000E94CB0369837A838B839C8380917F030F
:1008D00090918003A7019601281B390B410951090A
:1008E000A0918103B09182030E94A1252B013C01BC
:1008F000032E3FE075946794579447943A95D1F747
:10090000302D6091890370918A03CB01770FAA0B78
:10091000BB0BBC01CD01052E5BE0660F771F881F66
:10092000991F5A95D1F7502D209185033091860358
:100930008901330F220B330BA9019801240D351DBA
:10094000461D571D0E946D25420E531E641E751EC6
:1009500080EA481A8FE0580A61087108A3019201E1
:10096000C301B2010E9413254B015C01072E7CE0FC
:10097000B594A794979487947A95D1F7702DA09108
:100980007703B0917803A50194010E94AC256B0117
:100990007C010B2EBBE0F594E794D794C794BA95ED
:1009A000D1F7B02DA0918303B0918403A3019201EC
:1009B0000E94AC25DC01CB01072E7BE0B595A79505
:1009C000979587957A95D1F7702DC80ED91EEA1E96
:1009D000FB1E80917B0390917C03092E000CAA0BD7
:1009E000BB0B880F991FAA1FBB1F880F991FAA1F37
:1009F000BB1FC80ED91EEA1EFB1ECC0CDD1CEE1C54
:100A0000FF1CA0919303B09194030E94AC252B018D
:100A10003C01032E3DE075946794579447943A95B2
:100A2000D1F7302DA0917D03B0917E03A5019401F3
:100A30000E94AC25BB2797FDB095AB2F840D951D6B
:100A4000A61DB71D0296A11DB11DB595A795979539
:100A50008795B595A795979587959C01AD013058D9
:100A60004F4F5F4FA0918703B09188030E94A1254B
:100A70002B013C01032E3FE07694679457944794F2
:100A80003A95D1F7302D29813A814B815C812C191F
:100A90003D094E095F09AAE6B8E10E94A125992304
:100AA0005CF0660F771F881F991FA30192010E94B7
:100AB0004B2569017A010AC0A30192010E944B25CE
:100AC00069017A01CC0CDD1CEE1CFF1C9927F7FC98
:100AD0009A958F2D7E2D6D2D9B01AC010E941325C3
:100AE0009B01AC01AEEDBBE00E94A1254C01BB24F3
:100AF00097FCB094AB2CA3E4B3EEA70196010E943F
:100B0000AF25BB2797FDB095AB2F880D991DAA1D6A
:100B1000BB1D8153914FAF4FBF4F689413F8B595EC
:100B2000A795979587951694D1F7BC01CD016C0DCB
:100B30007D1D8E1D9F1D60931E0370931F03809368
:100B40002003909321030F900F900F900F90DF914F
:100B5000CF911F910F91FF90EF90DF90CF90BF90BA
:100B6000AF909F908F907F906F905F904F9008957F
:100B70002FEF83ED90E3215080409040E1F700C0DB
:100B8000000087B1816087B988B1816088B980E051
:100B90000895BC0187B1816087B988B18E7F88B91B
:100BA00088B1816088B92FEF80E792E021508040C2
:100BB0009040E1F700C0000088B18E7F88B98FE9CE
:100BC0009CE80197F1F700C0000088B1816088B906
:100BD00087B18E7F87B990EA9A95F1F7309938C03E
:100BE00025ED2A95F1F7000096B1892F817090FFCD
:100BF00030C085ED8A95F1F7000080E025C0E4E083
:100C0000F0E0E81BF109E60FF71F108290E019C031
:100C1000309BFECF2DE52A95F1F70000309B0EC0EA
:100C200047E050E0491B510921E030E002C0220FAB
:100C3000331F4A95E2F73081232B20833099FECF72
:100C40009F5F983028F38F5F8530C8F281E0089568
:100C500080E00895909100016917E0F490910101FE
:100C60008917C0F4262F26952695269590E030E822
:100C7000239F800D911D1124FA01E80FF91F677061
:100C800081E090E002C0880F991F6A95E2F7908199
:100C9000892B80830895909100016917E0F4909169
:100CA00001018917C0F4262F26952695269590E0F8
:100CB00030E8239F800D911D1124FA01E80FF91FE0
:100CC00067708EEF90E002C0880F991F6A95E2F777
:100CD000908189238083089582E08A95F1F700C08E
:100CE0008BB180628BB982E08A95F1F700C08BB13D
:100CF0008F7D8BB982E08A95F1F700C008951F932C
:100D0000CF93DF93182F8BB180688BB98BB1806440
:100D10008BB90E946C060E946C060E946C060E94B1
:100D20006C060E946C068BB18F7B8BB90E946C069F
:100D30008BB180648BB90E946C068BB18F7B8BB9B1
:100D40000E946C06C0E0D0E01CC0CE01049704975E
:100D500030F48BB18F7B8BB90E946C0611C0812F50
:100D6000807841F0803859F48BB180648BB90E944F
:100D70006C0605C08BB18F7B8BB90E946C06110F7E
:100D80002196CC30D1050CF38BB18F7B8BB90E94AF
:100D90006C060E946C060E946C060E946C068BB169
:100DA0008F778BB9DF91CF911F9108951F93CF93C8
:100DB000DF93182F8BB180688BB98BB180648BB9AE
:100DC0000E946C060E946C060E946C060E946C06D3
:100DD0000E946C068BB18F7B8BB90E946C068BB125
:100DE0008F7B8BB90E946C068BB18F7B8BB90E9475
:100DF0006C06C0E0D0E01CC0CE010497049730F42C
:100E00008BB18F7B8BB90E946C0611C0812F8078CB
:100E100041F0803859F48BB180648BB90E946C0624
:100E200005C08BB18F7B8BB90E946C06110F219688
:100E3000CC30D1050CF38BB18F7B8BB90E946C0643
:100E40000E946C060E946C060E946C068BB18F7724
:100E50008BB9DF91CF911F910895882399F084E396
:100E60000E94D6068FEC97E00197F1F700C00000D2
:100E700086E30E94D6068FEC97E00197F1F700C059
:100E80000000089580E30E94D6068FEC97E001975A
:100E9000F1F700C0000008958F929F92AF92BF9229
:100EA000DF92EF92FF920F931F93CF93DF937C011A
:100EB000D12C31C18FE18D1548F08D2D80680E94B5
:100EC000D606802F80680E94D60609C080EE8D0D60
:100ED00080680E94D606802F88680E94D606CD2D95
:100EE000C695C695C695D0E0CC0FDD1FCC0FDD1F93
:100EF000CC0FDD1FC00FD11DC295D295D07FDC274E
:100F0000C07FDC27CE0DDF1D8880912C1D2D177032
:100F1000012E02C0959487940A94E2F79694982C37
:100F2000882497948794A980B12C012E02C0B5948F
:100F3000A7940A94E2F781E0A822BB240024B69487
:100F4000A7940794B694A7940794BA2CA02CAA81CE
:100F5000B0E0012E02C0B595A7950A94E2F7A17002
:100F6000BB27AA0FBB1FA295B295B07FBA27A07F5F
:100F7000BA27EB81F0E0012E02C0F595E7950A94BF
:100F8000E2F7E170FF27E295F295F07FFE27E07F20
:100F9000FE276C8170E0012E02C0759567950A945A
:100FA000E2F761707727660F771F660F771F660F6E
:100FB000771F4D8150E0012E02C0559547950A9448
:100FC000E2F741705527440F551F440F551F2E81DE
:100FD00030E0012E02C0359527950A94E2F7217082
:100FE0003327220F331F8F8190E0012E02C0959589
:100FF00087950A94E2F7A828AA29EA2B6E2B462B9C
:10100000242B8170822B0E947F068884912C012ED4
:1010100002C0959487940A94E2F79694982C8824B9
:1010200097948794A984B12C012E02C0B594A794FB
:101030000A94E2F781E0A822BB240024B694A79486
:101040000794B694A7940794BA2CA02CAA85B0E074
:10105000012E02C0B595A7950A94E2F7A170BB27AF
:10106000AA0FBB1FA295B295B07FBA27A07FBA275F
:10107000EB85F0E0012E02C0F595E7950A94E2F7C2
:10108000E170FF27E295F295F07FFE27E07FFE27D3
:101090006C8570E0012E02C0759567950A94E2F7A1
:1010A00061707727660F771F660F771F660F771FB0
:1010B0004D8550E0012E02C0559547950A94E2F700
:1010C00041705527440F551F440F551F2E8530E0A2
:1010D000012E02C0359527950A94E2F72170332737
:1010E000220F331FCF85D0E002C0D595C7951A9542
:1010F000E2F7882D8A298A2B8E2B862B842B822B34
:10110000C1708C2B0E947F060F5F01C000E0083089
:1011100008F4D0CED3948FE38D15C0F7DF91CF9133
:101120001F910F91FF90EF90DF90BF90AF909F9035
:101130008F90089581E00E94D6068FE19EE401978A
:10114000F1F700C0000008952FEF89EF90E02150E3
:1011500080409040E1F700C000008CE00E94D6067D
:1011600087EC90E00197F1F700C000000E949A0818
:1011700086E00E94D6068FE19EE40197F1F700C059
:1011800000000895CF93DF93A0E0B0E02BC044238C
:10119000A9F0ED01C80FD91F2197C20FD31FFB0182
:1011A000EE0FFF1FE60FF71FEE0FFF1FEA0FFB1FEB
:1011B000E259FD4F54915095588313C0EC01CA0F6A
:1011C000DB1F2197C20FD31FFB01EE0FFF1FE60F9E
:1011D000F71FEE0FFF1FEA0FFB1FE259FD4F54915F
:1011E00058831196A730B10594F2DF91CF910895FD
:1011F000CF93DF93A0E0B0E027C0442399F0ED0146
:10120000C80FD91F2197C20FD31FFB01EE0FFF1F7D
:10121000EE0FFF1FEA0FFB1FEE5BFD4F5491509541
:10122000588311C0EC01CA0FDB1F2197C20FD31FD7
:10123000FB01EE0FFF1FEE0FFF1FEA0FFB1FEE5B20
:10124000FD4F549158831196A430B105B4F2DF914B
:10125000CF910895CF93DF93A0E0B0E029C044235D
:10126000A1F0ED01C80FD91F2197C20FD31F56E17E
:10127000569FF001579FF00D1124EA0FFB1FEA540F
:10128000FF4F54915095588312C0EC01CA0FDB1FD9
:101290002197C20FD31F56E1569FF001579FF00DC3
:1012A0001124EA0FFB1FEA54FF4F54915883119603
:1012B000AB30B105A4F28B589F4FABE0B0E029C032
:1012C0004423A1F0EC01CA0FDB1F2197C20FD31FEB
:1012D00056E1569FF001579FF00D1124EA0FFB1FB6
:1012E000EA54FF4F54915095588312C0EC01CA0F35
:1012F000DB1F2197C20FD31F56E1569FF001579F66
:10130000F00D1124EA0FFB1FEA54FF4F549158834C
:101310001196A631B105A4F2DF91CF9108950F93F4
:101320001F93CF93DF93A0E0B0E035C04423D1F00A
:10133000ED01C80FD91F2197C20FD31F8B01000FDA
:10134000111FF801EE0FFF1FEE0FFF1FEE0FFF1F23
:10135000E01BF10BEA0FFB1FE855FE4F549150952F
:10136000588318C0EC01CA0FDB1F2197C20FD31F8F
:101370008B01000F111FF801EE0FFF1FEE0FFF1F73
:10138000EE0FFF1FE01BF10BEA0FFB1FE855FE4FAE
:10139000549158831196A730B10544F287589F4F56
:1013A000A7E0B0E035C04423D1F0EC01CA0FDB1F49
:1013B0002197C20FD31F8B01000F111FF801EE0FF1
:1013C000FF1FEE0FFF1FEE0FFF1FE01BF10BEA0FD9
:1013D000FB1FE855FE4F54915095588318C0EC01FF
:1013E000CA0FDB1F2197C20FD31F8B01000F111FE4
:1013F000F801EE0FFF1FEE0FFF1FEE0FFF1FE01BA8
:10140000F10BEA0FFB1FE855FE4F549158831196DC
:10141000AE30B10544F2DF91CF911F910F91089545
:10142000BF92CF92DF92EF92FF920F931F93CF93D1
:10143000DF93B42E79016C0120E8629FC00CD11CAF
:101440001124C0E0D0E030C0F701EC0FFD1F608137
:1014500070E0BB2099F06E32710541F06053710964
:10146000980141E0C6010E948F091AC0980141E02D
:101470006AE070E0C6010E948F0912C06E327105E9
:1014800041F060537109980140E0C6010E948F0944
:1014900007C0980140E06AE070E0C6010E948F0931
:1014A00088E0C80ED11C2196F70101900020E9F7D1
:1014B0003197EE19FF09CE17DF0730F2DF91CF9198
:1014C0001F910F91FF90EF90DF90CF90BF90089504
:1014D000BF92CF92DF92EF92FF920F931F93CF9321
:1014E000DF93B42E79016C0120E8629FC00CD11CFF
:1014F0001124C0E0D0E030C0F701EC0FFD1F608187
:1015000070E0BB2099F06E32710541F060537109B3
:10151000980141E0C6010E94F8081AC0980141E014
:101520006AE070E0C6010E94F80812C06E327105D0
:1015300041F060537109980140E0C6010E94F8082B
:1015400007C0980140E06AE070E0C6010E94F80818
:1015500085E0C80ED11C2196F70101900020E9F723
:101560003197EE19FF09CE17DF0730F2DF91CF91E7
:101570001F910F91FF90EF90DF90CF90BF90089553
:10158000BF92CF92DF92EF92FF920F931F93CF9370
:10159000DF93B42E79016C0120E8629FC00CD11C4E
:1015A0001124C0E0D0E01AC0F701EC0FFD1F6081EC
:1015B00070E0BB2041F060537109980141E0C60121
:1015C0000E942A0907C060537109980140E0C601D2
:1015D0000E942A098CE0C80ED11C2196F7010190C7
:1015E0000020E9F73197EE19FF09CE17DF07E0F287
:1015F000DF91CF911F910F91FF90EF90DF90CF90EF
:10160000BF9008959F92AF92BF92CF92DF92EF92D8
:10161000FF920F931F93CF93DF93942E59016C0188
:1016200020E8629FC00CD11C1124E12CF12C88C051
:10163000F501EE0DFF1DC081C03CE8F4C83AD9F0B9
:10164000C83BC9F0C03BB9F06C2F70E0992041F065
:1016500060527109980141E0C6010E94C20807C0AA
:1016600060527109980140E0C6010E94C20886E0FC
:10167000C80ED11C62C0D0E0CE01805C91098034DC
:101680009105B0F4992049F0980141E0BE016156FE
:101690007109C6010E94C20808C0980140E0BE015D
:1016A00061567109C6010E94C20826E0C20ED11C13
:1016B000C83AD105A1F4992041F0980141E06FE9C1
:1016C00070E0C6010E94C20807C0980140E06FE9BF
:1016D00070E0C6010E94C20886E0C80ED11CC83B5B
:1016E000D105A1F4992041F0980141E060EA70E051
:1016F000C6010E94C20807C0980140E060EA70E09D
:10170000C6010E94C20826E0C20ED11CC03BD10512
:10171000A1F4992041F0980141E061EA70E0C6012E
:101720000E94C20807C0980140E061EA70E0C6016B
:101730000E94C20886E0C80ED11C2FEFE21AF20AFE
:10174000F50101900020E9F73197EA19FB09EE163F
:10175000FF0608F46DCFDF91CF911F910F91FF909D
:10176000EF90DF90CF90BF90AF909F900895FC01D5
:101770001182108208956F927F928F929F92AF9202
:10178000BF92CF92DF92EF92FF920F931F93CF936E
:10179000DF93C82FD62F942E822E481728F0A42E20
:1017A000B12CA81AB10804C0A82EB12CA41AB108F3
:1017B0008D1628F0C82CD12CCD1AD10804C0CD2EFE
:1017C000D12CC818D108C91518F47724739402C015
:1017D00077247A94D81518F46624639402C066249A
:1017E0006A947501EC18FD08A8016D2F8C2F0E94DA
:1017F0002A06C91102C0D815A1F0C701880F991F88
:10180000222733272C193D09281739071CF4EC1817
:10181000FD08C70D8A159B053CF7EA0CFB1CD60D8D
:10182000E3CFDF91CF911F910F91FF90EF90DF9069
:10183000CF90BF90AF909F908F907F906F900895C2
:101840003F924F925F926F927F928F929F92AF9250
:10185000BF92CF92DF92EF92FF920F931F93CF939D
:10186000DF93582E462E142FE901E42EF12C81E04F
:1018700090E06C01CE18DF08AA24BB24AE18BF0884
:10188000AA0CBB1C642F640DA901852D0E942A0699
:10189000642D611BAE01852D0E942A06AE01642DC8
:1018A000812F850D0E942A06AE01642D852D811B96
:1018B0000E942A0600E010E088248394912C49C0FD
:1018C000DD2044F081E0E81AF10882E0A80EB11CA6
:1018D000CA0CDB1C0F5F1F4F82E0880E911CC80CE6
:1018E000D91C352C300EAE01742C7E0C672D832D47
:1018F0000E942A06652C601AAE01672D862D0E9473
:101900002A06AE01742C7E18672D832D0E942A06AC
:10191000AE01672D862D0E942A06742C700EAE0132
:10192000672D652C6E0C862D0E942A06AE01672D50
:10193000752C7E18872D0E942A06342C301AAE0191
:10194000632D862D0E942A06AE01632D872D0E94ED
:101950002A060E151F050CF4B3CFDF91CF911F910E
:101960000F91FF90EF90DF90CF90BF90AF909F903E
:101970008F907F906F905F904F903F9008952F923F
:101980003F924F925F926F927F928F929F92AF920F
:10199000BF92CF92DF92EF92FF920F931F93CF935C
:1019A000DF93F82EE62EEA01390181E090E06C0128
:1019B000C41AD50A88249924841A950A880C991C7B
:1019C000262E3F2C642F6E0DA9018F2D0E942A0612
:1019D0006E2D6C1BA3018F2D0E942A06BC2EBF0CFE
:1019E000A3016E2D8B2D0E942A06FC1AA3016E2DD9
:1019F0008F2D0E942A0683012E2D4B2D6E2D8F2DAB
:101A00000E94BB0BE12CF12CAA24A394B12C35C06D
:101A1000DD2034F0219782E0880E911CC80CD91C7F
:101A20008FEFE81AF80A82E0A80EB11CCA0CDB1C82
:101A3000532C5E0C432C4E1883016C2F620D262F05
:101A4000452D842D0E94BB0B622D6C1B262F442D2F
:101A5000852D0E94BB0B622D6E0D262F432C4C1A38
:101A6000442D5C2E530C852D0E94BB0B622D6E19EC
:101A7000262F442D852D0E94BB0BEC16FD0644F24B
:101A8000DF91CF911F910F91FF90EF90DF90CF905A
:101A9000BF90AF909F908F907F906F905F904F908E
:101AA0003F902F900895E1E8F0E080818860808386
:101AB000AFE6B0E08C9182608C9383E080938900E4
:101AC00088EE80938800808182608083089585B548
:101AD000826085BD84E687BD85B5826085BDEEE602
:101AE000F0E080818260808308951F920F920FB68C
:101AF0000F9211242F938F939F93809124039091A1
:101B00002503813D974021F4109225031092240370
:101B1000809124039091250301969093250380934F
:101B200024039F918F912F910F900FBE0F901F90C4
:101B300018951F920F920FB60F9211242F938F9327
:101B40009F9383B1829586958695837080932303B6
:101B500090912203892B8430D9F018F4813029F038
:101B600029C08B30A9F08E3029F580912603882377
:101B700031F0809195038F5F809395031BC0809116
:101B800096038F5F809396038BB180618BB912C0EF
:101B900080912603882331F08091950381508093B2
:101BA000950308C0809196038150809396038BB172
:101BB00080618BB980912303880F880F8093220363
:101BC0008091960388371CF01092960305C08823F5
:101BD0001CF487E7809396039091960383E998021B
:101BE000812D1124890F8595859597FD8395282F43
:101BF000220F220F220F281B921B923041F12CF44E
:101C0000992351F09130B1F055C09430D1F164F185
:101C1000953009F443C04EC08091950388311CF083
:101C20001092950347C088230CF044C087E180934D
:101C3000950340C0809195038C331CF0109295035E
:101C400039C08823BCF58BE38093950333C0809122
:101C5000950388301CF0109295032CC0882354F50E
:101C600087E08093950326C08091950380321CF015
:101C7000109295031FC08823ECF48FE180939503A5
:101C800019C0809195038D301CF01092950312C0FD
:101C9000882384F48CE0809395030CC08091950395
:101CA00084361CF01092950305C088231CF483E64B
:101CB000809395038BB18F7E8BB99F918F912F91DC
:101CC0000F900FBE0F901F901895E9E6F0E080810D
:101CD000886080838DB382608DBB08951F920F92C0
:101CE0000FB60F9211242F933F934F935F936F93EF
:101CF0007F938F939F93AF93BF93EF93FF938091C5
:101D00002703823091F128F4882351F0813061F06B
:101D1000EAC0833009F4E0C0843009F4E1C0E3C0D4
:101D200081E080932703DFC08091960383781CF4C1
:101D300081508C6F8F5F813061F01CF4882331F00B
:101D4000D2C0823051F0833061F0CDC010922703B1
:101D5000CAC082E080932703C6C083E08093270334
:101D6000C2C084E080932703BEC09091960383E9AC
:101D70009802812D1124890F85958595E82F97FD6F
:101D8000E3958E2F880F880F880F8E1BE92FE81B95
:101D90008E2FEE0F990BAA0BBB0B8730910508F025
:101DA000A2C0FC01EC5CFF4F0C948C2580912603B3
:101DB000811108C0809198038093950381E08093FE
:101DC000260391C0809195038093980381E08093CE
:101DD00099030E941F141092260385C08091260348
:101DE000811108C080919A038093950381E08093CC
:101DF000260379C08091950380939A0382E08093B3
:101E000099030E941F14109226036DC0809126032F
:101E1000811108C080919D038093950381E0809398
:101E2000260361C08091950380939D0386E0809393
:101E300099030E941F141092260355C08091260317
:101E4000811108C080919F038093950381E0809366
:101E5000260349C08091950380939F0383E080937C
:101E600099030E941F14109226033DC080912603FF
:101E7000811108C0809197038093950381E080933E
:101E8000260331C0809195038093970384E080936B
:101E900099030E941F141092260325C080912603E7
:101EA000811108C080919B038093950381E080930A
:101EB000260319C08091950380939B0385E080934E
:101EC00099030E941F14109226030DC010929903CB
:101ED00081E08093270307C081E08093270303C03C
:101EE00081E080932703FF91EF91BF91AF919F9184
:101EF0008F917F916F915F914F913F912F910F90B3
:101F00000FBE0F901F90189584B18E6284B985B171
:101F1000837D85B98AB18B7F8AB98BB184608BB997
:101F200085B1846085B980E58CBD08958AB18061F2
:101F30008AB98BB18F7E8BB98AB180688AB98BB12F
:101F40008F778BB98AB180628AB98BB18F7D8BB95B
:101F50008AB180648AB98BB18F7B8BB98AB1877F54
:101F60008AB984B18E7F84B98BB188608BB985B111
:101F70008F7385B908958EBD0DB407FEFDCF8EB564
:101F800008950E94960F8BB180618BB90E94840FD7
:101F90000E94EF1488E090E00E941D150E94A408A2
:101FA0000E94A4130E940E140E94B8050E946303AD
:101FB0008BB18F7E8BB90E94530D0E94670DE9E6AD
:101FC000F0E08081826080838DB381608DBB0E9450
:101FD000650E7894E0EFF3E080E3808381839EE2F6
:101FE00092838383E5EEF3E080838183EBEDF3E07E
:101FF0008083918382838383EEEAF3E0808381830D
:1020000092838383E0EEF3E080838183E5EFF3E066
:1020100080839183828383838093EA038091610329
:10202000813009F040C087E592E00197F1F700C0E8
:1020300000008BB180618BB987E592E00197F1F7E1
:1020400000C000008BB18F7E8BB90E94DC100E9413
:10205000801F87ED93E09F938F9383ED93E09F9391
:102060008F938FEC93E09F938F9387EC93E09F93F4
:102070008F9383EC93E09F938F938FEB93E09F93E9
:102080008F9389E191E09F938F9382E091E09F93FA
:102090008F930E94C4258DB79EB740960FB6F894D3
:1020A0009EBF0FBE8DBF40912403509125039A011E
:1020B00036952795ABE7B4E10E94922596958795D2
:1020C00062E3689F9001699F300D11244217530706
:1020D000F1F480912703823089F028F4882341F0BD
:1020E000813049F09BCF833061F0843069F096CF26
:1020F0000E940C2193CF0E94571590CF0E94291D5A
:102100008DCF0E9431168ACF0E94A51687CFCA01B3
:102110006FEC77E00E942325892B09F07FCF0E9486
:10212000772383EB93E09F938F9385EF93E09F93C7
:102130008F938BED93E09F938F9389EB93E09F9325
:102140008F938AEE93E09F938F9380EE93E09F931B
:102150008F9385EE93E09F938F938EEA93E09F9306
:102160008F9380EF93E09F938F938BE291E09F9307
:102170008F93C8E2D3E0DF93CF930E94C425CE01B2
:102180000E94331509900020E9F72197AE014852CB
:10219000534060E070E088E293E00E94B425109222
:1021A0002503109224038DB79EB746960FB6F89478
:1021B0009EBF0FBE8DBF32CFCF93DF93809161035F
:1021C000813009F0CDC180916703833009F4DDC00F
:1021D00030F4813069F0823009F47BC0BFC18530B2
:1021E00009F444C008F403C1863009F45CC1B6C1E7
:1021F0008091A1038F5F8093A103E0EFF3E0019052
:102200000020E9F73197AF01405F5340440F551F5D
:1022100060E070E080EF93E00E94B425E7E6F3E031
:102220002181828190E0982F8827822B99231CF4AA
:102230009195819591096AE070E00E9437259F93FE
:102240008F937F936F9387E491E09F938F9380EFB9
:1022500093E09F938F930E94C4258DB79EB70896F5
:102260000FB6F8949EBF0FBE8DBF78C18091A103B9
:102270008F5F8093A103C5EED3E0FE0101900020A3
:10228000E9F73197AF01455E5340440F551F60E0B9
:1022900070E0CE010E94B425E7E6F3E0218182815F
:1022A00090E0982F8827822B6AE070E00E94372503
:1022B0007F936F938AE491E09F938F93DF93CF9303
:1022C0000E94C4250F900F900F900F900F900F90C9
:1022D00045C18091A1038F5F8093A103E2E6F3E003
:1022E00001900020E9F73197AF0142565340440F67
:1022F000551F60E070E082E693E00E94B42520E084
:102300000BC0822F90E0FC01E859FC4F3081FC01AA
:10231000EE59FC4F30832F5F822F90E0E7E6F3E029
:1023200001900020E9F73197E756F34031978E1777
:102330009F0738F382E693E00E94D120EC0182E609
:1023400093E00E94D120FC0124E630E0CE01B901E7
:102350000E9437259F938F93CF01B9010E943725A3
:102360007F936F9387E491E09F938F9385EF93E042
:102370009F938F930E94C4258DB79EB708960FB682
:10238000F8949EBF0FBE8DBFE9C08091A1038F5FFF
:102390008093A103E3EBF3E001900020E9F731978C
:1023A000AF01435B5340440F551F60E070E083EB87
:1023B00093E00E94B42520E00BC0822F90E0FC0146
:1023C000E859FC4F3081FC01ED54FC4F30832F5F06
:1023D000822F90E0E7E6F3E001900020E9F73197E3
:1023E000E756F34031978E179F0738F3B7C08091B7
:1023F000A1038F5F8093A103E2EAF3E00190002044
:10240000E9F73197AF01425A5340440F551F60E03E
:1024100070E082EA93E00E94B42520E00BC0822F96
:1024200090E0FC01E859FC4F3081FC01EE55FC4F77
:1024300030832F5F822F90E0E7E6F3E001900020E9
:10244000E9F73197E756F34031978E179F0738F336
:1024500082EA93E00E94F31FEC0182EA93E00E947B
:10246000F31FFC0124E630E0CE01B9010E943725BC
:102470009F938F93CF01B9010E9437257F936F936C
:1024800087E491E09F938F938BED93E09F938F93DD
:102490000E94C4258DB79EB708960FB6F8949EBFCC
:1024A0000FBE8DBF5BC08091A1038F5F8093A1039E
:1024B000E8EAF3E001900020E9F73197AF01485ACC
:1024C0005340440F551F60E070E088EA93E00E949B
:1024D000B42520E00BC0822F90E0FC01E859FC4FAE
:1024E0003081FC01E855FC4F30832F5F822F90E054
:1024F000E7E6F3E001900020E9F73197E756F34073
:1025000031978E179F0738F388EA93E00E94BE1F29
:10251000EC0188EA93E00E94BE1FFC0124E630E053
:10252000CE01B9010E9437259F938F93CF01B90146
:102530000E9437257F936F9387E491E09F938F9359
:1025400089EB93E09F938F930E94C4258DB79EB72C
:1025500008960FB6F8949EBF0FBE8DBF1092610310
:10256000DF91CF91089585B18B7F85B982EE0E946E
:10257000BB0F82E08A95F1F700C085B1846085B910
:10258000089585B18B7F85B981EE0E94BB0F82E0F3
:102590008A95F1F700C085B1846085B9089585B149
:1025A0008B7F85B980E50E94BB0F82E08A95F1F7A9
:1025B00000C083E70E94BB0F85B1846085B9089590
:1025C000EF92FF920F931F93CF93DF938B01C42F52
:1025D00095B19B7F95B90E94BB0F0BC078018FEF1F
:1025E000E81AF80A8FEF0E94BB0FF8018083CD2F05
:1025F0008701DFEFDC0FC111F1CF85B1846085B9B0
:10260000DF91CF911F910F91FF90EF900895EF927E
:10261000FF920F931F93CF93DF938B01C42F95B13C
:102620009B7F95B980620E94BB0F82E08A95F1F78B
:1026300000C00AC07801EFEFEE1AFE0AF8018081AF
:102640000E94BB0FCD2F8701DFEFDC0FC111F2CF4E
:1026500085B1846085B9DF91CF911F910F91FF9073
:10266000EF900895CF93C62F95B19B7F95B9806267
:102670000E94BB0F8C2F0E94BB0F85B1846085B96F
:10268000CF910895CF93C82F85B18B7F85B98C2FBB
:102690000E94BB0FC73019F08FEF0E94BB0F95B19E
:1026A000946095B9CF9108951F920F920FB60F9233
:1026B00011242F933F934F935F936F937F938F9347
:1026C0009F93AF93BF93EF93FF9387E00E944213D2
:1026D00086FF0AC045E067E673E081E60E94E012EB
:1026E00060E487E00E9432138091A103863011F4E8
:1026F0001092A10381E080936103FF91EF91BF915C
:10270000AF919F918F917F916F915F914F913F9189
:102710002F910F900FBE0F901F90189580E00E9490
:102720004213682F636080E00E94321385B182609B
:1027300085B98BE291E00197F1F700C000000E949B
:10274000B3120E94C112089585B18D7F85B98FE0C3
:1027500097E20197F1F700C000006AE080E00E9474
:1027600032138FE097E20197F1F700C0000062E0BA
:1027700081E00E94321362E082E00E94321361E045
:1027800083E00E9432136FE584E00E9432130E94BE
:10279000CF1260E08DE10E94321360E08CE10E9474
:1027A000321360E787E00E9432136CE485E00E94F8
:1027B000321366E086E00E94321343E066E171E086
:1027C00080E10E94071343E066E171E08BE00E9424
:1027D000071365E082E10E9432130E948E13089570
:1027E0009DEC899F912D112496959695969520E1C3
:1027F000929FA0011124990F292F220F220F920FCF
:10280000891B842B0895982F92959F70990F292FDB
:10281000220F220F920F8F70890F08950E94F314D8
:1028200080ED0E94FF148EE00E94FF1480E20E945F
:10283000FF1488E00E94FF140E94FB1408950E9478
:10284000F31480ED0E94FF1480919903833099F175
:1028500028F4813061F08230E1F0BEC0853009F4A7
:1028600098C008F484C0863009F4A5C0B5C082E0E1
:102870000E94FF1480919803883128F40E94F0137D
:102880000E94FF14A9C080E00E94F0130E94FF1470
:10289000A3C081E00E94FF1480919A038B3328F437
:1028A0000E94F0130E94FF1497C080E00E94F01372
:1028B0000E94FF1491C084E00E94FF14809197034E
:1028C000823011F580919B03837079F480919F038E
:1028D0008D3128F40E94F0130E94FF147DC081E026
:1028E0000E94F0130E94FF1477C080919F038C31E7
:1028F00028F40E94F0130E94FF146EC081E00E9431
:10290000F0130E94FF1468C021E0843009F020E039
:1029100091E0863009F090E0292B91E0893009F0B0
:1029200090E031E08B3009F030E0922B11F433234A
:1029300079F080919F038E3128F40E94F0130E9459
:10294000FF144AC081E00E94F0130E94FF1444C0AB
:1029500080919F038F3128F40E94F0130E94FF148E
:102960003BC081E00E94F0130E94FF1435C085E057
:102970000E94FF14809197038C3028F40E94F0137A
:102980000E94FF1429C081E00E94F0130E94FF14EE
:1029900023C086E00E94FF1480919B03833628F4B5
:1029A0000E94F0130E94FF1417C081E00E94F013F0
:1029B0000E94FF1411C083E00E94FF1480919D03C8
:1029C000873028F40E94F0130E94FF1405C081E0B4
:1029D0000E94F0130E94FF140E94FB14089580E2ED
:1029E0008093B800089584EA8093BC008091BC0075
:1029F0008823E4F7089584E98093BC0008958093C8
:102A0000BB0084E88093BC008091BC008823E4F77D
:102A1000089584EC8093BC008091BC008823E4F787
:102A20008091BB00089584E88093BC008091BC0035
:102A30008823E4F78091BB0008959093C5008093AC
:102A4000C400E1ECF0E088E18083808180688083CD
:102A5000E0ECF0E0808182608083E2ECF0E0808155
:102A60008E6080830895DC0140E080E013C0909187
:102A70006103913029F09091C00095FFF8CF01C01B
:102A800041E0413099F0FD01E20FF31F90819093F6
:102A9000C6008F5F282F30E0FD0101900020E9F78C
:102AA0003197EA1BFB0B2E173F0728F308950F936E
:102AB0001F93CF93DF93CDB7DEB7D4500FB6F89402
:102AC000DEBF0FBECDBF8E010F5F1F4F80E094E0D1
:102AD000F8019C01119221503040E1F781E00E9401
:102AE0002D07C8010E94B70B2AE831E041E060E001
:102AF0008EE190E00E94020B8091960383781CF493
:102B000081508C6F8F5F813079F11CF4882341F004
:102B100096C0823009F44CC0833009F46DC08FC078
:102B20008E010F5F1F4F27E931E041E062E08FE047
:102B300090E00E94020B29EA31E040E063E08FE080
:102B400090E00E94020B2BEB31E040E064E08FE06C
:102B500090E00E94020B23EC31E040E065E08FE062
:102B600090E00E94020B6BC08E010F5F1F4F27E9A0
:102B700031E040E062E08FE090E00E94020B29EA41
:102B800031E041E063E08FE090E00E94020B2BEB2C
:102B900031E040E064E08FE090E00E94020B23EC23
:102BA00031E040E065E08FE090E00E94020B47C01A
:102BB0008E010F5F1F4F27E931E040E062E08FE0B8
:102BC00090E00E94020B29EA31E040E063E08FE0F0
:102BD00090E00E94020B2BEB31E041E064E08FE0DB
:102BE00090E00E94020B23EC31E040E065E08FE0D2
:102BF00090E00E94020B23C08E010F5F1F4F27E958
:102C000031E040E062E08FE090E00E94020B29EAB0
:102C100031E040E063E08FE090E00E94020B2BEB9C
:102C200031E040E064E08FE090E00E94020B23EC92
:102C300031E041E065E08FE090E00E94020BCE01C0
:102C400001960E944C0780E00E942D07DC5F0FB6C2
:102C5000F894DEBF0FBECDBFDF91CF911F910F91D2
:102C60000895EF92FF920F931F93CF93DF93CDB709
:102C7000DEB7D4500FB6F894DEBF0FBECDBF9E01B5
:102C80002F5F3F4F790180E094E0F9019C011192A0
:102C900021503040E1F781E00E942D07C7010E94DA
:102CA000B70B87012CEC31E041E060E089E190E076
:102CB0000E94020B2AED31E040E061E082E090E00A
:102CC0000E94020B2FEE31E040E062E080E090E0F5
:102CD0000E94020B24E032E040E063E080E090E0FC
:102CE0000E94020B29E132E040E064E080E090E0E5
:102CF0000E94020B2FE232E040E065E080E090E0CD
:102D00000E94020B24E432E040E066E080E090E0C4
:102D10000E94020B29E532E041E067E089E190E0A2
:102D20000E94020BC7010E944C0780E00E942D0701
:102D3000DC5F0FB6F894DEBF0FBECDBFDF91CF9141
:102D40001F910F91FF90EF900895EF92FF920F93D4
:102D50001F93CF93DF93CDB7DEB7D4500FB6F8945F
:102D6000DEBF0FBECDBF9E012F5F3F4F790180E0D8
:102D700094E0F9019C01119221503040E1F781E08B
:102D80000E942D07C7010E94B70B870126E632E09B
:102D900041E060E085E090E00E94020B2AE732E02B
:102DA00040E061E080E090E00E94020B2EE832E01B
:102DB00040E062E080E090E00E94020B22E031E01F
:102DC00040E063E080E090E00E94020B29E532E001
:102DD00041E067E089E190E00E94020BC7010E9498
:102DE0004C0780E00E942D07DC5F0FB6F894DEBF31
:102DF0000FBECDBFDF91CF911F910F91FF90EF904C
:102E000008950F931F93CF93DF93EC019C0145E04E
:102E100050E065E370E08EE690E00E94BF0C8E010A
:102E20002BE24EE66DE28EE60E94BB0B25E348E7FF
:102E300065E386E70E94BB0B25E344E665E386E68F
:102E40000E94BB0B2FE34EE66DE38EE60E94BB0BA8
:102E50002EE246E660E388E60E94BB0B2EE246E7E0
:102E600060E384E70E94BB0B2CE346E76AE384E758
:102E70000E94BB0B2CE346E66AE388E60E94BB0B8C
:102E8000DF91CF911F910F9108950F931F93CF93CF
:102E9000DF93EC019C0145E065E38EE60E94200C87
:102EA0008E012BE24EE66DE28EE60E94BB0B25E31F
:102EB00048E765E386E70E94BB0B2FE34EE66DE330
:102EC0008EE60E94BB0B2EE246E760E384E70E9499
:102ED000BB0B2CE346E76AE384E70E94BB0B29E3C4
:102EE0004AE669E38AE50E94BB0BAE0168E389E527
:102EF0000E942A06AE0167E388E50E942A0626E3BF
:102F000047E564E387E50E94BB0BAE0163E388E518
:102F10000E942A0622E34DE562E389E50E94BB0B8D
:102F2000AE0163E38EE50E942A0621E34CE56EE2E2
:102F30008CE50E94BB0BAE016DE28DE50E942A0676
:102F40002CE244E66CE28EE50E94BB0BAE016DE222
:102F500085E60E942A0620E346E66EE286E60E94A7
:102F6000BB0BAE0161E385E60E942A0620E34AE638
:102F700060E386E60E94BB0BAE0168E38BE60E942D
:102F80002A06AE0167E38CE60E942A0626E34DE698
:102F900063E38DE60E94BB0BAE0162E38CE60E9408
:102FA0002A06AE0161E38BE60E942A06AE0162E3C7
:102FB0008AE60E944B0613E306C0AE01612F89E644
:102FC0000E944B061F5F1833C0F3AE0168E38AE628
:102FD0000E944B06AE0160E38AE60E942A06AE011B
:102FE00060E389E60E942A0610E007C09E01412F97
:102FF00065E38EE60E94200C1F5F1530B8F3DF9169
:10300000CF911F910F9108950F931F93CF93DF934B
:10301000EC018C0129E34AE669E38AE50E94BB0BD7
:10302000AE0168E389E50E942A06AE0167E388E500
:103030000E942A0626E347E564E387E50E94BB0B6E
:10304000AE0163E388E50E942A0622E34DE562E3D0
:1030500089E50E94BB0BAE0163E38EE50E942A0660
:1030600021E34CE56EE28CE50E94BB0BAE016DE204
:103070008DE50E942A062CE244E66CE28EE50E9471
:10308000BB0BAE016DE285E60E942A0620E346E610
:103090006EE286E60E94BB0BAE0161E385E60E940C
:1030A0002A0620E34AE660E386E60E94BB0BAE01F7
:1030B00068E38BE60E942A06AE0167E38CE60E9475
:1030C0002A0626E34DE663E38DE60E94BB0BAE01C4
:1030D00062E38CE60E942A06AE0161E38BE60E9461
:1030E0002A0627E349E767E38EE60E94BB0B26E347
:1030F0004AE763E38AE70E94BB0BAE0162E389E71C
:103100000E942A0621E348E761E386E70E94BB0BA1
:10311000AE0162E385E70E942A0620E346E76FE2FC
:1031200086E70E94BB0B2EE245E76EE282E70E9433
:10313000BB0B21E341E76FE281E70E94BB0BAE01CD
:1031400062E382E70E942A0621E340E761E38FE61B
:103150000E94BB0BAE0162E38EE60E942A06DF915D
:10316000CF911F910F9108950F931F93CF93DF93EA
:10317000EC010E9404188E012DE349E56BE38BE519
:103180000E94BB0B2DE34CE56BE38EE50E94BB0B6D
:103190002DE34FE56BE381E60E94BB0B2DE342E696
:1031A0006BE384E60E94BB0B2DE345E66BE387E609
:1031B0000E94BB0B2DE348E66BE38AE60E94BB0B43
:1031C0002AE34EE669E38FE60E94BB0B2AE341E760
:1031D00069E382E70E94BB0B2AE344E769E385E7E2
:1031E0000E94BB0B2AE347E769E388E70E94BB0B19
:1031F000DF91CF911F910F9108950F931F93CF935C
:10320000DF93EC019C0149E064E38BE00E94200C19
:1032100018E00BC0AE016CE2812F0E944B06AE019C
:103220006DE3812F0E944B061F5F1F3098F319E258
:103230000BC0AE01612F89E00E942A06AE01612F0A
:103240008DE00E942A061F5F1E3298F3AE016AE2EB
:103250008AE00E942A06AE016BE28BE00E942A06F9
:10326000AE016CE28CE00E942A06AE016CE389E0BC
:103270000E942A06AE016FE389E00E942A060AE056
:103280000BC0AE01612F802F0E942A061E5F01C075
:103290001BE31034B0F30F5F0D30D0F3AE016EE3DB
:1032A0008DE00E942A06AE016BE38DE00E942A06A3
:1032B00012E310C0AE01612F84E10E944B06AE0103
:1032C000612F82E10E942A06AE01612F82E00E94F6
:1032D0004B061F5F173370F3AE0167E383E10E9473
:1032E0004B06AE0160E383E10E942A0603E10BC0B6
:1032F000AE01612F802F0E942A061E5F01C012E3DB
:103300001733B0F30F5F0731D0F3AE0167E383E00B
:103310000E944B06AE0160E383E00E942A068E0104
:1033200025E342E064E382E00E94BB0BAE0166E36A
:1033300083E00E942A0612E30BC0AE01612F84E0F5
:103340000E942A06AE01612F80E00E942A061F5FBC
:10335000163398F3AE0166E381E00E942A06AE01BF
:1033600064E38BE00E942A0661EA72E083EB93E05B
:103370000E94BB25892B41F02EC0AE01612F8BE04E
:103380000E942A061F5F01C01EE21433B0F38E01B3
:1033900026E34AE065E38AE00E94BB0B26E34CE0AB
:1033A00065E38CE00E94BB0BAE016FE28AE00E94F5
:1033B0002A06AE016FE28CE00E942A0620E34AE072
:1033C00060E389E00E94BB0B20E34DE060E38CE00A
:1033D0000E94BB0B96C163EA72E083EB93E00E940C
:1033E000BB25892B79F58E0123E34AE062E38AE06D
:1033F0000E94BB0B23E34CE062E38CE00E94BB0B1A
:1034000015E306C0AE01612F8BE00E942A061F5F04
:103410001B33C0F38E0129E34AE068E38AE00E948F
:10342000BB0BAE0169E38CE00E942A06AE0168E3A3
:1034300089E00E942A0628E34DE068E38CE00E94C0
:10344000BB0B5FC167EA72E083EB93E00E94BB2590
:10345000892B79F58E0123E34AE063E389E00E943A
:10346000BB0B25E34AE065E389E00E94BB0B1CE04F
:1034700006C0AE0164E3812F0E942A061F5F12314D
:10348000C0F3AE0163E380E10E942A068E0125E3CA
:1034900040E165E38FE00E94BB0BAE0166E38FE085
:1034A0000E942A0623E34FE062E38FE00E94BB0BF9
:1034B00028C16BEA72E083EB93E00E94BB25892B65
:1034C00079F58E0123E34DE063E38CE00E94BB0BB2
:1034D00025E34DE065E38CE00E94BB0B15E006C0E0
:1034E000AE0164E3812F0E942A061F5F1B30C0F3E8
:1034F000AE0163E386E00E942A068E0125E347E0E1
:1035000065E386E00E94BB0BAE0166E387E00E94A4
:103510002A0623E347E062E387E00E94BB0BF1C089
:1035200065EA72E083EB93E00E94BB25892BB9F535
:10353000AE0163E38AE00E942A06AE0164E389E0FB
:103540000E942A06AE0165E38CE00E942A06AE01C5
:1035500066E38BE00E942A068E012FE240E164E3DD
:103560008BE00E94BB0B2FE24FE06FE28DE00E94E8
:10357000BB0BAE0160E38EE00E942A06AE0160E361
:1035800080E10E942A0621E340E161E38FE00E948E
:10359000BB0BAE0162E380E10E942A06B2C069EA79
:1035A00072E083EB93E00E94BB25892B91F5AE017D
:1035B00063E38CE00E942A06AE0164E38DE00E9482
:1035C0002A06AE0165E38AE00E942A06AE0166E3A0
:1035D0008BE00E942A068E012FE246E064E38BE036
:1035E0000E94BB0B2FE249E06FE287E00E94BB0B19
:1035F000AE0160E388E00E942A0622E346E060E331
:1036000086E00E94BB0BAE0161E387E00E942A06C0
:1036100078C06DEA72E083EB93E00E94BB25892BB2
:10362000B9F5AE0162E38BE00E942A06AE0163E3C6
:103630008CE00E942A06AE0165E38AE00E942A0619
:10364000AE0164E389E00E942A068E0129E340E18D
:1036500064E38BE00E94BB0BAE0169E38FE00E9444
:103660002A06AE0167E38FE00E942A0628E340E1C4
:1036700066E380E10E94BB0B29E34EE068E38EE045
:103680000E94BB0BAE0169E38DE00E942A0639C09F
:1036900061EB72E083EB93E00E94BB25892B89F5F7
:1036A000AE0162E38BE00E942A06AE0163E38AE08A
:1036B0000E942A06AE0164E38DE00E942A06AE0154
:1036C00065E38CE00E942A068E0129E346E064E36C
:1036D0008BE00E94BB0B28E346E066E386E00E9495
:1036E000BB0BAE0167E387E00E942A0629E349E0AD
:1036F00069E387E00E94BB0BAE0168E388E00E94AB
:103700002A06DF91CF911F910F91089580919C031C
:103710008A3098F41F928F9385EB92E09F938F935A
:1037200087EC93E09F938F930E94C4250F900F9096
:103730000F900F900F900F9012C01F928F938AE4FA
:1037400091E09F938F9387EC93E09F938F930E94D8
:10375000C4250F900F900F900F900F900F908091B5
:103760009A038A3098F41F928F9385EB92E09F938F
:103770008F9383EC93E09F938F930E94C4250F90C7
:103780000F900F900F900F900F9012C01F928F9379
:103790008AE491E09F938F9383EC93E09F938F93C0
:1037A0000E94C4250F900F900F900F900F900F90D4
:1037B000809198038A3098F41F928F9385EB92E062
:1037C0009F938F938FEB93E09F938F930E94C425D9
:1037D0000F900F900F900F900F900F9012C01F92AC
:1037E0008F938AE491E09F938F938FEB93E09F9365
:1037F0008F930E94C4250F900F900F900F900F9001
:103800000F9080919F038A3098F41F928F9385EBDD
:1038100092E09F938F938FEC93E09F938F930E94FE
:10382000C4250F900F900F900F900F900F9012C023
:103830001F928F938AE491E09F938F938FEC93E094
:103840009F938F930E94C4250F900F900F900F901D
:103850000F900F9080919B038A3098F41F928F9362
:1038600085EB92E09F938F9387ED93E09F938F93E7
:103870000E94C4250F900F900F900F900F900F9003
:1038800012C01F928F938AE491E09F938F9387EDEC
:1038900093E09F938F930E94C4250F900F900F90F9
:1038A0000F900F900F90E0919D038E2F90E0FC0100
:1038B0003197E730F105D8F5E55CFF4F0C948C2586
:1038C000EBECF3E08FEC9DEE9183808312822FC0AE
:1038D000EBECF3E082EC92EF91838083128227C0BD
:1038E000EBECF3E081ED90EF9183808312821FC0B7
:1038F000EBECF3E087ED92EF91838083128217C0A7
:10390000EBECF3E08FEC92EF9183808312820FC097
:10391000EBECF3E081ED91EE91838083128207C09E
:10392000EBECF3E082EC91EF918380831282E091E3
:1039300097038E2F90E0FC013197EC30F10508F0F1
:1039400087C0EE5BFF4F0C948C25EFEBF3E08FED1F
:103950009DEE958B848B82EE90E0978B868B0895FD
:10396000EFEBF3E084ED95EE958B848B82EE90E0A7
:10397000978B868B0895EFEBF3E08CEC90EE958BB4
:10398000848B80EF90E0978B868B0895EFEBF3E0CC
:1039900080EC9FEE958B848B80EF90E0978B868BED
:1039A0000895EFEBF3E08CEC90EE958B848B89EE31
:1039B00090E0978B868B0895EFEBF3E088EC9EEF19
:1039C000958B848B8DEE90E0978B868B0895EFEB33
:1039D000F3E088EC9EEF958B848B8BEE90E0978BD9
:1039E000868B0895EFEBF3E080EC92EE958B848B61
:1039F00083EE90E0978B868B0895EFEBF3E081EDFB
:103A000095EE958B848B8DEE90E0978B868B089549
:103A1000EFEBF3E08EEC9AEE958B848B82EF90E0E7
:103A2000978B868B0895EFEBF3E08DEC9EEE958BF4
:103A3000848B8FEF90E0978B868B0895EFEBF3E00C
:103A400084EC95EE958B848B8AEE90E0978B868B39
:103A500008950F931F93CF93DF93CDB7DEB7D45064
:103A60000FB6F894DEBF0FBECDBF8E010F5F1F4FA4
:103A700080E094E0F8019C01119221503040E1F780
:103A80000E94861B81E00E942D07C8010E94B70B8F
:103A900029EB32E041E060E08FE090E00E94020B11
:103AA0009091960383E99802812D1124890F8595C1
:103AB0008595E82F97FDE3958E2F880F880F880F47
:103AC0008E1BE92FE81B8E2FEE0F990BAA0BBB0B59
:103AD0008730910508F0D8C1FC01E25BFF4F0C94E0
:103AE0008C2580912603882321F080919503809373
:103AF00098038E010F5F1F4F2FEB33E041E062E030
:103B000080E290E00E94C00A23EC33E040E062E0F3
:103B10008EE390E00E94C00A2BEC33E040E065E0C9
:103B20008CE190E00E94020B2FEC33E040E065E076
:103B300081E390E00E94020B23ED33E040E065E07A
:103B400086E490E00E94020B27ED33E040E065E060
:103B50008FE590E00E94020B29E532E040E067E04B
:103B600089E190E00E94020B8FC180912603882397
:103B700021F08091950380939A038E010F5F1F4F70
:103B80002FEB33E040E062E080E290E00E94C00A68
:103B900023EC33E041E062E08EE390E00E94C00A53
:103BA0002BEC33E040E065E08CE190E00E94020BFA
:103BB0002FEC33E040E065E081E390E00E94020BEF
:103BC00023ED33E040E065E086E490E00E94020BE4
:103BD00027ED33E040E065E08FE590E00E94020BC6
:103BE00029E532E040E067E089E190E00E94020BC5
:103BF0004BC180912603882321F080919503809307
:103C00009D038E010F5F1F4F2FEB33E040E062E01A
:103C100080E290E00E94C00A23EC33E040E062E0E2
:103C20008EE390E00E94C00A2BEC33E041E065E0B7
:103C30008CE190E00E94020B2FEC33E040E065E065
:103C400081E390E00E94020B23ED33E040E065E069
:103C500086E490E00E94020B27ED33E040E065E04F
:103C60008FE590E00E94020B29E532E040E067E03A
:103C700089E190E00E94020B07C18091260388230E
:103C800021F08091950380939F038E010F5F1F4F5A
:103C90002FEB33E040E062E080E290E00E94C00A57
:103CA00023EC33E040E062E08EE390E00E94C00A43
:103CB0002BEC33E040E065E08CE190E00E94020BE9
:103CC0002FEC33E041E065E081E390E00E94020BDD
:103CD00023ED33E040E065E086E490E00E94020BD3
:103CE00027ED33E040E065E08FE590E00E94020BB5
:103CF00029E532E040E067E089E190E00E94020BB4
:103D0000C3C080912603882321F08091950380937E
:103D100097038E010F5F1F4F2FEB33E040E062E00F
:103D200080E290E00E94C00A23EC33E040E062E0D1
:103D30008EE390E00E94C00A2BEC33E040E065E0A7
:103D40008CE190E00E94020B2FEC33E040E065E054
:103D500081E390E00E94020B23ED33E041E065E057
:103D600086E490E00E94020B27ED33E040E065E03E
:103D70008FE590E00E94020B29E532E040E067E029
:103D800089E190E00E94020B7FC080912603882386
:103D900021F08091950380939B038E010F5F1F4F4D
:103DA0002FEB33E040E062E080E290E00E94C00A46
:103DB00023EC33E040E062E08EE390E00E94C00A32
:103DC0002BEC33E040E065E08CE190E00E94020BD8
:103DD0002FEC33E040E065E081E390E00E94020BCD
:103DE00023ED33E040E065E086E490E00E94020BC2
:103DF00027ED33E041E065E08FE590E00E94020BA3
:103E000029E532E040E067E089E190E00E94020BA2
:103E10003BC08E010F5F1F4F2FEB33E040E062E0AD
:103E200080E290E00E94C00A23EC33E040E062E0D0
:103E30008EE390E00E94C00A2BEC33E040E065E0A6
:103E40008CE190E00E94020B2FEC33E040E065E053
:103E500081E390E00E94020B23ED33E040E065E057
:103E600086E490E00E94020B27ED33E040E065E03D
:103E70008FE590E00E94020B29E532E041E067E027
:103E800089E190E00E94020B8E010F5F1F4F2BEC27
:103E900032E040E063E087E390E00E94020B2DEC0B
:103EA00032E040E063E085E590E00E94020B21ED06
:103EB00032E040E065E08AE290E00E94020B23EDF0
:103EC00032E040E065E08FE390E00E94020B23EDDA
:103ED00032E040E065E089E590E00E94020BC80115
:103EE0000E944C0780E00E942D07DC5F0FB6F8941B
:103EF000DEBF0FBECDBFDF91CF911F910F9108950F
:103F00000E94F31480ED0E94FF1480E00E94FF14D1
:103F10000E94FB140E94F31481ED0E94FF140E9482
:103F200009150E94031480939C030E9409150E94A6
:103F3000031480939A030E9409150E94031480932E
:103F400098030E9409150E94031480939D030E9408
:103F500009150E94031480939F030E9409150E9473
:103F60000314809397030E9413150E9403148093F7
:103F70009B030E94FB140E94861B0895CF93DF933E
:103F800000D0CDB7DEB7FC0120812223A1F09E0135
:103F90002F5F3F4F3F932F932AE431E03F932F93BE
:103FA0009F938F930E94E6250F900F900F900F9094
:103FB0000F900F9002C01A82198269817A81072EB0
:103FC000000C880B990B0E941A242CEB34E743E178
:103FD0005EE30E947E240E94E223CB010F900F90AB
:103FE000DF91CF910895CF93DF9300D0CDB7DEB7A7
:103FF000FC0120812223A1F09E012F5F3F4F3F93C0
:104000002F932AE431E03F932F939F938F930E9445
:10401000E6250F900F900F900F900F900F9002C019
:104020001A82198269817A81072E000C880B990BFC
:104030000E941A242CEE31E548E35FE30E947E24BF
:104040000E94E223CB010F900F90DF91CF91089552
:10405000EF92FF920F931F93CF93DF937C018C011C
:104060002CE148E26CE182E20E94BB0B2BE142E2D0
:1040700063E182E20E94BB0B2BE148E263E188E24C
:104080000E94BB0B23E144E263E182E20E94BB0B8E
:1040900023E148E263E186E20E94BB0B23E144E2B4
:1040A00062E184E20E94BB0B23E146E262E186E228
:1040B0000E94BB0B22E146E262E184E20E94BB0B5C
:1040C00082EA93E00E94F31F803991400CF048C0CF
:1040D00082EA93E00E94F31F863891403CF082EA26
:1040E00093E00E94F31F80399140E4F182EA93E06B
:1040F0000E94F31F8C3791403CF082EA93E00E94CB
:10410000F31F8638914084F182EA93E00E94F31F06
:10411000823791403CF082EA93E00E94F31F8C3793
:10412000914024F182EA93E00E94F31F8836914087
:104130003CF082EA93E00E94F31F82379140C4F082
:1041400082EA93E00E94F31F8E3591409CF082EA50
:1041500093E00E94F31F8836914074F4D1E00DC0C3
:10416000D6E00BC0D5E009C0D4E007C0D3E005C05D
:10417000D2E003C0D0E001C0D0E0C0E009C06AE1F5
:104180006C1B8701262F46E284E20E94BB0BCF5FA7
:10419000CD17A8F3DF91CF911F910F91FF90EF9072
:1041A0000895CF93DF9300D0CDB7DEB7FC01208117
:1041B0002223A1F09E012F5F3F4F3F932F932AE4CC
:1041C00031E03F932F939F938F930E94E6250F90AA
:1041D0000F900F900F900F900F9002C01A821982CB
:1041E00069817A81072E000C880B990B0E941A2492
:1041F0002BE734E142E652E40E947E2420E030E0E6
:1042000040E85EE30E947E240E94E223CB010F90EF
:104210000F90DF91CF910895CF92DF92EF92FF92AE
:104220000F931F93CF93DF93CDB7DEB7CA50D4401F
:104230000FB6F894DEBF0FBECDBF9E012F5F3F4F7C
:10424000790180E094E0F9019C0111922150304005
:10425000E1F76E013FEFC31A3BEFD30A8AE0F601A4
:1042600011928A95E9F781E00E942D07C7010E940B
:10427000B70B0E94801F83EC93E09F938F938FEB8B
:1042800093E09F938F9385ED92E09F938F93DF92BE
:10429000CF920E94C4258701960140E060E082E051
:1042A00090E00E94C00A27EC33E040E060E08FE33A
:1042B00090E00E94020B2BEC33E040E061E08DE3E4
:1042C00090E00E94020B21ED32E040E061E089E4E1
:1042D00090E00E94020B2FEC33E040E061E08CE4C0
:1042E00090E00E94020B23ED32E040E061E088E5BF
:1042F00090E00E94020B23ED33E040E061E08DE5A9
:1043000090E00E94020B23ED32E040E061E08FE696
:1043100090E00E94020B27ED33E040E061E084E78B
:1043200090E00E94020B20E042E566E082E50E94F8
:10433000BB0B20E045E560E08FE40E94BB0BA701CA
:1043400061E080E50E942A06A70162E081E50E9403
:104350002A06A70163E082E50E942A06A70161E020
:1043600084E50E942A06A70162E083E50E942A06EE
:104370000FB6F894DEBF0FBECDBFFF24F3940CC080
:104380008996880F27E02F198E010F5F1F4F482F46
:1043900066E00E94BB0BF3948F2D90E02091A10367
:1043A00030E02F5F3F4F8217930754F38E010F5F6A
:1043B0001F4F2BED32E040E064E08EE190E00E9480
:1043C000020B2EED32E040E064E08AE390E00E94D0
:1043D000020B25EE33E040E063E08BE290E00E94C8
:1043E000100A20EF33E040E063E081E090E00E94BB
:1043F000100A2BED33E040E062E08CE290E00E9496
:10440000680A25EF33E040E065E08AE190E00E9431
:10441000680A20EE32E040E065E08DE290E00E9424
:10442000020B24EE32E040E066E08EE190E00E9474
:10443000020B24E348E164E38BE10E94BB0B2BE316
:1044400048E164E388E10E94BB0B2BE34CE16BE3A2
:1044500088E10E94BB0BA8016AE38BE10E942A0657
:10446000A8016CE38BE10E942A06A80169E38AE1B6
:104470000E942A06A8016DE38AE10E942A0688EAC2
:1044800093E00E94BE1F8A3591054CF02BEE32E07E
:1044900040E067E08EE190E00E94020B49C088EAAC
:1044A00093E00E94BE1F8A35910594F488EA93E058
:1044B0000E94BE1FC29764F08E010F5F1F4F25EF51
:1044C00032E040E067E08EE190E00E94020B30C0F5
:1044D00088EA93E00E94BE1FC29794F488EA93E0B2
:1044E0000E94BE1F499764F08E010F5F1F4F2CEF93
:1044F00032E040E067E08EE190E00E94020B18C0DD
:1045000088EA93E00E94BE1F499794F488EA93E0FA
:104510000E94BE1F181619065CF48E010F5F1F4F14
:1045200026E033E040E067E08EE190E00E94020B7D
:104530008E010F5F1F4F2BED32E040E064E08FE50E
:1045400090E00E94020B2EEA33E040E063E082E458
:1045500090E00E94100A2EED32E040E064E08BE72C
:1045600090E00E94020B20EE33E040E063E08CE636
:1045700090E00E94100A2AEE33E040E062E086E517
:1045800090E00E94680A2EE033E040E062E085E6B9
:1045900090E00E94020B21E133E040E062E082E71C
:1045A00090E00E94020B24E133E040E062E082E010
:1045B00090E00E94020B2AE133E040E062E081E4F7
:1045C00090E00E94020B20E140E860E180E00E9460
:1045D000BB0B28E140E268E180E00E94BB0B28E1D0
:1045E00040E261E180E20E94BB0B28E140E061E132
:1045F00080E00E94BB0B28E143E568E180E40E9473
:10460000BB0B28E143E561E183E50E94BB0B29E296
:104610004FE361E18FE30E94BB0B29E240E869E2CE
:104620008FE30E94BB0BC8010E942820C8010E9492
:10463000FD1882E693E00E94D120892B59F488EA84
:1046400093E00E94BE1F8A35910524F0C8010E94A4
:10465000011736C082E693E00E94D120893E934044
:104660002CF0CE0101960E9404182AC082E693E045
:104670000E94D1201816190664F488EA93E00E947B
:10468000BE1F8A3591052CF0CE0101960E94451778
:1046900017C088EA93E00E94BE1F8535910564F437
:1046A00088EA93E00E94BE1F181619062CF4CE016A
:1046B00001960E94B41804C0CE0101960E94011711
:1046C000CE0101960E944C0780E00E942D07C65F34
:1046D000DB4F0FB6F894DEBF0FBECDBFDF91CF9199
:1046E0001F910F91FF90EF90DF90CF9008950F935F
:1046F0001F93CF93DF938EE693E00E94C905882332
:10470000D9F0EEE6F3E0C281D0E0DC2FCC27818146
:10471000C82BDD231CF4D195C195D109EEE6F3E059
:10472000848190E0982F88272381822B6AE070E0B3
:104730000E943725162F072FCE016AE070E00E94F5
:1047400037259F938F937F936F9387E491E09F9397
:104750008F938EEA93E09F938F930E94C4250F93CB
:104760001F93CAE4D1E0DF93CF9380EE93E09F9351
:104770008F930E94C4250E9448040E941A242FE8A7
:1047800032EC45EF5BE30E947E240E94E2236093BB
:104790006C0370936D037F936F93DF93CF938AEED7
:1047A00093E09F938F930E94C4258DB79EB7449644
:1047B0000FB6F8949EBF0FBE8DBFDF91CF911F91B2
:1047C0000F9108950E94E9236894B1110C94782404
:1047D00008950E945D2488F09F5798F0B92F99277B
:1047E000B751B0F0E1F0660F771F881F991F1AF0DC
:1047F000BA95C9F714C0B13091F00E947724B1E0A6
:1048000008950C947724672F782F8827B85F39F0A4
:10481000B93FCCF3869577956795B395D9F73EF474
:1048200090958095709561957F4F8F4F9F4F08951C
:10483000E89409C097FB3EF490958095709561953A
:104840007F4F8F4F9F4F9923A9F0F92F96E9BB27F0
:104850009395F695879577956795B795F111F8CF6C
:10486000FAF4BB0F11F460FF1BC06F5F7F4F8F4FD7
:104870009F4F16C0882311F096E911C0772321F0CD
:104880009EE8872F762F05C0662371F096E8862F65
:1048900070E060E02AF09A95660F771F881FDAF7BC
:1048A000880F9695879597F9089557FD9058440F6E
:1048B000551F59F05F3F71F04795880F97FB991F7F
:1048C00061F09F3F79F0879508951216130614063C
:1048D000551FF2CF4695F1DF08C0161617061806C9
:1048E000991FF1CF86957105610508940895E894A4
:1048F000BB2766277727CB0197F908950E9491245B
:104900000C9402250E94F42438F00E94FB2420F02D
:10491000952311F00C94EB240C94F12411240C94A5
:1049200078240E94552470F3959FC1F3950F50E0B1
:10493000551F629FF001729FBB27F00DB11D639F51
:10494000AA27F00DB11DAA1F649F6627B00DA11DF7
:10495000661F829F2227B00DA11D621F739FB00D9D
:10496000A11D621F839FA00D611D221F749F33270D
:10497000A00D611D231F849F600D211D822F762FA6
:104980006A2F11249F5750409AF0F1F088234AF083
:10499000EE0FFF1FBB1F661F771F881F91505040EF
:1049A000A9F79E3F510580F00C94EB240C947824D9
:1049B0005F3FE4F3983ED4F3869577956795B79576
:1049C000F795E7959F5FC1F7FE2B880F911D969590
:1049D000879597F9089597F99F6780E870E060E000
:1049E00008959FEF80EC089500240A941616170688
:1049F00018060906089500240A94121613061406D0
:104A000005060895092E0394000C11F4882352F032
:104A1000BB0F40F4BF2B11F460FF04C06F5F7F4FEA
:104A20008F4F9F4F0895DB018F939F930E94A12585
:104A3000BF91AF91A29F800D911DA39F900DB29F3A
:104A4000900D11240895AA1BBB1B51E107C0AA1F9A
:104A5000BB1FA617B70710F0A61BB70B881F991F1F
:104A60005A95A9F780959095BC01CD01089597FBC3
:104A7000072E16F4009407D077FD09D00E94232555
:104A800007FC05D03EF4909581959F4F0895709551
:104A900061957F4F0895A1E21A2EAA1BBB1BFD0151
:104AA0000DC0AA1FBB1FEE1FFF1FA217B307E4070D
:104AB000F50720F0A21BB30BE40BF50B661F771F65
:104AC000881F991F1A9469F7609570958095909545
:104AD0009B01AC01BD01CF010895052E97FB1EF48B
:104AE00000940E94842557FD07D00E944B2507FCA7
:104AF00003D04EF40C948425509540953095219523
:104B00003F4F4F4F5F4F08959095809570956195F9
:104B10007F4F8F4F9F4F0895EE0FFF1F0590F49129
:104B2000E02D0994A29FB001B39FC001A39F700D17
:104B3000811D1124911DB29F700D811D1124911DA5
:104B400008950E949225A59F900DB49F900DA49F5B
:104B5000800D911D11240895B7FF0C94A1250E948A
:104B6000A125821B930B0895DC0101C06D93415078
:104B70005040E0F70895FB01DC018D910190801910
:104B80000110D9F3990B0895AEE0B0E0EAECF5E23C
:104B90000C94B92B0D891E8986E08C831A830983B6
:104BA0008FEF9FE79E838D83AE01475E5F4F6F89D6
:104BB000788DCE0101960E94FF25EF81F885E00FE8
:104BC000F11F10822E96E4E00C94D52BAEE0B0E0FD
:104BD000ECEEF5E20C94BB2B85E08C838B899C89F1
:104BE0009A838983AE01495E5F4F6D897E89CE01CC
:104BF00001960E947C292E96E2E00C94D72BABE024
:104C0000B0E0E5E0F6E20C94AB2B6C017B018A018D
:104C1000FC0117821682838181FFCCC1CE010196EF
:104C20003C01F6019381F70193FD859193FF8191FA
:104C30007F01882309F4BAC1853239F493FD859147
:104C400093FF81917F01853229F4B60190E00E94A3
:104C5000F52AE7CF912C212C312CFFE1F315D8F068
:104C60008B3279F038F4803279F08332A1F4232D3D
:104C700020611DC08D3261F0803369F4232D2160E5
:104C800016C0832D8260382EE32DE4603E2E2AC0AC
:104C9000F32DF8601DC037FC2DC020ED280F2A3001
:104CA00040F08E32B9F436FC81C1232D2064322EBF
:104CB00019C036FE06C08AE0989E200D1124922E5F
:104CC00011C0EAE02E9E200D1124222EF32DF06259
:104CD0003F2E08C08C3621F4832D8068382E02C008
:104CE000883641F4F70193FD859193FF81917F010F
:104CF0008111B3CF982F9F7D9554933028F40C5F8A
:104D00001F4F9FE399830DC0833631F0833771F0D5
:104D1000833509F059C021C0F801808189830E5F75
:104D20001F4F88248394912C530113C02801F2E073
:104D30004F0E511CF801A080B18036FE03C0692DD2
:104D400070E002C06FEF7FEFC5010E94AC2A4C01FA
:104D50008201F32DFF773F2E16C0280122E0420E7C
:104D6000511CF801A080B18036FE03C0692D70E0AF
:104D700002C06FEF7FEFC5010E94A12A4C01F32D05
:104D8000F0683F2E820133FC1BC0822D90E0881614
:104D90009906B0F4B60180E290E00E94F52A2A94C8
:104DA000F4CFF50137FC859137FE81915F01B601A3
:104DB00090E00E94F52A21102A9421E0821A91089D
:104DC0008114910471F7E8C0843611F0893641F5F9
:104DD000F80137FE07C060817181828193810C5F89
:104DE0001F4F08C060817181072E000C880B990B42
:104DF0000E5F1F4FF32DFF763F2E97FF09C0909552
:104E00008095709561957F4F8F4F9F4FF0683F2E33
:104E10002AE030E0A3010E944A2B882E861845C064
:104E2000853731F4232D2F7EB22E2AE030E025C0C5
:104E3000932D997FB92E8F36C1F018F4883579F00B
:104E4000B5C0803719F0883721F0B0C0E92FE06194
:104E5000BE2EB4FE0DC0FB2DF460BF2E09C034FE83
:104E60000AC0292F2660B22E06C028E030E005C017
:104E700020E130E002C020E132E0F801B7FE07C0D7
:104E800060817181828193810C5F1F4F06C06081B8
:104E9000718180E090E00E5F1F4FA3010E944A2BBA
:104EA000882E8618FB2DFF773F2E36FE0DC0232D52
:104EB0002E7FA22E891458F434FE0BC032FC09C098
:104EC000832D8E7EA82E05C0B82CA32C03C0B82C31
:104ED00001C0B92CA4FE0FC0FE01E80DF11D8081B8
:104EE000803321F49A2D997EA92E09C0A2FE06C016
:104EF000B394B39404C08A2D867809F0B394A3FCCC
:104F000011C0A0FE06C0B21488F4280C922C9B1885
:104F10000EC0B21460F4B60180E290E00E94F52A5F
:104F2000B394F7CFB21418F42B1802C0982C212C8C
:104F3000A4FE10C0B60180E390E00E94F52AA2FE14
:104F400017C0A1FC03C088E790E002C088E590E0AC
:104F5000B6010CC08A2D867859F0A1FE02C08BE202
:104F600001C080E2A7FC8DE2B60190E00E94F52A24
:104F7000891438F4B60180E390E00E94F52A9A94EF
:104F8000F7CF8A94F301E80DF11D8081B60190E01E
:104F90000E94F52A8110F5CF222009F442CEB601F5
:104FA00080E290E00E94F52A2A94F6CFF6018681ED
:104FB000978102C08FEF9FEF2B96E2E10C94C72BF5
:104FC00020FD09C0FC0123FD05C022FF02C0738340
:104FD000628351834083089544FD17C046FD17C086
:104FE000AB01BC01DA01FB01AA0FBB1FEE1FFF1FC3
:104FF0001094D1F74A0F5B1F6E1F7F1FCB01BA01C0
:10500000660F771F881F991F09C033E001C034E085
:10501000660F771F881F991F3150D1F7620F711DDE
:10502000811D911D08950F931F93CF93DF938C01E2
:10503000C8010E94B72AEC0197FD08C00E948D2A82
:10504000892BB1F7B801CE010E94312BCE01DF913F
:10505000CF911F910F9108958F929F92AF92BF921F
:10506000EF92FF920F931F93CF93DF938C01D62F74
:105070007A01B22E0E94B72A9C0133272B323105C8
:1050800031F02D32310561F48B2D8068B82ED1506E
:1050900011F480E068C0C8010E94B72A97FDF9CFDB
:1050A000CB2DCD7F2B2D207309F58033F9F4AA2465
:1050B000AA94AD0E09F443C0C8010E94B72A97FD17
:1050C0003EC09C012F7D33272835310549F4C26449
:1050D000D250A9F1C8010E94B72A97FF07C02FC07C
:1050E000B6FE02C0C26001C0C261DA2D812C912CD3
:1050F000540120ED280F283080F0C4FF04C0B8010F
:105100000E94312B19C02A3040F0C6FFF8CF2F7D06
:105110003FEE320F363098F727504C2FC501B401BF
:105120000E94EC274B015C01C260D15059F0C801CC
:105130000E94B72A97FFDDCFC1FD04C0AACF812C02
:10514000912C5401C7FF08C0B094A094909480940F
:10515000811C911CA11CB11C2C2FB501A401C701FD
:105160000E94E02781E0DF91CF911F910F91FF9086
:10517000EF90BF90AF909F908F900895A0E2B0E025
:10518000E4ECF8E20C94AE2B5C01962E7A01F90166
:105190008E010F5F1F4F680180E2D8011D928A9532
:1051A000E9F7D50113968C9080E090E0612C712C8A
:1051B00030E061E070E083FC259183FE21918F0156
:1051C000522E211103C080E090E092C02E3511F4E0
:1051D000009751F1432F50E0481759073CF42D3503
:1051E00059F12D3219F4772009F103C0772009F421
:1051F0006AC0452D469546954695D601A40FB11D2A
:10520000452D47708B0102C0000F111F4A95E2F730
:10521000A8015C91452B4C93651459F0561410F479
:105220005394E7CF5A94E5CF31E004C077247394C8
:1052300001C0712C0196BFCF772019F08E8180625A
:105240008E83311103C08824839417C0F6019E0118
:105250002F5D3F4F8081809581932E173F07D1F7B7
:10526000F2CFE114F10429F0D7018C93F7013196C4
:105270007F019A94812C9920F9F0C5010E94B72AE8
:1052800097FD18C0FC01FF2723E0F595E7952A95C7
:10529000E1F7EC0DFD1D208130E0AC014770552792
:1052A00002C0359527954A95E2F720FDDACFB50182
:1052B0000E94312B811087CFE114F10411F0D70146
:1052C0001C92C80115C0422F469546954695D601B9
:1052D000A40FB11D422F47708B0102C0000F111F98
:1052E0004A95E2F7A8015C91452B4C93622EA2CF20
:1052F000A096EFE00C94CA2BA0E0B0E0E2E8F9E25F
:105300000C94AE2B6C01EB015A01FC011782168242
:10531000512CF601E380FE01E3FC8591E3FE8191CF
:10532000182FEF01882309F4EEC090E00E948D2A27
:10533000892B21F0C6010E941328EBCF153241F4CE
:10534000FE01E3FC1591E3FE1191EF01153281F4AA
:10535000C6010E94B72A97FDD4C0412F50E09C019E
:10536000332724173507A9F2B6010E94312BCBC091
:105370001A3239F4E3FC1591E3FE1191EF0101E0DB
:1053800001C000E0F12C20ED210F2A3080F40260F2
:105390006F2D70E080E090E040E20E94EC27F62E56
:1053A000FE01E3FC1591E3FE1191EF01ECCF01FF4B
:1053B00003C0F11003C0A7C0FF24FA94183619F0F7
:1053C0001C3651F010C0FE01E3FC1591E3FE119173
:1053D000EF01183641F408600460FE01E3FC15910A
:1053E000E3FE1191EF01112309F48DC0612F70E0EC
:1053F0008AEA90E00E94962A892B09F484C000FD75
:1054000007C0F50180809180C50102965C0102C051
:10541000812C912C1E3651F4F6014681578160E0B3
:1054200070E0202FC4010E94E02773CF1336A9F447
:1054300001FD02C0FF24F394C6010E94B72A97FD24
:1054400060C08114910429F0F4018083C4010196A5
:105450004C01FA94F110F0CF50C01B3559F49E0165
:10546000A4016F2DC6010E94BE28EC01892B09F012
:1054700044C03EC0C6010E94132897FD42C01F369B
:1054800061F128F4143639F1193651F128C0133777
:1054900071F0153701F123C08114910429F0F40152
:1054A0006082C40101964C01FA94FF2071F0C6019C
:1054B0000E94B72A3C0197FD08C00E948D2A892BC3
:1054C00059F3B601C3010E94312B81149104A9F054
:1054D000F401108212C0006203C0006101C00064C8
:1054E000202FA4016F2DC6010E942C28811105C018
:1054F000F6018381807329F406C000FD0ACF53941E
:1055000008CF552019F0852D90E002C08FEF9FEF56
:10551000CDB7DEB7EFE00C94CA2B91110C94A82BF9
:10552000803219F089508550C8F70895FC01059024
:10553000061621F00020D9F7C00108953197CF0158
:105540000895FC010590615070400110D8F78095D6
:1055500090958E0F9F1F0895FC016150704001903F
:105560000110D8F7809590958E0F9F1F0895CF93C7
:10557000DF93EC012B8120FF33C026FF0AC02F7B75
:105580002B838E819F8101969F838E838A8190E0F9
:1055900029C022FF0FC0E881F9818081082E000C0C
:1055A000990B009719F420622B831AC03196F98366
:1055B000E8830EC0EA85FB85099597FF09C02B811A
:1055C000019611F080E201C080E1822B8B8308C03C
:1055D0002E813F812F5F3F4F3F832E83992702C04B
:1055E0008FEF9FEFDF91CF9108950F931F93CF938C
:1055F000DF93FB01238121FD03C08FEF9FEF2CC0C0
:1056000022FF16C0468157812481358142175307F6
:1056100044F4A081B1819D012F5F3F4F31832083EE
:105620008C93268137812F5F3F4F3783268314C0A9
:105630008B01EC01FB010084F185E02D0995892B9C
:10564000E1F6D80116968D919C91179701961796C1
:105650009C938E931697CE01DF91CF911F910F915E
:105660000895FB01238120FF12C026FD10C08F3F4B
:105670003FEF930761F082832F7D2064238326818F
:1056800037812150310937832683992708958FEF79
:105690009FEF0895FA01AA27283051F1203181F1B6
:1056A000E8946F936E7F6E5F7F4F8F4F9F4FAF4F2A
:1056B000B1E03ED0B4E03CD0670F781F891F9A1F3D
:1056C000A11D680F791F8A1F911DA11D6A0F711DF1
:1056D000811D911DA11D20D009F468943F912AE0FD
:1056E000269F11243019305D3193DEF6CF010895E5
:1056F000462F4770405D4193B3E00FD0C9F7F6CF16
:10570000462F4F70405D4A3318F0495D31FD4052DD
:10571000419302D0A9F7EACFB4E0A6959795879573
:1057200077956795BA95C9F7009761057105089552
:105730009B01AC010A2E06945795479537952795FE
:10574000BA95C9F7620F731F841F951FA01D089596
:105750009927882708952F923F924F925F926F92D8
:105760007F928F929F92AF92BF92CF92DF92EF92F1
:10577000FF920F931F93CF93DF93CDB7DEB7CA1B72
:10578000DB0B0FB6F894DEBF0FBECDBF09942A889D
:10579000398848885F846E847D848C849B84AA8445
:1057A000B984C884DF80EE80FD800C811B81AA81D2
:1057B000B981CE0FD11D0FB6F894DEBF0FBECDBF9D
:0857C000ED010895F894FFCFFC
:1057C8004080EFF0E8E5ECE020EDE520E1FBEBEED2
:1057D800210000000000B3B40125733A25733A256F
:1057E800732C25732F25732F25730025732025739C
:1057F80020257320257320257320257320257320E9
:105808002573202573200025642E256400C4CECC82
:10581800C0D8CDDFDF00CCC5D2C5CED1D2C0CDD661
:10582800C8DF00CFEEE6E0EBF3E9F1F2E020EFEEBF
:10583800E4EEE6E4E8F2E52E00C8E4B8F220E7E09A
:10584800E3F0F3E7EAE02E2E2E00C3CBC0C2CDCEA4
:10585800C520CCC5CDDE00C3EBE0E2EDEEE520E8E7
:10586800EDF4EE2DEEEAEDEE00CDE0F1F2F0EEE92A
:10587800EAE020E2F0E5ECE5EDE800D1EFF0E0E267
:10588800EAE000C4EEEF2EE8EDF4EE00CEE120F3FE
:10589800F1F2F0EEE9F1F2E2E50022C4EEECE0F814
:1058A800EDFFFF20ECE5F2E5EEF1F2E0ED2D00F67C
:1058B800E8FF2028762E312E3029222DEFF0E5E45E
:1058C800EDE02D00E7EDE0F7E5EDE020E4EBFF206B
:1058D800F1E1EEF0E020E82000EEE1F0E0E1EEF2A8
:1058E800EAE820E8EDF4EEF0ECE0F6E8E82000EE77
:1058F80020ECE5F2E5EE20F3F1EBEEE2E8FFF5202F
:10590800E7E02000EEEAEDEEEC20E820E220EFEE02
:10591800ECE5F9E5EDE8E82E00CDE0E7E0E420E28B
:1059280020CCC5CDDE00C4EEEFEEEBEDE8F2E5EB02
:10593800FCEDE0FF20E8EDF4EE00D3EBE8F7EDFB3B
:10594800E920EFE5F0E5E4E0F2F7E8EA3A00E2F012
:10595800E5ECFF20EFEEF1EB2EEFF0E8E5ECE03AB6
:10596800004E0053004E2D45004E2D5700532D4537
:1059780000532D570030256400CDC0D1D2D0CEC9F8
:10598800CAC020C2D0C5CCC5CDC800F700ECE8ED30
:10599800002C002F0025733A257300B04300250022
:1059A800EC2FF100EEF1E0E4EAE800EEF2F1F3F2B8
:1059B800F1F2E22E00F1EBE0E1FBE500F3ECE5F0BB
:1059C800E5EDEDFBE500F1E8EBFCEDFBE500ECECCB
:0E59D80000486700F3EBE8F6E000E4EEEC00B8
:00000001FF
