S01000004E524632345F52582E73726563BF
S11300000C94CE000C9440110C94EB000C94EB0077
S11300100C94EB000C94EB000C94EB000C94EB00B0
S11300200C94EB000C94EB000C94EB000C94150C6A
S11300300C94EB000C94EB000C94EB000C94EB0090
S11300400C94EB000C94EB000C94EB000C94EB0080
S11300500C94EB000C94EB000C94EB000C94EB0070
S11300600C94EB000C94EB00102018202020282086
S1130070302038204020552060206B2076208120BD
S11300808C209720A220AD20B820C320CE206E6102
S11300906E00696E660000407A10F35A00A0724E3A
S11300A018090010A5D4E80000E87648170000E419
S11300B00B54020000CA9A3B000000E1F505000061
S11300C080969800000040420F000000A0860100C6
S11300D00000102700000000E80300000000640096
S11300E0000000000A000000000001000000000001
S11300F02C76D888DC674F0823DFC1DFAE59E1B125
S1130100B796E5E3E453C63AE651997696E8E6C233
S11301108426EB898C9B62ED407C6FFCEFBC9C9F3A
S113012040F2BAA56FA5F490055A2AF75C936B6C5C
S1130130F9676DC11BFCE0E40D47FEF520E6B50050
S1130140D0ED902E0300943577050080841E0800BE
S113015000204E0A000000C80C333333330F986E6E
S113016012831141EF8D2114893BE65516CFFEE62B
S1130170DB18D1844B381BF77C1D901DA4BBE424F1
S1130180203284725E228100C9F124ECA1E53D276E
S11301906364696E6F70737578585B0011241FBEB9
S11301A0CFEFD8E0DEBFCDBF11E0A0E0B1E0EAE9D7
S11301B0F0E602C005900D92A43DB107D9F726E000
S11301C0A4EDB1E001C01D92AF3EB207E1F70E9479
S11301D0B90C0C944B300C9400000F931F93CF93E5
S11301E0DF93C82F0E9495198EEE0E94A1198C2FBF
S11301F00E94A1190E949D190E9495198FEE0E94D8
S1130200A1190E94AB19C82FD0E00E94B519082F7C
S113021010E00E949D199C2F8827800F911FDF9169
S1130220CF911F910F9108958AEA0E94ED00909357
S1130230A5068093A4068CEA0E94ED009093AD0677
S11302408093AC068EEA0E94ED009093BD068093E5
S1130250BC0680EB0E94ED009093B1068093B0063B
S113026082EB0E94ED009093AB068093AA0684EB88
S11302700E94ED009093A9068093A80686EB0E9445
S1130280ED009093A7068093A60688EB0E94ED00EC
S11302909093A1068093A0068AEB0E94ED009093B0
S11302A0A3068093A2068CEB0E94ED009093B30604
S11302B08093B2068EEB0E94ED009093AF0680937C
S11302C0AE0608950E9495198EEE0E94A11984EF3E
S11302D00E94A1198EE20E94A1190E949D198FE02B
S11302E097E20197F1F700C0000086EF0E94ED004D
S11302F0BC0180E090E008950E9495198EEE0E9462
S1130300A11984EF0E94A11984EF0E94A1190E94EF
S11303109D198FE19BEC0197F1F700C000000E944A
S113032095198EEE0E94A11986EF0E94A1190E94D0
S11303309D190E9495198FEE0E94A1190E94AB1974
S113034090E0A0E0B0E08093B8069093B906A09343
S1130350BA06B093BB060E94AB1990E0A0E0B0E0EF
S11303608093B4069093B506A093B606B093B706EF
S11303700E94B51990E0A0E0B0E080939C069093B1
S11303809D06A0939E06B0939F060E949D194091DE
S1130390B8065091B9066091BA067091BB06BA01CD
S11303A0552744278091B4069091B506A091B606CE
S11303B0B091B706BA2FA92F982F8827480F591F35
S11303C06A1F7B1F80919C0690919D06A0919E06BA
S11303D0B0919F06840F951FA61FB71FBC01CD01C6
S11303E0689414F896958795779567951694D1F740
S11303F008954F925F926F927F928F929F92AF92E5
S1130400BF92CF92DF92EF92FF920F931F93CF93FD
S1130410DF9300D000D0CDB7DEB70E9462016B013C
S11304207C010E947C0169837A838B839C83809105
S1130430A8069091A906A7019601281B390B41092A
S11304405109A091AA06B091AB060E94F92A2B018A
S11304503C01032E3FE075946794579447943A9572
S1130460D1F7302D6091B2067091B306CB01770FAE
S1130470AA0BBB0BBC01CD01052E5BE0660F771FF9
S1130480881F991F5A95D1F7502D2091AE063091AF
S1130490AF068901330F220B330BA9019801240DF8
S11304A0351D461D571D0E94D42A420E531E641E3C
S11304B0751E80EA481A8FE0580A61087108A30182
S11304C09201C301B2010E94A22A4B015C01072ED2
S11304D07CE0B594A794979487947A95D1F7702D7E
S11304E0A091A006B091A106A50194010E94042B3D
S11304F06B017C010B2EBBE0F594E794D794C79471
S1130500BA95D1F7B02DA091AC06B091AD06A30178
S113051092010E94042BDC01CB01072E7BE0B595F0
S1130520A795979587957A95D1F7702DC80ED91E02
S1130530EA1EFB1E8091A4069091A506092E000CCC
S1130540AA0BBB0B880F991FAA1FBB1F880F991FEB
S1130550AA1FBB1FC80ED91EEA1EFB1ECC0CDD1C35
S1130560EE1CFF1CA091BC06B091BD060E94042B9A
S11305702B013C01032E3DE07594679457944794F6
S11305803A95D1F7302DA091A606B091A706A50102
S113059094010E94042BBB2797FDB095AB2F840DCB
S11305A0951DA61DB71D0296A11DB11DB595A79554
S11305B097958795B595A795979587959C01AD01D6
S11305C030584F4F5F4FA091B006B091B1060E94D2
S11305D0F92A2B013C01032E3FE07694679457944B
S11305E047943A95D1F7302D29813A814B815C812A
S11305F02C193D094E095F09AAE6B8E10E94F92ABF
S113060099235CF0660F771F881F991FA30192013D
S11306100E94B22A29013A010AC0A30192010E9450
S1130620B22A29013A01440C551C661C771CC301EB
S1130630B2010E9403266B017C0120E030E040E817
S11306405BE30E94B8269B01AC010E94B8260E947D
S1130650CB259B01AC01AEEDBBE00E94F92A0E94C0
S1130660032620E030E040E857E30E94B8260E94C9
S1130670CB254B015C01A3E4B3EEA30192010E94DC
S1130680072B0E94032620E030E040E857E30E9455
S1130690B8260E94CB25DC01CB01880D991DAA1D2B
S11306A0BB1DBC01CD016153714F8F4F9F4F0E9401
S11306B0032620E030E040E85DE30E94B8269B0179
S11306C0AC01C701B6010E94E8240E94CB256093C7
S11306D0D4017093D5018093D6019093D7010F90E4
S11306E00F900F900F90DF91CF911F910F91FF907A
S11306F0EF90DF90CF90BF90AF909F908F907F90BE
S11307006F905F904F9008952FEF83ED90E3215009
S113071080409040E1F700C0000087B1816087B954
S113072088B1816088B980E00895BC0187B1816097
S113073087B988B18E7F88B988B1816088B92FEF75
S113074080E792E0215080409040E1F700C0000033
S113075088B18E7F88B98FE99CE80197F1F700C0D2
S1130760000088B1816088B987B18E7F87B990EA2B
S11307709A95F1F7309938C025ED2A95F1F70000E4
S113078096B1892F817090FF30C085ED8A95F1F77D
S1130790000080E025C0E4E0F0E0E81BF109E60F8A
S11307A0F71F108290E019C0309BFECF2DE52A95EB
S11307B0F1F70000309B0EC047E050E0491B51099F
S11307C021E030E002C0220F331F4A95E2F7308166
S11307D0232B20833099FECF9F5F983028F38F5FBF
S11307E08530C8F281E0089580E008959091000179
S11307F06917E0F4909101018917C0F4962F96953A
S113080096959695E82FF0E080E8989FE00DF11D0D
S11308101124677081E090E002C0880F991F6A95E7
S1130820E2F7EF56FD4F9081892B808308959091D4
S113083000016917E0F4909101018917C0F4962F23
S1130840969596959695E82FF0E080E8989FE00DB0
S1130850F11D112467708EEF90E002C0880F991F7C
S11308606A95E2F7EF56FD4F9081892380830895BE
S113087082E08A95F1F700C08BB180628BB982E087
S11308808A95F1F700C08BB18F7D8BB982E08A9590
S1130890F1F700C008951F93CF93DF93182F8BB106
S11308A080688BB98BB180648BB90E9438040E9434
S11308B038040E9438040E9438040E9438048BB122
S11308C08F7B8BB90E9438048BB180648BB90E94F2
S11308D038048BB18F7B8BB90E943804C0E0D0E020
S11308E01CC0CE010497049730F48BB18F7B8BB975
S11308F00E94380411C0812F807841F0803859F467
S11309008BB180648BB90E94380405C08BB18F7B96
S11309108BB90E943804110F2196CC30D1050CF309
S11309208BB18F7B8BB90E9438040E9438040E94DB
S113093038040E9438048BB18F778BB9DF91CF9143
S11309401F9108951F93CF93DF93182F8BB1806865
S11309508BB98BB180648BB90E9438040E9438042F
S11309600E9438040E9438040E9438048BB18F7BA3
S11309708BB90E9438048BB18F7B8BB90E943804E9
S11309808BB18F7B8BB90E943804C0E0D0E01CC0CF
S1130990CE010497049730F48BB18F7B8BB90E94FE
S11309A0380411C0812F807841F0803859F48BB11C
S11309B080648BB90E94380405C08BB18F7B8BB9DE
S11309C00E943804110F2196CC30D1050CF38BB161
S11309D08F7B8BB90E9438040E9438040E9438042B
S11309E00E9438048BB18F778BB9DF91CF911F911F
S11309F00895882399F084E30E94A2048FEC97E081
S1130A000197F1F700C0000086E30E94A2048FEC76
S1130A1097E00197F1F700C00000089580E30E9479
S1130A20A2048FEC97E00197F1F700C0000008954D
S1130A308F929F92AF92BF92DF92EF92FF920F93A9
S1130A401F93CF93DF937C01D12C31C18FE18D159E
S1130A5048F08D2D80680E94A204802F80680E9437
S1130A60A20409C080EE8D0D80680E94A204802F2C
S1130A7088680E94A204CD2DC695C695C695D0E07F
S1130A80CC0FDD1FCC0FDD1FCC0FDD1FC00FD11D20
S1130A90C295D295D07FDC27C07FDC27CE0DDF1D29
S1130AA08880912C1D2D1770012E02C09594879477
S1130AB00A94E2F79694982C882497948794A980B2
S1130AC0B12C012E02C0B594A7940A94E2F781E0F8
S1130AD0A822BB240024B694A7940794B694A794A0
S1130AE00794BA2CA02CAA81B0E0012E02C0B595BF
S1130AF0A7950A94E2F7A170BB27AA0FBB1FA29582
S1130B00B295B07FBA27A07FBA27EB81F0E0012E1F
S1130B1002C0F595E7950A94E2F7E170FF27E295A4
S1130B20F295F07FFE27E07FFE276C8170E0012EB6
S1130B3002C0759567950A94E2F761707727660F8E
S1130B40771F660F771F660F771F4D8150E0012EC8
S1130B5002C0559547950A94E2F741705527440F12
S1130B60551F440F551F2E8130E0012E02C03595CC
S1130B7027950A94E2F721703327220F331F8F81C0
S1130B8090E0012E02C0959587950A94E2F7A82873
S1130B90AA29EA2B6E2B462B242B8170822B0E94D0
S1130BA04B048884912C012E02C0959487940A9456
S1130BB0E2F79694982C882497948794A984B12C6E
S1130BC0012E02C0B594A7940A94E2F781E0A8220A
S1130BD0BB240024B694A7940794B694A7940794CE
S1130BE0BA2CA02CAA85B0E0012E02C0B595A79519
S1130BF00A94E2F7A170BB27AA0FBB1FA295B29576
S1130C00B07FBA27A07FBA27EB85F0E0012E02C09F
S1130C10F595E7950A94E2F7E170FF27E295F295DE
S1130C20F07FFE27E07FFE276C8570E0012E02C076
S1130C30759567950A94E2F761707727660F771FB9
S1130C40660F771F660F771F4D8550E0012E02C097
S1130C50559547950A94E2F741705527440F551F5F
S1130C60440F551F2E8530E0012E02C0359527957F
S1130C700A94E2F721703327220F331FCF85D0E087
S1130C8002C0D595C7951A95E2F7882D8A298A2B33
S1130C908E2B862B842B822BC1708C2B0E944B04B1
S1130CA00F5F01C000E0083008F4D0CED3948FE386
S1130CB08D15C0F7DF91CF911F910F91FF90EF90A9
S1130CC0DF90BF90AF909F908F90089581E00E9435
S1130CD0A2048FE19EE40197F1F700C0000008959B
S1130CE02FEF89EF90E0215080409040E1F700C061
S1130CF000008CE00E94A20487EC90E00197F1F7D9
S1130D0000C000000E94660686E00E94A2048FE1F3
S1130D109EE40197F1F700C000000895BF92CF92BE
S1130D20DF92EF92FF920F931F93CF93DF936C01A7
S1130D307B01B42EC0E0D0E02DC0BB20B1F08E0109
S1130D400C0D1D1D01501109C701880F991F8E0D2F
S1130D509F1D880F991F8C0F9D1F0E944C19F8012D
S1130D60EF56FD4F8095808314C086010C0F1D1F24
S1130D7001501109C701880F991F8E0D9F1D880FFF
S1130D80991F8C0F9D1F0E944C19F801EF56FD4FBF
S1130D9080832196C730D10584F2DF91CF911F91D2
S1130DA00F91FF90EF90DF90CF90BF900895BF9286
S1130DB0CF92DF92EF92FF920F931F93CF93DF9323
S1130DC06C017B01B42EC0E0D0E029C0BB20A1F0AF
S1130DD08E010C0D1D1D01501109C701880F991FAB
S1130DE0880F991F8C0F9D1F0E944C19F801EF5614
S1130DF0FD4F8095808312C086010C0F1D1F01508A
S1130E001109C701880F991F880F991F8C0F9D1F07
S1130E100E944C19F801EF56FD4F80832196C4308F
S1130E20D105A4F2DF91CF911F910F91FF90EF9024
S1130E30DF90CF90BF900895BF92CF92DF92EF9250
S1130E40FF920F931F93CF93DF936C017B01B42E1A
S1130E50C0E0D0E02BC0BB20A9F08E010C0D1D1DFD
S1130E600150110926E12E9DC0012F9D900D1124E2
S1130E708C0F9D1F0E944C19F801EF56FD4F809571
S1130E80808313C086010C0F1D1F0150110926E138
S1130E902E9DC0012F9D900D11248C0F9D1F0E942B
S1130EA04C19F801EF56FD4F80832196CB30D105C4
S1130EB094F285E7C80ED11CCBE0D0E02BC0BB2058
S1130EC0A9F086010C0F1D1F0150110926E12E9D6A
S1130ED0C0012F9D900D11248C0F9D1F0E944C1951
S1130EE0F801EF56FD4F8095808313C086010C0FE7
S1130EF01D1F0150110926E12E9DC0012F9D900D4B
S1130F0011248C0F9D1F0E944C19F801EF56FD4FC0
S1130F1080832196C631D10594F2DF91CF911F9140
S1130F200F91FF90EF90DF90CF90BF900895BF9204
S1130F30CF92DF92EF92FF920F931F93CF93DF93A1
S1130F406C017B01B42EC0E0D0E037C0BB20D9F0E7
S1130F508E010C0D1D1D015011099701220F331F25
S1130F60C901880F991F880F991F880F991F821B29
S1130F70930B8C0F9D1F0E944C19F801EF56FD4FE7
S1130F808095808319C086010C0F1D1F0150110923
S1130F909701220F331FC901880F991F880F991FCA
S1130FA0880F991F821B930B8C0F9D1F0E944C1955
S1130FB0F801EF56FD4F80832196C730D10534F2F6
S1130FC089E7C80ED11CC7E0D0E037C0BB20D9F0F8
S1130FD086010C0F1D1F015011099701220F331FA9
S1130FE0C901880F991F880F991F880F991F821BA9
S1130FF0930B8C0F9D1F0E944C19F801EF56FD4F67
S11310008095808319C086010C0F1D1F01501109A2
S11310109701220F331FC901880F991F880F991F49
S1131020880F991F821B930B8C0F9D1F0E944C19D4
S1131030F801EF56FD4F80832196CE30D10534F26E
S1131040DF91CF911F910F91FF90EF90DF90CF90A0
S1131050BF900895BF92CF92DF92EF92FF920F93C9
S11310601F93CF93DF93CDB7DEB7AC970FB6F89449
S1131070DEBF0FBECDBF6C01162FB42E7901000068
S1131080CE0101960E947E1585E091E00E94B6167D
S113109080E8189FC00CD11C112400E010E02DC082
S11310A0F701E00FF11F608170E0BB2089F06E3220
S11310B0710539F06053710941E0C6010E94970738
S11310C017C041E06AE070E0C6010E94970710C0B3
S11310D06E32710539F06053710940E0C6010E9417
S11310E0970706C040E06AE070E0C6010E949707D7
S11310F088E0C80ED11C0F5F1F4FF701019000203C
S1131100E9F73197EE19FF090E171F0748F280E03F
S113111090E00E947E15AC960FB6F894DEBF0FBE29
S1131120CDBFDF91CF911F910F91FF90EF90DF9092
S1131130CF90BF900895BF92CF92DF92EF92FF922B
S11311400F931F93CF93DF93CDB7DEB7AC970FB652
S1131150F894DEBF0FBECDBF6C01162FB42E7901FB
S11311600000CE0101960E947E158FE091E00E945E
S1131170B61680E8189FC00CD11C112400E010E0C2
S11311802DC0F701E00FF11F608170E0BB2089F0F2
S11311906E32710539F06053710941E0C6010E9455
S11311A0D70617C041E06AE070E0C6010E94D70686
S11311B010C06E32710539F06053710940E0C60108
S11311C00E94D70606C040E06AE070E0C6010E94B3
S11311D0D70685E0C80ED11C0F5F1F4FF7010190A1
S11311E00020E9F73197EE19FF090E171F0748F29F
S11311F080E090E00E947E15AC960FB6F894DEBFB6
S11312000FBECDBFDF91CF911F910F91FF90EF9053
S1131210DF90CF90BF900895BF92CF92DF92EF926C
S1131220FF920F931F93CF93DF93CDB7DEB7AC97A5
S11312300FB6F894DEBF0FBECDBF7C01162FB42EBF
S113124069010000CE0101960E947E1588E191E0BB
S11312500E94B61680E8189FE00CF11C112400E0EF
S113126010E019C0F601E00FF11F608170E0BB20AF
S113127039F06053710941E0C7010E941C0706C0A0
S11312806053710940E0C7010E941C078CE0E80E1E
S1131290F11C0F5F1F4FF60101900020E9F7319711
S11312A0EC19FD090E171F07E8F280E090E00E9498
S11312B07E15AC960FB6F894DEBF0FBECDBFDF919E
S11312C0CF911F910F91FF90EF90DF90CF90BF903F
S11312D008959F92AF92BF92CF92DF92EF92FF92C6
S11312E00F931F93CF93DF93CDB7DEB7AC970FB6B1
S11312F0F894DEBF0FBECDBF6C01162F942E59019A
S11313000000CE0101960E947E1582E291E00E94C7
S1131310B61680E8189FC00CD11C1124E12CF12CC6
S11313207EC0F501EE0DFF1D0081003CD8F4083AA3
S1131330C9F0083BB9F0003BA9F0602F70E0992098
S113134039F06052710941E0C6010E948E0606C060
S11313506052710940E0C6010E948E0686E0C80E04
S1131360D11C5AC010E0C801805C910980349105F9
S1131370A0F4992041F041E0B80161567109C60119
S11313800E948E0607C040E0B80161567109C6018B
S11313900E948E0686E0C80ED11C083A110591F40D
S11313A0992039F041E06FE970E0C6010E948E0691
S11313B006C040E06FE970E0C6010E948E0686E038
S11313C0C80ED11C083B110591F4992039F041E075
S11313D060EA70E0C6010E948E0606C040E060EA42
S11313E070E0C6010E948E0686E0C80ED11C003B48
S11313F0110591F4992039F041E061EA70E0C601E9
S11314000E948E0606C040E061EA70E0C6010E94B8
S11314108E0686E0C80ED11C8FEFE81AF80AF50193
S113142001900020E9F73197EA19FB09EE16FF064F
S113143008F477CF80E090E00E947E15AC960FB65A
S1131440F894DEBF0FBECDBFDF91CF911F910F91F6
S1131450FF90EF90DF90CF90BF90AF909F90089552
S1131460AF92BF92CF92DF92EF92FF920F931F93AE
S1131470CF93DF93CDB7DEB7AC970FB6F894DEBF4A
S11314800FBECDBF0000CE0101960E947E158CE2F6
S113149091E00E94B616A12CB12CE12CF12C1FC0B6
S11314A06501D694DC2CCC24D794C7948601015EC4
S11314B01F4F0CC0C7010E944C19F801EF56FD4F95
S11314C080838FEFE81AF80A0F5F1F4FC601815A15
S11314D09F4F0817190774F38FEFA81AB80A88E00A
S11314E0A816B104ECF280E090E00E947E15AC9660
S11314F00FB6F894DEBF0FBECDBFDF91CF911F9121
S11315000F91FF90EF90DF90CF90BF90AF90089530
S113151080E094E0E1E9F2E0DF019C011D922150BA
S11315203040E1F708958F929F92AF92BF92CF928D
S1131530DF92EF92FF920F931F93CF93DF93C82F05
S1131540D62FB42E822E481728F0C42ED12CC81AB8
S1131550D10804C0C82ED12CC41AD1088D1628F085
S1131560E82CF12CED1AF10804C0ED2EF12CE8184A
S1131570F108CB1518F4AA24A39402C0AA24AA94AF
S1131580D81518F49924939402C099249A94860146
S11315900E191F096D2F8C2F0E94F603CB1102C068
S11315A0D815A1F0C801880F991F222733272E19B7
S11315B03F09281739071CF40E191F09CA0D8C1589
S11315C09D0544F70C0D1D1DD90DE4CFDF91CF917E
S11315D01F910F91FF90EF90DF90CF90BF90AF904D
S11315E09F908F900895EF92FF920F931F93CF9344
S11315F0DF937C018B01E9019C01240F351F80914D
S1131600010190E02817390718F0AC014E195F0961
S11316108091000190E098012C0F3D1F2817390795
S113162018F0EC01C01BD10BDE2DD40F202F4D2F51
S1131630602F8E2D0E94930AC00F2C2F4D2F6C2FDC
S11316408E2D0E94930A2C2F4E2D602F8E2D0E94DA
S1131650930A2C2F4D2F602F8D2F0E94930ADF9118
S1131660CF911F910F91FF90EF900895AF92BF9289
S1131670CF92DF92EF92FF920F931F93CF938C013F
S11316806B015A0179019C01240F351F80910101DE
S113169090E02817390718F05C01A01AB10A80916C
S11316A0000190E096012E0D3F1D2817390718F010
S11316B07C01EC18FD08C0E009C06C2F6C0D262FCE
S11316C0402F4A0D802F0E94930ACF5F8C2F90E009
S11316D0E816F90690F7CF911F910F91FF90EF90C4
S11316E0DF90CF90BF90AF9008955F926F927F92FA
S11316F08F929F92AF92BF92CF92DF92EF92FF921E
S11317000F931F93CF93DF93782E662EC42F042F4D
S113171010E081E090E06C01C01AD10AAA24BB2435
S1131720A01AB10AAA0CBB1C642F660D872D0E9457
S1131730F603662D6C1B872D0E94F603662D8C2FF5
S1131740870D0E94F603662D872D8C1B0E94F603DD
S1131750C0E0D0E088248394912C3FC0DD203CF08D
S11317600150110982E0A80EB11CCA0CDB1C2196A1
S113177082E0880E911CC80CD91C5C2E570CF62CE8
S1131780F00E6F2D852D0E94F603E72CEC1A6F2DB9
S11317908E2D0E94F603F62CF01A6F2D852D0E94D3
S11317A0F6036F2D8E2D0E94F603FC2EF60C6F2D82
S11317B0E72CE00E8E2D0E94F6036F2DF72CF01A05
S11317C08F2D0E94F603562C5C1A652D8E2D0E94D7
S11317D0F603652D8F2D0E94F603C017D1070CF474
S11317E0BDCFDF91CF911F910F91FF90EF90DF90CC
S11317F0CF90BF90AF909F908F907F906F905F90AD
S11318000895E1E8F0E0808188608083AFE6B0E08D
S11318108C9182608C938AE78093890082E1809323
S1131820880080818560808308951F920F920FB68F
S11318300F9211242F933F934F935F936F937F9352
S11318408F939F93AF93BF93EF93FF9380918702FE
S1131850882309F44CC080917D02882309F447C091
S113186080915502882309F442C080912302882381
S1131870F1F180912D028823D1F180914B028823CC
S1131880B1F187E892E09F938F9386E391E09F9371
S11318908F9381EF91E09F938F930E94972C65E53E
S11318A072E081EF91E00E943C2C63E272E081EFF0
S11318B091E00E943C2C6DE772E081EF91E00E9480
S11318C03C2C6DE272E081EF91E00E943C2C6BE4D1
S11318D072E081EF91E00E943C2C81EF91E00E9444
S11318E0D5190F900F900F900F900F900F90FF91BC
S11318F0EF91BF91AF919F918F917F916F915F9184
S11319004F913F912F910F900FBE0F901F901895FC
S113191084B18E6284B985B1837D85B98AB18B7FA8
S11319208AB98BB184608BB985B1846085B980E54F
S11319308CBD08958AB180618AB98BB18F7E8BB9D1
S11319408AB180688AB98BB18F778BB98AB180628A
S11319508AB98BB18F7D8BB98AB180648AB98BB116
S11319608F7B8BB908958EBD0DB407FEFDCF8EB568
S113197008950E949A0C8BB180618BB90E94700605
S113198081E00E94F9040E94880A81E992E00E94A1
S1131990180580E00E94F90481E992E00E94F019A0
S11319A00E94880C0E94010C0E94911988E090E02A
S11319B00E94BF190E949E110E943B190E94840339
S11319C00E94140182E08093690081E08DBB7894C9
S11319D081E992E00E941A1A8BB18F7E8BB981E95A
S11319E092E00E94C4222FEF83ED90E321508040C7
S11319F09040E1F700C00000F2CF20E012C088233D
S1131A0024F098B19B7F98B903C098B1946098B9B9
S1131A10880F98B1986098B9000098B1977F98B9E9
S1131A202F5F283060F3089588B1846088B980E01E
S1131A3020E00BC098B1986098B9880F3199816003
S1131A4098B1977F98B900002F5F283098F30895D4
S1131A50FF920F931F93CF93DF93C82FD42F152F8B
S1131A60062FF72E88234CF4CF7740E050E0BA01DC
S1131A7087E70E94280D823050F585B1816085B9D1
S1131A800E94140D85B18E7F85B90E94140D8C2F90
S1131A900E94FD0C8F2D0E94FD0C802F0E94FD0CD6
S1131AA0812F0E94FD0C8D2F0E94FD0CC03411F07B
S1131AB081E001C085E9C83409F487E80E94FD0C7F
S1131AC0CAE00E94140D882314F4C150D1F7DF91A9
S1131AD0CF911F910F91FF9008950E94140D0895C6
S1131AE0CF92DF92EF92FF920F931F93CF93DF93E6
S1131AF07C0169018091930683FD09C0032E39E0BE
S1131B00440F551F661F771F3A95D1F7302D81E595
S1131B100E94280D811134C0C0E3D5E70E94140D42
S1131B208F3F11F42197D1F78E3F61F5CC27DD2744
S1131B30CC19DD09C01BD10BCE5FDD4FC114D1041C
S1131B4031F00E94140D81E0C81AD108D1F7E114D4
S1131B50F10469F06701EFEFCE1ADE0A0E94140D5A
S1131B60F7018083015011097601A1F703C00150E8
S1131B701109E9F70E94140D2197E1F7C0E003C0B1
S1131B80C1E001C0C1E00E946D0D8C2FDF91CF91A7
S1131B901F910F91FF90EF90DF90CF9008950F93D6
S1131BA01F93CF93DF93FC01892BF1F0EA0111C05D
S1131BB08F010F5F1F4F80810E94FD0C8091910661
S1131BC090919206019790939206809391062197A3
S1131BD0F801209709F454C08091910690919206DF
S1131BE0892B31F7C0E04FC04115510561057105DE
S1131BF001F18091930683FD09C0032E39E0440F5F
S1131C00551F661F771F3A95D1F7302D88E50E943E
S1131C10280D811137C08FEF0E94FD0C8EEF0E94BA
S1131C20FD0C80E092E09093920680939106C0E0D0
S1131C302AC08091910690919206029604C080E099
S1131C400E94FD0CCE01EC012197892BC1F70E9463
S1131C50140D8F71853021F0C1E00FC0219702C0AF
S1131C60C8EEDDEF0E94140D8F3F11F02097B1F7FD
S1131C70CD2B11F4C1E001C0C0E00E946D0D03C082
S1131C80C0E001C0C1E08C2FDF91CF911F910F9173
S1131C900895EF92FF920F931F93CF93DF9300D099
S1131CA000D0CDB7DEB785B1816085B988B18660D3
S1131CB088B984B1816084B987B18C6087B9289967
S1131CC007C040E050E0BA0180E090E00E94CF0DF0
S1131CD014E603C00E94140D11501111FBCF40E013
S1131CE050E0BA0180E40E94280D813009F08FC0D1
S1131CF04AEA51E060E070E088E40E94280D8130F7
S1131D0009F053C00DC0E02EF12C0E94140DE1E047
S1131D10F0E0EC0FFD1FEE0DFF1D80830F5F01C08F
S1131D20012F043080F38B81813009F072C08C81E3
S1131D308A3A31F0F12C78C081E0E81AF10806C043
S1131D400F2EF0EEEF2EFEE2FF2EF02DE114F10443
S1131D5049F040E050E060E070E489EE0E94280D14
S1131D608111EACFEF2809F456C040E050E0BA01EF
S1131D708AE70E94280D882371F0F12C55C0E12ECA
S1131D80F12C0E94140DE1E0F0E0EC0FFD1FEE0DCC
S1131D90FF1D80831F5F143090F3898186FF3DC04F
S1131DA00F2EFCE0FF2EF02D3FC040E050E0BA01C2
S1131DB089EE0E94280D823040F46894FF24F1F8E3
S1131DC00F2EF9EEEF2EF02D06C0FF24F3940F2E04
S1131DD0F1E4EF2EF02D08EA11E602C001501109DA
S1131DE00115110541F040E050E0BA018E2D0E942A
S1131DF0280D8111F3CF012BA1F040E052E060E007
S1131E0070E080E50E94280D81110DC00DC0F12CF9
S1131E100BC0F12C09C0F12C07C06894FF24F2F820
S1131E2003C0F12C01C0F12CF09293060E946D0DB9
S1131E3081E0F11080E00F900F900F900F90DF91F0
S1131E40CF911F910F91FF90EF900895CF93DF935F
S1131E5080919406813009F063C1809195068130A8
S1131E6009F059C0E7E8F2E001900020E9F7319762
S1131E70AF0147585240440F551F60E070E087E8B7
S1131E8092E00E94352CE5E9F6E08181C281D0E040
S1131E90DC2FCC27C82BBE010D2E000C880B990B10
S1131EA00E94032620E030E040E251E40E945925DC
S1131EB06093E3017093E4018093E5019093E6015C
S1131EC0DD235CF4DC01CB01B0588093E3019093F3
S1131ED0E401A093E501B093E6018091E6018F93BC
S1131EE08091E5018F938091E4018F938091E301C8
S1131EF08F938AE391E09F938F9387E892E09F9377
S1131F008F930E94972C8DB79EB708960FB6F894BE
S1131F109EBF0FBE8DBF80919506853009F03FC0EE
S1131F20CDE7D2E0FE0101900020E9F73197AF013F
S1131F304D575240440F551F60E070E0CE010E949F
S1131F40352CE5E9F6E08181628170E0762F662721
S1131F50682B072E000C880B990B0E94032620E0A7
S1131F6030E040E251E40E9459256093DF01709310
S1131F70E0018093E1019093E2010E94CB257F93DD
S1131F806F9384E991E09F938F93DF93CF930E94A3
S1131F90972C0F900F900F900F900F900F90C0916F
S1131FA09506C23061F5EFE5F2E001900020E9F713
S1131FB03197AF014F555240440F551F60E070E018
S1131FC08FE592E00E94352C20E00BC0822F90E038
S1131FD0FC01EA56F94F3081FC01E15AFD4F308390
S1131FE02F5F822F90E0E5E9F6E001900020E9F709
S1131FF03197E559F64031978E179F0738F3C33070
S113200089F5EBE4F2E001900020E9F73197AF01A4
S11320104B545240440F551F60E070E08BE492E053
S11320200E94352C20E00BC0822F90E0FC01EA5680
S1132030F94F3081FC01E55BFD4F30832F5F822F28
S113204090E0E5E9F6E001900020E9F73197E559E1
S1132050F64031978E179F0738F3FC01E45BFD4F80
S113206080E28083C43061F5E1E4F2E00190002075
S1132070E9F73197AF0141545240440F551F60E0D6
S113208070E081E492E00E94352C20E00BC0822FA6
S113209090E0FC01EA56F94F3081FC01EF5BFD4F03
S11320A030832F5F822F90E0E5E9F6E00190002075
S11320B0E9F73197E559F64031978E179F0738F3C2
S11320C0C63061F5E7E3F2E001900020E9F73197CB
S11320D0AF0147535240440F551F60E070E087E35F
S11320E092E00E94352C20E00BC0822F90E0FC018E
S11320F0EA56F94F3081FC01E95CFD4F30832F5FD4
S1132100822F90E0E5E9F6E001900020E9F73197AD
S1132110E559F64031978E179F0738F310929406CD
S1132120DF91CF91089585B18B7F85B982EE90E0E0
S11321300E94B30C82E08A95F1F700C085B18460F7
S113214085B9089585B18B7F85B981EE90E00E94B1
S1132150B30C82E08A95F1F700C085B1846085B93B
S1132160089585B18B7F85B980E590E00E94B30C1A
S113217082E08A95F1F700C083E790E00E94B30CF7
S113218085B1846085B90895EF92FF920F931F93F0
S1132190CF93DF938B01C42F95B19B7F95B990E0CA
S11321A00E94B30C0CC078018FEFE81AF80A8FEF85
S11321B090E00E94B30CF8018083CD2F8701DFEFFC
S11321C0DC0FC111F0CF85B1846085B9DF91CF9167
S11321D01F910F91FF90EF900895EF92FF920F934C
S11321E01F93CF93DF938B01C42F806295B19B7FA4
S11321F095B990E00E94B30C82E08A95F1F700C093
S11322000BC07801EFEFEE1AFE0AF801808190E02E
S11322100E94B30CCD2F8701DFEFDC0FC111F1CF8A
S113222085B1846085B9DF91CF911F910F91FF90A3
S1132230EF900895CF93C62F806295B19B7F95B997
S113224090E00E94B30C8C2F90E00E94B30C85B1F7
S1132250846085B9CF910895CF93C82F85B18B7FC2
S113226085B98C2F90E00E94B30CC73021F08FEF1A
S113227090E00E94B30C95B1946095B9CF91089504
S11322801F920F920FB60F9211242F933F934F93E7
S11322905F936F937F938F939F93AF93BF93EF93CA
S11322A0FF9387E592E00197F1F700C000008BB13E
S11322B080618BB987E592E00197F1F700C00000D7
S11322C08BB18F7E8BB987E00E942C1186FF0AC0E8
S11322D045E065E976E081E60E94C41060E487E0A9
S11322E00E941A1181E0809394060E94260FFF91A8
S11322F0EF91BF91AF919F918F917F916F915F917A
S11323004F913F912F910F900FBE0F901F901895F2
S113231080E00E942C11682F636080E00E941A11F3
S113232085B1826085B98BE291E00197F1F700C035
S113233000000E9493100E94A210089585B18D7F21
S113234085B98FE097E20197F1F700C000006AE0D9
S113235080E00E941A118FE097E20197F1F700C024
S1132360000062E081E00E941A1162E082E00E94B3
S11323701A1161E083E00E941A116FE584E00E9463
S11323801A110E94B11060E08DE10E941A1160E000
S11323908CE10E941A1160E787E00E941A116CE434
S11323A085E00E941A1166E086E00E941A1143E05B
S11323B062E071E080E10E94ED1043E062E071E0D0
S11323C08BE00E94ED1065E082E10E941A110E94E8
S11323D088110895FC0103C06083AC013196CA01E1
S11323E00197452BC9F70895CF93DF93DC01FB01D7
S11323F080E090E002C0FB01DE019A012150310926
S1132400452B61F0ED0121968C9190E0BF016F5F47
S11324107F4F4081841B9109A90169F3DF91CF911A
S113242008950F931F93E0919A06F0919B069B01E8
S1132430AC01225031094109510980859185A28559
S1132440B3850297A109B109281739074A075B0721
S113245068F4A181B0E00E94F92A048915892689CB
S11324603789600F711F821F931F03C060E070E003
S1132470CB011F910F9108950F931F93CF93DF9377
S1132480FC01A0919A06B0919B061182108264818E
S1132490758186819781613071058105910591F17E
S11324A018960D911D912D913C911B976017710702
S11324B08207930748F5611571058105910549F473
S11324C02C91233031F450966D917D918D919C9196
S11324D05397EF0160877187828793876115710530
S11324E08105910519F00E94111206C050966D9154
S11324F07D918D919C9153976C877D878E879F8763
S113250080E003C081E001C081E0DF91CF911F91A1
S11325100F9108950F931F93CF93DF93EB01FC0169
S1132520028113814BE050E060E270E0C8010E9438
S1132530EA112881398190E080E058E001C0842FBD
S113254041E0480FF901E80FF11D80818132C0F0AC
S11325508F32B1F08E3211F0951738F0583081F483
S11325608E3271F498E05BE0EACF6FE9680F6A316C
S113257008F48052F801E90FF11D80839F5FDFCFDB
S1132580240F311D3983288391E0813208F090E0D3
S1132590F801938780E0DF91CF911F910F91089507
S11325A0CF92DF92EF92FF920F931F93CF93DF931B
S11325B0EC016A017B0102E010E02EEF31E00E94A1
S11325C0700D811125C08881998185359A4A11F54C
S11325D026E330E0B701A601CE010E94700D8111FF
S11325E005C08881998186349144B1F002E010E0FD
S11325F022E530E0B701A601CE010E94700D8111E1
S11326000DC0888199818634914451F081E009C0DC
S113261083E007C082E005C080E003C081E001C020
S113262080E0DF91CF911F910F91FF90EF90DF90A9
S1132630CF9008954F925F926F927F928F929F9264
S1132640AF92BF92CF92DF92EF92FF920F931F93BC
S1132650CF93DF9300D000D0CDB7DEB7E0909A06D9
S1132660F0909B06623071058105910508F4BFC0A6
S1132670F70180849184A284B384681579058A055E
S11326809B0508F0B9C04B015C018081823009F4DC
S113269062C0833009F47FC0813009F0B2C0C40144
S11326A096958795880D991D9C013170892F9927DE
S11326B086952F3FF1E03F0791F0F701448555855A
S11326C066857785480F591F611D711D02E010E072
S11326D0CE0101960E94700D882361F197C0F70125
S11326E044855585668577852C01612C712C440DB4
S11326F0551D661D771D01E010E02FEF31E0CE017E
S113270001960E94700D811186C0F701448555859C
S113271066857785440D551D661D771D4F5F5F4F98
S11327206F4F7F4F20E030E0CE0102960E94700D83
S1132730811176C069817A8180FE09C072956295A3
S11327406F7067277F70672780E090E077C07F70A5
S113275080E090E073C094013327220F331FF70108
S1132760C484D584E684F784BB27AB2D9A2D892DA8
S1132770B701A601480F591F6A1F7B1F02E010E032
S1132780CE0101960E94700D81114FC069817A813A
S113279080E090E053C094012F773327220F331F3A
S11327A0220F331FF701C484D584E684F784D5014E
S11327B0C401689416F8B695A795979587951694CD
S11327C0D1F7B701A601480F591F6A1F7B1F04E008
S11327D010E0CE0101960E94700D81112BC08981F9
S11327E09A81AB81BC81BC01CD019F7027C061E09F
S11327F070E080E090E022C061E070E080E090E072
S11328001DC061E070E080E090E018C061E070E01D
S113281080E090E013C061E070E080E090E00EC0E2
S113282061E070E080E090E009C061E070E080E089
S113283090E004C061E070E080E090E00F900F90C1
S11328400F900F90DF91CF911F910F91FF90EF9018
S1132850DF90CF90BF90AF909F908F907F906F90BC
S11328605F904F900895CF92DF92EF92FF920F9373
S11328701F93CF93DF93E0909A06F0909B06FC01A0
S1132880C081D181219609F45CC044855585668553
S11328907785411551056105710509F454C08C0112
S11328A0CE018F709927892B09F046C04F5F5F4F87
S11328B06F4F7F4F4487558766877787408551855B
S11328C062857385411551056105710539F4F70178
S11328D084819581C817D907C0F52EC0F70181817D
S11328E090E001979E01329522952F7023273F7027
S11328F0232782239323892BF9F4CB01BA010E9465
S11329001A13623071058105910508F1F701C0843D
S1132910D184E284F3846C157D058E059F05C8F48B
S1132920F80160877187828793870E941112F801EA
S11329306487758786879787F801D183C08380E091
S113294009C083E007C083E005C083E003C081E0E1
S113295001C083E0DF91CF911F910F91FF90EF9021
S1132960DF90CF900895DF92EF92FF920F931F9321
S1132970CF93DF937C010E943C1281113EC0E09111
S11329809A06F0919B06C681D781F7012081318197
S11329902F703327220F331F22953295307F322731
S11329A0207F3227448555856685778500E210E0CF
S11329B0CE010E94700D91E0811101C090E0D92EEA
S11329C0911116C088818823A9F08B8583FD0AC0E4
S11329D0F701628173814BE050E0CE010E94F41153
S11329E0892B51F0C7010E943314882371F205C06A
S11329F0892F03C083E001C08D2DDF91CF911F91FA
S1132A000F91FF90EF90DF9008950F931F93CF9352
S1132A10DF9300D0CDB7DEB78C017A83698303C01E
S1132A203196FA83E983E981FA8180818032C1F3A6
S1132A308F3219F43196FA83E983D80114961D92E2
S1132A401D921D921C921797E981FA81808181322F
S1132A5060F4C8010E943C12E0919A06F0919B0632
S1132A600680F781E02D108242C0BE016F5F7F4F68
S1132A70C8010E948A1281113AC0C8010E94B3148D
S1132A80882359F0833099F5D8011296ED91FC9181
S1132A9013979385992341F12AC0D8011296ED9199
S1132AA0FC9113979385911122C0E0919A06F091BD
S1132AB09B060680F781E02D838584FF17C08489F7
S1132AC09589A0E0B0E0BC0155274427828D938D01
S1132AD0A0E0B0E0842B952BA62BB72BF8018483C0
S1132AE09583A683B783C1CF84E001C084E00F90AF
S1132AF00F90DF91CF911F910F9108954F925F92A4
S1132B006F927F928F929F92AF92BF92DF92EF92D9
S1132B10FF920F931F93CF93DF93CDB7DEB7A897A0
S1132B200FB6F894DEBF0FBECDBF10929B06109275
S1132B309A06009709F4FBC07C010E94490E80FDAF
S1132B40F8C040E050E0BA01CE0101960E94D012D4
S1132B50D82E41E084131CC000E110E02EEB31E0DC
S1132B6040E050E0BA01CE0101960E94700D81113F
S1132B7013C08D818823C1F089849A84AB84BC847A
S1132B80B501A401CE0101960E94D012D82E0FC027
S1132B90812C912C54010BC0812C912C54010F2EAB
S1132BA0F3E0DF2EF02D03C0812C912C540153E06F
S1132BB0D51609F4C0C0D110C0C004E210E02DE065
S1132BC030E0B501A401CE0101960E94700D81117F
S1132BD0B6C02A853B8540E050E02115310541050A
S1132BE0510521F4288D398D4A8D5B8DAC81B0E07F
S1132BF00E94F92A6DA37EA38FA398A78A819B8143
S1132C00880E991EA11CB11CD7011C968D929D9211
S1132C10AD92BC921F97E9811196EC9311978D8127
S1132C209E8115969C938E9314970F81188520E0AE
S1132C3030E0011511052105310521F40C891D89A8
S1132C402E893F894A815B81041B150B21093109B7
S1132C504DA15EA16FA178A5041B150B260B370BA4
S1132C60929582958F7089279F7089272C01612CFA
S1132C70712CC901B80164197509860997092E2FA9
S1132C8030E040E050E00E94B22ABA01A9014E5F50
S1132C905F4F6F4F7F4FD70118964D935D936D93A0
S1132CA07C931B97473FBFE05B076105710510F4F8
S1132CB081E001C082E0473F5F4F6105710508F084
S1132CC083E0D7018C93833051F488A199A1AAA100
S1132CD0BBA1F701808B918BA28BB38B0DC08DA10F
S1132CE09EA1AFA1B8A5880D991DAA1DBB1DF70112
S1132CF0808B918BA28BB38B4DA15EA16FA178A524
S1132D00840E951EA61EB71E840C951CA61CB71C0B
S1132D10D70154968D929D92AD92BC92579712967C
S1132D201C92F0929B06E0929A0680E009C080E033
S1132D3007C082E005C081E003C087E001C081E0F4
S1132D40A8960FB6F894DEBF0FBECDBFDF91CF912A
S1132D501F910F91FF90EF90DF90BF90AF909F90E5
S1132D608F907F906F905F904F9008950F931F9373
S1132D70CF93DF93CDB7DEB7EC970FB6F894DEBFF1
S1132D800FBECDBF00919A0610919B060115110547
S1132D90C9F1BC01F8011282CE014D969783868356
S1132DA00C979C838B8340970E94051581112FC03B
S1132DB08D8D882349F188A584FD28C089A99AA905
S1132DC0A0E0B0E0BC01552744278FA998ADA0E04E
S1132DD0B0E0842B952BA62BB72BF80180A391A3ED
S1132DE0A2A3B3A389AD9AADABADBCAD848F958FCF
S1132DF0A68FB78F108E118E128E138E81E0828370
S1132E0080E005C086E003C083E001C083E0EC9667
S1132E100FB6F894DEBF0FBECDBFDF91CF911F91E7
S1132E200F9108952F923F924F925F926F927F92EB
S1132E308F929F92AF92BF92CF92DF92EF92FF92C6
S1132E400F931F93CF93DF933C016B014A01E090F2
S1132E509A06F0909B06FA0111821082E114F104A3
S1132E6009F4BBC0F701828180FFB9C0848D958DC0
S1132E70A68DB78D408D518D628D738D841B950BFE
S1132E80A60BB70BA60160E070E084179507A607B0
S1132E90B70708F46C01530196C0F701208C318CFC
S1132EA0428C538CD201C1019170AA27BB27892B74
S1132EB08A2B8B2B09F04EC0218130E040E050E09A
S1132EC0C201B101052E59E09695879577956795CE
S1132ED05A95D1F7502D0E94B22A672B682B692B83
S1132EE0E9F423282428252831F4F70160A171A1ED
S1132EF082A193A107C0F70164A175A186A197A13E
S1132F000E941A13623071058105910508F461C0AD
S1132F10F70164A375A386A397A31382F70164A1A1
S1132F2075A186A197A10E941112611571058105F1
S1132F30910509F44EC0F701238131E0320F338348
S1132F40DC01CB01820F911DA11DB11D80A791A7AA
S1132F50A2A7B3A7F701808D918DA28DB38D9C019B
S1132F603170C0E0D2E0C21BD30BCC16DD0608F4EE
S1132F70E601F70140A551A562A573A5611471048A
S1132F8019F480E090E002C08A2D9B2D8E010E94EE
S1132F90700D81111EC0F701808D918DA28DB38DAE
S1132FA08C0F9D1FA11DB11D808F918FA28FB38F98
S1132FB0AC0EBD1ECC1ADD0AF40180819181C80FCC
S1132FC0D91FD183C083C114D10409F066CF80E036
S1132FD007C0F701128281E003C086E001C085E0EA
S1132FE0DF91CF911F910F91FF90EF90DF90CF90E1
S1132FF0BF90AF909F908F907F906F905F904F9015
S11330003F902F9008954F925F926F927F928F928C
S11330109F92AF92BF92CF92DF92EF92FF92CF93A3
S1133020DF9300D000D000D0CDB7DEB720919A0650
S113303030919B063E832D832115310509F4F4C09C
S1133040D90112962C91129720FFF0C05C96CD9076
S1133050DD90ED90FC905F97C616D706E806F9065A
S113306010F06B017C01ED81FE81408C518C628CEF
S1133070738C108E118E128E138EC114D104E10440
S1133080F10409F4D5C08180912CA12CB12C072E18
S113309079E0880C991CAA1CBB1C7A95D1F7702D79
S11330A0411451046104710409F440C0C701B6011C
S11330B06150710981099109A50194010E94B22A04
S11330C029833A834B835C83B1E04B1A510861082E
S11330D07108C301B201A50194010E94B22A898139
S11330E09A81AB81BC8182179307A407B507F0F0DE
S11330F088279927DC0188199909AA09BB0948225C
S113310059226A227B22AD81BE8158964D925D92EE
S11331106D927C925B97C418D508E608F7089496DC
S11331206D917D918D919C91979733C0ED81FE8136
S113313060A171A182A193A164A375A386A397A39F
S113314028C00E941A13623071058105910508F4A4
S113315065C0ED81FE81408451846284738464156A
S113316075058605970508F059C064A375A386A361
S113317097A3408C518C628C738C480C591C6A1C2C
S11331807B1C408E518E628E738EC818D908EA0853
S1133190FB088C149D04AE04BF0498F2AD81BE817B
S11331A058968D909D90AD90BC905B978C0C9D1C17
S11331B0AE1CBF1CFD01808E918EA28EB38E0E9428
S11331C01112611571058105910541F146015701FF
S11331D0072E79E0B694A794979487947A95D1F7BB
S11331E0702DAD81BE8113968C92B1E0DB22EE246A
S11331F0FF24CD28CE28CF28E9F021E0280DED8149
S1133200FE812383DC01CB01880D911DA11DB11D1D
S113321080A791A7A2A7B3A780E00DC0AD81BE810E
S113322012961C9281E007C086E005C085E003C0C9
S113323080E001C080E026960FB6F894DEBF0FBE92
S1133240CDBFDF91CF91FF90EF90DF90CF90BF90F3
S1133250AF909F908F907F906F905F904F90089564
S1133260982F92959F70990F292F220F220F920F5A
S11332708F70890F08950E94951980ED0E94A119FD
S11332808EE00E94A11980E20E94A11988E00E94A8
S1133290A1190E949D1908950F931F93CF93DF9353
S11332A0CDB7DEB72D970FB6F894DEBF0FBECDBFF6
S11332B08E010C5F1F4F2AE0F80111922A95E9F75D
S11332C0BC01660F771F680F791F660F771F80E0B8
S11332D090E00E940318AE014F5F5F4F64E070E01E
S11332E0C8010E941217CE0103969F938F938FE318
S11332F091E09F938F931F930F930E94B92C0F908B
S11333000F900F900F900F900F908B812D960FB60A
S1133310F894DEBF0FBECDBFDF91CF911F910F9107
S1133320089580E28093B800089584EA8093BC00F5
S11333308091BC008823E4F7089584E98093BC005D
S113334008958093BB0084E88093BC008091BC0006
S11333508823E4F7089584EC8093BC008091BC003A
S11333608823E4F78091BB00089584E88093BC002F
S11333708091BC008823E4F78091BB00089590936A
S1133380C5008093C400E1ECF0E088E18083808193
S113339080688083E0ECF0E0808182608083E2ECEE
S11333A0F0E080818E6080830895DC0180E00BC0B2
S11333B09091C00095FFFCCFFD01E20FF31F9081B7
S11333C09093C6008F5F282F30E0FD01019000200C
S11333D0E9F73197EA1BFB0B2E173F0748F30895D3
S11333E0CF93DF93EC0181E00E94F9040E94300A3C
S11333F022E431E040E060E088E290E00E94690964
S11334002BE431E040E067E08EE190E00E9469093E
S1133410CE010E94180580E00E94F9042FEF8DE38D
S113342099E4215080409040E1F700C00000DF9112
S1133430CF9108950F931F93CF938C0181E00E9445
S1133440F9040E94880A2FE030E040E750E063E28C
S113345070E086E090E00E94F30A28E531E040E065
S113346061E083E090E00E9469092EE631E040E0EB
S113347063E080E190E00E946909C8010E94180598
S1133480C8E017C02BE030E049E050E065E270E0AE
S11334908C2F90E00E94360BC8010E9418052FEF74
S11334A084E39CE0215080409040E1F700C000009C
S11334B0C55FC53738F380E00E94F904CF911F91AE
S11334C00F91089529E34AE669E38AE50E94930A85
S11334D068E389E50E94F60367E388E50E94F60342
S11334E066E387E50E94F60365E387E50E94F60339
S11334F064E387E50E94F60363E388E50E94F6032C
S113350062E389E50E94F60362E38AE50E94F6031A
S113351062E38BE50E94F60362E38CE50E94F60306
S113352063E38EE50E94F60362E38DE50E94F603F1
S113353061E38CE50E94F60360E38CE50E94F603E8
S11335406FE28CE50E94F6036EE28CE50E94F603BE
S11335506DE28DE50E94F6036CE28EE50E94F603AF
S11335606CE28FE50E94F6036CE280E60E94F603AB
S11335706CE281E60E94F6036CE282E60E94F603A6
S11335806CE283E60E94F6036CE284E60E94F60392
S11335906DE285E60E94F6036EE286E60E94F6037B
S11335A06FE286E60E94F60360E386E60E94F60375
S11335B061E385E60E94F60360E386E60E94F60373
S11335C060E387E60E94F60360E388E60E94F60360
S11335D060E389E60E94F60368E38BE60E94F60343
S11335E067E38CE60E94F60366E38DE60E94F60329
S11335F065E38DE60E94F60364E38DE60E94F6031C
S113360063E38DE60E94F60362E38CE60E94F60310
S113361061E38BE60E94F60360E38AE60E94F60308
S113362027E349E767E38EE60E94930A66E38AE7A5
S11336300E94F60365E38AE70E94F60364E38AE7DF
S11336400E94F60363E38AE70E94F60362E389E7D4
S11336500E94F60361E388E70E94F60361E387E7CB
S11336600E94F60361E386E70E94F60362E385E7BE
S11336700E94F60360E386E70E94F6036FE286E7A2
S11336800E94F6036EE285E70E94F6036EE284E789
S11336900E94F6036EE283E70E94F6036EE282E77D
S11336A00E94F6036FE281E70E94F60360E381E77C
S11336B00E94F60361E381E70E94F60362E382E776
S11336C00E94F60361E380E70E94F60361E38FE65C
S11336D00E94F60362E38EE60E94F6032DE349E5B9
S11336E06BE38BE50E94930A2DE34CE56BE38EE5D7
S11336F00E94930A2DE34FE56BE381E60E94930A4F
S11337002DE342E66BE384E60E94930A2DE345E64B
S11337106BE387E60E94930A2DE348E66BE38AE6AF
S11337200E94930A2AE34EE669E38FE60E94930A15
S11337302AE341E769E382E70E94930A2AE344E724
S113374069E385E70E94930A2AE347E769E388E788
S11337500E94930A089549E064E38BE00E94750B8C
S11337606CE28BE00E9417046CE28AE00E9417046A
S11337706CE289E00E9417046CE288E00E9417045E
S11337806CE28CE00E9417046CE28DE00E94170446
S11337906CE28EE00E9417046BE289E00E94F6035B
S11337A06CE289E00E94F6036DE289E00E94F60370
S11337B06AE289E00E94F60369E289E00E94F60366
S11337C06AE28AE00E94F6036BE28BE00E94F60351
S11337D06CE28CE00E94F6036BE28DE00E94F6033B
S11337E06CE28DE00E94F6036DE28DE00E94F60328
S11337F06AE28DE00E94F60369E28DE00E94F6031E
S11338006DE38BE00E9417046DE38AE00E941704C5
S11338106DE389E00E9417046DE388E00E941704B9
S11338206DE38CE00E9417046DE38DE00E941704A1
S11338306DE38EE00E9417046CE389E00E94F603B6
S11338406FE389E00E94F6036DE38AE00E94F603C9
S11338506BE38AE00E94F6036FE38AE00E94F603BA
S11338606DE38BE00E94F6036BE38BE00E94F603AA
S11338706FE38BE00E94F6036DE38CE00E94F60395
S11338806BE38CE00E94F6036FE38CE00E94F60386
S11338906EE38DE00E94F6036BE38DE00E94F60375
S11338A064E384E10E94170465E384E10E94170441
S11338B066E384E10E94170467E383E10E9417042E
S11338C060E383E10E94F60363E384E10E9417044A
S11338D062E384E10E94170464E384E10E94F60336
S11338E062E384E10E94F60366E384E10E94F60346
S11338F064E385E10E94F60362E385E10E94F60336
S113390066E385E10E94F60364E386E10E94F60320
S113391062E386E10E94F60366E386E10E94F60311
S113392064E383E10E94F60362E383E10E94F60309
S113393066E383E10E94F60364E382E10E94F603F6
S113394065E382E10E94F60366E382E10E94F603E6
S113395063E382E10E94F60362E382E10E94F603DC
S113396064E382E00E94170465E382E00E94170486
S113397066E382E00E94170467E383E00E94170471
S113398060E383E00E94F60363E382E00E9417048D
S113399062E382E00E94170464E382E00E94F6037B
S11339A065E382E00E94F60366E383E00E94F60387
S11339B064E384E00E94F60365E384E00E94F60376
S11339C063E384E00E94F60362E384E00E94F6036A
S11339D066E381E00E94F60364E380E00E94F6035C
S11339E065E380E00E94F60363E380E00E94F6034F
S11339F062E380E00E94F60364E38BE00E94F60336
S1133A006FE771E08BE492E00E94472C892B09F068
S1133A1041C065E38AE00E94F60366E38AE00E94FF
S1133A20F60365E38CE00E94F60366E38CE00E94F3
S1133A30F60363E38BE00E94F60362E38BE00E94EB
S1133A40F60361E38BE00E94F60360E38BE00E94DF
S1133A50F6036FE28BE00E94F6036EE28BE00E94B5
S1133A60F6036FE28AE00E94F6036FE28CE00E94A4
S1133A70F60360E38AE00E94F60360E389E00E94B3
S1133A80F60360E38CE00E94F60360E38DE00E949D
S1133A90F603089561E871E08BE492E00E94472CFC
S1133AA0892B09F041C062E38AE00E94F60363E3D4
S1133AB08AE00E94F60362E38CE00E94F60363E36B
S1133AC08CE00E94F60365E38BE00E94F60366E354
S1133AD08BE00E94F60367E38BE00E94F60368E341
S1133AE08BE00E94F60369E38BE00E94F6036AE32D
S1133AF08BE00E94F60369E38AE00E94F60369E31F
S1133B008CE00E94F60368E38AE00E94F60368E30F
S1133B1089E00E94F60368E38CE00E94F60368E300
S1133B208DE00E94F603089565E871E08BE492E06D
S1133B300E94472C892B09F041C063E389E00E946D
S1133B40F60363E38AE00E94F60365E389E00E94DA
S1133B50F60365E38AE00E94F60364E38CE00E94C6
S1133B60F60364E38DE00E94F60364E38EE00E94B2
S1133B70F60364E38FE00E94F60364E380E10E94AD
S1133B80F60364E381E10E94F60363E380E10E94AB
S1133B90F60365E380E10E94F60365E38FE00E948B
S1133BA0F60366E38FE00E94F60363E38FE00E946E
S1133BB0F60362E38FE00E94F603089569E871E07A
S1133BC08BE492E00E94472C892B09F041C063E307
S1133BD08DE00E94F60363E38CE00E94F60365E344
S1133BE08DE00E94F60365E38CE00E94F60364E333
S1133BF08AE00E94F60364E389E00E94F60364E32A
S1133C0088E00E94F60364E387E00E94F60364E31D
S1133C1086E00E94F60364E385E00E94F60363E312
S1133C2086E00E94F60365E386E00E94F60365E3FE
S1133C3087E00E94F60366E387E00E94F60363E3ED
S1133C4087E00E94F60362E387E00E94F60308958A
S1133C5063E871E08BE492E00E94472C892BB9F56C
S1133C6063E38AE00E94F60364E389E00E94F603BA
S1133C7065E38CE00E94F60366E38BE00E94F603A2
S1133C802FE240E164E38BE00E94930A6FE28FE04D
S1133C900E94F6036FE28EE00E94F6036FE28DE06D
S1133CA00E94F60360E38EE00E94F60360E380E185
S1133CB00E94F60361E380E10E94F60361E38FE072
S1133CC00E94F60362E380E10E94F603089567E828
S1133CD071E08BE492E00E94472C892BB9F563E3F1
S1133CE08CE00E94F60364E38DE00E94F60365E332
S1133CF08AE00E94F60366E38BE00E94F6032FE25B
S1133D0046E064E38BE00E94930A6FE287E00E943E
S1133D10F6036FE288E00E94F6036FE289E00E94F6
S1133D20F60360E388E00E94F60360E386E00E9405
S1133D30F60361E386E00E94F60362E386E00E94F4
S1133D40F60361E387E00E94F60308956BE871E0EF
S1133D508BE492E00E94472C892BB9F562E38BE057
S1133D600E94F60363E38CE00E94F60365E38AE0B5
S1133D700E94F60364E389E00E94F60329E340E12C
S1133D8064E38BE00E94930A68E380E10E94F603F7
S1133D9069E38FE00E94F60367E38FE00E94F60375
S1133DA067E380E10E94F60366E380E10E94F60384
S1133DB068E38EE00E94F60369E38EE00E94F60356
S1133DC069E38DE00E94F60308956FE871E08BE4E7
S1133DD092E00E94472C892BB1F562E38BE00E94AC
S1133DE0F60363E38AE00E94F60364E38DE00E9435
S1133DF0F60365E38CE00E94F60329E346E064E3FE
S1133E008BE00E94930A68E386E00E94F60367E36E
S1133E1086E00E94F60367E387E00E94F60366E308
S1133E2086E00E94F60369E387E00E94F60369E3F3
S1133E3088E00E94F60368E388E00E94F60369E3E1
S1133E4089E00E94F60308950E94951980ED0E946E
S1133E50A11980E00E94A1190E949D190E94951940
S1133E6081ED0E94A1190E94AB190E943019809320
S1133E70EA060E94AB190E9430198093E4060E945E
S1133E80AB190E9430198093DD060E94AB190E9481
S1133E9030198093EB060E94AB190E94301980936D
S1133EA0ED060E94AB190E9430198093DC060E9433
S1133EB0B5190E9430198093E9060E949D198091DA
S1133EC0EA068A3098F41F928F9383E991E09F93D6
S1133ED08F938BEC96E09F938F930E94972C0F9077
S1133EE00F900F900F900F900F9012C01F928F930E
S1133EF084E991E09F938F938BEC96E09F938F934B
S1133F000E94972C0F900F900F900F900F900F908E
S1133F108091E4068A3098F41F928F9383E991E0AC
S1133F209F938F9380ED96E09F938F930E94972C9D
S1133F300F900F900F900F900F900F9012C01F9240
S1133F408F9384E991E09F938F9380ED96E09F9304
S1133F508F930E94972C0F900F900F900F900F90BB
S1133F600F908091DD068A3098F41F928F9383E935
S1133F7091E09F938F9384ED96E09F938F930E949B
S1133F80972C0F900F900F900F900F900F9012C0DE
S1133F901F928F9384E991E09F938F9384ED96E031
S1133FA09F938F930E94972C0F900F900F900F90D8
S1133FB00F900F908091ED068A3098F41F928F93A2
S1133FC083E991E09F938F9385EE96E09F938F937F
S1133FD00E94972C0F900F900F900F900F900F90BE
S1133FE012C01F928F9384E991E09F938F9385EE83
S1133FF096E09F938F930E94972C0F900F900F90B1
S11340000F900F900F90E091EB068E2F90E0FC0143
S11340103197E730F105D8F5EC5CFF4F0C94F32AA7
S1134020E8EDF6E08FEC9DEE9183808312822FC041
S1134030E8EDF6E082EC92EF91838083128227C050
S1134040E8EDF6E081ED90EF9183808312821FC04A
S1134050E8EDF6E087ED92EF91838083128217C03A
S1134060E8EDF6E08FEC92EF9183808312820FC02B
S1134070E8EDF6E081ED91EE91838083128207C032
S1134080E8EDF6E082EC91EF918380831282E09177
S1134090DC068E2F90E0FC013197EC30F10508F03E
S11340A087C0E55CFF4F0C94F32AEEEDF6E08FED4C
S11340B09DEE9183808382EE90E0938382830895C2
S11340C0EEEDF6E084ED95EE9183808382EE90E050
S11340D0938382830895EEEDF6E08CEC90EE918369
S11340E0808380EF90E0938382830895EEEDF6E081
S11340F080EC9FEE9183808380EF90E093838283B2
S11341000895EEEDF6E08CEC90EE9183808389EED9
S113411090E0938382830895EEEDF6E088EC9EEFC1
S1134120918380838DEE90E0938382830895EEEDF6
S1134130F6E088EC9EEF918380838BEE90E093838E
S113414082830895EEEDF6E080EC92EE9183808315
S113415083EE90E0938382830895EEEDF6E081EDA3
S113416095EE918380838DEE90E09383828308950E
S1134170EEEDF6E08EEC9AEE9183808382EF90E090
S1134180938382830895EEEDF6E08DEC9EEE9183A9
S113419080838FEF90E0938382830895EEEDF6E0C1
S11341A084EC95EE918380838AEE90E093838283FE
S11341B00895CF93DF9300D0CDB7DEB7FC01208103
S11341C02223A1F09E012F5F3F4F3F932F9324E9B9
S11341D031E03F932F939F938F930E94B92C0F90BC
S11341E00F900F900F900F900F9002C01A821982B7
S11341F069817A81CB01880F991F680F791F072E77
S1134200000C880B990B0E9403262DEC3CEC4CE12E
S113421050E40E94B82620E030E040EA55E40E94D1
S113422059250F900F90DF91CF910895CF93DF938D
S113423000D0CDB7DEB7FC0120812223A1F09E017E
S11342402F5F3F4F3F932F9324E931E03F932F9308
S11342509F938F930E94B92C0F900F900F900F9003
S11342600F900F9002C01A82198269817A81072EF9
S1134270000C880B990B0E9403262DEC3CEC4CE1BE
S113428050E40E94B82620E030E040E450E40E946C
S1134290B82620E030E040E85AE30E94B8260F90A8
S11342A00F90DF91CF9108952CE148E26CE182E216
S11342B00E94930A2BE142E263E182E20E94930AA4
S11342C02BE148E263E188E20E94930A23E144E29D
S11342D063E182E20E94930A23E148E263E186E219
S11342E00E94930A23E144E262E184E20E94930A79
S11342F023E146E262E186E20E94930A22E146E279
S113430062E184E20E94930A81E492E00E94162111
S113431020E030E040E850E40E94B32688232CF1EA
S11343202AE146E26AE184E20E94930A29E146E234
S113433069E184E20E94930A28E146E268E184E2AA
S11343400E94930A27E146E267E184E20E94930A0D
S113435026E146E266E184E20E94930A25E146E210
S113436065E184E20E94930A089581E492E00E9448
S113437016212AE939E949E750E40E94B326882343
S11343805CF181E492E00E94162120E030E040E8F4
S113439050E40E9454258823FCF42AE146E26AE1B1
S11343A084E20E94930A29E146E269E184E20E94E0
S11343B0930A28E146E268E184E20E94930A27E135
S11343C046E267E184E20E94930A26E146E266E15E
S11343D084E20E94930A089581E492E00E941621E7
S11343E023E333E343E750E40E94B32688232CF10C
S11343F081E492E00E9416212AE939E949E750E470
S11344000E9454258823CCF42AE146E26AE184E23E
S11344100E94930A29E146E269E184E20E94930A38
S113442028E146E268E184E20E94930A27E146E239
S113443067E184E20E94930A089581E492E00E9475
S113444016212DEC3CEC4CE650E40E94B326882364
S1134450FCF081E492E00E94162123E333E343E776
S113446050E40E94542588239CF42AE146E26AE140
S113447084E20E94930A29E146E269E184E20E940F
S1134480930A28E146E268E184E20E94930A0895CF
S113449081E492E00E94162126E636E646E650E4E0
S11344A00E94B3268823CCF081E492E00E94162176
S11344B02DEC3CEC4CE650E40E94542588236CF42B
S11344C02AE146E26AE184E20E94930A29E146E293
S11344D069E184E20E94930A089581E492E00E94D3
S11344E0162120E030E040E650E40E94B326882301
S11344F094F081E492E00E94162126E636E646E630
S113450050E40E945425882334F42AE146E26AE107
S113451084E20E94930A0895CF93DF9300D0CDB72D
S1134520DEB7FC0120812223A1F09E012F5F3F4FC3
S11345303F932F9324E931E03F932F939F938F93DD
S11345400E94B92C0F900F900F900F900F900F9026
S113455002C01A82198269817A81072E000C880BA5
S1134560990B0E94032623EF30EB40E15FE30E94A6
S1134570B82620E030E040E85EE30E94B8260F90C1
S11345800F90DF91CF9108950F931F93CF93DF93F3
S1134590EC0181E00E94F9040E94880A0E94241F11
S11345A080ED96E09F938F9384ED96E09F938F9395
S11345B087E991E09F938F938EEB96E09F938F937F
S11345C00E94972C2EEB36E040E060E082E090E021
S11345D00E940C0928ED36E040E061E08DE390E0B4
S11345E00E9469092DE931E040E061E089E490E04E
S11345F00E94690925EE36E040E061E08CE490E039
S11346000E9469092FE931E040E061E088E590E02B
S11346100E9469092EED36E040E061E08DE590E00E
S11346200E9469092FE931E040E061E08FE690E003
S11346300E94690921EA31E040E061E084E790E00A
S11346400E94690924EA31E040E064E08EE190E0F0
S11346500E94690927EA31E040E064E08AE390E0DF
S11346600E94690927E832E040E063E081E090E0DD
S11346700E942A082DE732E040E063E08BE290E0FC
S11346800E942A0881E492E00E9416219F938F934E
S11346907F936F9309EA11E01F930F938DE292E0E9
S11346A09F938F930E94972C2DE232E040E062E0CA
S11346B08CE290E00E949B088FE592E00E948C229D
S11346C09F938F937F936F931F930F9385E592E04E
S11346D09F938F930E94972C25E532E040E065E09C
S11346E08AE190E00E949B082EEA31E040E065E018
S11346F08DE290E00E94690922EB31E040E066E03F
S11347008EE190E00E94690924E348E164E38BE1CF
S11347100E94930A2BE348E164E388E10E94930A30
S11347202BE34CE16BE388E10E94930A6AE38BE19B
S11347300E94F6036CE38BE10E94F60369E38AE1CD
S11347400E94F6036DE38AE10E94F60387E392E098
S11347500E94D9202DB73EB7285E3F4F0FB6F8947C
S11347603EBF0FBE2DBF26E636E646E65FE30E9457
S1134770B326882344F029EB31E040E067E08EE182
S113478090E00E94690988ED91E00E9495038823D6
S113479009F472C0E8EDF1E0028110E0102F002767
S11347A08181082BB801012E000C880B990B0E9403
S11347B0032620E030E040E251E40E945925609352
S11347C0E3017093E4018093E5019093E6011123E2
S11347D05CF4DC01CB01B0588093E3019093E401D5
S11347E0A093E501B093E6018091E6018F93809157
S11347F0E5018F938091E4018F938091E3018F937E
S11348008AE391E09F938F9383E792E09F938F9342
S11348100E94972CE8EDF1E0648170E0762F662722
S11348208381682B072E000C880B990B0E940326AA
S113483020E030E040E251E40E9459256093DF011A
S11348407093E0018093E1019093E2010E94CB25F3
S11348507F936F9384E991E09F938F9389E692E02D
S11348609F938F930E94972C8DB79EB70E960FB689
S1134870F8949EBF0FBE8DBF0E94F9010E940326CB
S11348802FE832EC45EF5BE30E94B8260E94CB256B
S11348906093DD017093DE017F936F9384E991E06F
S11348A09F938F9387EE91E09F938F930E94972C11
S11348B024EA31E040E064E08FE590E00E94690979
S11348C023E732E040E063E082E490E00E942A08BB
S11348D027EA31E040E064E08BE790E00E94690958
S11348E029E632E040E063E08CE690E00E942A088A
S11348F027EE31E040E062E086E590E00E949B080C
S113490023EC31E040E062E085E690E00E94690932
S113491026EC31E040E062E082E790E00E94690921
S113492029EC31E040E062E082E090E00E94690915
S11349302FEC31E040E062E081E490E00E946909FC
S113494020E140E860E180E00E94930A28E140E22F
S113495068E180E00E94930A28E140E261E180E29C
S11349600E94930A28E140E061E180E00E94930AFA
S113497028E143E568E180E40E94930A28E143E5E5
S113498061E183E50E94930A29E24FE361E18FE349
S11349900E94930A29E240E869E28FE30E94930AA5
S11349A00E9454210E94AB1B0E94621ACE010E94F5
S11349B0180580E00E94F9040F900F900F900F905B
S11349C00F900F90DF91CF911F910F910895505840
S11349D0BB27AA270E94FF240C9479260E946B26E9
S11349E038F00E94722620F039F49F3F19F426F41F
S11349F00C9468260EF4E095E7FB0C946226E92FEC
S1134A000E948A2658F3BA1762077307840795072A
S1134A1020F079F4A6F50C94AC260EF4E0950B2E58
S1134A20BA2FA02D0B01B90190010C01CA01A001FC
S1134A301124FF27591B99F0593F50F4503E68F157
S1134A401A16F040A22F232F342F4427585FF3CF98
S1134A50469537952795A795F0405395C9F77EF469
S1134A601F16BA0B620B730B840BBAF09150A1F0B2
S1134A70FF0FBB1F661F771F881FC2F70EC0BA0F38
S1134A80621F731F841F48F4879577956795B795C0
S1134A90F7959E3F08F0B0CF9395880F08F09927BB
S1134AA0EE0F9795879508950E943E2608F481E0BD
S1134AB008950E946D250C9479260E94722658F060
S1134AC00E946B2640F029F45F3F29F00C94622683
S1134AD051110C94AD260C9468260E948A2668F322
S1134AE09923B1F3552391F3951B550BBB27AA27A3
S1134AF062177307840738F09F5F5F4F220F331FDD
S1134B00441FAA1FA9F335D00E2E3AF0E0E832D0A4
S1134B1091505040E695001CCAF72BD0FE2F29D0A7
S1134B20660F771F881FBB1F261737074807AB0779
S1134B30B0E809F0BB0B802DBF01FF2793585F4FEE
S1134B403AF09E3F510578F00C9462260C94AD2601
S1134B505F3FE4F3983ED4F3869577956795B795D0
S1134B60F7959F5FC9F7880F911D9695879597F9DB
S1134B700895E1E0660F771F881FBB1F6217730754
S1134B808407BA0720F0621B730B840BBA0BEE1F69
S1134B9088F7E09508950E94D2256894B1110C9489
S1134BA0AD2608950E94922688F09F5798F0B92F59
S1134BB09927B751B0F0E1F0660F771F881F991F4E
S1134BC01AF0BA95C9F714C0B13091F00E94AC261E
S1134BD0B1E008950C94AC26672F782F8827B85F2E
S1134BE039F0B93FCCF3869577956795B395D9F7A6
S1134BF03EF490958095709561957F4F8F4F9F4FB0
S1134C000895E89409C097FB3EF4909580957095BB
S1134C1061957F4F8F4F9F4F9923A9F0F92F96E904
S1134C20BB279395F695879577956795B795F11179
S1134C30F8CFFAF4BB0F11F460FF1BC06F5F7F4F16
S1134C408F4F9F4F16C0882311F096E911C0772328
S1134C5021F09EE8872F762F05C0662371F096E831
S1134C60862F70E060E02AF09A95660F771F881F00
S1134C70DAF7880F9695879597F90895990F0008A4
S1134C80550FAA0BE0E8FEEF16161706E807F9071A
S1134C90C0F012161306E407F50798F0621B730BB5
S1134CA0840B950B39F40A2661F0232B242B252B36
S1134CB021F408950A2609F4A140A6958FEF811DD9
S1134CC0811D089597F99F6780E870E060E008957A
S1134CD09FEF80EC089500240A9416161706180610
S1134CE00906089500240A941216130614060506EC
S1134CF00895092E0394000C11F4882352F0BB0F7D
S1134D0040F4BF2B11F460FF04C06F5F7F4F8F4FDF
S1134D109F4F089557FD9058440F551F59F05F3F1A
S1134D2071F04795880F97FB991F61F09F3F79F0C9
S1134D3087950895121613061406551FF2CF46954B
S1134D40F1DF08C0161617061806991FF1CF8695CD
S1134D507105610508940895E894BB2766277727B1
S1134D60CB0197F908950E943E2608F48FEF089529
S1134D700E94CB260C9479260E946B2638F00E9460
S1134D80722620F0952311F00C9462260C94682668
S1134D9011240C94AD260E948A2670F3959FC1F3CA
S1134DA0950F50E0551F629FF001729FBB27F00DD5
S1134DB0B11D639FAA27F00DB11DAA1F649F66272A
S1134DC0B00DA11D661F829F2227B00DA11D621F79
S1134DD0739FB00DA11D621F839FA00D611D221F33
S1134DE0749F3327A00D611D231F849F600D211D17
S1134DF0822F762F6A2F11249F5750409AF0F1F09A
S1134E0088234AF0EE0FFF1FBB1F661F771F881F02
S1134E1091505040A9F79E3F510580F00C946226B2
S1134E200C94AD265F3FE4F3983ED4F386957795D2
S1134E306795B795F795E7959F5FC1F7FE2B880FA8
S1134E40911D9695879597F90895A0E1B0E0EBE25E
S1134E50F7E20C940C2B7C011B016A01FC01178204
S1134E601682838181FF44C39E012F5F3F4F390126
S1134E70F7019381F10193FD859193FF81911F01C6
S1134E80882309F431C3853239F493FD859193FF66
S1134E9081911F01853239F4B70190E00E945B2CA7
S1134EA056016501E5CF10E0512C912CFFE1F91575
S1134EB0D8F08B3279F038F4803279F08332A1F46F
S1134EC0F92DF0612EC08D3261F0803369F4292D03
S1134ED021602DC0392D3260932E892D8460982E47
S1134EE02AC0E92DE86015C097FC2DC020ED280FDD
S1134EF02A3088F496FE06C03AE0139F200D112450
S1134F00122F19C08AE0589E200D1124522EE92D2B
S1134F10E0629E2E10C08E3231F496FCE5C2F92D6B
S1134F20F0649F2E08C08C3621F4292D2068922E1F
S1134F3002C0883641F4F10193FD859193FF81917C
S1134F401F018111B3CF9BEB980F933020F4992D5F
S1134F509061805E07C09BE9980F933008F066C1AA
S1134F60992D9F7E96FF16E09F73992E853619F42E
S1134F709064992E08C0863621F4392F3068932E18
S1134F8002C01111115097FE07C01C3350F4442481
S1134F904394410E27E00BC0183038F027E017E0A7
S1134FA005C027E09CE3492E02C0212F412C560165
S1134FB084E0A80EB11CF601608171818281938125
S1134FC0042DA3010E94522B6C01F981FC87F0FF90
S1134FD002C0F3FF06C091FC06C092FE06C000E2C8
S1134FE005C00DE203C00BE201C000E08C858C70AB
S1134FF019F001115AC29BC297FE10C04C0CFC85DB
S1135000F4FF04C08A81813309F44A94141474F5BA
S113501028E0241578F588E0482E2CC096FC2AC098
S1135020812F90E08C159D059CF03CEFC3163FEF5B
S1135030D30674F0892D8068982E0AC0E2E0F0E06F
S1135040EC0FFD1FE10FF11D8081803319F4115025
S11350501111F4CF97FE0EC044244394410E812FC6
S113506090E0C816D9062CF41C1904C044244394B7
S113507001C010E097FE06C01C141D0434F4C601E0
S1135080019605C085E090E002C081E090E0011146
S11350900196112331F0212F30E02F5F3F4F820F13
S11350A0931F252D30E08217930714F4581A01C07A
S11350B0512C892D897049F4552039F0B70180E2CB
S11350C090E00E945B2C5A94F7CF002329F0B7019B
S11350D0802F90E00E945B2C93FC09C0552039F08E
S11350E0B70180E390E00E945B2C5A94F7CF97FEBF
S11350F04CC04601D7FE02C0812C912CC6018819F0
S11351009909F301E80FF91FFE87ED879601241929
S11351103109388B2F87012F10E011950195110962
S11351203FEF8316930629F4B7018EE290E00E94C4
S11351305B2CC814D9044CF08F859889881599057F
S113514024F4ED85FE85818101C080E3F1E08F1AAE
S113515091082D853E852F5F3F4F3E872D87801612
S113516091062CF0B70190E00E945B2CD9CFC814B3
S1135170D90441F49A81963320F4953319F43C858B
S113518034FF81E3B70190E04EC08A81813319F086
S11351909C859F7E9C87B70190E00E945B2C111137
S11351A005C094FC18C085E690E017C0B7018EE2F4
S11351B090E00E945B2C1E5F82E001E0080FF30187
S11351C0E80FF11D8081B70190E00E945B2C802FD5
S11351D00113F3CFE6CF85E490E0B7010E945B2C86
S11351E0D7FC06C0C114D10441F4EC85E4FF05C02A
S11351F0D194C194D1088DE201C08BE2B70190E053
S11352000E945B2C80E32AE0C216D1042CF08F5F4D
S1135210FAE0CF1AD108F7CFB70190E00E945B2CD7
S1135220B701C601C0960E945B2C54C1833631F08D
S1135230833779F0833509F056C020C0560132E037
S1135240A30EB11CF6018081898301E010E06301A3
S113525012C05601F2E0AF0EB11CF601C080D1803D
S113526096FE03C0612F70E002C06FEF7FEFC601AE
S11352700E94502C8C01F92DFF7714C0560122E0B6
S1135280A20EB11CF601C080D18096FE03C0612F2E
S113529070E002C06FEF7FEFC6010E942A2C8C01E0
S11352A0F92DF0689F2EF3FD1AC0852D90E00817A4
S11352B01907A8F4B70180E290E00E945B2C5A948D
S11352C0F4CFF60197FC859197FE81916F01B701A8
S11352D090E00E945B2C51105A9401501109011561
S11352E0110579F7F7C0843611F0893661F5560156
S11352F097FE09C024E0A20EB11CF6016081718101
S1135300828193810AC0F2E0AF0EB11CF601608184
S11353107181072E000C880B990BF92DFF769F2EB7
S113532097FF09C090958095709561957F4F8F4F39
S11353309F4FF0689F2E2AE030E0A3010E94D22CF8
S1135340C82EC6183FC0092D853721F40F7E2AE0E8
S113535030E01DC0097F8F3691F018F4883559F07C
S1135360C3C0803719F0883711F0BEC0006104FF54
S113537009C0046007C094FE08C0066006C028E0A7
S113538030E005C020E130E002C020E132E0560107
S113539007FF09C084E0A80EB11CF6016081718189
S11353A08281938108C0F2E0AF0EB11CF6016081E6
S11353B0718180E090E0A3010E94D22CC82EC6180F
S11353C00F77902E96FE0BC0092D0E7FC11650F458
S11353D094FE0AC092FC08C0092D0E7E05C0DC2C88
S11353E0092D03C0DC2C01C0D12E04FF0DC0FE0129
S11353F0EC0DF11D8081803311F4097E09C002FF98
S113540006C0D394D39404C0802F867809F0D39433
S113541003FD11C000FF06C01C2DD51480F4150D2A
S11354201D190DC0D51458F4B70180E290E00E9414
S11354305B2CD394F7CFD51410F45D1801C0512C14
S113544004FF10C0B70180E390E00E945B2C02FFD0
S113545017C001FD03C088E790E002C088E590E032
S1135460B7010CC0802F867859F001FF02C08BE28F
S113547001C080E207FD8DE2B70190E00E945B2C41
S1135480C11638F4B70180E390E00E945B2C115000
S1135490F7CFCA94F301EC0DF11D8081B70190E0C0
S11354A00E945B2CC110F5CF15C0F4E0F51560F532
S11354B084E0581A93FE1FC0011127C02C8523FFD6
S11354C02AC00EE810E0392D3071932EF801849132
S11354D0811124C0552009F4E4CCB70180E290E0A6
S11354E00E945B2C5A94F6CFF7018681978126C0DF
S11354F08FEF9FEF23C0B70180E290E00E945B2C06
S11355005A945110F8CFD8CF512CB701802F90E086
S11355100E945B2CD3CF02E910E0D5CF91108052CA
S1135520B70190E00E945B2C0F5F1F4FCFCF23E0A9
S1135530251510F483E0BDCF512CC0CF6096E2E175
S11355400C94282BDB018F939F930E94F92ABF911F
S1135550AF91A29F800D911DA39F900DB29F900DBE
S113556011240895A1E21A2EAA1BBB1BFD010DC034
S1135570AA1FBB1FEE1FFF1FA217B307E407F507FF
S113558020F0A21BB30BE40BF50B661F771F881FDB
S1135590991F1A9469F760957095809590959B0171
S11355A0AC01BD01CF010895052E97FB1EF40094B4
S11355B00E94EB2A57FD07D00E94B22A07FC03D0B1
S11355C04EF40C94EB2A50954095309521953F4F1D
S11355D04F4F5F4F089590958095709561957F4FDB
S11355E08F4F9F4F0895EE0FFF1F0590F491E02D0C
S11355F009940E94432BA59F900DB49F900DA49FE6
S1135600800D911D11240895B7FF0C94F92A0E946E
S1135610F92A821B930B08952F923F924F925F9227
S11356206F927F928F929F92AF92BF92CF92DF92AE
S1135630EF92FF920F931F93CF93DF93CDB7DEB713
S1135640CA1BDB0B0FB6F894DEBF0FBECDBF0994A7
S11356502A88398848885F846E847D848C849B84FE
S1135660AA84B984C884DF80EE80FD800C811B810C
S1135670AA81B981CE0FD11D0FB6F894DEBF0FBE3B
S1135680CDBFED010895A29FB001B39FC001A39FB8
S1135690700D811D1124911DB29F700D811D112467
S11356A0911D0895283008F027E03327DA01990F77
S11356B0311D87FD916000966105710539F43260F2
S11356C02E5F3D9330E32A95E1F708959F3F30F034
S11356D080387105610509F03C5F3C5F3D93913072
S11356E008F08068911DDF93CF931F930F93FF926F
S11356F0EF92192F987F9695E92F96959695E90F35
S1135700FF27E051FF4F99273327EE24FF24A701F9
S1135710E70105900894079428F4360FE71EF81E55
S1135720491F511D660F771F881F991F0694A1F703
S11357300590079428F4E70EF81E491F561FC11D53
S1135740770F881F991F661F0694A1F70590079489
S113575028F4F80E491F561FC71FD11D880F991F23
S1135760661F771F0694A1F70590079420F4490F4C
S1135770561FC71FD81F990F661F771F881F0694CF
S1135780A9F784911095177041F0D695C795579550
S11357904795F794E7941A95C1F7E6E9F0E0689421
S11357A01590159135916591959105907FE27395CA
S11357B0E118F10A430B560BC90BD009C0F7E10CF1
S11357C0F11E431F561FC91FD01D7EF4703311F400
S11357D08A95E6CFE894015030F0080F0AF40027C8
S11357E0021708F4202F2395022F7A3328F079E347
S11357F07D932A95E9F710C07D932A9589F606943E
S113580097956795379517951794E118F10A430B07
S1135810560BC90BD00998F023957E9173957A3372
S113582008F070E37C932013B8F77E9170617D9348
S113583030F0839571E37D9370E32A95E1F71124A9
S1135840EF90FF900F911F91CF91DF91992787FDE2
S113585090950895FC010590615070400110D8F7AF
S1135860809590958E0F9F1F0895DC0101C06D9364
S113587041505040E0F70895FB01DC010D900020F9
S1135880E9F7119701900D920020E1F70895FB01CB
S1135890DC018D91019080190110D9F3990B0895C1
S11358A0FC016150704001900110D8F780959095EB
S11358B08E0F9F1F08950F931F93CF93DF93FB01C8
S11358C0238121FD03C08FEF9FEF2CC022FF16C060
S11358D046815781248135814217530744F4A081BE
S11358E0B1819D012F5F3F4F318320838C932681AB
S11358F037812F5F3F4F3783268314C08B01EC0120
S1135900FB010084F185E02D0995892BE1F6D8018E
S113591016968D919C911797019617969C938E934A
S11359201697CE01DF91CF911F910F910895AEE0AC
S1135930B0E0EDE9FCE20C941A2B0D891E8986E097
S11359408C831A8309838FEF9FE79E838D83AE0137
S1135950475E5F4F6F89788DCE0101960E9425279F
S1135960EF81F885E00FF11F10822E96E4E00C948D
S1135970362BAEE0B0E0EFEBFCE20C941C2B85E0A0
S11359808C838B899C899A838983AE01495E5F4F9E
S11359906D897E89CE0101960E94CC2E2E96E2E07E
S11359A00C94382BFA01AA27283051F1203181F1C7
S11359B0E8946F936E7F6E5F7F4F8F4F9F4FAF4F13
S11359C0B1E03ED0B4E03CD0670F781F891F9A1F26
S11359D0A11D680F791F8A1F911DA11D6A0F711DDA
S11359E0811D911DA11D20D009F468943F912AE0E6
S11359F0269F11243019305D3193DEF6CF010895CE
S1135A00462F4770405D4193B3E00FD0C9F7F6CFFE
S1135A10462F4F70405D4A3318F0495D31FD4052C6
S1135A20419302D0A9F7EACFB4E0A695979587955C
S1135A3077956795BA95C9F700976105710508953B
S1135A409B01AC010A2E06945795479537952795E7
S1135A50BA95C9F7620F731F841F951FA01D08957F
S1135A6020FD09C0FC0123FD05C022FF02C0738391
S1135A70628351834083089544FD17C046FD17C0D7
S1135A80AB01BC01DA01FB01AA0FBB1FEE1FFF1F14
S1135A901094D1F74A0F5B1F6E1F7F1FCB01BA0111
S1135AA0660F771F881F991F09C033E001C034E0D7
S1135AB0660F771F881F991F3150D1F7620F711D30
S1135AC0811D911D08950F931F93CF93DF938C0134
S1135AD0C8010E94F12FEC0197FD08C00E94DD2F40
S1135AE0892BB1F7B801CE010E942F30CE01DF918E
S1135AF0CF911F910F9108958F929F92AF92BF9271
S1135B00EF92FF920F931F93CF93DF938C01D62FC5
S1135B107A01B22E0E94F12F9C0133272B323105DA
S1135B2031F02D32310561F48B2D8068B82ED150BF
S1135B3011F480E068C0C8010E94F12F97FDF9CFED
S1135B40CB2DCD7F2B2D207309F58033F9F4AA24B6
S1135B50AA94AD0E09F443C0C8010E94F12F97FD29
S1135B603EC09C012F7D33272835310549F4C2649A
S1135B70D250A9F1C8010E94F12F97FF07C02FC08E
S1135B80B6FE02C0C26001C0C261DA2D812C912C24
S1135B90540120ED280F283080F0C4FF04C0B80160
S1135BA00E942F3019C02A3040F0C6FFF8CF2F7D55
S1135BB03FEE320F363098F727504C2FC501B40111
S1135BC00E943C2D4B015C01C260D15059F0C801C8
S1135BD00E94F12F97FFDDCFC1FD04C0AACF812C15
S1135BE0912C5401C7FF08C0B094A0949094809461
S1135BF0811C911CA11CB11C2C2FB501A401C7014F
S1135C000E94302D81E0DF91CF911F910F91FF9081
S1135C10EF90BF90AF909F908F900895A0E2B0E076
S1135C20E4E1FEE20C940F2B5C01962E7A01F9015B
S1135C308E010F5F1F4F680180E2D8011D928A9583
S1135C40E9F7D50113968C9080E090E0612C712CDB
S1135C5030E061E070E083FC259183FE21918F01A7
S1135C60522E211103C080E090E092C02E3511F431
S1135C70009751F1432F50E0481759073CF42D3554
S1135C8059F12D3219F4772009F103C0772009F472
S1135C906AC0452D469546954695D601A40FB11D7B
S1135CA0452D47708B0102C0000F111F4A95E2F782
S1135CB0A8015C91452B4C93651459F0561410F4CB
S1135CC05394E7CF5A94E5CF31E004C0772473941A
S1135CD001C0712C0196BFCF772019F08E818062AC
S1135CE08E83311103C08824839417C0F6019E016A
