S01000004E524632345F52582E73726563BF
S11300000C94EE030C94EF160C94D80F0C940B0480
S11300100C940B040C940B040C940B040C940B0420
S11300200C940B040C940B040C940B040C94DE0E33
S11300300C940B040C940B040C94030F0C940B04FD
S11300400C940B040C940B040C940B040C940B04F0
S11300500C940B040C940B040C940B040C940B04E0
S11300600C940B040C940B0440105810701088105E
S1130070A010B810D010E920F120F92001210921A5
S1130080112119212E21392144214F215A21652181
S113009070217B21862191219C21A721FA213E22D6
S11300A08222C6220A234E2392236364696E6F70F0
S11300B0737578585B000000000000000000000029
S11300C0000000000000000000000000000000002C
S11300D0000000000000000000000000000000001C
S11300E0000000000000000000000000000000000C
S11300F000000000000000000000000000000000FC
S113010000000000000000000000000000000000EB
S113011000000000000000000000000000000000DB
S113012080808080C0C0C0C0E0E0E0E0E0E000008B
S113013000000000000000000000000000000002B9
S1130140060707070707060202020202020202026A
S1130150020202FFFFFF0202020E1E3E7EFFFFFFAD
S1130160FFFFFFFFFFFFFFFFFFFFFFFFFFFFFEC0DB
S1130170000000000000000000000000000000007B
S1130180000000000000000000000000000000F873
S1130190FCFCFFFFFFFFFFFCFCF800000000010176
S11301A0010101010101010101010101010101003C
S11301B0000000000000000000000000000080C0FB
S11301C0E0E0E0E0E0E0C0C0800000000000001FCC
S11301D017B7F7F7F7F7F7B7171F0000000000008D
S11301E080C0C0E0E0E0E0E0E0C08000000000008B
S11301F0000000000000000000000000187FFFFF66
S1130200FFFFFFFFFFFFFFFFFF3E18181818181825
S1130210183FBFBFBFBFBF3F181818181818183EA3
S1130220FFFFFFFFFFFFFFFFFFFFFF7F1C0000003A
S113023000000000000000000000000000000101B8
S11302400303030703030301000000000000000090
S1130250000001030703010000000000000000008B
S1130260000103030307030303010100000000006E
S1130270000000000000000000000000000000007A
S1130280000000000000000000000000000000006A
S1130290000000000000000000000000000000005A
S11302A0000000000000000000000000000000004A
S11302B000000000000000E0F8FC3E070301E1FE3E
S11302C0FC3F7F878080E07C3F1F07000000000028
S11302D002E2FEFF1F03008080C0F8FFFF8780005A
S11302E000000000000C06030387FF7E1C80C0E0B2
S11302F0F0E8E4E3E1F01800000000808482C3C366
S11303007F3F1E60E0C0C08081437F3F1E0000002D
S11303100000804020F0F8FC1E101C1A1918F8FE8A
S1130320FF1F190800004078F6E7E7C78707036056
S1130330E0C08080417F3F0F000000C0E0F8785C9F
S11303404EC6C381013F7FFF8180C0F07F3F0F0015
S1130350080E07070787671F0701008060100C035A
S113036000000000000000003C7EFFE3C1C17F3EAE
S11303701C3C7EFF838081C37F7F1E0000F0FCFE57
S11303800F0301C1FFFEFC80C1C363723A1E0F0755
S113039003000000000000383838000000000000AE
S11303A03838380000000000788681611E0004E2BD
S11303B01F00C0A291890640828989763028E43ED4
S11303C0234C8B8545397C9289493200C1310D0318
S11303D060968989764C9291493E00C0C000000025
S11303E010101000FC8484FC0008FC0088C4A49C49
S11303F04484947C6050FC4058949464789494644D
S11304000004F40C6C94946C98A4A478008000000C
S113041000000000000000004F000000000700077B
S1130420000000147F147F1400242A7F2A12002362
S11304301308646200364955224000000503000099
S1130440001C224100000041221C00000014083E50
S113045008140008083E080800A060000000000816
S1130460080808080060600000000020100804026A
S1130470003E5149453E0000427F40000042615128
S11304804946002141454B31001814127F100027C2
S113049045454539003C4A49493000017109050385
S11304A000364949493600064949291E006C6C004A
S11304B00000000056360000000814224100002409
S11304C024242424000041221408000201510906B6
S11304D000324979413E007E1111117E007F494965
S11304E04936003E41414122007F4141221C007FA8
S11304F049494941007F09090901003E4149493AF6
S1130500007F0808087F0000417F4100002040412F
S11305103F01007F08142241007F40404040007F9B
S1130520020C027F007F0408107F003E4141413EDF
S1130530007F09090906003E4151215E007F091927
S113054029460046494949310001017F0101003F24
S11305504040403F001F2040201F003F4060403F7C
S11305600063140814630007087008070061514908
S11305704543007F414100000015167C16150041DB
S1130580417F00000004020102040040404040405A
S1130590000102040000002054545478007F4444B5
S11305A0443800384444440000384444487F003808
S11305B05454541800107E110102000C5252523E41
S11305C0007F080404780000447D4000002040407F
S11305D03D00007F102844000000417F4000007C63
S11305E004180478007C080404780038444444382F
S11305F0007C1414140800081414187C007C0804EB
S1130600040800485454542000043F444020003C53
S11306104040207C001C2040201C001E2010201E76
S113062000221408142200064848483E004464543A
S11306304C440008364100000000007F00000041E7
S1130640360800000008082A1C08007E1111117EDB
S1130650007F49494933007F49494936007F0101F8
S1130660010300E0514F41FF007F494949410077B0
S1130670087F0877004149494936007F1008047F04
S1130680007C2112097C007F081422410020413F94
S1130690017F007F020C027F007F0808087F003E74
S11306A04141413E007F0101017F007F09090906A4
S11306B0003E414141220001017F01010047281011
S11306C00807001C227F221C006314081463007FA7
S11306D0404040FF00070808087F007F407F407FBC
S11306E0007F407F40FF00017F484830007F483052
S11306F0007F00007F48483000224149493E007F86
S1130700083E413E00462919097F0020545454787C
S1130710003C4A4A4931007C54542800007C0404BB
S1130720040C00E0544C44FC003854545418006C3D
S1130730107C106C004444545428007C2010087C25
S1130740007C4122117C007C102844000020443CA1
S1130750047C007C0810087C007C1010107C00389D
S113076044444438007C0404047C007C14141408BD
S11307700038444444280004047C0404000C505011
S1130780503C003048FC4830004428102844007C89
S1130790404040FC000C1010107C007C407C407CED
S11307A0007C407C40FC00047C505020007C505075
S11307B0207C007C50502000002844545438007C95
S11307C01038443800085434147C007E4B4A4B42A1
S11307D000385554551800000609090611241FBE97
S11307E0CFEFD8E0DEBFCDBF13E0A0E0B1E0ECE98D
S11307F0F1E602C005900D92AA35B107D9F724E0BD
S1130800AAE5B3E001C01D92A939B207E1F70E943D
S11308102B110C94CC300C9400000F931F93CF93A6
S1130820DF93C82F0E948E188EEE0E949A188C2F88
S11308300E949A180E9496180E948E188FEE0E94A9
S11308409A180E94A418C82FD0E00E94AE18082F4E
S113085010E00E9496189C2F8827800F911FDF912B
S1130860CF911F910F9108958AEA0E940D049093ED
S1130870F9038093F8038CEA0E940D049093010419
S1130880809300048EEA0E940D04909311048093D7
S1130890100480EB0E940D049093050480930404DB
S11308A082EB0E940D049093FF038093FE0384EB7C
S11308B00E940D049093FD038093FC0386EB0E9439
S11308C00D049093FB038093FA0388EB0E940D04BC
S11308D09093F5038093F4038AEB0E940D049093A4
S11308E0F7038093F6038CEB0E940D0490930704A6
S11308F0809306048EEB0E940D049093030480936E
S1130900020408950E948E188EEE0E949A1884EFB5
S11309100E949A188EE20E949A180E9496188FE0FC
S113092097E20197F1F700C0000086EF0E940D04E2
S1130930BC0180E090E008950E948E188EEE0E9423
S11309409A1884EF0E949A1884EF0E949A180E94C1
S113095096188FE19BEC0197F1F700C000000E940C
S11309608E188EEE0E949A1886EF0E949A180E94A2
S113097096180E948E188FEE0E949A180E94A4184E
S113098090E0A0E0B0E080930C0490930D04A09359
S11309900E04B0930F040E94A41890E0A0E0B0E00D
S11309A08093080490930904A0930A04B0930B0461
S11309B00E94AE1890E0A0E0B0E08093F003909322
S11309C0F103A093F203B093F3030E9496184091AD
S11309D00C0450910D0460910E0470910F04BA013F
S11309E0552744278091080490910904A0910A0492
S11309F0B0910B04BA2FA92F982F8827480F591F9D
S1130A006A1F7B1F8091F0039091F103A091F20380
S1130A10B091F303840F951FA61FB71FBC01CD012E
S1130A20689414F896958795779567951694D1F7F9
S1130A3008954F925F926F927F928F929F92AF929E
S1130A40BF92CF92DF92EF92FF920F931F93CF93B7
S1130A50DF9300D000D0CDB7DEB70E9482046B01D3
S1130A607C010E949C0469837A838B839C8380919C
S1130A70FC039091FD03A7019601281B390B410942
S1130A805109A091FE03B091FF030E945D2A2B013E
S1130A903C01032E3FE075946794579447943A952C
S1130AA0D1F7302D6091060470910704CB01770FC4
S1130AB0AA0BBB0BBC01CD01052E5BE0660F771FB3
S1130AC0881F991F5A95D1F7502D20910204309117
S1130AD003048901330F220B330BA9019801240D60
S1130AE0351D461D571D0E94382A420E531E641E92
S1130AF0751E80EA481A8FE0580A61087108A3013C
S1130B009201C301B2010E94F2294B015C01072E3C
S1130B107CE0B594A794979487947A95D1F7702D37
S1130B20A091F403B091F503A50194010E94682AF1
S1130B306B017C010B2EBBE0F594E794D794C7942A
S1130B40BA95D1F7B02DA0910004B0910104A3018E
S1130B5092010E94682ADC01CB01072E7BE0B59547
S1130B60A795979587957A95D1F7702DC80ED91EBC
S1130B70EA1EFB1E8091F8039091F903092E000CE4
S1130B80AA0BBB0B880F991FAA1FBB1F880F991FA5
S1130B90AA1FBB1FC80ED91EEA1EFB1ECC0CDD1CEF
S1130BA0EE1CFF1CA0911004B09111040E94682A4D
S1130BB02B013C01032E3DE07594679457944794B0
S1130BC03A95D1F7302DA091FA03B091FB03A5011A
S1130BD094010E94682ABB2797FDB095AB2F840D22
S1130BE0951DA61DB71D0296A11DB11DB595A7950E
S1130BF097958795B595A795979587959C01AD0190
S1130C0030584F4F5F4FA0910404B09105040E94E7
S1130C105D2A2B013C01032E3FE0769467945794A0
S1130C2047943A95D1F7302D29813A814B815C81E3
S1130C302C193D094E095F09AAE6B8E10E945D2A14
S1130C4099235CF0660F771F881F991FA3019201F7
S1130C500E94162A69017A010AC0A30192010E9426
S1130C60162A69017A01CC0CDD1CEE1CFF1C9927A5
S1130C70F7FC9A958F2D7E2D6D2D9B01AC010E9462
S1130C80F2299B01AC01AEEDBBE00E945D2A4C0150
S1130C90BB2497FCB094AB2CA3E4B3EEA70196015C
S1130CA00E946B2ABB2797FDB095AB2F880D991D29
S1130CB0AA1DBB1D8153914FAF4FBF4F689413F8CA
S1130CC0B595A795979587951694D1F7BC01CD0155
S1130CD06C0D7D1D8E1D9F1D60935A0370935B03E5
S1130CE080935C0390935D030F900F900F900F908F
S1130CF0DF91CF911F910F91FF90EF90DF90CF90F4
S1130D00BF90AF909F908F907F906F905F904F9027
S1130D1008952FEF83ED90E3215080409040E1F758
S1130D2000C0000087B1816087B988B1816088B94B
S1130D3080E00895BC0187B1816087B988B18E7F56
S1130D4088B988B1816088B92FEF80E792E021509B
S1130D5080409040E1F700C0000088B18E7F88B9E0
S1130D608FE99CE80197F1F700C0000088B1816029
S1130D7088B987B18E7F87B990EA9A95F1F730994F
S1130D8038C025ED2A95F1F7000096B1892F8170BE
S1130D9090FF30C085ED8A95F1F7000080E025C012
S1130DA0E4E0F0E0E81BF109E60FF71F108290E0A1
S1130DB019C0309BFECF2DE52A95F1F70000309B3A
S1130DC00EC047E050E0491B510921E030E002C069
S1130DD0220F331F4A95E2F73081232B2083309969
S1130DE0FECF9F5F983028F38F5F8530C8F281E093
S1130DF0089580E00895909101016917E0F49091BD
S1130E0002018917C0F4262F26952695269590E091
S1130E1030E8239F800D911D1124FA01E80FF91F7A
S1130E20677081E090E002C0880F991F6A95E2F72D
S1130E309081892B80830895909101016917E0F4D2
S1130E40909102018917C0F4262F269526952695A0
S1130E5090E030E8239F800D911D1124FA01E80FE2
S1130E60F91F67708EEF90E002C0880F991F6A9592
S1130E70E2F7908189238083089582E08A95F1F7CF
S1130E8000C08BB180628BB982E08A95F1F700C013
S1130E908BB18F7D8BB982E08A95F1F700C00895FC
S1130EA01F93CF93DF93182F8BB180688BB98BB1CD
S1130EB080648BB90E943D070E943D070E943D0754
S1130EC00E943D070E943D078BB18F7B8BB90E9426
S1130ED03D078BB180648BB90E943D078BB18F7B3A
S1130EE08BB90E943D07C0E0D0E01CC0CE0104973E
S1130EF0049730F48BB18F7B8BB90E943D0711C0EE
S1130F00812F807841F0803859F48BB180648BB99B
S1130F100E943D0705C08BB18F7B8BB90E943D07B2
S1130F20110F2196CC30D1050CF38BB18F7B8BB98B
S1130F300E943D070E943D070E943D070E943D0715
S1130F408BB18F778BB9DF91CF911F9108951F9348
S1130F50CF93DF93182F8BB180688BB98BB18064EA
S1130F608BB90E943D070E943D070E943D070E94E5
S1130F703D070E943D078BB18F7B8BB90E943D07D3
S1130F808BB18F7B8BB90E943D078BB18F7B8BB963
S1130F900E943D07C0E0D0E01CC0CE010497049736
S1130FA030F48BB18F7B8BB90E943D0711C0812F28
S1130FB0807841F0803859F48BB180648BB90E94F9
S1130FC03D0705C08BB18F7B8BB90E943D07110F84
S1130FD02196CC30D1050CF38BB18F7B8BB90E9459
S1130FE03D070E943D070E943D070E943D078BB1CB
S1130FF08F778BB9DF91CF911F910895882399F052
S113100084E30E94A7078FEC97E00197F1F700C0F3
S1131010000086E30E94A7078FEC97E00197F1F7A1
S113102000C00000089580E30E94A7078FEC97E0BA
S11310300197F1F700C0000008958F929F92AF923C
S1131040BF92DF92EF92FF920F931F93CF93DF93A0
S11310507C01D12C31C18FE18D1548F08D2D806834
S11310600E94A707802F80680E94A70709C080EE0E
S11310708D0D80680E94A707802F88680E94A707AB
S1131080CD2DC695C695C695D0E0CC0FDD1FCC0FEF
S1131090DD1FCC0FDD1FC00FD11DC295D295D07FAF
S11310A0DC27C07FDC27CE0DDF1D8880912C1D2D11
S11310B01770012E02C0959487940A94E2F79694CF
S11310C0982C882497948794A980B12C012E02C06F
S11310D0B594A7940A94E2F781E0A822BB240024E3
S11310E0B694A7940794B694A7940794BA2CA02C0A
S11310F0AA81B0E0012E02C0B595A7950A94E2F743
S1131100A170BB27AA0FBB1FA295B295B07FBA27C7
S1131110A07FBA27EB81F0E0012E02C0F595E79598
S11311200A94E2F7E170FF27E295F295F07FFE273B
S1131130E07FFE276C8170E0012E02C075956795F3
S11311400A94E2F761707727660F771F660F771F9F
S1131150660F771F4D8150E0012E02C055954795CB
S11311600A94E2F741705527440F551F440F551F49
S11311702E8130E0012E02C0359527950A94E2F7BE
S113118021703327220F331F8F8190E0012E02C07C
S1131190959587950A94E2F7A828AA29EA2B6E2B3D
S11311A0462B242B8170822B0E9450078884912C1B
S11311B0012E02C0959487940A94E2F79694982C91
S11311C0882497948794A984B12C012E02C0B594E5
S11311D0A7940A94E2F781E0A822BB240024B694E1
S11311E0A7940794B694A7940794BA2CA02CAA8524
S11311F0B0E0012E02C0B595A7950A94E2F7A1705C
S1131200BB27AA0FBB1FA295B295B07FBA27A07FB8
S1131210BA27EB85F0E0012E02C0F595E7950A9414
S1131220E2F7E170FF27E295F295F07FFE27E07F79
S1131230FE276C8570E0012E02C0759567950A94AF
S1131240E2F761707727660F771F660F771F660FC7
S1131250771F4D8550E0012E02C0559547950A949D
S1131260E2F741705527440F551F440F551F2E8533
S113127030E0012E02C0359527950A94E2F72170DB
S11312803327220F331FCF85D0E002C0D595C795F1
S11312901A95E2F7882D8A298A2B8E2B862B842B8C
S11312A0822BC1708C2B0E9450070F5F01C000E09D
S11312B0083008F4D0CED3948FE38D15C0F7DF91B6
S11312C0CF911F910F91FF90EF90DF90BF90AF905F
S11312D09F908F90089581E00E94A7078FE19EE47C
S11312E00197F1F700C0000008952FEF89EF90E017
S11312F0215080409040E1F700C000008CE00E9443
S1131300A70787EC90E00197F1F700C000000E9466
S11313106B0986E00E94A7078FE19EE40197F1F72D
S113132000C000000895CF93DF93A0E0B0E02BC08D
S11313304423A9F0ED01C80FD91F2197C20FD31F71
S1131340FB01EE0FFF1FE60FF71FEE0FFF1FEA0F63
S1131350FB1FE05FFB4F54915095588313C0EC0181
S1131360CA0FDB1F2197C20FD31FFB01EE0FFF1F14
S1131370E60FF71FEE0FFF1FEA0FFB1FE05FFB4FA7
S1131380549158831196A730B10594F2DF91CF910F
S11313900895CF93DF93A0E0B0E027C0442399F0F1
S11313A0ED01C80FD91F2197C20FD31FFB01EE0F08
S11313B0FF1FEE0FFF1FEA0FFB1FEC51FC4F549170
S11313C05095588311C0EC01CA0FDB1F2197C20F3F
S11313D0D31FFB01EE0FFF1FEE0FFF1FEA0FFB1FD2
S11313E0EC51FC4F549158831196A430B105B4F2DA
S11313F0DF91CF910895CF93DF93A0E0B0E02BC0AD
S11314004423A9F0ED01C80FD91F2197C20FD31FA0
S1131410FB01EE0FFF1FEE0FFF1FE60FF71FEA0F92
S1131420FB1FE855FC4F54915095588313C0EC01B1
S1131430CA0FDB1F2197C20FD31FFB01EE0FFF1F43
S1131440EE0FFF1FE60FF71FEA0FFB1FE855FC4FD7
S1131450549158831196A530B10594F2DF91CF9140
S11314600895CF93DF93A0E0B0E029C04423A1F016
S1131470ED01C80FD91F2197C20FD31F56E1569F04
S1131480F001579FF00D1124EA0FFB1FEA54FD4FA2
S113149054915095588312C0EC01CA0FDB1F219759
S11314A0C20FD31F56E1569FF001579FF00D112430
S11314B0EA0FFB1FEA54FD4F549158831196AB3049
S11314C0B105A4F28B589F4FABE0B0E029C0442390
S11314D0A1F0EC01CA0FDB1F2197C20FD31F56E105
S11314E0569FF001579FF00D1124EA0FFB1FEA5499
S11314F0FD4F54915095588312C0EC01CA0FDB1F65
S11315002197C20FD31F56E1569FF001579FF00D4C
S11315101124EA0FFB1FEA54FD4F5491588311968E
S1131520A631B105A4F2DF91CF910895BF92CF9275
S1131530DF92EF92FF920F931F93CF93DF93B42E1A
S113154079016C0120E8629FC00CD11C1124C0E019
S1131550D0E030C0F701EC0FFD1F608170E0BB20CC
S113156099F06E32710541F060537109980141E0C0
S1131570C6010E94C9091AC0980141E06AE070E0FE
S1131580C6010E94C90912C06E32710541F0605350
S11315907109980140E0C6010E94C90907C0980179
S11315A040E06AE070E0C6010E94C90985E0C80E07
S11315B0D11C2196F70101900020E9F73197EE192B
S11315C0FF09CE17DF0730F2DF91CF911F910F9102
S11315D0FF90EF90DF90CF90BF900895BF92CF928D
S11315E0DF92EF92FF920F931F93CF93DF93B42E6A
S11315F079016C0120E8629FC00CD11C1124C0E069
S1131600D0E046C0F701EC0FFD1F608170E0BB2005
S1131610F1F06E32710541F4980141E06AE070E046
S1131620C6010E94FB0930C06D32710541F4980176
S113163041E06BE070E0C6010E94FB0925C06053E5
S11316407109980141E0C6010E94FB091DC06E3278
S1131650710541F4980140E06AE070E0C6010E941F
S1131660FB0912C06D32710541F4980140E06BE052
S113167070E0C6010E94FB0907C06053710998011C
S113168040E0C6010E94FB0986E0C80ED11C2196E9
S1131690F70101900020E9F73197EE19FF09CE1701
S11316A0DF0708F4AFCFDF91CF911F910F91FF9027
S11316B0EF90DF90CF90BF900895BF92CF92DF92CA
S11316C0EF92FF920F931F93CF93DF93B42E790180
S11316D06C0120E8629FC00CD11C1124C0E0D0E052
S11316E01AC0F701EC0FFD1F608170E0BB2041F0D0
S11316F060537109980141E0C6010E94310A07C094
S113170060537109980140E0C6010E94310A8CE0DF
S1131710C80ED11C2196F70101900020E9F73197FA
S1131720EE19FF09CE17DF07E0F2DF91CF911F9189
S11317300F91FF90EF90DF90CF90BF9008959F920C
S1131740AF92BF92CF92DF92EF92FF920F931F93CB
S1131750CF93DF93942E59016C0120E8629FC00C53
S1131760D11C1124E12CF12C88C0F501EE0DFF1DD4
S1131770C081C03CE8F4C83AD9F0C83BC9F0C03BCA
S1131780B9F06C2F70E0992041F060527109980112
S113179041E0C6010E94930907C060527109980193
S11317A040E0C6010E94930986E0C80ED11C62C0C5
S11317B0D0E0CE01805C910980349105B0F4992089
S11317C049F0980141E0BE0161567109C6010E94C9
S11317D0930908C0980140E0BE0161567109C60131
S11317E00E94930926E0C20ED11CC83AD105A1F487
S11317F0992041F0980141E06FE970E0C6010E9430
S1131800930907C0980140E06FE970E0C6010E94A7
S1131810930986E0C80ED11CC83BD105A1F49920D8
S113182041F0980141E060EA70E0C6010E9493092A
S113183007C0980140E060EA70E0C6010E94930985
S113184026E0C20ED11CC03BD105A1F4992041F081
S1131850980141E061EA70E0C6010E94930907C063
S1131860980140E061EA70E0C6010E94930986E0B5
S1131870C80ED11C2FEFE21AF20AF50101900020E4
S1131880E9F73197EA19FB09EE16FF0608F46DCF64
S1131890DF91CF911F910F91FF90EF90DF90CF9048
S11318A0BF90AF909F900895EF92FF920F931F9374
S11318B0CF93DF93EC0100E010E040E050E020C063
S11318C0D801B695BA2FAA27B795A7959D01215E91
S11318D03F4F0EC07E01E20EF31EBA016A547F4FE1
S11318E0FB019491F70190834F5F5F4F2F5F3F4F50
S11318F0BD01615A7F4F2617370764F30F5F1F4FEF
S113190008301105ECF2DF91CF911F910F91FF90F8
S1131910EF900895FC011182108208956F927F92D6
S11319208F929F92AF92BF92CF92DF92EF92FF92EB
S11319300F931F93CF93DF93C82FD62F942E822E0D
S1131940481728F0A42EB12CA81AB10804C0A82E58
S1131950B12CA41AB1088D1628F0C82CD12CCD1A9C
S1131960D10804C0CD2ED12CC818D108C91518F43B
S11319707724739402C077247A94D81518F46624D3
S1131980639402C066246A947501EC18FD08A801EA
S11319906D2F8C2F0E94FB06C91102C0D815A1F02F
S11319A0C701880F991F222733272C193D092817AF
S11319B039071CF4EC18FD08C70D8A159B053CF784
S11319C0EA0CFB1CD60DE3CFDF91CF911F910F9151
S11319D0FF90EF90DF90CF90BF90AF909F908F904B
S11319E07F906F900895AF92BF92CF92DF92EF9263
S11319F0FF920F931F93CF93DF935C017B01E90167
S1131A0068019C01240F351F8091020190E0281782
S1131A10390718F0AC014A195B098091010190E083
S1131A2097012C0F3D1F2817390718F0EC01CE1928
S1131A30DF09DA2DD40F86012E2D4D2F6E2D8A2D20
S1131A400E948E0CCE0D2C2F4D2F6C2F8A2D0E94B0
S1131A508E0C2C2F4A2D6E2D8A2D0E948E0C2C2F2D
S1131A604D2F6E2D8D2F0E948E0CDF91CF911F91E3
S1131A700F91FF90EF90DF90CF90BF90AF900895BB
S1131A807F928F929F92AF92BF92CF92DF92EF920A
S1131A90FF920F931F93CF93DF93EC016B015A01D5
S1131AA0790148019C01240F351F8091020190E0C7
S1131AB02817390718F05C01AC1ABD0A809101019E
S1131AC090E096012E0D3F1D2817390718F07C0170
S1131AD0EC18FD08712C0AC0672D6C0D8401262FAB
S1131AE04C2F4A0D8C2F0E948E0C7394872D90E0FE
S1131AF0E816F90688F7DF91CF911F910F91FF90B7
S1131B00EF90DF90CF90BF90AF909F908F907F9099
S1131B1008953F924F925F926F927F928F929F921D
S1131B20AF92BF92CF92DF92EF92FF920F931F93E7
S1131B30CF93DF93582E462E142FE901E42EF12C77
S1131B4081E090E06C01CE18DF08AA24BB24AE1813
S1131B50BF08AA0CBB1C642F640DA901852D0E942B
S1131B60FB06642D611BAE01852D0E94FB06AE01B0
S1131B70642D812F850D0E94FB06AE01642D852DF9
S1131B80811B0E94FB0600E010E088248394912CC2
S1131B9049C0DD2044F081E0E81AF10882E0A80E93
S1131BA0B11CCA0CDB1C0F5F1F4F82E0880E911C16
S1131BB0C80CD91C352C300EAE01742C7E0C672D4C
S1131BC0832D0E94FB06652C601AAE01672D862DBD
S1131BD00E94FB06AE01742C7E18672D832D0E9493
S1131BE0FB06AE01672D862D0E94FB06742C700E39
S1131BF0AE01672D652C6E0C862D0E94FB06AE018E
S1131C00672D752C7E18872D0E94FB06342C301A04
S1131C10AE01632D862D0E94FB06AE01632D872D38
S1131C200E94FB060E151F050CF4B3CFDF91CF9174
S1131C301F910F91FF90EF90DF90CF90BF90AF90E6
S1131C409F908F907F906F905F904F903F900895FA
S1131C502F923F924F925F926F927F928F929F92B8
S1131C60AF92BF92CF92DF92EF92FF920F931F93A6
S1131C70CF93DF93F82EE62EEA01390181E090E05C
S1131C806C01C41AD50A88249924841A950A880CEC
S1131C90991C262E3F2C642F6E0DA9018F2D0E94B6
S1131CA0FB066E2D6C1BA3018F2D0E94FB06BC2E20
S1131CB0BF0CA3016E2D8B2D0E94FB06FC1AA30101
S1131CC06E2D8F2D0E94FB0683012E2D4B2D6E2D24
S1131CD08F2D0E948E0CE12CF12CAA24A394B12CFC
S1131CE035C0DD2034F0219782E0880E911CC80CA9
S1131CF0D91C8FEFE81AF80A82E0A80EB11CCA0CAE
S1131D00DB1C532C5E0C432C4E1883016C2F620D8C
S1131D10262F452D842D0E948E0C622D6C1B262FA0
S1131D20442D852D0E948E0C622D6E0D262F432C82
S1131D304C1A442D5C2E530C852D0E948E0C622D62
S1131D406E19262F442D852D0E948E0CEC16FD064F
S1131D5044F2DF91CF911F910F91FF90EF90DF90AC
S1131D60CF90BF90AF909F908F907F906F905F9037
S1131D704F903F902F900895E1E8F0E080818860D3
S1131D808083AFE6B0E08C9182608C9383E0809393
S1131D90890088EE80938800808182608083089522
S1131DA085B5826085BD84E687BD85B5826085BDC5
S1131DB0EEE6F0E080818260808308951F920F92A6
S1131DC00FB60F9211248F939F93AF93BF9380917B
S1131DD0600390916103A0916203B0916303019643
S1131DE0A11DB11D8093600390936103A0936203CE
S1131DF0B0936303BF91AF919F918F910F900FBEEA
S1131E000F901F9018951F920F920FB60F921124E6
S1131E102F938F939F9383B1829586958695837034
S1131E2080935F0390915E03892B8430D9F018F47A
S1131E30813029F029C08B30A9F08E3029F58091AA
S1131E406403882331F0809112048F5F809312041D
S1131E501BC0809113048F5F809313048BB1806146
S1131E608BB912C080916403882331F080911204ED
S1131E7081508093120408C0809113048150809390
S1131E8013048BB180618BB980915F03880F880F35
S1131E9080935E038091130488371CF0109213041E
S1131EA005C088231CF487E78093130490911304DE
S1131EB083E99802812D1124890F8595859597FDD5
S1131EC08395282F220F220F220F281B921B92305A
S1131ED041F12CF4992351F09130B1F055C0943074
S1131EE0D1F164F1953009F443C04EC080911204DD
S1131EF088311CF01092120447C088230CF044C0AF
S1131F0087E18093120440C0809112048C331CF04A
S1131F101092120439C08823BCF58BE38093120419
S1131F2033C08091120488301CF0109212042CC02B
S1131F30882354F587E08093120426C0809112040C
S1131F4080321CF0109212041FC08823ECF48FE13D
S1131F508093120419C0809112048D301CF01092E9
S1131F60120412C0882384F48CE0809312040CC001
S1131F708091120484361CF01092120405C0882348
S1131F801CF483E6809312048BB18F7E8BB99F91EE
S1131F908F912F910F900FBE0F901F901895E9E627
S1131FA0F0E08081886080838DB382608DBB08956A
S1131FB01F920F920FB60F9211242F933F934F93BA
S1131FC05F936F937F938F939F93AF93BF93EF939D
S1131FD0FF9380916503823091F128F4882351F0B6
S1131FE0813061F0EAC0833009F4E0C0843009F440
S1131FF0E1C0E3C081E080936503DFC080911304F6
S113200083781CF481508C6F8F5F813061F01CF4F5
S1132010882331F0D2C0823051F0833061F0CDC0DA
S113202010926503CAC082E080936503C6C083E052
S113203080936503C2C084E080936503BEC0909121
S1132040130483E99802812D1124890F85958595C0
S1132050E82F97FDE3958E2F880F880F880F8E1B2E
S1132060E92FE81B8E2FEE0F990BAA0BBB0B8730C1
S1132070910508F0A2C0FC01EC5CFF4F0C94572AB8
S113208080916403811108C0809115048093120427
S113209081E08093640391C08091120480931504BD
S11320A081E0809316040E94BA171092640385C0DD
S11320B080916403811108C08091170480931204F5
S11320C081E08093640379C08091120480931704A3
S11320D082E0809316040E94BA17109264036DC0C4
S11320E080916403811108C080911A0480931204C2
S11320F081E08093640361C08091120480931A0488
S113210086E0809316040E94BA171092640355C0A7
S113211080916403811108C080911C04809312048F
S113212081E08093640349C08091120480931C046D
S113213083E0809316040E94BA17109264033DC092
S113214080916403811108C0809114048093120467
S113215081E08093640331C080911204809314045D
S113216084E0809316040E94BA171092640325C079
S113217080916403811108C0809118048093120433
S113218081E08093640319C0809112048093180441
S113219085E0809316040E94BA17109264030DC060
S11321A01092160481E08093650307C081E0809358
S11321B0650303C081E080936503FF91EF91BF91B4
S11321C0AF919F918F917F916F915F914F913F91CB
S11321D02F910F900FBE0F901F90189584B18E62AF
S11321E084B985B1837D85B98AB18B7F8AB98BB176
S11321F084608BB985B1846085B980E58CBD089510
S11322008AB180618AB98BB18F7E8BB98AB18068BB
S11322108AB98BB18F778BB98AB180628AB98BB155
S11322208F7D8BB98AB180648AB98BB18F7B8BB96E
S11322308AB1877F8AB984B18E7F84B98BB1886073
S11322408BB985B18F7385B908958EBD0DB407FE22
S1132250FDCF8EB50895E0E6F0E08081877F80832E
S113226099E288E10FB6F894A895809360000FBEB8
S1132270909360000E9400118BB180618BB90E9421
S1132280EE100E948A1888E090E00E94B8180E941C
S113229075090E94F018A8950E943F170E94A9177B
S11322A00E9489060E943404A8950E943419A895B6
S11322B08BB18F7E8BB90E94BC0E0E94D00EE9E6D2
S11322C0F0E08081826080838DB381608DBB0E9449
S11322D0CF0F789485E0EAE1F1E0ACE3B4E001905B
S11322E00D928A95E1F785E0EAE1F1E0A9E8B4E02E
S11322F001900D928A95E1F785E0EAE1F1E0A4E826
S1132300B4E001900D928A95E1F70F2EFEE88F2E2E
S1132310F4E09F2EF02D85E0EAE1F1E0D401019094
S11323200D928A95E1F785E0EAE1F1E0A7E3B4E0F4
S113233001900D928A95E1F70F2EF3E6AF2EF4E0AB
S1132340BF2EF02D85E0EAE1F1E0D50101900D9278
S11323508A95E1F7EEE7F4E080E3808381839EE2EF
S113236092838383E3E7F4E080838183E9E6F4E006
S11323708083918382838383CBE2D4E088838983BF
S11323809A838B830F2EFEE6EF2EF4E0FF2EF02DC2
S1132390F70180838183E4E9F4E08083918382837D
S11323A0838308E714E0F80180838DE2809331048D
S11323B0809341040E9409248FE594E09F938F93B6
S11323C08BE594E09F938F9387E594E09F938F939D
S11323D08FE494E09F938F938BE494E09F938F9387
S11323E087E494E09F938F938FE191E09F938F9381
S11323F08AEC93E09F938F930E94AE2A0E94092453
S1132400809118041F928F93809114041F928F93CC
S113241080911C041F928F93809119041F928F93B3
S1132420809117041F928F93809115041F928F93AC
S113243081E391E09F938F930F2EF6EBCF2EF3E081
S1132440DF2EF02DDF92CF920E94AE2A8DB79EB779
S113245080960FB6F8949EBF0FBE8DBF0E9456287B
S1132460DF92CF929F928F9284E894E09F938F9310
S113247087E394E09F938F93BF92AF921F930F9340
S1132480FF92EF9289E894E09F938F93DF93CF9329
S11324908CE394E09F938F9383E491E09F938F93D5
S11324A0C6E6D3E0DF93CF930E94AE2A09900020C2
S11324B0E9F72197AE014656534060E070E086E6A6
S11324C093E00E94932AEDB7FEB778960FB6F8947E
S11324D0FEBF0FBEEDBF8091DE03813009F040C026
S11324E087E592E00197F1F700C000008BB18061AD
S11324F08BB9E7E5F2E03197F1F700C000008BB14A
S11325008F7E8BB90E9472130E9409248FE594E098
S11325109F938F938BE594E09F938F9387E594E04B
S11325209F938F938FE494E09F938F938BE494E035
S11325309F938F9387E494E09F938F938FE191E02F
S11325409F938F9383E091E09F938F930E94AE2A91
S11325508DB79EB740960FB6F8949EBF0FBE8DBF41
S1132560C0906003D0906103E0906203F090630335
S113257090EEC91693E9D90694E0E906F1040CF447
S113258077C00E940924809118041F928F93809130
S113259014041F928F9380911C041F928F93809137
S11325A019041F928F93809117041F928F93809127
S11325B015041F928F9381E391E09F938F93C6EB51
S11325C0D3E0DF93CF930E94AE2A0E945628DF9374
S11325D0CF938EE894E09F938F9384E894E09F9345
S11325E08F9387E394E09F938F9383E694E09F9384
S11325F08F9388E794E09F938F938EE694E09F9364
S11326008F9389E894E09F938F938BE294E09F9358
S11326108F938CE394E09F938F9383E491E09F9353
S11326208F93C6E6D3E0DF93CF930E94AE2A8DB793
S11326309EB788960FB6F8949EBF0FBE8DBFCE018D
S11326400E94CC1809900020E9F72197AE01465664
S1132650534060E070E086E693E00E94932A109273
S1132660600310926103109262031092630338C0F6
S1132670C701B60128EB3BE040E050E00E94382A55
S1132680672B682B692B19F40E94562829C0C701AF
S1132690B60122E330E040E050E00E94382A672B84
S11326A0682B692BE9F480916503823089F028F462
S11326B0882341F0813049F013C0833061F08430C5
S11326C069F00EC00E9495250BC00E94A41908C091
S11326D00E94B22105C00E947E1A02C00E94F21A12
S11326E0A895F9CECF92DF92EF92FF920F931F93AA
S11326F0CF93DF938091DE03813009F0C6C28091CD
S1132700E403833009F451C130F4813069F082303C
S113271009F4B5C0B8C2853009F461C008F488C1B1
S1132720863009F41BC2AFC280911E048F5F809370
S11327301E04EEE7F4E001900020E9F73197AF01C1
S11327404E57544060E070E08EE794E00E94932A74
S1132750ECE3F4E001900020E9F73197AF014C532A
S1132760544060E070E08CE394E00E94932AE4EE2D
S1132770F3E02181828190E0982F8827822B99238E
S11327801CF49195819591096AE070E00E94022AF7
S1132790162F072FF82EE92E9F938F937F936F9315
S11327A0C2E6D1E0DF93CF938EE794E09F938F93BB
S11327B00E94AE2AEF92FF920F931F93DF93CF9361
S11327C08CE394E09F938F930E94AE2A8DB79EB7BB
S11327D040960FB6F8949EBF0FBE8DBF54C2809131
S11327E01E048F5F80931E0403E714E0F801019038
S11327F00020E9F73197AF014357544060E070E09F
S1132800C8010E94932AC9E8D4E0FE010190002087
S1132810E9F73197AF014958544060E070E0CE01C8
S11328200E94932AE4EEF3E02181828190E0982FC4
S11328308827822B6AE070E00E94022AD62EC72ED7
S11328407F936F930F2EF5E6EF2EF1E0FF2EF02D20
S1132850FF92EF921F930F930E94AE2ACF92DF92C2
S1132860FF92EF92DF93CF930E94AE2A8DB79EB76B
S11328700C960FB6F8949EBF0FBE8DBF04C2809114
S11328801E048F5F80931E04EFEDF3E0019000209F
S1132890E9F73197AF014F5D534060E070E08FED91
S11328A093E00E94932AE4E9F4E001900020E9F720
S11328B03197AF014459544060E070E084E994E0FA
S11328C00E94932AE4E8F4E001900020E9F73197AC
S11328D0AF014458544060E070E084E894E00E9402
S11328E0932A20E00BC0822F90E0FC01EB51FC4FB7
S11328F03081FC01E152FC4F30832F5F822F90E046
S1132900E4EEF3E001900020E9F73197E45EF34050
S113291031978E179F0738F38FED93E00E945A2565
S1132920EC018FED93E00E945A259C0104E610E02F
S1132930CE01B8010E94022A9F938F93C901B80166
S11329400E94022A7F936F93C2E6D1E0DF93CF9374
S113295084E994E09F938F930E94AE2A8FED93E0D5
S11329600E945A257C018FED93E00E945A259C0118
S1132970C701B8010E94022A9F938F93C901B8012D
S11329800E94022A7F936F93DF93CF9384E894E0AD
S11329909F938F930E94AE2A8DB79EB740960FB631
S11329A0F8949EBF0FBE8DBF6EC180911E048F5FD1
S11329B080931E04E1E3F4E001900020E9F73197ED
S11329C0AF014153544060E070E081E394E00E9421
S11329D0932AEEE8F4E001900020E9F73197AF0183
S11329E04E58544060E070E08EE894E00E94932AD0
S11329F020E00FC0822F90E0FC01EB51FC4F3081AE
S1132A00FC01EF5CFB4F3083FC01E257FB4F30834A
S1132A102F5F822F90E0E4EEF3E001900020E9F7CD
S1132A203197E45EF34031978E179F0718F32BC15B
S1132A3080911E048F5F80931E04EFE1F4E0019007
S1132A400020E9F73197AF014F51544060E070E046
S1132A508FE194E00E94932AE9E6F4E001900020DB
S1132A60E9F73197AF014956544060E070E089E6D8
S1132A7094E00E94932AE7E3F4E001900020E9F750
S1132A803197AF014753544060E070E087E394E02E
S1132A900E94932A20E00BC0822F90E0FC01EB51AE
S1132AA0FC4F3081FC01E15EFB4F30832F5F822FAE
S1132AB090E0E4EEF3E001900020E9F73197E45E62
S1132AC0F34031978E179F0738F38FE194E00E940B
S1132AD07C24EC018FE194E00E947C249C0104E6B8
S1132AE010E0CE01B8010E94022A9F938F93C9017E
S1132AF0B8010E94022A7F936F93C2E6D1E0DF936C
S1132B00CF9389E694E09F938F930E94AE2A8FE13E
S1132B1094E00E947C247C018FE194E00E947C2458
S1132B209C01C701B8010E94022A9F938F93C90197
S1132B30B8010E94022A7F936F93DF93CF9387E3B8
S1132B4094E09F938F930E94AE2A8DB79EB74096D0
S1132B500FB6F8949EBF0FBE8DBF95C080911E0422
S1132B608F5F80931E04E5E2F4E001900020E9F712
S1132B703197AF014552544060E070E085E294E043
S1132B800E94932AE1E4F4E001900020E9F73197F0
S1132B90AF014154544060E070E081E494E00E944D
S1132BA0932AE3E6F4E001900020E9F73197AF01BE
S1132BB04356544060E070E083E694E00E94932A18
S1132BC020E00BC0822F90E0FC01EB51FC4F3081E0
S1132BD0FC01EB5DFB4F30832F5F822F90E0E4EE2E
S1132BE0F3E001900020E9F73197E45EF340319778
S1132BF08E179F0738F385E294E00E944724EC0186
S1132C0085E294E00E9447249C0104E610E0CE0192
S1132C10B8010E94022A9F938F93C901B8010E94B0
S1132C20022A7F936F93C2E6D1E0DF93CF9381E4CE
S1132C3094E09F938F930E94AE2A85E294E00E94D1
S1132C4047247C0185E294E00E9447249C01C7014B
S1132C50B8010E94022A9F938F93C901B8010E9470
S1132C60022A7F936F93DF93CF9383E694E09F933D
S1132C708F930E94AE2A8DB79EB740960FB6F894F4
S1132C809EBF0FBE8DBF1092DE03DF91CF911F91C7
S1132C900F91FF90EF90DF90CF90089585B18B7FD7
S1132CA085B982EE0E94251182E08A95F1F700C071
S1132CB085B1846085B9089585B18B7F85B981EE2E
S1132CC00E94251182E08A95F1F700C085B18460E5
S1132CD085B9089585B18B7F85B980E50E9425115A
S1132CE082E08A95F1F700C083E70E94251185B13F
S1132CF0846085B90895EF92FF920F931F93CF9349
S1132D00DF938B01C42F95B19B7F95B90E94251148
S1132D100BC078018FEFE81AF80A8FEF0E94251193
S1132D20F8018083CD2F8701DFEFDC0FC111F1CFD4
S1132D3085B1846085B9DF91CF911F910F91FF9088
S1132D40EF900895EF92FF920F931F93CF93DF9329
S1132D508B01C42F95B19B7F95B980620E94251188
S1132D6082E08A95F1F700C00AC07801EFEFEE1A0D
S1132D70FE0AF80180810E942511CD2F8701DFEF23
S1132D80DC0FC111F2CF85B1846085B9DF91CF9199
S1132D901F910F91FF90EF900895CF93C62F95B197
S1132DA09B7F95B980620E9425118C2F0E9425116A
S1132DB085B1846085B9CF910895CF93C82F85B12B
S1132DC08B7F85B98C2F0E942511C73019F08FEFA6
S1132DD00E94251195B1946095B9CF9108951F92E1
S1132DE00F920FB60F9211242F933F934F935F933B
S1132DF06F937F938F939F93AF93BF93EF93FF93BF
S1132E0087E00E94DD1686FF0AC045E064EE73E0A9
S1132E1081E60E947B1660E487E00E94CD168091D3
S1132E201E04863011F410921E0481E08093DE03A8
S1132E30FF91EF91BF91AF919F918F917F916F918E
S1132E405F914F913F912F910F900FBE0F901F9064
S1132E50189580E00E94DD16682F636080E00E9470
S1132E60CD1685B1826085B98BE291E00197F1F7C7
S1132E7000C000000E944E160E945C16089585B1A1
S1132E808D7F85B98FE097E20197F1F700C00000CC
S1132E906AE080E00E94CD168FE097E20197F1F797
S1132EA000C0000062E081E00E94CD1662E082E092
S1132EB00E94CD1661E083E00E94CD166FE584E0A8
S1132EC00E94CD160E946A1660E08DE10E94CD1624
S1132ED060E08CE10E94CD1660E787E00E94CD1689
S1132EE06CE485E00E94CD1666E086E00E94CD1673
S1132EF043E067E171E080E10E94A21643E067E1EC
S1132F0071E08BE00E94A21665E082E10E94CD167A
S1132F100E94291708959DEC899F912D112496955F
S1132F209695969520E1929FA0011124990F292F3F
S1132F30220F220F920F891B842B0895982F9295AC
S1132F409F70990F292F220F220F920F8F70890FD4
S1132F5008950E948E1880ED0E949A188EE00E94B7
S1132F609A1880E20E949A1888E00E949A180E9497
S1132F70961808950E948E1880ED0E949A188091E8
S1132F801604833099F128F4813061F08230E1F045
S1132F90BEC0853009F498C008F484C0863009F4B2
S1132FA0A5C0B5C082E00E949A18809115048831AA
S1132FB028F40E948B170E949A18A9C080E00E94EE
S1132FC08B170E949A18A3C081E00E949A188091DE
S1132FD017048B3328F40E948B170E949A1897C009
S1132FE080E00E948B170E949A1891C084E00E948E
S1132FF09A1880911404823011F58091180483701A
S113300079F480911C048D3128F40E948B170E945E
S11330109A187DC081E00E948B170E949A1877C08D
S113302080911C048C3128F40E948B170E949A18FA
S11330306EC081E00E948B170E949A1868C021E03C
S1133040843009F020E091E0863009F090E0292BEB
S113305091E0893009F090E031E08B3009F030E004
S1133060922B11F4332379F080911C048E3128F4CF
S11330700E948B170E949A184AC081E00E948B1705
S11330800E949A1844C080911C048F3128F40E9435
S11330908B170E949A183BC081E00E948B170E94F4
S11330A09A1835C085E00E949A18809114048C30D7
S11330B028F40E948B170E949A1829C081E00E946C
S11330C08B170E949A1823C086E00E949A18809158
S11330D01804833628F40E948B170E949A1817C08C
S11330E081E00E948B170E949A1811C083E00E940D
S11330F09A1880911A04873028F40E948B170E9432
S11331009A1805C081E00E948B170E949A180E94A9
S11331109618089580E28093B800089584EA809315
S1133120BC008091BC008823E4F7089584E980936F
S1133130BC0008958093BB0084E88093BC00809118
S1133140BC008823E4F7089584EC8093BC0080914C
S1133150BC008823E4F78091BB00089584E8809341
S1133160BC008091BC008823E4F78091BB000895E3
S11331709093C5008093C400E1ECF0E08081886105
S11331808083E0ECF0E0808182608083E2ECF0E018
S113319080818E6080830895DC0140E080E013C06C
S11331A09091DE03913029F09091C00095FFF8CF03
S11331B001C041E0413099F0FD01E20FF31F90811D
S11331C09093C6008F5F282F30E0FD01019000200E
S11331D0E9F73197EA1BFB0B2E173F0728F30895F5
S11331E0EF92FF920F931F93CF93DF93CDB7DEB788
S11331F0D4500FB6F894DEBF0FBECDBF9E012F5F33
S11332003F4F790180E094E0F9019C011192215033
S11332103040E1F781E00E94FE07C7010E94540C90
S1133220870128E631E040E060E088E290E00E9417
S11332309F0B21E731E040E067E08EE190E00E94DF
S11332409F0BC7010E941D0880E00E94FE07DC5FFF
S11332500FB6F894DEBF0FBECDBFDF91CF911F91A3
S11332600F91FF90EF900895EF92FF920F931F93A9
S1133270CF93DF93CDB7DEB7D4500FB6F894DEBF4B
S11332800FBECDBF9E012F5F3F4F790180E094E0D8
S1133290F9019C01119221503040E1F781E00E9434
S11332A0FE07C7010E948A0C87012FE030E040E747
S11332B050E063E270E086E090E00E94F30C2EE7B9
S11332C031E040E061E083E090E00E949F0B24E95C
S11332D031E040E063E080E190E00E949F0BC70191
S11332E00E941D086894FF24F3F81BC08E010F5F31
S11332F01F4F2BE030E049E050E065E270E08F2D95
S113330090E00E94400DC8010E941D083FEF82E535
S113331097E0315080409040E1F700C00000EBE0BE
S1133320FE0EF4E7FF1510F780E00E94FE07DC5F55
S11333300FB6F894DEBF0FBECDBFDF91CF911F91C2
S11333400F91FF90EF9008950F931F93CF93DF9306
S1133350CDB7DEB7D4500FB6F894DEBF0FBECDBFE5
S11333608E010F5F1F4F80E094E0F8019C011192E1
S113337021503040E1F781E00E94FE07C8010E941D
S11333808A0C25EA31E041E060E08EE190E00E94A1
S11333909F0B8091130483781CF481508C6F8F5F92
S11333A0813079F11CF4882341F096C0823009F40D
S11333B04CC0833009F46DC08FC08E010F5F1F4F66
S11333C022EB31E041E062E08FE090E00E949F0B4D
S11333D024EC31E040E063E08FE090E00E949F0B3A
S11333E026ED31E040E064E08FE090E00E949F0B26
S11333F02EED31E040E065E08FE090E00E949F0B0D
S11334006BC08E010F5F1F4F22EB31E040E062E0A2
S11334108FE090E00E949F0B24EC31E041E063E0F8
S11334208FE090E00E949F0B26ED31E040E064E0E5
S11334308FE090E00E949F0B2EED31E040E065E0CC
S11334408FE090E00E949F0B47C08E010F5F1F4FDB
S113345022EB31E040E062E08FE090E00E949F0BBD
S113346024EC31E040E063E08FE090E00E949F0BA9
S113347026ED31E041E064E08FE090E00E949F0B94
S11334802EED31E040E065E08FE090E00E949F0B7C
S113349023C08E010F5F1F4F22EB31E040E062E05A
S11334A08FE090E00E949F0B24EC31E040E063E069
S11334B08FE090E00E949F0B26ED31E040E064E055
S11334C08FE090E00E949F0B2EED31E041E065E03B
S11334D08FE090E00E949F0BCE0101960E941D0890
S11334E080E00E94FE07DC5F0FB6F894DEBF0FBEDB
S11334F0CDBFDF91CF911F910F910895EF92FF926D
S11335000F931F93CF93DF93CDB7DEB7D4500FB68D
S1133510F894DEBF0FBECDBF9E012F5F3F4F7901F0
S113352080E094E0F9019C01119221503040E1F7D0
S113353081E00E94FE07C7010E948A0C870127EEE2
S113354031E041E060E089E190E00E949F0B25EFCB
S113355031E040E061E082E090E00E949F0B2AE0CD
S113356032E040E062E080E090E00E949F0B2FE1B7
S113357032E040E063E080E090E00E949F0B24E3AF
S113358032E040E064E080E090E00E949F0B2AE497
S113359032E040E065E080E090E00E949F0B2FE580
S11335A032E040E066E080E090E00E949F0B24E778
S11335B032E041E067E089E190E00E949F0BC7019F
S11335C00E941D0880E00E94FE07DC5F0FB6F8949D
S11335D0DEBF0FBECDBFDF91CF911F910F91FF9042
S11335E0EF900895EF92FF920F931F93CF93DF9381
S11335F0CDB7DEB7D4500FB6F894DEBF0FBECDBF43
S11336009E012F5F3F4F790180E094E0F9019C0116
S1133610119221503040E1F781E00E94FE07C7017A
S11336200E948A0C870121E832E041E060E087E0F3
S113363090E00E949F0B25E932E040E061E080E0E9
S113364090E00E949F0B2AEC33E040E062E080E0CF
S113365090E00E949F0B24EA32E040E063E080E0C7
S113366090E00E949F0B28EB32E040E064E080E0B1
S113367090E00E949F0B23E031E040E065E080E0B1
S113368090E00E949F0B24E732E041E067E089E18B
S113369090E00E949F0BC7010E941D0880E00E94D9
S11336A0FE07DC5F0FB6F894DEBF0FBECDBFDF911F
S11336B0CF911F910F91FF90EF9008950F931F9357
S11336C0CF93DF93EC019C0145E050E065E370E0AB
S11336D08EE690E00E94280E8E012BE24EE66DE20B
S11336E08EE60E948E0C25E348E765E386E70E9498
S11336F08E0C25E344E665E386E60E948E0C2FE3F8
S11337004EE66DE38EE60E948E0C2EE246E660E302
S113371088E60E948E0C2EE246E760E384E70E946E
S11337208E0C2CE346E76AE384E70E948E0C2CE3BC
S113373046E66AE388E60E948E0CDF91CF911F91E2
S11337400F9108950F931F93CF93DF93EC019C0186
S113375045E065E38EE60E94890D8E012BE24EE67C
S11337606DE28EE60E948E0C25E348E765E386E76A
S11337700E948E0C2FE34EE66DE38EE60E948E0CC3
S11337802EE246E760E384E70E948E0C2CE346E7D2
S11337906AE384E70E948E0C29E34AE669E38AE53A
S11337A00E948E0CAE0168E389E50E94FB06AE011F
S11337B067E388E50E94FB0626E347E564E387E5C3
S11337C00E948E0CAE0163E388E50E94FB0622E3AF
S11337D04DE562E389E50E948E0CAE0163E38EE55C
S11337E00E94FB0621E34CE56EE28CE50E948E0C00
S11337F0AE016DE28DE50E94FB062CE244E66CE22C
S11338008EE50E948E0CAE016DE285E60E94FB06F9
S113381020E346E66EE286E60E948E0CAE0161E38A
S113382085E60E94FB0620E34AE660E386E60E9402
S11338308E0CAE0168E38BE60E94FB06AE0167E3E3
S11338408CE60E94FB0626E34DE663E38DE60E94C8
S11338508E0CAE0162E38CE60E94FB06AE0161E3CE
S11338608BE60E94FB06AE0162E38AE60E941C0717
S113387013E306C0AE01612F89E60E941C071F5F97
S11338801833C0F3AE0168E38AE60E941C07AE0158
S113389060E38AE60E94FB06AE0160E389E60E94CB
S11338A0FB068E0121E341E761E38CE60E948E0C66
S11338B022E342E762E38DE60E948E0C23E343E7B2
S11338C063E38EE60E948E0C24E343E764E38EE612
S11338D00E948E0C25E343E765E38EE60E948E0C7E
S11338E026E343E766E38EE60E948E0C27E342E775
S11338F067E38DE60E948E0C28E341E768E38CE6DB
S11339000E948E0C29E340E769E38BE60E948E0C4B
S1133910DF91CF911F910F9108950F931F93CF9330
S1133920DF93EC018C0129E34AE669E38AE50E940E
S11339308E0CAE0168E389E50E94FB06AE0167E3E5
S113394088E50E94FB0626E347E564E387E50E94D9
S11339508E0CAE0163E388E50E94FB0622E34DE58D
S113396062E389E50E948E0CAE0163E38EE50E945A
S1133970FB0621E34CE56EE28CE50E948E0CAE0161
S11339806DE28DE50E94FB062CE244E66CE28EE5D6
S11339900E948E0CAE016DE285E60E94FB0620E3D8
S11339A046E66EE286E60E948E0CAE0161E385E691
S11339B00E94FB0620E34AE660E386E60E948E0C42
S11339C0AE0168E38BE60E94FB06AE0167E38CE67A
S11339D00E94FB0626E34DE663E38DE60E948E0C0F
S11339E0AE0162E38CE60E94FB06AE0161E38BE666
S11339F00E94FB0627E349E767E38EE60E948E0CEC
S1133A0026E34AE763E38AE70E948E0CAE0162E391
S1133A1089E70E94FB0621E348E761E386E70E9409
S1133A208E0CAE0162E385E70E94FB0620E346E7C5
S1133A306FE286E70E948E0C2EE245E76EE282E793
S1133A400E948E0C21E341E76FE281E70E948E0C15
S1133A50AE0162E382E70E94FB0621E340E761E3F3
S1133A608FE60E948E0CAE0162E38EE60E94FB0696
S1133A70DF91CF911F910F9108950F931F93CF93CF
S1133A80DF93EC010E948D1C8E012DE349E56BE36D
S1133A908BE50E948E0C2DE34CE56BE38EE50E94D2
S1133AA08E0C2DE34FE56BE381E60E948E0C2DE333
S1133AB042E66BE384E60E948E0C2DE345E66BE35D
S1133AC087E60E948E0C2DE348E66BE38AE60E94AB
S1133AD08E0C2AE34EE669E38FE60E948E0C2AE3FD
S1133AE041E769E382E70E948E0C2AE344E769E335
S1133AF085E70E948E0C2AE347E769E388E70E9482
S1133B008E0CDF91CF911F910F9108950F931F9306
S1133B10CF93DF93EC019C0149E064E38BE00E94C6
S1133B20890D18E00BC0AE016CE2812F0E941C07C6
S1133B30AE016DE3812F0E941C071F5F1F3098F3B5
S1133B4019E20BC0AE01612F89E00E94FB06AE01B1
S1133B50612F8DE00E94FB061F5F1E3298F3AE01B9
S1133B606AE28AE00E94FB06AE016BE28BE00E94EF
S1133B70FB06AE016CE28CE00E94FB06AE016CE336
S1133B8089E00E94FB06AE016FE389E00E94FB0618
S1133B900AE00BC0AE01612F802F0E94FB061E5F5E
S1133BA001C01BE31034B0F30F5F0D30D0F3AE014E
S1133BB06EE38DE00E94FB06AE016BE38DE00E9494
S1133BC0FB0612E310C0AE01612F84E10E941C07C2
S1133BD0AE01612F82E10E94FB06AE01612F82E0FB
S1133BE00E941C071F5F173370F3AE0167E383E184
S1133BF00E941C07AE0160E383E10E94FB0603E11F
S1133C000BC0AE01612F802F0E94FB061E5F01C016
S1133C1012E31733B0F30F5F0731D0F3AE0167E35C
S1133C2083E00E941C07AE0160E383E00E94FB0670
S1133C308E0125E342E064E382E00E948E0CAE0133
S1133C4066E383E00E94FB0612E30BC0AE01612F22
S1133C5084E00E94FB06AE01612F80E00E94FB0617
S1133C601F5F163398F3AE0166E381E00E94FB0602
S1133C70AE0164E38BE00E94FB066BEC72E081E32F
S1133C8094E00E94A52A892B41F02EC0AE01612F39
S1133C908BE00E94FB061F5F01C01EE21433B0F3E9
S1133CA08E0126E34AE065E38AE00E948E0C26E357
S1133CB04CE065E38CE00E948E0CAE016FE28AE07A
S1133CC00E94FB06AE016FE28CE00E94FB0620E33B
S1133CD04AE060E389E00E948E0C20E34DE060E35B
S1133CE08CE00E948E0C96C16DEC72E081E394E04E
S1133CF00E94A52A892B79F58E0123E34AE062E329
S1133D008AE00E948E0C23E34CE062E38CE00E9484
S1133D108E0C15E306C0AE01612F8BE00E94FB06FA
S1133D201F5F1B33C0F38E0129E34AE068E38AE096
S1133D300E948E0CAE0169E38CE00E94FB06AE018A
S1133D4068E389E00E94FB0628E34DE068E38CE029
S1133D500E948E0C5FC161ED72E081E394E00E94E9
S1133D60A52A892B79F58E0123E34AE063E389E0F0
S1133D700E948E0C25E34AE065E389E00E948E0CE4
S1133D801CE006C0AE0164E3812F0E94FB061F5FA6
S1133D901231C0F3AE0163E380E10E94FB068E01A1
S1133DA025E340E165E38FE00E948E0CAE0166E3FB
S1133DB08FE00E94FB0623E34FE062E38FE00E9462
S1133DC08E0C28C165ED72E081E394E00E94A52A7F
S1133DD0892B79F58E0123E34DE063E38CE00E94A7
S1133DE08E0C25E34DE065E38CE00E948E0C15E01B
S1133DF006C0AE0164E3812F0E94FB061F5F1B30E7
S1133E00C0F3AE0163E386E00E94FB068E0125E366
S1133E1047E065E386E00E948E0CAE0166E387E02E
S1133E200E94FB0623E347E062E387E00E948E0CD6
S1133E30F1C06FEC72E081E394E00E94A52A892B23
S1133E40B9F5AE0163E38AE00E94FB06AE0164E3C8
S1133E5089E00E94FB06AE0165E38CE00E94FB064C
S1133E60AE0166E38BE00E94FB068E012FE240E187
S1133E7064E38BE00E948E0C2FE24FE06FE28DE052
S1133E800E948E0CAE0160E38EE00E94FB06AE0140
S1133E9060E380E10E94FB0621E340E161E38FE0FF
S1133EA00E948E0CAE0162E380E10E94FB06B2C068
S1133EB063ED72E081E394E00E94A52A892B91F5D9
S1133EC0AE0163E38CE00E94FB06AE0164E38DE087
S1133ED00E94FB06AE0165E38AE00E94FB06AE0188
S1133EE066E38BE00E94FB068E012FE246E064E36A
S1133EF08BE00E948E0C2FE249E06FE287E00E9483
S1133F008E0CAE0160E388E00E94FB0622E346E0EB
S1133F1060E386E00E948E0CAE0161E387E00E94BC
S1133F20FB0678C067ED72E081E394E00E94A52A65
S1133F30892BB9F5AE0162E38BE00E94FB06AE016A
S1133F4063E38CE00E94FB06AE0165E38AE00E9415
S1133F50FB06AE0164E389E00E94FB068E0129E3BF
S1133F6040E164E38BE00E948E0CAE0169E38FE0D4
S1133F700E94FB06AE0167E38FE00E94FB0628E384
S1133F8040E166E380E10E948E0C29E34EE068E3A1
S1133F908EE00E948E0CAE0169E38DE00E94FB0668
S1133FA039C06BED72E081E394E00E94A52A892B6D
S1133FB089F5AE0162E38BE00E94FB06AE0163E388
S1133FC08AE00E94FB06AE0164E38DE00E94FB06DA
S1133FD0AE0165E38CE00E94FB068E0129E346E016
S1133FE064E38BE00E948E0C28E346E066E386E0FF
S1133FF00E948E0CAE0167E387E00E94FB0629E372
S113400049E069E387E00E948E0CAE0168E388E032
S11340100E94FB06DF91CF911F910F91089580912B
S113402019048A3098F41F928F938FED92E09F9336
S11340308F938FE494E09F938F930E94AE2A0F9006
S11340400F900F900F900F900F9012C01F928F93AC
S113405085E691E09F938F938FE494E09F938F93F1
S11340600E94AE2A0F900F900F900F900F900F9018
S1134070809117048A3098F41F928F938FED92E009
S11340809F938F938BE494E09F938F930E94AE2A27
S11340900F900F900F900F900F900F9012C01F92DF
S11340A08F9385E691E09F938F938BE494E09F93A5
S11340B08F930E94AE2A0F900F900F900F900F9045
S11340C00F90809115048A3098F41F928F938FED8E
S11340D092E09F938F9387E494E09F938F930E9441
S11340E0AE2A0F900F900F900F900F900F9012C068
S11340F01F928F9385E691E09F938F9387E494E0DA
S11341009F938F930E94AE2A0F900F900F900F9061
S11341100F900F9080911C048A3098F41F928F9313
S11341208FED92E09F938F9387E594E09F938F9315
S11341300E94AE2A0F900F900F900F900F900F9047
S113414012C01F928F9385E691E09F938F9387E52A
S113415094E09F938F930E94AE2A0F900F900F903C
S11341600F900F900F90809118048A3098F41F924A
S11341708F938FED92E09F938F938FE594E09F93BD
S11341808F930E94AE2A0F900F900F900F900F9074
S11341900F9012C01F928F9385E691E09F938F93A7
S11341A08FE594E09F938F930E94AE2A0F900F9017
S11341B00F900F900F900F90E0911A048E2F90E0C3
S11341C0FC013197E730F105D8F5E55CFF4F0C941D
S11341D0572AE3E5F4E08FEC9DEE9183808312820D
S11341E02FC0E3E5F4E082EC92EF918380831282A6
S11341F027C0E3E5F4E081ED90EF918380831282A0
S11342001FC0E3E5F4E087ED92EF9183808312828F
S113421017C0E3E5F4E08FEC92EF91838083128280
S11342200FC0E3E5F4E081ED91EE91838083128287
S113423007C0E3E5F4E082EC91EF9183808312827E
S1134240E09114048E2F90E0FC013197EC30F105DD
S113425008F087C0EE5BFF4F0C94572AE7E4F4E0C4
S11342608FED9DEE958B848B82EE90E0978B868B01
S11342700895E7E4F4E084ED95EE958B848B82EE6B
S113428090E0978B868B0895E7E4F4E08CEC90EE55
S1134290958B848B80EF90E0978B868B0895E7E471
S11342A0F4E080EC9FEE958B848B80EF90E0978B0D
S11342B0868B0895E7E4F4E08CEC90EE958B848B88
S11342C089EE90E0978B868B0895E7E4F4E088EC20
S11342D09EEF958B848B8DEE90E0978B868B089563
S11342E0E7E4F4E088EC9EEF958B848B8BEE90E012
S11342F0978B868B0895E7E4F4E080EC92EE958B3F
S1134300848B83EE90E0978B868B0895E7E4F4E04A
S113431081ED95EE958B848B8DEE90E0978B868B5B
S11343200895E7E4F4E08EEC9AEE958B848B82EFAB
S113433090E0978B868B0895E7E4F4E08DEC9EEE95
S1134340958B848B8FEF90E0978B868B0895E7E4B1
S1134350F4E084EC95EE958B848B8AEE90E0978B59
S1134360868B08950F931F93CF93DF93CDB7DEB75A
S1134370D4500FB6F894DEBF0FBECDBF8E010F5FD1
S11343801F4F80E094E0F8019C01119221503040CD
S1134390E1F70E940F2081E00E94FE07C8010E94FD
S11343A08A0C23EE32E041E060E08FE090E00E946E
S11343B09F0B9091130483E99802812D1124890F96
S11343C085958595E82F97FDE3958E2F880F880FA7
S11343D0880F8E1BE92FE81B8E2FEE0F990BAA0B6B
S11343E0BB0B8730910508F0D8C1FC01E25BFF4F9D
S11343F00C94572A80916403882321F0809112043D
S1134400809315048E010F5F1F4F27E434E041E0D1
S113441062E080E290E00E945D0B2BE434E040E037
S113442062E08EE390E00E945D0B23E534E040E01F
S113443065E08CE190E00E949F0B27E534E040E0CA
S113444065E081E390E00E949F0B2BE534E040E0BF
S113445065E086E490E00E949F0B2FE534E040E0A5
S113446065E08FE590E00E949F0B24E732E040E096
S113447067E089E190E00E949F0B8FC18091640303
S1134480882321F080911204809317048E010F5F1A
S11344901F4F27E434E040E062E080E290E00E94B5
S11344A05D0B2BE434E041E062E08EE390E00E9497
S11344B05D0B23E534E040E065E08CE190E00E9490
S11344C09F0B27E534E040E065E081E390E00E9443
S11344D09F0B2BE534E040E065E086E490E00E9429
S11344E09F0B2FE534E040E065E08FE590E00E940B
S11344F09F0B24E732E040E067E089E190E00E940E
S11345009F0B4BC180916403882321F08091120496
S113451080931A048E010F5F1F4F27E434E040E0BC
S113452062E080E290E00E945D0B2BE434E040E026
S113453062E08EE390E00E945D0B23E534E041E00D
S113454065E08CE190E00E949F0B27E534E040E0B9
S113455065E081E390E00E949F0B2BE534E040E0AE
S113456065E086E490E00E949F0B2FE534E040E094
S113457065E08FE590E00E949F0B24E732E040E085
S113458067E089E190E00E949F0B07C1809164037A
S1134590882321F08091120480931C048E010F5F04
S11345A01F4F27E434E040E062E080E290E00E94A4
S11345B05D0B2BE434E040E062E08EE390E00E9487
S11345C05D0B23E534E040E065E08CE190E00E947F
S11345D09F0B27E534E041E065E081E390E00E9431
S11345E09F0B2BE534E040E065E086E490E00E9418
S11345F09F0B2FE534E040E065E08FE590E00E94FA
S11346009F0B24E732E040E067E089E190E00E94FC
S11346109F0BC3C080916403882321F0809112040E
S1134620809314048E010F5F1F4F27E434E040E0B1
S113463062E080E290E00E945D0B2BE434E040E015
S113464062E08EE390E00E945D0B23E534E040E0FD
S113465065E08CE190E00E949F0B27E534E040E0A8
S113466065E081E390E00E949F0B2BE534E041E09C
S113467065E086E490E00E949F0B2FE534E040E083
S113468065E08FE590E00E949F0B24E732E040E074
S113469067E089E190E00E949F0B7FC080916403F2
S11346A0882321F080911204809318048E010F5FF7
S11346B01F4F27E434E040E062E080E290E00E9493
S11346C05D0B2BE434E040E062E08EE390E00E9476
S11346D05D0B23E534E040E065E08CE190E00E946E
S11346E09F0B27E534E040E065E081E390E00E9421
S11346F09F0B2BE534E040E065E086E490E00E9407
S11347009F0B2FE534E041E065E08FE590E00E94E7
S11347109F0B24E732E040E067E089E190E00E94EB
S11347209F0B3BC08E010F5F1F4F27E434E040E036
S113473062E080E290E00E945D0B2BE434E040E014
S113474062E08EE390E00E945D0B23E534E040E0FC
S113475065E08CE190E00E949F0B27E534E040E0A7
S113476065E081E390E00E949F0B2BE534E040E09C
S113477065E086E490E00E949F0B2FE534E040E082
S113478065E08FE590E00E949F0B24E732E041E072
S113479067E089E190E00E949F0B8E010F5F1F4F3D
S11347A025EF32E040E063E087E390E00E949F0B56
S11347B027EF32E040E063E085E590E00E949F0B44
S11347C02BEF32E040E065E08AE290E00E949F0B2C
S11347D02DEF32E040E065E08FE390E00E949F0B14
S11347E02DEF32E040E065E089E590E00E949F0B08
S11347F0C8010E941D0880E00E94FE07DC5F0FB61E
S1134800F894DEBF0FBECDBFDF91CF911F910F9102
S113481008950E948E1880ED0E949A1880E00E94EC
S11348209A180E9496180E948E1881ED0E949A1878
S11348300E94A4180E949E17809319040E94A41831
S11348400E949E17809317040E94A4180E949E172A
S1134850809315040E94A4180E949E1780931A0442
S11348600E94A4180E949E1780931C040E94A418FE
S11348700E949E17809314040E94AE180E949E17F3
S1134880809318040E9496180E940F200895CF93D5
S1134890DF9300D0CDB7DEB7FC0120812223A1F045
S11348A09E012F5F3F4F3F932F9325E631E03F93C7
S11348B02F939F938F930E94D02A0F900F900F9065
S11348C00F900F900F9002C01A82198269817A8129
S11348D0072E000C880B990B0E94F9282CEB34E767
S11348E043E15EE30E945D290E94C128CB010F9041
S11348F00F90DF91CF910895CF93DF9300D0CDB780
S1134900DEB7FC0120812223A1F09E012F5F3F4FDF
S11349103F932F9325E631E03F932F939F938F93FB
S11349200E94D02A0F900F900F900F900F900F902D
S113493002C01A82198269817A81072E000C880BC1
S1134940990B0E94F9282CEE31E548E35FE30E94BD
S11349505D290E94C128CB010F900F90DF91CF9168
S11349600895EF92FF920F931F93CF93DF937C01EF
S11349708C012CE148E26CE182E20E948E0C2BE176
S113498042E263E182E20E948E0C2BE148E263E1A1
S113499088E20E948E0C23E144E263E182E20E94F9
S11349A08E0C23E148E263E186E20E948E0C23E14F
S11349B044E262E184E20E948E0C23E146E262E179
S11349C086E20E948E0C22E146E262E184E20E94C9
S11349D08E0C8FE194E00E947C24803991400CF08D
S11349E048C08FE194E00E947C24863891403CF0DA
S11349F08FE194E00E947C2480399140E4F18FE1BE
S1134A0094E00E947C248C3791403CF08FE194E048
S1134A100E947C248638914084F18FE194E00E94C6
S1134A207C24823791403CF08FE194E00E947C2406
S1134A308C37914024F18FE194E00E947C248836E5
S1134A4091403CF08FE194E00E947C2482379140B5
S1134A50C4F08FE194E00E947C248E3591409CF058
S1134A608FE194E00E947C248836914074F4D1E074
S1134A700DC0D6E00BC0D5E009C0D4E007C0D3E038
S1134A8005C0D2E003C0D0E001C0D0E0C0E009C05E
S1134A906AE16C1B8701262F46E284E20E948E0C99
S1134AA0CF5FCD17A8F3DF91CF911F910F91FF90A6
S1134AB0EF900895CF93DF9300D0CDB7DEB7FC011C
S1134AC020812223A1F09E012F5F3F4F3F932F931C
S1134AD025E631E03F932F939F938F930E94D02A32
S1134AE00F900F900F900F900F900F9002C01A82AA
S1134AF0198269817A81072E000C880B990B0E9418
S1134B00F9282BE734E142E652E40E945D2920E0D3
S1134B1030E040E85EE30E945D290E94C128CB0199
S1134B200F900F90DF91CF910895CF92DF92EF9283
S1134B30FF920F931F93CF93DF93CDB7DEB7CA5085
S1134B40D4400FB6F894DEBF0FBECDBF9E012F5FD9
S1134B503F4F790180E094E0F9019C0111922150CA
S1134B603040E1F76E013FEFC31A3BEFD30A8AE00E
S1134B70F60111928A95E9F781E00E94FE07C701C8
S1134B800E948A0C0E9409248BE494E09F938F93E3
S1134B9087E494E09F938F938FEF92E09F938F939A
S1134BA0DF92CF920E94AE2A8701960140E060E036
S1134BB082E090E00E945D0B2FE434E040E060E08E
S1134BC08FE390E00E949F0B23E534E040E061E036
S1134BD08DE390E00E949F0B2BEF32E040E061E018
S1134BE089E490E00E949F0B27E534E040E061E017
S1134BF08CE490E00E949F0B2DEF32E040E061E0F6
S1134C0088E590E00E949F0B2BE534E040E061E0F2
S1134C108DE590E00E949F0B2DEF32E040E061E0D3
S1134C208FE690E00E949F0B2FE534E040E061E0C6
S1134C3084E790E00E949F0B809100010FB6F894E6
S1134C40DEBF0FBECDBF813049F4870125E033E0DC
S1134C5040E060E084E690E00E949F0B8E010F5FCD
S1134C601F4F20E042E566E082E50E948E0C20E0C2
S1134C7045E560E08FE40E948E0CA80161E080E5C8
S1134C800E94FB06A80162E081E50E94FB06A801E0
S1134C9063E082E50E94FB06A80161E084E50E94CE
S1134CA0FB06A80162E083E50E94FB06FF24F3945F
S1134CB00CC08996880F27E02F198E010F5F1F4FB4
S1134CC0482F66E00E948E0CF3948F2D90E0209183
S1134CD01E0430E02F5F3F4F8217930754F38E0179
S1134CE00F5F1F4F2BE033E040E064E08EE190E083
S1134CF00E949F0B2EE033E040E064E089E390E003
S1134D000E949F0B23E734E040E050E064E070E051
S1134D108EE290E00E94EE0A6DE270E08EE794E08D
S1134D200E949A2A892B59F02EE734E040E050E0A3
S1134D3064E070E080E090E00E94EE0A0DC08E0115
S1134D400F5F1F4F2EE734E040E050E064E070E076
S1134D5087E090E00E94EE0A8E010F5F1F4F29E664
S1134D6034E040E062E08CE290E00E94960A24E99C
S1134D7034E040E065E08AE190E00E94960A20E198
S1134D8033E040E065E08DE290E00E949F0B24E177
S1134D9033E040E066E08EE190E00E949F0B24E364
S1134DA048E164E38BE10E948E0C2BE348E164E369
S1134DB088E10E948E0C2BE34CE16BE388E10E94B6
S1134DC08E0CA8016AE38BE10E94FB06A8016CE348
S1134DD08BE10E94FB06A80169E38AE10E94FB06BD
S1134DE0A8016DE38AE10E94FB0685E294E00E943B
S1134DF047248A3591054CF02BE133E040E067E02D
S1134E008EE190E00E949F0B55C085E294E00E94E1
S1134E1047248A35910594F485E294E00E9447245E
S1134E20C29764F08E010F5F1F4F25E233E040E02C
S1134E3067E08EE190E00E949F0B3CC085E294E025
S1134E400E944724C29794F485E294E00E94472488
S1134E50499764F08E010F5F1F4F2CE233E040E06E
S1134E6067E08EE190E00E949F0B24C085E294E00D
S1134E700E94472449979CF485E294E00E944724C9
S1134E801816190664F48E010F5F1F4F26E333E0F2
S1134E9040E067E08EE190E00E949F0B0BC08E0122
S1134EA00F5F1F4F2EE333E040E067E08EE190E0B8
S1134EB00E949F0B8E010F5F1F4F2BE033E040E0F9
S1134EC064E08FE590E00E949F0B6DE270E08BE25E
S1134ED094E00E949A2A892B59F02BE234E040E0B6
S1134EE050E064E070E081E490E00E94EE0A0DC0BE
S1134EF08E010F5F1F4F2BE234E040E050E064E08E
S1134F0070E088E490E00E94EE0A8E010F5F1F4F6C
S1134F102EE033E040E064E08AE790E00E949F0BDB
S1134F202EE634E040E050E064E070E08FE690E08C
S1134F300E94EE0A28E734E040E062E086E590E073
S1134F400E94960A29E433E040E062E085E690E0BE
S1134F500E949F0B2CE433E040E062E082E790E0A3
S1134F600E949F0B2FE433E040E062E082E090E097
S1134F700E949F0B25E533E040E062E081E490E08D
S1134F800E949F0B20E140E860E180E00E948E0CCB
S1134F9028E140E268E180E00E948E0C28E140E2D2
S1134FA061E180E20E948E0C28E140E061E180E052
S1134FB00E948E0C28E143E568E180E40E948E0C97
S1134FC028E143E561E183E50E948E0C29E24FE389
S1134FD061E18FE30E948E0C29E240E869E28FE3ED
S1134FE00E948E0CC8010E94B124C8010E94861D33
S1134FF08FED93E00E945A25892B59F485E294E0C1
S11350000E9447248A35910524F0C8010E945E1B42
S113501036C08FED93E00E945A25893E93402CF0D0
S1135020CE0101960E948D1C2AC08FED93E00E9450
S11350305A251816190664F485E294E00E94472460
S11350408A3591052CF0CE0101960E94A21B17C04F
S113505085E294E00E9447248535910564F485E255
S113506094E00E944724181619062CF4CE010196E8
S11350700E943D1D04C0CE0101960E945E1BCE011C
S113508001960E941D0880E00E94FE07C65FDB4F68
S11350900FB6F894DEBF0FBECDBFDF91CF911F9145
S11350A00F91FF90EF90DF90CF9008950F931F938F
S11350B0CF93DF938BEE93E00E949A068823D9F076
S11350C0EBEEF3E0C281D0E0DC2FCC278181C82B4A
S11350D0DD231CF4D195C195D109EBEEF3E0848175
S11350E090E0982F88272381822B6AE070E00E9449
S11350F0022A162F072FCE016AE070E00E94022ACE
S11351009F938F937F936F9382E691E09F938F9306
S11351108BE294E09F938F930E94AE2A0F931F9388
S1135120C5E6D1E0DF93CF938EE694E09F938F930F
S11351300E94AE2A0E9419050E94F9282FE832EC39
S113514045EF5BE30E945D290E94C1286093E90357
S11351507093EA037F936F93DF93CF9388E794E090
S11351609F938F930E94AE2A8DB79EB744960FB635
S1135170F8949EBF0FBE8DBFDF91CF911F910F9109
S113518008950E94C8286894B1110C945729089571
S11351900E943C2988F09F5798F0B92F9927B7515E
S11351A0B0F0E1F0660F771F881F991F1AF0BA95C7
S11351B0C9F714C0B13091F00E945629B1E00895A6
S11351C00C945629672F782F8827B85F39F0B93F98
S11351D0CCF3869577956795B395D9F73EF490957A
S11351E08095709561957F4F8F4F9F4F0895E894F8
S11351F009C097FB3EF490958095709561957F4F1B
S11352008F4F9F4F9923A9F0F92F96E9BB279395C8
S1135210F695879577956795B795F111F8CFFAF4D8
S1135220BB0F11F460FF1BC06F5F7F4F8F4F9F4F09
S113523016C0882311F096E911C0772321F09EE867
S1135240872F762F05C0662371F096E8862F70E0CD
S113525060E02AF09A95660F771F881FDAF7880FA7
S11352609695879597F9089557FD9058440F551FC3
S113527059F05F3F71F04795880F97FB991F61F0D4
S11352809F3F79F087950895121613061406551F4B
S1135290F2CF4695F1DF08C0161617061806991FB7
S11352A0F1CF86957105610508940895E894BB27AC
S11352B066277727CB0197F908950E9470290C94EB
S11352C0E1290E94D32938F00E94DA2920F095239D
S11352D011F00C94CA290C94D02911240C94572948
S11352E00E94342970F3959FC1F3950F50E0551F28
S11352F0629FF001729FBB27F00DB11D639FAA2727
S1135300F00DB11DAA1F649F6627B00DA11D661F75
S1135310829F2227B00DA11D621F739FB00DA11D96
S1135320621F839FA00D611D221F749F3327A00D50
S1135330611D231F849F600D211D822F762F6A2FEC
S113534011249F5750409AF0F1F088234AF0EE0F51
S1135350FF1FBB1F661F771F881F91505040A9F77E
S11353609E3F510580F00C94CA290C9457295F3F45
S1135370E4F3983ED4F3869577956795B795F795BA
S1135380E7959F5FC1F7FE2B880F911D9695879532
S113539097F9089597F99F6780E870E060E00895B1
S11353A09FEF80EC089500240A9416161706180639
S11353B00906089500240A94121613061406050615
S11353C00895092E0394000C11F4882352F0BB0FA6
S11353D040F4BF2B11F460FF04C06F5F7F4F8F4F09
S11353E09F4F0895DB018F939F930E945D2ABF9185
S11353F0AF91A29F800D911DA39F900DB29F900D20
S11354001124089597FB072E16F4009407D077FD16
S113541009D00E94702A07FC05D03EF4909581952E
S11354209F4F0895709561957F4F0895A1E21A2EBC
S1135430AA1BBB1BFD010DC0AA1FBB1FEE1FFF1F34
S1135440A217B307E407F50720F0A21BB30BE40B84
S1135450F50B661F771F881F991F1A9469F76095CB
S11354607095809590959B01AC01BD01CF01089585
S1135470052E97FB1EF400940E944F2A57FD07D077
S11354800E94162A07FC03D04EF40C944F2A509520
S11354904095309521953F4F4F4F5F4F089590951C
S11354A08095709561957F4F8F4F9F4F0895EE0FB4
S11354B0FF1F0590F491E02D09940E94842AA59F72
S11354C0900DB49F900DA49F800D911D11240895FB
S11354D0B7FF0C945D2A0E945D2A821B930B0895EA
S11354E0AA1BBB1B51E107C0AA1FBB1FA617B70706
S11354F010F0A61BB70B881F991F5A95A9F7809522
S11355009095BC01CD010895A29FB001B39FC00145
S1135510A39F700D811D1124911DB29F700D811DDB
S11355201124911D0895DC0101C06D934150504038
S1135530E0F70895FC018191861721F08823D9F7BB
S1135540992708953197CF010895FB01DC018D91CE
S1135550019080190110D9F3990B0895AEE0B0E0E1
S1135560E4EBFAE20C94A3300D891E8986E08C8367
S11355701A8309838FEF9FE79E838D83AE01475E75
S11355805F4F6F89788DCE0101960E94E92AEF81E1
S1135590F885E00FF11F10822E96E4E00C94BF30E2
S11355A0AEE0B0E0E6EDFAE20C94A53085E08C8341
S11355B08B899C899A838983AE01495E5F4F6D898B
S11355C07E89CE0101960E94662E2E96E2E00C940E
S11355D0C130ABE0B0E0EFEEFAE20C9495306C0130
S11355E07B018A01FC0117821682838181FFCCC171
S11355F0CE0101963C01F6019381F70193FD85915B
S113560093FF81917F01882309F4BAC1853239F46B
S113561093FD859193FF81917F01853229F4B60131
S113562090E00E94DF2FE7CF912C212C312CFFE159
S1135630F315D8F08B3279F038F4803279F0833274
S1135640A1F4232D20611DC08D3261F0803369F4F3
S1135650232D216016C0832D8260382EE32DE46053
S11356603E2E2AC0F32DF8601DC037FC2DC020ED5E
S1135670280F2A3040F08E32B9F436FC81C1232D34
S11356802064322E19C036FE06C08AE0989E200D92
S11356901124922E11C0EAE02E9E200D1124222EF8
S11356A0F32DF0623F2E08C08C3621F4832D8068E0
S11356B0382E02C0883641F4F70193FD859193FF9B
S11356C081917F018111B3CF982F9F7D95549330A1
S11356D028F40C5F1F4F9FE399830DC0833631F08C
S11356E0833771F0833509F059C021C0F8018081F6
S11356F089830E5F1F4F88248394912C530113C018
S11357002801F2E04F0E511CF801A080B18036FE52
S113571003C0692D70E002C06FEF7FEFC5010E94E6
S1135720962F4C018201F32DFF773F2E16C02801DE
S113573022E0420E511CF801A080B18036FE03C065
S1135740692D70E002C06FEF7FEFC5010E948B2FBF
S11357504C01F32DF0683F2E820133FC1BC0822DD7
S113576090E088169906B0F4B60180E290E00E94B9
S1135770DF2F2A94F4CFF50137FC859137FE819110
S11357805F01B60190E00E94DF2F21102A9421E0EE
S1135790821A91088114910471F7E8C0843611F0DB
S11357A0893641F5F80137FE07C060817181828135
S11357B093810C5F1F4F08C060817181072E000C1C
S11357C0880B990B0E5F1F4FF32DFF763F2E97FF2B
S11357D009C090958095709561957F4F8F4F9F4F2D
S11357E0F0683F2E2AE030E0A3010E943430882E76
S11357F0861845C0853731F4232D2F7EB22E2AE03A
S113580030E025C0932D997FB92E8F36C1F018F45E
S1135810883579F0B5C0803719F0883721F0B0C0E9
S1135820E92FE061BE2EB4FE0DC0FB2DF460BF2E47
S113583009C034FE0AC0292F2660B22E06C028E013
S113584030E005C020E130E002C020E132E0F801A0
S1135850B7FE07C060817181828193810C5F1F4F05
S113586006C06081718180E090E00E5F1F4FA3014C
S11358700E943430882E8618FB2DFF773F2E36FE8B
S11358800DC0232D2E7FA22E891458F434FE0BC094
S113589032FC09C0832D8E7EA82E05C0B82CA32C03
S11358A003C0B82C01C0B92CA4FE0FC0FE01E80D42
S11358B0F11D8081803321F49A2D997EA92E09C08F
S11358C0A2FE06C0B394B39404C08A2D867809F06E
S11358D0B394A3FC11C0A0FE06C0B21488F4280C33
S11358E0922C9B180EC0B21460F4B60180E290E0D2
S11358F00E94DF2FB394F7CFB21418F42B1802C010
S1135900982C212CA4FE10C0B60180E390E00E94E4
S1135910DF2FA2FE17C0A1FC03C088E790E002C0FD
S113592088E590E0B6010CC08A2D867859F0A1FE76
S113593002C08BE201C080E2A7FC8DE2B60190E0D8
S11359400E94DF2F891438F4B60180E390E00E94AE
S1135950DF2F9A94F7CF8A94F301E80DF11D80812B
S1135960B60190E00E94DF2F8110F5CF222009F4C8
S113597042CEB60180E290E00E94DF2F2A94F6CF57
S1135980F6018681978102C08FEF9FEF2B96E2E1AB
S11359900C94B13020FD09C0FC0123FD05C022FF99
S11359A002C07383628351834083089544FD17C00A
S11359B046FD17C0AB01BC01DA01FB01AA0FBB1FF6
S11359C0EE1FFF1F1094D1F74A0F5B1F6E1F7F1F3E
S11359D0CB01BA01660F771F881F991F09C033E0F6
S11359E001C034E0660F771F881F991F3150D1F72B
S11359F0620F711D811D911D08950F931F93CF9305
S1135A00DF938C01C8010E94A12FEC0197FD08C00F
S1135A100E94772F892BB1F7B801CE010E941B3069
S1135A20CE01DF91CF911F910F9108958F929F9294
S1135A30AF92BF92EF92FF920F931F93CF93DF9396
S1135A408C01D62F7A01B22E0E94A12F9C013327FC
S1135A502B32310531F02D32310561F48B2D806804
S1135A60B82ED15011F480E068C0C8010E94A12F63
S1135A7097FDF9CFCB2DCD7F2B2D207309F58033E6
S1135A80F9F4AA24AA94AD0E09F443C0C8010E94F3
S1135A90A12F97FD3EC09C012F7D3327283531056A
S1135AA049F4C264D250A9F1C8010E94A12F97FF02
S1135AB007C02FC0B6FE02C0C26001C0C261DA2DA9
S1135AC0812C912C540120ED280F283080F0C4FF44
S1135AD004C0B8010E941B3019C02A3040F0C6FF30
S1135AE0F8CF2F7D3FEE320F363098F727504C2FEA
S1135AF0C501B4010E94D62C4B015C01C260D15097
S1135B0059F0C8010E94A12F97FFDDCFC1FD04C049
S1135B10AACF812C912C5401C7FF08C0B094A09443
S1135B2090948094811C911CA11CB11C2C2FB50154
S1135B30A401C7010E94CA2C81E0DF91CF911F917B
S1135B400F91FF90EF90BF90AF909F908F9008952A
S1135B50A0E2B0E0EEEAFDE20C9498305C01962EEF
S1135B607A01F9018E010F5F1F4F680180E2D801AD
S1135B701D928A95E9F7D50113968C9080E090E008
S1135B80612C712C30E061E070E083FC259183FE90
S1135B9021918F01522E211103C080E090E092C028
S1135BA02E3511F4009751F1432F50E0481759074F
S1135BB03CF42D3559F12D3219F4772009F103C045
S1135BC0772009F46AC0452D469546954695D60139
S1135BD0A40FB11D452D47708B0102C0000F111F8A
S1135BE04A95E2F7A8015C91452B4C93651459F052
S1135BF0561410F45394E7CF5A94E5CF31E004C01F
S1135C007724739401C0712C0196BFCF772019F0CB
S1135C108E8180628E83311103C08824839417C0DF
S1135C20F6019E012F5D3F4F8081809581932E1751
S1135C303F07D1F7F2CFE114F10429F0D7018C9397
S1135C40F70131967F019A94812C9920F9F0C501CE
S1135C500E94A12F97FD18C0FC01FF2723E0F595B2
S1135C60E7952A95E1F7EC0DFD1D208130E0AC01AC
S1135C704770552702C0359527954A95E2F720FDD0
S1135C80DACFB5010E941B30811087CFE114F104F3
S1135C9011F0D7011C92C80115C0422F46954695B4
S1135CA04695D601A40FB11D422F47708B0102C047
S1135CB0000F111F4A95E2F7A8015C91452B4C9304
S1135CC0622EA2CFA096EFE00C94B430A0E0B0E036
S1135CD0ECE6FEE20C9498306C01EB015A01FC01F5
S1135CE017821682512CF601E380FE01E3FC8591B4
