S00F00004E5246323454582E737265631D
S113000012C02CC003C1E0C029C028C024C126C02E
S113001025C024C023C022C021C020C01FC01EC0D0
S11300201DC01CC01BC011241FBECFE5D4E0DEBF21
S1130030CDBF10E0A0E6B0E0E4E7FFE002C0059029
S11300400D92A636B107D9F720E0A6E6B0E001C0CC
S11300501D92AA3AB207E1F7A7D18AC7D1CF86B1D8
S1130060806886B986B1876086B9089586B1806450
S113007086B93699FECF8091660090916700892BEE
S113008099F487B1816087B9809166009091670087
S11300900196909367008093660084B195B1909324
S11300A06D0080936C00089587B18E7F87B980912D
S11300B066009091670001979093670080936600B3
S11300C084B195B190936B0080936A0008952FEFEB
S11300D083ED90E3215080409040E1F700C00000A0
S11300E081B3806881BB82B3806882BB80E008955D
S11300F0BC0181B3806881BB82B38F7782BB82B33A
S1130100806882BB2FEF80E792E0215080409040CE
S1130110E1F700C0000082B38F7782BB8FE99CE8CF
S11301200197F1F700C0000082B3806882BB91B3ED
S11301309F7791BB90EA9A95F1F7879935C025EDA1
S11301402A95F1F70000879B31C085ED8A95F1F778
S1130150000080E025C0E4E0F0E0E81BF109E60FD0
S1130160F71F108290E019C0879BFECF2DE52A95DA
S1130170F1F70000879B0EC047E050E0491B51098E
S113018021E030E002C0220F331F4A95E2F73081AC
S1130190232B20838799FECF9F5F983028F38F5FAE
S11301A08530C8F281E0089580E0089580E00895E4
S11301B085B5886085BD8AEF83BD85B5866085BDBC
S11301C089B7806889BF08951F920F920FB60F9266
S11301D011242F938F939F938091680090916900CD
S11301E086342BE9920729F4109269001092680072
S11301F005C0019690936900809368009F918F9148
S11302002F910F900FBE0F901F9018951F920F9271
S11302100FB60F9211248F939F9380919800909121
S11302209900019690939900809398009F918F91E3
S11302300F900FBE0F901F9018958EB588608EBDDD
S113024089B7806189BF8DE38BBD89E08ABD8EB596
S113025085608EBD08951F920F920FB60F921124E0
S11302608F939F9380919800909199009093970019
S11302708093960010929900109298009F918F910C
S11302800F900FBE0F901F90189587B38E6287BB97
S113029088B3837D88BB81B3846081BB82B38B7F49
S11302A082BB88B3846088BB80E58DB9089581B32F
S11302B0877F81BB82B3877F82BB81B3806281BB2E
S11302C082B38F7D82BB87B38E7F87BB88B38E7FDB
S11302D088BB81B38C7E81BB82B38C7E82BB84B3AA
S11302E0837C84BB85B3837C85BB81B3806481BB01
S11302F082B38F7B82BB08958FB9779BFECF8FB17A
S11303000895B09906C083E590E0909383008093AC
S1130310820080990AC0E2E8F0E083E59DE29183DF
S1130320808387E590E093838283819906C087E583
S113033090E0909383008093820084990AC0E2E85D
S1130340F0E08EE49DE29183808387E590E09383DF
S113035082839C9906C08EE490E0909383008093FE
S113036082009D990AC0E2E8F0E08EE49DE2918368
S1130370808385E490E0938382839A9906C085E420
S113038090E090938300809382009B990AC0E2E8F6
S1130390F0E083E59DE29183808385E490E093839C
S11303A0828382E890E00895CF93DF9300D000D059
S11303B01F92CDB7DEB7FE01319685E0DF011D92B5
S11303C08A95E9F774DF82B3806482BB5EDF47DE1F
S11303D06AD288E085BF80E88BBFBFEFE9E6F8E129
S11303E0B150E040F040E1F700C0000082B38F7BE1
S11303F082BB6DDE81B5877F81BD88B1806888B995
S11304001CDFD6DE78948091680090916900892B76
S1130410D1F781B3877F81BB82B38F7D82BB86B1E5
S1130420806886B92FEF37EA81E62150304080405A
S1130430E1F700C0000037D264DF809197008F930A
S1130440809196008F9303E610E01F930F938CE83E
S113045090E09F938F93B4D209DE80916D008F93C7
S113046080916C008F931F930F9388E790E09F9384
S11304708F93A6D29FEFA3EDB0E39150A040B0407C
S1130480E1F700C00000F2DD80916B008F93809152
S11304906A008F931F930F938EE690E09F938F9340
S11304A08FD281E080939A00CE01019621DE0FB6AF
S11304B0F894DEBF0FBECDBF882331F08A81EAE90C
S11304C0F0E081838B8182838AE990E029D2809352
S11304D0A7000AE910E0F80101900020E9F731973C
S11304E0AF014A595040440F551F60E070E0C80105
S11304F060D2FFEF29E638E1F15020403040E1F7C7
S113050000C0000085E0D8018C938C8111968C93F7
S113051011978D8112968C93C80102D28093A70003
S1130520F80101900020E9F73197AF014A59504092
S1130530440F551F60E070E0C8013BD2BFEFE9E60D
S1130540F8E1B150E040F040E1F700C0000082E083
S1130550D8018C9321E030E00AC0F901E557FF4F40
S11305608081F901E656FF4F80832F5F3F4FECE80F
S1130570F0E001900020E9F7CF018C589040281753
S1130580390758F38AE990E0CBD18093A7000AE9B0
S113059010E0F80101900020E9F73197AF014A59C2
S11305A05040440F551F60E070E0C80102D2BFEF15
S11305B0E9E6F8E1B150E040F040E1F700C00000A6
S11305C083E0D8018C9321E030E00AC0F901EF57B1
S11305D0FF4F8081F901E656FF4F80832F5F3F4F25
S11305E0E2E8F0E001900020E9F7CF018258904062
S11305F02817390758F38AE990E092D18093A7002D
S11306000AE910E0F80101900020E9F73197AF0101
S11306104A595040440F551F60E070E0C801C9D1E9
S1130620BFEFE9E6F8E1B150E040F040E1F700C087
S1130630000084E0D8018C9321E030E00AC0F90185
S1130640E958FF4F8081F901E656FF4F80832F5F01
S11306503F4FE8E7F0E001900020E9F7CF01885729
S113066090402817390758F38AE990E059D18093CC
S1130670A7000AE910E0F80101900020E9F731979A
S1130680AF014A595040440F551F60E070E0C80163
S113069090D1BFEFE9E6F8E1B150E040F040E1F776
S11306A000C0000086E0D8018C9321E030E00AC04D
S11306B0F901E359FF4F8081F901E656FF4F80832A
S11306C02F5F3F4FEEE6F0E001900020E9F7CF0105
S11306D08E5690402817390758F38AE990E020D1C4
S11306E08093A700EAE9F0E001900020E9F7319750
S11306F0AF014A595040440F551F60E070E08AE949
S113070090E057D182B3806282BB86B18F7786B97D
S113071081B3886081BB77CEEF92FF920F931F93D2
S1130720CF93DF938B01C42F98B39D7F98BB98B36D
S11307309B7F98BB90E0E0DD82E08A95F1F700C0F2
S11307400AC07801EFEFEE1AFE0AF801808190E00A
S1130750D3DDCD2F8701DFEFDC0FC111F2CF88B3DA
S1130760846088BB88B3826088BBDF91CF911F917E
S11307700F91FF90EF90089588B38B7F88BB82EE32
S113078090E0BADD82E08A95F1F700C088B3846016
S113079088BB089588B38B7F88BB81EE90E0ACDD85
S11307A082E08A95F1F700C088B3846088BB08951D
S11307B088B38B7F88BB80E590E09EDD82E08A95DC
S11307C0F1F700C083E790E097DD88B3846088BBCD
S11307D00895EF92FF920F931F93CF93DF938B01B2
S11307E0C42F806298B39B7F98BB90E085DD82E044
S11307F08A95F1F700C00AC07801EFEFEE1AFE0AFD
S1130800F801808190E078DDCD2F8701DFEFDC0FE8
S1130810C111F2CF88B3846088BBDF91CF911F915F
S11308200F91FF90EF90089543E060E670E080E15F
S1130830D0DF88B38D7F88BB9FDFACDF0895CF9373
S1130840C62F806298B39B7F98BB90E055DD8C2FB8
S113085090E052DD88B3846088BBCF910895CF9334
S1130860C82F88B38B7F88BB8C2F90E045DDC730C1
S113087019F08FEF90E040DD98B3946098BBCF916E
S1130880089580E0ECDF682F636080E0D8DF88B3F0
S1130890826088BB8BE291E00197F1F700C0000011
S11308A06BDF78DF089588B38D7F88BB8FE097E294
S11308B00197F1F700C000006AE080E0C0DF8FE03C
S11308C097E20197F1F700C0000061E081E0B7DF33
S11308D061E082E0B4DF61E083E0B1DF6FE584E0F2
S11308E0AEDF66DF60E08DE1AADF60E08CE1A7DFC8
S11308F060E787E0A4DF6CE485E0A1DF66E086E0E2
S11309009EDF43E060E670E080E163DF43E060E6A1
S113091070E08AE05EDF65E081E191DFB2DF089597
S1130920CF93DF93EC0180DF80E099DF8E7F682F27
S1130930626080E084DF8BE291E00197F1F700C010
S1130940000045E0BE0180EAE7DE88B3826088BB30
S113095098E29A95F1F788B38D7F88BB8299FECF90
S113096087E07DDF982F957099F082B3806482BB15
S11309702FEF80E792E0215080409040E1F700C0E3
S1130980000082B38F7B82BB60E287E058DF06C041
S113099082FF04C060E187E052DFFCDE88E05FDFB5
S11309A0C82F6FDF60E787E04ADF8C2FDF91CF919C
S11309B00895DC0101C06D9341505040E0F7089563
S11309C0AEE0B0E0E5EEF4E0AAC20D891E8986E04F
S11309D08C831A8309838FEF9FE79E838D83AE01F7
S11309E0475E5F4F6F89788DCE01019608D0EF8105
S11309F0F885E00FF11F10822E96E4E0ACC2ABE064
S1130A00B0E0E4E0F5E07DC26C017B018A01FC0109
S1130A1017821682838181FFBFC1CE0101963C01FA
S1130A20F6019381F70193FD859193FF81917F01F5
S1130A30882309F4ADC1853239F493FD859193FF80
S1130A4081917F01853221F4B60190E0C0D1E8CFD5
S1130A50912C212C312CFFE1F315D8F08B3279F055
S1130A6038F4803279F08332A1F4232D20611DC043
S1130A708D3261F0803369F4232D216016C0832DFB
S1130A808260382EE32DE4603E2E2AC0F32DF860F8
S1130A901DC037FC2DC020ED280F2A3040F08E32C7
S1130AA0B9F436FC75C1232D2064322E19C036FEEC
S1130AB006C08AE0989E200D1124922E11C0EAE00F
S1130AC02E9E200D1124222EF32DF0623F2E08C0FD
S1130AD08C3621F4832D8068382E02C0883641F488
S1130AE0F70193FD859193FF81917F018111B3CF2C
S1130AF0982F9F7D9554933028F40C5F1F4F9FE3EC
S1130B0099830DC0833631F0833771F0833509F052
S1130B1055C020C0F801808189830E5F1F4F88244F
S1130B208394912C530112C02801F2E04F0E511C02
S1130B30F801A080B18036FE03C0692D70E002C0C8
S1130B406FEF7FEFC50138D14C018201F32DFF77A0
S1130B503F2E15C0280122E0420E511CF801A0804E
S1130B60B18036FE03C0692D70E002C06FEF7FEFE5
S1130B70C50117D14C01F32DF0683F2E820133FCDF
S1130B8019C0822D90E088169906A0F4B60180E27F
S1130B9090E01DD12A94F5CFF50137FC859137FEFD
S1130BA081915F01B60190E012D121102A9421E0D5
S1130BB0821A91088114910479F7E1C0843611F006
S1130BC0893639F5F80137FE07C060817181828169
S1130BD093810C5F1F4F08C060817181072E000C48
S1130BE0880B990B0E5F1F4FF32DFF763F2E97FF57
S1130BF009C090958095709561957F4F8F4F9F4F59
S1130C00F0683F2E2AE030E0A3011DD1882E86181B
S1130C1044C0853731F4232D2F7EB22E2AE030E0F4
S1130C2025C0932D997FB92E8F36C1F018F48835DD
S1130C3079F0AEC0803719F0883721F0A9C0E92FC8
S1130C40E061BE2EB4FE0DC0FB2DF460BF2E09C0C2
S1130C5034FE0AC0292F2660B22E06C028E030E0F8
S1130C6005C020E130E002C020E132E0F801B7FE27
S1130C7007C060817181828193810C5F1F4F06C020
S1130C806081718180E090E00E5F1F4FA301DBD093
S1130C90882E8618FB2DFF773F2E36FE0DC0232DA0
S1130CA02E7FA22E891458F434FE0BC032FC09C0E6
S1130CB0832D8E7EA82E05C0B82CA32C03C0B82C7F
S1130CC001C0B92CA4FE0FC0FE01E80DF11D808106
S1130CD0803321F49A2D997EA92E09C0A2FE06C064
S1130CE0B394B39404C08A2D867809F0B394A3FC1A
S1130CF010C0A0FE06C0B21480F4280C922C9B18DD
S1130D000DC0B21458F4B60180E290E060D0B39400
S1130D10F8CFB21418F42B1802C0982C212CA4FE7E
S1130D200FC0B60180E390E052D0A2FE16C0A1FC31
S1130D3003C088E790E002C088E590E0B6010CC0EB
S1130D408A2D867851F0A1FE02C08BE201C080E2B8
S1130D50A7FC8DE2B60190E03AD0891430F4B601D4
S1130D6080E390E034D09A94F8CF8A94F301E80DAC
S1130D70F11D8081B60190E02AD08110F6CF2220A7
S1130D8009F44ECEB60180E290E021D02A94F7CF48
S1130D90F6018681978102C08FEF9FEF2B96E2E1E7
S1130DA0CCC0FC010590615070400110D8F78095CB
S1130DB090958E0F9F1F0895FC0161507040019023
S1130DC00110D8F7809590958E0F9F1F08950F936B
S1130DD01F93CF93DF93FB01238121FD03C08FEF8A
S1130DE09FEF2CC022FF16C0468157812481358194
S1130DF04217530744F4A081B1819D012F5F3F4FF7
S1130E00318320838C93268137812F5F3F4F378333
S1130E10268314C08B01EC01FB010084F185E02DD5
S1130E200995892BE1F6D80116968D919C91179717
S1130E30019617969C938E931697CE01DF91CF91CE
S1130E401F910F910895FA01AA27283051F12031FA
S1130E5081F1E8946F936E7F6E5F7F4F8F4F9F4F4A
S1130E60AF4FB1E03ED0B4E03CD0670F781F891F8C
S1130E709A1FA11D680F791F8A1F911DA11D6A0F5A
S1130E80711D811D911DA11D20D009F468943F910D
S1130E902AE0269F11243019305D3193DEF6CF010C
S1130EA00895462F4770405D4193B3E00FD0C9F7D2
S1130EB0F6CF462F4F70405D4A3318F0495D31FD3F
S1130EC04052419302D0A9F7EACFB4E0A695979592
S1130ED0879577956795BA95C9F700976105710568
S1130EE008959B01AC010A2E0694579547953795B2
S1130EF02795BA95C9F7620F731F841F951FA01D0C
S1130F0008952F923F924F925F926F927F928F92A9
S1130F109F92AF92BF92CF92DF92EF92FF920F9384
S1130F201F93CF93DF93CDB7DEB7CA1BDB0B0FB68E
S1130F30F894DEBF0FBECDBF09942A88398848884B
S1130F405F846E847D848C849B84AA84B984C884E1
S1130F50DF80EE80FD800C811B81AA81B981CE0FD8
S1130F60D11D0FB6F894DEBF0FBECDBFED010895BD
S1070F70F894FFCF1F
S1090F74B3B40125750071
S9030000FC
